{
	"data": {
		"bytecode": {
			"linkReferences": {},
			"object": "60806040525f8055348015610012575f80fd5b503360015f6101000a81548173ffffffffffffffffffffffffffffffffffffffff021916908373ffffffffffffffffffffffffffffffffffffffff1602179055506133ce806100605f395ff3fe6080604052600436106100a6575f3560e01c80638e9962ba116100635780638e9962ba146101ab578063b6db75a0146101d3578063be4f284d146101fd578063d819c63514610225578063e26034cd1461024f578063e67549381461028b576100a6565b8063046e5a67146100aa578063057902be146100d25780632e1a7d4d146101155780634ca079f21461013d578063658918e0146101675780638bf206491461018f575b5f80fd5b3480156100b5575f80fd5b506100d060048036038101906100cb9190611acd565b6102b3565b005b3480156100dd575f80fd5b506100f860048036038101906100f39190611b2b565b610385565b60405161010c989796959493929190611bfe565b60405180910390f35b348015610120575f80fd5b5061013b60048036038101906101369190611b2b565b61060f565b005b348015610148575f80fd5b50610151610977565b60405161015e9190611e79565b60405180910390f35b348015610172575f80fd5b5061018d60048036038101906101889190611acd565b610c86565b005b6101a960048036038101906101a49190611fc5565b610d58565b005b3480156101b6575f80fd5b506101d160048036038101906101cc9190612069565b610fd8565b005b3480156101de575f80fd5b506101e76112ec565b6040516101f491906120f9565b60405180910390f35b348015610208575f80fd5b50610223600480360381019061021e9190612112565b61138b565b005b348015610230575f80fd5b50610239611542565b604051610246919061221f565b60405180910390f35b34801561025a575f80fd5b5061027560048036038101906102709190612238565b61157a565b6040516102829190612341565b60405180910390f35b348015610296575f80fd5b506102b160048036038101906102ac9190611acd565b611939565b005b60015f9054906101000a900473ffffffffffffffffffffffffffffffffffffffff1673ffffffffffffffffffffffffffffffffffffffff163373ffffffffffffffffffffffffffffffffffffffff1614610342576040517f08c379a0000000000000000000000000000000000000000000000000000000008152600401610339906123d1565b60405180910390fd5b8060025f6101000a81548173ffffffffffffffffffffffffffffffffffffffff021916908373ffffffffffffffffffffffffffffffffffffffff16021790555050565b60058181548110610394575f80fd5b905f5260205f2090600802015f91509050805f0180546103b39061241c565b80601f01602080910402602001604051908101604052809291908181526020018280546103df9061241c565b801561042a5780601f106104015761010080835404028352916020019161042a565b820191905f5260205f20905b81548152906001019060200180831161040d57829003601f168201915b50505050509080600101805461043f9061241c565b80601f016020809104026020016040519081016040528092919081815260200182805461046b9061241c565b80156104b65780601f1061048d576101008083540402835291602001916104b6565b820191905f5260205f20905b81548152906001019060200180831161049957829003601f168201915b5050505050908060020180546104cb9061241c565b80601f01602080910402602001604051908101604052809291908181526020018280546104f79061241c565b80156105425780601f1061051957610100808354040283529160200191610542565b820191905f5260205f20905b81548152906001019060200180831161052557829003601f168201915b5050505050908060030154908060040154908060050180546105639061241c565b80601f016020809104026020016040519081016040528092919081815260200182805461058f9061241c565b80156105da5780601f106105b1576101008083540402835291602001916105da565b820191905f5260205f20905b8154815290600101906020018083116105bd57829003601f168201915b505050505090806006015490806007015f9054906101000a900473ffffffffffffffffffffffffffffffffffffffff16905088565b6106176112ec565b610656576040517f08c379a000000000000000000000000000000000000000000000000000000000815260040161064d906124bc565b60405180910390fd5b5f60035f9054906101000a900473ffffffffffffffffffffffffffffffffffffffff1673ffffffffffffffffffffffffffffffffffffffff1663d93cb236836040518263ffffffff1660e01b81526004016106b1919061221f565b5f60405180830381865afa1580156106cb573d5f803e3d5ffd5b505050506040513d5f823e3d601f19601f820116820180604052508101906106f39190612788565b905060405160200161070490612823565b60405160208183030381529060405280519060200120816060015160405160200161072f9190612867565b6040516020818303038152906040528051906020012014610785576040517f08c379a000000000000000000000000000000000000000000000000000000000815260040161077c906128c7565b60405180910390fd5b80608001514710156107cc576040517f08c379a00000000000000000000000000000000000000000000000000000000081526004016107c390612955565b60405180910390fd5b5f5b6005805490508110156109725781602001516040516020016107f09190612867565b604051602081830303815290604052805190602001206005828154811061081a57610819612973565b5b905f5260205f2090600802015f016040516020016108389190612a32565b60405160208183030381529060405280519060200120036109655781608001516005828154811061086c5761086b612973565b5b905f5260205f2090600802016003015410156108bd576040517f08c379a00000000000000000000000000000000000000000000000000000000081526004016108b490612955565b60405180910390fd5b8160800151600582815481106108d6576108d5612973565b5b905f5260205f209060080201600301546108f09190612a75565b6005828154811061090457610903612973565b5b905f5260205f2090600802016003018190555081610100015173ffffffffffffffffffffffffffffffffffffffff166108fc836080015190811502906040515f60405180830381858888f19350505050158015610963573d5f803e3d5ffd5b505b80806001019150506107ce565b505050565b60606005805480602002602001604051908101604052809291908181526020015f905b82821015610c7d578382905f5260205f209060080201604051806101000160405290815f820180546109cb9061241c565b80601f01602080910402602001604051908101604052809291908181526020018280546109f79061241c565b8015610a425780601f10610a1957610100808354040283529160200191610a42565b820191905f5260205f20905b815481529060010190602001808311610a2557829003601f168201915b50505050508152602001600182018054610a5b9061241c565b80601f0160208091040260200160405190810160405280929190818152602001828054610a879061241c565b8015610ad25780601f10610aa957610100808354040283529160200191610ad2565b820191905f5260205f20905b815481529060010190602001808311610ab557829003601f168201915b50505050508152602001600282018054610aeb9061241c565b80601f0160208091040260200160405190810160405280929190818152602001828054610b179061241c565b8015610b625780601f10610b3957610100808354040283529160200191610b62565b820191905f5260205f20905b815481529060010190602001808311610b4557829003601f168201915b505050505081526020016003820154815260200160048201548152602001600582018054610b8f9061241c565b80601f0160208091040260200160405190810160405280929190818152602001828054610bbb9061241c565b8015610c065780601f10610bdd57610100808354040283529160200191610c06565b820191905f5260205f20905b815481529060010190602001808311610be957829003601f168201915b5050505050815260200160068201548152602001600782015f9054906101000a900473ffffffffffffffffffffffffffffffffffffffff1673ffffffffffffffffffffffffffffffffffffffff1673ffffffffffffffffffffffffffffffffffffffff16815250508152602001906001019061099a565b50505050905090565b60015f9054906101000a900473ffffffffffffffffffffffffffffffffffffffff1673ffffffffffffffffffffffffffffffffffffffff163373ffffffffffffffffffffffffffffffffffffffff1614610d15576040517f08c379a0000000000000000000000000000000000000000000000000000000008152600401610d0c906123d1565b60405180910390fd5b8060045f6101000a81548173ffffffffffffffffffffffffffffffffffffffff021916908373ffffffffffffffffffffffffffffffffffffffff16021790555050565b65b5e620f48000341015610da1576040517f08c379a0000000000000000000000000000000000000000000000000000000008152600401610d9890612b18565b60405180910390fd5b5f5b600580549050811015610f975783604051602001610dc19190612867565b6040516020818303038152906040528051906020012060058281548110610deb57610dea612973565b5b905f5260205f2090600802015f01604051602001610e099190612a32565b6040516020818303038152906040528051906020012003610f8a573460058281548110610e3957610e38612973565b5b905f5260205f2090600802016003015f828254610e569190612b36565b925050819055503460058281548110610e7257610e71612973565b5b905f5260205f2090600802016006015f828254610e8f9190612b36565b925050819055505f610e9f611542565b905060025f9054906101000a900473ffffffffffffffffffffffffffffffffffffffff1673ffffffffffffffffffffffffffffffffffffffff166331d7adf7828760058681548110610ef457610ef3612973565b5b905f5260205f2090600802016001018833348a6040518863ffffffff1660e01b8152600401610f299796959493929190612bea565b5f604051808303815f87803b158015610f40575f80fd5b505af1158015610f52573d5f803e3d5ffd5b50505050807f10e28c4148ed071d575b5f87a5bcbf953897e4e56f6b71d447efac1398db5e2d60405160405180910390a25050610fd3565b8080600101915050610da3565b506040517f08c379a0000000000000000000000000000000000000000000000000000000008152600401610fca90612cbd565b60405180910390fd5b505050565b610fe06112ec565b61101f576040517f08c379a0000000000000000000000000000000000000000000000000000000008152600401611016906124bc565b60405180910390fd5b5f60025f9054906101000a900473ffffffffffffffffffffffffffffffffffffffff1673ffffffffffffffffffffffffffffffffffffffff1663d740bb6c846040518263ffffffff1660e01b815260040161107a9190612cdb565b5f60405180830381865afa158015611094573d5f803e3d5ffd5b505050506040513d5f823e3d601f19601f820116820180604052508101906110bc9190612f84565b90505f4711611100576040517f08c379a00000000000000000000000000000000000000000000000000000000081526004016110f790612955565b60405180910390fd5b600181511015611145576040517f08c379a000000000000000000000000000000000000000000000000000000000815260040161113c9061303b565b60405180910390fd5b5f5b815181101561122c5781818151811061116357611162612973565b5b60200260200101516080015173ffffffffffffffffffffffffffffffffffffffff166108fc83838151811061119b5761119a612973565b5b602002602001015160a0015190811502906040515f60405180830381858888f193505050501580156111cf573d5f803e3d5ffd5b5060018282815181106111e5576111e4612973565b5b602002602001015160c00190151590811515815250508282828151811061120f5761120e612973565b5b602002602001015161010001819052508080600101915050611147565b505f5b6005805490508110156112e6578360405160200161124d9190612867565b604051602081830303815290604052805190602001206005828154811061127757611276612973565b5b905f5260205f2090600802015f016040516020016112959190612a32565b60405160208183030381529060405280519060200120036112d9575f600582815481106112c5576112c4612973565b5b905f5260205f209060080201600301819055505b808060010191505061122f565b50505050565b5f60045f9054906101000a900473ffffffffffffffffffffffffffffffffffffffff1673ffffffffffffffffffffffffffffffffffffffff16639026dee8336040518263ffffffff1660e01b81526004016113479190613059565b602060405180830381865afa158015611362573d5f803e3d5ffd5b505050506040513d601f19601f820116820180604052508101906113869190613072565b905090565b6113936112ec565b6113d2576040517f08c379a00000000000000000000000000000000000000000000000000000000081526004016113c9906124bc565b60405180910390fd5b6113da611a0b565b87815f01819052508681602001819052508581604001819052508381608001818152505084816060018181525050828160a001819052505f8160c0018181525050818160e0019073ffffffffffffffffffffffffffffffffffffffff16908173ffffffffffffffffffffffffffffffffffffffff1681525050600581908060018154018082558091505060019003905f5260205f2090600802015f909190919091505f820151815f01908161148f9190613228565b5060208201518160010190816114a59190613228565b5060408201518160020190816114bb9190613228565b50606082015181600301556080820151816004015560a08201518160050190816114e59190613228565b5060c0820151816006015560e0820151816007015f6101000a81548173ffffffffffffffffffffffffffffffffffffffff021916908373ffffffffffffffffffffffffffffffffffffffff16021790555050505050505050505050565b5f804233446040516020016115599392919061335c565b604051602081830303815290604052805190602001205f1c90508091505090565b611582611a0b565b5f5b6005805490508110156118f857826040516020016115a29190612867565b60405160208183030381529060405280519060200120600582815481106115cc576115cb612973565b5b905f5260205f2090600802015f016040516020016115ea9190612a32565b60405160208183030381529060405280519060200120036118eb576005818154811061161957611618612973565b5b905f5260205f209060080201604051806101000160405290815f820180546116409061241c565b80601f016020809104026020016040519081016040528092919081815260200182805461166c9061241c565b80156116b75780601f1061168e576101008083540402835291602001916116b7565b820191905f5260205f20905b81548152906001019060200180831161169a57829003601f168201915b505050505081526020016001820180546116d09061241c565b80601f01602080910402602001604051908101604052809291908181526020018280546116fc9061241c565b80156117475780601f1061171e57610100808354040283529160200191611747565b820191905f5260205f20905b81548152906001019060200180831161172a57829003601f168201915b505050505081526020016002820180546117609061241c565b80601f016020809104026020016040519081016040528092919081815260200182805461178c9061241c565b80156117d75780601f106117ae576101008083540402835291602001916117d7565b820191905f5260205f20905b8154815290600101906020018083116117ba57829003601f168201915b5050505050815260200160038201548152602001600482015481526020016005820180546118049061241c565b80601f01602080910402602001604051908101604052809291908181526020018280546118309061241c565b801561187b5780601f106118525761010080835404028352916020019161187b565b820191905f5260205f20905b81548152906001019060200180831161185e57829003601f168201915b5050505050815260200160068201548152602001600782015f9054906101000a900473ffffffffffffffffffffffffffffffffffffffff1673ffffffffffffffffffffffffffffffffffffffff1673ffffffffffffffffffffffffffffffffffffffff1681525050915050611934565b8080600101915050611584565b506040517f08c379a000000000000000000000000000000000000000000000000000000000815260040161192b90612cbd565b60405180910390fd5b919050565b60015f9054906101000a900473ffffffffffffffffffffffffffffffffffffffff1673ffffffffffffffffffffffffffffffffffffffff163373ffffffffffffffffffffffffffffffffffffffff16146119c8576040517f08c379a00000000000000000000000000000000000000000000000000000000081526004016119bf906123d1565b60405180910390fd5b8060035f6101000a81548173ffffffffffffffffffffffffffffffffffffffff021916908373ffffffffffffffffffffffffffffffffffffffff16021790555050565b6040518061010001604052806060815260200160608152602001606081526020015f81526020015f8152602001606081526020015f81526020015f73ffffffffffffffffffffffffffffffffffffffff1681525090565b5f604051905090565b5f80fd5b5f80fd5b5f73ffffffffffffffffffffffffffffffffffffffff82169050919050565b5f611a9c82611a73565b9050919050565b611aac81611a92565b8114611ab6575f80fd5b50565b5f81359050611ac781611aa3565b92915050565b5f60208284031215611ae257611ae1611a6b565b5b5f611aef84828501611ab9565b91505092915050565b5f819050919050565b611b0a81611af8565b8114611b14575f80fd5b50565b5f81359050611b2581611b01565b92915050565b5f60208284031215611b4057611b3f611a6b565b5b5f611b4d84828501611b17565b91505092915050565b5f81519050919050565b5f82825260208201905092915050565b5f5b83811015611b8d578082015181840152602081019050611b72565b5f8484015250505050565b5f601f19601f8301169050919050565b5f611bb282611b56565b611bbc8185611b60565b9350611bcc818560208601611b70565b611bd581611b98565b840191505092915050565b611be981611af8565b82525050565b611bf881611a92565b82525050565b5f610100820190508181035f830152611c17818b611ba8565b90508181036020830152611c2b818a611ba8565b90508181036040830152611c3f8189611ba8565b9050611c4e6060830188611be0565b611c5b6080830187611be0565b81810360a0830152611c6d8186611ba8565b9050611c7c60c0830185611be0565b611c8960e0830184611bef565b9998505050505050505050565b5f81519050919050565b5f82825260208201905092915050565b5f819050602082019050919050565b5f82825260208201905092915050565b5f611cd982611b56565b611ce38185611cbf565b9350611cf3818560208601611b70565b611cfc81611b98565b840191505092915050565b611d1081611af8565b82525050565b611d1f81611a92565b82525050565b5f61010083015f8301518482035f860152611d408282611ccf565b91505060208301518482036020860152611d5a8282611ccf565b91505060408301518482036040860152611d748282611ccf565b9150506060830151611d896060860182611d07565b506080830151611d9c6080860182611d07565b5060a083015184820360a0860152611db48282611ccf565b91505060c0830151611dc960c0860182611d07565b5060e0830151611ddc60e0860182611d16565b508091505092915050565b5f611df28383611d25565b905092915050565b5f602082019050919050565b5f611e1082611c96565b611e1a8185611ca0565b935083602082028501611e2c85611cb0565b805f5b85811015611e675784840389528151611e488582611de7565b9450611e5383611dfa565b925060208a01995050600181019050611e2f565b50829750879550505050505092915050565b5f6020820190508181035f830152611e918184611e06565b905092915050565b5f80fd5b5f80fd5b7f4e487b71000000000000000000000000000000000000000000000000000000005f52604160045260245ffd5b611ed782611b98565b810181811067ffffffffffffffff82111715611ef657611ef5611ea1565b5b80604052505050565b5f611f08611a62565b9050611f148282611ece565b919050565b5f67ffffffffffffffff821115611f3357611f32611ea1565b5b611f3c82611b98565b9050602081019050919050565b828183375f83830152505050565b5f611f69611f6484611f19565b611eff565b905082815260208101848484011115611f8557611f84611e9d565b5b611f90848285611f49565b509392505050565b5f82601f830112611fac57611fab611e99565b5b8135611fbc848260208601611f57565b91505092915050565b5f805f60608486031215611fdc57611fdb611a6b565b5b5f84013567ffffffffffffffff811115611ff957611ff8611a6f565b5b61200586828701611f98565b935050602084013567ffffffffffffffff81111561202657612025611a6f565b5b61203286828701611f98565b925050604084013567ffffffffffffffff81111561205357612052611a6f565b5b61205f86828701611f98565b9150509250925092565b5f806040838503121561207f5761207e611a6b565b5b5f83013567ffffffffffffffff81111561209c5761209b611a6f565b5b6120a885828601611f98565b925050602083013567ffffffffffffffff8111156120c9576120c8611a6f565b5b6120d585828601611f98565b9150509250929050565b5f8115159050919050565b6120f3816120df565b82525050565b5f60208201905061210c5f8301846120ea565b92915050565b5f805f805f805f60e0888a03121561212d5761212c611a6b565b5b5f88013567ffffffffffffffff81111561214a57612149611a6f565b5b6121568a828b01611f98565b975050602088013567ffffffffffffffff81111561217757612176611a6f565b5b6121838a828b01611f98565b965050604088013567ffffffffffffffff8111156121a4576121a3611a6f565b5b6121b08a828b01611f98565b95505060606121c18a828b01611b17565b94505060806121d28a828b01611b17565b93505060a088013567ffffffffffffffff8111156121f3576121f2611a6f565b5b6121ff8a828b01611f98565b92505060c06122108a828b01611ab9565b91505092959891949750929550565b5f6020820190506122325f830184611be0565b92915050565b5f6020828403121561224d5761224c611a6b565b5b5f82013567ffffffffffffffff81111561226a57612269611a6f565b5b61227684828501611f98565b91505092915050565b5f61010083015f8301518482035f86015261229a8282611ccf565b915050602083015184820360208601526122b48282611ccf565b915050604083015184820360408601526122ce8282611ccf565b91505060608301516122e36060860182611d07565b5060808301516122f66080860182611d07565b5060a083015184820360a086015261230e8282611ccf565b91505060c083015161232360c0860182611d07565b5060e083015161233660e0860182611d16565b508091505092915050565b5f6020820190508181035f830152612359818461227f565b905092915050565b7f4f6e6c79206465706c6f7965722063616e2063616c6c20746869732066756e635f8201527f74696f6e00000000000000000000000000000000000000000000000000000000602082015250565b5f6123bb602483611b60565b91506123c682612361565b604082019050919050565b5f6020820190508181035f8301526123e8816123af565b9050919050565b7f4e487b71000000000000000000000000000000000000000000000000000000005f52602260045260245ffd5b5f600282049050600182168061243357607f821691505b602082108103612446576124456123ef565b5b50919050565b7f4f6e6c792061646d696e2063616e2063616c6c20746869732066756e6374696f5f8201527f6e00000000000000000000000000000000000000000000000000000000000000602082015250565b5f6124a6602183611b60565b91506124b18261244c565b604082019050919050565b5f6020820190508181035f8301526124d38161249a565b9050919050565b5f80fd5b5f80fd5b5f815190506124f081611b01565b92915050565b5f61250861250384611f19565b611eff565b90508281526020810184848401111561252457612523611e9d565b5b61252f848285611b70565b509392505050565b5f82601f83011261254b5761254a611e99565b5b815161255b8482602086016124f6565b91505092915050565b5f61256e82611a73565b9050919050565b61257e81612564565b8114612588575f80fd5b50565b5f8151905061259981612575565b92915050565b5f61016082840312156125b5576125b46124da565b5b6125c0610160611eff565b90505f6125cf848285016124e2565b5f83015250602082015167ffffffffffffffff8111156125f2576125f16124de565b5b6125fe84828501612537565b602083015250604082015167ffffffffffffffff811115612622576126216124de565b5b61262e84828501612537565b604083015250606082015167ffffffffffffffff811115612652576126516124de565b5b61265e84828501612537565b6060830152506080612672848285016124e2565b60808301525060a082015167ffffffffffffffff811115612696576126956124de565b5b6126a284828501612537565b60a08301525060c082015167ffffffffffffffff8111156126c6576126c56124de565b5b6126d284828501612537565b60c08301525060e082015167ffffffffffffffff8111156126f6576126f56124de565b5b61270284828501612537565b60e0830152506101006127178482850161258b565b6101008301525061012082015167ffffffffffffffff81111561273d5761273c6124de565b5b61274984828501612537565b6101208301525061014082015167ffffffffffffffff81111561276f5761276e6124de565b5b61277b84828501612537565b6101408301525092915050565b5f6020828403121561279d5761279c611a6b565b5b5f82015167ffffffffffffffff8111156127ba576127b9611a6f565b5b6127c68482850161259f565b91505092915050565b5f81905092915050565b7f417070726f7665000000000000000000000000000000000000000000000000005f82015250565b5f61280d6007836127cf565b9150612818826127d9565b600782019050919050565b5f61282d82612801565b9150819050919050565b5f61284182611b56565b61284b81856127cf565b935061285b818560208601611b70565b80840191505092915050565b5f6128728284612837565b915081905092915050565b7f5265717565737420686173206265656e206e6f7420617070726f7665640000005f82015250565b5f6128b1601d83611b60565b91506128bc8261287d565b602082019050919050565b5f6020820190508181035f8301526128de816128a5565b9050919050565b7f496e73756666696369656e742062616c616e636520696e2074686520636f6e745f8201527f7261637400000000000000000000000000000000000000000000000000000000602082015250565b5f61293f602483611b60565b915061294a826128e5565b604082019050919050565b5f6020820190508181035f83015261296c81612933565b9050919050565b7f4e487b71000000000000000000000000000000000000000000000000000000005f52603260045260245ffd5b5f819050815f5260205f209050919050565b5f81546129be8161241c565b6129c881866127cf565b9450600182165f81146129e257600181146129f757612a29565b60ff1983168652811515820286019350612a29565b612a00856129a0565b5f5b83811015612a2157815481890152600182019150602081019050612a02565b838801955050505b50505092915050565b5f612a3d82846129b2565b915081905092915050565b7f4e487b71000000000000000000000000000000000000000000000000000000005f52601160045260245ffd5b5f612a7f82611af8565b9150612a8a83611af8565b9250828203905081811115612aa257612aa1612a48565b5b92915050565b7f56616c7565206d75737420626520302e3030303220455448206f722061626f765f8201527f6500000000000000000000000000000000000000000000000000000000000000602082015250565b5f612b02602183611b60565b9150612b0d82612aa8565b604082019050919050565b5f6020820190508181035f830152612b2f81612af6565b9050919050565b5f612b4082611af8565b9150612b4b83611af8565b9250828201905080821115612b6357612b62612a48565b5b92915050565b5f8154612b758161241c565b612b7f8186611b60565b9450600182165f8114612b995760018114612baf57612be1565b60ff198316865281151560200286019350612be1565b612bb8856129a0565b5f5b83811015612bd957815481890152600182019150602081019050612bba565b808801955050505b50505092915050565b5f60e082019050612bfd5f83018a611be0565b8181036020830152612c0f8189611ba8565b90508181036040830152612c238188612b69565b90508181036060830152612c378187611ba8565b9050612c466080830186611bef565b612c5360a0830185611be0565b81810360c0830152612c658184611ba8565b905098975050505050505050565b7f4e6f7420666f756e6400000000000000000000000000000000000000000000005f82015250565b5f612ca7600983611b60565b9150612cb282612c73565b602082019050919050565b5f6020820190508181035f830152612cd481612c9b565b9050919050565b5f6020820190508181035f830152612cf38184611ba8565b905092915050565b5f67ffffffffffffffff821115612d1557612d14611ea1565b5b602082029050602081019050919050565b5f80fd5b5f81519050612d3881611aa3565b92915050565b612d47816120df565b8114612d51575f80fd5b50565b5f81519050612d6281612d3e565b92915050565b5f6101208284031215612d7e57612d7d6124da565b5b612d89610120611eff565b90505f612d98848285016124e2565b5f83015250602082015167ffffffffffffffff811115612dbb57612dba6124de565b5b612dc784828501612537565b602083015250604082015167ffffffffffffffff811115612deb57612dea6124de565b5b612df784828501612537565b604083015250606082015167ffffffffffffffff811115612e1b57612e1a6124de565b5b612e2784828501612537565b6060830152506080612e3b84828501612d2a565b60808301525060a0612e4f848285016124e2565b60a08301525060c0612e6384828501612d54565b60c08301525060e082015167ffffffffffffffff811115612e8757612e866124de565b5b612e9384828501612537565b60e08301525061010082015167ffffffffffffffff811115612eb857612eb76124de565b5b612ec484828501612537565b6101008301525092915050565b5f612ee3612ede84612cfb565b611eff565b90508083825260208201905060208402830185811115612f0657612f05612d26565b5b835b81811015612f4d57805167ffffffffffffffff811115612f2b57612f2a611e99565b5b808601612f388982612d68565b85526020850194505050602081019050612f08565b5050509392505050565b5f82601f830112612f6b57612f6a611e99565b5b8151612f7b848260208601612ed1565b91505092915050565b5f60208284031215612f9957612f98611a6b565b5b5f82015167ffffffffffffffff811115612fb657612fb5611a6f565b5b612fc284828501612f57565b91505092915050565b7f4e6f206861766520616e79207472616e73616374696f6e2077686963682063615f8201527f6e20726566756e64000000000000000000000000000000000000000000000000602082015250565b5f613025602883611b60565b915061303082612fcb565b604082019050919050565b5f6020820190508181035f83015261305281613019565b9050919050565b5f60208201905061306c5f830184611bef565b92915050565b5f6020828403121561308757613086611a6b565b5b5f61309484828501612d54565b91505092915050565b5f6020601f8301049050919050565b5f82821b905092915050565b5f600883026130e77fffffffffffffffffffffffffffffffffffffffffffffffffffffffffffffffff826130ac565b6130f186836130ac565b95508019841693508086168417925050509392505050565b5f819050919050565b5f61312c61312761312284611af8565b613109565b611af8565b9050919050565b5f819050919050565b61314583613112565b61315961315182613133565b8484546130b8565b825550505050565b5f90565b61316d613161565b61317881848461313c565b505050565b5b8181101561319b576131905f82613165565b60018101905061317e565b5050565b601f8211156131e0576131b1816129a0565b6131ba8461309d565b810160208510156131c9578190505b6131dd6131d58561309d565b83018261317d565b50505b505050565b5f82821c905092915050565b5f6132005f19846008026131e5565b1980831691505092915050565b5f61321883836131f1565b9150826002028217905092915050565b61323182611b56565b67ffffffffffffffff81111561324a57613249611ea1565b5b613254825461241c565b61325f82828561319f565b5f60209050601f831160018114613290575f841561327e578287015190505b613288858261320d565b8655506132ef565b601f19841661329e866129a0565b5f5b828110156132c5578489015182556001820191506020850194506020810190506132a0565b868310156132e257848901516132de601f8916826131f1565b8355505b6001600288020188555050505b505050505050565b5f819050919050565b61331161330c82611af8565b6132f7565b82525050565b5f8160601b9050919050565b5f61332d82613317565b9050919050565b5f61333e82613323565b9050919050565b61335661335182611a92565b613334565b82525050565b5f6133678286613300565b6020820191506133778285613345565b6014820191506133878284613300565b60208201915081905094935050505056fea264697066735822122084109911ce64244ea05eceb481058c34b25a36ff7fcc70baa4008f60e5617ddf64736f6c63430008160033",
			"opcodes": "PUSH1 0x80 PUSH1 0x40 MSTORE PUSH0 DUP1 SSTORE CALLVALUE DUP1 ISZERO PUSH2 0x12 JUMPI PUSH0 DUP1 REVERT JUMPDEST POP CALLER PUSH1 0x1 PUSH0 PUSH2 0x100 EXP DUP2 SLOAD DUP2 PUSH20 0xFFFFFFFFFFFFFFFFFFFFFFFFFFFFFFFFFFFFFFFF MUL NOT AND SWAP1 DUP4 PUSH20 0xFFFFFFFFFFFFFFFFFFFFFFFFFFFFFFFFFFFFFFFF AND MUL OR SWAP1 SSTORE POP PUSH2 0x33CE DUP1 PUSH2 0x60 PUSH0 CODECOPY PUSH0 RETURN INVALID PUSH1 0x80 PUSH1 0x40 MSTORE PUSH1 0x4 CALLDATASIZE LT PUSH2 0xA6 JUMPI PUSH0 CALLDATALOAD PUSH1 0xE0 SHR DUP1 PUSH4 0x8E9962BA GT PUSH2 0x63 JUMPI DUP1 PUSH4 0x8E9962BA EQ PUSH2 0x1AB JUMPI DUP1 PUSH4 0xB6DB75A0 EQ PUSH2 0x1D3 JUMPI DUP1 PUSH4 0xBE4F284D EQ PUSH2 0x1FD JUMPI DUP1 PUSH4 0xD819C635 EQ PUSH2 0x225 JUMPI DUP1 PUSH4 0xE26034CD EQ PUSH2 0x24F JUMPI DUP1 PUSH4 0xE6754938 EQ PUSH2 0x28B JUMPI PUSH2 0xA6 JUMP JUMPDEST DUP1 PUSH4 0x46E5A67 EQ PUSH2 0xAA JUMPI DUP1 PUSH4 0x57902BE EQ PUSH2 0xD2 JUMPI DUP1 PUSH4 0x2E1A7D4D EQ PUSH2 0x115 JUMPI DUP1 PUSH4 0x4CA079F2 EQ PUSH2 0x13D JUMPI DUP1 PUSH4 0x658918E0 EQ PUSH2 0x167 JUMPI DUP1 PUSH4 0x8BF20649 EQ PUSH2 0x18F JUMPI JUMPDEST PUSH0 DUP1 REVERT JUMPDEST CALLVALUE DUP1 ISZERO PUSH2 0xB5 JUMPI PUSH0 DUP1 REVERT JUMPDEST POP PUSH2 0xD0 PUSH1 0x4 DUP1 CALLDATASIZE SUB DUP2 ADD SWAP1 PUSH2 0xCB SWAP2 SWAP1 PUSH2 0x1ACD JUMP JUMPDEST PUSH2 0x2B3 JUMP JUMPDEST STOP JUMPDEST CALLVALUE DUP1 ISZERO PUSH2 0xDD JUMPI PUSH0 DUP1 REVERT JUMPDEST POP PUSH2 0xF8 PUSH1 0x4 DUP1 CALLDATASIZE SUB DUP2 ADD SWAP1 PUSH2 0xF3 SWAP2 SWAP1 PUSH2 0x1B2B JUMP JUMPDEST PUSH2 0x385 JUMP JUMPDEST PUSH1 0x40 MLOAD PUSH2 0x10C SWAP9 SWAP8 SWAP7 SWAP6 SWAP5 SWAP4 SWAP3 SWAP2 SWAP1 PUSH2 0x1BFE JUMP JUMPDEST PUSH1 0x40 MLOAD DUP1 SWAP2 SUB SWAP1 RETURN JUMPDEST CALLVALUE DUP1 ISZERO PUSH2 0x120 JUMPI PUSH0 DUP1 REVERT JUMPDEST POP PUSH2 0x13B PUSH1 0x4 DUP1 CALLDATASIZE SUB DUP2 ADD SWAP1 PUSH2 0x136 SWAP2 SWAP1 PUSH2 0x1B2B JUMP JUMPDEST PUSH2 0x60F JUMP JUMPDEST STOP JUMPDEST CALLVALUE DUP1 ISZERO PUSH2 0x148 JUMPI PUSH0 DUP1 REVERT JUMPDEST POP PUSH2 0x151 PUSH2 0x977 JUMP JUMPDEST PUSH1 0x40 MLOAD PUSH2 0x15E SWAP2 SWAP1 PUSH2 0x1E79 JUMP JUMPDEST PUSH1 0x40 MLOAD DUP1 SWAP2 SUB SWAP1 RETURN JUMPDEST CALLVALUE DUP1 ISZERO PUSH2 0x172 JUMPI PUSH0 DUP1 REVERT JUMPDEST POP PUSH2 0x18D PUSH1 0x4 DUP1 CALLDATASIZE SUB DUP2 ADD SWAP1 PUSH2 0x188 SWAP2 SWAP1 PUSH2 0x1ACD JUMP JUMPDEST PUSH2 0xC86 JUMP JUMPDEST STOP JUMPDEST PUSH2 0x1A9 PUSH1 0x4 DUP1 CALLDATASIZE SUB DUP2 ADD SWAP1 PUSH2 0x1A4 SWAP2 SWAP1 PUSH2 0x1FC5 JUMP JUMPDEST PUSH2 0xD58 JUMP JUMPDEST STOP JUMPDEST CALLVALUE DUP1 ISZERO PUSH2 0x1B6 JUMPI PUSH0 DUP1 REVERT JUMPDEST POP PUSH2 0x1D1 PUSH1 0x4 DUP1 CALLDATASIZE SUB DUP2 ADD SWAP1 PUSH2 0x1CC SWAP2 SWAP1 PUSH2 0x2069 JUMP JUMPDEST PUSH2 0xFD8 JUMP JUMPDEST STOP JUMPDEST CALLVALUE DUP1 ISZERO PUSH2 0x1DE JUMPI PUSH0 DUP1 REVERT JUMPDEST POP PUSH2 0x1E7 PUSH2 0x12EC JUMP JUMPDEST PUSH1 0x40 MLOAD PUSH2 0x1F4 SWAP2 SWAP1 PUSH2 0x20F9 JUMP JUMPDEST PUSH1 0x40 MLOAD DUP1 SWAP2 SUB SWAP1 RETURN JUMPDEST CALLVALUE DUP1 ISZERO PUSH2 0x208 JUMPI PUSH0 DUP1 REVERT JUMPDEST POP PUSH2 0x223 PUSH1 0x4 DUP1 CALLDATASIZE SUB DUP2 ADD SWAP1 PUSH2 0x21E SWAP2 SWAP1 PUSH2 0x2112 JUMP JUMPDEST PUSH2 0x138B JUMP JUMPDEST STOP JUMPDEST CALLVALUE DUP1 ISZERO PUSH2 0x230 JUMPI PUSH0 DUP1 REVERT JUMPDEST POP PUSH2 0x239 PUSH2 0x1542 JUMP JUMPDEST PUSH1 0x40 MLOAD PUSH2 0x246 SWAP2 SWAP1 PUSH2 0x221F JUMP JUMPDEST PUSH1 0x40 MLOAD DUP1 SWAP2 SUB SWAP1 RETURN JUMPDEST CALLVALUE DUP1 ISZERO PUSH2 0x25A JUMPI PUSH0 DUP1 REVERT JUMPDEST POP PUSH2 0x275 PUSH1 0x4 DUP1 CALLDATASIZE SUB DUP2 ADD SWAP1 PUSH2 0x270 SWAP2 SWAP1 PUSH2 0x2238 JUMP JUMPDEST PUSH2 0x157A JUMP JUMPDEST PUSH1 0x40 MLOAD PUSH2 0x282 SWAP2 SWAP1 PUSH2 0x2341 JUMP JUMPDEST PUSH1 0x40 MLOAD DUP1 SWAP2 SUB SWAP1 RETURN JUMPDEST CALLVALUE DUP1 ISZERO PUSH2 0x296 JUMPI PUSH0 DUP1 REVERT JUMPDEST POP PUSH2 0x2B1 PUSH1 0x4 DUP1 CALLDATASIZE SUB DUP2 ADD SWAP1 PUSH2 0x2AC SWAP2 SWAP1 PUSH2 0x1ACD JUMP JUMPDEST PUSH2 0x1939 JUMP JUMPDEST STOP JUMPDEST PUSH1 0x1 PUSH0 SWAP1 SLOAD SWAP1 PUSH2 0x100 EXP SWAP1 DIV PUSH20 0xFFFFFFFFFFFFFFFFFFFFFFFFFFFFFFFFFFFFFFFF AND PUSH20 0xFFFFFFFFFFFFFFFFFFFFFFFFFFFFFFFFFFFFFFFF AND CALLER PUSH20 0xFFFFFFFFFFFFFFFFFFFFFFFFFFFFFFFFFFFFFFFF AND EQ PUSH2 0x342 JUMPI PUSH1 0x40 MLOAD PUSH32 0x8C379A000000000000000000000000000000000000000000000000000000000 DUP2 MSTORE PUSH1 0x4 ADD PUSH2 0x339 SWAP1 PUSH2 0x23D1 JUMP JUMPDEST PUSH1 0x40 MLOAD DUP1 SWAP2 SUB SWAP1 REVERT JUMPDEST DUP1 PUSH1 0x2 PUSH0 PUSH2 0x100 EXP DUP2 SLOAD DUP2 PUSH20 0xFFFFFFFFFFFFFFFFFFFFFFFFFFFFFFFFFFFFFFFF MUL NOT AND SWAP1 DUP4 PUSH20 0xFFFFFFFFFFFFFFFFFFFFFFFFFFFFFFFFFFFFFFFF AND MUL OR SWAP1 SSTORE POP POP JUMP JUMPDEST PUSH1 0x5 DUP2 DUP2 SLOAD DUP2 LT PUSH2 0x394 JUMPI PUSH0 DUP1 REVERT JUMPDEST SWAP1 PUSH0 MSTORE PUSH1 0x20 PUSH0 KECCAK256 SWAP1 PUSH1 0x8 MUL ADD PUSH0 SWAP2 POP SWAP1 POP DUP1 PUSH0 ADD DUP1 SLOAD PUSH2 0x3B3 SWAP1 PUSH2 0x241C JUMP JUMPDEST DUP1 PUSH1 0x1F ADD PUSH1 0x20 DUP1 SWAP2 DIV MUL PUSH1 0x20 ADD PUSH1 0x40 MLOAD SWAP1 DUP2 ADD PUSH1 0x40 MSTORE DUP1 SWAP3 SWAP2 SWAP1 DUP2 DUP2 MSTORE PUSH1 0x20 ADD DUP3 DUP1 SLOAD PUSH2 0x3DF SWAP1 PUSH2 0x241C JUMP JUMPDEST DUP1 ISZERO PUSH2 0x42A JUMPI DUP1 PUSH1 0x1F LT PUSH2 0x401 JUMPI PUSH2 0x100 DUP1 DUP4 SLOAD DIV MUL DUP4 MSTORE SWAP2 PUSH1 0x20 ADD SWAP2 PUSH2 0x42A JUMP JUMPDEST DUP3 ADD SWAP2 SWAP1 PUSH0 MSTORE PUSH1 0x20 PUSH0 KECCAK256 SWAP1 JUMPDEST DUP2 SLOAD DUP2 MSTORE SWAP1 PUSH1 0x1 ADD SWAP1 PUSH1 0x20 ADD DUP1 DUP4 GT PUSH2 0x40D JUMPI DUP3 SWAP1 SUB PUSH1 0x1F AND DUP3 ADD SWAP2 JUMPDEST POP POP POP POP POP SWAP1 DUP1 PUSH1 0x1 ADD DUP1 SLOAD PUSH2 0x43F SWAP1 PUSH2 0x241C JUMP JUMPDEST DUP1 PUSH1 0x1F ADD PUSH1 0x20 DUP1 SWAP2 DIV MUL PUSH1 0x20 ADD PUSH1 0x40 MLOAD SWAP1 DUP2 ADD PUSH1 0x40 MSTORE DUP1 SWAP3 SWAP2 SWAP1 DUP2 DUP2 MSTORE PUSH1 0x20 ADD DUP3 DUP1 SLOAD PUSH2 0x46B SWAP1 PUSH2 0x241C JUMP JUMPDEST DUP1 ISZERO PUSH2 0x4B6 JUMPI DUP1 PUSH1 0x1F LT PUSH2 0x48D JUMPI PUSH2 0x100 DUP1 DUP4 SLOAD DIV MUL DUP4 MSTORE SWAP2 PUSH1 0x20 ADD SWAP2 PUSH2 0x4B6 JUMP JUMPDEST DUP3 ADD SWAP2 SWAP1 PUSH0 MSTORE PUSH1 0x20 PUSH0 KECCAK256 SWAP1 JUMPDEST DUP2 SLOAD DUP2 MSTORE SWAP1 PUSH1 0x1 ADD SWAP1 PUSH1 0x20 ADD DUP1 DUP4 GT PUSH2 0x499 JUMPI DUP3 SWAP1 SUB PUSH1 0x1F AND DUP3 ADD SWAP2 JUMPDEST POP POP POP POP POP SWAP1 DUP1 PUSH1 0x2 ADD DUP1 SLOAD PUSH2 0x4CB SWAP1 PUSH2 0x241C JUMP JUMPDEST DUP1 PUSH1 0x1F ADD PUSH1 0x20 DUP1 SWAP2 DIV MUL PUSH1 0x20 ADD PUSH1 0x40 MLOAD SWAP1 DUP2 ADD PUSH1 0x40 MSTORE DUP1 SWAP3 SWAP2 SWAP1 DUP2 DUP2 MSTORE PUSH1 0x20 ADD DUP3 DUP1 SLOAD PUSH2 0x4F7 SWAP1 PUSH2 0x241C JUMP JUMPDEST DUP1 ISZERO PUSH2 0x542 JUMPI DUP1 PUSH1 0x1F LT PUSH2 0x519 JUMPI PUSH2 0x100 DUP1 DUP4 SLOAD DIV MUL DUP4 MSTORE SWAP2 PUSH1 0x20 ADD SWAP2 PUSH2 0x542 JUMP JUMPDEST DUP3 ADD SWAP2 SWAP1 PUSH0 MSTORE PUSH1 0x20 PUSH0 KECCAK256 SWAP1 JUMPDEST DUP2 SLOAD DUP2 MSTORE SWAP1 PUSH1 0x1 ADD SWAP1 PUSH1 0x20 ADD DUP1 DUP4 GT PUSH2 0x525 JUMPI DUP3 SWAP1 SUB PUSH1 0x1F AND DUP3 ADD SWAP2 JUMPDEST POP POP POP POP POP SWAP1 DUP1 PUSH1 0x3 ADD SLOAD SWAP1 DUP1 PUSH1 0x4 ADD SLOAD SWAP1 DUP1 PUSH1 0x5 ADD DUP1 SLOAD PUSH2 0x563 SWAP1 PUSH2 0x241C JUMP JUMPDEST DUP1 PUSH1 0x1F ADD PUSH1 0x20 DUP1 SWAP2 DIV MUL PUSH1 0x20 ADD PUSH1 0x40 MLOAD SWAP1 DUP2 ADD PUSH1 0x40 MSTORE DUP1 SWAP3 SWAP2 SWAP1 DUP2 DUP2 MSTORE PUSH1 0x20 ADD DUP3 DUP1 SLOAD PUSH2 0x58F SWAP1 PUSH2 0x241C JUMP JUMPDEST DUP1 ISZERO PUSH2 0x5DA JUMPI DUP1 PUSH1 0x1F LT PUSH2 0x5B1 JUMPI PUSH2 0x100 DUP1 DUP4 SLOAD DIV MUL DUP4 MSTORE SWAP2 PUSH1 0x20 ADD SWAP2 PUSH2 0x5DA JUMP JUMPDEST DUP3 ADD SWAP2 SWAP1 PUSH0 MSTORE PUSH1 0x20 PUSH0 KECCAK256 SWAP1 JUMPDEST DUP2 SLOAD DUP2 MSTORE SWAP1 PUSH1 0x1 ADD SWAP1 PUSH1 0x20 ADD DUP1 DUP4 GT PUSH2 0x5BD JUMPI DUP3 SWAP1 SUB PUSH1 0x1F AND DUP3 ADD SWAP2 JUMPDEST POP POP POP POP POP SWAP1 DUP1 PUSH1 0x6 ADD SLOAD SWAP1 DUP1 PUSH1 0x7 ADD PUSH0 SWAP1 SLOAD SWAP1 PUSH2 0x100 EXP SWAP1 DIV PUSH20 0xFFFFFFFFFFFFFFFFFFFFFFFFFFFFFFFFFFFFFFFF AND SWAP1 POP DUP9 JUMP JUMPDEST PUSH2 0x617 PUSH2 0x12EC JUMP JUMPDEST PUSH2 0x656 JUMPI PUSH1 0x40 MLOAD PUSH32 0x8C379A000000000000000000000000000000000000000000000000000000000 DUP2 MSTORE PUSH1 0x4 ADD PUSH2 0x64D SWAP1 PUSH2 0x24BC JUMP JUMPDEST PUSH1 0x40 MLOAD DUP1 SWAP2 SUB SWAP1 REVERT JUMPDEST PUSH0 PUSH1 0x3 PUSH0 SWAP1 SLOAD SWAP1 PUSH2 0x100 EXP SWAP1 DIV PUSH20 0xFFFFFFFFFFFFFFFFFFFFFFFFFFFFFFFFFFFFFFFF AND PUSH20 0xFFFFFFFFFFFFFFFFFFFFFFFFFFFFFFFFFFFFFFFF AND PUSH4 0xD93CB236 DUP4 PUSH1 0x40 MLOAD DUP3 PUSH4 0xFFFFFFFF AND PUSH1 0xE0 SHL DUP2 MSTORE PUSH1 0x4 ADD PUSH2 0x6B1 SWAP2 SWAP1 PUSH2 0x221F JUMP JUMPDEST PUSH0 PUSH1 0x40 MLOAD DUP1 DUP4 SUB DUP2 DUP7 GAS STATICCALL ISZERO DUP1 ISZERO PUSH2 0x6CB JUMPI RETURNDATASIZE PUSH0 DUP1 RETURNDATACOPY RETURNDATASIZE PUSH0 REVERT JUMPDEST POP POP POP POP PUSH1 0x40 MLOAD RETURNDATASIZE PUSH0 DUP3 RETURNDATACOPY RETURNDATASIZE PUSH1 0x1F NOT PUSH1 0x1F DUP3 ADD AND DUP3 ADD DUP1 PUSH1 0x40 MSTORE POP DUP2 ADD SWAP1 PUSH2 0x6F3 SWAP2 SWAP1 PUSH2 0x2788 JUMP JUMPDEST SWAP1 POP PUSH1 0x40 MLOAD PUSH1 0x20 ADD PUSH2 0x704 SWAP1 PUSH2 0x2823 JUMP JUMPDEST PUSH1 0x40 MLOAD PUSH1 0x20 DUP2 DUP4 SUB SUB DUP2 MSTORE SWAP1 PUSH1 0x40 MSTORE DUP1 MLOAD SWAP1 PUSH1 0x20 ADD KECCAK256 DUP2 PUSH1 0x60 ADD MLOAD PUSH1 0x40 MLOAD PUSH1 0x20 ADD PUSH2 0x72F SWAP2 SWAP1 PUSH2 0x2867 JUMP JUMPDEST PUSH1 0x40 MLOAD PUSH1 0x20 DUP2 DUP4 SUB SUB DUP2 MSTORE SWAP1 PUSH1 0x40 MSTORE DUP1 MLOAD SWAP1 PUSH1 0x20 ADD KECCAK256 EQ PUSH2 0x785 JUMPI PUSH1 0x40 MLOAD PUSH32 0x8C379A000000000000000000000000000000000000000000000000000000000 DUP2 MSTORE PUSH1 0x4 ADD PUSH2 0x77C SWAP1 PUSH2 0x28C7 JUMP JUMPDEST PUSH1 0x40 MLOAD DUP1 SWAP2 SUB SWAP1 REVERT JUMPDEST DUP1 PUSH1 0x80 ADD MLOAD SELFBALANCE LT ISZERO PUSH2 0x7CC JUMPI PUSH1 0x40 MLOAD PUSH32 0x8C379A000000000000000000000000000000000000000000000000000000000 DUP2 MSTORE PUSH1 0x4 ADD PUSH2 0x7C3 SWAP1 PUSH2 0x2955 JUMP JUMPDEST PUSH1 0x40 MLOAD DUP1 SWAP2 SUB SWAP1 REVERT JUMPDEST PUSH0 JUMPDEST PUSH1 0x5 DUP1 SLOAD SWAP1 POP DUP2 LT ISZERO PUSH2 0x972 JUMPI DUP2 PUSH1 0x20 ADD MLOAD PUSH1 0x40 MLOAD PUSH1 0x20 ADD PUSH2 0x7F0 SWAP2 SWAP1 PUSH2 0x2867 JUMP JUMPDEST PUSH1 0x40 MLOAD PUSH1 0x20 DUP2 DUP4 SUB SUB DUP2 MSTORE SWAP1 PUSH1 0x40 MSTORE DUP1 MLOAD SWAP1 PUSH1 0x20 ADD KECCAK256 PUSH1 0x5 DUP3 DUP2 SLOAD DUP2 LT PUSH2 0x81A JUMPI PUSH2 0x819 PUSH2 0x2973 JUMP JUMPDEST JUMPDEST SWAP1 PUSH0 MSTORE PUSH1 0x20 PUSH0 KECCAK256 SWAP1 PUSH1 0x8 MUL ADD PUSH0 ADD PUSH1 0x40 MLOAD PUSH1 0x20 ADD PUSH2 0x838 SWAP2 SWAP1 PUSH2 0x2A32 JUMP JUMPDEST PUSH1 0x40 MLOAD PUSH1 0x20 DUP2 DUP4 SUB SUB DUP2 MSTORE SWAP1 PUSH1 0x40 MSTORE DUP1 MLOAD SWAP1 PUSH1 0x20 ADD KECCAK256 SUB PUSH2 0x965 JUMPI DUP2 PUSH1 0x80 ADD MLOAD PUSH1 0x5 DUP3 DUP2 SLOAD DUP2 LT PUSH2 0x86C JUMPI PUSH2 0x86B PUSH2 0x2973 JUMP JUMPDEST JUMPDEST SWAP1 PUSH0 MSTORE PUSH1 0x20 PUSH0 KECCAK256 SWAP1 PUSH1 0x8 MUL ADD PUSH1 0x3 ADD SLOAD LT ISZERO PUSH2 0x8BD JUMPI PUSH1 0x40 MLOAD PUSH32 0x8C379A000000000000000000000000000000000000000000000000000000000 DUP2 MSTORE PUSH1 0x4 ADD PUSH2 0x8B4 SWAP1 PUSH2 0x2955 JUMP JUMPDEST PUSH1 0x40 MLOAD DUP1 SWAP2 SUB SWAP1 REVERT JUMPDEST DUP2 PUSH1 0x80 ADD MLOAD PUSH1 0x5 DUP3 DUP2 SLOAD DUP2 LT PUSH2 0x8D6 JUMPI PUSH2 0x8D5 PUSH2 0x2973 JUMP JUMPDEST JUMPDEST SWAP1 PUSH0 MSTORE PUSH1 0x20 PUSH0 KECCAK256 SWAP1 PUSH1 0x8 MUL ADD PUSH1 0x3 ADD SLOAD PUSH2 0x8F0 SWAP2 SWAP1 PUSH2 0x2A75 JUMP JUMPDEST PUSH1 0x5 DUP3 DUP2 SLOAD DUP2 LT PUSH2 0x904 JUMPI PUSH2 0x903 PUSH2 0x2973 JUMP JUMPDEST JUMPDEST SWAP1 PUSH0 MSTORE PUSH1 0x20 PUSH0 KECCAK256 SWAP1 PUSH1 0x8 MUL ADD PUSH1 0x3 ADD DUP2 SWAP1 SSTORE POP DUP2 PUSH2 0x100 ADD MLOAD PUSH20 0xFFFFFFFFFFFFFFFFFFFFFFFFFFFFFFFFFFFFFFFF AND PUSH2 0x8FC DUP4 PUSH1 0x80 ADD MLOAD SWAP1 DUP2 ISZERO MUL SWAP1 PUSH1 0x40 MLOAD PUSH0 PUSH1 0x40 MLOAD DUP1 DUP4 SUB DUP2 DUP6 DUP9 DUP9 CALL SWAP4 POP POP POP POP ISZERO DUP1 ISZERO PUSH2 0x963 JUMPI RETURNDATASIZE PUSH0 DUP1 RETURNDATACOPY RETURNDATASIZE PUSH0 REVERT JUMPDEST POP JUMPDEST DUP1 DUP1 PUSH1 0x1 ADD SWAP2 POP POP PUSH2 0x7CE JUMP JUMPDEST POP POP POP JUMP JUMPDEST PUSH1 0x60 PUSH1 0x5 DUP1 SLOAD DUP1 PUSH1 0x20 MUL PUSH1 0x20 ADD PUSH1 0x40 MLOAD SWAP1 DUP2 ADD PUSH1 0x40 MSTORE DUP1 SWAP3 SWAP2 SWAP1 DUP2 DUP2 MSTORE PUSH1 0x20 ADD PUSH0 SWAP1 JUMPDEST DUP3 DUP3 LT ISZERO PUSH2 0xC7D JUMPI DUP4 DUP3 SWAP1 PUSH0 MSTORE PUSH1 0x20 PUSH0 KECCAK256 SWAP1 PUSH1 0x8 MUL ADD PUSH1 0x40 MLOAD DUP1 PUSH2 0x100 ADD PUSH1 0x40 MSTORE SWAP1 DUP2 PUSH0 DUP3 ADD DUP1 SLOAD PUSH2 0x9CB SWAP1 PUSH2 0x241C JUMP JUMPDEST DUP1 PUSH1 0x1F ADD PUSH1 0x20 DUP1 SWAP2 DIV MUL PUSH1 0x20 ADD PUSH1 0x40 MLOAD SWAP1 DUP2 ADD PUSH1 0x40 MSTORE DUP1 SWAP3 SWAP2 SWAP1 DUP2 DUP2 MSTORE PUSH1 0x20 ADD DUP3 DUP1 SLOAD PUSH2 0x9F7 SWAP1 PUSH2 0x241C JUMP JUMPDEST DUP1 ISZERO PUSH2 0xA42 JUMPI DUP1 PUSH1 0x1F LT PUSH2 0xA19 JUMPI PUSH2 0x100 DUP1 DUP4 SLOAD DIV MUL DUP4 MSTORE SWAP2 PUSH1 0x20 ADD SWAP2 PUSH2 0xA42 JUMP JUMPDEST DUP3 ADD SWAP2 SWAP1 PUSH0 MSTORE PUSH1 0x20 PUSH0 KECCAK256 SWAP1 JUMPDEST DUP2 SLOAD DUP2 MSTORE SWAP1 PUSH1 0x1 ADD SWAP1 PUSH1 0x20 ADD DUP1 DUP4 GT PUSH2 0xA25 JUMPI DUP3 SWAP1 SUB PUSH1 0x1F AND DUP3 ADD SWAP2 JUMPDEST POP POP POP POP POP DUP2 MSTORE PUSH1 0x20 ADD PUSH1 0x1 DUP3 ADD DUP1 SLOAD PUSH2 0xA5B SWAP1 PUSH2 0x241C JUMP JUMPDEST DUP1 PUSH1 0x1F ADD PUSH1 0x20 DUP1 SWAP2 DIV MUL PUSH1 0x20 ADD PUSH1 0x40 MLOAD SWAP1 DUP2 ADD PUSH1 0x40 MSTORE DUP1 SWAP3 SWAP2 SWAP1 DUP2 DUP2 MSTORE PUSH1 0x20 ADD DUP3 DUP1 SLOAD PUSH2 0xA87 SWAP1 PUSH2 0x241C JUMP JUMPDEST DUP1 ISZERO PUSH2 0xAD2 JUMPI DUP1 PUSH1 0x1F LT PUSH2 0xAA9 JUMPI PUSH2 0x100 DUP1 DUP4 SLOAD DIV MUL DUP4 MSTORE SWAP2 PUSH1 0x20 ADD SWAP2 PUSH2 0xAD2 JUMP JUMPDEST DUP3 ADD SWAP2 SWAP1 PUSH0 MSTORE PUSH1 0x20 PUSH0 KECCAK256 SWAP1 JUMPDEST DUP2 SLOAD DUP2 MSTORE SWAP1 PUSH1 0x1 ADD SWAP1 PUSH1 0x20 ADD DUP1 DUP4 GT PUSH2 0xAB5 JUMPI DUP3 SWAP1 SUB PUSH1 0x1F AND DUP3 ADD SWAP2 JUMPDEST POP POP POP POP POP DUP2 MSTORE PUSH1 0x20 ADD PUSH1 0x2 DUP3 ADD DUP1 SLOAD PUSH2 0xAEB SWAP1 PUSH2 0x241C JUMP JUMPDEST DUP1 PUSH1 0x1F ADD PUSH1 0x20 DUP1 SWAP2 DIV MUL PUSH1 0x20 ADD PUSH1 0x40 MLOAD SWAP1 DUP2 ADD PUSH1 0x40 MSTORE DUP1 SWAP3 SWAP2 SWAP1 DUP2 DUP2 MSTORE PUSH1 0x20 ADD DUP3 DUP1 SLOAD PUSH2 0xB17 SWAP1 PUSH2 0x241C JUMP JUMPDEST DUP1 ISZERO PUSH2 0xB62 JUMPI DUP1 PUSH1 0x1F LT PUSH2 0xB39 JUMPI PUSH2 0x100 DUP1 DUP4 SLOAD DIV MUL DUP4 MSTORE SWAP2 PUSH1 0x20 ADD SWAP2 PUSH2 0xB62 JUMP JUMPDEST DUP3 ADD SWAP2 SWAP1 PUSH0 MSTORE PUSH1 0x20 PUSH0 KECCAK256 SWAP1 JUMPDEST DUP2 SLOAD DUP2 MSTORE SWAP1 PUSH1 0x1 ADD SWAP1 PUSH1 0x20 ADD DUP1 DUP4 GT PUSH2 0xB45 JUMPI DUP3 SWAP1 SUB PUSH1 0x1F AND DUP3 ADD SWAP2 JUMPDEST POP POP POP POP POP DUP2 MSTORE PUSH1 0x20 ADD PUSH1 0x3 DUP3 ADD SLOAD DUP2 MSTORE PUSH1 0x20 ADD PUSH1 0x4 DUP3 ADD SLOAD DUP2 MSTORE PUSH1 0x20 ADD PUSH1 0x5 DUP3 ADD DUP1 SLOAD PUSH2 0xB8F SWAP1 PUSH2 0x241C JUMP JUMPDEST DUP1 PUSH1 0x1F ADD PUSH1 0x20 DUP1 SWAP2 DIV MUL PUSH1 0x20 ADD PUSH1 0x40 MLOAD SWAP1 DUP2 ADD PUSH1 0x40 MSTORE DUP1 SWAP3 SWAP2 SWAP1 DUP2 DUP2 MSTORE PUSH1 0x20 ADD DUP3 DUP1 SLOAD PUSH2 0xBBB SWAP1 PUSH2 0x241C JUMP JUMPDEST DUP1 ISZERO PUSH2 0xC06 JUMPI DUP1 PUSH1 0x1F LT PUSH2 0xBDD JUMPI PUSH2 0x100 DUP1 DUP4 SLOAD DIV MUL DUP4 MSTORE SWAP2 PUSH1 0x20 ADD SWAP2 PUSH2 0xC06 JUMP JUMPDEST DUP3 ADD SWAP2 SWAP1 PUSH0 MSTORE PUSH1 0x20 PUSH0 KECCAK256 SWAP1 JUMPDEST DUP2 SLOAD DUP2 MSTORE SWAP1 PUSH1 0x1 ADD SWAP1 PUSH1 0x20 ADD DUP1 DUP4 GT PUSH2 0xBE9 JUMPI DUP3 SWAP1 SUB PUSH1 0x1F AND DUP3 ADD SWAP2 JUMPDEST POP POP POP POP POP DUP2 MSTORE PUSH1 0x20 ADD PUSH1 0x6 DUP3 ADD SLOAD DUP2 MSTORE PUSH1 0x20 ADD PUSH1 0x7 DUP3 ADD PUSH0 SWAP1 SLOAD SWAP1 PUSH2 0x100 EXP SWAP1 DIV PUSH20 0xFFFFFFFFFFFFFFFFFFFFFFFFFFFFFFFFFFFFFFFF AND PUSH20 0xFFFFFFFFFFFFFFFFFFFFFFFFFFFFFFFFFFFFFFFF AND PUSH20 0xFFFFFFFFFFFFFFFFFFFFFFFFFFFFFFFFFFFFFFFF AND DUP2 MSTORE POP POP DUP2 MSTORE PUSH1 0x20 ADD SWAP1 PUSH1 0x1 ADD SWAP1 PUSH2 0x99A JUMP JUMPDEST POP POP POP POP SWAP1 POP SWAP1 JUMP JUMPDEST PUSH1 0x1 PUSH0 SWAP1 SLOAD SWAP1 PUSH2 0x100 EXP SWAP1 DIV PUSH20 0xFFFFFFFFFFFFFFFFFFFFFFFFFFFFFFFFFFFFFFFF AND PUSH20 0xFFFFFFFFFFFFFFFFFFFFFFFFFFFFFFFFFFFFFFFF AND CALLER PUSH20 0xFFFFFFFFFFFFFFFFFFFFFFFFFFFFFFFFFFFFFFFF AND EQ PUSH2 0xD15 JUMPI PUSH1 0x40 MLOAD PUSH32 0x8C379A000000000000000000000000000000000000000000000000000000000 DUP2 MSTORE PUSH1 0x4 ADD PUSH2 0xD0C SWAP1 PUSH2 0x23D1 JUMP JUMPDEST PUSH1 0x40 MLOAD DUP1 SWAP2 SUB SWAP1 REVERT JUMPDEST DUP1 PUSH1 0x4 PUSH0 PUSH2 0x100 EXP DUP2 SLOAD DUP2 PUSH20 0xFFFFFFFFFFFFFFFFFFFFFFFFFFFFFFFFFFFFFFFF MUL NOT AND SWAP1 DUP4 PUSH20 0xFFFFFFFFFFFFFFFFFFFFFFFFFFFFFFFFFFFFFFFF AND MUL OR SWAP1 SSTORE POP POP JUMP JUMPDEST PUSH6 0xB5E620F48000 CALLVALUE LT ISZERO PUSH2 0xDA1 JUMPI PUSH1 0x40 MLOAD PUSH32 0x8C379A000000000000000000000000000000000000000000000000000000000 DUP2 MSTORE PUSH1 0x4 ADD PUSH2 0xD98 SWAP1 PUSH2 0x2B18 JUMP JUMPDEST PUSH1 0x40 MLOAD DUP1 SWAP2 SUB SWAP1 REVERT JUMPDEST PUSH0 JUMPDEST PUSH1 0x5 DUP1 SLOAD SWAP1 POP DUP2 LT ISZERO PUSH2 0xF97 JUMPI DUP4 PUSH1 0x40 MLOAD PUSH1 0x20 ADD PUSH2 0xDC1 SWAP2 SWAP1 PUSH2 0x2867 JUMP JUMPDEST PUSH1 0x40 MLOAD PUSH1 0x20 DUP2 DUP4 SUB SUB DUP2 MSTORE SWAP1 PUSH1 0x40 MSTORE DUP1 MLOAD SWAP1 PUSH1 0x20 ADD KECCAK256 PUSH1 0x5 DUP3 DUP2 SLOAD DUP2 LT PUSH2 0xDEB JUMPI PUSH2 0xDEA PUSH2 0x2973 JUMP JUMPDEST JUMPDEST SWAP1 PUSH0 MSTORE PUSH1 0x20 PUSH0 KECCAK256 SWAP1 PUSH1 0x8 MUL ADD PUSH0 ADD PUSH1 0x40 MLOAD PUSH1 0x20 ADD PUSH2 0xE09 SWAP2 SWAP1 PUSH2 0x2A32 JUMP JUMPDEST PUSH1 0x40 MLOAD PUSH1 0x20 DUP2 DUP4 SUB SUB DUP2 MSTORE SWAP1 PUSH1 0x40 MSTORE DUP1 MLOAD SWAP1 PUSH1 0x20 ADD KECCAK256 SUB PUSH2 0xF8A JUMPI CALLVALUE PUSH1 0x5 DUP3 DUP2 SLOAD DUP2 LT PUSH2 0xE39 JUMPI PUSH2 0xE38 PUSH2 0x2973 JUMP JUMPDEST JUMPDEST SWAP1 PUSH0 MSTORE PUSH1 0x20 PUSH0 KECCAK256 SWAP1 PUSH1 0x8 MUL ADD PUSH1 0x3 ADD PUSH0 DUP3 DUP3 SLOAD PUSH2 0xE56 SWAP2 SWAP1 PUSH2 0x2B36 JUMP JUMPDEST SWAP3 POP POP DUP2 SWAP1 SSTORE POP CALLVALUE PUSH1 0x5 DUP3 DUP2 SLOAD DUP2 LT PUSH2 0xE72 JUMPI PUSH2 0xE71 PUSH2 0x2973 JUMP JUMPDEST JUMPDEST SWAP1 PUSH0 MSTORE PUSH1 0x20 PUSH0 KECCAK256 SWAP1 PUSH1 0x8 MUL ADD PUSH1 0x6 ADD PUSH0 DUP3 DUP3 SLOAD PUSH2 0xE8F SWAP2 SWAP1 PUSH2 0x2B36 JUMP JUMPDEST SWAP3 POP POP DUP2 SWAP1 SSTORE POP PUSH0 PUSH2 0xE9F PUSH2 0x1542 JUMP JUMPDEST SWAP1 POP PUSH1 0x2 PUSH0 SWAP1 SLOAD SWAP1 PUSH2 0x100 EXP SWAP1 DIV PUSH20 0xFFFFFFFFFFFFFFFFFFFFFFFFFFFFFFFFFFFFFFFF AND PUSH20 0xFFFFFFFFFFFFFFFFFFFFFFFFFFFFFFFFFFFFFFFF AND PUSH4 0x31D7ADF7 DUP3 DUP8 PUSH1 0x5 DUP7 DUP2 SLOAD DUP2 LT PUSH2 0xEF4 JUMPI PUSH2 0xEF3 PUSH2 0x2973 JUMP JUMPDEST JUMPDEST SWAP1 PUSH0 MSTORE PUSH1 0x20 PUSH0 KECCAK256 SWAP1 PUSH1 0x8 MUL ADD PUSH1 0x1 ADD DUP9 CALLER CALLVALUE DUP11 PUSH1 0x40 MLOAD DUP9 PUSH4 0xFFFFFFFF AND PUSH1 0xE0 SHL DUP2 MSTORE PUSH1 0x4 ADD PUSH2 0xF29 SWAP8 SWAP7 SWAP6 SWAP5 SWAP4 SWAP3 SWAP2 SWAP1 PUSH2 0x2BEA JUMP JUMPDEST PUSH0 PUSH1 0x40 MLOAD DUP1 DUP4 SUB DUP2 PUSH0 DUP8 DUP1 EXTCODESIZE ISZERO DUP1 ISZERO PUSH2 0xF40 JUMPI PUSH0 DUP1 REVERT JUMPDEST POP GAS CALL ISZERO DUP1 ISZERO PUSH2 0xF52 JUMPI RETURNDATASIZE PUSH0 DUP1 RETURNDATACOPY RETURNDATASIZE PUSH0 REVERT JUMPDEST POP POP POP POP DUP1 PUSH32 0x10E28C4148ED071D575B5F87A5BCBF953897E4E56F6B71D447EFAC1398DB5E2D PUSH1 0x40 MLOAD PUSH1 0x40 MLOAD DUP1 SWAP2 SUB SWAP1 LOG2 POP POP PUSH2 0xFD3 JUMP JUMPDEST DUP1 DUP1 PUSH1 0x1 ADD SWAP2 POP POP PUSH2 0xDA3 JUMP JUMPDEST POP PUSH1 0x40 MLOAD PUSH32 0x8C379A000000000000000000000000000000000000000000000000000000000 DUP2 MSTORE PUSH1 0x4 ADD PUSH2 0xFCA SWAP1 PUSH2 0x2CBD JUMP JUMPDEST PUSH1 0x40 MLOAD DUP1 SWAP2 SUB SWAP1 REVERT JUMPDEST POP POP POP JUMP JUMPDEST PUSH2 0xFE0 PUSH2 0x12EC JUMP JUMPDEST PUSH2 0x101F JUMPI PUSH1 0x40 MLOAD PUSH32 0x8C379A000000000000000000000000000000000000000000000000000000000 DUP2 MSTORE PUSH1 0x4 ADD PUSH2 0x1016 SWAP1 PUSH2 0x24BC JUMP JUMPDEST PUSH1 0x40 MLOAD DUP1 SWAP2 SUB SWAP1 REVERT JUMPDEST PUSH0 PUSH1 0x2 PUSH0 SWAP1 SLOAD SWAP1 PUSH2 0x100 EXP SWAP1 DIV PUSH20 0xFFFFFFFFFFFFFFFFFFFFFFFFFFFFFFFFFFFFFFFF AND PUSH20 0xFFFFFFFFFFFFFFFFFFFFFFFFFFFFFFFFFFFFFFFF AND PUSH4 0xD740BB6C DUP5 PUSH1 0x40 MLOAD DUP3 PUSH4 0xFFFFFFFF AND PUSH1 0xE0 SHL DUP2 MSTORE PUSH1 0x4 ADD PUSH2 0x107A SWAP2 SWAP1 PUSH2 0x2CDB JUMP JUMPDEST PUSH0 PUSH1 0x40 MLOAD DUP1 DUP4 SUB DUP2 DUP7 GAS STATICCALL ISZERO DUP1 ISZERO PUSH2 0x1094 JUMPI RETURNDATASIZE PUSH0 DUP1 RETURNDATACOPY RETURNDATASIZE PUSH0 REVERT JUMPDEST POP POP POP POP PUSH1 0x40 MLOAD RETURNDATASIZE PUSH0 DUP3 RETURNDATACOPY RETURNDATASIZE PUSH1 0x1F NOT PUSH1 0x1F DUP3 ADD AND DUP3 ADD DUP1 PUSH1 0x40 MSTORE POP DUP2 ADD SWAP1 PUSH2 0x10BC SWAP2 SWAP1 PUSH2 0x2F84 JUMP JUMPDEST SWAP1 POP PUSH0 SELFBALANCE GT PUSH2 0x1100 JUMPI PUSH1 0x40 MLOAD PUSH32 0x8C379A000000000000000000000000000000000000000000000000000000000 DUP2 MSTORE PUSH1 0x4 ADD PUSH2 0x10F7 SWAP1 PUSH2 0x2955 JUMP JUMPDEST PUSH1 0x40 MLOAD DUP1 SWAP2 SUB SWAP1 REVERT JUMPDEST PUSH1 0x1 DUP2 MLOAD LT ISZERO PUSH2 0x1145 JUMPI PUSH1 0x40 MLOAD PUSH32 0x8C379A000000000000000000000000000000000000000000000000000000000 DUP2 MSTORE PUSH1 0x4 ADD PUSH2 0x113C SWAP1 PUSH2 0x303B JUMP JUMPDEST PUSH1 0x40 MLOAD DUP1 SWAP2 SUB SWAP1 REVERT JUMPDEST PUSH0 JUMPDEST DUP2 MLOAD DUP2 LT ISZERO PUSH2 0x122C JUMPI DUP2 DUP2 DUP2 MLOAD DUP2 LT PUSH2 0x1163 JUMPI PUSH2 0x1162 PUSH2 0x2973 JUMP JUMPDEST JUMPDEST PUSH1 0x20 MUL PUSH1 0x20 ADD ADD MLOAD PUSH1 0x80 ADD MLOAD PUSH20 0xFFFFFFFFFFFFFFFFFFFFFFFFFFFFFFFFFFFFFFFF AND PUSH2 0x8FC DUP4 DUP4 DUP2 MLOAD DUP2 LT PUSH2 0x119B JUMPI PUSH2 0x119A PUSH2 0x2973 JUMP JUMPDEST JUMPDEST PUSH1 0x20 MUL PUSH1 0x20 ADD ADD MLOAD PUSH1 0xA0 ADD MLOAD SWAP1 DUP2 ISZERO MUL SWAP1 PUSH1 0x40 MLOAD PUSH0 PUSH1 0x40 MLOAD DUP1 DUP4 SUB DUP2 DUP6 DUP9 DUP9 CALL SWAP4 POP POP POP POP ISZERO DUP1 ISZERO PUSH2 0x11CF JUMPI RETURNDATASIZE PUSH0 DUP1 RETURNDATACOPY RETURNDATASIZE PUSH0 REVERT JUMPDEST POP PUSH1 0x1 DUP3 DUP3 DUP2 MLOAD DUP2 LT PUSH2 0x11E5 JUMPI PUSH2 0x11E4 PUSH2 0x2973 JUMP JUMPDEST JUMPDEST PUSH1 0x20 MUL PUSH1 0x20 ADD ADD MLOAD PUSH1 0xC0 ADD SWAP1 ISZERO ISZERO SWAP1 DUP2 ISZERO ISZERO DUP2 MSTORE POP POP DUP3 DUP3 DUP3 DUP2 MLOAD DUP2 LT PUSH2 0x120F JUMPI PUSH2 0x120E PUSH2 0x2973 JUMP JUMPDEST JUMPDEST PUSH1 0x20 MUL PUSH1 0x20 ADD ADD MLOAD PUSH2 0x100 ADD DUP2 SWAP1 MSTORE POP DUP1 DUP1 PUSH1 0x1 ADD SWAP2 POP POP PUSH2 0x1147 JUMP JUMPDEST POP PUSH0 JUMPDEST PUSH1 0x5 DUP1 SLOAD SWAP1 POP DUP2 LT ISZERO PUSH2 0x12E6 JUMPI DUP4 PUSH1 0x40 MLOAD PUSH1 0x20 ADD PUSH2 0x124D SWAP2 SWAP1 PUSH2 0x2867 JUMP JUMPDEST PUSH1 0x40 MLOAD PUSH1 0x20 DUP2 DUP4 SUB SUB DUP2 MSTORE SWAP1 PUSH1 0x40 MSTORE DUP1 MLOAD SWAP1 PUSH1 0x20 ADD KECCAK256 PUSH1 0x5 DUP3 DUP2 SLOAD DUP2 LT PUSH2 0x1277 JUMPI PUSH2 0x1276 PUSH2 0x2973 JUMP JUMPDEST JUMPDEST SWAP1 PUSH0 MSTORE PUSH1 0x20 PUSH0 KECCAK256 SWAP1 PUSH1 0x8 MUL ADD PUSH0 ADD PUSH1 0x40 MLOAD PUSH1 0x20 ADD PUSH2 0x1295 SWAP2 SWAP1 PUSH2 0x2A32 JUMP JUMPDEST PUSH1 0x40 MLOAD PUSH1 0x20 DUP2 DUP4 SUB SUB DUP2 MSTORE SWAP1 PUSH1 0x40 MSTORE DUP1 MLOAD SWAP1 PUSH1 0x20 ADD KECCAK256 SUB PUSH2 0x12D9 JUMPI PUSH0 PUSH1 0x5 DUP3 DUP2 SLOAD DUP2 LT PUSH2 0x12C5 JUMPI PUSH2 0x12C4 PUSH2 0x2973 JUMP JUMPDEST JUMPDEST SWAP1 PUSH0 MSTORE PUSH1 0x20 PUSH0 KECCAK256 SWAP1 PUSH1 0x8 MUL ADD PUSH1 0x3 ADD DUP2 SWAP1 SSTORE POP JUMPDEST DUP1 DUP1 PUSH1 0x1 ADD SWAP2 POP POP PUSH2 0x122F JUMP JUMPDEST POP POP POP POP JUMP JUMPDEST PUSH0 PUSH1 0x4 PUSH0 SWAP1 SLOAD SWAP1 PUSH2 0x100 EXP SWAP1 DIV PUSH20 0xFFFFFFFFFFFFFFFFFFFFFFFFFFFFFFFFFFFFFFFF AND PUSH20 0xFFFFFFFFFFFFFFFFFFFFFFFFFFFFFFFFFFFFFFFF AND PUSH4 0x9026DEE8 CALLER PUSH1 0x40 MLOAD DUP3 PUSH4 0xFFFFFFFF AND PUSH1 0xE0 SHL DUP2 MSTORE PUSH1 0x4 ADD PUSH2 0x1347 SWAP2 SWAP1 PUSH2 0x3059 JUMP JUMPDEST PUSH1 0x20 PUSH1 0x40 MLOAD DUP1 DUP4 SUB DUP2 DUP7 GAS STATICCALL ISZERO DUP1 ISZERO PUSH2 0x1362 JUMPI RETURNDATASIZE PUSH0 DUP1 RETURNDATACOPY RETURNDATASIZE PUSH0 REVERT JUMPDEST POP POP POP POP PUSH1 0x40 MLOAD RETURNDATASIZE PUSH1 0x1F NOT PUSH1 0x1F DUP3 ADD AND DUP3 ADD DUP1 PUSH1 0x40 MSTORE POP DUP2 ADD SWAP1 PUSH2 0x1386 SWAP2 SWAP1 PUSH2 0x3072 JUMP JUMPDEST SWAP1 POP SWAP1 JUMP JUMPDEST PUSH2 0x1393 PUSH2 0x12EC JUMP JUMPDEST PUSH2 0x13D2 JUMPI PUSH1 0x40 MLOAD PUSH32 0x8C379A000000000000000000000000000000000000000000000000000000000 DUP2 MSTORE PUSH1 0x4 ADD PUSH2 0x13C9 SWAP1 PUSH2 0x24BC JUMP JUMPDEST PUSH1 0x40 MLOAD DUP1 SWAP2 SUB SWAP1 REVERT JUMPDEST PUSH2 0x13DA PUSH2 0x1A0B JUMP JUMPDEST DUP8 DUP2 PUSH0 ADD DUP2 SWAP1 MSTORE POP DUP7 DUP2 PUSH1 0x20 ADD DUP2 SWAP1 MSTORE POP DUP6 DUP2 PUSH1 0x40 ADD DUP2 SWAP1 MSTORE POP DUP4 DUP2 PUSH1 0x80 ADD DUP2 DUP2 MSTORE POP POP DUP5 DUP2 PUSH1 0x60 ADD DUP2 DUP2 MSTORE POP POP DUP3 DUP2 PUSH1 0xA0 ADD DUP2 SWAP1 MSTORE POP PUSH0 DUP2 PUSH1 0xC0 ADD DUP2 DUP2 MSTORE POP POP DUP2 DUP2 PUSH1 0xE0 ADD SWAP1 PUSH20 0xFFFFFFFFFFFFFFFFFFFFFFFFFFFFFFFFFFFFFFFF AND SWAP1 DUP2 PUSH20 0xFFFFFFFFFFFFFFFFFFFFFFFFFFFFFFFFFFFFFFFF AND DUP2 MSTORE POP POP PUSH1 0x5 DUP2 SWAP1 DUP1 PUSH1 0x1 DUP2 SLOAD ADD DUP1 DUP3 SSTORE DUP1 SWAP2 POP POP PUSH1 0x1 SWAP1 SUB SWAP1 PUSH0 MSTORE PUSH1 0x20 PUSH0 KECCAK256 SWAP1 PUSH1 0x8 MUL ADD PUSH0 SWAP1 SWAP2 SWAP1 SWAP2 SWAP1 SWAP2 POP PUSH0 DUP3 ADD MLOAD DUP2 PUSH0 ADD SWAP1 DUP2 PUSH2 0x148F SWAP2 SWAP1 PUSH2 0x3228 JUMP JUMPDEST POP PUSH1 0x20 DUP3 ADD MLOAD DUP2 PUSH1 0x1 ADD SWAP1 DUP2 PUSH2 0x14A5 SWAP2 SWAP1 PUSH2 0x3228 JUMP JUMPDEST POP PUSH1 0x40 DUP3 ADD MLOAD DUP2 PUSH1 0x2 ADD SWAP1 DUP2 PUSH2 0x14BB SWAP2 SWAP1 PUSH2 0x3228 JUMP JUMPDEST POP PUSH1 0x60 DUP3 ADD MLOAD DUP2 PUSH1 0x3 ADD SSTORE PUSH1 0x80 DUP3 ADD MLOAD DUP2 PUSH1 0x4 ADD SSTORE PUSH1 0xA0 DUP3 ADD MLOAD DUP2 PUSH1 0x5 ADD SWAP1 DUP2 PUSH2 0x14E5 SWAP2 SWAP1 PUSH2 0x3228 JUMP JUMPDEST POP PUSH1 0xC0 DUP3 ADD MLOAD DUP2 PUSH1 0x6 ADD SSTORE PUSH1 0xE0 DUP3 ADD MLOAD DUP2 PUSH1 0x7 ADD PUSH0 PUSH2 0x100 EXP DUP2 SLOAD DUP2 PUSH20 0xFFFFFFFFFFFFFFFFFFFFFFFFFFFFFFFFFFFFFFFF MUL NOT AND SWAP1 DUP4 PUSH20 0xFFFFFFFFFFFFFFFFFFFFFFFFFFFFFFFFFFFFFFFF AND MUL OR SWAP1 SSTORE POP POP POP POP POP POP POP POP POP POP POP JUMP JUMPDEST PUSH0 DUP1 TIMESTAMP CALLER PREVRANDAO PUSH1 0x40 MLOAD PUSH1 0x20 ADD PUSH2 0x1559 SWAP4 SWAP3 SWAP2 SWAP1 PUSH2 0x335C JUMP JUMPDEST PUSH1 0x40 MLOAD PUSH1 0x20 DUP2 DUP4 SUB SUB DUP2 MSTORE SWAP1 PUSH1 0x40 MSTORE DUP1 MLOAD SWAP1 PUSH1 0x20 ADD KECCAK256 PUSH0 SHR SWAP1 POP DUP1 SWAP2 POP POP SWAP1 JUMP JUMPDEST PUSH2 0x1582 PUSH2 0x1A0B JUMP JUMPDEST PUSH0 JUMPDEST PUSH1 0x5 DUP1 SLOAD SWAP1 POP DUP2 LT ISZERO PUSH2 0x18F8 JUMPI DUP3 PUSH1 0x40 MLOAD PUSH1 0x20 ADD PUSH2 0x15A2 SWAP2 SWAP1 PUSH2 0x2867 JUMP JUMPDEST PUSH1 0x40 MLOAD PUSH1 0x20 DUP2 DUP4 SUB SUB DUP2 MSTORE SWAP1 PUSH1 0x40 MSTORE DUP1 MLOAD SWAP1 PUSH1 0x20 ADD KECCAK256 PUSH1 0x5 DUP3 DUP2 SLOAD DUP2 LT PUSH2 0x15CC JUMPI PUSH2 0x15CB PUSH2 0x2973 JUMP JUMPDEST JUMPDEST SWAP1 PUSH0 MSTORE PUSH1 0x20 PUSH0 KECCAK256 SWAP1 PUSH1 0x8 MUL ADD PUSH0 ADD PUSH1 0x40 MLOAD PUSH1 0x20 ADD PUSH2 0x15EA SWAP2 SWAP1 PUSH2 0x2A32 JUMP JUMPDEST PUSH1 0x40 MLOAD PUSH1 0x20 DUP2 DUP4 SUB SUB DUP2 MSTORE SWAP1 PUSH1 0x40 MSTORE DUP1 MLOAD SWAP1 PUSH1 0x20 ADD KECCAK256 SUB PUSH2 0x18EB JUMPI PUSH1 0x5 DUP2 DUP2 SLOAD DUP2 LT PUSH2 0x1619 JUMPI PUSH2 0x1618 PUSH2 0x2973 JUMP JUMPDEST JUMPDEST SWAP1 PUSH0 MSTORE PUSH1 0x20 PUSH0 KECCAK256 SWAP1 PUSH1 0x8 MUL ADD PUSH1 0x40 MLOAD DUP1 PUSH2 0x100 ADD PUSH1 0x40 MSTORE SWAP1 DUP2 PUSH0 DUP3 ADD DUP1 SLOAD PUSH2 0x1640 SWAP1 PUSH2 0x241C JUMP JUMPDEST DUP1 PUSH1 0x1F ADD PUSH1 0x20 DUP1 SWAP2 DIV MUL PUSH1 0x20 ADD PUSH1 0x40 MLOAD SWAP1 DUP2 ADD PUSH1 0x40 MSTORE DUP1 SWAP3 SWAP2 SWAP1 DUP2 DUP2 MSTORE PUSH1 0x20 ADD DUP3 DUP1 SLOAD PUSH2 0x166C SWAP1 PUSH2 0x241C JUMP JUMPDEST DUP1 ISZERO PUSH2 0x16B7 JUMPI DUP1 PUSH1 0x1F LT PUSH2 0x168E JUMPI PUSH2 0x100 DUP1 DUP4 SLOAD DIV MUL DUP4 MSTORE SWAP2 PUSH1 0x20 ADD SWAP2 PUSH2 0x16B7 JUMP JUMPDEST DUP3 ADD SWAP2 SWAP1 PUSH0 MSTORE PUSH1 0x20 PUSH0 KECCAK256 SWAP1 JUMPDEST DUP2 SLOAD DUP2 MSTORE SWAP1 PUSH1 0x1 ADD SWAP1 PUSH1 0x20 ADD DUP1 DUP4 GT PUSH2 0x169A JUMPI DUP3 SWAP1 SUB PUSH1 0x1F AND DUP3 ADD SWAP2 JUMPDEST POP POP POP POP POP DUP2 MSTORE PUSH1 0x20 ADD PUSH1 0x1 DUP3 ADD DUP1 SLOAD PUSH2 0x16D0 SWAP1 PUSH2 0x241C JUMP JUMPDEST DUP1 PUSH1 0x1F ADD PUSH1 0x20 DUP1 SWAP2 DIV MUL PUSH1 0x20 ADD PUSH1 0x40 MLOAD SWAP1 DUP2 ADD PUSH1 0x40 MSTORE DUP1 SWAP3 SWAP2 SWAP1 DUP2 DUP2 MSTORE PUSH1 0x20 ADD DUP3 DUP1 SLOAD PUSH2 0x16FC SWAP1 PUSH2 0x241C JUMP JUMPDEST DUP1 ISZERO PUSH2 0x1747 JUMPI DUP1 PUSH1 0x1F LT PUSH2 0x171E JUMPI PUSH2 0x100 DUP1 DUP4 SLOAD DIV MUL DUP4 MSTORE SWAP2 PUSH1 0x20 ADD SWAP2 PUSH2 0x1747 JUMP JUMPDEST DUP3 ADD SWAP2 SWAP1 PUSH0 MSTORE PUSH1 0x20 PUSH0 KECCAK256 SWAP1 JUMPDEST DUP2 SLOAD DUP2 MSTORE SWAP1 PUSH1 0x1 ADD SWAP1 PUSH1 0x20 ADD DUP1 DUP4 GT PUSH2 0x172A JUMPI DUP3 SWAP1 SUB PUSH1 0x1F AND DUP3 ADD SWAP2 JUMPDEST POP POP POP POP POP DUP2 MSTORE PUSH1 0x20 ADD PUSH1 0x2 DUP3 ADD DUP1 SLOAD PUSH2 0x1760 SWAP1 PUSH2 0x241C JUMP JUMPDEST DUP1 PUSH1 0x1F ADD PUSH1 0x20 DUP1 SWAP2 DIV MUL PUSH1 0x20 ADD PUSH1 0x40 MLOAD SWAP1 DUP2 ADD PUSH1 0x40 MSTORE DUP1 SWAP3 SWAP2 SWAP1 DUP2 DUP2 MSTORE PUSH1 0x20 ADD DUP3 DUP1 SLOAD PUSH2 0x178C SWAP1 PUSH2 0x241C JUMP JUMPDEST DUP1 ISZERO PUSH2 0x17D7 JUMPI DUP1 PUSH1 0x1F LT PUSH2 0x17AE JUMPI PUSH2 0x100 DUP1 DUP4 SLOAD DIV MUL DUP4 MSTORE SWAP2 PUSH1 0x20 ADD SWAP2 PUSH2 0x17D7 JUMP JUMPDEST DUP3 ADD SWAP2 SWAP1 PUSH0 MSTORE PUSH1 0x20 PUSH0 KECCAK256 SWAP1 JUMPDEST DUP2 SLOAD DUP2 MSTORE SWAP1 PUSH1 0x1 ADD SWAP1 PUSH1 0x20 ADD DUP1 DUP4 GT PUSH2 0x17BA JUMPI DUP3 SWAP1 SUB PUSH1 0x1F AND DUP3 ADD SWAP2 JUMPDEST POP POP POP POP POP DUP2 MSTORE PUSH1 0x20 ADD PUSH1 0x3 DUP3 ADD SLOAD DUP2 MSTORE PUSH1 0x20 ADD PUSH1 0x4 DUP3 ADD SLOAD DUP2 MSTORE PUSH1 0x20 ADD PUSH1 0x5 DUP3 ADD DUP1 SLOAD PUSH2 0x1804 SWAP1 PUSH2 0x241C JUMP JUMPDEST DUP1 PUSH1 0x1F ADD PUSH1 0x20 DUP1 SWAP2 DIV MUL PUSH1 0x20 ADD PUSH1 0x40 MLOAD SWAP1 DUP2 ADD PUSH1 0x40 MSTORE DUP1 SWAP3 SWAP2 SWAP1 DUP2 DUP2 MSTORE PUSH1 0x20 ADD DUP3 DUP1 SLOAD PUSH2 0x1830 SWAP1 PUSH2 0x241C JUMP JUMPDEST DUP1 ISZERO PUSH2 0x187B JUMPI DUP1 PUSH1 0x1F LT PUSH2 0x1852 JUMPI PUSH2 0x100 DUP1 DUP4 SLOAD DIV MUL DUP4 MSTORE SWAP2 PUSH1 0x20 ADD SWAP2 PUSH2 0x187B JUMP JUMPDEST DUP3 ADD SWAP2 SWAP1 PUSH0 MSTORE PUSH1 0x20 PUSH0 KECCAK256 SWAP1 JUMPDEST DUP2 SLOAD DUP2 MSTORE SWAP1 PUSH1 0x1 ADD SWAP1 PUSH1 0x20 ADD DUP1 DUP4 GT PUSH2 0x185E JUMPI DUP3 SWAP1 SUB PUSH1 0x1F AND DUP3 ADD SWAP2 JUMPDEST POP POP POP POP POP DUP2 MSTORE PUSH1 0x20 ADD PUSH1 0x6 DUP3 ADD SLOAD DUP2 MSTORE PUSH1 0x20 ADD PUSH1 0x7 DUP3 ADD PUSH0 SWAP1 SLOAD SWAP1 PUSH2 0x100 EXP SWAP1 DIV PUSH20 0xFFFFFFFFFFFFFFFFFFFFFFFFFFFFFFFFFFFFFFFF AND PUSH20 0xFFFFFFFFFFFFFFFFFFFFFFFFFFFFFFFFFFFFFFFF AND PUSH20 0xFFFFFFFFFFFFFFFFFFFFFFFFFFFFFFFFFFFFFFFF AND DUP2 MSTORE POP POP SWAP2 POP POP PUSH2 0x1934 JUMP JUMPDEST DUP1 DUP1 PUSH1 0x1 ADD SWAP2 POP POP PUSH2 0x1584 JUMP JUMPDEST POP PUSH1 0x40 MLOAD PUSH32 0x8C379A000000000000000000000000000000000000000000000000000000000 DUP2 MSTORE PUSH1 0x4 ADD PUSH2 0x192B SWAP1 PUSH2 0x2CBD JUMP JUMPDEST PUSH1 0x40 MLOAD DUP1 SWAP2 SUB SWAP1 REVERT JUMPDEST SWAP2 SWAP1 POP JUMP JUMPDEST PUSH1 0x1 PUSH0 SWAP1 SLOAD SWAP1 PUSH2 0x100 EXP SWAP1 DIV PUSH20 0xFFFFFFFFFFFFFFFFFFFFFFFFFFFFFFFFFFFFFFFF AND PUSH20 0xFFFFFFFFFFFFFFFFFFFFFFFFFFFFFFFFFFFFFFFF AND CALLER PUSH20 0xFFFFFFFFFFFFFFFFFFFFFFFFFFFFFFFFFFFFFFFF AND EQ PUSH2 0x19C8 JUMPI PUSH1 0x40 MLOAD PUSH32 0x8C379A000000000000000000000000000000000000000000000000000000000 DUP2 MSTORE PUSH1 0x4 ADD PUSH2 0x19BF SWAP1 PUSH2 0x23D1 JUMP JUMPDEST PUSH1 0x40 MLOAD DUP1 SWAP2 SUB SWAP1 REVERT JUMPDEST DUP1 PUSH1 0x3 PUSH0 PUSH2 0x100 EXP DUP2 SLOAD DUP2 PUSH20 0xFFFFFFFFFFFFFFFFFFFFFFFFFFFFFFFFFFFFFFFF MUL NOT AND SWAP1 DUP4 PUSH20 0xFFFFFFFFFFFFFFFFFFFFFFFFFFFFFFFFFFFFFFFF AND MUL OR SWAP1 SSTORE POP POP JUMP JUMPDEST PUSH1 0x40 MLOAD DUP1 PUSH2 0x100 ADD PUSH1 0x40 MSTORE DUP1 PUSH1 0x60 DUP2 MSTORE PUSH1 0x20 ADD PUSH1 0x60 DUP2 MSTORE PUSH1 0x20 ADD PUSH1 0x60 DUP2 MSTORE PUSH1 0x20 ADD PUSH0 DUP2 MSTORE PUSH1 0x20 ADD PUSH0 DUP2 MSTORE PUSH1 0x20 ADD PUSH1 0x60 DUP2 MSTORE PUSH1 0x20 ADD PUSH0 DUP2 MSTORE PUSH1 0x20 ADD PUSH0 PUSH20 0xFFFFFFFFFFFFFFFFFFFFFFFFFFFFFFFFFFFFFFFF AND DUP2 MSTORE POP SWAP1 JUMP JUMPDEST PUSH0 PUSH1 0x40 MLOAD SWAP1 POP SWAP1 JUMP JUMPDEST PUSH0 DUP1 REVERT JUMPDEST PUSH0 DUP1 REVERT JUMPDEST PUSH0 PUSH20 0xFFFFFFFFFFFFFFFFFFFFFFFFFFFFFFFFFFFFFFFF DUP3 AND SWAP1 POP SWAP2 SWAP1 POP JUMP JUMPDEST PUSH0 PUSH2 0x1A9C DUP3 PUSH2 0x1A73 JUMP JUMPDEST SWAP1 POP SWAP2 SWAP1 POP JUMP JUMPDEST PUSH2 0x1AAC DUP2 PUSH2 0x1A92 JUMP JUMPDEST DUP2 EQ PUSH2 0x1AB6 JUMPI PUSH0 DUP1 REVERT JUMPDEST POP JUMP JUMPDEST PUSH0 DUP2 CALLDATALOAD SWAP1 POP PUSH2 0x1AC7 DUP2 PUSH2 0x1AA3 JUMP JUMPDEST SWAP3 SWAP2 POP POP JUMP JUMPDEST PUSH0 PUSH1 0x20 DUP3 DUP5 SUB SLT ISZERO PUSH2 0x1AE2 JUMPI PUSH2 0x1AE1 PUSH2 0x1A6B JUMP JUMPDEST JUMPDEST PUSH0 PUSH2 0x1AEF DUP5 DUP3 DUP6 ADD PUSH2 0x1AB9 JUMP JUMPDEST SWAP2 POP POP SWAP3 SWAP2 POP POP JUMP JUMPDEST PUSH0 DUP2 SWAP1 POP SWAP2 SWAP1 POP JUMP JUMPDEST PUSH2 0x1B0A DUP2 PUSH2 0x1AF8 JUMP JUMPDEST DUP2 EQ PUSH2 0x1B14 JUMPI PUSH0 DUP1 REVERT JUMPDEST POP JUMP JUMPDEST PUSH0 DUP2 CALLDATALOAD SWAP1 POP PUSH2 0x1B25 DUP2 PUSH2 0x1B01 JUMP JUMPDEST SWAP3 SWAP2 POP POP JUMP JUMPDEST PUSH0 PUSH1 0x20 DUP3 DUP5 SUB SLT ISZERO PUSH2 0x1B40 JUMPI PUSH2 0x1B3F PUSH2 0x1A6B JUMP JUMPDEST JUMPDEST PUSH0 PUSH2 0x1B4D DUP5 DUP3 DUP6 ADD PUSH2 0x1B17 JUMP JUMPDEST SWAP2 POP POP SWAP3 SWAP2 POP POP JUMP JUMPDEST PUSH0 DUP2 MLOAD SWAP1 POP SWAP2 SWAP1 POP JUMP JUMPDEST PUSH0 DUP3 DUP3 MSTORE PUSH1 0x20 DUP3 ADD SWAP1 POP SWAP3 SWAP2 POP POP JUMP JUMPDEST PUSH0 JUMPDEST DUP4 DUP2 LT ISZERO PUSH2 0x1B8D JUMPI DUP1 DUP3 ADD MLOAD DUP2 DUP5 ADD MSTORE PUSH1 0x20 DUP2 ADD SWAP1 POP PUSH2 0x1B72 JUMP JUMPDEST PUSH0 DUP5 DUP5 ADD MSTORE POP POP POP POP JUMP JUMPDEST PUSH0 PUSH1 0x1F NOT PUSH1 0x1F DUP4 ADD AND SWAP1 POP SWAP2 SWAP1 POP JUMP JUMPDEST PUSH0 PUSH2 0x1BB2 DUP3 PUSH2 0x1B56 JUMP JUMPDEST PUSH2 0x1BBC DUP2 DUP6 PUSH2 0x1B60 JUMP JUMPDEST SWAP4 POP PUSH2 0x1BCC DUP2 DUP6 PUSH1 0x20 DUP7 ADD PUSH2 0x1B70 JUMP JUMPDEST PUSH2 0x1BD5 DUP2 PUSH2 0x1B98 JUMP JUMPDEST DUP5 ADD SWAP2 POP POP SWAP3 SWAP2 POP POP JUMP JUMPDEST PUSH2 0x1BE9 DUP2 PUSH2 0x1AF8 JUMP JUMPDEST DUP3 MSTORE POP POP JUMP JUMPDEST PUSH2 0x1BF8 DUP2 PUSH2 0x1A92 JUMP JUMPDEST DUP3 MSTORE POP POP JUMP JUMPDEST PUSH0 PUSH2 0x100 DUP3 ADD SWAP1 POP DUP2 DUP2 SUB PUSH0 DUP4 ADD MSTORE PUSH2 0x1C17 DUP2 DUP12 PUSH2 0x1BA8 JUMP JUMPDEST SWAP1 POP DUP2 DUP2 SUB PUSH1 0x20 DUP4 ADD MSTORE PUSH2 0x1C2B DUP2 DUP11 PUSH2 0x1BA8 JUMP JUMPDEST SWAP1 POP DUP2 DUP2 SUB PUSH1 0x40 DUP4 ADD MSTORE PUSH2 0x1C3F DUP2 DUP10 PUSH2 0x1BA8 JUMP JUMPDEST SWAP1 POP PUSH2 0x1C4E PUSH1 0x60 DUP4 ADD DUP9 PUSH2 0x1BE0 JUMP JUMPDEST PUSH2 0x1C5B PUSH1 0x80 DUP4 ADD DUP8 PUSH2 0x1BE0 JUMP JUMPDEST DUP2 DUP2 SUB PUSH1 0xA0 DUP4 ADD MSTORE PUSH2 0x1C6D DUP2 DUP7 PUSH2 0x1BA8 JUMP JUMPDEST SWAP1 POP PUSH2 0x1C7C PUSH1 0xC0 DUP4 ADD DUP6 PUSH2 0x1BE0 JUMP JUMPDEST PUSH2 0x1C89 PUSH1 0xE0 DUP4 ADD DUP5 PUSH2 0x1BEF JUMP JUMPDEST SWAP10 SWAP9 POP POP POP POP POP POP POP POP POP JUMP JUMPDEST PUSH0 DUP2 MLOAD SWAP1 POP SWAP2 SWAP1 POP JUMP JUMPDEST PUSH0 DUP3 DUP3 MSTORE PUSH1 0x20 DUP3 ADD SWAP1 POP SWAP3 SWAP2 POP POP JUMP JUMPDEST PUSH0 DUP2 SWAP1 POP PUSH1 0x20 DUP3 ADD SWAP1 POP SWAP2 SWAP1 POP JUMP JUMPDEST PUSH0 DUP3 DUP3 MSTORE PUSH1 0x20 DUP3 ADD SWAP1 POP SWAP3 SWAP2 POP POP JUMP JUMPDEST PUSH0 PUSH2 0x1CD9 DUP3 PUSH2 0x1B56 JUMP JUMPDEST PUSH2 0x1CE3 DUP2 DUP6 PUSH2 0x1CBF JUMP JUMPDEST SWAP4 POP PUSH2 0x1CF3 DUP2 DUP6 PUSH1 0x20 DUP7 ADD PUSH2 0x1B70 JUMP JUMPDEST PUSH2 0x1CFC DUP2 PUSH2 0x1B98 JUMP JUMPDEST DUP5 ADD SWAP2 POP POP SWAP3 SWAP2 POP POP JUMP JUMPDEST PUSH2 0x1D10 DUP2 PUSH2 0x1AF8 JUMP JUMPDEST DUP3 MSTORE POP POP JUMP JUMPDEST PUSH2 0x1D1F DUP2 PUSH2 0x1A92 JUMP JUMPDEST DUP3 MSTORE POP POP JUMP JUMPDEST PUSH0 PUSH2 0x100 DUP4 ADD PUSH0 DUP4 ADD MLOAD DUP5 DUP3 SUB PUSH0 DUP7 ADD MSTORE PUSH2 0x1D40 DUP3 DUP3 PUSH2 0x1CCF JUMP JUMPDEST SWAP2 POP POP PUSH1 0x20 DUP4 ADD MLOAD DUP5 DUP3 SUB PUSH1 0x20 DUP7 ADD MSTORE PUSH2 0x1D5A DUP3 DUP3 PUSH2 0x1CCF JUMP JUMPDEST SWAP2 POP POP PUSH1 0x40 DUP4 ADD MLOAD DUP5 DUP3 SUB PUSH1 0x40 DUP7 ADD MSTORE PUSH2 0x1D74 DUP3 DUP3 PUSH2 0x1CCF JUMP JUMPDEST SWAP2 POP POP PUSH1 0x60 DUP4 ADD MLOAD PUSH2 0x1D89 PUSH1 0x60 DUP7 ADD DUP3 PUSH2 0x1D07 JUMP JUMPDEST POP PUSH1 0x80 DUP4 ADD MLOAD PUSH2 0x1D9C PUSH1 0x80 DUP7 ADD DUP3 PUSH2 0x1D07 JUMP JUMPDEST POP PUSH1 0xA0 DUP4 ADD MLOAD DUP5 DUP3 SUB PUSH1 0xA0 DUP7 ADD MSTORE PUSH2 0x1DB4 DUP3 DUP3 PUSH2 0x1CCF JUMP JUMPDEST SWAP2 POP POP PUSH1 0xC0 DUP4 ADD MLOAD PUSH2 0x1DC9 PUSH1 0xC0 DUP7 ADD DUP3 PUSH2 0x1D07 JUMP JUMPDEST POP PUSH1 0xE0 DUP4 ADD MLOAD PUSH2 0x1DDC PUSH1 0xE0 DUP7 ADD DUP3 PUSH2 0x1D16 JUMP JUMPDEST POP DUP1 SWAP2 POP POP SWAP3 SWAP2 POP POP JUMP JUMPDEST PUSH0 PUSH2 0x1DF2 DUP4 DUP4 PUSH2 0x1D25 JUMP JUMPDEST SWAP1 POP SWAP3 SWAP2 POP POP JUMP JUMPDEST PUSH0 PUSH1 0x20 DUP3 ADD SWAP1 POP SWAP2 SWAP1 POP JUMP JUMPDEST PUSH0 PUSH2 0x1E10 DUP3 PUSH2 0x1C96 JUMP JUMPDEST PUSH2 0x1E1A DUP2 DUP6 PUSH2 0x1CA0 JUMP JUMPDEST SWAP4 POP DUP4 PUSH1 0x20 DUP3 MUL DUP6 ADD PUSH2 0x1E2C DUP6 PUSH2 0x1CB0 JUMP JUMPDEST DUP1 PUSH0 JUMPDEST DUP6 DUP2 LT ISZERO PUSH2 0x1E67 JUMPI DUP5 DUP5 SUB DUP10 MSTORE DUP2 MLOAD PUSH2 0x1E48 DUP6 DUP3 PUSH2 0x1DE7 JUMP JUMPDEST SWAP5 POP PUSH2 0x1E53 DUP4 PUSH2 0x1DFA JUMP JUMPDEST SWAP3 POP PUSH1 0x20 DUP11 ADD SWAP10 POP POP PUSH1 0x1 DUP2 ADD SWAP1 POP PUSH2 0x1E2F JUMP JUMPDEST POP DUP3 SWAP8 POP DUP8 SWAP6 POP POP POP POP POP POP SWAP3 SWAP2 POP POP JUMP JUMPDEST PUSH0 PUSH1 0x20 DUP3 ADD SWAP1 POP DUP2 DUP2 SUB PUSH0 DUP4 ADD MSTORE PUSH2 0x1E91 DUP2 DUP5 PUSH2 0x1E06 JUMP JUMPDEST SWAP1 POP SWAP3 SWAP2 POP POP JUMP JUMPDEST PUSH0 DUP1 REVERT JUMPDEST PUSH0 DUP1 REVERT JUMPDEST PUSH32 0x4E487B7100000000000000000000000000000000000000000000000000000000 PUSH0 MSTORE PUSH1 0x41 PUSH1 0x4 MSTORE PUSH1 0x24 PUSH0 REVERT JUMPDEST PUSH2 0x1ED7 DUP3 PUSH2 0x1B98 JUMP JUMPDEST DUP2 ADD DUP2 DUP2 LT PUSH8 0xFFFFFFFFFFFFFFFF DUP3 GT OR ISZERO PUSH2 0x1EF6 JUMPI PUSH2 0x1EF5 PUSH2 0x1EA1 JUMP JUMPDEST JUMPDEST DUP1 PUSH1 0x40 MSTORE POP POP POP JUMP JUMPDEST PUSH0 PUSH2 0x1F08 PUSH2 0x1A62 JUMP JUMPDEST SWAP1 POP PUSH2 0x1F14 DUP3 DUP3 PUSH2 0x1ECE JUMP JUMPDEST SWAP2 SWAP1 POP JUMP JUMPDEST PUSH0 PUSH8 0xFFFFFFFFFFFFFFFF DUP3 GT ISZERO PUSH2 0x1F33 JUMPI PUSH2 0x1F32 PUSH2 0x1EA1 JUMP JUMPDEST JUMPDEST PUSH2 0x1F3C DUP3 PUSH2 0x1B98 JUMP JUMPDEST SWAP1 POP PUSH1 0x20 DUP2 ADD SWAP1 POP SWAP2 SWAP1 POP JUMP JUMPDEST DUP3 DUP2 DUP4 CALLDATACOPY PUSH0 DUP4 DUP4 ADD MSTORE POP POP POP JUMP JUMPDEST PUSH0 PUSH2 0x1F69 PUSH2 0x1F64 DUP5 PUSH2 0x1F19 JUMP JUMPDEST PUSH2 0x1EFF JUMP JUMPDEST SWAP1 POP DUP3 DUP2 MSTORE PUSH1 0x20 DUP2 ADD DUP5 DUP5 DUP5 ADD GT ISZERO PUSH2 0x1F85 JUMPI PUSH2 0x1F84 PUSH2 0x1E9D JUMP JUMPDEST JUMPDEST PUSH2 0x1F90 DUP5 DUP3 DUP6 PUSH2 0x1F49 JUMP JUMPDEST POP SWAP4 SWAP3 POP POP POP JUMP JUMPDEST PUSH0 DUP3 PUSH1 0x1F DUP4 ADD SLT PUSH2 0x1FAC JUMPI PUSH2 0x1FAB PUSH2 0x1E99 JUMP JUMPDEST JUMPDEST DUP2 CALLDATALOAD PUSH2 0x1FBC DUP5 DUP3 PUSH1 0x20 DUP7 ADD PUSH2 0x1F57 JUMP JUMPDEST SWAP2 POP POP SWAP3 SWAP2 POP POP JUMP JUMPDEST PUSH0 DUP1 PUSH0 PUSH1 0x60 DUP5 DUP7 SUB SLT ISZERO PUSH2 0x1FDC JUMPI PUSH2 0x1FDB PUSH2 0x1A6B JUMP JUMPDEST JUMPDEST PUSH0 DUP5 ADD CALLDATALOAD PUSH8 0xFFFFFFFFFFFFFFFF DUP2 GT ISZERO PUSH2 0x1FF9 JUMPI PUSH2 0x1FF8 PUSH2 0x1A6F JUMP JUMPDEST JUMPDEST PUSH2 0x2005 DUP7 DUP3 DUP8 ADD PUSH2 0x1F98 JUMP JUMPDEST SWAP4 POP POP PUSH1 0x20 DUP5 ADD CALLDATALOAD PUSH8 0xFFFFFFFFFFFFFFFF DUP2 GT ISZERO PUSH2 0x2026 JUMPI PUSH2 0x2025 PUSH2 0x1A6F JUMP JUMPDEST JUMPDEST PUSH2 0x2032 DUP7 DUP3 DUP8 ADD PUSH2 0x1F98 JUMP JUMPDEST SWAP3 POP POP PUSH1 0x40 DUP5 ADD CALLDATALOAD PUSH8 0xFFFFFFFFFFFFFFFF DUP2 GT ISZERO PUSH2 0x2053 JUMPI PUSH2 0x2052 PUSH2 0x1A6F JUMP JUMPDEST JUMPDEST PUSH2 0x205F DUP7 DUP3 DUP8 ADD PUSH2 0x1F98 JUMP JUMPDEST SWAP2 POP POP SWAP3 POP SWAP3 POP SWAP3 JUMP JUMPDEST PUSH0 DUP1 PUSH1 0x40 DUP4 DUP6 SUB SLT ISZERO PUSH2 0x207F JUMPI PUSH2 0x207E PUSH2 0x1A6B JUMP JUMPDEST JUMPDEST PUSH0 DUP4 ADD CALLDATALOAD PUSH8 0xFFFFFFFFFFFFFFFF DUP2 GT ISZERO PUSH2 0x209C JUMPI PUSH2 0x209B PUSH2 0x1A6F JUMP JUMPDEST JUMPDEST PUSH2 0x20A8 DUP6 DUP3 DUP7 ADD PUSH2 0x1F98 JUMP JUMPDEST SWAP3 POP POP PUSH1 0x20 DUP4 ADD CALLDATALOAD PUSH8 0xFFFFFFFFFFFFFFFF DUP2 GT ISZERO PUSH2 0x20C9 JUMPI PUSH2 0x20C8 PUSH2 0x1A6F JUMP JUMPDEST JUMPDEST PUSH2 0x20D5 DUP6 DUP3 DUP7 ADD PUSH2 0x1F98 JUMP JUMPDEST SWAP2 POP POP SWAP3 POP SWAP3 SWAP1 POP JUMP JUMPDEST PUSH0 DUP2 ISZERO ISZERO SWAP1 POP SWAP2 SWAP1 POP JUMP JUMPDEST PUSH2 0x20F3 DUP2 PUSH2 0x20DF JUMP JUMPDEST DUP3 MSTORE POP POP JUMP JUMPDEST PUSH0 PUSH1 0x20 DUP3 ADD SWAP1 POP PUSH2 0x210C PUSH0 DUP4 ADD DUP5 PUSH2 0x20EA JUMP JUMPDEST SWAP3 SWAP2 POP POP JUMP JUMPDEST PUSH0 DUP1 PUSH0 DUP1 PUSH0 DUP1 PUSH0 PUSH1 0xE0 DUP9 DUP11 SUB SLT ISZERO PUSH2 0x212D JUMPI PUSH2 0x212C PUSH2 0x1A6B JUMP JUMPDEST JUMPDEST PUSH0 DUP9 ADD CALLDATALOAD PUSH8 0xFFFFFFFFFFFFFFFF DUP2 GT ISZERO PUSH2 0x214A JUMPI PUSH2 0x2149 PUSH2 0x1A6F JUMP JUMPDEST JUMPDEST PUSH2 0x2156 DUP11 DUP3 DUP12 ADD PUSH2 0x1F98 JUMP JUMPDEST SWAP8 POP POP PUSH1 0x20 DUP9 ADD CALLDATALOAD PUSH8 0xFFFFFFFFFFFFFFFF DUP2 GT ISZERO PUSH2 0x2177 JUMPI PUSH2 0x2176 PUSH2 0x1A6F JUMP JUMPDEST JUMPDEST PUSH2 0x2183 DUP11 DUP3 DUP12 ADD PUSH2 0x1F98 JUMP JUMPDEST SWAP7 POP POP PUSH1 0x40 DUP9 ADD CALLDATALOAD PUSH8 0xFFFFFFFFFFFFFFFF DUP2 GT ISZERO PUSH2 0x21A4 JUMPI PUSH2 0x21A3 PUSH2 0x1A6F JUMP JUMPDEST JUMPDEST PUSH2 0x21B0 DUP11 DUP3 DUP12 ADD PUSH2 0x1F98 JUMP JUMPDEST SWAP6 POP POP PUSH1 0x60 PUSH2 0x21C1 DUP11 DUP3 DUP12 ADD PUSH2 0x1B17 JUMP JUMPDEST SWAP5 POP POP PUSH1 0x80 PUSH2 0x21D2 DUP11 DUP3 DUP12 ADD PUSH2 0x1B17 JUMP JUMPDEST SWAP4 POP POP PUSH1 0xA0 DUP9 ADD CALLDATALOAD PUSH8 0xFFFFFFFFFFFFFFFF DUP2 GT ISZERO PUSH2 0x21F3 JUMPI PUSH2 0x21F2 PUSH2 0x1A6F JUMP JUMPDEST JUMPDEST PUSH2 0x21FF DUP11 DUP3 DUP12 ADD PUSH2 0x1F98 JUMP JUMPDEST SWAP3 POP POP PUSH1 0xC0 PUSH2 0x2210 DUP11 DUP3 DUP12 ADD PUSH2 0x1AB9 JUMP JUMPDEST SWAP2 POP POP SWAP3 SWAP6 SWAP9 SWAP2 SWAP5 SWAP8 POP SWAP3 SWAP6 POP JUMP JUMPDEST PUSH0 PUSH1 0x20 DUP3 ADD SWAP1 POP PUSH2 0x2232 PUSH0 DUP4 ADD DUP5 PUSH2 0x1BE0 JUMP JUMPDEST SWAP3 SWAP2 POP POP JUMP JUMPDEST PUSH0 PUSH1 0x20 DUP3 DUP5 SUB SLT ISZERO PUSH2 0x224D JUMPI PUSH2 0x224C PUSH2 0x1A6B JUMP JUMPDEST JUMPDEST PUSH0 DUP3 ADD CALLDATALOAD PUSH8 0xFFFFFFFFFFFFFFFF DUP2 GT ISZERO PUSH2 0x226A JUMPI PUSH2 0x2269 PUSH2 0x1A6F JUMP JUMPDEST JUMPDEST PUSH2 0x2276 DUP5 DUP3 DUP6 ADD PUSH2 0x1F98 JUMP JUMPDEST SWAP2 POP POP SWAP3 SWAP2 POP POP JUMP JUMPDEST PUSH0 PUSH2 0x100 DUP4 ADD PUSH0 DUP4 ADD MLOAD DUP5 DUP3 SUB PUSH0 DUP7 ADD MSTORE PUSH2 0x229A DUP3 DUP3 PUSH2 0x1CCF JUMP JUMPDEST SWAP2 POP POP PUSH1 0x20 DUP4 ADD MLOAD DUP5 DUP3 SUB PUSH1 0x20 DUP7 ADD MSTORE PUSH2 0x22B4 DUP3 DUP3 PUSH2 0x1CCF JUMP JUMPDEST SWAP2 POP POP PUSH1 0x40 DUP4 ADD MLOAD DUP5 DUP3 SUB PUSH1 0x40 DUP7 ADD MSTORE PUSH2 0x22CE DUP3 DUP3 PUSH2 0x1CCF JUMP JUMPDEST SWAP2 POP POP PUSH1 0x60 DUP4 ADD MLOAD PUSH2 0x22E3 PUSH1 0x60 DUP7 ADD DUP3 PUSH2 0x1D07 JUMP JUMPDEST POP PUSH1 0x80 DUP4 ADD MLOAD PUSH2 0x22F6 PUSH1 0x80 DUP7 ADD DUP3 PUSH2 0x1D07 JUMP JUMPDEST POP PUSH1 0xA0 DUP4 ADD MLOAD DUP5 DUP3 SUB PUSH1 0xA0 DUP7 ADD MSTORE PUSH2 0x230E DUP3 DUP3 PUSH2 0x1CCF JUMP JUMPDEST SWAP2 POP POP PUSH1 0xC0 DUP4 ADD MLOAD PUSH2 0x2323 PUSH1 0xC0 DUP7 ADD DUP3 PUSH2 0x1D07 JUMP JUMPDEST POP PUSH1 0xE0 DUP4 ADD MLOAD PUSH2 0x2336 PUSH1 0xE0 DUP7 ADD DUP3 PUSH2 0x1D16 JUMP JUMPDEST POP DUP1 SWAP2 POP POP SWAP3 SWAP2 POP POP JUMP JUMPDEST PUSH0 PUSH1 0x20 DUP3 ADD SWAP1 POP DUP2 DUP2 SUB PUSH0 DUP4 ADD MSTORE PUSH2 0x2359 DUP2 DUP5 PUSH2 0x227F JUMP JUMPDEST SWAP1 POP SWAP3 SWAP2 POP POP JUMP JUMPDEST PUSH32 0x4F6E6C79206465706C6F7965722063616E2063616C6C20746869732066756E63 PUSH0 DUP3 ADD MSTORE PUSH32 0x74696F6E00000000000000000000000000000000000000000000000000000000 PUSH1 0x20 DUP3 ADD MSTORE POP JUMP JUMPDEST PUSH0 PUSH2 0x23BB PUSH1 0x24 DUP4 PUSH2 0x1B60 JUMP JUMPDEST SWAP2 POP PUSH2 0x23C6 DUP3 PUSH2 0x2361 JUMP JUMPDEST PUSH1 0x40 DUP3 ADD SWAP1 POP SWAP2 SWAP1 POP JUMP JUMPDEST PUSH0 PUSH1 0x20 DUP3 ADD SWAP1 POP DUP2 DUP2 SUB PUSH0 DUP4 ADD MSTORE PUSH2 0x23E8 DUP2 PUSH2 0x23AF JUMP JUMPDEST SWAP1 POP SWAP2 SWAP1 POP JUMP JUMPDEST PUSH32 0x4E487B7100000000000000000000000000000000000000000000000000000000 PUSH0 MSTORE PUSH1 0x22 PUSH1 0x4 MSTORE PUSH1 0x24 PUSH0 REVERT JUMPDEST PUSH0 PUSH1 0x2 DUP3 DIV SWAP1 POP PUSH1 0x1 DUP3 AND DUP1 PUSH2 0x2433 JUMPI PUSH1 0x7F DUP3 AND SWAP2 POP JUMPDEST PUSH1 0x20 DUP3 LT DUP2 SUB PUSH2 0x2446 JUMPI PUSH2 0x2445 PUSH2 0x23EF JUMP JUMPDEST JUMPDEST POP SWAP2 SWAP1 POP JUMP JUMPDEST PUSH32 0x4F6E6C792061646D696E2063616E2063616C6C20746869732066756E6374696F PUSH0 DUP3 ADD MSTORE PUSH32 0x6E00000000000000000000000000000000000000000000000000000000000000 PUSH1 0x20 DUP3 ADD MSTORE POP JUMP JUMPDEST PUSH0 PUSH2 0x24A6 PUSH1 0x21 DUP4 PUSH2 0x1B60 JUMP JUMPDEST SWAP2 POP PUSH2 0x24B1 DUP3 PUSH2 0x244C JUMP JUMPDEST PUSH1 0x40 DUP3 ADD SWAP1 POP SWAP2 SWAP1 POP JUMP JUMPDEST PUSH0 PUSH1 0x20 DUP3 ADD SWAP1 POP DUP2 DUP2 SUB PUSH0 DUP4 ADD MSTORE PUSH2 0x24D3 DUP2 PUSH2 0x249A JUMP JUMPDEST SWAP1 POP SWAP2 SWAP1 POP JUMP JUMPDEST PUSH0 DUP1 REVERT JUMPDEST PUSH0 DUP1 REVERT JUMPDEST PUSH0 DUP2 MLOAD SWAP1 POP PUSH2 0x24F0 DUP2 PUSH2 0x1B01 JUMP JUMPDEST SWAP3 SWAP2 POP POP JUMP JUMPDEST PUSH0 PUSH2 0x2508 PUSH2 0x2503 DUP5 PUSH2 0x1F19 JUMP JUMPDEST PUSH2 0x1EFF JUMP JUMPDEST SWAP1 POP DUP3 DUP2 MSTORE PUSH1 0x20 DUP2 ADD DUP5 DUP5 DUP5 ADD GT ISZERO PUSH2 0x2524 JUMPI PUSH2 0x2523 PUSH2 0x1E9D JUMP JUMPDEST JUMPDEST PUSH2 0x252F DUP5 DUP3 DUP6 PUSH2 0x1B70 JUMP JUMPDEST POP SWAP4 SWAP3 POP POP POP JUMP JUMPDEST PUSH0 DUP3 PUSH1 0x1F DUP4 ADD SLT PUSH2 0x254B JUMPI PUSH2 0x254A PUSH2 0x1E99 JUMP JUMPDEST JUMPDEST DUP2 MLOAD PUSH2 0x255B DUP5 DUP3 PUSH1 0x20 DUP7 ADD PUSH2 0x24F6 JUMP JUMPDEST SWAP2 POP POP SWAP3 SWAP2 POP POP JUMP JUMPDEST PUSH0 PUSH2 0x256E DUP3 PUSH2 0x1A73 JUMP JUMPDEST SWAP1 POP SWAP2 SWAP1 POP JUMP JUMPDEST PUSH2 0x257E DUP2 PUSH2 0x2564 JUMP JUMPDEST DUP2 EQ PUSH2 0x2588 JUMPI PUSH0 DUP1 REVERT JUMPDEST POP JUMP JUMPDEST PUSH0 DUP2 MLOAD SWAP1 POP PUSH2 0x2599 DUP2 PUSH2 0x2575 JUMP JUMPDEST SWAP3 SWAP2 POP POP JUMP JUMPDEST PUSH0 PUSH2 0x160 DUP3 DUP5 SUB SLT ISZERO PUSH2 0x25B5 JUMPI PUSH2 0x25B4 PUSH2 0x24DA JUMP JUMPDEST JUMPDEST PUSH2 0x25C0 PUSH2 0x160 PUSH2 0x1EFF JUMP JUMPDEST SWAP1 POP PUSH0 PUSH2 0x25CF DUP5 DUP3 DUP6 ADD PUSH2 0x24E2 JUMP JUMPDEST PUSH0 DUP4 ADD MSTORE POP PUSH1 0x20 DUP3 ADD MLOAD PUSH8 0xFFFFFFFFFFFFFFFF DUP2 GT ISZERO PUSH2 0x25F2 JUMPI PUSH2 0x25F1 PUSH2 0x24DE JUMP JUMPDEST JUMPDEST PUSH2 0x25FE DUP5 DUP3 DUP6 ADD PUSH2 0x2537 JUMP JUMPDEST PUSH1 0x20 DUP4 ADD MSTORE POP PUSH1 0x40 DUP3 ADD MLOAD PUSH8 0xFFFFFFFFFFFFFFFF DUP2 GT ISZERO PUSH2 0x2622 JUMPI PUSH2 0x2621 PUSH2 0x24DE JUMP JUMPDEST JUMPDEST PUSH2 0x262E DUP5 DUP3 DUP6 ADD PUSH2 0x2537 JUMP JUMPDEST PUSH1 0x40 DUP4 ADD MSTORE POP PUSH1 0x60 DUP3 ADD MLOAD PUSH8 0xFFFFFFFFFFFFFFFF DUP2 GT ISZERO PUSH2 0x2652 JUMPI PUSH2 0x2651 PUSH2 0x24DE JUMP JUMPDEST JUMPDEST PUSH2 0x265E DUP5 DUP3 DUP6 ADD PUSH2 0x2537 JUMP JUMPDEST PUSH1 0x60 DUP4 ADD MSTORE POP PUSH1 0x80 PUSH2 0x2672 DUP5 DUP3 DUP6 ADD PUSH2 0x24E2 JUMP JUMPDEST PUSH1 0x80 DUP4 ADD MSTORE POP PUSH1 0xA0 DUP3 ADD MLOAD PUSH8 0xFFFFFFFFFFFFFFFF DUP2 GT ISZERO PUSH2 0x2696 JUMPI PUSH2 0x2695 PUSH2 0x24DE JUMP JUMPDEST JUMPDEST PUSH2 0x26A2 DUP5 DUP3 DUP6 ADD PUSH2 0x2537 JUMP JUMPDEST PUSH1 0xA0 DUP4 ADD MSTORE POP PUSH1 0xC0 DUP3 ADD MLOAD PUSH8 0xFFFFFFFFFFFFFFFF DUP2 GT ISZERO PUSH2 0x26C6 JUMPI PUSH2 0x26C5 PUSH2 0x24DE JUMP JUMPDEST JUMPDEST PUSH2 0x26D2 DUP5 DUP3 DUP6 ADD PUSH2 0x2537 JUMP JUMPDEST PUSH1 0xC0 DUP4 ADD MSTORE POP PUSH1 0xE0 DUP3 ADD MLOAD PUSH8 0xFFFFFFFFFFFFFFFF DUP2 GT ISZERO PUSH2 0x26F6 JUMPI PUSH2 0x26F5 PUSH2 0x24DE JUMP JUMPDEST JUMPDEST PUSH2 0x2702 DUP5 DUP3 DUP6 ADD PUSH2 0x2537 JUMP JUMPDEST PUSH1 0xE0 DUP4 ADD MSTORE POP PUSH2 0x100 PUSH2 0x2717 DUP5 DUP3 DUP6 ADD PUSH2 0x258B JUMP JUMPDEST PUSH2 0x100 DUP4 ADD MSTORE POP PUSH2 0x120 DUP3 ADD MLOAD PUSH8 0xFFFFFFFFFFFFFFFF DUP2 GT ISZERO PUSH2 0x273D JUMPI PUSH2 0x273C PUSH2 0x24DE JUMP JUMPDEST JUMPDEST PUSH2 0x2749 DUP5 DUP3 DUP6 ADD PUSH2 0x2537 JUMP JUMPDEST PUSH2 0x120 DUP4 ADD MSTORE POP PUSH2 0x140 DUP3 ADD MLOAD PUSH8 0xFFFFFFFFFFFFFFFF DUP2 GT ISZERO PUSH2 0x276F JUMPI PUSH2 0x276E PUSH2 0x24DE JUMP JUMPDEST JUMPDEST PUSH2 0x277B DUP5 DUP3 DUP6 ADD PUSH2 0x2537 JUMP JUMPDEST PUSH2 0x140 DUP4 ADD MSTORE POP SWAP3 SWAP2 POP POP JUMP JUMPDEST PUSH0 PUSH1 0x20 DUP3 DUP5 SUB SLT ISZERO PUSH2 0x279D JUMPI PUSH2 0x279C PUSH2 0x1A6B JUMP JUMPDEST JUMPDEST PUSH0 DUP3 ADD MLOAD PUSH8 0xFFFFFFFFFFFFFFFF DUP2 GT ISZERO PUSH2 0x27BA JUMPI PUSH2 0x27B9 PUSH2 0x1A6F JUMP JUMPDEST JUMPDEST PUSH2 0x27C6 DUP5 DUP3 DUP6 ADD PUSH2 0x259F JUMP JUMPDEST SWAP2 POP POP SWAP3 SWAP2 POP POP JUMP JUMPDEST PUSH0 DUP2 SWAP1 POP SWAP3 SWAP2 POP POP JUMP JUMPDEST PUSH32 0x417070726F766500000000000000000000000000000000000000000000000000 PUSH0 DUP3 ADD MSTORE POP JUMP JUMPDEST PUSH0 PUSH2 0x280D PUSH1 0x7 DUP4 PUSH2 0x27CF JUMP JUMPDEST SWAP2 POP PUSH2 0x2818 DUP3 PUSH2 0x27D9 JUMP JUMPDEST PUSH1 0x7 DUP3 ADD SWAP1 POP SWAP2 SWAP1 POP JUMP JUMPDEST PUSH0 PUSH2 0x282D DUP3 PUSH2 0x2801 JUMP JUMPDEST SWAP2 POP DUP2 SWAP1 POP SWAP2 SWAP1 POP JUMP JUMPDEST PUSH0 PUSH2 0x2841 DUP3 PUSH2 0x1B56 JUMP JUMPDEST PUSH2 0x284B DUP2 DUP6 PUSH2 0x27CF JUMP JUMPDEST SWAP4 POP PUSH2 0x285B DUP2 DUP6 PUSH1 0x20 DUP7 ADD PUSH2 0x1B70 JUMP JUMPDEST DUP1 DUP5 ADD SWAP2 POP POP SWAP3 SWAP2 POP POP JUMP JUMPDEST PUSH0 PUSH2 0x2872 DUP3 DUP5 PUSH2 0x2837 JUMP JUMPDEST SWAP2 POP DUP2 SWAP1 POP SWAP3 SWAP2 POP POP JUMP JUMPDEST PUSH32 0x5265717565737420686173206265656E206E6F7420617070726F766564000000 PUSH0 DUP3 ADD MSTORE POP JUMP JUMPDEST PUSH0 PUSH2 0x28B1 PUSH1 0x1D DUP4 PUSH2 0x1B60 JUMP JUMPDEST SWAP2 POP PUSH2 0x28BC DUP3 PUSH2 0x287D JUMP JUMPDEST PUSH1 0x20 DUP3 ADD SWAP1 POP SWAP2 SWAP1 POP JUMP JUMPDEST PUSH0 PUSH1 0x20 DUP3 ADD SWAP1 POP DUP2 DUP2 SUB PUSH0 DUP4 ADD MSTORE PUSH2 0x28DE DUP2 PUSH2 0x28A5 JUMP JUMPDEST SWAP1 POP SWAP2 SWAP1 POP JUMP JUMPDEST PUSH32 0x496E73756666696369656E742062616C616E636520696E2074686520636F6E74 PUSH0 DUP3 ADD MSTORE PUSH32 0x7261637400000000000000000000000000000000000000000000000000000000 PUSH1 0x20 DUP3 ADD MSTORE POP JUMP JUMPDEST PUSH0 PUSH2 0x293F PUSH1 0x24 DUP4 PUSH2 0x1B60 JUMP JUMPDEST SWAP2 POP PUSH2 0x294A DUP3 PUSH2 0x28E5 JUMP JUMPDEST PUSH1 0x40 DUP3 ADD SWAP1 POP SWAP2 SWAP1 POP JUMP JUMPDEST PUSH0 PUSH1 0x20 DUP3 ADD SWAP1 POP DUP2 DUP2 SUB PUSH0 DUP4 ADD MSTORE PUSH2 0x296C DUP2 PUSH2 0x2933 JUMP JUMPDEST SWAP1 POP SWAP2 SWAP1 POP JUMP JUMPDEST PUSH32 0x4E487B7100000000000000000000000000000000000000000000000000000000 PUSH0 MSTORE PUSH1 0x32 PUSH1 0x4 MSTORE PUSH1 0x24 PUSH0 REVERT JUMPDEST PUSH0 DUP2 SWAP1 POP DUP2 PUSH0 MSTORE PUSH1 0x20 PUSH0 KECCAK256 SWAP1 POP SWAP2 SWAP1 POP JUMP JUMPDEST PUSH0 DUP2 SLOAD PUSH2 0x29BE DUP2 PUSH2 0x241C JUMP JUMPDEST PUSH2 0x29C8 DUP2 DUP7 PUSH2 0x27CF JUMP JUMPDEST SWAP5 POP PUSH1 0x1 DUP3 AND PUSH0 DUP2 EQ PUSH2 0x29E2 JUMPI PUSH1 0x1 DUP2 EQ PUSH2 0x29F7 JUMPI PUSH2 0x2A29 JUMP JUMPDEST PUSH1 0xFF NOT DUP4 AND DUP7 MSTORE DUP2 ISZERO ISZERO DUP3 MUL DUP7 ADD SWAP4 POP PUSH2 0x2A29 JUMP JUMPDEST PUSH2 0x2A00 DUP6 PUSH2 0x29A0 JUMP JUMPDEST PUSH0 JUMPDEST DUP4 DUP2 LT ISZERO PUSH2 0x2A21 JUMPI DUP2 SLOAD DUP2 DUP10 ADD MSTORE PUSH1 0x1 DUP3 ADD SWAP2 POP PUSH1 0x20 DUP2 ADD SWAP1 POP PUSH2 0x2A02 JUMP JUMPDEST DUP4 DUP9 ADD SWAP6 POP POP POP JUMPDEST POP POP POP SWAP3 SWAP2 POP POP JUMP JUMPDEST PUSH0 PUSH2 0x2A3D DUP3 DUP5 PUSH2 0x29B2 JUMP JUMPDEST SWAP2 POP DUP2 SWAP1 POP SWAP3 SWAP2 POP POP JUMP JUMPDEST PUSH32 0x4E487B7100000000000000000000000000000000000000000000000000000000 PUSH0 MSTORE PUSH1 0x11 PUSH1 0x4 MSTORE PUSH1 0x24 PUSH0 REVERT JUMPDEST PUSH0 PUSH2 0x2A7F DUP3 PUSH2 0x1AF8 JUMP JUMPDEST SWAP2 POP PUSH2 0x2A8A DUP4 PUSH2 0x1AF8 JUMP JUMPDEST SWAP3 POP DUP3 DUP3 SUB SWAP1 POP DUP2 DUP2 GT ISZERO PUSH2 0x2AA2 JUMPI PUSH2 0x2AA1 PUSH2 0x2A48 JUMP JUMPDEST JUMPDEST SWAP3 SWAP2 POP POP JUMP JUMPDEST PUSH32 0x56616C7565206D75737420626520302E3030303220455448206F722061626F76 PUSH0 DUP3 ADD MSTORE PUSH32 0x6500000000000000000000000000000000000000000000000000000000000000 PUSH1 0x20 DUP3 ADD MSTORE POP JUMP JUMPDEST PUSH0 PUSH2 0x2B02 PUSH1 0x21 DUP4 PUSH2 0x1B60 JUMP JUMPDEST SWAP2 POP PUSH2 0x2B0D DUP3 PUSH2 0x2AA8 JUMP JUMPDEST PUSH1 0x40 DUP3 ADD SWAP1 POP SWAP2 SWAP1 POP JUMP JUMPDEST PUSH0 PUSH1 0x20 DUP3 ADD SWAP1 POP DUP2 DUP2 SUB PUSH0 DUP4 ADD MSTORE PUSH2 0x2B2F DUP2 PUSH2 0x2AF6 JUMP JUMPDEST SWAP1 POP SWAP2 SWAP1 POP JUMP JUMPDEST PUSH0 PUSH2 0x2B40 DUP3 PUSH2 0x1AF8 JUMP JUMPDEST SWAP2 POP PUSH2 0x2B4B DUP4 PUSH2 0x1AF8 JUMP JUMPDEST SWAP3 POP DUP3 DUP3 ADD SWAP1 POP DUP1 DUP3 GT ISZERO PUSH2 0x2B63 JUMPI PUSH2 0x2B62 PUSH2 0x2A48 JUMP JUMPDEST JUMPDEST SWAP3 SWAP2 POP POP JUMP JUMPDEST PUSH0 DUP2 SLOAD PUSH2 0x2B75 DUP2 PUSH2 0x241C JUMP JUMPDEST PUSH2 0x2B7F DUP2 DUP7 PUSH2 0x1B60 JUMP JUMPDEST SWAP5 POP PUSH1 0x1 DUP3 AND PUSH0 DUP2 EQ PUSH2 0x2B99 JUMPI PUSH1 0x1 DUP2 EQ PUSH2 0x2BAF JUMPI PUSH2 0x2BE1 JUMP JUMPDEST PUSH1 0xFF NOT DUP4 AND DUP7 MSTORE DUP2 ISZERO ISZERO PUSH1 0x20 MUL DUP7 ADD SWAP4 POP PUSH2 0x2BE1 JUMP JUMPDEST PUSH2 0x2BB8 DUP6 PUSH2 0x29A0 JUMP JUMPDEST PUSH0 JUMPDEST DUP4 DUP2 LT ISZERO PUSH2 0x2BD9 JUMPI DUP2 SLOAD DUP2 DUP10 ADD MSTORE PUSH1 0x1 DUP3 ADD SWAP2 POP PUSH1 0x20 DUP2 ADD SWAP1 POP PUSH2 0x2BBA JUMP JUMPDEST DUP1 DUP9 ADD SWAP6 POP POP POP JUMPDEST POP POP POP SWAP3 SWAP2 POP POP JUMP JUMPDEST PUSH0 PUSH1 0xE0 DUP3 ADD SWAP1 POP PUSH2 0x2BFD PUSH0 DUP4 ADD DUP11 PUSH2 0x1BE0 JUMP JUMPDEST DUP2 DUP2 SUB PUSH1 0x20 DUP4 ADD MSTORE PUSH2 0x2C0F DUP2 DUP10 PUSH2 0x1BA8 JUMP JUMPDEST SWAP1 POP DUP2 DUP2 SUB PUSH1 0x40 DUP4 ADD MSTORE PUSH2 0x2C23 DUP2 DUP9 PUSH2 0x2B69 JUMP JUMPDEST SWAP1 POP DUP2 DUP2 SUB PUSH1 0x60 DUP4 ADD MSTORE PUSH2 0x2C37 DUP2 DUP8 PUSH2 0x1BA8 JUMP JUMPDEST SWAP1 POP PUSH2 0x2C46 PUSH1 0x80 DUP4 ADD DUP7 PUSH2 0x1BEF JUMP JUMPDEST PUSH2 0x2C53 PUSH1 0xA0 DUP4 ADD DUP6 PUSH2 0x1BE0 JUMP JUMPDEST DUP2 DUP2 SUB PUSH1 0xC0 DUP4 ADD MSTORE PUSH2 0x2C65 DUP2 DUP5 PUSH2 0x1BA8 JUMP JUMPDEST SWAP1 POP SWAP9 SWAP8 POP POP POP POP POP POP POP POP JUMP JUMPDEST PUSH32 0x4E6F7420666F756E640000000000000000000000000000000000000000000000 PUSH0 DUP3 ADD MSTORE POP JUMP JUMPDEST PUSH0 PUSH2 0x2CA7 PUSH1 0x9 DUP4 PUSH2 0x1B60 JUMP JUMPDEST SWAP2 POP PUSH2 0x2CB2 DUP3 PUSH2 0x2C73 JUMP JUMPDEST PUSH1 0x20 DUP3 ADD SWAP1 POP SWAP2 SWAP1 POP JUMP JUMPDEST PUSH0 PUSH1 0x20 DUP3 ADD SWAP1 POP DUP2 DUP2 SUB PUSH0 DUP4 ADD MSTORE PUSH2 0x2CD4 DUP2 PUSH2 0x2C9B JUMP JUMPDEST SWAP1 POP SWAP2 SWAP1 POP JUMP JUMPDEST PUSH0 PUSH1 0x20 DUP3 ADD SWAP1 POP DUP2 DUP2 SUB PUSH0 DUP4 ADD MSTORE PUSH2 0x2CF3 DUP2 DUP5 PUSH2 0x1BA8 JUMP JUMPDEST SWAP1 POP SWAP3 SWAP2 POP POP JUMP JUMPDEST PUSH0 PUSH8 0xFFFFFFFFFFFFFFFF DUP3 GT ISZERO PUSH2 0x2D15 JUMPI PUSH2 0x2D14 PUSH2 0x1EA1 JUMP JUMPDEST JUMPDEST PUSH1 0x20 DUP3 MUL SWAP1 POP PUSH1 0x20 DUP2 ADD SWAP1 POP SWAP2 SWAP1 POP JUMP JUMPDEST PUSH0 DUP1 REVERT JUMPDEST PUSH0 DUP2 MLOAD SWAP1 POP PUSH2 0x2D38 DUP2 PUSH2 0x1AA3 JUMP JUMPDEST SWAP3 SWAP2 POP POP JUMP JUMPDEST PUSH2 0x2D47 DUP2 PUSH2 0x20DF JUMP JUMPDEST DUP2 EQ PUSH2 0x2D51 JUMPI PUSH0 DUP1 REVERT JUMPDEST POP JUMP JUMPDEST PUSH0 DUP2 MLOAD SWAP1 POP PUSH2 0x2D62 DUP2 PUSH2 0x2D3E JUMP JUMPDEST SWAP3 SWAP2 POP POP JUMP JUMPDEST PUSH0 PUSH2 0x120 DUP3 DUP5 SUB SLT ISZERO PUSH2 0x2D7E JUMPI PUSH2 0x2D7D PUSH2 0x24DA JUMP JUMPDEST JUMPDEST PUSH2 0x2D89 PUSH2 0x120 PUSH2 0x1EFF JUMP JUMPDEST SWAP1 POP PUSH0 PUSH2 0x2D98 DUP5 DUP3 DUP6 ADD PUSH2 0x24E2 JUMP JUMPDEST PUSH0 DUP4 ADD MSTORE POP PUSH1 0x20 DUP3 ADD MLOAD PUSH8 0xFFFFFFFFFFFFFFFF DUP2 GT ISZERO PUSH2 0x2DBB JUMPI PUSH2 0x2DBA PUSH2 0x24DE JUMP JUMPDEST JUMPDEST PUSH2 0x2DC7 DUP5 DUP3 DUP6 ADD PUSH2 0x2537 JUMP JUMPDEST PUSH1 0x20 DUP4 ADD MSTORE POP PUSH1 0x40 DUP3 ADD MLOAD PUSH8 0xFFFFFFFFFFFFFFFF DUP2 GT ISZERO PUSH2 0x2DEB JUMPI PUSH2 0x2DEA PUSH2 0x24DE JUMP JUMPDEST JUMPDEST PUSH2 0x2DF7 DUP5 DUP3 DUP6 ADD PUSH2 0x2537 JUMP JUMPDEST PUSH1 0x40 DUP4 ADD MSTORE POP PUSH1 0x60 DUP3 ADD MLOAD PUSH8 0xFFFFFFFFFFFFFFFF DUP2 GT ISZERO PUSH2 0x2E1B JUMPI PUSH2 0x2E1A PUSH2 0x24DE JUMP JUMPDEST JUMPDEST PUSH2 0x2E27 DUP5 DUP3 DUP6 ADD PUSH2 0x2537 JUMP JUMPDEST PUSH1 0x60 DUP4 ADD MSTORE POP PUSH1 0x80 PUSH2 0x2E3B DUP5 DUP3 DUP6 ADD PUSH2 0x2D2A JUMP JUMPDEST PUSH1 0x80 DUP4 ADD MSTORE POP PUSH1 0xA0 PUSH2 0x2E4F DUP5 DUP3 DUP6 ADD PUSH2 0x24E2 JUMP JUMPDEST PUSH1 0xA0 DUP4 ADD MSTORE POP PUSH1 0xC0 PUSH2 0x2E63 DUP5 DUP3 DUP6 ADD PUSH2 0x2D54 JUMP JUMPDEST PUSH1 0xC0 DUP4 ADD MSTORE POP PUSH1 0xE0 DUP3 ADD MLOAD PUSH8 0xFFFFFFFFFFFFFFFF DUP2 GT ISZERO PUSH2 0x2E87 JUMPI PUSH2 0x2E86 PUSH2 0x24DE JUMP JUMPDEST JUMPDEST PUSH2 0x2E93 DUP5 DUP3 DUP6 ADD PUSH2 0x2537 JUMP JUMPDEST PUSH1 0xE0 DUP4 ADD MSTORE POP PUSH2 0x100 DUP3 ADD MLOAD PUSH8 0xFFFFFFFFFFFFFFFF DUP2 GT ISZERO PUSH2 0x2EB8 JUMPI PUSH2 0x2EB7 PUSH2 0x24DE JUMP JUMPDEST JUMPDEST PUSH2 0x2EC4 DUP5 DUP3 DUP6 ADD PUSH2 0x2537 JUMP JUMPDEST PUSH2 0x100 DUP4 ADD MSTORE POP SWAP3 SWAP2 POP POP JUMP JUMPDEST PUSH0 PUSH2 0x2EE3 PUSH2 0x2EDE DUP5 PUSH2 0x2CFB JUMP JUMPDEST PUSH2 0x1EFF JUMP JUMPDEST SWAP1 POP DUP1 DUP4 DUP3 MSTORE PUSH1 0x20 DUP3 ADD SWAP1 POP PUSH1 0x20 DUP5 MUL DUP4 ADD DUP6 DUP2 GT ISZERO PUSH2 0x2F06 JUMPI PUSH2 0x2F05 PUSH2 0x2D26 JUMP JUMPDEST JUMPDEST DUP4 JUMPDEST DUP2 DUP2 LT ISZERO PUSH2 0x2F4D JUMPI DUP1 MLOAD PUSH8 0xFFFFFFFFFFFFFFFF DUP2 GT ISZERO PUSH2 0x2F2B JUMPI PUSH2 0x2F2A PUSH2 0x1E99 JUMP JUMPDEST JUMPDEST DUP1 DUP7 ADD PUSH2 0x2F38 DUP10 DUP3 PUSH2 0x2D68 JUMP JUMPDEST DUP6 MSTORE PUSH1 0x20 DUP6 ADD SWAP5 POP POP POP PUSH1 0x20 DUP2 ADD SWAP1 POP PUSH2 0x2F08 JUMP JUMPDEST POP POP POP SWAP4 SWAP3 POP POP POP JUMP JUMPDEST PUSH0 DUP3 PUSH1 0x1F DUP4 ADD SLT PUSH2 0x2F6B JUMPI PUSH2 0x2F6A PUSH2 0x1E99 JUMP JUMPDEST JUMPDEST DUP2 MLOAD PUSH2 0x2F7B DUP5 DUP3 PUSH1 0x20 DUP7 ADD PUSH2 0x2ED1 JUMP JUMPDEST SWAP2 POP POP SWAP3 SWAP2 POP POP JUMP JUMPDEST PUSH0 PUSH1 0x20 DUP3 DUP5 SUB SLT ISZERO PUSH2 0x2F99 JUMPI PUSH2 0x2F98 PUSH2 0x1A6B JUMP JUMPDEST JUMPDEST PUSH0 DUP3 ADD MLOAD PUSH8 0xFFFFFFFFFFFFFFFF DUP2 GT ISZERO PUSH2 0x2FB6 JUMPI PUSH2 0x2FB5 PUSH2 0x1A6F JUMP JUMPDEST JUMPDEST PUSH2 0x2FC2 DUP5 DUP3 DUP6 ADD PUSH2 0x2F57 JUMP JUMPDEST SWAP2 POP POP SWAP3 SWAP2 POP POP JUMP JUMPDEST PUSH32 0x4E6F206861766520616E79207472616E73616374696F6E207768696368206361 PUSH0 DUP3 ADD MSTORE PUSH32 0x6E20726566756E64000000000000000000000000000000000000000000000000 PUSH1 0x20 DUP3 ADD MSTORE POP JUMP JUMPDEST PUSH0 PUSH2 0x3025 PUSH1 0x28 DUP4 PUSH2 0x1B60 JUMP JUMPDEST SWAP2 POP PUSH2 0x3030 DUP3 PUSH2 0x2FCB JUMP JUMPDEST PUSH1 0x40 DUP3 ADD SWAP1 POP SWAP2 SWAP1 POP JUMP JUMPDEST PUSH0 PUSH1 0x20 DUP3 ADD SWAP1 POP DUP2 DUP2 SUB PUSH0 DUP4 ADD MSTORE PUSH2 0x3052 DUP2 PUSH2 0x3019 JUMP JUMPDEST SWAP1 POP SWAP2 SWAP1 POP JUMP JUMPDEST PUSH0 PUSH1 0x20 DUP3 ADD SWAP1 POP PUSH2 0x306C PUSH0 DUP4 ADD DUP5 PUSH2 0x1BEF JUMP JUMPDEST SWAP3 SWAP2 POP POP JUMP JUMPDEST PUSH0 PUSH1 0x20 DUP3 DUP5 SUB SLT ISZERO PUSH2 0x3087 JUMPI PUSH2 0x3086 PUSH2 0x1A6B JUMP JUMPDEST JUMPDEST PUSH0 PUSH2 0x3094 DUP5 DUP3 DUP6 ADD PUSH2 0x2D54 JUMP JUMPDEST SWAP2 POP POP SWAP3 SWAP2 POP POP JUMP JUMPDEST PUSH0 PUSH1 0x20 PUSH1 0x1F DUP4 ADD DIV SWAP1 POP SWAP2 SWAP1 POP JUMP JUMPDEST PUSH0 DUP3 DUP3 SHL SWAP1 POP SWAP3 SWAP2 POP POP JUMP JUMPDEST PUSH0 PUSH1 0x8 DUP4 MUL PUSH2 0x30E7 PUSH32 0xFFFFFFFFFFFFFFFFFFFFFFFFFFFFFFFFFFFFFFFFFFFFFFFFFFFFFFFFFFFFFFFF DUP3 PUSH2 0x30AC JUMP JUMPDEST PUSH2 0x30F1 DUP7 DUP4 PUSH2 0x30AC JUMP JUMPDEST SWAP6 POP DUP1 NOT DUP5 AND SWAP4 POP DUP1 DUP7 AND DUP5 OR SWAP3 POP POP POP SWAP4 SWAP3 POP POP POP JUMP JUMPDEST PUSH0 DUP2 SWAP1 POP SWAP2 SWAP1 POP JUMP JUMPDEST PUSH0 PUSH2 0x312C PUSH2 0x3127 PUSH2 0x3122 DUP5 PUSH2 0x1AF8 JUMP JUMPDEST PUSH2 0x3109 JUMP JUMPDEST PUSH2 0x1AF8 JUMP JUMPDEST SWAP1 POP SWAP2 SWAP1 POP JUMP JUMPDEST PUSH0 DUP2 SWAP1 POP SWAP2 SWAP1 POP JUMP JUMPDEST PUSH2 0x3145 DUP4 PUSH2 0x3112 JUMP JUMPDEST PUSH2 0x3159 PUSH2 0x3151 DUP3 PUSH2 0x3133 JUMP JUMPDEST DUP5 DUP5 SLOAD PUSH2 0x30B8 JUMP JUMPDEST DUP3 SSTORE POP POP POP POP JUMP JUMPDEST PUSH0 SWAP1 JUMP JUMPDEST PUSH2 0x316D PUSH2 0x3161 JUMP JUMPDEST PUSH2 0x3178 DUP2 DUP5 DUP5 PUSH2 0x313C JUMP JUMPDEST POP POP POP JUMP JUMPDEST JUMPDEST DUP2 DUP2 LT ISZERO PUSH2 0x319B JUMPI PUSH2 0x3190 PUSH0 DUP3 PUSH2 0x3165 JUMP JUMPDEST PUSH1 0x1 DUP2 ADD SWAP1 POP PUSH2 0x317E JUMP JUMPDEST POP POP JUMP JUMPDEST PUSH1 0x1F DUP3 GT ISZERO PUSH2 0x31E0 JUMPI PUSH2 0x31B1 DUP2 PUSH2 0x29A0 JUMP JUMPDEST PUSH2 0x31BA DUP5 PUSH2 0x309D JUMP JUMPDEST DUP2 ADD PUSH1 0x20 DUP6 LT ISZERO PUSH2 0x31C9 JUMPI DUP2 SWAP1 POP JUMPDEST PUSH2 0x31DD PUSH2 0x31D5 DUP6 PUSH2 0x309D JUMP JUMPDEST DUP4 ADD DUP3 PUSH2 0x317D JUMP JUMPDEST POP POP JUMPDEST POP POP POP JUMP JUMPDEST PUSH0 DUP3 DUP3 SHR SWAP1 POP SWAP3 SWAP2 POP POP JUMP JUMPDEST PUSH0 PUSH2 0x3200 PUSH0 NOT DUP5 PUSH1 0x8 MUL PUSH2 0x31E5 JUMP JUMPDEST NOT DUP1 DUP4 AND SWAP2 POP POP SWAP3 SWAP2 POP POP JUMP JUMPDEST PUSH0 PUSH2 0x3218 DUP4 DUP4 PUSH2 0x31F1 JUMP JUMPDEST SWAP2 POP DUP3 PUSH1 0x2 MUL DUP3 OR SWAP1 POP SWAP3 SWAP2 POP POP JUMP JUMPDEST PUSH2 0x3231 DUP3 PUSH2 0x1B56 JUMP JUMPDEST PUSH8 0xFFFFFFFFFFFFFFFF DUP2 GT ISZERO PUSH2 0x324A JUMPI PUSH2 0x3249 PUSH2 0x1EA1 JUMP JUMPDEST JUMPDEST PUSH2 0x3254 DUP3 SLOAD PUSH2 0x241C JUMP JUMPDEST PUSH2 0x325F DUP3 DUP3 DUP6 PUSH2 0x319F JUMP JUMPDEST PUSH0 PUSH1 0x20 SWAP1 POP PUSH1 0x1F DUP4 GT PUSH1 0x1 DUP2 EQ PUSH2 0x3290 JUMPI PUSH0 DUP5 ISZERO PUSH2 0x327E JUMPI DUP3 DUP8 ADD MLOAD SWAP1 POP JUMPDEST PUSH2 0x3288 DUP6 DUP3 PUSH2 0x320D JUMP JUMPDEST DUP7 SSTORE POP PUSH2 0x32EF JUMP JUMPDEST PUSH1 0x1F NOT DUP5 AND PUSH2 0x329E DUP7 PUSH2 0x29A0 JUMP JUMPDEST PUSH0 JUMPDEST DUP3 DUP2 LT ISZERO PUSH2 0x32C5 JUMPI DUP5 DUP10 ADD MLOAD DUP3 SSTORE PUSH1 0x1 DUP3 ADD SWAP2 POP PUSH1 0x20 DUP6 ADD SWAP5 POP PUSH1 0x20 DUP2 ADD SWAP1 POP PUSH2 0x32A0 JUMP JUMPDEST DUP7 DUP4 LT ISZERO PUSH2 0x32E2 JUMPI DUP5 DUP10 ADD MLOAD PUSH2 0x32DE PUSH1 0x1F DUP10 AND DUP3 PUSH2 0x31F1 JUMP JUMPDEST DUP4 SSTORE POP JUMPDEST PUSH1 0x1 PUSH1 0x2 DUP9 MUL ADD DUP9 SSTORE POP POP POP JUMPDEST POP POP POP POP POP POP JUMP JUMPDEST PUSH0 DUP2 SWAP1 POP SWAP2 SWAP1 POP JUMP JUMPDEST PUSH2 0x3311 PUSH2 0x330C DUP3 PUSH2 0x1AF8 JUMP JUMPDEST PUSH2 0x32F7 JUMP JUMPDEST DUP3 MSTORE POP POP JUMP JUMPDEST PUSH0 DUP2 PUSH1 0x60 SHL SWAP1 POP SWAP2 SWAP1 POP JUMP JUMPDEST PUSH0 PUSH2 0x332D DUP3 PUSH2 0x3317 JUMP JUMPDEST SWAP1 POP SWAP2 SWAP1 POP JUMP JUMPDEST PUSH0 PUSH2 0x333E DUP3 PUSH2 0x3323 JUMP JUMPDEST SWAP1 POP SWAP2 SWAP1 POP JUMP JUMPDEST PUSH2 0x3356 PUSH2 0x3351 DUP3 PUSH2 0x1A92 JUMP JUMPDEST PUSH2 0x3334 JUMP JUMPDEST DUP3 MSTORE POP POP JUMP JUMPDEST PUSH0 PUSH2 0x3367 DUP3 DUP7 PUSH2 0x3300 JUMP JUMPDEST PUSH1 0x20 DUP3 ADD SWAP2 POP PUSH2 0x3377 DUP3 DUP6 PUSH2 0x3345 JUMP JUMPDEST PUSH1 0x14 DUP3 ADD SWAP2 POP PUSH2 0x3387 DUP3 DUP5 PUSH2 0x3300 JUMP JUMPDEST PUSH1 0x20 DUP3 ADD SWAP2 POP DUP2 SWAP1 POP SWAP5 SWAP4 POP POP POP POP JUMP INVALID LOG2 PUSH5 0x6970667358 0x22 SLT KECCAK256 DUP5 LT SWAP10 GT 0xCE PUSH5 0x244EA05ECE 0xB4 DUP2 SDIV DUP13 CALLVALUE 0xB2 GAS CALLDATASIZE SELFDESTRUCT PUSH32 0xCC70BAA4008F60E5617DDF64736F6C6343000816003300000000000000000000 "
		},
		"gasEstimates": {
			"creation": {
				"codeDepositCost": "2652400",
				"executionCost": "32145",
				"totalCost": "2684545"
			},
			"external": {
				"addNewCampaign(string,string,string,uint256,uint256,string,address)": "infinite",
				"campaignInfoArray(uint256)": "infinite",
				"donate(string,string,string)": "infinite",
				"generateUniqueNumber()": "infinite",
				"getAllCampaign()": "infinite",
				"getCampaignById(string)": "infinite",
				"isAdmin()": "infinite",
				"refundAllByCampaignId(string,string)": "infinite",
				"setAdminContractAddress(address)": "26973",
				"settransactionHistoryContractAddress(address)": "26885",
				"setwithdrawRequestContractAddress(address)": "26994",
				"withdraw(uint256)": "infinite"
			}
		},
		"methodIdentifiers": {
			"addNewCampaign(string,string,string,uint256,uint256,string,address)": "be4f284d",
			"campaignInfoArray(uint256)": "057902be",
			"donate(string,string,string)": "8bf20649",
			"generateUniqueNumber()": "d819c635",
			"getAllCampaign()": "4ca079f2",
			"getCampaignById(string)": "e26034cd",
			"isAdmin()": "b6db75a0",
			"refundAllByCampaignId(string,string)": "8e9962ba",
			"setAdminContractAddress(address)": "658918e0",
			"settransactionHistoryContractAddress(address)": "046e5a67",
			"setwithdrawRequestContractAddress(address)": "e6754938",
			"withdraw(uint256)": "2e1a7d4d"
		}
	},
	"abi": [
		{
			"inputs": [],
			"stateMutability": "nonpayable",
			"type": "constructor"
		},
		{
			"anonymous": false,
			"inputs": [
				{
					"indexed": false,
					"internalType": "string",
					"name": "id",
					"type": "string"
				},
				{
					"indexed": false,
					"internalType": "string",
					"name": "creatorId",
					"type": "string"
				},
				{
					"indexed": false,
					"internalType": "string",
					"name": "title",
					"type": "string"
				},
				{
					"indexed": false,
					"internalType": "uint256",
					"name": "currentValue",
					"type": "uint256"
				},
				{
					"indexed": false,
					"internalType": "uint256",
					"name": "targetValue",
					"type": "uint256"
				},
				{
					"indexed": false,
					"internalType": "string",
					"name": "endDate",
					"type": "string"
				}
			],
			"name": "NewCampaignAdded",
			"type": "event"
		},
		{
			"anonymous": false,
			"inputs": [
				{
					"indexed": true,
					"internalType": "uint256",
					"name": "value",
					"type": "uint256"
				}
			],
			"name": "ReturnTransactionId",
			"type": "event"
		},
		{
			"inputs": [
				{
					"internalType": "string",
					"name": "id",
					"type": "string"
				},
				{
					"internalType": "string",
					"name": "creatorId",
					"type": "string"
				},
				{
					"internalType": "string",
					"name": "title",
					"type": "string"
				},
				{
					"internalType": "uint256",
					"name": "currentValue",
					"type": "uint256"
				},
				{
					"internalType": "uint256",
					"name": "targetValue",
					"type": "uint256"
				},
				{
					"internalType": "string",
					"name": "endDate",
					"type": "string"
				},
				{
					"internalType": "address",
					"name": "creatorAdress",
					"type": "address"
				}
			],
			"name": "addNewCampaign",
			"outputs": [],
			"stateMutability": "nonpayable",
			"type": "function"
		},
		{
			"inputs": [
				{
					"internalType": "uint256",
					"name": "",
					"type": "uint256"
				}
			],
			"name": "campaignInfoArray",
			"outputs": [
				{
					"internalType": "string",
					"name": "id",
					"type": "string"
				},
				{
					"internalType": "string",
					"name": "creatorId",
					"type": "string"
				},
				{
					"internalType": "string",
					"name": "title",
					"type": "string"
				},
				{
					"internalType": "uint256",
					"name": "currentValue",
					"type": "uint256"
				},
				{
					"internalType": "uint256",
					"name": "targetValue",
					"type": "uint256"
				},
				{
					"internalType": "string",
					"name": "endDate",
					"type": "string"
				},
				{
					"internalType": "uint256",
					"name": "donateValue",
					"type": "uint256"
				},
				{
					"internalType": "address",
					"name": "creatorAddress",
					"type": "address"
				}
			],
			"stateMutability": "view",
			"type": "function"
		},
		{
			"inputs": [
				{
					"internalType": "string",
					"name": "campaignId",
					"type": "string"
				},
				{
					"internalType": "string",
					"name": "donatorId",
					"type": "string"
				},
				{
					"internalType": "string",
					"name": "time",
					"type": "string"
				}
			],
			"name": "donate",
			"outputs": [],
			"stateMutability": "payable",
			"type": "function"
		},
		{
			"inputs": [],
			"name": "generateUniqueNumber",
			"outputs": [
				{
					"internalType": "uint256",
					"name": "",
					"type": "uint256"
				}
			],
			"stateMutability": "view",
			"type": "function"
		},
		{
			"inputs": [],
			"name": "getAllCampaign",
			"outputs": [
				{
					"components": [
						{
							"internalType": "string",
							"name": "id",
							"type": "string"
						},
						{
							"internalType": "string",
							"name": "creatorId",
							"type": "string"
						},
						{
							"internalType": "string",
							"name": "title",
							"type": "string"
						},
						{
							"internalType": "uint256",
							"name": "currentValue",
							"type": "uint256"
						},
						{
							"internalType": "uint256",
							"name": "targetValue",
							"type": "uint256"
						},
						{
							"internalType": "string",
							"name": "endDate",
							"type": "string"
						},
						{
							"internalType": "uint256",
							"name": "donateValue",
							"type": "uint256"
						},
						{
							"internalType": "address",
							"name": "creatorAddress",
							"type": "address"
						}
					],
					"internalType": "struct Campaign.CampaignInfo[]",
					"name": "",
					"type": "tuple[]"
				}
			],
			"stateMutability": "view",
			"type": "function"
		},
		{
			"inputs": [
				{
					"internalType": "string",
					"name": "id",
					"type": "string"
				}
			],
			"name": "getCampaignById",
			"outputs": [
				{
					"components": [
						{
							"internalType": "string",
							"name": "id",
							"type": "string"
						},
						{
							"internalType": "string",
							"name": "creatorId",
							"type": "string"
						},
						{
							"internalType": "string",
							"name": "title",
							"type": "string"
						},
						{
							"internalType": "uint256",
							"name": "currentValue",
							"type": "uint256"
						},
						{
							"internalType": "uint256",
							"name": "targetValue",
							"type": "uint256"
						},
						{
							"internalType": "string",
							"name": "endDate",
							"type": "string"
						},
						{
							"internalType": "uint256",
							"name": "donateValue",
							"type": "uint256"
						},
						{
							"internalType": "address",
							"name": "creatorAddress",
							"type": "address"
						}
					],
					"internalType": "struct Campaign.CampaignInfo",
					"name": "",
					"type": "tuple"
				}
			],
			"stateMutability": "view",
			"type": "function"
		},
		{
			"inputs": [],
			"name": "isAdmin",
			"outputs": [
				{
					"internalType": "bool",
					"name": "",
					"type": "bool"
				}
			],
			"stateMutability": "view",
			"type": "function"
		},
		{
			"inputs": [
				{
					"internalType": "string",
					"name": "_campaignId",
					"type": "string"
				},
				{
					"internalType": "string",
					"name": "_timeRefund",
					"type": "string"
				}
			],
			"name": "refundAllByCampaignId",
			"outputs": [],
			"stateMutability": "nonpayable",
			"type": "function"
		},
		{
			"inputs": [
				{
					"internalType": "address",
					"name": "_adminContractAddress",
					"type": "address"
				}
			],
			"name": "setAdminContractAddress",
			"outputs": [],
			"stateMutability": "nonpayable",
			"type": "function"
		},
		{
			"inputs": [
				{
					"internalType": "address",
					"name": "_transactionHistoryContractAddress",
					"type": "address"
				}
			],
			"name": "settransactionHistoryContractAddress",
			"outputs": [],
			"stateMutability": "nonpayable",
			"type": "function"
		},
		{
			"inputs": [
				{
					"internalType": "address",
					"name": "_withdrawRequestContractAddress",
					"type": "address"
				}
			],
			"name": "setwithdrawRequestContractAddress",
			"outputs": [],
			"stateMutability": "nonpayable",
			"type": "function"
		},
		{
			"inputs": [
				{
					"internalType": "uint256",
					"name": "_withdrawRequestId",
					"type": "uint256"
				}
			],
			"name": "withdraw",
			"outputs": [],
			"stateMutability": "nonpayable",
			"type": "function"
		}
	]
}