{
	"data": {
		"bytecode": {
			"linkReferences": {},
			"object": "608060405234801561000f575f80fd5b506109e98061001d5f395ff3fe608060405234801561000f575f80fd5b5060043610610034575f3560e01c8063057902be146100385780638c3ecab51461006d575b5f80fd5b610052600480360381019061004d91906103a9565b610089565b6040516100649695949392919061046d565b60405180910390f35b6100876004803603810190610082919061060d565b610261565b005b5f8181548110610097575f80fd5b905f5260205f2090600602015f91509050805f0180546100b690610717565b80601f01602080910402602001604051908101604052809291908181526020018280546100e290610717565b801561012d5780601f106101045761010080835404028352916020019161012d565b820191905f5260205f20905b81548152906001019060200180831161011057829003601f168201915b50505050509080600101805461014290610717565b80601f016020809104026020016040519081016040528092919081815260200182805461016e90610717565b80156101b95780601f10610190576101008083540402835291602001916101b9565b820191905f5260205f20905b81548152906001019060200180831161019c57829003601f168201915b5050505050908060020180546101ce90610717565b80601f01602080910402602001604051908101604052809291908181526020018280546101fa90610717565b80156102455780601f1061021c57610100808354040283529160200191610245565b820191905f5260205f20905b81548152906001019060200180831161022857829003601f168201915b5050505050908060030154908060040154908060050154905086565b610269610332565b86815f01819052508581602001819052508481604001819052508281608001818152505083816060018181525050818160a00181815250505f81908060018154018082558091505060019003905f5260205f2090600602015f909190919091505f820151815f0190816102dc91906108e4565b5060208201518160010190816102f291906108e4565b50604082015181600201908161030891906108e4565b50606082015181600301556080820151816004015560a08201518160050155505050505050505050565b6040518060c001604052806060815260200160608152602001606081526020015f81526020015f81526020015f81525090565b5f604051905090565b5f80fd5b5f80fd5b5f819050919050565b61038881610376565b8114610392575f80fd5b50565b5f813590506103a38161037f565b92915050565b5f602082840312156103be576103bd61036e565b5b5f6103cb84828501610395565b91505092915050565b5f81519050919050565b5f82825260208201905092915050565b5f5b8381101561040b5780820151818401526020810190506103f0565b5f8484015250505050565b5f601f19601f8301169050919050565b5f610430826103d4565b61043a81856103de565b935061044a8185602086016103ee565b61045381610416565b840191505092915050565b61046781610376565b82525050565b5f60c0820190508181035f8301526104858189610426565b905081810360208301526104998188610426565b905081810360408301526104ad8187610426565b90506104bc606083018661045e565b6104c9608083018561045e565b6104d660a083018461045e565b979650505050505050565b5f80fd5b5f80fd5b7f4e487b71000000000000000000000000000000000000000000000000000000005f52604160045260245ffd5b61051f82610416565b810181811067ffffffffffffffff8211171561053e5761053d6104e9565b5b80604052505050565b5f610550610365565b905061055c8282610516565b919050565b5f67ffffffffffffffff82111561057b5761057a6104e9565b5b61058482610416565b9050602081019050919050565b828183375f83830152505050565b5f6105b16105ac84610561565b610547565b9050828152602081018484840111156105cd576105cc6104e5565b5b6105d8848285610591565b509392505050565b5f82601f8301126105f4576105f36104e1565b5b813561060484826020860161059f565b91505092915050565b5f805f805f8060c087890312156106275761062661036e565b5b5f87013567ffffffffffffffff81111561064457610643610372565b5b61065089828a016105e0565b965050602087013567ffffffffffffffff81111561067157610670610372565b5b61067d89828a016105e0565b955050604087013567ffffffffffffffff81111561069e5761069d610372565b5b6106aa89828a016105e0565b94505060606106bb89828a01610395565b93505060806106cc89828a01610395565b92505060a06106dd89828a01610395565b9150509295509295509295565b7f4e487b71000000000000000000000000000000000000000000000000000000005f52602260045260245ffd5b5f600282049050600182168061072e57607f821691505b602082108103610741576107406106ea565b5b50919050565b5f819050815f5260205f209050919050565b5f6020601f8301049050919050565b5f82821b905092915050565b5f600883026107a37fffffffffffffffffffffffffffffffffffffffffffffffffffffffffffffffff82610768565b6107ad8683610768565b95508019841693508086168417925050509392505050565b5f819050919050565b5f6107e86107e36107de84610376565b6107c5565b610376565b9050919050565b5f819050919050565b610801836107ce565b61081561080d826107ef565b848454610774565b825550505050565b5f90565b61082961081d565b6108348184846107f8565b505050565b5b818110156108575761084c5f82610821565b60018101905061083a565b5050565b601f82111561089c5761086d81610747565b61087684610759565b81016020851015610885578190505b61089961089185610759565b830182610839565b50505b505050565b5f82821c905092915050565b5f6108bc5f19846008026108a1565b1980831691505092915050565b5f6108d483836108ad565b9150826002028217905092915050565b6108ed826103d4565b67ffffffffffffffff811115610906576109056104e9565b5b6109108254610717565b61091b82828561085b565b5f60209050601f83116001811461094c575f841561093a578287015190505b61094485826108c9565b8655506109ab565b601f19841661095a86610747565b5f5b828110156109815784890151825560018201915060208501945060208101905061095c565b8683101561099e578489015161099a601f8916826108ad565b8355505b6001600288020188555050505b50505050505056fea2646970667358221220e0ee38b4665cfe6d62b09094acf2d4f164b7ab977addcf3406e2d331c0515c5e64736f6c63430008170033",
			"opcodes": "PUSH1 0x80 PUSH1 0x40 MSTORE CALLVALUE DUP1 ISZERO PUSH2 0xF JUMPI PUSH0 DUP1 REVERT JUMPDEST POP PUSH2 0x9E9 DUP1 PUSH2 0x1D PUSH0 CODECOPY PUSH0 RETURN INVALID PUSH1 0x80 PUSH1 0x40 MSTORE CALLVALUE DUP1 ISZERO PUSH2 0xF JUMPI PUSH0 DUP1 REVERT JUMPDEST POP PUSH1 0x4 CALLDATASIZE LT PUSH2 0x34 JUMPI PUSH0 CALLDATALOAD PUSH1 0xE0 SHR DUP1 PUSH4 0x57902BE EQ PUSH2 0x38 JUMPI DUP1 PUSH4 0x8C3ECAB5 EQ PUSH2 0x6D JUMPI JUMPDEST PUSH0 DUP1 REVERT JUMPDEST PUSH2 0x52 PUSH1 0x4 DUP1 CALLDATASIZE SUB DUP2 ADD SWAP1 PUSH2 0x4D SWAP2 SWAP1 PUSH2 0x3A9 JUMP JUMPDEST PUSH2 0x89 JUMP JUMPDEST PUSH1 0x40 MLOAD PUSH2 0x64 SWAP7 SWAP6 SWAP5 SWAP4 SWAP3 SWAP2 SWAP1 PUSH2 0x46D JUMP JUMPDEST PUSH1 0x40 MLOAD DUP1 SWAP2 SUB SWAP1 RETURN JUMPDEST PUSH2 0x87 PUSH1 0x4 DUP1 CALLDATASIZE SUB DUP2 ADD SWAP1 PUSH2 0x82 SWAP2 SWAP1 PUSH2 0x60D JUMP JUMPDEST PUSH2 0x261 JUMP JUMPDEST STOP JUMPDEST PUSH0 DUP2 DUP2 SLOAD DUP2 LT PUSH2 0x97 JUMPI PUSH0 DUP1 REVERT JUMPDEST SWAP1 PUSH0 MSTORE PUSH1 0x20 PUSH0 KECCAK256 SWAP1 PUSH1 0x6 MUL ADD PUSH0 SWAP2 POP SWAP1 POP DUP1 PUSH0 ADD DUP1 SLOAD PUSH2 0xB6 SWAP1 PUSH2 0x717 JUMP JUMPDEST DUP1 PUSH1 0x1F ADD PUSH1 0x20 DUP1 SWAP2 DIV MUL PUSH1 0x20 ADD PUSH1 0x40 MLOAD SWAP1 DUP2 ADD PUSH1 0x40 MSTORE DUP1 SWAP3 SWAP2 SWAP1 DUP2 DUP2 MSTORE PUSH1 0x20 ADD DUP3 DUP1 SLOAD PUSH2 0xE2 SWAP1 PUSH2 0x717 JUMP JUMPDEST DUP1 ISZERO PUSH2 0x12D JUMPI DUP1 PUSH1 0x1F LT PUSH2 0x104 JUMPI PUSH2 0x100 DUP1 DUP4 SLOAD DIV MUL DUP4 MSTORE SWAP2 PUSH1 0x20 ADD SWAP2 PUSH2 0x12D JUMP JUMPDEST DUP3 ADD SWAP2 SWAP1 PUSH0 MSTORE PUSH1 0x20 PUSH0 KECCAK256 SWAP1 JUMPDEST DUP2 SLOAD DUP2 MSTORE SWAP1 PUSH1 0x1 ADD SWAP1 PUSH1 0x20 ADD DUP1 DUP4 GT PUSH2 0x110 JUMPI DUP3 SWAP1 SUB PUSH1 0x1F AND DUP3 ADD SWAP2 JUMPDEST POP POP POP POP POP SWAP1 DUP1 PUSH1 0x1 ADD DUP1 SLOAD PUSH2 0x142 SWAP1 PUSH2 0x717 JUMP JUMPDEST DUP1 PUSH1 0x1F ADD PUSH1 0x20 DUP1 SWAP2 DIV MUL PUSH1 0x20 ADD PUSH1 0x40 MLOAD SWAP1 DUP2 ADD PUSH1 0x40 MSTORE DUP1 SWAP3 SWAP2 SWAP1 DUP2 DUP2 MSTORE PUSH1 0x20 ADD DUP3 DUP1 SLOAD PUSH2 0x16E SWAP1 PUSH2 0x717 JUMP JUMPDEST DUP1 ISZERO PUSH2 0x1B9 JUMPI DUP1 PUSH1 0x1F LT PUSH2 0x190 JUMPI PUSH2 0x100 DUP1 DUP4 SLOAD DIV MUL DUP4 MSTORE SWAP2 PUSH1 0x20 ADD SWAP2 PUSH2 0x1B9 JUMP JUMPDEST DUP3 ADD SWAP2 SWAP1 PUSH0 MSTORE PUSH1 0x20 PUSH0 KECCAK256 SWAP1 JUMPDEST DUP2 SLOAD DUP2 MSTORE SWAP1 PUSH1 0x1 ADD SWAP1 PUSH1 0x20 ADD DUP1 DUP4 GT PUSH2 0x19C JUMPI DUP3 SWAP1 SUB PUSH1 0x1F AND DUP3 ADD SWAP2 JUMPDEST POP POP POP POP POP SWAP1 DUP1 PUSH1 0x2 ADD DUP1 SLOAD PUSH2 0x1CE SWAP1 PUSH2 0x717 JUMP JUMPDEST DUP1 PUSH1 0x1F ADD PUSH1 0x20 DUP1 SWAP2 DIV MUL PUSH1 0x20 ADD PUSH1 0x40 MLOAD SWAP1 DUP2 ADD PUSH1 0x40 MSTORE DUP1 SWAP3 SWAP2 SWAP1 DUP2 DUP2 MSTORE PUSH1 0x20 ADD DUP3 DUP1 SLOAD PUSH2 0x1FA SWAP1 PUSH2 0x717 JUMP JUMPDEST DUP1 ISZERO PUSH2 0x245 JUMPI DUP1 PUSH1 0x1F LT PUSH2 0x21C JUMPI PUSH2 0x100 DUP1 DUP4 SLOAD DIV MUL DUP4 MSTORE SWAP2 PUSH1 0x20 ADD SWAP2 PUSH2 0x245 JUMP JUMPDEST DUP3 ADD SWAP2 SWAP1 PUSH0 MSTORE PUSH1 0x20 PUSH0 KECCAK256 SWAP1 JUMPDEST DUP2 SLOAD DUP2 MSTORE SWAP1 PUSH1 0x1 ADD SWAP1 PUSH1 0x20 ADD DUP1 DUP4 GT PUSH2 0x228 JUMPI DUP3 SWAP1 SUB PUSH1 0x1F AND DUP3 ADD SWAP2 JUMPDEST POP POP POP POP POP SWAP1 DUP1 PUSH1 0x3 ADD SLOAD SWAP1 DUP1 PUSH1 0x4 ADD SLOAD SWAP1 DUP1 PUSH1 0x5 ADD SLOAD SWAP1 POP DUP7 JUMP JUMPDEST PUSH2 0x269 PUSH2 0x332 JUMP JUMPDEST DUP7 DUP2 PUSH0 ADD DUP2 SWAP1 MSTORE POP DUP6 DUP2 PUSH1 0x20 ADD DUP2 SWAP1 MSTORE POP DUP5 DUP2 PUSH1 0x40 ADD DUP2 SWAP1 MSTORE POP DUP3 DUP2 PUSH1 0x80 ADD DUP2 DUP2 MSTORE POP POP DUP4 DUP2 PUSH1 0x60 ADD DUP2 DUP2 MSTORE POP POP DUP2 DUP2 PUSH1 0xA0 ADD DUP2 DUP2 MSTORE POP POP PUSH0 DUP2 SWAP1 DUP1 PUSH1 0x1 DUP2 SLOAD ADD DUP1 DUP3 SSTORE DUP1 SWAP2 POP POP PUSH1 0x1 SWAP1 SUB SWAP1 PUSH0 MSTORE PUSH1 0x20 PUSH0 KECCAK256 SWAP1 PUSH1 0x6 MUL ADD PUSH0 SWAP1 SWAP2 SWAP1 SWAP2 SWAP1 SWAP2 POP PUSH0 DUP3 ADD MLOAD DUP2 PUSH0 ADD SWAP1 DUP2 PUSH2 0x2DC SWAP2 SWAP1 PUSH2 0x8E4 JUMP JUMPDEST POP PUSH1 0x20 DUP3 ADD MLOAD DUP2 PUSH1 0x1 ADD SWAP1 DUP2 PUSH2 0x2F2 SWAP2 SWAP1 PUSH2 0x8E4 JUMP JUMPDEST POP PUSH1 0x40 DUP3 ADD MLOAD DUP2 PUSH1 0x2 ADD SWAP1 DUP2 PUSH2 0x308 SWAP2 SWAP1 PUSH2 0x8E4 JUMP JUMPDEST POP PUSH1 0x60 DUP3 ADD MLOAD DUP2 PUSH1 0x3 ADD SSTORE PUSH1 0x80 DUP3 ADD MLOAD DUP2 PUSH1 0x4 ADD SSTORE PUSH1 0xA0 DUP3 ADD MLOAD DUP2 PUSH1 0x5 ADD SSTORE POP POP POP POP POP POP POP POP POP JUMP JUMPDEST PUSH1 0x40 MLOAD DUP1 PUSH1 0xC0 ADD PUSH1 0x40 MSTORE DUP1 PUSH1 0x60 DUP2 MSTORE PUSH1 0x20 ADD PUSH1 0x60 DUP2 MSTORE PUSH1 0x20 ADD PUSH1 0x60 DUP2 MSTORE PUSH1 0x20 ADD PUSH0 DUP2 MSTORE PUSH1 0x20 ADD PUSH0 DUP2 MSTORE PUSH1 0x20 ADD PUSH0 DUP2 MSTORE POP SWAP1 JUMP JUMPDEST PUSH0 PUSH1 0x40 MLOAD SWAP1 POP SWAP1 JUMP JUMPDEST PUSH0 DUP1 REVERT JUMPDEST PUSH0 DUP1 REVERT JUMPDEST PUSH0 DUP2 SWAP1 POP SWAP2 SWAP1 POP JUMP JUMPDEST PUSH2 0x388 DUP2 PUSH2 0x376 JUMP JUMPDEST DUP2 EQ PUSH2 0x392 JUMPI PUSH0 DUP1 REVERT JUMPDEST POP JUMP JUMPDEST PUSH0 DUP2 CALLDATALOAD SWAP1 POP PUSH2 0x3A3 DUP2 PUSH2 0x37F JUMP JUMPDEST SWAP3 SWAP2 POP POP JUMP JUMPDEST PUSH0 PUSH1 0x20 DUP3 DUP5 SUB SLT ISZERO PUSH2 0x3BE JUMPI PUSH2 0x3BD PUSH2 0x36E JUMP JUMPDEST JUMPDEST PUSH0 PUSH2 0x3CB DUP5 DUP3 DUP6 ADD PUSH2 0x395 JUMP JUMPDEST SWAP2 POP POP SWAP3 SWAP2 POP POP JUMP JUMPDEST PUSH0 DUP2 MLOAD SWAP1 POP SWAP2 SWAP1 POP JUMP JUMPDEST PUSH0 DUP3 DUP3 MSTORE PUSH1 0x20 DUP3 ADD SWAP1 POP SWAP3 SWAP2 POP POP JUMP JUMPDEST PUSH0 JUMPDEST DUP4 DUP2 LT ISZERO PUSH2 0x40B JUMPI DUP1 DUP3 ADD MLOAD DUP2 DUP5 ADD MSTORE PUSH1 0x20 DUP2 ADD SWAP1 POP PUSH2 0x3F0 JUMP JUMPDEST PUSH0 DUP5 DUP5 ADD MSTORE POP POP POP POP JUMP JUMPDEST PUSH0 PUSH1 0x1F NOT PUSH1 0x1F DUP4 ADD AND SWAP1 POP SWAP2 SWAP1 POP JUMP JUMPDEST PUSH0 PUSH2 0x430 DUP3 PUSH2 0x3D4 JUMP JUMPDEST PUSH2 0x43A DUP2 DUP6 PUSH2 0x3DE JUMP JUMPDEST SWAP4 POP PUSH2 0x44A DUP2 DUP6 PUSH1 0x20 DUP7 ADD PUSH2 0x3EE JUMP JUMPDEST PUSH2 0x453 DUP2 PUSH2 0x416 JUMP JUMPDEST DUP5 ADD SWAP2 POP POP SWAP3 SWAP2 POP POP JUMP JUMPDEST PUSH2 0x467 DUP2 PUSH2 0x376 JUMP JUMPDEST DUP3 MSTORE POP POP JUMP JUMPDEST PUSH0 PUSH1 0xC0 DUP3 ADD SWAP1 POP DUP2 DUP2 SUB PUSH0 DUP4 ADD MSTORE PUSH2 0x485 DUP2 DUP10 PUSH2 0x426 JUMP JUMPDEST SWAP1 POP DUP2 DUP2 SUB PUSH1 0x20 DUP4 ADD MSTORE PUSH2 0x499 DUP2 DUP9 PUSH2 0x426 JUMP JUMPDEST SWAP1 POP DUP2 DUP2 SUB PUSH1 0x40 DUP4 ADD MSTORE PUSH2 0x4AD DUP2 DUP8 PUSH2 0x426 JUMP JUMPDEST SWAP1 POP PUSH2 0x4BC PUSH1 0x60 DUP4 ADD DUP7 PUSH2 0x45E JUMP JUMPDEST PUSH2 0x4C9 PUSH1 0x80 DUP4 ADD DUP6 PUSH2 0x45E JUMP JUMPDEST PUSH2 0x4D6 PUSH1 0xA0 DUP4 ADD DUP5 PUSH2 0x45E JUMP JUMPDEST SWAP8 SWAP7 POP POP POP POP POP POP POP JUMP JUMPDEST PUSH0 DUP1 REVERT JUMPDEST PUSH0 DUP1 REVERT JUMPDEST PUSH32 0x4E487B7100000000000000000000000000000000000000000000000000000000 PUSH0 MSTORE PUSH1 0x41 PUSH1 0x4 MSTORE PUSH1 0x24 PUSH0 REVERT JUMPDEST PUSH2 0x51F DUP3 PUSH2 0x416 JUMP JUMPDEST DUP2 ADD DUP2 DUP2 LT PUSH8 0xFFFFFFFFFFFFFFFF DUP3 GT OR ISZERO PUSH2 0x53E JUMPI PUSH2 0x53D PUSH2 0x4E9 JUMP JUMPDEST JUMPDEST DUP1 PUSH1 0x40 MSTORE POP POP POP JUMP JUMPDEST PUSH0 PUSH2 0x550 PUSH2 0x365 JUMP JUMPDEST SWAP1 POP PUSH2 0x55C DUP3 DUP3 PUSH2 0x516 JUMP JUMPDEST SWAP2 SWAP1 POP JUMP JUMPDEST PUSH0 PUSH8 0xFFFFFFFFFFFFFFFF DUP3 GT ISZERO PUSH2 0x57B JUMPI PUSH2 0x57A PUSH2 0x4E9 JUMP JUMPDEST JUMPDEST PUSH2 0x584 DUP3 PUSH2 0x416 JUMP JUMPDEST SWAP1 POP PUSH1 0x20 DUP2 ADD SWAP1 POP SWAP2 SWAP1 POP JUMP JUMPDEST DUP3 DUP2 DUP4 CALLDATACOPY PUSH0 DUP4 DUP4 ADD MSTORE POP POP POP JUMP JUMPDEST PUSH0 PUSH2 0x5B1 PUSH2 0x5AC DUP5 PUSH2 0x561 JUMP JUMPDEST PUSH2 0x547 JUMP JUMPDEST SWAP1 POP DUP3 DUP2 MSTORE PUSH1 0x20 DUP2 ADD DUP5 DUP5 DUP5 ADD GT ISZERO PUSH2 0x5CD JUMPI PUSH2 0x5CC PUSH2 0x4E5 JUMP JUMPDEST JUMPDEST PUSH2 0x5D8 DUP5 DUP3 DUP6 PUSH2 0x591 JUMP JUMPDEST POP SWAP4 SWAP3 POP POP POP JUMP JUMPDEST PUSH0 DUP3 PUSH1 0x1F DUP4 ADD SLT PUSH2 0x5F4 JUMPI PUSH2 0x5F3 PUSH2 0x4E1 JUMP JUMPDEST JUMPDEST DUP2 CALLDATALOAD PUSH2 0x604 DUP5 DUP3 PUSH1 0x20 DUP7 ADD PUSH2 0x59F JUMP JUMPDEST SWAP2 POP POP SWAP3 SWAP2 POP POP JUMP JUMPDEST PUSH0 DUP1 PUSH0 DUP1 PUSH0 DUP1 PUSH1 0xC0 DUP8 DUP10 SUB SLT ISZERO PUSH2 0x627 JUMPI PUSH2 0x626 PUSH2 0x36E JUMP JUMPDEST JUMPDEST PUSH0 DUP8 ADD CALLDATALOAD PUSH8 0xFFFFFFFFFFFFFFFF DUP2 GT ISZERO PUSH2 0x644 JUMPI PUSH2 0x643 PUSH2 0x372 JUMP JUMPDEST JUMPDEST PUSH2 0x650 DUP10 DUP3 DUP11 ADD PUSH2 0x5E0 JUMP JUMPDEST SWAP7 POP POP PUSH1 0x20 DUP8 ADD CALLDATALOAD PUSH8 0xFFFFFFFFFFFFFFFF DUP2 GT ISZERO PUSH2 0x671 JUMPI PUSH2 0x670 PUSH2 0x372 JUMP JUMPDEST JUMPDEST PUSH2 0x67D DUP10 DUP3 DUP11 ADD PUSH2 0x5E0 JUMP JUMPDEST SWAP6 POP POP PUSH1 0x40 DUP8 ADD CALLDATALOAD PUSH8 0xFFFFFFFFFFFFFFFF DUP2 GT ISZERO PUSH2 0x69E JUMPI PUSH2 0x69D PUSH2 0x372 JUMP JUMPDEST JUMPDEST PUSH2 0x6AA DUP10 DUP3 DUP11 ADD PUSH2 0x5E0 JUMP JUMPDEST SWAP5 POP POP PUSH1 0x60 PUSH2 0x6BB DUP10 DUP3 DUP11 ADD PUSH2 0x395 JUMP JUMPDEST SWAP4 POP POP PUSH1 0x80 PUSH2 0x6CC DUP10 DUP3 DUP11 ADD PUSH2 0x395 JUMP JUMPDEST SWAP3 POP POP PUSH1 0xA0 PUSH2 0x6DD DUP10 DUP3 DUP11 ADD PUSH2 0x395 JUMP JUMPDEST SWAP2 POP POP SWAP3 SWAP6 POP SWAP3 SWAP6 POP SWAP3 SWAP6 JUMP JUMPDEST PUSH32 0x4E487B7100000000000000000000000000000000000000000000000000000000 PUSH0 MSTORE PUSH1 0x22 PUSH1 0x4 MSTORE PUSH1 0x24 PUSH0 REVERT JUMPDEST PUSH0 PUSH1 0x2 DUP3 DIV SWAP1 POP PUSH1 0x1 DUP3 AND DUP1 PUSH2 0x72E JUMPI PUSH1 0x7F DUP3 AND SWAP2 POP JUMPDEST PUSH1 0x20 DUP3 LT DUP2 SUB PUSH2 0x741 JUMPI PUSH2 0x740 PUSH2 0x6EA JUMP JUMPDEST JUMPDEST POP SWAP2 SWAP1 POP JUMP JUMPDEST PUSH0 DUP2 SWAP1 POP DUP2 PUSH0 MSTORE PUSH1 0x20 PUSH0 KECCAK256 SWAP1 POP SWAP2 SWAP1 POP JUMP JUMPDEST PUSH0 PUSH1 0x20 PUSH1 0x1F DUP4 ADD DIV SWAP1 POP SWAP2 SWAP1 POP JUMP JUMPDEST PUSH0 DUP3 DUP3 SHL SWAP1 POP SWAP3 SWAP2 POP POP JUMP JUMPDEST PUSH0 PUSH1 0x8 DUP4 MUL PUSH2 0x7A3 PUSH32 0xFFFFFFFFFFFFFFFFFFFFFFFFFFFFFFFFFFFFFFFFFFFFFFFFFFFFFFFFFFFFFFFF DUP3 PUSH2 0x768 JUMP JUMPDEST PUSH2 0x7AD DUP7 DUP4 PUSH2 0x768 JUMP JUMPDEST SWAP6 POP DUP1 NOT DUP5 AND SWAP4 POP DUP1 DUP7 AND DUP5 OR SWAP3 POP POP POP SWAP4 SWAP3 POP POP POP JUMP JUMPDEST PUSH0 DUP2 SWAP1 POP SWAP2 SWAP1 POP JUMP JUMPDEST PUSH0 PUSH2 0x7E8 PUSH2 0x7E3 PUSH2 0x7DE DUP5 PUSH2 0x376 JUMP JUMPDEST PUSH2 0x7C5 JUMP JUMPDEST PUSH2 0x376 JUMP JUMPDEST SWAP1 POP SWAP2 SWAP1 POP JUMP JUMPDEST PUSH0 DUP2 SWAP1 POP SWAP2 SWAP1 POP JUMP JUMPDEST PUSH2 0x801 DUP4 PUSH2 0x7CE JUMP JUMPDEST PUSH2 0x815 PUSH2 0x80D DUP3 PUSH2 0x7EF JUMP JUMPDEST DUP5 DUP5 SLOAD PUSH2 0x774 JUMP JUMPDEST DUP3 SSTORE POP POP POP POP JUMP JUMPDEST PUSH0 SWAP1 JUMP JUMPDEST PUSH2 0x829 PUSH2 0x81D JUMP JUMPDEST PUSH2 0x834 DUP2 DUP5 DUP5 PUSH2 0x7F8 JUMP JUMPDEST POP POP POP JUMP JUMPDEST JUMPDEST DUP2 DUP2 LT ISZERO PUSH2 0x857 JUMPI PUSH2 0x84C PUSH0 DUP3 PUSH2 0x821 JUMP JUMPDEST PUSH1 0x1 DUP2 ADD SWAP1 POP PUSH2 0x83A JUMP JUMPDEST POP POP JUMP JUMPDEST PUSH1 0x1F DUP3 GT ISZERO PUSH2 0x89C JUMPI PUSH2 0x86D DUP2 PUSH2 0x747 JUMP JUMPDEST PUSH2 0x876 DUP5 PUSH2 0x759 JUMP JUMPDEST DUP2 ADD PUSH1 0x20 DUP6 LT ISZERO PUSH2 0x885 JUMPI DUP2 SWAP1 POP JUMPDEST PUSH2 0x899 PUSH2 0x891 DUP6 PUSH2 0x759 JUMP JUMPDEST DUP4 ADD DUP3 PUSH2 0x839 JUMP JUMPDEST POP POP JUMPDEST POP POP POP JUMP JUMPDEST PUSH0 DUP3 DUP3 SHR SWAP1 POP SWAP3 SWAP2 POP POP JUMP JUMPDEST PUSH0 PUSH2 0x8BC PUSH0 NOT DUP5 PUSH1 0x8 MUL PUSH2 0x8A1 JUMP JUMPDEST NOT DUP1 DUP4 AND SWAP2 POP POP SWAP3 SWAP2 POP POP JUMP JUMPDEST PUSH0 PUSH2 0x8D4 DUP4 DUP4 PUSH2 0x8AD JUMP JUMPDEST SWAP2 POP DUP3 PUSH1 0x2 MUL DUP3 OR SWAP1 POP SWAP3 SWAP2 POP POP JUMP JUMPDEST PUSH2 0x8ED DUP3 PUSH2 0x3D4 JUMP JUMPDEST PUSH8 0xFFFFFFFFFFFFFFFF DUP2 GT ISZERO PUSH2 0x906 JUMPI PUSH2 0x905 PUSH2 0x4E9 JUMP JUMPDEST JUMPDEST PUSH2 0x910 DUP3 SLOAD PUSH2 0x717 JUMP JUMPDEST PUSH2 0x91B DUP3 DUP3 DUP6 PUSH2 0x85B JUMP JUMPDEST PUSH0 PUSH1 0x20 SWAP1 POP PUSH1 0x1F DUP4 GT PUSH1 0x1 DUP2 EQ PUSH2 0x94C JUMPI PUSH0 DUP5 ISZERO PUSH2 0x93A JUMPI DUP3 DUP8 ADD MLOAD SWAP1 POP JUMPDEST PUSH2 0x944 DUP6 DUP3 PUSH2 0x8C9 JUMP JUMPDEST DUP7 SSTORE POP PUSH2 0x9AB JUMP JUMPDEST PUSH1 0x1F NOT DUP5 AND PUSH2 0x95A DUP7 PUSH2 0x747 JUMP JUMPDEST PUSH0 JUMPDEST DUP3 DUP2 LT ISZERO PUSH2 0x981 JUMPI DUP5 DUP10 ADD MLOAD DUP3 SSTORE PUSH1 0x1 DUP3 ADD SWAP2 POP PUSH1 0x20 DUP6 ADD SWAP5 POP PUSH1 0x20 DUP2 ADD SWAP1 POP PUSH2 0x95C JUMP JUMPDEST DUP7 DUP4 LT ISZERO PUSH2 0x99E JUMPI DUP5 DUP10 ADD MLOAD PUSH2 0x99A PUSH1 0x1F DUP10 AND DUP3 PUSH2 0x8AD JUMP JUMPDEST DUP4 SSTORE POP JUMPDEST PUSH1 0x1 PUSH1 0x2 DUP9 MUL ADD DUP9 SSTORE POP POP POP JUMPDEST POP POP POP POP POP POP JUMP INVALID LOG2 PUSH5 0x6970667358 0x22 SLT KECCAK256 0xE0 0xEE CODESIZE 0xB4 PUSH7 0x5CFE6D62B09094 0xAC CALLCODE 0xD4 CALL PUSH5 0xB7AB977ADD 0xCF CALLVALUE MOD 0xE2 0xD3 BALANCE 0xC0 MLOAD 0x5C 0x5E PUSH5 0x736F6C6343 STOP ADDMOD OR STOP CALLER "
		},
		"gasEstimates": {
			"creation": {
				"codeDepositCost": "507400",
				"executionCost": "541",
				"totalCost": "507941"
			},
			"external": {
				"addNewCampaign(string,string,string,uint256,uint256,uint256)": "infinite",
				"campaignInfoArray(uint256)": "infinite"
			}
		},
		"methodIdentifiers": {
			"addNewCampaign(string,string,string,uint256,uint256,uint256)": "8c3ecab5",
			"campaignInfoArray(uint256)": "057902be"
		}
	},
	"abi": [
		{
			"inputs": [
				{
					"internalType": "string",
					"name": "id",
					"type": "string"
				},
				{
					"internalType": "string",
					"name": "creatorUserName",
					"type": "string"
				},
				{
					"internalType": "string",
					"name": "title",
					"type": "string"
				},
				{
					"internalType": "uint256",
					"name": "currentValue",
					"type": "uint256"
				},
				{
					"internalType": "uint256",
					"name": "targetValue",
					"type": "uint256"
				},
				{
					"internalType": "uint256",
					"name": "endDate",
					"type": "uint256"
				}
			],
			"name": "addNewCampaign",
			"outputs": [],
			"stateMutability": "nonpayable",
			"type": "function"
		},
		{
			"inputs": [
				{
					"internalType": "uint256",
					"name": "",
					"type": "uint256"
				}
			],
			"name": "campaignInfoArray",
			"outputs": [
				{
					"internalType": "string",
					"name": "id",
					"type": "string"
				},
				{
					"internalType": "string",
					"name": "creatorUserName",
					"type": "string"
				},
				{
					"internalType": "string",
					"name": "title",
					"type": "string"
				},
				{
					"internalType": "uint256",
					"name": "currentValue",
					"type": "uint256"
				},
				{
					"internalType": "uint256",
					"name": "targetValue",
					"type": "uint256"
				},
				{
					"internalType": "uint256",
					"name": "endDate",
					"type": "uint256"
				}
			],
			"stateMutability": "view",
			"type": "function"
		}
	]
}