{
	"contracts/TransactionHistory.sol": {
		"TransactionHistory": {
			"abi": [
				{
					"inputs": [
						{
							"internalType": "string",
							"name": "campaignId",
							"type": "string"
						},
						{
							"internalType": "string",
							"name": "donatorId",
							"type": "string"
						},
						{
							"internalType": "address",
							"name": "donatorAddress",
							"type": "address"
						},
						{
							"internalType": "uint256",
							"name": "value",
							"type": "uint256"
						},
						{
							"internalType": "uint256",
							"name": "time",
							"type": "uint256"
						}
					],
					"name": "addNewTransactionHistory",
					"outputs": [],
					"stateMutability": "nonpayable",
					"type": "function"
				},
				{
					"inputs": [],
					"name": "adminAddress",
					"outputs": [
						{
							"internalType": "address",
							"name": "",
							"type": "address"
						}
					],
					"stateMutability": "view",
					"type": "function"
				},
				{
					"inputs": [],
					"name": "campaignAddress",
					"outputs": [
						{
							"internalType": "address",
							"name": "",
							"type": "address"
						}
					],
					"stateMutability": "view",
					"type": "function"
				},
				{
					"inputs": [],
					"name": "getAllTransaction",
					"outputs": [
						{
							"components": [
								{
									"internalType": "string",
									"name": "campaignId",
									"type": "string"
								},
								{
									"internalType": "string",
									"name": "donatorId",
									"type": "string"
								},
								{
									"internalType": "address",
									"name": "donatorAddress",
									"type": "address"
								},
								{
									"internalType": "uint256",
									"name": "value",
									"type": "uint256"
								},
								{
									"internalType": "uint256",
									"name": "time",
									"type": "uint256"
								}
							],
							"internalType": "struct TransactionHistory.TransactionInfo[]",
							"name": "",
							"type": "tuple[]"
						}
					],
					"stateMutability": "view",
					"type": "function"
				},
				{
					"inputs": [
						{
							"internalType": "string",
							"name": "_donatorId",
							"type": "string"
						}
					],
					"name": "getDonateByUser",
					"outputs": [
						{
							"components": [
								{
									"internalType": "string",
									"name": "campaignId",
									"type": "string"
								},
								{
									"internalType": "string",
									"name": "donatorId",
									"type": "string"
								},
								{
									"internalType": "address",
									"name": "donatorAddress",
									"type": "address"
								},
								{
									"internalType": "uint256",
									"name": "value",
									"type": "uint256"
								},
								{
									"internalType": "uint256",
									"name": "time",
									"type": "uint256"
								}
							],
							"internalType": "struct TransactionHistory.TransactionInfo",
							"name": "",
							"type": "tuple"
						}
					],
					"stateMutability": "view",
					"type": "function"
				},
				{
					"inputs": [
						{
							"internalType": "string",
							"name": "_campaignId",
							"type": "string"
						}
					],
					"name": "getTransactionHistoryByCampaignId",
					"outputs": [
						{
							"components": [
								{
									"internalType": "string",
									"name": "campaignId",
									"type": "string"
								},
								{
									"internalType": "string",
									"name": "donatorId",
									"type": "string"
								},
								{
									"internalType": "address",
									"name": "donatorAddress",
									"type": "address"
								},
								{
									"internalType": "uint256",
									"name": "value",
									"type": "uint256"
								},
								{
									"internalType": "uint256",
									"name": "time",
									"type": "uint256"
								}
							],
							"internalType": "struct TransactionHistory.TransactionInfo[]",
							"name": "",
							"type": "tuple[]"
						}
					],
					"stateMutability": "view",
					"type": "function"
				},
				{
					"inputs": [
						{
							"internalType": "address",
							"name": "_donatorAddress",
							"type": "address"
						},
						{
							"internalType": "string",
							"name": "_campaignId",
							"type": "string"
						}
					],
					"name": "isDonatedtoCampaign",
					"outputs": [
						{
							"internalType": "bool",
							"name": "",
							"type": "bool"
						}
					],
					"stateMutability": "view",
					"type": "function"
				},
				{
					"inputs": [
						{
							"internalType": "address",
							"name": "_campaignAddress",
							"type": "address"
						}
					],
					"name": "setCampaignAddress",
					"outputs": [],
					"stateMutability": "nonpayable",
					"type": "function"
				},
				{
					"inputs": [
						{
							"internalType": "uint256",
							"name": "",
							"type": "uint256"
						}
					],
					"name": "transactionInfoArray",
					"outputs": [
						{
							"internalType": "string",
							"name": "campaignId",
							"type": "string"
						},
						{
							"internalType": "string",
							"name": "donatorId",
							"type": "string"
						},
						{
							"internalType": "address",
							"name": "donatorAddress",
							"type": "address"
						},
						{
							"internalType": "uint256",
							"name": "value",
							"type": "uint256"
						},
						{
							"internalType": "uint256",
							"name": "time",
							"type": "uint256"
						}
					],
					"stateMutability": "view",
					"type": "function"
				}
			],
			"devdoc": {
				"kind": "dev",
				"methods": {},
				"version": 1
			},
			"evm": {
				"assembly": "    /* \"contracts/TransactionHistory.sol\":68:3651  contract TransactionHistory {... */\n  mstore(0x40, 0x80)\n    /* \"contracts/TransactionHistory.sol\":133:175  0x5B38Da6a701c568545dCfcB03FcB875f56beddC4 */\n  0x5b38da6a701c568545dcfcb03fcb875f56beddc4\n    /* \"contracts/TransactionHistory.sol\":103:175  address public adminAddress = 0x5B38Da6a701c568545dCfcB03FcB875f56beddC4 */\n  0x00\n  dup1\n  0x0100\n  exp\n  dup2\n  sload\n  dup2\n  0xffffffffffffffffffffffffffffffffffffffff\n  mul\n  not\n  and\n  swap1\n  dup4\n  0xffffffffffffffffffffffffffffffffffffffff\n  and\n  mul\n  or\n  swap1\n  sstore\n  pop\n    /* \"contracts/TransactionHistory.sol\":68:3651  contract TransactionHistory {... */\n  callvalue\n  dup1\n  iszero\n  tag_1\n  jumpi\n  0x00\n  dup1\n  revert\ntag_1:\n  pop\n  dataSize(sub_0)\n  dup1\n  dataOffset(sub_0)\n  0x00\n  codecopy\n  0x00\n  return\nstop\n\nsub_0: assembly {\n        /* \"contracts/TransactionHistory.sol\":68:3651  contract TransactionHistory {... */\n      mstore(0x40, 0x80)\n      callvalue\n      dup1\n      iszero\n      tag_1\n      jumpi\n      0x00\n      dup1\n      revert\n    tag_1:\n      pop\n      jumpi(tag_2, lt(calldatasize, 0x04))\n      shr(0xe0, calldataload(0x00))\n      dup1\n      0xa3306ae3\n      gt\n      tag_12\n      jumpi\n      dup1\n      0xa3306ae3\n      eq\n      tag_7\n      jumpi\n      dup1\n      0xadd6415d\n      eq\n      tag_8\n      jumpi\n      dup1\n      0xd9aa4eb3\n      eq\n      tag_9\n      jumpi\n      dup1\n      0xe3726d66\n      eq\n      tag_10\n      jumpi\n      dup1\n      0xfc6f9468\n      eq\n      tag_11\n      jumpi\n      jump(tag_2)\n    tag_12:\n      dup1\n      0x048fa3a7\n      eq\n      tag_3\n      jumpi\n      dup1\n      0x11765b27\n      eq\n      tag_4\n      jumpi\n      dup1\n      0x92ad672f\n      eq\n      tag_5\n      jumpi\n      dup1\n      0x99b3e96a\n      eq\n      tag_6\n      jumpi\n    tag_2:\n      0x00\n      dup1\n      revert\n        /* \"contracts/TransactionHistory.sol\":2201:2899  function isDonatedtoCampaign(... */\n    tag_3:\n      tag_13\n      0x04\n      dup1\n      calldatasize\n      sub\n      dup2\n      add\n      swap1\n      tag_14\n      swap2\n      swap1\n      tag_15\n      jump\t// in\n    tag_14:\n      tag_16\n      jump\t// in\n    tag_13:\n      mload(0x40)\n      tag_17\n      swap2\n      swap1\n      tag_18\n      jump\t// in\n    tag_17:\n      mload(0x40)\n      dup1\n      swap2\n      sub\n      swap1\n      return\n        /* \"contracts/TransactionHistory.sol\":182:212  address public campaignAddress */\n    tag_4:\n      tag_19\n      tag_20\n      jump\t// in\n    tag_19:\n      mload(0x40)\n      tag_21\n      swap2\n      swap1\n      tag_22\n      jump\t// in\n    tag_21:\n      mload(0x40)\n      dup1\n      swap2\n      sub\n      swap1\n      return\n        /* \"contracts/TransactionHistory.sol\":390:435  TransactionInfo[] public transactionInfoArray */\n    tag_5:\n      tag_23\n      0x04\n      dup1\n      calldatasize\n      sub\n      dup2\n      add\n      swap1\n      tag_24\n      swap2\n      swap1\n      tag_25\n      jump\t// in\n    tag_24:\n      tag_26\n      jump\t// in\n    tag_23:\n      mload(0x40)\n      tag_27\n      swap6\n      swap5\n      swap4\n      swap3\n      swap2\n      swap1\n      tag_28\n      jump\t// in\n    tag_27:\n      mload(0x40)\n      dup1\n      swap2\n      sub\n      swap1\n      return\n        /* \"contracts/TransactionHistory.sol\":2907:3648  function getTransactionHistoryByCampaignId(... */\n    tag_6:\n      tag_29\n      0x04\n      dup1\n      calldatasize\n      sub\n      dup2\n      add\n      swap1\n      tag_30\n      swap2\n      swap1\n      tag_31\n      jump\t// in\n    tag_30:\n      tag_32\n      jump\t// in\n    tag_29:\n      mload(0x40)\n      tag_33\n      swap2\n      swap1\n      tag_34\n      jump\t// in\n    tag_33:\n      mload(0x40)\n      dup1\n      swap2\n      sub\n      swap1\n      return\n        /* \"contracts/TransactionHistory.sol\":1547:1694  function setCampaignAddress(... */\n    tag_7:\n      tag_35\n      0x04\n      dup1\n      calldatasize\n      sub\n      dup2\n      add\n      swap1\n      tag_36\n      swap2\n      swap1\n      tag_37\n      jump\t// in\n    tag_36:\n      tag_38\n      jump\t// in\n    tag_35:\n      stop\n        /* \"contracts/TransactionHistory.sol\":1383:1539  function getAllTransaction()... */\n    tag_8:\n      tag_39\n      tag_40\n      jump\t// in\n    tag_39:\n      mload(0x40)\n      tag_41\n      swap2\n      swap1\n      tag_34\n      jump\t// in\n    tag_41:\n      mload(0x40)\n      dup1\n      swap2\n      sub\n      swap1\n      return\n        /* \"contracts/TransactionHistory.sol\":819:1375  function addNewTransactionHistory(... */\n    tag_9:\n      tag_42\n      0x04\n      dup1\n      calldatasize\n      sub\n      dup2\n      add\n      swap1\n      tag_43\n      swap2\n      swap1\n      tag_44\n      jump\t// in\n    tag_43:\n      tag_45\n      jump\t// in\n    tag_42:\n      stop\n        /* \"contracts/TransactionHistory.sol\":1702:2193  function getDonateByUser(... */\n    tag_10:\n      tag_46\n      0x04\n      dup1\n      calldatasize\n      sub\n      dup2\n      add\n      swap1\n      tag_47\n      swap2\n      swap1\n      tag_31\n      jump\t// in\n    tag_47:\n      tag_48\n      jump\t// in\n    tag_46:\n      mload(0x40)\n      tag_49\n      swap2\n      swap1\n      tag_50\n      jump\t// in\n    tag_49:\n      mload(0x40)\n      dup1\n      swap2\n      sub\n      swap1\n      return\n        /* \"contracts/TransactionHistory.sol\":103:175  address public adminAddress = 0x5B38Da6a701c568545dCfcB03FcB875f56beddC4 */\n    tag_11:\n      tag_51\n      tag_52\n      jump\t// in\n    tag_51:\n      mload(0x40)\n      tag_53\n      swap2\n      swap1\n      tag_22\n      jump\t// in\n    tag_53:\n      mload(0x40)\n      dup1\n      swap2\n      sub\n      swap1\n      return\n        /* \"contracts/TransactionHistory.sol\":2201:2899  function isDonatedtoCampaign(... */\n    tag_16:\n        /* \"contracts/TransactionHistory.sol\":2328:2332  bool */\n      0x00\n        /* \"contracts/TransactionHistory.sol\":2350:2356  uint i */\n      dup1\n        /* \"contracts/TransactionHistory.sol\":2359:2360  0 */\n      0x00\n        /* \"contracts/TransactionHistory.sol\":2350:2360  uint i = 0 */\n      swap1\n      pop\n        /* \"contracts/TransactionHistory.sol\":2345:2867  for (uint i = 0; i < transactionInfoArray.length; i++) {... */\n    tag_55:\n        /* \"contracts/TransactionHistory.sol\":2366:2386  transactionInfoArray */\n      0x02\n        /* \"contracts/TransactionHistory.sol\":2366:2393  transactionInfoArray.length */\n      dup1\n      sload\n      swap1\n      pop\n        /* \"contracts/TransactionHistory.sol\":2362:2363  i */\n      dup2\n        /* \"contracts/TransactionHistory.sol\":2362:2393  i < transactionInfoArray.length */\n      lt\n        /* \"contracts/TransactionHistory.sol\":2345:2867  for (uint i = 0; i < transactionInfoArray.length; i++) {... */\n      iszero\n      tag_56\n      jumpi\n        /* \"contracts/TransactionHistory.sol\":2592:2607  _donatorAddress */\n      dup4\n        /* \"contracts/TransactionHistory.sol\":2575:2608  abi.encodePacked(_donatorAddress) */\n      add(0x20, mload(0x40))\n      tag_58\n      swap2\n      swap1\n      tag_59\n      jump\t// in\n    tag_58:\n      mload(0x40)\n      0x20\n      dup2\n      dup4\n      sub\n      sub\n      dup2\n      mstore\n      swap1\n      0x40\n      mstore\n        /* \"contracts/TransactionHistory.sol\":2565:2609  keccak256(abi.encodePacked(_donatorAddress)) */\n      dup1\n      mload\n      swap1\n      0x20\n      add\n      keccak256\n        /* \"contracts/TransactionHistory.sol\":2486:2506  transactionInfoArray */\n      0x02\n        /* \"contracts/TransactionHistory.sol\":2507:2508  i */\n      dup3\n        /* \"contracts/TransactionHistory.sol\":2486:2509  transactionInfoArray[i] */\n      dup2\n      sload\n      dup2\n      lt\n      tag_60\n      jumpi\n      tag_61\n      tag_62\n      jump\t// in\n    tag_61:\n    tag_60:\n      swap1\n      0x00\n      mstore\n      keccak256(0x00, 0x20)\n      swap1\n      0x05\n      mul\n      add\n        /* \"contracts/TransactionHistory.sol\":2486:2524  transactionInfoArray[i].donatorAddress */\n      0x02\n      add\n      0x00\n      swap1\n      sload\n      swap1\n      0x0100\n      exp\n      swap1\n      div\n      0xffffffffffffffffffffffffffffffffffffffff\n      and\n        /* \"contracts/TransactionHistory.sol\":2469:2525  abi.encodePacked(transactionInfoArray[i].donatorAddress) */\n      add(0x20, mload(0x40))\n      tag_64\n      swap2\n      swap1\n      tag_59\n      jump\t// in\n    tag_64:\n      mload(0x40)\n      0x20\n      dup2\n      dup4\n      sub\n      sub\n      dup2\n      mstore\n      swap1\n      0x40\n      mstore\n        /* \"contracts/TransactionHistory.sol\":2437:2544  keccak256(... */\n      dup1\n      mload\n      swap1\n      0x20\n      add\n      keccak256\n        /* \"contracts/TransactionHistory.sol\":2437:2609  keccak256(... */\n      eq\n        /* \"contracts/TransactionHistory.sol\":2437:2794  keccak256(... */\n      dup1\n      iszero\n      tag_65\n      jumpi\n      pop\n        /* \"contracts/TransactionHistory.sol\":2781:2792  _campaignId */\n      dup3\n        /* \"contracts/TransactionHistory.sol\":2764:2793  abi.encodePacked(_campaignId) */\n      add(0x20, mload(0x40))\n      tag_66\n      swap2\n      swap1\n      tag_67\n      jump\t// in\n    tag_66:\n      mload(0x40)\n      0x20\n      dup2\n      dup4\n      sub\n      sub\n      dup2\n      mstore\n      swap1\n      0x40\n      mstore\n        /* \"contracts/TransactionHistory.sol\":2754:2794  keccak256(abi.encodePacked(_campaignId)) */\n      dup1\n      mload\n      swap1\n      0x20\n      add\n      keccak256\n        /* \"contracts/TransactionHistory.sol\":2679:2699  transactionInfoArray */\n      0x02\n        /* \"contracts/TransactionHistory.sol\":2700:2701  i */\n      dup3\n        /* \"contracts/TransactionHistory.sol\":2679:2702  transactionInfoArray[i] */\n      dup2\n      sload\n      dup2\n      lt\n      tag_68\n      jumpi\n      tag_69\n      tag_62\n      jump\t// in\n    tag_69:\n    tag_68:\n      swap1\n      0x00\n      mstore\n      keccak256(0x00, 0x20)\n      swap1\n      0x05\n      mul\n      add\n        /* \"contracts/TransactionHistory.sol\":2679:2713  transactionInfoArray[i].campaignId */\n      0x00\n      add\n        /* \"contracts/TransactionHistory.sol\":2662:2714  abi.encodePacked(transactionInfoArray[i].campaignId) */\n      add(0x20, mload(0x40))\n      tag_71\n      swap2\n      swap1\n      tag_72\n      jump\t// in\n    tag_71:\n      mload(0x40)\n      0x20\n      dup2\n      dup4\n      sub\n      sub\n      dup2\n      mstore\n      swap1\n      0x40\n      mstore\n        /* \"contracts/TransactionHistory.sol\":2630:2733  keccak256(... */\n      dup1\n      mload\n      swap1\n      0x20\n      add\n      keccak256\n        /* \"contracts/TransactionHistory.sol\":2630:2794  keccak256(... */\n      eq\n        /* \"contracts/TransactionHistory.sol\":2437:2794  keccak256(... */\n    tag_65:\n        /* \"contracts/TransactionHistory.sol\":2415:2856  if (... */\n      iszero\n      tag_73\n      jumpi\n        /* \"contracts/TransactionHistory.sol\":2836:2840  true */\n      0x01\n        /* \"contracts/TransactionHistory.sol\":2829:2840  return true */\n      swap2\n      pop\n      pop\n      jump(tag_54)\n        /* \"contracts/TransactionHistory.sol\":2415:2856  if (... */\n    tag_73:\n        /* \"contracts/TransactionHistory.sol\":2395:2398  i++ */\n      dup1\n      dup1\n      0x01\n      add\n      swap2\n      pop\n      pop\n        /* \"contracts/TransactionHistory.sol\":2345:2867  for (uint i = 0; i < transactionInfoArray.length; i++) {... */\n      jump(tag_55)\n    tag_56:\n      pop\n        /* \"contracts/TransactionHistory.sol\":2886:2891  false */\n      0x00\n        /* \"contracts/TransactionHistory.sol\":2879:2891  return false */\n      swap1\n      pop\n        /* \"contracts/TransactionHistory.sol\":2201:2899  function isDonatedtoCampaign(... */\n    tag_54:\n      swap3\n      swap2\n      pop\n      pop\n      jump\t// out\n        /* \"contracts/TransactionHistory.sol\":182:212  address public campaignAddress */\n    tag_20:\n      0x01\n      0x00\n      swap1\n      sload\n      swap1\n      0x0100\n      exp\n      swap1\n      div\n      0xffffffffffffffffffffffffffffffffffffffff\n      and\n      dup2\n      jump\t// out\n        /* \"contracts/TransactionHistory.sol\":390:435  TransactionInfo[] public transactionInfoArray */\n    tag_26:\n      0x02\n      dup2\n      dup2\n      sload\n      dup2\n      lt\n      tag_74\n      jumpi\n      0x00\n      dup1\n      revert\n    tag_74:\n      swap1\n      0x00\n      mstore\n      keccak256(0x00, 0x20)\n      swap1\n      0x05\n      mul\n      add\n      0x00\n      swap2\n      pop\n      swap1\n      pop\n      dup1\n      0x00\n      add\n      dup1\n      sload\n      tag_76\n      swap1\n      tag_77\n      jump\t// in\n    tag_76:\n      dup1\n      0x1f\n      add\n      0x20\n      dup1\n      swap2\n      div\n      mul\n      0x20\n      add\n      mload(0x40)\n      swap1\n      dup2\n      add\n      0x40\n      mstore\n      dup1\n      swap3\n      swap2\n      swap1\n      dup2\n      dup2\n      mstore\n      0x20\n      add\n      dup3\n      dup1\n      sload\n      tag_78\n      swap1\n      tag_77\n      jump\t// in\n    tag_78:\n      dup1\n      iszero\n      tag_79\n      jumpi\n      dup1\n      0x1f\n      lt\n      tag_80\n      jumpi\n      0x0100\n      dup1\n      dup4\n      sload\n      div\n      mul\n      dup4\n      mstore\n      swap2\n      0x20\n      add\n      swap2\n      jump(tag_79)\n    tag_80:\n      dup3\n      add\n      swap2\n      swap1\n      0x00\n      mstore\n      keccak256(0x00, 0x20)\n      swap1\n    tag_81:\n      dup2\n      sload\n      dup2\n      mstore\n      swap1\n      0x01\n      add\n      swap1\n      0x20\n      add\n      dup1\n      dup4\n      gt\n      tag_81\n      jumpi\n      dup3\n      swap1\n      sub\n      0x1f\n      and\n      dup3\n      add\n      swap2\n    tag_79:\n      pop\n      pop\n      pop\n      pop\n      pop\n      swap1\n      dup1\n      0x01\n      add\n      dup1\n      sload\n      tag_82\n      swap1\n      tag_77\n      jump\t// in\n    tag_82:\n      dup1\n      0x1f\n      add\n      0x20\n      dup1\n      swap2\n      div\n      mul\n      0x20\n      add\n      mload(0x40)\n      swap1\n      dup2\n      add\n      0x40\n      mstore\n      dup1\n      swap3\n      swap2\n      swap1\n      dup2\n      dup2\n      mstore\n      0x20\n      add\n      dup3\n      dup1\n      sload\n      tag_83\n      swap1\n      tag_77\n      jump\t// in\n    tag_83:\n      dup1\n      iszero\n      tag_84\n      jumpi\n      dup1\n      0x1f\n      lt\n      tag_85\n      jumpi\n      0x0100\n      dup1\n      dup4\n      sload\n      div\n      mul\n      dup4\n      mstore\n      swap2\n      0x20\n      add\n      swap2\n      jump(tag_84)\n    tag_85:\n      dup3\n      add\n      swap2\n      swap1\n      0x00\n      mstore\n      keccak256(0x00, 0x20)\n      swap1\n    tag_86:\n      dup2\n      sload\n      dup2\n      mstore\n      swap1\n      0x01\n      add\n      swap1\n      0x20\n      add\n      dup1\n      dup4\n      gt\n      tag_86\n      jumpi\n      dup3\n      swap1\n      sub\n      0x1f\n      and\n      dup3\n      add\n      swap2\n    tag_84:\n      pop\n      pop\n      pop\n      pop\n      pop\n      swap1\n      dup1\n      0x02\n      add\n      0x00\n      swap1\n      sload\n      swap1\n      0x0100\n      exp\n      swap1\n      div\n      0xffffffffffffffffffffffffffffffffffffffff\n      and\n      swap1\n      dup1\n      0x03\n      add\n      sload\n      swap1\n      dup1\n      0x04\n      add\n      sload\n      swap1\n      pop\n      dup6\n      jump\t// out\n        /* \"contracts/TransactionHistory.sol\":2907:3648  function getTransactionHistoryByCampaignId(... */\n    tag_32:\n        /* \"contracts/TransactionHistory.sol\":3014:3038  TransactionInfo[] memory */\n      0x60\n        /* \"contracts/TransactionHistory.sol\":3051:3100  TransactionInfo[] memory returnTransactionInfoArr */\n      0x00\n        /* \"contracts/TransactionHistory.sol\":3139:3159  transactionInfoArray */\n      0x02\n        /* \"contracts/TransactionHistory.sol\":3139:3166  transactionInfoArray.length */\n      dup1\n      sload\n      swap1\n      pop\n        /* \"contracts/TransactionHistory.sol\":3103:3177  new TransactionInfo[](... */\n      0xffffffffffffffff\n      dup2\n      gt\n      iszero\n      tag_88\n      jumpi\n      tag_89\n      tag_90\n      jump\t// in\n    tag_89:\n    tag_88:\n      mload(0x40)\n      swap1\n      dup1\n      dup3\n      mstore\n      dup1\n      0x20\n      mul\n      0x20\n      add\n      dup3\n      add\n      0x40\n      mstore\n      dup1\n      iszero\n      tag_91\n      jumpi\n      dup2\n      0x20\n      add\n    tag_92:\n      tag_93\n      tag_94\n      jump\t// in\n    tag_93:\n      dup2\n      mstore\n      0x20\n      add\n      swap1\n      0x01\n      swap1\n      sub\n      swap1\n      dup2\n      tag_92\n      jumpi\n      swap1\n      pop\n    tag_91:\n      pop\n        /* \"contracts/TransactionHistory.sol\":3051:3177  TransactionInfo[] memory returnTransactionInfoArr = new TransactionInfo[](... */\n      swap1\n      pop\n        /* \"contracts/TransactionHistory.sol\":3190:3200  uint count */\n      0x00\n        /* \"contracts/TransactionHistory.sol\":3222:3228  uint i */\n      dup1\n        /* \"contracts/TransactionHistory.sol\":3217:3597  for (uint i = 0; i < transactionInfoArray.length; i++) {... */\n    tag_95:\n        /* \"contracts/TransactionHistory.sol\":3238:3258  transactionInfoArray */\n      0x02\n        /* \"contracts/TransactionHistory.sol\":3238:3265  transactionInfoArray.length */\n      dup1\n      sload\n      swap1\n      pop\n        /* \"contracts/TransactionHistory.sol\":3234:3235  i */\n      dup2\n        /* \"contracts/TransactionHistory.sol\":3234:3265  i < transactionInfoArray.length */\n      lt\n        /* \"contracts/TransactionHistory.sol\":3217:3597  for (uint i = 0; i < transactionInfoArray.length; i++) {... */\n      iszero\n      tag_96\n      jumpi\n        /* \"contracts/TransactionHistory.sol\":3443:3454  _campaignId */\n      dup5\n        /* \"contracts/TransactionHistory.sol\":3426:3455  abi.encodePacked(_campaignId) */\n      add(0x20, mload(0x40))\n      tag_98\n      swap2\n      swap1\n      tag_67\n      jump\t// in\n    tag_98:\n      mload(0x40)\n      0x20\n      dup2\n      dup4\n      sub\n      sub\n      dup2\n      mstore\n      swap1\n      0x40\n      mstore\n        /* \"contracts/TransactionHistory.sol\":3416:3456  keccak256(abi.encodePacked(_campaignId)) */\n      dup1\n      mload\n      swap1\n      0x20\n      add\n      keccak256\n        /* \"contracts/TransactionHistory.sol\":3358:3378  transactionInfoArray */\n      0x02\n        /* \"contracts/TransactionHistory.sol\":3379:3380  i */\n      dup3\n        /* \"contracts/TransactionHistory.sol\":3358:3381  transactionInfoArray[i] */\n      dup2\n      sload\n      dup2\n      lt\n      tag_99\n      jumpi\n      tag_100\n      tag_62\n      jump\t// in\n    tag_100:\n    tag_99:\n      swap1\n      0x00\n      mstore\n      keccak256(0x00, 0x20)\n      swap1\n      0x05\n      mul\n      add\n        /* \"contracts/TransactionHistory.sol\":3358:3392  transactionInfoArray[i].campaignId */\n      0x00\n      add\n        /* \"contracts/TransactionHistory.sol\":3341:3393  abi.encodePacked(transactionInfoArray[i].campaignId) */\n      add(0x20, mload(0x40))\n      tag_102\n      swap2\n      swap1\n      tag_72\n      jump\t// in\n    tag_102:\n      mload(0x40)\n      0x20\n      dup2\n      dup4\n      sub\n      sub\n      dup2\n      mstore\n      swap1\n      0x40\n      mstore\n        /* \"contracts/TransactionHistory.sol\":3309:3412  keccak256(... */\n      dup1\n      mload\n      swap1\n      0x20\n      add\n      keccak256\n        /* \"contracts/TransactionHistory.sol\":3309:3456  keccak256(... */\n      sub\n        /* \"contracts/TransactionHistory.sol\":3287:3586  if (... */\n      tag_103\n      jumpi\n        /* \"contracts/TransactionHistory.sol\":3521:3541  transactionInfoArray */\n      0x02\n        /* \"contracts/TransactionHistory.sol\":3542:3543  i */\n      dup2\n        /* \"contracts/TransactionHistory.sol\":3521:3544  transactionInfoArray[i] */\n      dup2\n      sload\n      dup2\n      lt\n      tag_104\n      jumpi\n      tag_105\n      tag_62\n      jump\t// in\n    tag_105:\n    tag_104:\n      swap1\n      0x00\n      mstore\n      keccak256(0x00, 0x20)\n      swap1\n      0x05\n      mul\n      add\n        /* \"contracts/TransactionHistory.sol\":3491:3544  returnTransactionInfoArr[i] = transactionInfoArray[i] */\n      mload(0x40)\n      dup1\n      0xa0\n      add\n      0x40\n      mstore\n      swap1\n      dup2\n      0x00\n      dup3\n      add\n      dup1\n      sload\n      tag_107\n      swap1\n      tag_77\n      jump\t// in\n    tag_107:\n      dup1\n      0x1f\n      add\n      0x20\n      dup1\n      swap2\n      div\n      mul\n      0x20\n      add\n      mload(0x40)\n      swap1\n      dup2\n      add\n      0x40\n      mstore\n      dup1\n      swap3\n      swap2\n      swap1\n      dup2\n      dup2\n      mstore\n      0x20\n      add\n      dup3\n      dup1\n      sload\n      tag_108\n      swap1\n      tag_77\n      jump\t// in\n    tag_108:\n      dup1\n      iszero\n      tag_109\n      jumpi\n      dup1\n      0x1f\n      lt\n      tag_110\n      jumpi\n      0x0100\n      dup1\n      dup4\n      sload\n      div\n      mul\n      dup4\n      mstore\n      swap2\n      0x20\n      add\n      swap2\n      jump(tag_109)\n    tag_110:\n      dup3\n      add\n      swap2\n      swap1\n      0x00\n      mstore\n      keccak256(0x00, 0x20)\n      swap1\n    tag_111:\n      dup2\n      sload\n      dup2\n      mstore\n      swap1\n      0x01\n      add\n      swap1\n      0x20\n      add\n      dup1\n      dup4\n      gt\n      tag_111\n      jumpi\n      dup3\n      swap1\n      sub\n      0x1f\n      and\n      dup3\n      add\n      swap2\n    tag_109:\n      pop\n      pop\n      pop\n      pop\n      pop\n      dup2\n      mstore\n      0x20\n      add\n      0x01\n      dup3\n      add\n      dup1\n      sload\n      tag_112\n      swap1\n      tag_77\n      jump\t// in\n    tag_112:\n      dup1\n      0x1f\n      add\n      0x20\n      dup1\n      swap2\n      div\n      mul\n      0x20\n      add\n      mload(0x40)\n      swap1\n      dup2\n      add\n      0x40\n      mstore\n      dup1\n      swap3\n      swap2\n      swap1\n      dup2\n      dup2\n      mstore\n      0x20\n      add\n      dup3\n      dup1\n      sload\n      tag_113\n      swap1\n      tag_77\n      jump\t// in\n    tag_113:\n      dup1\n      iszero\n      tag_114\n      jumpi\n      dup1\n      0x1f\n      lt\n      tag_115\n      jumpi\n      0x0100\n      dup1\n      dup4\n      sload\n      div\n      mul\n      dup4\n      mstore\n      swap2\n      0x20\n      add\n      swap2\n      jump(tag_114)\n    tag_115:\n      dup3\n      add\n      swap2\n      swap1\n      0x00\n      mstore\n      keccak256(0x00, 0x20)\n      swap1\n    tag_116:\n      dup2\n      sload\n      dup2\n      mstore\n      swap1\n      0x01\n      add\n      swap1\n      0x20\n      add\n      dup1\n      dup4\n      gt\n      tag_116\n      jumpi\n      dup3\n      swap1\n      sub\n      0x1f\n      and\n      dup3\n      add\n      swap2\n    tag_114:\n      pop\n      pop\n      pop\n      pop\n      pop\n      dup2\n      mstore\n      0x20\n      add\n      0x02\n      dup3\n      add\n      0x00\n      swap1\n      sload\n      swap1\n      0x0100\n      exp\n      swap1\n      div\n      0xffffffffffffffffffffffffffffffffffffffff\n      and\n      0xffffffffffffffffffffffffffffffffffffffff\n      and\n      0xffffffffffffffffffffffffffffffffffffffff\n      and\n      dup2\n      mstore\n      0x20\n      add\n      0x03\n      dup3\n      add\n      sload\n      dup2\n      mstore\n      0x20\n      add\n      0x04\n      dup3\n      add\n      sload\n      dup2\n      mstore\n      pop\n      pop\n        /* \"contracts/TransactionHistory.sol\":3491:3515  returnTransactionInfoArr */\n      dup4\n        /* \"contracts/TransactionHistory.sol\":3516:3517  i */\n      dup3\n        /* \"contracts/TransactionHistory.sol\":3491:3518  returnTransactionInfoArr[i] */\n      dup2\n      mload\n      dup2\n      lt\n      tag_117\n      jumpi\n      tag_118\n      tag_62\n      jump\t// in\n    tag_118:\n    tag_117:\n      0x20\n      mul\n      0x20\n      add\n      add\n        /* \"contracts/TransactionHistory.sol\":3491:3544  returnTransactionInfoArr[i] = transactionInfoArray[i] */\n      dup2\n      swap1\n      mstore\n      pop\n        /* \"contracts/TransactionHistory.sol\":3563:3570  count++ */\n      dup2\n      dup1\n      tag_119\n      swap1\n      tag_120\n      jump\t// in\n    tag_119:\n      swap3\n      pop\n      pop\n        /* \"contracts/TransactionHistory.sol\":3287:3586  if (... */\n    tag_103:\n        /* \"contracts/TransactionHistory.sol\":3267:3270  i++ */\n      dup1\n      dup1\n      0x01\n      add\n      swap2\n      pop\n      pop\n        /* \"contracts/TransactionHistory.sol\":3217:3597  for (uint i = 0; i < transactionInfoArray.length; i++) {... */\n      jump(tag_95)\n    tag_96:\n      pop\n        /* \"contracts/TransactionHistory.sol\":3616:3640  returnTransactionInfoArr */\n      dup2\n        /* \"contracts/TransactionHistory.sol\":3609:3640  return returnTransactionInfoArr */\n      swap3\n      pop\n      pop\n      pop\n        /* \"contracts/TransactionHistory.sol\":2907:3648  function getTransactionHistoryByCampaignId(... */\n      swap2\n      swap1\n      pop\n      jump\t// out\n        /* \"contracts/TransactionHistory.sol\":1547:1694  function setCampaignAddress(... */\n    tag_38:\n        /* \"contracts/TransactionHistory.sol\":710:722  adminAddress */\n      0x00\n      dup1\n      sload\n      swap1\n      0x0100\n      exp\n      swap1\n      div\n      0xffffffffffffffffffffffffffffffffffffffff\n      and\n        /* \"contracts/TransactionHistory.sol\":696:722  msg.sender == adminAddress */\n      0xffffffffffffffffffffffffffffffffffffffff\n      and\n        /* \"contracts/TransactionHistory.sol\":696:706  msg.sender */\n      caller\n        /* \"contracts/TransactionHistory.sol\":696:722  msg.sender == adminAddress */\n      0xffffffffffffffffffffffffffffffffffffffff\n      and\n      eq\n        /* \"contracts/TransactionHistory.sol\":674:791  require(... */\n      tag_122\n      jumpi\n      mload(0x40)\n      0x08c379a000000000000000000000000000000000000000000000000000000000\n      dup2\n      mstore\n      0x04\n      add\n      tag_123\n      swap1\n      tag_124\n      jump\t// in\n    tag_123:\n      mload(0x40)\n      dup1\n      swap2\n      sub\n      swap1\n      revert\n    tag_122:\n        /* \"contracts/TransactionHistory.sol\":1670:1686  _campaignAddress */\n      dup1\n        /* \"contracts/TransactionHistory.sol\":1652:1667  campaignAddress */\n      0x01\n      0x00\n        /* \"contracts/TransactionHistory.sol\":1652:1686  campaignAddress = _campaignAddress */\n      0x0100\n      exp\n      dup2\n      sload\n      dup2\n      0xffffffffffffffffffffffffffffffffffffffff\n      mul\n      not\n      and\n      swap1\n      dup4\n      0xffffffffffffffffffffffffffffffffffffffff\n      and\n      mul\n      or\n      swap1\n      sstore\n      pop\n        /* \"contracts/TransactionHistory.sol\":1547:1694  function setCampaignAddress(... */\n      pop\n      jump\t// out\n        /* \"contracts/TransactionHistory.sol\":1383:1539  function getAllTransaction()... */\n    tag_40:\n        /* \"contracts/TransactionHistory.sol\":1462:1486  TransactionInfo[] memory */\n      0x60\n        /* \"contracts/TransactionHistory.sol\":1511:1531  transactionInfoArray */\n      0x02\n        /* \"contracts/TransactionHistory.sol\":1504:1531  return transactionInfoArray */\n      dup1\n      sload\n      dup1\n      0x20\n      mul\n      0x20\n      add\n      mload(0x40)\n      swap1\n      dup2\n      add\n      0x40\n      mstore\n      dup1\n      swap3\n      swap2\n      swap1\n      dup2\n      dup2\n      mstore\n      0x20\n      add\n      0x00\n      swap1\n    tag_127:\n      dup3\n      dup3\n      lt\n      iszero\n      tag_128\n      jumpi\n      dup4\n      dup3\n      swap1\n      0x00\n      mstore\n      keccak256(0x00, 0x20)\n      swap1\n      0x05\n      mul\n      add\n      mload(0x40)\n      dup1\n      0xa0\n      add\n      0x40\n      mstore\n      swap1\n      dup2\n      0x00\n      dup3\n      add\n      dup1\n      sload\n      tag_130\n      swap1\n      tag_77\n      jump\t// in\n    tag_130:\n      dup1\n      0x1f\n      add\n      0x20\n      dup1\n      swap2\n      div\n      mul\n      0x20\n      add\n      mload(0x40)\n      swap1\n      dup2\n      add\n      0x40\n      mstore\n      dup1\n      swap3\n      swap2\n      swap1\n      dup2\n      dup2\n      mstore\n      0x20\n      add\n      dup3\n      dup1\n      sload\n      tag_131\n      swap1\n      tag_77\n      jump\t// in\n    tag_131:\n      dup1\n      iszero\n      tag_132\n      jumpi\n      dup1\n      0x1f\n      lt\n      tag_133\n      jumpi\n      0x0100\n      dup1\n      dup4\n      sload\n      div\n      mul\n      dup4\n      mstore\n      swap2\n      0x20\n      add\n      swap2\n      jump(tag_132)\n    tag_133:\n      dup3\n      add\n      swap2\n      swap1\n      0x00\n      mstore\n      keccak256(0x00, 0x20)\n      swap1\n    tag_134:\n      dup2\n      sload\n      dup2\n      mstore\n      swap1\n      0x01\n      add\n      swap1\n      0x20\n      add\n      dup1\n      dup4\n      gt\n      tag_134\n      jumpi\n      dup3\n      swap1\n      sub\n      0x1f\n      and\n      dup3\n      add\n      swap2\n    tag_132:\n      pop\n      pop\n      pop\n      pop\n      pop\n      dup2\n      mstore\n      0x20\n      add\n      0x01\n      dup3\n      add\n      dup1\n      sload\n      tag_135\n      swap1\n      tag_77\n      jump\t// in\n    tag_135:\n      dup1\n      0x1f\n      add\n      0x20\n      dup1\n      swap2\n      div\n      mul\n      0x20\n      add\n      mload(0x40)\n      swap1\n      dup2\n      add\n      0x40\n      mstore\n      dup1\n      swap3\n      swap2\n      swap1\n      dup2\n      dup2\n      mstore\n      0x20\n      add\n      dup3\n      dup1\n      sload\n      tag_136\n      swap1\n      tag_77\n      jump\t// in\n    tag_136:\n      dup1\n      iszero\n      tag_137\n      jumpi\n      dup1\n      0x1f\n      lt\n      tag_138\n      jumpi\n      0x0100\n      dup1\n      dup4\n      sload\n      div\n      mul\n      dup4\n      mstore\n      swap2\n      0x20\n      add\n      swap2\n      jump(tag_137)\n    tag_138:\n      dup3\n      add\n      swap2\n      swap1\n      0x00\n      mstore\n      keccak256(0x00, 0x20)\n      swap1\n    tag_139:\n      dup2\n      sload\n      dup2\n      mstore\n      swap1\n      0x01\n      add\n      swap1\n      0x20\n      add\n      dup1\n      dup4\n      gt\n      tag_139\n      jumpi\n      dup3\n      swap1\n      sub\n      0x1f\n      and\n      dup3\n      add\n      swap2\n    tag_137:\n      pop\n      pop\n      pop\n      pop\n      pop\n      dup2\n      mstore\n      0x20\n      add\n      0x02\n      dup3\n      add\n      0x00\n      swap1\n      sload\n      swap1\n      0x0100\n      exp\n      swap1\n      div\n      0xffffffffffffffffffffffffffffffffffffffff\n      and\n      0xffffffffffffffffffffffffffffffffffffffff\n      and\n      0xffffffffffffffffffffffffffffffffffffffff\n      and\n      dup2\n      mstore\n      0x20\n      add\n      0x03\n      dup3\n      add\n      sload\n      dup2\n      mstore\n      0x20\n      add\n      0x04\n      dup3\n      add\n      sload\n      dup2\n      mstore\n      pop\n      pop\n      dup2\n      mstore\n      0x20\n      add\n      swap1\n      0x01\n      add\n      swap1\n      jump(tag_127)\n    tag_128:\n      pop\n      pop\n      pop\n      pop\n      swap1\n      pop\n        /* \"contracts/TransactionHistory.sol\":1383:1539  function getAllTransaction()... */\n      swap1\n      jump\t// out\n        /* \"contracts/TransactionHistory.sol\":819:1375  function addNewTransactionHistory(... */\n    tag_45:\n        /* \"contracts/TransactionHistory.sol\":523:538  campaignAddress */\n      0x01\n      0x00\n      swap1\n      sload\n      swap1\n      0x0100\n      exp\n      swap1\n      div\n      0xffffffffffffffffffffffffffffffffffffffff\n      and\n        /* \"contracts/TransactionHistory.sol\":509:538  msg.sender == campaignAddress */\n      0xffffffffffffffffffffffffffffffffffffffff\n      and\n        /* \"contracts/TransactionHistory.sol\":509:519  msg.sender */\n      caller\n        /* \"contracts/TransactionHistory.sol\":509:538  msg.sender == campaignAddress */\n      0xffffffffffffffffffffffffffffffffffffffff\n      and\n      eq\n        /* \"contracts/TransactionHistory.sol\":487:607  require(... */\n      tag_141\n      jumpi\n      mload(0x40)\n      0x08c379a000000000000000000000000000000000000000000000000000000000\n      dup2\n      mstore\n      0x04\n      add\n      tag_142\n      swap1\n      tag_124\n      jump\t// in\n    tag_142:\n      mload(0x40)\n      dup1\n      swap2\n      sub\n      swap1\n      revert\n    tag_141:\n        /* \"contracts/TransactionHistory.sol\":1047:1084  TransactionInfo memory newTransaction */\n      tag_144\n      tag_94\n      jump\t// in\n    tag_144:\n        /* \"contracts/TransactionHistory.sol\":1123:1133  campaignId */\n      dup6\n        /* \"contracts/TransactionHistory.sol\":1095:1109  newTransaction */\n      dup2\n        /* \"contracts/TransactionHistory.sol\":1095:1120  newTransaction.campaignId */\n      0x00\n      add\n        /* \"contracts/TransactionHistory.sol\":1095:1133  newTransaction.campaignId = campaignId */\n      dup2\n      swap1\n      mstore\n      pop\n        /* \"contracts/TransactionHistory.sol\":1171:1180  donatorId */\n      dup5\n        /* \"contracts/TransactionHistory.sol\":1144:1158  newTransaction */\n      dup2\n        /* \"contracts/TransactionHistory.sol\":1144:1168  newTransaction.donatorId */\n      0x20\n      add\n        /* \"contracts/TransactionHistory.sol\":1144:1180  newTransaction.donatorId = donatorId */\n      dup2\n      swap1\n      mstore\n      pop\n        /* \"contracts/TransactionHistory.sol\":1223:1237  donatorAddress */\n      dup4\n        /* \"contracts/TransactionHistory.sol\":1191:1205  newTransaction */\n      dup2\n        /* \"contracts/TransactionHistory.sol\":1191:1220  newTransaction.donatorAddress */\n      0x40\n      add\n        /* \"contracts/TransactionHistory.sol\":1191:1237  newTransaction.donatorAddress = donatorAddress */\n      swap1\n      0xffffffffffffffffffffffffffffffffffffffff\n      and\n      swap1\n      dup2\n      0xffffffffffffffffffffffffffffffffffffffff\n      and\n      dup2\n      mstore\n      pop\n      pop\n        /* \"contracts/TransactionHistory.sol\":1271:1276  value */\n      dup3\n        /* \"contracts/TransactionHistory.sol\":1248:1262  newTransaction */\n      dup2\n        /* \"contracts/TransactionHistory.sol\":1248:1268  newTransaction.value */\n      0x60\n      add\n        /* \"contracts/TransactionHistory.sol\":1248:1276  newTransaction.value = value */\n      dup2\n      dup2\n      mstore\n      pop\n      pop\n        /* \"contracts/TransactionHistory.sol\":1309:1313  time */\n      dup2\n        /* \"contracts/TransactionHistory.sol\":1287:1301  newTransaction */\n      dup2\n        /* \"contracts/TransactionHistory.sol\":1287:1306  newTransaction.time */\n      0x80\n      add\n        /* \"contracts/TransactionHistory.sol\":1287:1313  newTransaction.time = time */\n      dup2\n      dup2\n      mstore\n      pop\n      pop\n        /* \"contracts/TransactionHistory.sol\":1326:1346  transactionInfoArray */\n      0x02\n        /* \"contracts/TransactionHistory.sol\":1352:1366  newTransaction */\n      dup2\n        /* \"contracts/TransactionHistory.sol\":1326:1367  transactionInfoArray.push(newTransaction) */\n      swap1\n      dup1\n      0x01\n      dup2\n      sload\n      add\n      dup1\n      dup3\n      sstore\n      dup1\n      swap2\n      pop\n      pop\n      0x01\n      swap1\n      sub\n      swap1\n      0x00\n      mstore\n      keccak256(0x00, 0x20)\n      swap1\n      0x05\n      mul\n      add\n      0x00\n      swap1\n      swap2\n      swap1\n      swap2\n      swap1\n      swap2\n      pop\n      0x00\n      dup3\n      add\n      mload\n      dup2\n      0x00\n      add\n      swap1\n      dup2\n      tag_146\n      swap2\n      swap1\n      tag_147\n      jump\t// in\n    tag_146:\n      pop\n      0x20\n      dup3\n      add\n      mload\n      dup2\n      0x01\n      add\n      swap1\n      dup2\n      tag_148\n      swap2\n      swap1\n      tag_147\n      jump\t// in\n    tag_148:\n      pop\n      0x40\n      dup3\n      add\n      mload\n      dup2\n      0x02\n      add\n      exp(0x0100, 0x00)\n      dup2\n      sload\n      dup2\n      0xffffffffffffffffffffffffffffffffffffffff\n      mul\n      not\n      and\n      swap1\n      dup4\n      0xffffffffffffffffffffffffffffffffffffffff\n      and\n      mul\n      or\n      swap1\n      sstore\n      pop\n      0x60\n      dup3\n      add\n      mload\n      dup2\n      0x03\n      add\n      sstore\n      0x80\n      dup3\n      add\n      mload\n      dup2\n      0x04\n      add\n      sstore\n      pop\n      pop\n        /* \"contracts/TransactionHistory.sol\":1036:1375  {... */\n      pop\n        /* \"contracts/TransactionHistory.sol\":819:1375  function addNewTransactionHistory(... */\n      pop\n      pop\n      pop\n      pop\n      pop\n      jump\t// out\n        /* \"contracts/TransactionHistory.sol\":1702:2193  function getDonateByUser(... */\n    tag_48:\n        /* \"contracts/TransactionHistory.sol\":1790:1812  TransactionInfo memory */\n      tag_149\n      tag_94\n      jump\t// in\n    tag_149:\n        /* \"contracts/TransactionHistory.sol\":1830:1836  uint i */\n      0x00\n        /* \"contracts/TransactionHistory.sol\":1825:2154  for (uint i = 0; i < transactionInfoArray.length; i++) {... */\n    tag_151:\n        /* \"contracts/TransactionHistory.sol\":1846:1866  transactionInfoArray */\n      0x02\n        /* \"contracts/TransactionHistory.sol\":1846:1873  transactionInfoArray.length */\n      dup1\n      sload\n      swap1\n      pop\n        /* \"contracts/TransactionHistory.sol\":1842:1843  i */\n      dup2\n        /* \"contracts/TransactionHistory.sol\":1842:1873  i < transactionInfoArray.length */\n      lt\n        /* \"contracts/TransactionHistory.sol\":1825:2154  for (uint i = 0; i < transactionInfoArray.length; i++) {... */\n      iszero\n      tag_152\n      jumpi\n        /* \"contracts/TransactionHistory.sol\":2050:2060  _donatorId */\n      dup3\n        /* \"contracts/TransactionHistory.sol\":2033:2061  abi.encodePacked(_donatorId) */\n      add(0x20, mload(0x40))\n      tag_154\n      swap2\n      swap1\n      tag_67\n      jump\t// in\n    tag_154:\n      mload(0x40)\n      0x20\n      dup2\n      dup4\n      sub\n      sub\n      dup2\n      mstore\n      swap1\n      0x40\n      mstore\n        /* \"contracts/TransactionHistory.sol\":2023:2062  keccak256(abi.encodePacked(_donatorId)) */\n      dup1\n      mload\n      swap1\n      0x20\n      add\n      keccak256\n        /* \"contracts/TransactionHistory.sol\":1966:1986  transactionInfoArray */\n      0x02\n        /* \"contracts/TransactionHistory.sol\":1987:1988  i */\n      dup3\n        /* \"contracts/TransactionHistory.sol\":1966:1989  transactionInfoArray[i] */\n      dup2\n      sload\n      dup2\n      lt\n      tag_155\n      jumpi\n      tag_156\n      tag_62\n      jump\t// in\n    tag_156:\n    tag_155:\n      swap1\n      0x00\n      mstore\n      keccak256(0x00, 0x20)\n      swap1\n      0x05\n      mul\n      add\n        /* \"contracts/TransactionHistory.sol\":1966:1999  transactionInfoArray[i].donatorId */\n      0x01\n      add\n        /* \"contracts/TransactionHistory.sol\":1949:2000  abi.encodePacked(transactionInfoArray[i].donatorId) */\n      add(0x20, mload(0x40))\n      tag_158\n      swap2\n      swap1\n      tag_72\n      jump\t// in\n    tag_158:\n      mload(0x40)\n      0x20\n      dup2\n      dup4\n      sub\n      sub\n      dup2\n      mstore\n      swap1\n      0x40\n      mstore\n        /* \"contracts/TransactionHistory.sol\":1917:2019  keccak256(... */\n      dup1\n      mload\n      swap1\n      0x20\n      add\n      keccak256\n        /* \"contracts/TransactionHistory.sol\":1917:2062  keccak256(... */\n      sub\n        /* \"contracts/TransactionHistory.sol\":1895:2143  if (... */\n      tag_159\n      jumpi\n        /* \"contracts/TransactionHistory.sol\":2104:2124  transactionInfoArray */\n      0x02\n        /* \"contracts/TransactionHistory.sol\":2125:2126  i */\n      dup2\n        /* \"contracts/TransactionHistory.sol\":2104:2127  transactionInfoArray[i] */\n      dup2\n      sload\n      dup2\n      lt\n      tag_160\n      jumpi\n      tag_161\n      tag_62\n      jump\t// in\n    tag_161:\n    tag_160:\n      swap1\n      0x00\n      mstore\n      keccak256(0x00, 0x20)\n      swap1\n      0x05\n      mul\n      add\n        /* \"contracts/TransactionHistory.sol\":2097:2127  return transactionInfoArray[i] */\n      mload(0x40)\n      dup1\n      0xa0\n      add\n      0x40\n      mstore\n      swap1\n      dup2\n      0x00\n      dup3\n      add\n      dup1\n      sload\n      tag_163\n      swap1\n      tag_77\n      jump\t// in\n    tag_163:\n      dup1\n      0x1f\n      add\n      0x20\n      dup1\n      swap2\n      div\n      mul\n      0x20\n      add\n      mload(0x40)\n      swap1\n      dup2\n      add\n      0x40\n      mstore\n      dup1\n      swap3\n      swap2\n      swap1\n      dup2\n      dup2\n      mstore\n      0x20\n      add\n      dup3\n      dup1\n      sload\n      tag_164\n      swap1\n      tag_77\n      jump\t// in\n    tag_164:\n      dup1\n      iszero\n      tag_165\n      jumpi\n      dup1\n      0x1f\n      lt\n      tag_166\n      jumpi\n      0x0100\n      dup1\n      dup4\n      sload\n      div\n      mul\n      dup4\n      mstore\n      swap2\n      0x20\n      add\n      swap2\n      jump(tag_165)\n    tag_166:\n      dup3\n      add\n      swap2\n      swap1\n      0x00\n      mstore\n      keccak256(0x00, 0x20)\n      swap1\n    tag_167:\n      dup2\n      sload\n      dup2\n      mstore\n      swap1\n      0x01\n      add\n      swap1\n      0x20\n      add\n      dup1\n      dup4\n      gt\n      tag_167\n      jumpi\n      dup3\n      swap1\n      sub\n      0x1f\n      and\n      dup3\n      add\n      swap2\n    tag_165:\n      pop\n      pop\n      pop\n      pop\n      pop\n      dup2\n      mstore\n      0x20\n      add\n      0x01\n      dup3\n      add\n      dup1\n      sload\n      tag_168\n      swap1\n      tag_77\n      jump\t// in\n    tag_168:\n      dup1\n      0x1f\n      add\n      0x20\n      dup1\n      swap2\n      div\n      mul\n      0x20\n      add\n      mload(0x40)\n      swap1\n      dup2\n      add\n      0x40\n      mstore\n      dup1\n      swap3\n      swap2\n      swap1\n      dup2\n      dup2\n      mstore\n      0x20\n      add\n      dup3\n      dup1\n      sload\n      tag_169\n      swap1\n      tag_77\n      jump\t// in\n    tag_169:\n      dup1\n      iszero\n      tag_170\n      jumpi\n      dup1\n      0x1f\n      lt\n      tag_171\n      jumpi\n      0x0100\n      dup1\n      dup4\n      sload\n      div\n      mul\n      dup4\n      mstore\n      swap2\n      0x20\n      add\n      swap2\n      jump(tag_170)\n    tag_171:\n      dup3\n      add\n      swap2\n      swap1\n      0x00\n      mstore\n      keccak256(0x00, 0x20)\n      swap1\n    tag_172:\n      dup2\n      sload\n      dup2\n      mstore\n      swap1\n      0x01\n      add\n      swap1\n      0x20\n      add\n      dup1\n      dup4\n      gt\n      tag_172\n      jumpi\n      dup3\n      swap1\n      sub\n      0x1f\n      and\n      dup3\n      add\n      swap2\n    tag_170:\n      pop\n      pop\n      pop\n      pop\n      pop\n      dup2\n      mstore\n      0x20\n      add\n      0x02\n      dup3\n      add\n      0x00\n      swap1\n      sload\n      swap1\n      0x0100\n      exp\n      swap1\n      div\n      0xffffffffffffffffffffffffffffffffffffffff\n      and\n      0xffffffffffffffffffffffffffffffffffffffff\n      and\n      0xffffffffffffffffffffffffffffffffffffffff\n      and\n      dup2\n      mstore\n      0x20\n      add\n      0x03\n      dup3\n      add\n      sload\n      dup2\n      mstore\n      0x20\n      add\n      0x04\n      dup3\n      add\n      sload\n      dup2\n      mstore\n      pop\n      pop\n      swap2\n      pop\n      pop\n      jump(tag_150)\n        /* \"contracts/TransactionHistory.sol\":1895:2143  if (... */\n    tag_159:\n        /* \"contracts/TransactionHistory.sol\":1875:1878  i++ */\n      dup1\n      dup1\n      0x01\n      add\n      swap2\n      pop\n      pop\n        /* \"contracts/TransactionHistory.sol\":1825:2154  for (uint i = 0; i < transactionInfoArray.length; i++) {... */\n      jump(tag_151)\n    tag_152:\n      pop\n        /* \"contracts/TransactionHistory.sol\":2166:2185  revert(\"Not found\") */\n      mload(0x40)\n      0x08c379a000000000000000000000000000000000000000000000000000000000\n      dup2\n      mstore\n      0x04\n      add\n      tag_173\n      swap1\n      tag_174\n      jump\t// in\n    tag_173:\n      mload(0x40)\n      dup1\n      swap2\n      sub\n      swap1\n      revert\n        /* \"contracts/TransactionHistory.sol\":1702:2193  function getDonateByUser(... */\n    tag_150:\n      swap2\n      swap1\n      pop\n      jump\t// out\n        /* \"contracts/TransactionHistory.sol\":103:175  address public adminAddress = 0x5B38Da6a701c568545dCfcB03FcB875f56beddC4 */\n    tag_52:\n      0x00\n      dup1\n      sload\n      swap1\n      0x0100\n      exp\n      swap1\n      div\n      0xffffffffffffffffffffffffffffffffffffffff\n      and\n      dup2\n      jump\t// out\n    tag_94:\n      mload(0x40)\n      dup1\n      0xa0\n      add\n      0x40\n      mstore\n      dup1\n      0x60\n      dup2\n      mstore\n      0x20\n      add\n      0x60\n      dup2\n      mstore\n      0x20\n      add\n      and(0xffffffffffffffffffffffffffffffffffffffff, 0x00)\n      dup2\n      mstore\n      0x20\n      add\n      0x00\n      dup2\n      mstore\n      0x20\n      add\n      0x00\n      dup2\n      mstore\n      pop\n      swap1\n      jump\t// out\n        /* \"#utility.yul\":7:82   */\n    tag_175:\n        /* \"#utility.yul\":40:46   */\n      0x00\n        /* \"#utility.yul\":73:75   */\n      0x40\n        /* \"#utility.yul\":67:76   */\n      mload\n        /* \"#utility.yul\":57:76   */\n      swap1\n      pop\n        /* \"#utility.yul\":7:82   */\n      swap1\n      jump\t// out\n        /* \"#utility.yul\":88:205   */\n    tag_176:\n        /* \"#utility.yul\":197:198   */\n      0x00\n        /* \"#utility.yul\":194:195   */\n      dup1\n        /* \"#utility.yul\":187:199   */\n      revert\n        /* \"#utility.yul\":211:328   */\n    tag_177:\n        /* \"#utility.yul\":320:321   */\n      0x00\n        /* \"#utility.yul\":317:318   */\n      dup1\n        /* \"#utility.yul\":310:322   */\n      revert\n        /* \"#utility.yul\":334:460   */\n    tag_178:\n        /* \"#utility.yul\":371:378   */\n      0x00\n        /* \"#utility.yul\":411:453   */\n      0xffffffffffffffffffffffffffffffffffffffff\n        /* \"#utility.yul\":404:409   */\n      dup3\n        /* \"#utility.yul\":400:454   */\n      and\n        /* \"#utility.yul\":389:454   */\n      swap1\n      pop\n        /* \"#utility.yul\":334:460   */\n      swap2\n      swap1\n      pop\n      jump\t// out\n        /* \"#utility.yul\":466:562   */\n    tag_179:\n        /* \"#utility.yul\":503:510   */\n      0x00\n        /* \"#utility.yul\":532:556   */\n      tag_248\n        /* \"#utility.yul\":550:555   */\n      dup3\n        /* \"#utility.yul\":532:556   */\n      tag_178\n      jump\t// in\n    tag_248:\n        /* \"#utility.yul\":521:556   */\n      swap1\n      pop\n        /* \"#utility.yul\":466:562   */\n      swap2\n      swap1\n      pop\n      jump\t// out\n        /* \"#utility.yul\":568:690   */\n    tag_180:\n        /* \"#utility.yul\":641:665   */\n      tag_250\n        /* \"#utility.yul\":659:664   */\n      dup2\n        /* \"#utility.yul\":641:665   */\n      tag_179\n      jump\t// in\n    tag_250:\n        /* \"#utility.yul\":634:639   */\n      dup2\n        /* \"#utility.yul\":631:666   */\n      eq\n        /* \"#utility.yul\":621:684   */\n      tag_251\n      jumpi\n        /* \"#utility.yul\":680:681   */\n      0x00\n        /* \"#utility.yul\":677:678   */\n      dup1\n        /* \"#utility.yul\":670:682   */\n      revert\n        /* \"#utility.yul\":621:684   */\n    tag_251:\n        /* \"#utility.yul\":568:690   */\n      pop\n      jump\t// out\n        /* \"#utility.yul\":696:835   */\n    tag_181:\n        /* \"#utility.yul\":742:747   */\n      0x00\n        /* \"#utility.yul\":780:786   */\n      dup2\n        /* \"#utility.yul\":767:787   */\n      calldataload\n        /* \"#utility.yul\":758:787   */\n      swap1\n      pop\n        /* \"#utility.yul\":796:829   */\n      tag_253\n        /* \"#utility.yul\":823:828   */\n      dup2\n        /* \"#utility.yul\":796:829   */\n      tag_180\n      jump\t// in\n    tag_253:\n        /* \"#utility.yul\":696:835   */\n      swap3\n      swap2\n      pop\n      pop\n      jump\t// out\n        /* \"#utility.yul\":841:958   */\n    tag_182:\n        /* \"#utility.yul\":950:951   */\n      0x00\n        /* \"#utility.yul\":947:948   */\n      dup1\n        /* \"#utility.yul\":940:952   */\n      revert\n        /* \"#utility.yul\":964:1081   */\n    tag_183:\n        /* \"#utility.yul\":1073:1074   */\n      0x00\n        /* \"#utility.yul\":1070:1071   */\n      dup1\n        /* \"#utility.yul\":1063:1075   */\n      revert\n        /* \"#utility.yul\":1087:1189   */\n    tag_184:\n        /* \"#utility.yul\":1128:1134   */\n      0x00\n        /* \"#utility.yul\":1179:1181   */\n      0x1f\n        /* \"#utility.yul\":1175:1182   */\n      not\n        /* \"#utility.yul\":1170:1172   */\n      0x1f\n        /* \"#utility.yul\":1163:1168   */\n      dup4\n        /* \"#utility.yul\":1159:1173   */\n      add\n        /* \"#utility.yul\":1155:1183   */\n      and\n        /* \"#utility.yul\":1145:1183   */\n      swap1\n      pop\n        /* \"#utility.yul\":1087:1189   */\n      swap2\n      swap1\n      pop\n      jump\t// out\n        /* \"#utility.yul\":1195:1375   */\n    tag_90:\n        /* \"#utility.yul\":1243:1320   */\n      0x4e487b7100000000000000000000000000000000000000000000000000000000\n        /* \"#utility.yul\":1240:1241   */\n      0x00\n        /* \"#utility.yul\":1233:1321   */\n      mstore\n        /* \"#utility.yul\":1340:1344   */\n      0x41\n        /* \"#utility.yul\":1337:1338   */\n      0x04\n        /* \"#utility.yul\":1330:1345   */\n      mstore\n        /* \"#utility.yul\":1364:1368   */\n      0x24\n        /* \"#utility.yul\":1361:1362   */\n      0x00\n        /* \"#utility.yul\":1354:1369   */\n      revert\n        /* \"#utility.yul\":1381:1662   */\n    tag_185:\n        /* \"#utility.yul\":1464:1491   */\n      tag_259\n        /* \"#utility.yul\":1486:1490   */\n      dup3\n        /* \"#utility.yul\":1464:1491   */\n      tag_184\n      jump\t// in\n    tag_259:\n        /* \"#utility.yul\":1456:1462   */\n      dup2\n        /* \"#utility.yul\":1452:1492   */\n      add\n        /* \"#utility.yul\":1594:1600   */\n      dup2\n        /* \"#utility.yul\":1582:1592   */\n      dup2\n        /* \"#utility.yul\":1579:1601   */\n      lt\n        /* \"#utility.yul\":1558:1576   */\n      0xffffffffffffffff\n        /* \"#utility.yul\":1546:1556   */\n      dup3\n        /* \"#utility.yul\":1543:1577   */\n      gt\n        /* \"#utility.yul\":1540:1602   */\n      or\n        /* \"#utility.yul\":1537:1625   */\n      iszero\n      tag_260\n      jumpi\n        /* \"#utility.yul\":1605:1623   */\n      tag_261\n      tag_90\n      jump\t// in\n    tag_261:\n        /* \"#utility.yul\":1537:1625   */\n    tag_260:\n        /* \"#utility.yul\":1645:1655   */\n      dup1\n        /* \"#utility.yul\":1641:1643   */\n      0x40\n        /* \"#utility.yul\":1634:1656   */\n      mstore\n        /* \"#utility.yul\":1424:1662   */\n      pop\n        /* \"#utility.yul\":1381:1662   */\n      pop\n      pop\n      jump\t// out\n        /* \"#utility.yul\":1668:1797   */\n    tag_186:\n        /* \"#utility.yul\":1702:1708   */\n      0x00\n        /* \"#utility.yul\":1729:1749   */\n      tag_263\n      tag_175\n      jump\t// in\n    tag_263:\n        /* \"#utility.yul\":1719:1749   */\n      swap1\n      pop\n        /* \"#utility.yul\":1758:1791   */\n      tag_264\n        /* \"#utility.yul\":1786:1790   */\n      dup3\n        /* \"#utility.yul\":1778:1784   */\n      dup3\n        /* \"#utility.yul\":1758:1791   */\n      tag_185\n      jump\t// in\n    tag_264:\n        /* \"#utility.yul\":1668:1797   */\n      swap2\n      swap1\n      pop\n      jump\t// out\n        /* \"#utility.yul\":1803:2111   */\n    tag_187:\n        /* \"#utility.yul\":1865:1869   */\n      0x00\n        /* \"#utility.yul\":1955:1973   */\n      0xffffffffffffffff\n        /* \"#utility.yul\":1947:1953   */\n      dup3\n        /* \"#utility.yul\":1944:1974   */\n      gt\n        /* \"#utility.yul\":1941:1997   */\n      iszero\n      tag_266\n      jumpi\n        /* \"#utility.yul\":1977:1995   */\n      tag_267\n      tag_90\n      jump\t// in\n    tag_267:\n        /* \"#utility.yul\":1941:1997   */\n    tag_266:\n        /* \"#utility.yul\":2015:2044   */\n      tag_268\n        /* \"#utility.yul\":2037:2043   */\n      dup3\n        /* \"#utility.yul\":2015:2044   */\n      tag_184\n      jump\t// in\n    tag_268:\n        /* \"#utility.yul\":2007:2044   */\n      swap1\n      pop\n        /* \"#utility.yul\":2099:2103   */\n      0x20\n        /* \"#utility.yul\":2093:2097   */\n      dup2\n        /* \"#utility.yul\":2089:2104   */\n      add\n        /* \"#utility.yul\":2081:2104   */\n      swap1\n      pop\n        /* \"#utility.yul\":1803:2111   */\n      swap2\n      swap1\n      pop\n      jump\t// out\n        /* \"#utility.yul\":2117:2263   */\n    tag_188:\n        /* \"#utility.yul\":2214:2220   */\n      dup3\n        /* \"#utility.yul\":2209:2212   */\n      dup2\n        /* \"#utility.yul\":2204:2207   */\n      dup4\n        /* \"#utility.yul\":2191:2221   */\n      calldatacopy\n        /* \"#utility.yul\":2255:2256   */\n      0x00\n        /* \"#utility.yul\":2246:2252   */\n      dup4\n        /* \"#utility.yul\":2241:2244   */\n      dup4\n        /* \"#utility.yul\":2237:2253   */\n      add\n        /* \"#utility.yul\":2230:2257   */\n      mstore\n        /* \"#utility.yul\":2117:2263   */\n      pop\n      pop\n      pop\n      jump\t// out\n        /* \"#utility.yul\":2269:2694   */\n    tag_189:\n        /* \"#utility.yul\":2347:2352   */\n      0x00\n        /* \"#utility.yul\":2372:2438   */\n      tag_271\n        /* \"#utility.yul\":2388:2437   */\n      tag_272\n        /* \"#utility.yul\":2430:2436   */\n      dup5\n        /* \"#utility.yul\":2388:2437   */\n      tag_187\n      jump\t// in\n    tag_272:\n        /* \"#utility.yul\":2372:2438   */\n      tag_186\n      jump\t// in\n    tag_271:\n        /* \"#utility.yul\":2363:2438   */\n      swap1\n      pop\n        /* \"#utility.yul\":2461:2467   */\n      dup3\n        /* \"#utility.yul\":2454:2459   */\n      dup2\n        /* \"#utility.yul\":2447:2468   */\n      mstore\n        /* \"#utility.yul\":2499:2503   */\n      0x20\n        /* \"#utility.yul\":2492:2497   */\n      dup2\n        /* \"#utility.yul\":2488:2504   */\n      add\n        /* \"#utility.yul\":2537:2540   */\n      dup5\n        /* \"#utility.yul\":2528:2534   */\n      dup5\n        /* \"#utility.yul\":2523:2526   */\n      dup5\n        /* \"#utility.yul\":2519:2535   */\n      add\n        /* \"#utility.yul\":2516:2541   */\n      gt\n        /* \"#utility.yul\":2513:2625   */\n      iszero\n      tag_273\n      jumpi\n        /* \"#utility.yul\":2544:2623   */\n      tag_274\n      tag_183\n      jump\t// in\n    tag_274:\n        /* \"#utility.yul\":2513:2625   */\n    tag_273:\n        /* \"#utility.yul\":2634:2688   */\n      tag_275\n        /* \"#utility.yul\":2681:2687   */\n      dup5\n        /* \"#utility.yul\":2676:2679   */\n      dup3\n        /* \"#utility.yul\":2671:2674   */\n      dup6\n        /* \"#utility.yul\":2634:2688   */\n      tag_188\n      jump\t// in\n    tag_275:\n        /* \"#utility.yul\":2353:2694   */\n      pop\n        /* \"#utility.yul\":2269:2694   */\n      swap4\n      swap3\n      pop\n      pop\n      pop\n      jump\t// out\n        /* \"#utility.yul\":2714:3054   */\n    tag_190:\n        /* \"#utility.yul\":2770:2775   */\n      0x00\n        /* \"#utility.yul\":2819:2822   */\n      dup3\n        /* \"#utility.yul\":2812:2816   */\n      0x1f\n        /* \"#utility.yul\":2804:2810   */\n      dup4\n        /* \"#utility.yul\":2800:2817   */\n      add\n        /* \"#utility.yul\":2796:2823   */\n      slt\n        /* \"#utility.yul\":2786:2908   */\n      tag_277\n      jumpi\n        /* \"#utility.yul\":2827:2906   */\n      tag_278\n      tag_182\n      jump\t// in\n    tag_278:\n        /* \"#utility.yul\":2786:2908   */\n    tag_277:\n        /* \"#utility.yul\":2944:2950   */\n      dup2\n        /* \"#utility.yul\":2931:2951   */\n      calldataload\n        /* \"#utility.yul\":2969:3048   */\n      tag_279\n        /* \"#utility.yul\":3044:3047   */\n      dup5\n        /* \"#utility.yul\":3036:3042   */\n      dup3\n        /* \"#utility.yul\":3029:3033   */\n      0x20\n        /* \"#utility.yul\":3021:3027   */\n      dup7\n        /* \"#utility.yul\":3017:3034   */\n      add\n        /* \"#utility.yul\":2969:3048   */\n      tag_189\n      jump\t// in\n    tag_279:\n        /* \"#utility.yul\":2960:3048   */\n      swap2\n      pop\n        /* \"#utility.yul\":2776:3054   */\n      pop\n        /* \"#utility.yul\":2714:3054   */\n      swap3\n      swap2\n      pop\n      pop\n      jump\t// out\n        /* \"#utility.yul\":3060:3714   */\n    tag_15:\n        /* \"#utility.yul\":3138:3144   */\n      0x00\n        /* \"#utility.yul\":3146:3152   */\n      dup1\n        /* \"#utility.yul\":3195:3197   */\n      0x40\n        /* \"#utility.yul\":3183:3192   */\n      dup4\n        /* \"#utility.yul\":3174:3181   */\n      dup6\n        /* \"#utility.yul\":3170:3193   */\n      sub\n        /* \"#utility.yul\":3166:3198   */\n      slt\n        /* \"#utility.yul\":3163:3282   */\n      iszero\n      tag_281\n      jumpi\n        /* \"#utility.yul\":3201:3280   */\n      tag_282\n      tag_176\n      jump\t// in\n    tag_282:\n        /* \"#utility.yul\":3163:3282   */\n    tag_281:\n        /* \"#utility.yul\":3321:3322   */\n      0x00\n        /* \"#utility.yul\":3346:3399   */\n      tag_283\n        /* \"#utility.yul\":3391:3398   */\n      dup6\n        /* \"#utility.yul\":3382:3388   */\n      dup3\n        /* \"#utility.yul\":3371:3380   */\n      dup7\n        /* \"#utility.yul\":3367:3389   */\n      add\n        /* \"#utility.yul\":3346:3399   */\n      tag_181\n      jump\t// in\n    tag_283:\n        /* \"#utility.yul\":3336:3399   */\n      swap3\n      pop\n        /* \"#utility.yul\":3292:3409   */\n      pop\n        /* \"#utility.yul\":3476:3478   */\n      0x20\n        /* \"#utility.yul\":3465:3474   */\n      dup4\n        /* \"#utility.yul\":3461:3479   */\n      add\n        /* \"#utility.yul\":3448:3480   */\n      calldataload\n        /* \"#utility.yul\":3507:3525   */\n      0xffffffffffffffff\n        /* \"#utility.yul\":3499:3505   */\n      dup2\n        /* \"#utility.yul\":3496:3526   */\n      gt\n        /* \"#utility.yul\":3493:3610   */\n      iszero\n      tag_284\n      jumpi\n        /* \"#utility.yul\":3529:3608   */\n      tag_285\n      tag_177\n      jump\t// in\n    tag_285:\n        /* \"#utility.yul\":3493:3610   */\n    tag_284:\n        /* \"#utility.yul\":3634:3697   */\n      tag_286\n        /* \"#utility.yul\":3689:3696   */\n      dup6\n        /* \"#utility.yul\":3680:3686   */\n      dup3\n        /* \"#utility.yul\":3669:3678   */\n      dup7\n        /* \"#utility.yul\":3665:3687   */\n      add\n        /* \"#utility.yul\":3634:3697   */\n      tag_190\n      jump\t// in\n    tag_286:\n        /* \"#utility.yul\":3624:3697   */\n      swap2\n      pop\n        /* \"#utility.yul\":3419:3707   */\n      pop\n        /* \"#utility.yul\":3060:3714   */\n      swap3\n      pop\n      swap3\n      swap1\n      pop\n      jump\t// out\n        /* \"#utility.yul\":3720:3810   */\n    tag_191:\n        /* \"#utility.yul\":3754:3761   */\n      0x00\n        /* \"#utility.yul\":3797:3802   */\n      dup2\n        /* \"#utility.yul\":3790:3803   */\n      iszero\n        /* \"#utility.yul\":3783:3804   */\n      iszero\n        /* \"#utility.yul\":3772:3804   */\n      swap1\n      pop\n        /* \"#utility.yul\":3720:3810   */\n      swap2\n      swap1\n      pop\n      jump\t// out\n        /* \"#utility.yul\":3816:3925   */\n    tag_192:\n        /* \"#utility.yul\":3897:3918   */\n      tag_289\n        /* \"#utility.yul\":3912:3917   */\n      dup2\n        /* \"#utility.yul\":3897:3918   */\n      tag_191\n      jump\t// in\n    tag_289:\n        /* \"#utility.yul\":3892:3895   */\n      dup3\n        /* \"#utility.yul\":3885:3919   */\n      mstore\n        /* \"#utility.yul\":3816:3925   */\n      pop\n      pop\n      jump\t// out\n        /* \"#utility.yul\":3931:4141   */\n    tag_18:\n        /* \"#utility.yul\":4018:4022   */\n      0x00\n        /* \"#utility.yul\":4056:4058   */\n      0x20\n        /* \"#utility.yul\":4045:4054   */\n      dup3\n        /* \"#utility.yul\":4041:4059   */\n      add\n        /* \"#utility.yul\":4033:4059   */\n      swap1\n      pop\n        /* \"#utility.yul\":4069:4134   */\n      tag_291\n        /* \"#utility.yul\":4131:4132   */\n      0x00\n        /* \"#utility.yul\":4120:4129   */\n      dup4\n        /* \"#utility.yul\":4116:4133   */\n      add\n        /* \"#utility.yul\":4107:4113   */\n      dup5\n        /* \"#utility.yul\":4069:4134   */\n      tag_192\n      jump\t// in\n    tag_291:\n        /* \"#utility.yul\":3931:4141   */\n      swap3\n      swap2\n      pop\n      pop\n      jump\t// out\n        /* \"#utility.yul\":4147:4265   */\n    tag_193:\n        /* \"#utility.yul\":4234:4258   */\n      tag_293\n        /* \"#utility.yul\":4252:4257   */\n      dup2\n        /* \"#utility.yul\":4234:4258   */\n      tag_179\n      jump\t// in\n    tag_293:\n        /* \"#utility.yul\":4229:4232   */\n      dup3\n        /* \"#utility.yul\":4222:4259   */\n      mstore\n        /* \"#utility.yul\":4147:4265   */\n      pop\n      pop\n      jump\t// out\n        /* \"#utility.yul\":4271:4493   */\n    tag_22:\n        /* \"#utility.yul\":4364:4368   */\n      0x00\n        /* \"#utility.yul\":4402:4404   */\n      0x20\n        /* \"#utility.yul\":4391:4400   */\n      dup3\n        /* \"#utility.yul\":4387:4405   */\n      add\n        /* \"#utility.yul\":4379:4405   */\n      swap1\n      pop\n        /* \"#utility.yul\":4415:4486   */\n      tag_295\n        /* \"#utility.yul\":4483:4484   */\n      0x00\n        /* \"#utility.yul\":4472:4481   */\n      dup4\n        /* \"#utility.yul\":4468:4485   */\n      add\n        /* \"#utility.yul\":4459:4465   */\n      dup5\n        /* \"#utility.yul\":4415:4486   */\n      tag_193\n      jump\t// in\n    tag_295:\n        /* \"#utility.yul\":4271:4493   */\n      swap3\n      swap2\n      pop\n      pop\n      jump\t// out\n        /* \"#utility.yul\":4499:4576   */\n    tag_194:\n        /* \"#utility.yul\":4536:4543   */\n      0x00\n        /* \"#utility.yul\":4565:4570   */\n      dup2\n        /* \"#utility.yul\":4554:4570   */\n      swap1\n      pop\n        /* \"#utility.yul\":4499:4576   */\n      swap2\n      swap1\n      pop\n      jump\t// out\n        /* \"#utility.yul\":4582:4704   */\n    tag_195:\n        /* \"#utility.yul\":4655:4679   */\n      tag_298\n        /* \"#utility.yul\":4673:4678   */\n      dup2\n        /* \"#utility.yul\":4655:4679   */\n      tag_194\n      jump\t// in\n    tag_298:\n        /* \"#utility.yul\":4648:4653   */\n      dup2\n        /* \"#utility.yul\":4645:4680   */\n      eq\n        /* \"#utility.yul\":4635:4698   */\n      tag_299\n      jumpi\n        /* \"#utility.yul\":4694:4695   */\n      0x00\n        /* \"#utility.yul\":4691:4692   */\n      dup1\n        /* \"#utility.yul\":4684:4696   */\n      revert\n        /* \"#utility.yul\":4635:4698   */\n    tag_299:\n        /* \"#utility.yul\":4582:4704   */\n      pop\n      jump\t// out\n        /* \"#utility.yul\":4710:4849   */\n    tag_196:\n        /* \"#utility.yul\":4756:4761   */\n      0x00\n        /* \"#utility.yul\":4794:4800   */\n      dup2\n        /* \"#utility.yul\":4781:4801   */\n      calldataload\n        /* \"#utility.yul\":4772:4801   */\n      swap1\n      pop\n        /* \"#utility.yul\":4810:4843   */\n      tag_301\n        /* \"#utility.yul\":4837:4842   */\n      dup2\n        /* \"#utility.yul\":4810:4843   */\n      tag_195\n      jump\t// in\n    tag_301:\n        /* \"#utility.yul\":4710:4849   */\n      swap3\n      swap2\n      pop\n      pop\n      jump\t// out\n        /* \"#utility.yul\":4855:5184   */\n    tag_25:\n        /* \"#utility.yul\":4914:4920   */\n      0x00\n        /* \"#utility.yul\":4963:4965   */\n      0x20\n        /* \"#utility.yul\":4951:4960   */\n      dup3\n        /* \"#utility.yul\":4942:4949   */\n      dup5\n        /* \"#utility.yul\":4938:4961   */\n      sub\n        /* \"#utility.yul\":4934:4966   */\n      slt\n        /* \"#utility.yul\":4931:5050   */\n      iszero\n      tag_303\n      jumpi\n        /* \"#utility.yul\":4969:5048   */\n      tag_304\n      tag_176\n      jump\t// in\n    tag_304:\n        /* \"#utility.yul\":4931:5050   */\n    tag_303:\n        /* \"#utility.yul\":5089:5090   */\n      0x00\n        /* \"#utility.yul\":5114:5167   */\n      tag_305\n        /* \"#utility.yul\":5159:5166   */\n      dup5\n        /* \"#utility.yul\":5150:5156   */\n      dup3\n        /* \"#utility.yul\":5139:5148   */\n      dup6\n        /* \"#utility.yul\":5135:5157   */\n      add\n        /* \"#utility.yul\":5114:5167   */\n      tag_196\n      jump\t// in\n    tag_305:\n        /* \"#utility.yul\":5104:5167   */\n      swap2\n      pop\n        /* \"#utility.yul\":5060:5177   */\n      pop\n        /* \"#utility.yul\":4855:5184   */\n      swap3\n      swap2\n      pop\n      pop\n      jump\t// out\n        /* \"#utility.yul\":5190:5289   */\n    tag_197:\n        /* \"#utility.yul\":5242:5248   */\n      0x00\n        /* \"#utility.yul\":5276:5281   */\n      dup2\n        /* \"#utility.yul\":5270:5282   */\n      mload\n        /* \"#utility.yul\":5260:5282   */\n      swap1\n      pop\n        /* \"#utility.yul\":5190:5289   */\n      swap2\n      swap1\n      pop\n      jump\t// out\n        /* \"#utility.yul\":5295:5464   */\n    tag_198:\n        /* \"#utility.yul\":5379:5390   */\n      0x00\n        /* \"#utility.yul\":5413:5419   */\n      dup3\n        /* \"#utility.yul\":5408:5411   */\n      dup3\n        /* \"#utility.yul\":5401:5420   */\n      mstore\n        /* \"#utility.yul\":5453:5457   */\n      0x20\n        /* \"#utility.yul\":5448:5451   */\n      dup3\n        /* \"#utility.yul\":5444:5458   */\n      add\n        /* \"#utility.yul\":5429:5458   */\n      swap1\n      pop\n        /* \"#utility.yul\":5295:5464   */\n      swap3\n      swap2\n      pop\n      pop\n      jump\t// out\n        /* \"#utility.yul\":5470:5716   */\n    tag_199:\n        /* \"#utility.yul\":5551:5552   */\n      0x00\n        /* \"#utility.yul\":5561:5674   */\n    tag_309:\n        /* \"#utility.yul\":5575:5581   */\n      dup4\n        /* \"#utility.yul\":5572:5573   */\n      dup2\n        /* \"#utility.yul\":5569:5582   */\n      lt\n        /* \"#utility.yul\":5561:5674   */\n      iszero\n      tag_311\n      jumpi\n        /* \"#utility.yul\":5660:5661   */\n      dup1\n        /* \"#utility.yul\":5655:5658   */\n      dup3\n        /* \"#utility.yul\":5651:5662   */\n      add\n        /* \"#utility.yul\":5645:5663   */\n      mload\n        /* \"#utility.yul\":5641:5642   */\n      dup2\n        /* \"#utility.yul\":5636:5639   */\n      dup5\n        /* \"#utility.yul\":5632:5643   */\n      add\n        /* \"#utility.yul\":5625:5664   */\n      mstore\n        /* \"#utility.yul\":5597:5599   */\n      0x20\n        /* \"#utility.yul\":5594:5595   */\n      dup2\n        /* \"#utility.yul\":5590:5600   */\n      add\n        /* \"#utility.yul\":5585:5600   */\n      swap1\n      pop\n        /* \"#utility.yul\":5561:5674   */\n      jump(tag_309)\n    tag_311:\n        /* \"#utility.yul\":5708:5709   */\n      0x00\n        /* \"#utility.yul\":5699:5705   */\n      dup5\n        /* \"#utility.yul\":5694:5697   */\n      dup5\n        /* \"#utility.yul\":5690:5706   */\n      add\n        /* \"#utility.yul\":5683:5710   */\n      mstore\n        /* \"#utility.yul\":5532:5716   */\n      pop\n        /* \"#utility.yul\":5470:5716   */\n      pop\n      pop\n      pop\n      jump\t// out\n        /* \"#utility.yul\":5722:6099   */\n    tag_200:\n        /* \"#utility.yul\":5810:5813   */\n      0x00\n        /* \"#utility.yul\":5838:5877   */\n      tag_313\n        /* \"#utility.yul\":5871:5876   */\n      dup3\n        /* \"#utility.yul\":5838:5877   */\n      tag_197\n      jump\t// in\n    tag_313:\n        /* \"#utility.yul\":5893:5964   */\n      tag_314\n        /* \"#utility.yul\":5957:5963   */\n      dup2\n        /* \"#utility.yul\":5952:5955   */\n      dup6\n        /* \"#utility.yul\":5893:5964   */\n      tag_198\n      jump\t// in\n    tag_314:\n        /* \"#utility.yul\":5886:5964   */\n      swap4\n      pop\n        /* \"#utility.yul\":5973:6038   */\n      tag_315\n        /* \"#utility.yul\":6031:6037   */\n      dup2\n        /* \"#utility.yul\":6026:6029   */\n      dup6\n        /* \"#utility.yul\":6019:6023   */\n      0x20\n        /* \"#utility.yul\":6012:6017   */\n      dup7\n        /* \"#utility.yul\":6008:6024   */\n      add\n        /* \"#utility.yul\":5973:6038   */\n      tag_199\n      jump\t// in\n    tag_315:\n        /* \"#utility.yul\":6063:6092   */\n      tag_316\n        /* \"#utility.yul\":6085:6091   */\n      dup2\n        /* \"#utility.yul\":6063:6092   */\n      tag_184\n      jump\t// in\n    tag_316:\n        /* \"#utility.yul\":6058:6061   */\n      dup5\n        /* \"#utility.yul\":6054:6093   */\n      add\n        /* \"#utility.yul\":6047:6093   */\n      swap2\n      pop\n        /* \"#utility.yul\":5814:6099   */\n      pop\n        /* \"#utility.yul\":5722:6099   */\n      swap3\n      swap2\n      pop\n      pop\n      jump\t// out\n        /* \"#utility.yul\":6105:6223   */\n    tag_201:\n        /* \"#utility.yul\":6192:6216   */\n      tag_318\n        /* \"#utility.yul\":6210:6215   */\n      dup2\n        /* \"#utility.yul\":6192:6216   */\n      tag_194\n      jump\t// in\n    tag_318:\n        /* \"#utility.yul\":6187:6190   */\n      dup3\n        /* \"#utility.yul\":6180:6217   */\n      mstore\n        /* \"#utility.yul\":6105:6223   */\n      pop\n      pop\n      jump\t// out\n        /* \"#utility.yul\":6229:7075   */\n    tag_28:\n        /* \"#utility.yul\":6474:6478   */\n      0x00\n        /* \"#utility.yul\":6512:6515   */\n      0xa0\n        /* \"#utility.yul\":6501:6510   */\n      dup3\n        /* \"#utility.yul\":6497:6516   */\n      add\n        /* \"#utility.yul\":6489:6516   */\n      swap1\n      pop\n        /* \"#utility.yul\":6562:6571   */\n      dup2\n        /* \"#utility.yul\":6556:6560   */\n      dup2\n        /* \"#utility.yul\":6552:6572   */\n      sub\n        /* \"#utility.yul\":6548:6549   */\n      0x00\n        /* \"#utility.yul\":6537:6546   */\n      dup4\n        /* \"#utility.yul\":6533:6550   */\n      add\n        /* \"#utility.yul\":6526:6573   */\n      mstore\n        /* \"#utility.yul\":6590:6668   */\n      tag_320\n        /* \"#utility.yul\":6663:6667   */\n      dup2\n        /* \"#utility.yul\":6654:6660   */\n      dup9\n        /* \"#utility.yul\":6590:6668   */\n      tag_200\n      jump\t// in\n    tag_320:\n        /* \"#utility.yul\":6582:6668   */\n      swap1\n      pop\n        /* \"#utility.yul\":6715:6724   */\n      dup2\n        /* \"#utility.yul\":6709:6713   */\n      dup2\n        /* \"#utility.yul\":6705:6725   */\n      sub\n        /* \"#utility.yul\":6700:6702   */\n      0x20\n        /* \"#utility.yul\":6689:6698   */\n      dup4\n        /* \"#utility.yul\":6685:6703   */\n      add\n        /* \"#utility.yul\":6678:6726   */\n      mstore\n        /* \"#utility.yul\":6743:6821   */\n      tag_321\n        /* \"#utility.yul\":6816:6820   */\n      dup2\n        /* \"#utility.yul\":6807:6813   */\n      dup8\n        /* \"#utility.yul\":6743:6821   */\n      tag_200\n      jump\t// in\n    tag_321:\n        /* \"#utility.yul\":6735:6821   */\n      swap1\n      pop\n        /* \"#utility.yul\":6831:6903   */\n      tag_322\n        /* \"#utility.yul\":6899:6901   */\n      0x40\n        /* \"#utility.yul\":6888:6897   */\n      dup4\n        /* \"#utility.yul\":6884:6902   */\n      add\n        /* \"#utility.yul\":6875:6881   */\n      dup7\n        /* \"#utility.yul\":6831:6903   */\n      tag_193\n      jump\t// in\n    tag_322:\n        /* \"#utility.yul\":6913:6985   */\n      tag_323\n        /* \"#utility.yul\":6981:6983   */\n      0x60\n        /* \"#utility.yul\":6970:6979   */\n      dup4\n        /* \"#utility.yul\":6966:6984   */\n      add\n        /* \"#utility.yul\":6957:6963   */\n      dup6\n        /* \"#utility.yul\":6913:6985   */\n      tag_201\n      jump\t// in\n    tag_323:\n        /* \"#utility.yul\":6995:7068   */\n      tag_324\n        /* \"#utility.yul\":7063:7066   */\n      0x80\n        /* \"#utility.yul\":7052:7061   */\n      dup4\n        /* \"#utility.yul\":7048:7067   */\n      add\n        /* \"#utility.yul\":7039:7045   */\n      dup5\n        /* \"#utility.yul\":6995:7068   */\n      tag_201\n      jump\t// in\n    tag_324:\n        /* \"#utility.yul\":6229:7075   */\n      swap7\n      swap6\n      pop\n      pop\n      pop\n      pop\n      pop\n      pop\n      jump\t// out\n        /* \"#utility.yul\":7081:7590   */\n    tag_31:\n        /* \"#utility.yul\":7150:7156   */\n      0x00\n        /* \"#utility.yul\":7199:7201   */\n      0x20\n        /* \"#utility.yul\":7187:7196   */\n      dup3\n        /* \"#utility.yul\":7178:7185   */\n      dup5\n        /* \"#utility.yul\":7174:7197   */\n      sub\n        /* \"#utility.yul\":7170:7202   */\n      slt\n        /* \"#utility.yul\":7167:7286   */\n      iszero\n      tag_326\n      jumpi\n        /* \"#utility.yul\":7205:7284   */\n      tag_327\n      tag_176\n      jump\t// in\n    tag_327:\n        /* \"#utility.yul\":7167:7286   */\n    tag_326:\n        /* \"#utility.yul\":7353:7354   */\n      0x00\n        /* \"#utility.yul\":7342:7351   */\n      dup3\n        /* \"#utility.yul\":7338:7355   */\n      add\n        /* \"#utility.yul\":7325:7356   */\n      calldataload\n        /* \"#utility.yul\":7383:7401   */\n      0xffffffffffffffff\n        /* \"#utility.yul\":7375:7381   */\n      dup2\n        /* \"#utility.yul\":7372:7402   */\n      gt\n        /* \"#utility.yul\":7369:7486   */\n      iszero\n      tag_328\n      jumpi\n        /* \"#utility.yul\":7405:7484   */\n      tag_329\n      tag_177\n      jump\t// in\n    tag_329:\n        /* \"#utility.yul\":7369:7486   */\n    tag_328:\n        /* \"#utility.yul\":7510:7573   */\n      tag_330\n        /* \"#utility.yul\":7565:7572   */\n      dup5\n        /* \"#utility.yul\":7556:7562   */\n      dup3\n        /* \"#utility.yul\":7545:7554   */\n      dup6\n        /* \"#utility.yul\":7541:7563   */\n      add\n        /* \"#utility.yul\":7510:7573   */\n      tag_190\n      jump\t// in\n    tag_330:\n        /* \"#utility.yul\":7500:7573   */\n      swap2\n      pop\n        /* \"#utility.yul\":7296:7583   */\n      pop\n        /* \"#utility.yul\":7081:7590   */\n      swap3\n      swap2\n      pop\n      pop\n      jump\t// out\n        /* \"#utility.yul\":7596:7741   */\n    tag_202:\n        /* \"#utility.yul\":7694:7700   */\n      0x00\n        /* \"#utility.yul\":7728:7733   */\n      dup2\n        /* \"#utility.yul\":7722:7734   */\n      mload\n        /* \"#utility.yul\":7712:7734   */\n      swap1\n      pop\n        /* \"#utility.yul\":7596:7741   */\n      swap2\n      swap1\n      pop\n      jump\t// out\n        /* \"#utility.yul\":7747:7962   */\n    tag_203:\n        /* \"#utility.yul\":7877:7888   */\n      0x00\n        /* \"#utility.yul\":7911:7917   */\n      dup3\n        /* \"#utility.yul\":7906:7909   */\n      dup3\n        /* \"#utility.yul\":7899:7918   */\n      mstore\n        /* \"#utility.yul\":7951:7955   */\n      0x20\n        /* \"#utility.yul\":7946:7949   */\n      dup3\n        /* \"#utility.yul\":7942:7956   */\n      add\n        /* \"#utility.yul\":7927:7956   */\n      swap1\n      pop\n        /* \"#utility.yul\":7747:7962   */\n      swap3\n      swap2\n      pop\n      pop\n      jump\t// out\n        /* \"#utility.yul\":7968:8131   */\n    tag_204:\n        /* \"#utility.yul\":8066:8070   */\n      0x00\n        /* \"#utility.yul\":8089:8092   */\n      dup2\n        /* \"#utility.yul\":8081:8092   */\n      swap1\n      pop\n        /* \"#utility.yul\":8119:8123   */\n      0x20\n        /* \"#utility.yul\":8114:8117   */\n      dup3\n        /* \"#utility.yul\":8110:8124   */\n      add\n        /* \"#utility.yul\":8102:8124   */\n      swap1\n      pop\n        /* \"#utility.yul\":7968:8131   */\n      swap2\n      swap1\n      pop\n      jump\t// out\n        /* \"#utility.yul\":8137:8296   */\n    tag_205:\n        /* \"#utility.yul\":8211:8222   */\n      0x00\n        /* \"#utility.yul\":8245:8251   */\n      dup3\n        /* \"#utility.yul\":8240:8243   */\n      dup3\n        /* \"#utility.yul\":8233:8252   */\n      mstore\n        /* \"#utility.yul\":8285:8289   */\n      0x20\n        /* \"#utility.yul\":8280:8283   */\n      dup3\n        /* \"#utility.yul\":8276:8290   */\n      add\n        /* \"#utility.yul\":8261:8290   */\n      swap1\n      pop\n        /* \"#utility.yul\":8137:8296   */\n      swap3\n      swap2\n      pop\n      pop\n      jump\t// out\n        /* \"#utility.yul\":8302:8659   */\n    tag_206:\n        /* \"#utility.yul\":8380:8383   */\n      0x00\n        /* \"#utility.yul\":8408:8447   */\n      tag_336\n        /* \"#utility.yul\":8441:8446   */\n      dup3\n        /* \"#utility.yul\":8408:8447   */\n      tag_197\n      jump\t// in\n    tag_336:\n        /* \"#utility.yul\":8463:8524   */\n      tag_337\n        /* \"#utility.yul\":8517:8523   */\n      dup2\n        /* \"#utility.yul\":8512:8515   */\n      dup6\n        /* \"#utility.yul\":8463:8524   */\n      tag_205\n      jump\t// in\n    tag_337:\n        /* \"#utility.yul\":8456:8524   */\n      swap4\n      pop\n        /* \"#utility.yul\":8533:8598   */\n      tag_338\n        /* \"#utility.yul\":8591:8597   */\n      dup2\n        /* \"#utility.yul\":8586:8589   */\n      dup6\n        /* \"#utility.yul\":8579:8583   */\n      0x20\n        /* \"#utility.yul\":8572:8577   */\n      dup7\n        /* \"#utility.yul\":8568:8584   */\n      add\n        /* \"#utility.yul\":8533:8598   */\n      tag_199\n      jump\t// in\n    tag_338:\n        /* \"#utility.yul\":8623:8652   */\n      tag_339\n        /* \"#utility.yul\":8645:8651   */\n      dup2\n        /* \"#utility.yul\":8623:8652   */\n      tag_184\n      jump\t// in\n    tag_339:\n        /* \"#utility.yul\":8618:8621   */\n      dup5\n        /* \"#utility.yul\":8614:8653   */\n      add\n        /* \"#utility.yul\":8607:8653   */\n      swap2\n      pop\n        /* \"#utility.yul\":8384:8659   */\n      pop\n        /* \"#utility.yul\":8302:8659   */\n      swap3\n      swap2\n      pop\n      pop\n      jump\t// out\n        /* \"#utility.yul\":8665:8773   */\n    tag_207:\n        /* \"#utility.yul\":8742:8766   */\n      tag_341\n        /* \"#utility.yul\":8760:8765   */\n      dup2\n        /* \"#utility.yul\":8742:8766   */\n      tag_179\n      jump\t// in\n    tag_341:\n        /* \"#utility.yul\":8737:8740   */\n      dup3\n        /* \"#utility.yul\":8730:8767   */\n      mstore\n        /* \"#utility.yul\":8665:8773   */\n      pop\n      pop\n      jump\t// out\n        /* \"#utility.yul\":8779:8887   */\n    tag_208:\n        /* \"#utility.yul\":8856:8880   */\n      tag_343\n        /* \"#utility.yul\":8874:8879   */\n      dup2\n        /* \"#utility.yul\":8856:8880   */\n      tag_194\n      jump\t// in\n    tag_343:\n        /* \"#utility.yul\":8851:8854   */\n      dup3\n        /* \"#utility.yul\":8844:8881   */\n      mstore\n        /* \"#utility.yul\":8779:8887   */\n      pop\n      pop\n      jump\t// out\n        /* \"#utility.yul\":8987:10210   */\n    tag_209:\n        /* \"#utility.yul\":9108:9111   */\n      0x00\n        /* \"#utility.yul\":9144:9148   */\n      0xa0\n        /* \"#utility.yul\":9139:9142   */\n      dup4\n        /* \"#utility.yul\":9135:9149   */\n      add\n        /* \"#utility.yul\":9237:9241   */\n      0x00\n        /* \"#utility.yul\":9230:9235   */\n      dup4\n        /* \"#utility.yul\":9226:9242   */\n      add\n        /* \"#utility.yul\":9220:9243   */\n      mload\n        /* \"#utility.yul\":9290:9293   */\n      dup5\n        /* \"#utility.yul\":9284:9288   */\n      dup3\n        /* \"#utility.yul\":9280:9294   */\n      sub\n        /* \"#utility.yul\":9273:9277   */\n      0x00\n        /* \"#utility.yul\":9268:9271   */\n      dup7\n        /* \"#utility.yul\":9264:9278   */\n      add\n        /* \"#utility.yul\":9257:9295   */\n      mstore\n        /* \"#utility.yul\":9316:9389   */\n      tag_345\n        /* \"#utility.yul\":9384:9388   */\n      dup3\n        /* \"#utility.yul\":9370:9382   */\n      dup3\n        /* \"#utility.yul\":9316:9389   */\n      tag_206\n      jump\t// in\n    tag_345:\n        /* \"#utility.yul\":9308:9389   */\n      swap2\n      pop\n        /* \"#utility.yul\":9159:9400   */\n      pop\n        /* \"#utility.yul\":9487:9491   */\n      0x20\n        /* \"#utility.yul\":9480:9485   */\n      dup4\n        /* \"#utility.yul\":9476:9492   */\n      add\n        /* \"#utility.yul\":9470:9493   */\n      mload\n        /* \"#utility.yul\":9540:9543   */\n      dup5\n        /* \"#utility.yul\":9534:9538   */\n      dup3\n        /* \"#utility.yul\":9530:9544   */\n      sub\n        /* \"#utility.yul\":9523:9527   */\n      0x20\n        /* \"#utility.yul\":9518:9521   */\n      dup7\n        /* \"#utility.yul\":9514:9528   */\n      add\n        /* \"#utility.yul\":9507:9545   */\n      mstore\n        /* \"#utility.yul\":9566:9639   */\n      tag_346\n        /* \"#utility.yul\":9634:9638   */\n      dup3\n        /* \"#utility.yul\":9620:9632   */\n      dup3\n        /* \"#utility.yul\":9566:9639   */\n      tag_206\n      jump\t// in\n    tag_346:\n        /* \"#utility.yul\":9558:9639   */\n      swap2\n      pop\n        /* \"#utility.yul\":9410:9650   */\n      pop\n        /* \"#utility.yul\":9742:9746   */\n      0x40\n        /* \"#utility.yul\":9735:9740   */\n      dup4\n        /* \"#utility.yul\":9731:9747   */\n      add\n        /* \"#utility.yul\":9725:9748   */\n      mload\n        /* \"#utility.yul\":9761:9824   */\n      tag_347\n        /* \"#utility.yul\":9818:9822   */\n      0x40\n        /* \"#utility.yul\":9813:9816   */\n      dup7\n        /* \"#utility.yul\":9809:9823   */\n      add\n        /* \"#utility.yul\":9795:9807   */\n      dup3\n        /* \"#utility.yul\":9761:9824   */\n      tag_207\n      jump\t// in\n    tag_347:\n        /* \"#utility.yul\":9660:9834   */\n      pop\n        /* \"#utility.yul\":9917:9921   */\n      0x60\n        /* \"#utility.yul\":9910:9915   */\n      dup4\n        /* \"#utility.yul\":9906:9922   */\n      add\n        /* \"#utility.yul\":9900:9923   */\n      mload\n        /* \"#utility.yul\":9936:9999   */\n      tag_348\n        /* \"#utility.yul\":9993:9997   */\n      0x60\n        /* \"#utility.yul\":9988:9991   */\n      dup7\n        /* \"#utility.yul\":9984:9998   */\n      add\n        /* \"#utility.yul\":9970:9982   */\n      dup3\n        /* \"#utility.yul\":9936:9999   */\n      tag_208\n      jump\t// in\n    tag_348:\n        /* \"#utility.yul\":9844:10009   */\n      pop\n        /* \"#utility.yul\":10091:10095   */\n      0x80\n        /* \"#utility.yul\":10084:10089   */\n      dup4\n        /* \"#utility.yul\":10080:10096   */\n      add\n        /* \"#utility.yul\":10074:10097   */\n      mload\n        /* \"#utility.yul\":10110:10173   */\n      tag_349\n        /* \"#utility.yul\":10167:10171   */\n      0x80\n        /* \"#utility.yul\":10162:10165   */\n      dup7\n        /* \"#utility.yul\":10158:10172   */\n      add\n        /* \"#utility.yul\":10144:10156   */\n      dup3\n        /* \"#utility.yul\":10110:10173   */\n      tag_208\n      jump\t// in\n    tag_349:\n        /* \"#utility.yul\":10019:10183   */\n      pop\n        /* \"#utility.yul\":10200:10204   */\n      dup1\n        /* \"#utility.yul\":10193:10204   */\n      swap2\n      pop\n        /* \"#utility.yul\":9113:10210   */\n      pop\n        /* \"#utility.yul\":8987:10210   */\n      swap3\n      swap2\n      pop\n      pop\n      jump\t// out\n        /* \"#utility.yul\":10216:10496   */\n    tag_210:\n        /* \"#utility.yul\":10347:10357   */\n      0x00\n        /* \"#utility.yul\":10382:10490   */\n      tag_351\n        /* \"#utility.yul\":10486:10489   */\n      dup4\n        /* \"#utility.yul\":10478:10484   */\n      dup4\n        /* \"#utility.yul\":10382:10490   */\n      tag_209\n      jump\t// in\n    tag_351:\n        /* \"#utility.yul\":10368:10490   */\n      swap1\n      pop\n        /* \"#utility.yul\":10216:10496   */\n      swap3\n      swap2\n      pop\n      pop\n      jump\t// out\n        /* \"#utility.yul\":10502:10646   */\n    tag_211:\n        /* \"#utility.yul\":10603:10607   */\n      0x00\n        /* \"#utility.yul\":10635:10639   */\n      0x20\n        /* \"#utility.yul\":10630:10633   */\n      dup3\n        /* \"#utility.yul\":10626:10640   */\n      add\n        /* \"#utility.yul\":10618:10640   */\n      swap1\n      pop\n        /* \"#utility.yul\":10502:10646   */\n      swap2\n      swap1\n      pop\n      jump\t// out\n        /* \"#utility.yul\":10750:11909   */\n    tag_212:\n        /* \"#utility.yul\":10931:10934   */\n      0x00\n        /* \"#utility.yul\":10960:11045   */\n      tag_354\n        /* \"#utility.yul\":11039:11044   */\n      dup3\n        /* \"#utility.yul\":10960:11045   */\n      tag_202\n      jump\t// in\n    tag_354:\n        /* \"#utility.yul\":11061:11178   */\n      tag_355\n        /* \"#utility.yul\":11171:11177   */\n      dup2\n        /* \"#utility.yul\":11166:11169   */\n      dup6\n        /* \"#utility.yul\":11061:11178   */\n      tag_203\n      jump\t// in\n    tag_355:\n        /* \"#utility.yul\":11054:11178   */\n      swap4\n      pop\n        /* \"#utility.yul\":11204:11207   */\n      dup4\n        /* \"#utility.yul\":11249:11253   */\n      0x20\n        /* \"#utility.yul\":11241:11247   */\n      dup3\n        /* \"#utility.yul\":11237:11254   */\n      mul\n        /* \"#utility.yul\":11232:11235   */\n      dup6\n        /* \"#utility.yul\":11228:11255   */\n      add\n        /* \"#utility.yul\":11279:11366   */\n      tag_356\n        /* \"#utility.yul\":11360:11365   */\n      dup6\n        /* \"#utility.yul\":11279:11366   */\n      tag_204\n      jump\t// in\n    tag_356:\n        /* \"#utility.yul\":11389:11396   */\n      dup1\n        /* \"#utility.yul\":11420:11421   */\n      0x00\n        /* \"#utility.yul\":11405:11864   */\n    tag_357:\n        /* \"#utility.yul\":11430:11436   */\n      dup6\n        /* \"#utility.yul\":11427:11428   */\n      dup2\n        /* \"#utility.yul\":11424:11437   */\n      lt\n        /* \"#utility.yul\":11405:11864   */\n      iszero\n      tag_359\n      jumpi\n        /* \"#utility.yul\":11501:11510   */\n      dup5\n        /* \"#utility.yul\":11495:11499   */\n      dup5\n        /* \"#utility.yul\":11491:11511   */\n      sub\n        /* \"#utility.yul\":11486:11489   */\n      dup10\n        /* \"#utility.yul\":11479:11512   */\n      mstore\n        /* \"#utility.yul\":11552:11558   */\n      dup2\n        /* \"#utility.yul\":11546:11559   */\n      mload\n        /* \"#utility.yul\":11580:11706   */\n      tag_360\n        /* \"#utility.yul\":11701:11705   */\n      dup6\n        /* \"#utility.yul\":11686:11699   */\n      dup3\n        /* \"#utility.yul\":11580:11706   */\n      tag_210\n      jump\t// in\n    tag_360:\n        /* \"#utility.yul\":11572:11706   */\n      swap5\n      pop\n        /* \"#utility.yul\":11729:11820   */\n      tag_361\n        /* \"#utility.yul\":11813:11819   */\n      dup4\n        /* \"#utility.yul\":11729:11820   */\n      tag_211\n      jump\t// in\n    tag_361:\n        /* \"#utility.yul\":11719:11820   */\n      swap3\n      pop\n        /* \"#utility.yul\":11849:11853   */\n      0x20\n        /* \"#utility.yul\":11844:11847   */\n      dup11\n        /* \"#utility.yul\":11840:11854   */\n      add\n        /* \"#utility.yul\":11833:11854   */\n      swap10\n      pop\n        /* \"#utility.yul\":11465:11864   */\n      pop\n        /* \"#utility.yul\":11452:11453   */\n      0x01\n        /* \"#utility.yul\":11449:11450   */\n      dup2\n        /* \"#utility.yul\":11445:11454   */\n      add\n        /* \"#utility.yul\":11440:11454   */\n      swap1\n      pop\n        /* \"#utility.yul\":11405:11864   */\n      jump(tag_357)\n    tag_359:\n        /* \"#utility.yul\":11409:11423   */\n      pop\n        /* \"#utility.yul\":11880:11884   */\n      dup3\n        /* \"#utility.yul\":11873:11884   */\n      swap8\n      pop\n        /* \"#utility.yul\":11900:11903   */\n      dup8\n        /* \"#utility.yul\":11893:11903   */\n      swap6\n      pop\n        /* \"#utility.yul\":10936:11909   */\n      pop\n      pop\n      pop\n      pop\n      pop\n        /* \"#utility.yul\":10750:11909   */\n      swap3\n      swap2\n      pop\n      pop\n      jump\t// out\n        /* \"#utility.yul\":11915:12412   */\n    tag_34:\n        /* \"#utility.yul\":12120:12124   */\n      0x00\n        /* \"#utility.yul\":12158:12160   */\n      0x20\n        /* \"#utility.yul\":12147:12156   */\n      dup3\n        /* \"#utility.yul\":12143:12161   */\n      add\n        /* \"#utility.yul\":12135:12161   */\n      swap1\n      pop\n        /* \"#utility.yul\":12207:12216   */\n      dup2\n        /* \"#utility.yul\":12201:12205   */\n      dup2\n        /* \"#utility.yul\":12197:12217   */\n      sub\n        /* \"#utility.yul\":12193:12194   */\n      0x00\n        /* \"#utility.yul\":12182:12191   */\n      dup4\n        /* \"#utility.yul\":12178:12195   */\n      add\n        /* \"#utility.yul\":12171:12218   */\n      mstore\n        /* \"#utility.yul\":12235:12405   */\n      tag_363\n        /* \"#utility.yul\":12400:12404   */\n      dup2\n        /* \"#utility.yul\":12391:12397   */\n      dup5\n        /* \"#utility.yul\":12235:12405   */\n      tag_212\n      jump\t// in\n    tag_363:\n        /* \"#utility.yul\":12227:12405   */\n      swap1\n      pop\n        /* \"#utility.yul\":11915:12412   */\n      swap3\n      swap2\n      pop\n      pop\n      jump\t// out\n        /* \"#utility.yul\":12418:12747   */\n    tag_37:\n        /* \"#utility.yul\":12477:12483   */\n      0x00\n        /* \"#utility.yul\":12526:12528   */\n      0x20\n        /* \"#utility.yul\":12514:12523   */\n      dup3\n        /* \"#utility.yul\":12505:12512   */\n      dup5\n        /* \"#utility.yul\":12501:12524   */\n      sub\n        /* \"#utility.yul\":12497:12529   */\n      slt\n        /* \"#utility.yul\":12494:12613   */\n      iszero\n      tag_365\n      jumpi\n        /* \"#utility.yul\":12532:12611   */\n      tag_366\n      tag_176\n      jump\t// in\n    tag_366:\n        /* \"#utility.yul\":12494:12613   */\n    tag_365:\n        /* \"#utility.yul\":12652:12653   */\n      0x00\n        /* \"#utility.yul\":12677:12730   */\n      tag_367\n        /* \"#utility.yul\":12722:12729   */\n      dup5\n        /* \"#utility.yul\":12713:12719   */\n      dup3\n        /* \"#utility.yul\":12702:12711   */\n      dup6\n        /* \"#utility.yul\":12698:12720   */\n      add\n        /* \"#utility.yul\":12677:12730   */\n      tag_181\n      jump\t// in\n    tag_367:\n        /* \"#utility.yul\":12667:12730   */\n      swap2\n      pop\n        /* \"#utility.yul\":12623:12740   */\n      pop\n        /* \"#utility.yul\":12418:12747   */\n      swap3\n      swap2\n      pop\n      pop\n      jump\t// out\n        /* \"#utility.yul\":12753:14024   */\n    tag_44:\n        /* \"#utility.yul\":12868:12874   */\n      0x00\n        /* \"#utility.yul\":12876:12882   */\n      dup1\n        /* \"#utility.yul\":12884:12890   */\n      0x00\n        /* \"#utility.yul\":12892:12898   */\n      dup1\n        /* \"#utility.yul\":12900:12906   */\n      0x00\n        /* \"#utility.yul\":12949:12952   */\n      0xa0\n        /* \"#utility.yul\":12937:12946   */\n      dup7\n        /* \"#utility.yul\":12928:12935   */\n      dup9\n        /* \"#utility.yul\":12924:12947   */\n      sub\n        /* \"#utility.yul\":12920:12953   */\n      slt\n        /* \"#utility.yul\":12917:13037   */\n      iszero\n      tag_369\n      jumpi\n        /* \"#utility.yul\":12956:13035   */\n      tag_370\n      tag_176\n      jump\t// in\n    tag_370:\n        /* \"#utility.yul\":12917:13037   */\n    tag_369:\n        /* \"#utility.yul\":13104:13105   */\n      0x00\n        /* \"#utility.yul\":13093:13102   */\n      dup7\n        /* \"#utility.yul\":13089:13106   */\n      add\n        /* \"#utility.yul\":13076:13107   */\n      calldataload\n        /* \"#utility.yul\":13134:13152   */\n      0xffffffffffffffff\n        /* \"#utility.yul\":13126:13132   */\n      dup2\n        /* \"#utility.yul\":13123:13153   */\n      gt\n        /* \"#utility.yul\":13120:13237   */\n      iszero\n      tag_371\n      jumpi\n        /* \"#utility.yul\":13156:13235   */\n      tag_372\n      tag_177\n      jump\t// in\n    tag_372:\n        /* \"#utility.yul\":13120:13237   */\n    tag_371:\n        /* \"#utility.yul\":13261:13324   */\n      tag_373\n        /* \"#utility.yul\":13316:13323   */\n      dup9\n        /* \"#utility.yul\":13307:13313   */\n      dup3\n        /* \"#utility.yul\":13296:13305   */\n      dup10\n        /* \"#utility.yul\":13292:13314   */\n      add\n        /* \"#utility.yul\":13261:13324   */\n      tag_190\n      jump\t// in\n    tag_373:\n        /* \"#utility.yul\":13251:13324   */\n      swap6\n      pop\n        /* \"#utility.yul\":13047:13334   */\n      pop\n        /* \"#utility.yul\":13401:13403   */\n      0x20\n        /* \"#utility.yul\":13390:13399   */\n      dup7\n        /* \"#utility.yul\":13386:13404   */\n      add\n        /* \"#utility.yul\":13373:13405   */\n      calldataload\n        /* \"#utility.yul\":13432:13450   */\n      0xffffffffffffffff\n        /* \"#utility.yul\":13424:13430   */\n      dup2\n        /* \"#utility.yul\":13421:13451   */\n      gt\n        /* \"#utility.yul\":13418:13535   */\n      iszero\n      tag_374\n      jumpi\n        /* \"#utility.yul\":13454:13533   */\n      tag_375\n      tag_177\n      jump\t// in\n    tag_375:\n        /* \"#utility.yul\":13418:13535   */\n    tag_374:\n        /* \"#utility.yul\":13559:13622   */\n      tag_376\n        /* \"#utility.yul\":13614:13621   */\n      dup9\n        /* \"#utility.yul\":13605:13611   */\n      dup3\n        /* \"#utility.yul\":13594:13603   */\n      dup10\n        /* \"#utility.yul\":13590:13612   */\n      add\n        /* \"#utility.yul\":13559:13622   */\n      tag_190\n      jump\t// in\n    tag_376:\n        /* \"#utility.yul\":13549:13622   */\n      swap5\n      pop\n        /* \"#utility.yul\":13344:13632   */\n      pop\n        /* \"#utility.yul\":13671:13673   */\n      0x40\n        /* \"#utility.yul\":13697:13750   */\n      tag_377\n        /* \"#utility.yul\":13742:13749   */\n      dup9\n        /* \"#utility.yul\":13733:13739   */\n      dup3\n        /* \"#utility.yul\":13722:13731   */\n      dup10\n        /* \"#utility.yul\":13718:13740   */\n      add\n        /* \"#utility.yul\":13697:13750   */\n      tag_181\n      jump\t// in\n    tag_377:\n        /* \"#utility.yul\":13687:13750   */\n      swap4\n      pop\n        /* \"#utility.yul\":13642:13760   */\n      pop\n        /* \"#utility.yul\":13799:13801   */\n      0x60\n        /* \"#utility.yul\":13825:13878   */\n      tag_378\n        /* \"#utility.yul\":13870:13877   */\n      dup9\n        /* \"#utility.yul\":13861:13867   */\n      dup3\n        /* \"#utility.yul\":13850:13859   */\n      dup10\n        /* \"#utility.yul\":13846:13868   */\n      add\n        /* \"#utility.yul\":13825:13878   */\n      tag_196\n      jump\t// in\n    tag_378:\n        /* \"#utility.yul\":13815:13878   */\n      swap3\n      pop\n        /* \"#utility.yul\":13770:13888   */\n      pop\n        /* \"#utility.yul\":13927:13930   */\n      0x80\n        /* \"#utility.yul\":13954:14007   */\n      tag_379\n        /* \"#utility.yul\":13999:14006   */\n      dup9\n        /* \"#utility.yul\":13990:13996   */\n      dup3\n        /* \"#utility.yul\":13979:13988   */\n      dup10\n        /* \"#utility.yul\":13975:13997   */\n      add\n        /* \"#utility.yul\":13954:14007   */\n      tag_196\n      jump\t// in\n    tag_379:\n        /* \"#utility.yul\":13944:14007   */\n      swap2\n      pop\n        /* \"#utility.yul\":13898:14017   */\n      pop\n        /* \"#utility.yul\":12753:14024   */\n      swap3\n      swap6\n      pop\n      swap3\n      swap6\n      swap1\n      swap4\n      pop\n      jump\t// out\n        /* \"#utility.yul\":14124:15357   */\n    tag_213:\n        /* \"#utility.yul\":14255:14258   */\n      0x00\n        /* \"#utility.yul\":14291:14295   */\n      0xa0\n        /* \"#utility.yul\":14286:14289   */\n      dup4\n        /* \"#utility.yul\":14282:14296   */\n      add\n        /* \"#utility.yul\":14384:14388   */\n      0x00\n        /* \"#utility.yul\":14377:14382   */\n      dup4\n        /* \"#utility.yul\":14373:14389   */\n      add\n        /* \"#utility.yul\":14367:14390   */\n      mload\n        /* \"#utility.yul\":14437:14440   */\n      dup5\n        /* \"#utility.yul\":14431:14435   */\n      dup3\n        /* \"#utility.yul\":14427:14441   */\n      sub\n        /* \"#utility.yul\":14420:14424   */\n      0x00\n        /* \"#utility.yul\":14415:14418   */\n      dup7\n        /* \"#utility.yul\":14411:14425   */\n      add\n        /* \"#utility.yul\":14404:14442   */\n      mstore\n        /* \"#utility.yul\":14463:14536   */\n      tag_381\n        /* \"#utility.yul\":14531:14535   */\n      dup3\n        /* \"#utility.yul\":14517:14529   */\n      dup3\n        /* \"#utility.yul\":14463:14536   */\n      tag_206\n      jump\t// in\n    tag_381:\n        /* \"#utility.yul\":14455:14536   */\n      swap2\n      pop\n        /* \"#utility.yul\":14306:14547   */\n      pop\n        /* \"#utility.yul\":14634:14638   */\n      0x20\n        /* \"#utility.yul\":14627:14632   */\n      dup4\n        /* \"#utility.yul\":14623:14639   */\n      add\n        /* \"#utility.yul\":14617:14640   */\n      mload\n        /* \"#utility.yul\":14687:14690   */\n      dup5\n        /* \"#utility.yul\":14681:14685   */\n      dup3\n        /* \"#utility.yul\":14677:14691   */\n      sub\n        /* \"#utility.yul\":14670:14674   */\n      0x20\n        /* \"#utility.yul\":14665:14668   */\n      dup7\n        /* \"#utility.yul\":14661:14675   */\n      add\n        /* \"#utility.yul\":14654:14692   */\n      mstore\n        /* \"#utility.yul\":14713:14786   */\n      tag_382\n        /* \"#utility.yul\":14781:14785   */\n      dup3\n        /* \"#utility.yul\":14767:14779   */\n      dup3\n        /* \"#utility.yul\":14713:14786   */\n      tag_206\n      jump\t// in\n    tag_382:\n        /* \"#utility.yul\":14705:14786   */\n      swap2\n      pop\n        /* \"#utility.yul\":14557:14797   */\n      pop\n        /* \"#utility.yul\":14889:14893   */\n      0x40\n        /* \"#utility.yul\":14882:14887   */\n      dup4\n        /* \"#utility.yul\":14878:14894   */\n      add\n        /* \"#utility.yul\":14872:14895   */\n      mload\n        /* \"#utility.yul\":14908:14971   */\n      tag_383\n        /* \"#utility.yul\":14965:14969   */\n      0x40\n        /* \"#utility.yul\":14960:14963   */\n      dup7\n        /* \"#utility.yul\":14956:14970   */\n      add\n        /* \"#utility.yul\":14942:14954   */\n      dup3\n        /* \"#utility.yul\":14908:14971   */\n      tag_207\n      jump\t// in\n    tag_383:\n        /* \"#utility.yul\":14807:14981   */\n      pop\n        /* \"#utility.yul\":15064:15068   */\n      0x60\n        /* \"#utility.yul\":15057:15062   */\n      dup4\n        /* \"#utility.yul\":15053:15069   */\n      add\n        /* \"#utility.yul\":15047:15070   */\n      mload\n        /* \"#utility.yul\":15083:15146   */\n      tag_384\n        /* \"#utility.yul\":15140:15144   */\n      0x60\n        /* \"#utility.yul\":15135:15138   */\n      dup7\n        /* \"#utility.yul\":15131:15145   */\n      add\n        /* \"#utility.yul\":15117:15129   */\n      dup3\n        /* \"#utility.yul\":15083:15146   */\n      tag_208\n      jump\t// in\n    tag_384:\n        /* \"#utility.yul\":14991:15156   */\n      pop\n        /* \"#utility.yul\":15238:15242   */\n      0x80\n        /* \"#utility.yul\":15231:15236   */\n      dup4\n        /* \"#utility.yul\":15227:15243   */\n      add\n        /* \"#utility.yul\":15221:15244   */\n      mload\n        /* \"#utility.yul\":15257:15320   */\n      tag_385\n        /* \"#utility.yul\":15314:15318   */\n      0x80\n        /* \"#utility.yul\":15309:15312   */\n      dup7\n        /* \"#utility.yul\":15305:15319   */\n      add\n        /* \"#utility.yul\":15291:15303   */\n      dup3\n        /* \"#utility.yul\":15257:15320   */\n      tag_208\n      jump\t// in\n    tag_385:\n        /* \"#utility.yul\":15166:15330   */\n      pop\n        /* \"#utility.yul\":15347:15351   */\n      dup1\n        /* \"#utility.yul\":15340:15351   */\n      swap2\n      pop\n        /* \"#utility.yul\":14260:15357   */\n      pop\n        /* \"#utility.yul\":14124:15357   */\n      swap3\n      swap2\n      pop\n      pop\n      jump\t// out\n        /* \"#utility.yul\":15363:15760   */\n    tag_50:\n        /* \"#utility.yul\":15518:15522   */\n      0x00\n        /* \"#utility.yul\":15556:15558   */\n      0x20\n        /* \"#utility.yul\":15545:15554   */\n      dup3\n        /* \"#utility.yul\":15541:15559   */\n      add\n        /* \"#utility.yul\":15533:15559   */\n      swap1\n      pop\n        /* \"#utility.yul\":15605:15614   */\n      dup2\n        /* \"#utility.yul\":15599:15603   */\n      dup2\n        /* \"#utility.yul\":15595:15615   */\n      sub\n        /* \"#utility.yul\":15591:15592   */\n      0x00\n        /* \"#utility.yul\":15580:15589   */\n      dup4\n        /* \"#utility.yul\":15576:15593   */\n      add\n        /* \"#utility.yul\":15569:15616   */\n      mstore\n        /* \"#utility.yul\":15633:15753   */\n      tag_387\n        /* \"#utility.yul\":15748:15752   */\n      dup2\n        /* \"#utility.yul\":15739:15745   */\n      dup5\n        /* \"#utility.yul\":15633:15753   */\n      tag_213\n      jump\t// in\n    tag_387:\n        /* \"#utility.yul\":15625:15753   */\n      swap1\n      pop\n        /* \"#utility.yul\":15363:15760   */\n      swap3\n      swap2\n      pop\n      pop\n      jump\t// out\n        /* \"#utility.yul\":15766:15860   */\n    tag_214:\n        /* \"#utility.yul\":15799:15807   */\n      0x00\n        /* \"#utility.yul\":15847:15852   */\n      dup2\n        /* \"#utility.yul\":15843:15845   */\n      0x60\n        /* \"#utility.yul\":15839:15853   */\n      shl\n        /* \"#utility.yul\":15818:15853   */\n      swap1\n      pop\n        /* \"#utility.yul\":15766:15860   */\n      swap2\n      swap1\n      pop\n      jump\t// out\n        /* \"#utility.yul\":15866:15960   */\n    tag_215:\n        /* \"#utility.yul\":15905:15912   */\n      0x00\n        /* \"#utility.yul\":15934:15954   */\n      tag_390\n        /* \"#utility.yul\":15948:15953   */\n      dup3\n        /* \"#utility.yul\":15934:15954   */\n      tag_214\n      jump\t// in\n    tag_390:\n        /* \"#utility.yul\":15923:15954   */\n      swap1\n      pop\n        /* \"#utility.yul\":15866:15960   */\n      swap2\n      swap1\n      pop\n      jump\t// out\n        /* \"#utility.yul\":15966:16066   */\n    tag_216:\n        /* \"#utility.yul\":16005:16012   */\n      0x00\n        /* \"#utility.yul\":16034:16060   */\n      tag_392\n        /* \"#utility.yul\":16054:16059   */\n      dup3\n        /* \"#utility.yul\":16034:16060   */\n      tag_215\n      jump\t// in\n    tag_392:\n        /* \"#utility.yul\":16023:16060   */\n      swap1\n      pop\n        /* \"#utility.yul\":15966:16066   */\n      swap2\n      swap1\n      pop\n      jump\t// out\n        /* \"#utility.yul\":16072:16229   */\n    tag_217:\n        /* \"#utility.yul\":16177:16222   */\n      tag_394\n        /* \"#utility.yul\":16197:16221   */\n      tag_395\n        /* \"#utility.yul\":16215:16220   */\n      dup3\n        /* \"#utility.yul\":16197:16221   */\n      tag_179\n      jump\t// in\n    tag_395:\n        /* \"#utility.yul\":16177:16222   */\n      tag_216\n      jump\t// in\n    tag_394:\n        /* \"#utility.yul\":16172:16175   */\n      dup3\n        /* \"#utility.yul\":16165:16223   */\n      mstore\n        /* \"#utility.yul\":16072:16229   */\n      pop\n      pop\n      jump\t// out\n        /* \"#utility.yul\":16235:16491   */\n    tag_59:\n        /* \"#utility.yul\":16347:16350   */\n      0x00\n        /* \"#utility.yul\":16362:16437   */\n      tag_397\n        /* \"#utility.yul\":16433:16436   */\n      dup3\n        /* \"#utility.yul\":16424:16430   */\n      dup5\n        /* \"#utility.yul\":16362:16437   */\n      tag_217\n      jump\t// in\n    tag_397:\n        /* \"#utility.yul\":16462:16464   */\n      0x14\n        /* \"#utility.yul\":16457:16460   */\n      dup3\n        /* \"#utility.yul\":16453:16465   */\n      add\n        /* \"#utility.yul\":16446:16465   */\n      swap2\n      pop\n        /* \"#utility.yul\":16482:16485   */\n      dup2\n        /* \"#utility.yul\":16475:16485   */\n      swap1\n      pop\n        /* \"#utility.yul\":16235:16491   */\n      swap3\n      swap2\n      pop\n      pop\n      jump\t// out\n        /* \"#utility.yul\":16497:16677   */\n    tag_62:\n        /* \"#utility.yul\":16545:16622   */\n      0x4e487b7100000000000000000000000000000000000000000000000000000000\n        /* \"#utility.yul\":16542:16543   */\n      0x00\n        /* \"#utility.yul\":16535:16623   */\n      mstore\n        /* \"#utility.yul\":16642:16646   */\n      0x32\n        /* \"#utility.yul\":16639:16640   */\n      0x04\n        /* \"#utility.yul\":16632:16647   */\n      mstore\n        /* \"#utility.yul\":16666:16670   */\n      0x24\n        /* \"#utility.yul\":16663:16664   */\n      0x00\n        /* \"#utility.yul\":16656:16671   */\n      revert\n        /* \"#utility.yul\":16683:16831   */\n    tag_218:\n        /* \"#utility.yul\":16785:16796   */\n      0x00\n        /* \"#utility.yul\":16822:16825   */\n      dup2\n        /* \"#utility.yul\":16807:16825   */\n      swap1\n      pop\n        /* \"#utility.yul\":16683:16831   */\n      swap3\n      swap2\n      pop\n      pop\n      jump\t// out\n        /* \"#utility.yul\":16837:17227   */\n    tag_219:\n        /* \"#utility.yul\":16943:16946   */\n      0x00\n        /* \"#utility.yul\":16971:17010   */\n      tag_401\n        /* \"#utility.yul\":17004:17009   */\n      dup3\n        /* \"#utility.yul\":16971:17010   */\n      tag_197\n      jump\t// in\n    tag_401:\n        /* \"#utility.yul\":17026:17115   */\n      tag_402\n        /* \"#utility.yul\":17108:17114   */\n      dup2\n        /* \"#utility.yul\":17103:17106   */\n      dup6\n        /* \"#utility.yul\":17026:17115   */\n      tag_218\n      jump\t// in\n    tag_402:\n        /* \"#utility.yul\":17019:17115   */\n      swap4\n      pop\n        /* \"#utility.yul\":17124:17189   */\n      tag_403\n        /* \"#utility.yul\":17182:17188   */\n      dup2\n        /* \"#utility.yul\":17177:17180   */\n      dup6\n        /* \"#utility.yul\":17170:17174   */\n      0x20\n        /* \"#utility.yul\":17163:17168   */\n      dup7\n        /* \"#utility.yul\":17159:17175   */\n      add\n        /* \"#utility.yul\":17124:17189   */\n      tag_199\n      jump\t// in\n    tag_403:\n        /* \"#utility.yul\":17214:17220   */\n      dup1\n        /* \"#utility.yul\":17209:17212   */\n      dup5\n        /* \"#utility.yul\":17205:17221   */\n      add\n        /* \"#utility.yul\":17198:17221   */\n      swap2\n      pop\n        /* \"#utility.yul\":16947:17227   */\n      pop\n        /* \"#utility.yul\":16837:17227   */\n      swap3\n      swap2\n      pop\n      pop\n      jump\t// out\n        /* \"#utility.yul\":17233:17508   */\n    tag_67:\n        /* \"#utility.yul\":17365:17368   */\n      0x00\n        /* \"#utility.yul\":17387:17482   */\n      tag_405\n        /* \"#utility.yul\":17478:17481   */\n      dup3\n        /* \"#utility.yul\":17469:17475   */\n      dup5\n        /* \"#utility.yul\":17387:17482   */\n      tag_219\n      jump\t// in\n    tag_405:\n        /* \"#utility.yul\":17380:17482   */\n      swap2\n      pop\n        /* \"#utility.yul\":17499:17502   */\n      dup2\n        /* \"#utility.yul\":17492:17502   */\n      swap1\n      pop\n        /* \"#utility.yul\":17233:17508   */\n      swap3\n      swap2\n      pop\n      pop\n      jump\t// out\n        /* \"#utility.yul\":17514:17694   */\n    tag_220:\n        /* \"#utility.yul\":17562:17639   */\n      0x4e487b7100000000000000000000000000000000000000000000000000000000\n        /* \"#utility.yul\":17559:17560   */\n      0x00\n        /* \"#utility.yul\":17552:17640   */\n      mstore\n        /* \"#utility.yul\":17659:17663   */\n      0x22\n        /* \"#utility.yul\":17656:17657   */\n      0x04\n        /* \"#utility.yul\":17649:17664   */\n      mstore\n        /* \"#utility.yul\":17683:17687   */\n      0x24\n        /* \"#utility.yul\":17680:17681   */\n      0x00\n        /* \"#utility.yul\":17673:17688   */\n      revert\n        /* \"#utility.yul\":17700:18020   */\n    tag_77:\n        /* \"#utility.yul\":17744:17750   */\n      0x00\n        /* \"#utility.yul\":17781:17782   */\n      0x02\n        /* \"#utility.yul\":17775:17779   */\n      dup3\n        /* \"#utility.yul\":17771:17783   */\n      div\n        /* \"#utility.yul\":17761:17783   */\n      swap1\n      pop\n        /* \"#utility.yul\":17828:17829   */\n      0x01\n        /* \"#utility.yul\":17822:17826   */\n      dup3\n        /* \"#utility.yul\":17818:17830   */\n      and\n        /* \"#utility.yul\":17849:17867   */\n      dup1\n        /* \"#utility.yul\":17839:17920   */\n      tag_408\n      jumpi\n        /* \"#utility.yul\":17905:17909   */\n      0x7f\n        /* \"#utility.yul\":17897:17903   */\n      dup3\n        /* \"#utility.yul\":17893:17910   */\n      and\n        /* \"#utility.yul\":17883:17910   */\n      swap2\n      pop\n        /* \"#utility.yul\":17839:17920   */\n    tag_408:\n        /* \"#utility.yul\":17967:17969   */\n      0x20\n        /* \"#utility.yul\":17959:17965   */\n      dup3\n        /* \"#utility.yul\":17956:17970   */\n      lt\n        /* \"#utility.yul\":17936:17954   */\n      dup2\n        /* \"#utility.yul\":17933:17971   */\n      sub\n        /* \"#utility.yul\":17930:18014   */\n      tag_409\n      jumpi\n        /* \"#utility.yul\":17986:18004   */\n      tag_410\n      tag_220\n      jump\t// in\n    tag_410:\n        /* \"#utility.yul\":17930:18014   */\n    tag_409:\n        /* \"#utility.yul\":17751:18020   */\n      pop\n        /* \"#utility.yul\":17700:18020   */\n      swap2\n      swap1\n      pop\n      jump\t// out\n        /* \"#utility.yul\":18026:18167   */\n    tag_221:\n        /* \"#utility.yul\":18075:18079   */\n      0x00\n        /* \"#utility.yul\":18098:18101   */\n      dup2\n        /* \"#utility.yul\":18090:18101   */\n      swap1\n      pop\n        /* \"#utility.yul\":18121:18124   */\n      dup2\n        /* \"#utility.yul\":18118:18119   */\n      0x00\n        /* \"#utility.yul\":18111:18125   */\n      mstore\n        /* \"#utility.yul\":18155:18159   */\n      0x20\n        /* \"#utility.yul\":18152:18153   */\n      0x00\n        /* \"#utility.yul\":18142:18160   */\n      keccak256\n        /* \"#utility.yul\":18134:18160   */\n      swap1\n      pop\n        /* \"#utility.yul\":18026:18167   */\n      swap2\n      swap1\n      pop\n      jump\t// out\n        /* \"#utility.yul\":18197:19071   */\n    tag_222:\n        /* \"#utility.yul\":18300:18303   */\n      0x00\n        /* \"#utility.yul\":18337:18342   */\n      dup2\n        /* \"#utility.yul\":18331:18343   */\n      sload\n        /* \"#utility.yul\":18366:18402   */\n      tag_413\n        /* \"#utility.yul\":18392:18401   */\n      dup2\n        /* \"#utility.yul\":18366:18402   */\n      tag_77\n      jump\t// in\n    tag_413:\n        /* \"#utility.yul\":18418:18507   */\n      tag_414\n        /* \"#utility.yul\":18500:18506   */\n      dup2\n        /* \"#utility.yul\":18495:18498   */\n      dup7\n        /* \"#utility.yul\":18418:18507   */\n      tag_218\n      jump\t// in\n    tag_414:\n        /* \"#utility.yul\":18411:18507   */\n      swap5\n      pop\n        /* \"#utility.yul\":18538:18539   */\n      0x01\n        /* \"#utility.yul\":18527:18536   */\n      dup3\n        /* \"#utility.yul\":18523:18540   */\n      and\n        /* \"#utility.yul\":18554:18555   */\n      0x00\n        /* \"#utility.yul\":18549:18715   */\n      dup2\n      eq\n      tag_416\n      jumpi\n        /* \"#utility.yul\":18729:18730   */\n      0x01\n        /* \"#utility.yul\":18724:19065   */\n      dup2\n      eq\n      tag_417\n      jumpi\n        /* \"#utility.yul\":18516:19065   */\n      jump(tag_415)\n        /* \"#utility.yul\":18549:18715   */\n    tag_416:\n        /* \"#utility.yul\":18633:18637   */\n      0xff\n        /* \"#utility.yul\":18629:18638   */\n      not\n        /* \"#utility.yul\":18618:18627   */\n      dup4\n        /* \"#utility.yul\":18614:18639   */\n      and\n        /* \"#utility.yul\":18609:18612   */\n      dup7\n        /* \"#utility.yul\":18602:18640   */\n      mstore\n        /* \"#utility.yul\":18695:18701   */\n      dup2\n        /* \"#utility.yul\":18688:18702   */\n      iszero\n        /* \"#utility.yul\":18681:18703   */\n      iszero\n        /* \"#utility.yul\":18673:18679   */\n      dup3\n        /* \"#utility.yul\":18669:18704   */\n      mul\n        /* \"#utility.yul\":18664:18667   */\n      dup7\n        /* \"#utility.yul\":18660:18705   */\n      add\n        /* \"#utility.yul\":18653:18705   */\n      swap4\n      pop\n        /* \"#utility.yul\":18549:18715   */\n      jump(tag_415)\n        /* \"#utility.yul\":18724:19065   */\n    tag_417:\n        /* \"#utility.yul\":18791:18829   */\n      tag_418\n        /* \"#utility.yul\":18823:18828   */\n      dup6\n        /* \"#utility.yul\":18791:18829   */\n      tag_221\n      jump\t// in\n    tag_418:\n        /* \"#utility.yul\":18851:18852   */\n      0x00\n        /* \"#utility.yul\":18865:19019   */\n    tag_419:\n        /* \"#utility.yul\":18879:18885   */\n      dup4\n        /* \"#utility.yul\":18876:18877   */\n      dup2\n        /* \"#utility.yul\":18873:18886   */\n      lt\n        /* \"#utility.yul\":18865:19019   */\n      iszero\n      tag_421\n      jumpi\n        /* \"#utility.yul\":18953:18960   */\n      dup2\n        /* \"#utility.yul\":18947:18961   */\n      sload\n        /* \"#utility.yul\":18943:18944   */\n      dup2\n        /* \"#utility.yul\":18938:18941   */\n      dup10\n        /* \"#utility.yul\":18934:18945   */\n      add\n        /* \"#utility.yul\":18927:18962   */\n      mstore\n        /* \"#utility.yul\":19003:19004   */\n      0x01\n        /* \"#utility.yul\":18994:19001   */\n      dup3\n        /* \"#utility.yul\":18990:19005   */\n      add\n        /* \"#utility.yul\":18979:19005   */\n      swap2\n      pop\n        /* \"#utility.yul\":18901:18905   */\n      0x20\n        /* \"#utility.yul\":18898:18899   */\n      dup2\n        /* \"#utility.yul\":18894:18906   */\n      add\n        /* \"#utility.yul\":18889:18906   */\n      swap1\n      pop\n        /* \"#utility.yul\":18865:19019   */\n      jump(tag_419)\n    tag_421:\n        /* \"#utility.yul\":19048:19054   */\n      dup4\n        /* \"#utility.yul\":19043:19046   */\n      dup9\n        /* \"#utility.yul\":19039:19055   */\n      add\n        /* \"#utility.yul\":19032:19055   */\n      swap6\n      pop\n        /* \"#utility.yul\":18731:19065   */\n      pop\n      pop\n        /* \"#utility.yul\":18516:19065   */\n    tag_415:\n      pop\n        /* \"#utility.yul\":18304:19071   */\n      pop\n      pop\n        /* \"#utility.yul\":18197:19071   */\n      swap3\n      swap2\n      pop\n      pop\n      jump\t// out\n        /* \"#utility.yul\":19077:19346   */\n    tag_72:\n        /* \"#utility.yul\":19206:19209   */\n      0x00\n        /* \"#utility.yul\":19228:19320   */\n      tag_423\n        /* \"#utility.yul\":19316:19319   */\n      dup3\n        /* \"#utility.yul\":19307:19313   */\n      dup5\n        /* \"#utility.yul\":19228:19320   */\n      tag_222\n      jump\t// in\n    tag_423:\n        /* \"#utility.yul\":19221:19320   */\n      swap2\n      pop\n        /* \"#utility.yul\":19337:19340   */\n      dup2\n        /* \"#utility.yul\":19330:19340   */\n      swap1\n      pop\n        /* \"#utility.yul\":19077:19346   */\n      swap3\n      swap2\n      pop\n      pop\n      jump\t// out\n        /* \"#utility.yul\":19352:19532   */\n    tag_223:\n        /* \"#utility.yul\":19400:19477   */\n      0x4e487b7100000000000000000000000000000000000000000000000000000000\n        /* \"#utility.yul\":19397:19398   */\n      0x00\n        /* \"#utility.yul\":19390:19478   */\n      mstore\n        /* \"#utility.yul\":19497:19501   */\n      0x11\n        /* \"#utility.yul\":19494:19495   */\n      0x04\n        /* \"#utility.yul\":19487:19502   */\n      mstore\n        /* \"#utility.yul\":19521:19525   */\n      0x24\n        /* \"#utility.yul\":19518:19519   */\n      0x00\n        /* \"#utility.yul\":19511:19526   */\n      revert\n        /* \"#utility.yul\":19538:19771   */\n    tag_120:\n        /* \"#utility.yul\":19577:19580   */\n      0x00\n        /* \"#utility.yul\":19600:19624   */\n      tag_426\n        /* \"#utility.yul\":19618:19623   */\n      dup3\n        /* \"#utility.yul\":19600:19624   */\n      tag_194\n      jump\t// in\n    tag_426:\n        /* \"#utility.yul\":19591:19624   */\n      swap2\n      pop\n        /* \"#utility.yul\":19646:19712   */\n      0xffffffffffffffffffffffffffffffffffffffffffffffffffffffffffffffff\n        /* \"#utility.yul\":19639:19644   */\n      dup3\n        /* \"#utility.yul\":19636:19713   */\n      sub\n        /* \"#utility.yul\":19633:19736   */\n      tag_427\n      jumpi\n        /* \"#utility.yul\":19716:19734   */\n      tag_428\n      tag_223\n      jump\t// in\n    tag_428:\n        /* \"#utility.yul\":19633:19736   */\n    tag_427:\n        /* \"#utility.yul\":19763:19764   */\n      0x01\n        /* \"#utility.yul\":19756:19761   */\n      dup3\n        /* \"#utility.yul\":19752:19765   */\n      add\n        /* \"#utility.yul\":19745:19765   */\n      swap1\n      pop\n        /* \"#utility.yul\":19538:19771   */\n      swap2\n      swap1\n      pop\n      jump\t// out\n        /* \"#utility.yul\":19777:20005   */\n    tag_224:\n        /* \"#utility.yul\":19917:19951   */\n      0x4f6e6c792063616d706169676e20636f6e74726163742063616c6c2074686973\n        /* \"#utility.yul\":19913:19914   */\n      0x00\n        /* \"#utility.yul\":19905:19911   */\n      dup3\n        /* \"#utility.yul\":19901:19915   */\n      add\n        /* \"#utility.yul\":19894:19952   */\n      mstore\n        /* \"#utility.yul\":19986:19997   */\n      0x2066756e6374696f6e0000000000000000000000000000000000000000000000\n        /* \"#utility.yul\":19981:19983   */\n      0x20\n        /* \"#utility.yul\":19973:19979   */\n      dup3\n        /* \"#utility.yul\":19969:19984   */\n      add\n        /* \"#utility.yul\":19962:19998   */\n      mstore\n        /* \"#utility.yul\":19777:20005   */\n      pop\n      jump\t// out\n        /* \"#utility.yul\":20011:20377   */\n    tag_225:\n        /* \"#utility.yul\":20153:20156   */\n      0x00\n        /* \"#utility.yul\":20174:20241   */\n      tag_431\n        /* \"#utility.yul\":20238:20240   */\n      0x29\n        /* \"#utility.yul\":20233:20236   */\n      dup4\n        /* \"#utility.yul\":20174:20241   */\n      tag_198\n      jump\t// in\n    tag_431:\n        /* \"#utility.yul\":20167:20241   */\n      swap2\n      pop\n        /* \"#utility.yul\":20250:20343   */\n      tag_432\n        /* \"#utility.yul\":20339:20342   */\n      dup3\n        /* \"#utility.yul\":20250:20343   */\n      tag_224\n      jump\t// in\n    tag_432:\n        /* \"#utility.yul\":20368:20370   */\n      0x40\n        /* \"#utility.yul\":20363:20366   */\n      dup3\n        /* \"#utility.yul\":20359:20371   */\n      add\n        /* \"#utility.yul\":20352:20371   */\n      swap1\n      pop\n        /* \"#utility.yul\":20011:20377   */\n      swap2\n      swap1\n      pop\n      jump\t// out\n        /* \"#utility.yul\":20383:20802   */\n    tag_124:\n        /* \"#utility.yul\":20549:20553   */\n      0x00\n        /* \"#utility.yul\":20587:20589   */\n      0x20\n        /* \"#utility.yul\":20576:20585   */\n      dup3\n        /* \"#utility.yul\":20572:20590   */\n      add\n        /* \"#utility.yul\":20564:20590   */\n      swap1\n      pop\n        /* \"#utility.yul\":20636:20645   */\n      dup2\n        /* \"#utility.yul\":20630:20634   */\n      dup2\n        /* \"#utility.yul\":20626:20646   */\n      sub\n        /* \"#utility.yul\":20622:20623   */\n      0x00\n        /* \"#utility.yul\":20611:20620   */\n      dup4\n        /* \"#utility.yul\":20607:20624   */\n      add\n        /* \"#utility.yul\":20600:20647   */\n      mstore\n        /* \"#utility.yul\":20664:20795   */\n      tag_434\n        /* \"#utility.yul\":20790:20794   */\n      dup2\n        /* \"#utility.yul\":20664:20795   */\n      tag_225\n      jump\t// in\n    tag_434:\n        /* \"#utility.yul\":20656:20795   */\n      swap1\n      pop\n        /* \"#utility.yul\":20383:20802   */\n      swap2\n      swap1\n      pop\n      jump\t// out\n        /* \"#utility.yul\":20808:20901   */\n    tag_226:\n        /* \"#utility.yul\":20845:20851   */\n      0x00\n        /* \"#utility.yul\":20892:20894   */\n      0x20\n        /* \"#utility.yul\":20887:20889   */\n      0x1f\n        /* \"#utility.yul\":20880:20885   */\n      dup4\n        /* \"#utility.yul\":20876:20890   */\n      add\n        /* \"#utility.yul\":20872:20895   */\n      div\n        /* \"#utility.yul\":20862:20895   */\n      swap1\n      pop\n        /* \"#utility.yul\":20808:20901   */\n      swap2\n      swap1\n      pop\n      jump\t// out\n        /* \"#utility.yul\":20907:21014   */\n    tag_227:\n        /* \"#utility.yul\":20951:20959   */\n      0x00\n        /* \"#utility.yul\":21001:21006   */\n      dup3\n        /* \"#utility.yul\":20995:20999   */\n      dup3\n        /* \"#utility.yul\":20991:21007   */\n      shl\n        /* \"#utility.yul\":20970:21007   */\n      swap1\n      pop\n        /* \"#utility.yul\":20907:21014   */\n      swap3\n      swap2\n      pop\n      pop\n      jump\t// out\n        /* \"#utility.yul\":21020:21413   */\n    tag_228:\n        /* \"#utility.yul\":21089:21095   */\n      0x00\n        /* \"#utility.yul\":21139:21140   */\n      0x08\n        /* \"#utility.yul\":21127:21137   */\n      dup4\n        /* \"#utility.yul\":21123:21141   */\n      mul\n        /* \"#utility.yul\":21162:21259   */\n      tag_438\n        /* \"#utility.yul\":21192:21258   */\n      0xffffffffffffffffffffffffffffffffffffffffffffffffffffffffffffffff\n        /* \"#utility.yul\":21181:21190   */\n      dup3\n        /* \"#utility.yul\":21162:21259   */\n      tag_227\n      jump\t// in\n    tag_438:\n        /* \"#utility.yul\":21280:21319   */\n      tag_439\n        /* \"#utility.yul\":21310:21318   */\n      dup7\n        /* \"#utility.yul\":21299:21308   */\n      dup4\n        /* \"#utility.yul\":21280:21319   */\n      tag_227\n      jump\t// in\n    tag_439:\n        /* \"#utility.yul\":21268:21319   */\n      swap6\n      pop\n        /* \"#utility.yul\":21352:21356   */\n      dup1\n        /* \"#utility.yul\":21348:21357   */\n      not\n        /* \"#utility.yul\":21341:21346   */\n      dup5\n        /* \"#utility.yul\":21337:21358   */\n      and\n        /* \"#utility.yul\":21328:21358   */\n      swap4\n      pop\n        /* \"#utility.yul\":21401:21405   */\n      dup1\n        /* \"#utility.yul\":21391:21399   */\n      dup7\n        /* \"#utility.yul\":21387:21406   */\n      and\n        /* \"#utility.yul\":21380:21385   */\n      dup5\n        /* \"#utility.yul\":21377:21407   */\n      or\n        /* \"#utility.yul\":21367:21407   */\n      swap3\n      pop\n        /* \"#utility.yul\":21096:21413   */\n      pop\n      pop\n        /* \"#utility.yul\":21020:21413   */\n      swap4\n      swap3\n      pop\n      pop\n      pop\n      jump\t// out\n        /* \"#utility.yul\":21419:21479   */\n    tag_229:\n        /* \"#utility.yul\":21447:21450   */\n      0x00\n        /* \"#utility.yul\":21468:21473   */\n      dup2\n        /* \"#utility.yul\":21461:21473   */\n      swap1\n      pop\n        /* \"#utility.yul\":21419:21479   */\n      swap2\n      swap1\n      pop\n      jump\t// out\n        /* \"#utility.yul\":21485:21627   */\n    tag_230:\n        /* \"#utility.yul\":21535:21544   */\n      0x00\n        /* \"#utility.yul\":21568:21621   */\n      tag_442\n        /* \"#utility.yul\":21586:21620   */\n      tag_443\n        /* \"#utility.yul\":21595:21619   */\n      tag_444\n        /* \"#utility.yul\":21613:21618   */\n      dup5\n        /* \"#utility.yul\":21595:21619   */\n      tag_194\n      jump\t// in\n    tag_444:\n        /* \"#utility.yul\":21586:21620   */\n      tag_229\n      jump\t// in\n    tag_443:\n        /* \"#utility.yul\":21568:21621   */\n      tag_194\n      jump\t// in\n    tag_442:\n        /* \"#utility.yul\":21555:21621   */\n      swap1\n      pop\n        /* \"#utility.yul\":21485:21627   */\n      swap2\n      swap1\n      pop\n      jump\t// out\n        /* \"#utility.yul\":21633:21708   */\n    tag_231:\n        /* \"#utility.yul\":21676:21679   */\n      0x00\n        /* \"#utility.yul\":21697:21702   */\n      dup2\n        /* \"#utility.yul\":21690:21702   */\n      swap1\n      pop\n        /* \"#utility.yul\":21633:21708   */\n      swap2\n      swap1\n      pop\n      jump\t// out\n        /* \"#utility.yul\":21714:21983   */\n    tag_232:\n        /* \"#utility.yul\":21824:21863   */\n      tag_447\n        /* \"#utility.yul\":21855:21862   */\n      dup4\n        /* \"#utility.yul\":21824:21863   */\n      tag_230\n      jump\t// in\n    tag_447:\n        /* \"#utility.yul\":21885:21976   */\n      tag_448\n        /* \"#utility.yul\":21934:21975   */\n      tag_449\n        /* \"#utility.yul\":21958:21974   */\n      dup3\n        /* \"#utility.yul\":21934:21975   */\n      tag_231\n      jump\t// in\n    tag_449:\n        /* \"#utility.yul\":21926:21932   */\n      dup5\n        /* \"#utility.yul\":21919:21923   */\n      dup5\n        /* \"#utility.yul\":21913:21924   */\n      sload\n        /* \"#utility.yul\":21885:21976   */\n      tag_228\n      jump\t// in\n    tag_448:\n        /* \"#utility.yul\":21879:21883   */\n      dup3\n        /* \"#utility.yul\":21872:21977   */\n      sstore\n        /* \"#utility.yul\":21790:21983   */\n      pop\n        /* \"#utility.yul\":21714:21983   */\n      pop\n      pop\n      pop\n      jump\t// out\n        /* \"#utility.yul\":21989:22062   */\n    tag_233:\n        /* \"#utility.yul\":22034:22037   */\n      0x00\n        /* \"#utility.yul\":21989:22062   */\n      swap1\n      jump\t// out\n        /* \"#utility.yul\":22068:22257   */\n    tag_234:\n        /* \"#utility.yul\":22145:22177   */\n      tag_452\n      tag_233\n      jump\t// in\n    tag_452:\n        /* \"#utility.yul\":22186:22251   */\n      tag_453\n        /* \"#utility.yul\":22244:22250   */\n      dup2\n        /* \"#utility.yul\":22236:22242   */\n      dup5\n        /* \"#utility.yul\":22230:22234   */\n      dup5\n        /* \"#utility.yul\":22186:22251   */\n      tag_232\n      jump\t// in\n    tag_453:\n        /* \"#utility.yul\":22121:22257   */\n      pop\n        /* \"#utility.yul\":22068:22257   */\n      pop\n      pop\n      jump\t// out\n        /* \"#utility.yul\":22263:22449   */\n    tag_235:\n        /* \"#utility.yul\":22323:22443   */\n    tag_455:\n        /* \"#utility.yul\":22340:22343   */\n      dup2\n        /* \"#utility.yul\":22333:22338   */\n      dup2\n        /* \"#utility.yul\":22330:22344   */\n      lt\n        /* \"#utility.yul\":22323:22443   */\n      iszero\n      tag_457\n      jumpi\n        /* \"#utility.yul\":22394:22433   */\n      tag_458\n        /* \"#utility.yul\":22431:22432   */\n      0x00\n        /* \"#utility.yul\":22424:22429   */\n      dup3\n        /* \"#utility.yul\":22394:22433   */\n      tag_234\n      jump\t// in\n    tag_458:\n        /* \"#utility.yul\":22367:22368   */\n      0x01\n        /* \"#utility.yul\":22360:22365   */\n      dup2\n        /* \"#utility.yul\":22356:22369   */\n      add\n        /* \"#utility.yul\":22347:22369   */\n      swap1\n      pop\n        /* \"#utility.yul\":22323:22443   */\n      jump(tag_455)\n    tag_457:\n        /* \"#utility.yul\":22263:22449   */\n      pop\n      pop\n      jump\t// out\n        /* \"#utility.yul\":22455:22998   */\n    tag_236:\n        /* \"#utility.yul\":22556:22558   */\n      0x1f\n        /* \"#utility.yul\":22551:22554   */\n      dup3\n        /* \"#utility.yul\":22548:22559   */\n      gt\n        /* \"#utility.yul\":22545:22991   */\n      iszero\n      tag_460\n      jumpi\n        /* \"#utility.yul\":22590:22628   */\n      tag_461\n        /* \"#utility.yul\":22622:22627   */\n      dup2\n        /* \"#utility.yul\":22590:22628   */\n      tag_221\n      jump\t// in\n    tag_461:\n        /* \"#utility.yul\":22674:22703   */\n      tag_462\n        /* \"#utility.yul\":22692:22702   */\n      dup5\n        /* \"#utility.yul\":22674:22703   */\n      tag_226\n      jump\t// in\n    tag_462:\n        /* \"#utility.yul\":22664:22672   */\n      dup2\n        /* \"#utility.yul\":22660:22704   */\n      add\n        /* \"#utility.yul\":22857:22859   */\n      0x20\n        /* \"#utility.yul\":22845:22855   */\n      dup6\n        /* \"#utility.yul\":22842:22860   */\n      lt\n        /* \"#utility.yul\":22839:22888   */\n      iszero\n      tag_463\n      jumpi\n        /* \"#utility.yul\":22878:22886   */\n      dup2\n        /* \"#utility.yul\":22863:22886   */\n      swap1\n      pop\n        /* \"#utility.yul\":22839:22888   */\n    tag_463:\n        /* \"#utility.yul\":22901:22981   */\n      tag_464\n        /* \"#utility.yul\":22957:22979   */\n      tag_465\n        /* \"#utility.yul\":22975:22978   */\n      dup6\n        /* \"#utility.yul\":22957:22979   */\n      tag_226\n      jump\t// in\n    tag_465:\n        /* \"#utility.yul\":22947:22955   */\n      dup4\n        /* \"#utility.yul\":22943:22980   */\n      add\n        /* \"#utility.yul\":22930:22941   */\n      dup3\n        /* \"#utility.yul\":22901:22981   */\n      tag_235\n      jump\t// in\n    tag_464:\n        /* \"#utility.yul\":22560:22991   */\n      pop\n      pop\n        /* \"#utility.yul\":22545:22991   */\n    tag_460:\n        /* \"#utility.yul\":22455:22998   */\n      pop\n      pop\n      pop\n      jump\t// out\n        /* \"#utility.yul\":23004:23121   */\n    tag_237:\n        /* \"#utility.yul\":23058:23066   */\n      0x00\n        /* \"#utility.yul\":23108:23113   */\n      dup3\n        /* \"#utility.yul\":23102:23106   */\n      dup3\n        /* \"#utility.yul\":23098:23114   */\n      shr\n        /* \"#utility.yul\":23077:23114   */\n      swap1\n      pop\n        /* \"#utility.yul\":23004:23121   */\n      swap3\n      swap2\n      pop\n      pop\n      jump\t// out\n        /* \"#utility.yul\":23127:23296   */\n    tag_238:\n        /* \"#utility.yul\":23171:23177   */\n      0x00\n        /* \"#utility.yul\":23204:23255   */\n      tag_468\n        /* \"#utility.yul\":23252:23253   */\n      0x00\n        /* \"#utility.yul\":23248:23254   */\n      not\n        /* \"#utility.yul\":23240:23245   */\n      dup5\n        /* \"#utility.yul\":23237:23238   */\n      0x08\n        /* \"#utility.yul\":23233:23246   */\n      mul\n        /* \"#utility.yul\":23204:23255   */\n      tag_237\n      jump\t// in\n    tag_468:\n        /* \"#utility.yul\":23200:23256   */\n      not\n        /* \"#utility.yul\":23285:23289   */\n      dup1\n        /* \"#utility.yul\":23279:23283   */\n      dup4\n        /* \"#utility.yul\":23275:23290   */\n      and\n        /* \"#utility.yul\":23265:23290   */\n      swap2\n      pop\n        /* \"#utility.yul\":23178:23296   */\n      pop\n        /* \"#utility.yul\":23127:23296   */\n      swap3\n      swap2\n      pop\n      pop\n      jump\t// out\n        /* \"#utility.yul\":23301:23596   */\n    tag_239:\n        /* \"#utility.yul\":23377:23381   */\n      0x00\n        /* \"#utility.yul\":23523:23552   */\n      tag_470\n        /* \"#utility.yul\":23548:23551   */\n      dup4\n        /* \"#utility.yul\":23542:23546   */\n      dup4\n        /* \"#utility.yul\":23523:23552   */\n      tag_238\n      jump\t// in\n    tag_470:\n        /* \"#utility.yul\":23515:23552   */\n      swap2\n      pop\n        /* \"#utility.yul\":23585:23588   */\n      dup3\n        /* \"#utility.yul\":23582:23583   */\n      0x02\n        /* \"#utility.yul\":23578:23589   */\n      mul\n        /* \"#utility.yul\":23572:23576   */\n      dup3\n        /* \"#utility.yul\":23569:23590   */\n      or\n        /* \"#utility.yul\":23561:23590   */\n      swap1\n      pop\n        /* \"#utility.yul\":23301:23596   */\n      swap3\n      swap2\n      pop\n      pop\n      jump\t// out\n        /* \"#utility.yul\":23601:24996   */\n    tag_147:\n        /* \"#utility.yul\":23718:23755   */\n      tag_472\n        /* \"#utility.yul\":23751:23754   */\n      dup3\n        /* \"#utility.yul\":23718:23755   */\n      tag_197\n      jump\t// in\n    tag_472:\n        /* \"#utility.yul\":23820:23838   */\n      0xffffffffffffffff\n        /* \"#utility.yul\":23812:23818   */\n      dup2\n        /* \"#utility.yul\":23809:23839   */\n      gt\n        /* \"#utility.yul\":23806:23862   */\n      iszero\n      tag_473\n      jumpi\n        /* \"#utility.yul\":23842:23860   */\n      tag_474\n      tag_90\n      jump\t// in\n    tag_474:\n        /* \"#utility.yul\":23806:23862   */\n    tag_473:\n        /* \"#utility.yul\":23886:23924   */\n      tag_475\n        /* \"#utility.yul\":23918:23922   */\n      dup3\n        /* \"#utility.yul\":23912:23923   */\n      sload\n        /* \"#utility.yul\":23886:23924   */\n      tag_77\n      jump\t// in\n    tag_475:\n        /* \"#utility.yul\":23971:24038   */\n      tag_476\n        /* \"#utility.yul\":24031:24037   */\n      dup3\n        /* \"#utility.yul\":24023:24029   */\n      dup3\n        /* \"#utility.yul\":24017:24021   */\n      dup6\n        /* \"#utility.yul\":23971:24038   */\n      tag_236\n      jump\t// in\n    tag_476:\n        /* \"#utility.yul\":24065:24066   */\n      0x00\n        /* \"#utility.yul\":24089:24093   */\n      0x20\n        /* \"#utility.yul\":24076:24093   */\n      swap1\n      pop\n        /* \"#utility.yul\":24121:24123   */\n      0x1f\n        /* \"#utility.yul\":24113:24119   */\n      dup4\n        /* \"#utility.yul\":24110:24124   */\n      gt\n        /* \"#utility.yul\":24138:24139   */\n      0x01\n        /* \"#utility.yul\":24133:24751   */\n      dup2\n      eq\n      tag_478\n      jumpi\n        /* \"#utility.yul\":24795:24796   */\n      0x00\n        /* \"#utility.yul\":24812:24818   */\n      dup5\n        /* \"#utility.yul\":24809:24886   */\n      iszero\n      tag_479\n      jumpi\n        /* \"#utility.yul\":24861:24870   */\n      dup3\n        /* \"#utility.yul\":24856:24859   */\n      dup8\n        /* \"#utility.yul\":24852:24871   */\n      add\n        /* \"#utility.yul\":24846:24872   */\n      mload\n        /* \"#utility.yul\":24837:24872   */\n      swap1\n      pop\n        /* \"#utility.yul\":24809:24886   */\n    tag_479:\n        /* \"#utility.yul\":24912:24979   */\n      tag_480\n        /* \"#utility.yul\":24972:24978   */\n      dup6\n        /* \"#utility.yul\":24965:24970   */\n      dup3\n        /* \"#utility.yul\":24912:24979   */\n      tag_239\n      jump\t// in\n    tag_480:\n        /* \"#utility.yul\":24906:24910   */\n      dup7\n        /* \"#utility.yul\":24899:24980   */\n      sstore\n        /* \"#utility.yul\":24768:24990   */\n      pop\n        /* \"#utility.yul\":24103:24990   */\n      jump(tag_477)\n        /* \"#utility.yul\":24133:24751   */\n    tag_478:\n        /* \"#utility.yul\":24185:24189   */\n      0x1f\n        /* \"#utility.yul\":24181:24190   */\n      not\n        /* \"#utility.yul\":24173:24179   */\n      dup5\n        /* \"#utility.yul\":24169:24191   */\n      and\n        /* \"#utility.yul\":24219:24256   */\n      tag_481\n        /* \"#utility.yul\":24251:24255   */\n      dup7\n        /* \"#utility.yul\":24219:24256   */\n      tag_221\n      jump\t// in\n    tag_481:\n        /* \"#utility.yul\":24278:24279   */\n      0x00\n        /* \"#utility.yul\":24292:24500   */\n    tag_482:\n        /* \"#utility.yul\":24306:24313   */\n      dup3\n        /* \"#utility.yul\":24303:24304   */\n      dup2\n        /* \"#utility.yul\":24300:24314   */\n      lt\n        /* \"#utility.yul\":24292:24500   */\n      iszero\n      tag_484\n      jumpi\n        /* \"#utility.yul\":24385:24394   */\n      dup5\n        /* \"#utility.yul\":24380:24383   */\n      dup10\n        /* \"#utility.yul\":24376:24395   */\n      add\n        /* \"#utility.yul\":24370:24396   */\n      mload\n        /* \"#utility.yul\":24362:24368   */\n      dup3\n        /* \"#utility.yul\":24355:24397   */\n      sstore\n        /* \"#utility.yul\":24436:24437   */\n      0x01\n        /* \"#utility.yul\":24428:24434   */\n      dup3\n        /* \"#utility.yul\":24424:24438   */\n      add\n        /* \"#utility.yul\":24414:24438   */\n      swap2\n      pop\n        /* \"#utility.yul\":24483:24485   */\n      0x20\n        /* \"#utility.yul\":24472:24481   */\n      dup6\n        /* \"#utility.yul\":24468:24486   */\n      add\n        /* \"#utility.yul\":24455:24486   */\n      swap5\n      pop\n        /* \"#utility.yul\":24329:24333   */\n      0x20\n        /* \"#utility.yul\":24326:24327   */\n      dup2\n        /* \"#utility.yul\":24322:24334   */\n      add\n        /* \"#utility.yul\":24317:24334   */\n      swap1\n      pop\n        /* \"#utility.yul\":24292:24500   */\n      jump(tag_482)\n    tag_484:\n        /* \"#utility.yul\":24528:24534   */\n      dup7\n        /* \"#utility.yul\":24519:24526   */\n      dup4\n        /* \"#utility.yul\":24516:24535   */\n      lt\n        /* \"#utility.yul\":24513:24692   */\n      iszero\n      tag_485\n      jumpi\n        /* \"#utility.yul\":24586:24595   */\n      dup5\n        /* \"#utility.yul\":24581:24584   */\n      dup10\n        /* \"#utility.yul\":24577:24596   */\n      add\n        /* \"#utility.yul\":24571:24597   */\n      mload\n        /* \"#utility.yul\":24629:24677   */\n      tag_486\n        /* \"#utility.yul\":24671:24675   */\n      0x1f\n        /* \"#utility.yul\":24663:24669   */\n      dup10\n        /* \"#utility.yul\":24659:24676   */\n      and\n        /* \"#utility.yul\":24648:24657   */\n      dup3\n        /* \"#utility.yul\":24629:24677   */\n      tag_238\n      jump\t// in\n    tag_486:\n        /* \"#utility.yul\":24621:24627   */\n      dup4\n        /* \"#utility.yul\":24614:24678   */\n      sstore\n        /* \"#utility.yul\":24536:24692   */\n      pop\n        /* \"#utility.yul\":24513:24692   */\n    tag_485:\n        /* \"#utility.yul\":24738:24739   */\n      0x01\n        /* \"#utility.yul\":24734:24735   */\n      0x02\n        /* \"#utility.yul\":24726:24732   */\n      dup9\n        /* \"#utility.yul\":24722:24736   */\n      mul\n        /* \"#utility.yul\":24718:24740   */\n      add\n        /* \"#utility.yul\":24712:24716   */\n      dup9\n        /* \"#utility.yul\":24705:24741   */\n      sstore\n        /* \"#utility.yul\":24140:24751   */\n      pop\n      pop\n      pop\n        /* \"#utility.yul\":24103:24990   */\n    tag_477:\n      pop\n        /* \"#utility.yul\":23693:24996   */\n      pop\n      pop\n      pop\n        /* \"#utility.yul\":23601:24996   */\n      pop\n      pop\n      jump\t// out\n        /* \"#utility.yul\":25002:25161   */\n    tag_240:\n        /* \"#utility.yul\":25142:25153   */\n      0x4e6f7420666f756e640000000000000000000000000000000000000000000000\n        /* \"#utility.yul\":25138:25139   */\n      0x00\n        /* \"#utility.yul\":25130:25136   */\n      dup3\n        /* \"#utility.yul\":25126:25140   */\n      add\n        /* \"#utility.yul\":25119:25154   */\n      mstore\n        /* \"#utility.yul\":25002:25161   */\n      pop\n      jump\t// out\n        /* \"#utility.yul\":25167:25532   */\n    tag_241:\n        /* \"#utility.yul\":25309:25312   */\n      0x00\n        /* \"#utility.yul\":25330:25396   */\n      tag_489\n        /* \"#utility.yul\":25394:25395   */\n      0x09\n        /* \"#utility.yul\":25389:25392   */\n      dup4\n        /* \"#utility.yul\":25330:25396   */\n      tag_198\n      jump\t// in\n    tag_489:\n        /* \"#utility.yul\":25323:25396   */\n      swap2\n      pop\n        /* \"#utility.yul\":25405:25498   */\n      tag_490\n        /* \"#utility.yul\":25494:25497   */\n      dup3\n        /* \"#utility.yul\":25405:25498   */\n      tag_240\n      jump\t// in\n    tag_490:\n        /* \"#utility.yul\":25523:25525   */\n      0x20\n        /* \"#utility.yul\":25518:25521   */\n      dup3\n        /* \"#utility.yul\":25514:25526   */\n      add\n        /* \"#utility.yul\":25507:25526   */\n      swap1\n      pop\n        /* \"#utility.yul\":25167:25532   */\n      swap2\n      swap1\n      pop\n      jump\t// out\n        /* \"#utility.yul\":25538:25957   */\n    tag_174:\n        /* \"#utility.yul\":25704:25708   */\n      0x00\n        /* \"#utility.yul\":25742:25744   */\n      0x20\n        /* \"#utility.yul\":25731:25740   */\n      dup3\n        /* \"#utility.yul\":25727:25745   */\n      add\n        /* \"#utility.yul\":25719:25745   */\n      swap1\n      pop\n        /* \"#utility.yul\":25791:25800   */\n      dup2\n        /* \"#utility.yul\":25785:25789   */\n      dup2\n        /* \"#utility.yul\":25781:25801   */\n      sub\n        /* \"#utility.yul\":25777:25778   */\n      0x00\n        /* \"#utility.yul\":25766:25775   */\n      dup4\n        /* \"#utility.yul\":25762:25779   */\n      add\n        /* \"#utility.yul\":25755:25802   */\n      mstore\n        /* \"#utility.yul\":25819:25950   */\n      tag_492\n        /* \"#utility.yul\":25945:25949   */\n      dup2\n        /* \"#utility.yul\":25819:25950   */\n      tag_241\n      jump\t// in\n    tag_492:\n        /* \"#utility.yul\":25811:25950   */\n      swap1\n      pop\n        /* \"#utility.yul\":25538:25957   */\n      swap2\n      swap1\n      pop\n      jump\t// out\n\n    auxdata: 0xa2646970667358221220a17848063c2b4bd51b7dbcc25bdc42e12705ef3765815256d5027350c3c59f6b64736f6c63430008160033\n}\n",
				"bytecode": {
					"linkReferences": {},
					"object": "6080604052735b38da6a701c568545dcfcb03fcb875f56beddc45f806101000a81548173ffffffffffffffffffffffffffffffffffffffff021916908373ffffffffffffffffffffffffffffffffffffffff160217905550348015610062575f80fd5b50611be5806100705f395ff3fe608060405234801561000f575f80fd5b5060043610610091575f3560e01c8063a3306ae311610064578063a3306ae314610147578063add6415d14610163578063d9aa4eb314610181578063e3726d661461019d578063fc6f9468146101cd57610091565b8063048fa3a71461009557806311765b27146100c557806392ad672f146100e357806399b3e96a14610117575b5f80fd5b6100af60048036038101906100aa9190611099565b6101eb565b6040516100bc919061110d565b60405180910390f35b6100cd61032e565b6040516100da9190611135565b60405180910390f35b6100fd60048036038101906100f89190611181565b610353565b60405161010e959493929190611235565b60405180910390f35b610131600480360381019061012c9190611294565b6104bf565b60405161013e9190611476565b60405180910390f35b610161600480360381019061015c9190611496565b610799565b005b61016b610869565b6040516101789190611476565b60405180910390f35b61019b600480360381019061019691906114c1565b610a4d565b005b6101b760048036038101906101b29190611294565b610bf8565b6040516101c491906115ea565b60405180910390f35b6101d5610e8d565b6040516101e29190611135565b60405180910390f35b5f805f90505b600280549050811015610323578360405160200161020f919061164f565b604051602081830303815290604052805190602001206002828154811061023957610238611669565b5b905f5260205f2090600502016002015f9054906101000a900473ffffffffffffffffffffffffffffffffffffffff16604051602001610278919061164f565b604051602081830303815290604052805190602001201480156103075750826040516020016102a791906116d0565b60405160208183030381529060405280519060200120600282815481106102d1576102d0611669565b5b905f5260205f2090600502015f016040516020016102ef91906117d5565b60405160208183030381529060405280519060200120145b15610316576001915050610328565b80806001019150506101f1565b505f90505b92915050565b60015f9054906101000a900473ffffffffffffffffffffffffffffffffffffffff1681565b60028181548110610362575f80fd5b905f5260205f2090600502015f91509050805f01805461038190611713565b80601f01602080910402602001604051908101604052809291908181526020018280546103ad90611713565b80156103f85780601f106103cf576101008083540402835291602001916103f8565b820191905f5260205f20905b8154815290600101906020018083116103db57829003601f168201915b50505050509080600101805461040d90611713565b80601f016020809104026020016040519081016040528092919081815260200182805461043990611713565b80156104845780601f1061045b57610100808354040283529160200191610484565b820191905f5260205f20905b81548152906001019060200180831161046757829003601f168201915b505050505090806002015f9054906101000a900473ffffffffffffffffffffffffffffffffffffffff16908060030154908060040154905085565b60605f60028054905067ffffffffffffffff8111156104e1576104e0610f75565b5b60405190808252806020026020018201604052801561051a57816020015b610507610eb0565b8152602001906001900390816104ff5790505b5090505f805b60028054905081101561078e578460405160200161053e91906116d0565b604051602081830303815290604052805190602001206002828154811061056857610567611669565b5b905f5260205f2090600502015f0160405160200161058691906117d5565b604051602081830303815290604052805190602001200361078157600281815481106105b5576105b4611669565b5b905f5260205f2090600502016040518060a00160405290815f820180546105db90611713565b80601f016020809104026020016040519081016040528092919081815260200182805461060790611713565b80156106525780601f1061062957610100808354040283529160200191610652565b820191905f5260205f20905b81548152906001019060200180831161063557829003601f168201915b5050505050815260200160018201805461066b90611713565b80601f016020809104026020016040519081016040528092919081815260200182805461069790611713565b80156106e25780601f106106b9576101008083540402835291602001916106e2565b820191905f5260205f20905b8154815290600101906020018083116106c557829003601f168201915b50505050508152602001600282015f9054906101000a900473ffffffffffffffffffffffffffffffffffffffff1673ffffffffffffffffffffffffffffffffffffffff1673ffffffffffffffffffffffffffffffffffffffff1681526020016003820154815260200160048201548152505083828151811061076757610766611669565b5b6020026020010181905250818061077d90611818565b9250505b8080600101915050610520565b508192505050919050565b5f8054906101000a900473ffffffffffffffffffffffffffffffffffffffff1673ffffffffffffffffffffffffffffffffffffffff163373ffffffffffffffffffffffffffffffffffffffff1614610826576040517f08c379a000000000000000000000000000000000000000000000000000000000815260040161081d906118cf565b60405180910390fd5b8060015f6101000a81548173ffffffffffffffffffffffffffffffffffffffff021916908373ffffffffffffffffffffffffffffffffffffffff16021790555050565b60606002805480602002602001604051908101604052809291908181526020015f905b82821015610a44578382905f5260205f2090600502016040518060a00160405290815f820180546108bc90611713565b80601f01602080910402602001604051908101604052809291908181526020018280546108e890611713565b80156109335780601f1061090a57610100808354040283529160200191610933565b820191905f5260205f20905b81548152906001019060200180831161091657829003601f168201915b5050505050815260200160018201805461094c90611713565b80601f016020809104026020016040519081016040528092919081815260200182805461097890611713565b80156109c35780601f1061099a576101008083540402835291602001916109c3565b820191905f5260205f20905b8154815290600101906020018083116109a657829003601f168201915b50505050508152602001600282015f9054906101000a900473ffffffffffffffffffffffffffffffffffffffff1673ffffffffffffffffffffffffffffffffffffffff1673ffffffffffffffffffffffffffffffffffffffff168152602001600382015481526020016004820154815250508152602001906001019061088c565b50505050905090565b60015f9054906101000a900473ffffffffffffffffffffffffffffffffffffffff1673ffffffffffffffffffffffffffffffffffffffff163373ffffffffffffffffffffffffffffffffffffffff1614610adc576040517f08c379a0000000000000000000000000000000000000000000000000000000008152600401610ad3906118cf565b60405180910390fd5b610ae4610eb0565b85815f018190525084816020018190525083816040019073ffffffffffffffffffffffffffffffffffffffff16908173ffffffffffffffffffffffffffffffffffffffff16815250508281606001818152505081816080018181525050600281908060018154018082558091505060019003905f5260205f2090600502015f909190919091505f820151815f019081610b7d9190611a78565b506020820151816001019081610b939190611a78565b506040820151816002015f6101000a81548173ffffffffffffffffffffffffffffffffffffffff021916908373ffffffffffffffffffffffffffffffffffffffff16021790555060608201518160030155608082015181600401555050505050505050565b610c00610eb0565b5f5b600280549050811015610e4c5782604051602001610c2091906116d0565b6040516020818303038152906040528051906020012060028281548110610c4a57610c49611669565b5b905f5260205f209060050201600101604051602001610c6991906117d5565b6040516020818303038152906040528051906020012003610e3f5760028181548110610c9857610c97611669565b5b905f5260205f2090600502016040518060a00160405290815f82018054610cbe90611713565b80601f0160208091040260200160405190810160405280929190818152602001828054610cea90611713565b8015610d355780601f10610d0c57610100808354040283529160200191610d35565b820191905f5260205f20905b815481529060010190602001808311610d1857829003601f168201915b50505050508152602001600182018054610d4e90611713565b80601f0160208091040260200160405190810160405280929190818152602001828054610d7a90611713565b8015610dc55780601f10610d9c57610100808354040283529160200191610dc5565b820191905f5260205f20905b815481529060010190602001808311610da857829003601f168201915b50505050508152602001600282015f9054906101000a900473ffffffffffffffffffffffffffffffffffffffff1673ffffffffffffffffffffffffffffffffffffffff1673ffffffffffffffffffffffffffffffffffffffff16815260200160038201548152602001600482015481525050915050610e88565b8080600101915050610c02565b506040517f08c379a0000000000000000000000000000000000000000000000000000000008152600401610e7f90611b91565b60405180910390fd5b919050565b5f8054906101000a900473ffffffffffffffffffffffffffffffffffffffff1681565b6040518060a0016040528060608152602001606081526020015f73ffffffffffffffffffffffffffffffffffffffff1681526020015f81526020015f81525090565b5f604051905090565b5f80fd5b5f80fd5b5f73ffffffffffffffffffffffffffffffffffffffff82169050919050565b5f610f2c82610f03565b9050919050565b610f3c81610f22565b8114610f46575f80fd5b50565b5f81359050610f5781610f33565b92915050565b5f80fd5b5f80fd5b5f601f19601f8301169050919050565b7f4e487b71000000000000000000000000000000000000000000000000000000005f52604160045260245ffd5b610fab82610f65565b810181811067ffffffffffffffff82111715610fca57610fc9610f75565b5b80604052505050565b5f610fdc610ef2565b9050610fe88282610fa2565b919050565b5f67ffffffffffffffff82111561100757611006610f75565b5b61101082610f65565b9050602081019050919050565b828183375f83830152505050565b5f61103d61103884610fed565b610fd3565b90508281526020810184848401111561105957611058610f61565b5b61106484828561101d565b509392505050565b5f82601f8301126110805761107f610f5d565b5b813561109084826020860161102b565b91505092915050565b5f80604083850312156110af576110ae610efb565b5b5f6110bc85828601610f49565b925050602083013567ffffffffffffffff8111156110dd576110dc610eff565b5b6110e98582860161106c565b9150509250929050565b5f8115159050919050565b611107816110f3565b82525050565b5f6020820190506111205f8301846110fe565b92915050565b61112f81610f22565b82525050565b5f6020820190506111485f830184611126565b92915050565b5f819050919050565b6111608161114e565b811461116a575f80fd5b50565b5f8135905061117b81611157565b92915050565b5f6020828403121561119657611195610efb565b5b5f6111a38482850161116d565b91505092915050565b5f81519050919050565b5f82825260208201905092915050565b5f5b838110156111e35780820151818401526020810190506111c8565b5f8484015250505050565b5f6111f8826111ac565b61120281856111b6565b93506112128185602086016111c6565b61121b81610f65565b840191505092915050565b61122f8161114e565b82525050565b5f60a0820190508181035f83015261124d81886111ee565b9050818103602083015261126181876111ee565b90506112706040830186611126565b61127d6060830185611226565b61128a6080830184611226565b9695505050505050565b5f602082840312156112a9576112a8610efb565b5b5f82013567ffffffffffffffff8111156112c6576112c5610eff565b5b6112d28482850161106c565b91505092915050565b5f81519050919050565b5f82825260208201905092915050565b5f819050602082019050919050565b5f82825260208201905092915050565b5f61131e826111ac565b6113288185611304565b93506113388185602086016111c6565b61134181610f65565b840191505092915050565b61135581610f22565b82525050565b6113648161114e565b82525050565b5f60a083015f8301518482035f8601526113848282611314565b9150506020830151848203602086015261139e8282611314565b91505060408301516113b3604086018261134c565b5060608301516113c6606086018261135b565b5060808301516113d9608086018261135b565b508091505092915050565b5f6113ef838361136a565b905092915050565b5f602082019050919050565b5f61140d826112db565b61141781856112e5565b935083602082028501611429856112f5565b805f5b85811015611464578484038952815161144585826113e4565b9450611450836113f7565b925060208a0199505060018101905061142c565b50829750879550505050505092915050565b5f6020820190508181035f83015261148e8184611403565b905092915050565b5f602082840312156114ab576114aa610efb565b5b5f6114b884828501610f49565b91505092915050565b5f805f805f60a086880312156114da576114d9610efb565b5b5f86013567ffffffffffffffff8111156114f7576114f6610eff565b5b6115038882890161106c565b955050602086013567ffffffffffffffff81111561152457611523610eff565b5b6115308882890161106c565b945050604061154188828901610f49565b93505060606115528882890161116d565b92505060806115638882890161116d565b9150509295509295909350565b5f60a083015f8301518482035f86015261158a8282611314565b915050602083015184820360208601526115a48282611314565b91505060408301516115b9604086018261134c565b5060608301516115cc606086018261135b565b5060808301516115df608086018261135b565b508091505092915050565b5f6020820190508181035f8301526116028184611570565b905092915050565b5f8160601b9050919050565b5f6116208261160a565b9050919050565b5f61163182611616565b9050919050565b61164961164482610f22565b611627565b82525050565b5f61165a8284611638565b60148201915081905092915050565b7f4e487b71000000000000000000000000000000000000000000000000000000005f52603260045260245ffd5b5f81905092915050565b5f6116aa826111ac565b6116b48185611696565b93506116c48185602086016111c6565b80840191505092915050565b5f6116db82846116a0565b915081905092915050565b7f4e487b71000000000000000000000000000000000000000000000000000000005f52602260045260245ffd5b5f600282049050600182168061172a57607f821691505b60208210810361173d5761173c6116e6565b5b50919050565b5f819050815f5260205f209050919050565b5f815461176181611713565b61176b8186611696565b9450600182165f8114611785576001811461179a576117cc565b60ff19831686528115158202860193506117cc565b6117a385611743565b5f5b838110156117c4578154818901526001820191506020810190506117a5565b838801955050505b50505092915050565b5f6117e08284611755565b915081905092915050565b7f4e487b71000000000000000000000000000000000000000000000000000000005f52601160045260245ffd5b5f6118228261114e565b91507fffffffffffffffffffffffffffffffffffffffffffffffffffffffffffffffff8203611854576118536117eb565b5b600182019050919050565b7f4f6e6c792063616d706169676e20636f6e74726163742063616c6c20746869735f8201527f2066756e6374696f6e0000000000000000000000000000000000000000000000602082015250565b5f6118b96029836111b6565b91506118c48261185f565b604082019050919050565b5f6020820190508181035f8301526118e6816118ad565b9050919050565b5f6020601f8301049050919050565b5f82821b905092915050565b5f600883026119377fffffffffffffffffffffffffffffffffffffffffffffffffffffffffffffffff826118fc565b61194186836118fc565b95508019841693508086168417925050509392505050565b5f819050919050565b5f61197c6119776119728461114e565b611959565b61114e565b9050919050565b5f819050919050565b61199583611962565b6119a96119a182611983565b848454611908565b825550505050565b5f90565b6119bd6119b1565b6119c881848461198c565b505050565b5b818110156119eb576119e05f826119b5565b6001810190506119ce565b5050565b601f821115611a3057611a0181611743565b611a0a846118ed565b81016020851015611a19578190505b611a2d611a25856118ed565b8301826119cd565b50505b505050565b5f82821c905092915050565b5f611a505f1984600802611a35565b1980831691505092915050565b5f611a688383611a41565b9150826002028217905092915050565b611a81826111ac565b67ffffffffffffffff811115611a9a57611a99610f75565b5b611aa48254611713565b611aaf8282856119ef565b5f60209050601f831160018114611ae0575f8415611ace578287015190505b611ad88582611a5d565b865550611b3f565b601f198416611aee86611743565b5f5b82811015611b1557848901518255600182019150602085019450602081019050611af0565b86831015611b325784890151611b2e601f891682611a41565b8355505b6001600288020188555050505b505050505050565b7f4e6f7420666f756e6400000000000000000000000000000000000000000000005f82015250565b5f611b7b6009836111b6565b9150611b8682611b47565b602082019050919050565b5f6020820190508181035f830152611ba881611b6f565b905091905056fea2646970667358221220a17848063c2b4bd51b7dbcc25bdc42e12705ef3765815256d5027350c3c59f6b64736f6c63430008160033",
					"opcodes": "PUSH1 0x80 PUSH1 0x40 MSTORE PUSH20 0x5B38DA6A701C568545DCFCB03FCB875F56BEDDC4 PUSH0 DUP1 PUSH2 0x100 EXP DUP2 SLOAD DUP2 PUSH20 0xFFFFFFFFFFFFFFFFFFFFFFFFFFFFFFFFFFFFFFFF MUL NOT AND SWAP1 DUP4 PUSH20 0xFFFFFFFFFFFFFFFFFFFFFFFFFFFFFFFFFFFFFFFF AND MUL OR SWAP1 SSTORE POP CALLVALUE DUP1 ISZERO PUSH2 0x62 JUMPI PUSH0 DUP1 REVERT JUMPDEST POP PUSH2 0x1BE5 DUP1 PUSH2 0x70 PUSH0 CODECOPY PUSH0 RETURN INVALID PUSH1 0x80 PUSH1 0x40 MSTORE CALLVALUE DUP1 ISZERO PUSH2 0xF JUMPI PUSH0 DUP1 REVERT JUMPDEST POP PUSH1 0x4 CALLDATASIZE LT PUSH2 0x91 JUMPI PUSH0 CALLDATALOAD PUSH1 0xE0 SHR DUP1 PUSH4 0xA3306AE3 GT PUSH2 0x64 JUMPI DUP1 PUSH4 0xA3306AE3 EQ PUSH2 0x147 JUMPI DUP1 PUSH4 0xADD6415D EQ PUSH2 0x163 JUMPI DUP1 PUSH4 0xD9AA4EB3 EQ PUSH2 0x181 JUMPI DUP1 PUSH4 0xE3726D66 EQ PUSH2 0x19D JUMPI DUP1 PUSH4 0xFC6F9468 EQ PUSH2 0x1CD JUMPI PUSH2 0x91 JUMP JUMPDEST DUP1 PUSH4 0x48FA3A7 EQ PUSH2 0x95 JUMPI DUP1 PUSH4 0x11765B27 EQ PUSH2 0xC5 JUMPI DUP1 PUSH4 0x92AD672F EQ PUSH2 0xE3 JUMPI DUP1 PUSH4 0x99B3E96A EQ PUSH2 0x117 JUMPI JUMPDEST PUSH0 DUP1 REVERT JUMPDEST PUSH2 0xAF PUSH1 0x4 DUP1 CALLDATASIZE SUB DUP2 ADD SWAP1 PUSH2 0xAA SWAP2 SWAP1 PUSH2 0x1099 JUMP JUMPDEST PUSH2 0x1EB JUMP JUMPDEST PUSH1 0x40 MLOAD PUSH2 0xBC SWAP2 SWAP1 PUSH2 0x110D JUMP JUMPDEST PUSH1 0x40 MLOAD DUP1 SWAP2 SUB SWAP1 RETURN JUMPDEST PUSH2 0xCD PUSH2 0x32E JUMP JUMPDEST PUSH1 0x40 MLOAD PUSH2 0xDA SWAP2 SWAP1 PUSH2 0x1135 JUMP JUMPDEST PUSH1 0x40 MLOAD DUP1 SWAP2 SUB SWAP1 RETURN JUMPDEST PUSH2 0xFD PUSH1 0x4 DUP1 CALLDATASIZE SUB DUP2 ADD SWAP1 PUSH2 0xF8 SWAP2 SWAP1 PUSH2 0x1181 JUMP JUMPDEST PUSH2 0x353 JUMP JUMPDEST PUSH1 0x40 MLOAD PUSH2 0x10E SWAP6 SWAP5 SWAP4 SWAP3 SWAP2 SWAP1 PUSH2 0x1235 JUMP JUMPDEST PUSH1 0x40 MLOAD DUP1 SWAP2 SUB SWAP1 RETURN JUMPDEST PUSH2 0x131 PUSH1 0x4 DUP1 CALLDATASIZE SUB DUP2 ADD SWAP1 PUSH2 0x12C SWAP2 SWAP1 PUSH2 0x1294 JUMP JUMPDEST PUSH2 0x4BF JUMP JUMPDEST PUSH1 0x40 MLOAD PUSH2 0x13E SWAP2 SWAP1 PUSH2 0x1476 JUMP JUMPDEST PUSH1 0x40 MLOAD DUP1 SWAP2 SUB SWAP1 RETURN JUMPDEST PUSH2 0x161 PUSH1 0x4 DUP1 CALLDATASIZE SUB DUP2 ADD SWAP1 PUSH2 0x15C SWAP2 SWAP1 PUSH2 0x1496 JUMP JUMPDEST PUSH2 0x799 JUMP JUMPDEST STOP JUMPDEST PUSH2 0x16B PUSH2 0x869 JUMP JUMPDEST PUSH1 0x40 MLOAD PUSH2 0x178 SWAP2 SWAP1 PUSH2 0x1476 JUMP JUMPDEST PUSH1 0x40 MLOAD DUP1 SWAP2 SUB SWAP1 RETURN JUMPDEST PUSH2 0x19B PUSH1 0x4 DUP1 CALLDATASIZE SUB DUP2 ADD SWAP1 PUSH2 0x196 SWAP2 SWAP1 PUSH2 0x14C1 JUMP JUMPDEST PUSH2 0xA4D JUMP JUMPDEST STOP JUMPDEST PUSH2 0x1B7 PUSH1 0x4 DUP1 CALLDATASIZE SUB DUP2 ADD SWAP1 PUSH2 0x1B2 SWAP2 SWAP1 PUSH2 0x1294 JUMP JUMPDEST PUSH2 0xBF8 JUMP JUMPDEST PUSH1 0x40 MLOAD PUSH2 0x1C4 SWAP2 SWAP1 PUSH2 0x15EA JUMP JUMPDEST PUSH1 0x40 MLOAD DUP1 SWAP2 SUB SWAP1 RETURN JUMPDEST PUSH2 0x1D5 PUSH2 0xE8D JUMP JUMPDEST PUSH1 0x40 MLOAD PUSH2 0x1E2 SWAP2 SWAP1 PUSH2 0x1135 JUMP JUMPDEST PUSH1 0x40 MLOAD DUP1 SWAP2 SUB SWAP1 RETURN JUMPDEST PUSH0 DUP1 PUSH0 SWAP1 POP JUMPDEST PUSH1 0x2 DUP1 SLOAD SWAP1 POP DUP2 LT ISZERO PUSH2 0x323 JUMPI DUP4 PUSH1 0x40 MLOAD PUSH1 0x20 ADD PUSH2 0x20F SWAP2 SWAP1 PUSH2 0x164F JUMP JUMPDEST PUSH1 0x40 MLOAD PUSH1 0x20 DUP2 DUP4 SUB SUB DUP2 MSTORE SWAP1 PUSH1 0x40 MSTORE DUP1 MLOAD SWAP1 PUSH1 0x20 ADD KECCAK256 PUSH1 0x2 DUP3 DUP2 SLOAD DUP2 LT PUSH2 0x239 JUMPI PUSH2 0x238 PUSH2 0x1669 JUMP JUMPDEST JUMPDEST SWAP1 PUSH0 MSTORE PUSH1 0x20 PUSH0 KECCAK256 SWAP1 PUSH1 0x5 MUL ADD PUSH1 0x2 ADD PUSH0 SWAP1 SLOAD SWAP1 PUSH2 0x100 EXP SWAP1 DIV PUSH20 0xFFFFFFFFFFFFFFFFFFFFFFFFFFFFFFFFFFFFFFFF AND PUSH1 0x40 MLOAD PUSH1 0x20 ADD PUSH2 0x278 SWAP2 SWAP1 PUSH2 0x164F JUMP JUMPDEST PUSH1 0x40 MLOAD PUSH1 0x20 DUP2 DUP4 SUB SUB DUP2 MSTORE SWAP1 PUSH1 0x40 MSTORE DUP1 MLOAD SWAP1 PUSH1 0x20 ADD KECCAK256 EQ DUP1 ISZERO PUSH2 0x307 JUMPI POP DUP3 PUSH1 0x40 MLOAD PUSH1 0x20 ADD PUSH2 0x2A7 SWAP2 SWAP1 PUSH2 0x16D0 JUMP JUMPDEST PUSH1 0x40 MLOAD PUSH1 0x20 DUP2 DUP4 SUB SUB DUP2 MSTORE SWAP1 PUSH1 0x40 MSTORE DUP1 MLOAD SWAP1 PUSH1 0x20 ADD KECCAK256 PUSH1 0x2 DUP3 DUP2 SLOAD DUP2 LT PUSH2 0x2D1 JUMPI PUSH2 0x2D0 PUSH2 0x1669 JUMP JUMPDEST JUMPDEST SWAP1 PUSH0 MSTORE PUSH1 0x20 PUSH0 KECCAK256 SWAP1 PUSH1 0x5 MUL ADD PUSH0 ADD PUSH1 0x40 MLOAD PUSH1 0x20 ADD PUSH2 0x2EF SWAP2 SWAP1 PUSH2 0x17D5 JUMP JUMPDEST PUSH1 0x40 MLOAD PUSH1 0x20 DUP2 DUP4 SUB SUB DUP2 MSTORE SWAP1 PUSH1 0x40 MSTORE DUP1 MLOAD SWAP1 PUSH1 0x20 ADD KECCAK256 EQ JUMPDEST ISZERO PUSH2 0x316 JUMPI PUSH1 0x1 SWAP2 POP POP PUSH2 0x328 JUMP JUMPDEST DUP1 DUP1 PUSH1 0x1 ADD SWAP2 POP POP PUSH2 0x1F1 JUMP JUMPDEST POP PUSH0 SWAP1 POP JUMPDEST SWAP3 SWAP2 POP POP JUMP JUMPDEST PUSH1 0x1 PUSH0 SWAP1 SLOAD SWAP1 PUSH2 0x100 EXP SWAP1 DIV PUSH20 0xFFFFFFFFFFFFFFFFFFFFFFFFFFFFFFFFFFFFFFFF AND DUP2 JUMP JUMPDEST PUSH1 0x2 DUP2 DUP2 SLOAD DUP2 LT PUSH2 0x362 JUMPI PUSH0 DUP1 REVERT JUMPDEST SWAP1 PUSH0 MSTORE PUSH1 0x20 PUSH0 KECCAK256 SWAP1 PUSH1 0x5 MUL ADD PUSH0 SWAP2 POP SWAP1 POP DUP1 PUSH0 ADD DUP1 SLOAD PUSH2 0x381 SWAP1 PUSH2 0x1713 JUMP JUMPDEST DUP1 PUSH1 0x1F ADD PUSH1 0x20 DUP1 SWAP2 DIV MUL PUSH1 0x20 ADD PUSH1 0x40 MLOAD SWAP1 DUP2 ADD PUSH1 0x40 MSTORE DUP1 SWAP3 SWAP2 SWAP1 DUP2 DUP2 MSTORE PUSH1 0x20 ADD DUP3 DUP1 SLOAD PUSH2 0x3AD SWAP1 PUSH2 0x1713 JUMP JUMPDEST DUP1 ISZERO PUSH2 0x3F8 JUMPI DUP1 PUSH1 0x1F LT PUSH2 0x3CF JUMPI PUSH2 0x100 DUP1 DUP4 SLOAD DIV MUL DUP4 MSTORE SWAP2 PUSH1 0x20 ADD SWAP2 PUSH2 0x3F8 JUMP JUMPDEST DUP3 ADD SWAP2 SWAP1 PUSH0 MSTORE PUSH1 0x20 PUSH0 KECCAK256 SWAP1 JUMPDEST DUP2 SLOAD DUP2 MSTORE SWAP1 PUSH1 0x1 ADD SWAP1 PUSH1 0x20 ADD DUP1 DUP4 GT PUSH2 0x3DB JUMPI DUP3 SWAP1 SUB PUSH1 0x1F AND DUP3 ADD SWAP2 JUMPDEST POP POP POP POP POP SWAP1 DUP1 PUSH1 0x1 ADD DUP1 SLOAD PUSH2 0x40D SWAP1 PUSH2 0x1713 JUMP JUMPDEST DUP1 PUSH1 0x1F ADD PUSH1 0x20 DUP1 SWAP2 DIV MUL PUSH1 0x20 ADD PUSH1 0x40 MLOAD SWAP1 DUP2 ADD PUSH1 0x40 MSTORE DUP1 SWAP3 SWAP2 SWAP1 DUP2 DUP2 MSTORE PUSH1 0x20 ADD DUP3 DUP1 SLOAD PUSH2 0x439 SWAP1 PUSH2 0x1713 JUMP JUMPDEST DUP1 ISZERO PUSH2 0x484 JUMPI DUP1 PUSH1 0x1F LT PUSH2 0x45B JUMPI PUSH2 0x100 DUP1 DUP4 SLOAD DIV MUL DUP4 MSTORE SWAP2 PUSH1 0x20 ADD SWAP2 PUSH2 0x484 JUMP JUMPDEST DUP3 ADD SWAP2 SWAP1 PUSH0 MSTORE PUSH1 0x20 PUSH0 KECCAK256 SWAP1 JUMPDEST DUP2 SLOAD DUP2 MSTORE SWAP1 PUSH1 0x1 ADD SWAP1 PUSH1 0x20 ADD DUP1 DUP4 GT PUSH2 0x467 JUMPI DUP3 SWAP1 SUB PUSH1 0x1F AND DUP3 ADD SWAP2 JUMPDEST POP POP POP POP POP SWAP1 DUP1 PUSH1 0x2 ADD PUSH0 SWAP1 SLOAD SWAP1 PUSH2 0x100 EXP SWAP1 DIV PUSH20 0xFFFFFFFFFFFFFFFFFFFFFFFFFFFFFFFFFFFFFFFF AND SWAP1 DUP1 PUSH1 0x3 ADD SLOAD SWAP1 DUP1 PUSH1 0x4 ADD SLOAD SWAP1 POP DUP6 JUMP JUMPDEST PUSH1 0x60 PUSH0 PUSH1 0x2 DUP1 SLOAD SWAP1 POP PUSH8 0xFFFFFFFFFFFFFFFF DUP2 GT ISZERO PUSH2 0x4E1 JUMPI PUSH2 0x4E0 PUSH2 0xF75 JUMP JUMPDEST JUMPDEST PUSH1 0x40 MLOAD SWAP1 DUP1 DUP3 MSTORE DUP1 PUSH1 0x20 MUL PUSH1 0x20 ADD DUP3 ADD PUSH1 0x40 MSTORE DUP1 ISZERO PUSH2 0x51A JUMPI DUP2 PUSH1 0x20 ADD JUMPDEST PUSH2 0x507 PUSH2 0xEB0 JUMP JUMPDEST DUP2 MSTORE PUSH1 0x20 ADD SWAP1 PUSH1 0x1 SWAP1 SUB SWAP1 DUP2 PUSH2 0x4FF JUMPI SWAP1 POP JUMPDEST POP SWAP1 POP PUSH0 DUP1 JUMPDEST PUSH1 0x2 DUP1 SLOAD SWAP1 POP DUP2 LT ISZERO PUSH2 0x78E JUMPI DUP5 PUSH1 0x40 MLOAD PUSH1 0x20 ADD PUSH2 0x53E SWAP2 SWAP1 PUSH2 0x16D0 JUMP JUMPDEST PUSH1 0x40 MLOAD PUSH1 0x20 DUP2 DUP4 SUB SUB DUP2 MSTORE SWAP1 PUSH1 0x40 MSTORE DUP1 MLOAD SWAP1 PUSH1 0x20 ADD KECCAK256 PUSH1 0x2 DUP3 DUP2 SLOAD DUP2 LT PUSH2 0x568 JUMPI PUSH2 0x567 PUSH2 0x1669 JUMP JUMPDEST JUMPDEST SWAP1 PUSH0 MSTORE PUSH1 0x20 PUSH0 KECCAK256 SWAP1 PUSH1 0x5 MUL ADD PUSH0 ADD PUSH1 0x40 MLOAD PUSH1 0x20 ADD PUSH2 0x586 SWAP2 SWAP1 PUSH2 0x17D5 JUMP JUMPDEST PUSH1 0x40 MLOAD PUSH1 0x20 DUP2 DUP4 SUB SUB DUP2 MSTORE SWAP1 PUSH1 0x40 MSTORE DUP1 MLOAD SWAP1 PUSH1 0x20 ADD KECCAK256 SUB PUSH2 0x781 JUMPI PUSH1 0x2 DUP2 DUP2 SLOAD DUP2 LT PUSH2 0x5B5 JUMPI PUSH2 0x5B4 PUSH2 0x1669 JUMP JUMPDEST JUMPDEST SWAP1 PUSH0 MSTORE PUSH1 0x20 PUSH0 KECCAK256 SWAP1 PUSH1 0x5 MUL ADD PUSH1 0x40 MLOAD DUP1 PUSH1 0xA0 ADD PUSH1 0x40 MSTORE SWAP1 DUP2 PUSH0 DUP3 ADD DUP1 SLOAD PUSH2 0x5DB SWAP1 PUSH2 0x1713 JUMP JUMPDEST DUP1 PUSH1 0x1F ADD PUSH1 0x20 DUP1 SWAP2 DIV MUL PUSH1 0x20 ADD PUSH1 0x40 MLOAD SWAP1 DUP2 ADD PUSH1 0x40 MSTORE DUP1 SWAP3 SWAP2 SWAP1 DUP2 DUP2 MSTORE PUSH1 0x20 ADD DUP3 DUP1 SLOAD PUSH2 0x607 SWAP1 PUSH2 0x1713 JUMP JUMPDEST DUP1 ISZERO PUSH2 0x652 JUMPI DUP1 PUSH1 0x1F LT PUSH2 0x629 JUMPI PUSH2 0x100 DUP1 DUP4 SLOAD DIV MUL DUP4 MSTORE SWAP2 PUSH1 0x20 ADD SWAP2 PUSH2 0x652 JUMP JUMPDEST DUP3 ADD SWAP2 SWAP1 PUSH0 MSTORE PUSH1 0x20 PUSH0 KECCAK256 SWAP1 JUMPDEST DUP2 SLOAD DUP2 MSTORE SWAP1 PUSH1 0x1 ADD SWAP1 PUSH1 0x20 ADD DUP1 DUP4 GT PUSH2 0x635 JUMPI DUP3 SWAP1 SUB PUSH1 0x1F AND DUP3 ADD SWAP2 JUMPDEST POP POP POP POP POP DUP2 MSTORE PUSH1 0x20 ADD PUSH1 0x1 DUP3 ADD DUP1 SLOAD PUSH2 0x66B SWAP1 PUSH2 0x1713 JUMP JUMPDEST DUP1 PUSH1 0x1F ADD PUSH1 0x20 DUP1 SWAP2 DIV MUL PUSH1 0x20 ADD PUSH1 0x40 MLOAD SWAP1 DUP2 ADD PUSH1 0x40 MSTORE DUP1 SWAP3 SWAP2 SWAP1 DUP2 DUP2 MSTORE PUSH1 0x20 ADD DUP3 DUP1 SLOAD PUSH2 0x697 SWAP1 PUSH2 0x1713 JUMP JUMPDEST DUP1 ISZERO PUSH2 0x6E2 JUMPI DUP1 PUSH1 0x1F LT PUSH2 0x6B9 JUMPI PUSH2 0x100 DUP1 DUP4 SLOAD DIV MUL DUP4 MSTORE SWAP2 PUSH1 0x20 ADD SWAP2 PUSH2 0x6E2 JUMP JUMPDEST DUP3 ADD SWAP2 SWAP1 PUSH0 MSTORE PUSH1 0x20 PUSH0 KECCAK256 SWAP1 JUMPDEST DUP2 SLOAD DUP2 MSTORE SWAP1 PUSH1 0x1 ADD SWAP1 PUSH1 0x20 ADD DUP1 DUP4 GT PUSH2 0x6C5 JUMPI DUP3 SWAP1 SUB PUSH1 0x1F AND DUP3 ADD SWAP2 JUMPDEST POP POP POP POP POP DUP2 MSTORE PUSH1 0x20 ADD PUSH1 0x2 DUP3 ADD PUSH0 SWAP1 SLOAD SWAP1 PUSH2 0x100 EXP SWAP1 DIV PUSH20 0xFFFFFFFFFFFFFFFFFFFFFFFFFFFFFFFFFFFFFFFF AND PUSH20 0xFFFFFFFFFFFFFFFFFFFFFFFFFFFFFFFFFFFFFFFF AND PUSH20 0xFFFFFFFFFFFFFFFFFFFFFFFFFFFFFFFFFFFFFFFF AND DUP2 MSTORE PUSH1 0x20 ADD PUSH1 0x3 DUP3 ADD SLOAD DUP2 MSTORE PUSH1 0x20 ADD PUSH1 0x4 DUP3 ADD SLOAD DUP2 MSTORE POP POP DUP4 DUP3 DUP2 MLOAD DUP2 LT PUSH2 0x767 JUMPI PUSH2 0x766 PUSH2 0x1669 JUMP JUMPDEST JUMPDEST PUSH1 0x20 MUL PUSH1 0x20 ADD ADD DUP2 SWAP1 MSTORE POP DUP2 DUP1 PUSH2 0x77D SWAP1 PUSH2 0x1818 JUMP JUMPDEST SWAP3 POP POP JUMPDEST DUP1 DUP1 PUSH1 0x1 ADD SWAP2 POP POP PUSH2 0x520 JUMP JUMPDEST POP DUP2 SWAP3 POP POP POP SWAP2 SWAP1 POP JUMP JUMPDEST PUSH0 DUP1 SLOAD SWAP1 PUSH2 0x100 EXP SWAP1 DIV PUSH20 0xFFFFFFFFFFFFFFFFFFFFFFFFFFFFFFFFFFFFFFFF AND PUSH20 0xFFFFFFFFFFFFFFFFFFFFFFFFFFFFFFFFFFFFFFFF AND CALLER PUSH20 0xFFFFFFFFFFFFFFFFFFFFFFFFFFFFFFFFFFFFFFFF AND EQ PUSH2 0x826 JUMPI PUSH1 0x40 MLOAD PUSH32 0x8C379A000000000000000000000000000000000000000000000000000000000 DUP2 MSTORE PUSH1 0x4 ADD PUSH2 0x81D SWAP1 PUSH2 0x18CF JUMP JUMPDEST PUSH1 0x40 MLOAD DUP1 SWAP2 SUB SWAP1 REVERT JUMPDEST DUP1 PUSH1 0x1 PUSH0 PUSH2 0x100 EXP DUP2 SLOAD DUP2 PUSH20 0xFFFFFFFFFFFFFFFFFFFFFFFFFFFFFFFFFFFFFFFF MUL NOT AND SWAP1 DUP4 PUSH20 0xFFFFFFFFFFFFFFFFFFFFFFFFFFFFFFFFFFFFFFFF AND MUL OR SWAP1 SSTORE POP POP JUMP JUMPDEST PUSH1 0x60 PUSH1 0x2 DUP1 SLOAD DUP1 PUSH1 0x20 MUL PUSH1 0x20 ADD PUSH1 0x40 MLOAD SWAP1 DUP2 ADD PUSH1 0x40 MSTORE DUP1 SWAP3 SWAP2 SWAP1 DUP2 DUP2 MSTORE PUSH1 0x20 ADD PUSH0 SWAP1 JUMPDEST DUP3 DUP3 LT ISZERO PUSH2 0xA44 JUMPI DUP4 DUP3 SWAP1 PUSH0 MSTORE PUSH1 0x20 PUSH0 KECCAK256 SWAP1 PUSH1 0x5 MUL ADD PUSH1 0x40 MLOAD DUP1 PUSH1 0xA0 ADD PUSH1 0x40 MSTORE SWAP1 DUP2 PUSH0 DUP3 ADD DUP1 SLOAD PUSH2 0x8BC SWAP1 PUSH2 0x1713 JUMP JUMPDEST DUP1 PUSH1 0x1F ADD PUSH1 0x20 DUP1 SWAP2 DIV MUL PUSH1 0x20 ADD PUSH1 0x40 MLOAD SWAP1 DUP2 ADD PUSH1 0x40 MSTORE DUP1 SWAP3 SWAP2 SWAP1 DUP2 DUP2 MSTORE PUSH1 0x20 ADD DUP3 DUP1 SLOAD PUSH2 0x8E8 SWAP1 PUSH2 0x1713 JUMP JUMPDEST DUP1 ISZERO PUSH2 0x933 JUMPI DUP1 PUSH1 0x1F LT PUSH2 0x90A JUMPI PUSH2 0x100 DUP1 DUP4 SLOAD DIV MUL DUP4 MSTORE SWAP2 PUSH1 0x20 ADD SWAP2 PUSH2 0x933 JUMP JUMPDEST DUP3 ADD SWAP2 SWAP1 PUSH0 MSTORE PUSH1 0x20 PUSH0 KECCAK256 SWAP1 JUMPDEST DUP2 SLOAD DUP2 MSTORE SWAP1 PUSH1 0x1 ADD SWAP1 PUSH1 0x20 ADD DUP1 DUP4 GT PUSH2 0x916 JUMPI DUP3 SWAP1 SUB PUSH1 0x1F AND DUP3 ADD SWAP2 JUMPDEST POP POP POP POP POP DUP2 MSTORE PUSH1 0x20 ADD PUSH1 0x1 DUP3 ADD DUP1 SLOAD PUSH2 0x94C SWAP1 PUSH2 0x1713 JUMP JUMPDEST DUP1 PUSH1 0x1F ADD PUSH1 0x20 DUP1 SWAP2 DIV MUL PUSH1 0x20 ADD PUSH1 0x40 MLOAD SWAP1 DUP2 ADD PUSH1 0x40 MSTORE DUP1 SWAP3 SWAP2 SWAP1 DUP2 DUP2 MSTORE PUSH1 0x20 ADD DUP3 DUP1 SLOAD PUSH2 0x978 SWAP1 PUSH2 0x1713 JUMP JUMPDEST DUP1 ISZERO PUSH2 0x9C3 JUMPI DUP1 PUSH1 0x1F LT PUSH2 0x99A JUMPI PUSH2 0x100 DUP1 DUP4 SLOAD DIV MUL DUP4 MSTORE SWAP2 PUSH1 0x20 ADD SWAP2 PUSH2 0x9C3 JUMP JUMPDEST DUP3 ADD SWAP2 SWAP1 PUSH0 MSTORE PUSH1 0x20 PUSH0 KECCAK256 SWAP1 JUMPDEST DUP2 SLOAD DUP2 MSTORE SWAP1 PUSH1 0x1 ADD SWAP1 PUSH1 0x20 ADD DUP1 DUP4 GT PUSH2 0x9A6 JUMPI DUP3 SWAP1 SUB PUSH1 0x1F AND DUP3 ADD SWAP2 JUMPDEST POP POP POP POP POP DUP2 MSTORE PUSH1 0x20 ADD PUSH1 0x2 DUP3 ADD PUSH0 SWAP1 SLOAD SWAP1 PUSH2 0x100 EXP SWAP1 DIV PUSH20 0xFFFFFFFFFFFFFFFFFFFFFFFFFFFFFFFFFFFFFFFF AND PUSH20 0xFFFFFFFFFFFFFFFFFFFFFFFFFFFFFFFFFFFFFFFF AND PUSH20 0xFFFFFFFFFFFFFFFFFFFFFFFFFFFFFFFFFFFFFFFF AND DUP2 MSTORE PUSH1 0x20 ADD PUSH1 0x3 DUP3 ADD SLOAD DUP2 MSTORE PUSH1 0x20 ADD PUSH1 0x4 DUP3 ADD SLOAD DUP2 MSTORE POP POP DUP2 MSTORE PUSH1 0x20 ADD SWAP1 PUSH1 0x1 ADD SWAP1 PUSH2 0x88C JUMP JUMPDEST POP POP POP POP SWAP1 POP SWAP1 JUMP JUMPDEST PUSH1 0x1 PUSH0 SWAP1 SLOAD SWAP1 PUSH2 0x100 EXP SWAP1 DIV PUSH20 0xFFFFFFFFFFFFFFFFFFFFFFFFFFFFFFFFFFFFFFFF AND PUSH20 0xFFFFFFFFFFFFFFFFFFFFFFFFFFFFFFFFFFFFFFFF AND CALLER PUSH20 0xFFFFFFFFFFFFFFFFFFFFFFFFFFFFFFFFFFFFFFFF AND EQ PUSH2 0xADC JUMPI PUSH1 0x40 MLOAD PUSH32 0x8C379A000000000000000000000000000000000000000000000000000000000 DUP2 MSTORE PUSH1 0x4 ADD PUSH2 0xAD3 SWAP1 PUSH2 0x18CF JUMP JUMPDEST PUSH1 0x40 MLOAD DUP1 SWAP2 SUB SWAP1 REVERT JUMPDEST PUSH2 0xAE4 PUSH2 0xEB0 JUMP JUMPDEST DUP6 DUP2 PUSH0 ADD DUP2 SWAP1 MSTORE POP DUP5 DUP2 PUSH1 0x20 ADD DUP2 SWAP1 MSTORE POP DUP4 DUP2 PUSH1 0x40 ADD SWAP1 PUSH20 0xFFFFFFFFFFFFFFFFFFFFFFFFFFFFFFFFFFFFFFFF AND SWAP1 DUP2 PUSH20 0xFFFFFFFFFFFFFFFFFFFFFFFFFFFFFFFFFFFFFFFF AND DUP2 MSTORE POP POP DUP3 DUP2 PUSH1 0x60 ADD DUP2 DUP2 MSTORE POP POP DUP2 DUP2 PUSH1 0x80 ADD DUP2 DUP2 MSTORE POP POP PUSH1 0x2 DUP2 SWAP1 DUP1 PUSH1 0x1 DUP2 SLOAD ADD DUP1 DUP3 SSTORE DUP1 SWAP2 POP POP PUSH1 0x1 SWAP1 SUB SWAP1 PUSH0 MSTORE PUSH1 0x20 PUSH0 KECCAK256 SWAP1 PUSH1 0x5 MUL ADD PUSH0 SWAP1 SWAP2 SWAP1 SWAP2 SWAP1 SWAP2 POP PUSH0 DUP3 ADD MLOAD DUP2 PUSH0 ADD SWAP1 DUP2 PUSH2 0xB7D SWAP2 SWAP1 PUSH2 0x1A78 JUMP JUMPDEST POP PUSH1 0x20 DUP3 ADD MLOAD DUP2 PUSH1 0x1 ADD SWAP1 DUP2 PUSH2 0xB93 SWAP2 SWAP1 PUSH2 0x1A78 JUMP JUMPDEST POP PUSH1 0x40 DUP3 ADD MLOAD DUP2 PUSH1 0x2 ADD PUSH0 PUSH2 0x100 EXP DUP2 SLOAD DUP2 PUSH20 0xFFFFFFFFFFFFFFFFFFFFFFFFFFFFFFFFFFFFFFFF MUL NOT AND SWAP1 DUP4 PUSH20 0xFFFFFFFFFFFFFFFFFFFFFFFFFFFFFFFFFFFFFFFF AND MUL OR SWAP1 SSTORE POP PUSH1 0x60 DUP3 ADD MLOAD DUP2 PUSH1 0x3 ADD SSTORE PUSH1 0x80 DUP3 ADD MLOAD DUP2 PUSH1 0x4 ADD SSTORE POP POP POP POP POP POP POP POP JUMP JUMPDEST PUSH2 0xC00 PUSH2 0xEB0 JUMP JUMPDEST PUSH0 JUMPDEST PUSH1 0x2 DUP1 SLOAD SWAP1 POP DUP2 LT ISZERO PUSH2 0xE4C JUMPI DUP3 PUSH1 0x40 MLOAD PUSH1 0x20 ADD PUSH2 0xC20 SWAP2 SWAP1 PUSH2 0x16D0 JUMP JUMPDEST PUSH1 0x40 MLOAD PUSH1 0x20 DUP2 DUP4 SUB SUB DUP2 MSTORE SWAP1 PUSH1 0x40 MSTORE DUP1 MLOAD SWAP1 PUSH1 0x20 ADD KECCAK256 PUSH1 0x2 DUP3 DUP2 SLOAD DUP2 LT PUSH2 0xC4A JUMPI PUSH2 0xC49 PUSH2 0x1669 JUMP JUMPDEST JUMPDEST SWAP1 PUSH0 MSTORE PUSH1 0x20 PUSH0 KECCAK256 SWAP1 PUSH1 0x5 MUL ADD PUSH1 0x1 ADD PUSH1 0x40 MLOAD PUSH1 0x20 ADD PUSH2 0xC69 SWAP2 SWAP1 PUSH2 0x17D5 JUMP JUMPDEST PUSH1 0x40 MLOAD PUSH1 0x20 DUP2 DUP4 SUB SUB DUP2 MSTORE SWAP1 PUSH1 0x40 MSTORE DUP1 MLOAD SWAP1 PUSH1 0x20 ADD KECCAK256 SUB PUSH2 0xE3F JUMPI PUSH1 0x2 DUP2 DUP2 SLOAD DUP2 LT PUSH2 0xC98 JUMPI PUSH2 0xC97 PUSH2 0x1669 JUMP JUMPDEST JUMPDEST SWAP1 PUSH0 MSTORE PUSH1 0x20 PUSH0 KECCAK256 SWAP1 PUSH1 0x5 MUL ADD PUSH1 0x40 MLOAD DUP1 PUSH1 0xA0 ADD PUSH1 0x40 MSTORE SWAP1 DUP2 PUSH0 DUP3 ADD DUP1 SLOAD PUSH2 0xCBE SWAP1 PUSH2 0x1713 JUMP JUMPDEST DUP1 PUSH1 0x1F ADD PUSH1 0x20 DUP1 SWAP2 DIV MUL PUSH1 0x20 ADD PUSH1 0x40 MLOAD SWAP1 DUP2 ADD PUSH1 0x40 MSTORE DUP1 SWAP3 SWAP2 SWAP1 DUP2 DUP2 MSTORE PUSH1 0x20 ADD DUP3 DUP1 SLOAD PUSH2 0xCEA SWAP1 PUSH2 0x1713 JUMP JUMPDEST DUP1 ISZERO PUSH2 0xD35 JUMPI DUP1 PUSH1 0x1F LT PUSH2 0xD0C JUMPI PUSH2 0x100 DUP1 DUP4 SLOAD DIV MUL DUP4 MSTORE SWAP2 PUSH1 0x20 ADD SWAP2 PUSH2 0xD35 JUMP JUMPDEST DUP3 ADD SWAP2 SWAP1 PUSH0 MSTORE PUSH1 0x20 PUSH0 KECCAK256 SWAP1 JUMPDEST DUP2 SLOAD DUP2 MSTORE SWAP1 PUSH1 0x1 ADD SWAP1 PUSH1 0x20 ADD DUP1 DUP4 GT PUSH2 0xD18 JUMPI DUP3 SWAP1 SUB PUSH1 0x1F AND DUP3 ADD SWAP2 JUMPDEST POP POP POP POP POP DUP2 MSTORE PUSH1 0x20 ADD PUSH1 0x1 DUP3 ADD DUP1 SLOAD PUSH2 0xD4E SWAP1 PUSH2 0x1713 JUMP JUMPDEST DUP1 PUSH1 0x1F ADD PUSH1 0x20 DUP1 SWAP2 DIV MUL PUSH1 0x20 ADD PUSH1 0x40 MLOAD SWAP1 DUP2 ADD PUSH1 0x40 MSTORE DUP1 SWAP3 SWAP2 SWAP1 DUP2 DUP2 MSTORE PUSH1 0x20 ADD DUP3 DUP1 SLOAD PUSH2 0xD7A SWAP1 PUSH2 0x1713 JUMP JUMPDEST DUP1 ISZERO PUSH2 0xDC5 JUMPI DUP1 PUSH1 0x1F LT PUSH2 0xD9C JUMPI PUSH2 0x100 DUP1 DUP4 SLOAD DIV MUL DUP4 MSTORE SWAP2 PUSH1 0x20 ADD SWAP2 PUSH2 0xDC5 JUMP JUMPDEST DUP3 ADD SWAP2 SWAP1 PUSH0 MSTORE PUSH1 0x20 PUSH0 KECCAK256 SWAP1 JUMPDEST DUP2 SLOAD DUP2 MSTORE SWAP1 PUSH1 0x1 ADD SWAP1 PUSH1 0x20 ADD DUP1 DUP4 GT PUSH2 0xDA8 JUMPI DUP3 SWAP1 SUB PUSH1 0x1F AND DUP3 ADD SWAP2 JUMPDEST POP POP POP POP POP DUP2 MSTORE PUSH1 0x20 ADD PUSH1 0x2 DUP3 ADD PUSH0 SWAP1 SLOAD SWAP1 PUSH2 0x100 EXP SWAP1 DIV PUSH20 0xFFFFFFFFFFFFFFFFFFFFFFFFFFFFFFFFFFFFFFFF AND PUSH20 0xFFFFFFFFFFFFFFFFFFFFFFFFFFFFFFFFFFFFFFFF AND PUSH20 0xFFFFFFFFFFFFFFFFFFFFFFFFFFFFFFFFFFFFFFFF AND DUP2 MSTORE PUSH1 0x20 ADD PUSH1 0x3 DUP3 ADD SLOAD DUP2 MSTORE PUSH1 0x20 ADD PUSH1 0x4 DUP3 ADD SLOAD DUP2 MSTORE POP POP SWAP2 POP POP PUSH2 0xE88 JUMP JUMPDEST DUP1 DUP1 PUSH1 0x1 ADD SWAP2 POP POP PUSH2 0xC02 JUMP JUMPDEST POP PUSH1 0x40 MLOAD PUSH32 0x8C379A000000000000000000000000000000000000000000000000000000000 DUP2 MSTORE PUSH1 0x4 ADD PUSH2 0xE7F SWAP1 PUSH2 0x1B91 JUMP JUMPDEST PUSH1 0x40 MLOAD DUP1 SWAP2 SUB SWAP1 REVERT JUMPDEST SWAP2 SWAP1 POP JUMP JUMPDEST PUSH0 DUP1 SLOAD SWAP1 PUSH2 0x100 EXP SWAP1 DIV PUSH20 0xFFFFFFFFFFFFFFFFFFFFFFFFFFFFFFFFFFFFFFFF AND DUP2 JUMP JUMPDEST PUSH1 0x40 MLOAD DUP1 PUSH1 0xA0 ADD PUSH1 0x40 MSTORE DUP1 PUSH1 0x60 DUP2 MSTORE PUSH1 0x20 ADD PUSH1 0x60 DUP2 MSTORE PUSH1 0x20 ADD PUSH0 PUSH20 0xFFFFFFFFFFFFFFFFFFFFFFFFFFFFFFFFFFFFFFFF AND DUP2 MSTORE PUSH1 0x20 ADD PUSH0 DUP2 MSTORE PUSH1 0x20 ADD PUSH0 DUP2 MSTORE POP SWAP1 JUMP JUMPDEST PUSH0 PUSH1 0x40 MLOAD SWAP1 POP SWAP1 JUMP JUMPDEST PUSH0 DUP1 REVERT JUMPDEST PUSH0 DUP1 REVERT JUMPDEST PUSH0 PUSH20 0xFFFFFFFFFFFFFFFFFFFFFFFFFFFFFFFFFFFFFFFF DUP3 AND SWAP1 POP SWAP2 SWAP1 POP JUMP JUMPDEST PUSH0 PUSH2 0xF2C DUP3 PUSH2 0xF03 JUMP JUMPDEST SWAP1 POP SWAP2 SWAP1 POP JUMP JUMPDEST PUSH2 0xF3C DUP2 PUSH2 0xF22 JUMP JUMPDEST DUP2 EQ PUSH2 0xF46 JUMPI PUSH0 DUP1 REVERT JUMPDEST POP JUMP JUMPDEST PUSH0 DUP2 CALLDATALOAD SWAP1 POP PUSH2 0xF57 DUP2 PUSH2 0xF33 JUMP JUMPDEST SWAP3 SWAP2 POP POP JUMP JUMPDEST PUSH0 DUP1 REVERT JUMPDEST PUSH0 DUP1 REVERT JUMPDEST PUSH0 PUSH1 0x1F NOT PUSH1 0x1F DUP4 ADD AND SWAP1 POP SWAP2 SWAP1 POP JUMP JUMPDEST PUSH32 0x4E487B7100000000000000000000000000000000000000000000000000000000 PUSH0 MSTORE PUSH1 0x41 PUSH1 0x4 MSTORE PUSH1 0x24 PUSH0 REVERT JUMPDEST PUSH2 0xFAB DUP3 PUSH2 0xF65 JUMP JUMPDEST DUP2 ADD DUP2 DUP2 LT PUSH8 0xFFFFFFFFFFFFFFFF DUP3 GT OR ISZERO PUSH2 0xFCA JUMPI PUSH2 0xFC9 PUSH2 0xF75 JUMP JUMPDEST JUMPDEST DUP1 PUSH1 0x40 MSTORE POP POP POP JUMP JUMPDEST PUSH0 PUSH2 0xFDC PUSH2 0xEF2 JUMP JUMPDEST SWAP1 POP PUSH2 0xFE8 DUP3 DUP3 PUSH2 0xFA2 JUMP JUMPDEST SWAP2 SWAP1 POP JUMP JUMPDEST PUSH0 PUSH8 0xFFFFFFFFFFFFFFFF DUP3 GT ISZERO PUSH2 0x1007 JUMPI PUSH2 0x1006 PUSH2 0xF75 JUMP JUMPDEST JUMPDEST PUSH2 0x1010 DUP3 PUSH2 0xF65 JUMP JUMPDEST SWAP1 POP PUSH1 0x20 DUP2 ADD SWAP1 POP SWAP2 SWAP1 POP JUMP JUMPDEST DUP3 DUP2 DUP4 CALLDATACOPY PUSH0 DUP4 DUP4 ADD MSTORE POP POP POP JUMP JUMPDEST PUSH0 PUSH2 0x103D PUSH2 0x1038 DUP5 PUSH2 0xFED JUMP JUMPDEST PUSH2 0xFD3 JUMP JUMPDEST SWAP1 POP DUP3 DUP2 MSTORE PUSH1 0x20 DUP2 ADD DUP5 DUP5 DUP5 ADD GT ISZERO PUSH2 0x1059 JUMPI PUSH2 0x1058 PUSH2 0xF61 JUMP JUMPDEST JUMPDEST PUSH2 0x1064 DUP5 DUP3 DUP6 PUSH2 0x101D JUMP JUMPDEST POP SWAP4 SWAP3 POP POP POP JUMP JUMPDEST PUSH0 DUP3 PUSH1 0x1F DUP4 ADD SLT PUSH2 0x1080 JUMPI PUSH2 0x107F PUSH2 0xF5D JUMP JUMPDEST JUMPDEST DUP2 CALLDATALOAD PUSH2 0x1090 DUP5 DUP3 PUSH1 0x20 DUP7 ADD PUSH2 0x102B JUMP JUMPDEST SWAP2 POP POP SWAP3 SWAP2 POP POP JUMP JUMPDEST PUSH0 DUP1 PUSH1 0x40 DUP4 DUP6 SUB SLT ISZERO PUSH2 0x10AF JUMPI PUSH2 0x10AE PUSH2 0xEFB JUMP JUMPDEST JUMPDEST PUSH0 PUSH2 0x10BC DUP6 DUP3 DUP7 ADD PUSH2 0xF49 JUMP JUMPDEST SWAP3 POP POP PUSH1 0x20 DUP4 ADD CALLDATALOAD PUSH8 0xFFFFFFFFFFFFFFFF DUP2 GT ISZERO PUSH2 0x10DD JUMPI PUSH2 0x10DC PUSH2 0xEFF JUMP JUMPDEST JUMPDEST PUSH2 0x10E9 DUP6 DUP3 DUP7 ADD PUSH2 0x106C JUMP JUMPDEST SWAP2 POP POP SWAP3 POP SWAP3 SWAP1 POP JUMP JUMPDEST PUSH0 DUP2 ISZERO ISZERO SWAP1 POP SWAP2 SWAP1 POP JUMP JUMPDEST PUSH2 0x1107 DUP2 PUSH2 0x10F3 JUMP JUMPDEST DUP3 MSTORE POP POP JUMP JUMPDEST PUSH0 PUSH1 0x20 DUP3 ADD SWAP1 POP PUSH2 0x1120 PUSH0 DUP4 ADD DUP5 PUSH2 0x10FE JUMP JUMPDEST SWAP3 SWAP2 POP POP JUMP JUMPDEST PUSH2 0x112F DUP2 PUSH2 0xF22 JUMP JUMPDEST DUP3 MSTORE POP POP JUMP JUMPDEST PUSH0 PUSH1 0x20 DUP3 ADD SWAP1 POP PUSH2 0x1148 PUSH0 DUP4 ADD DUP5 PUSH2 0x1126 JUMP JUMPDEST SWAP3 SWAP2 POP POP JUMP JUMPDEST PUSH0 DUP2 SWAP1 POP SWAP2 SWAP1 POP JUMP JUMPDEST PUSH2 0x1160 DUP2 PUSH2 0x114E JUMP JUMPDEST DUP2 EQ PUSH2 0x116A JUMPI PUSH0 DUP1 REVERT JUMPDEST POP JUMP JUMPDEST PUSH0 DUP2 CALLDATALOAD SWAP1 POP PUSH2 0x117B DUP2 PUSH2 0x1157 JUMP JUMPDEST SWAP3 SWAP2 POP POP JUMP JUMPDEST PUSH0 PUSH1 0x20 DUP3 DUP5 SUB SLT ISZERO PUSH2 0x1196 JUMPI PUSH2 0x1195 PUSH2 0xEFB JUMP JUMPDEST JUMPDEST PUSH0 PUSH2 0x11A3 DUP5 DUP3 DUP6 ADD PUSH2 0x116D JUMP JUMPDEST SWAP2 POP POP SWAP3 SWAP2 POP POP JUMP JUMPDEST PUSH0 DUP2 MLOAD SWAP1 POP SWAP2 SWAP1 POP JUMP JUMPDEST PUSH0 DUP3 DUP3 MSTORE PUSH1 0x20 DUP3 ADD SWAP1 POP SWAP3 SWAP2 POP POP JUMP JUMPDEST PUSH0 JUMPDEST DUP4 DUP2 LT ISZERO PUSH2 0x11E3 JUMPI DUP1 DUP3 ADD MLOAD DUP2 DUP5 ADD MSTORE PUSH1 0x20 DUP2 ADD SWAP1 POP PUSH2 0x11C8 JUMP JUMPDEST PUSH0 DUP5 DUP5 ADD MSTORE POP POP POP POP JUMP JUMPDEST PUSH0 PUSH2 0x11F8 DUP3 PUSH2 0x11AC JUMP JUMPDEST PUSH2 0x1202 DUP2 DUP6 PUSH2 0x11B6 JUMP JUMPDEST SWAP4 POP PUSH2 0x1212 DUP2 DUP6 PUSH1 0x20 DUP7 ADD PUSH2 0x11C6 JUMP JUMPDEST PUSH2 0x121B DUP2 PUSH2 0xF65 JUMP JUMPDEST DUP5 ADD SWAP2 POP POP SWAP3 SWAP2 POP POP JUMP JUMPDEST PUSH2 0x122F DUP2 PUSH2 0x114E JUMP JUMPDEST DUP3 MSTORE POP POP JUMP JUMPDEST PUSH0 PUSH1 0xA0 DUP3 ADD SWAP1 POP DUP2 DUP2 SUB PUSH0 DUP4 ADD MSTORE PUSH2 0x124D DUP2 DUP9 PUSH2 0x11EE JUMP JUMPDEST SWAP1 POP DUP2 DUP2 SUB PUSH1 0x20 DUP4 ADD MSTORE PUSH2 0x1261 DUP2 DUP8 PUSH2 0x11EE JUMP JUMPDEST SWAP1 POP PUSH2 0x1270 PUSH1 0x40 DUP4 ADD DUP7 PUSH2 0x1126 JUMP JUMPDEST PUSH2 0x127D PUSH1 0x60 DUP4 ADD DUP6 PUSH2 0x1226 JUMP JUMPDEST PUSH2 0x128A PUSH1 0x80 DUP4 ADD DUP5 PUSH2 0x1226 JUMP JUMPDEST SWAP7 SWAP6 POP POP POP POP POP POP JUMP JUMPDEST PUSH0 PUSH1 0x20 DUP3 DUP5 SUB SLT ISZERO PUSH2 0x12A9 JUMPI PUSH2 0x12A8 PUSH2 0xEFB JUMP JUMPDEST JUMPDEST PUSH0 DUP3 ADD CALLDATALOAD PUSH8 0xFFFFFFFFFFFFFFFF DUP2 GT ISZERO PUSH2 0x12C6 JUMPI PUSH2 0x12C5 PUSH2 0xEFF JUMP JUMPDEST JUMPDEST PUSH2 0x12D2 DUP5 DUP3 DUP6 ADD PUSH2 0x106C JUMP JUMPDEST SWAP2 POP POP SWAP3 SWAP2 POP POP JUMP JUMPDEST PUSH0 DUP2 MLOAD SWAP1 POP SWAP2 SWAP1 POP JUMP JUMPDEST PUSH0 DUP3 DUP3 MSTORE PUSH1 0x20 DUP3 ADD SWAP1 POP SWAP3 SWAP2 POP POP JUMP JUMPDEST PUSH0 DUP2 SWAP1 POP PUSH1 0x20 DUP3 ADD SWAP1 POP SWAP2 SWAP1 POP JUMP JUMPDEST PUSH0 DUP3 DUP3 MSTORE PUSH1 0x20 DUP3 ADD SWAP1 POP SWAP3 SWAP2 POP POP JUMP JUMPDEST PUSH0 PUSH2 0x131E DUP3 PUSH2 0x11AC JUMP JUMPDEST PUSH2 0x1328 DUP2 DUP6 PUSH2 0x1304 JUMP JUMPDEST SWAP4 POP PUSH2 0x1338 DUP2 DUP6 PUSH1 0x20 DUP7 ADD PUSH2 0x11C6 JUMP JUMPDEST PUSH2 0x1341 DUP2 PUSH2 0xF65 JUMP JUMPDEST DUP5 ADD SWAP2 POP POP SWAP3 SWAP2 POP POP JUMP JUMPDEST PUSH2 0x1355 DUP2 PUSH2 0xF22 JUMP JUMPDEST DUP3 MSTORE POP POP JUMP JUMPDEST PUSH2 0x1364 DUP2 PUSH2 0x114E JUMP JUMPDEST DUP3 MSTORE POP POP JUMP JUMPDEST PUSH0 PUSH1 0xA0 DUP4 ADD PUSH0 DUP4 ADD MLOAD DUP5 DUP3 SUB PUSH0 DUP7 ADD MSTORE PUSH2 0x1384 DUP3 DUP3 PUSH2 0x1314 JUMP JUMPDEST SWAP2 POP POP PUSH1 0x20 DUP4 ADD MLOAD DUP5 DUP3 SUB PUSH1 0x20 DUP7 ADD MSTORE PUSH2 0x139E DUP3 DUP3 PUSH2 0x1314 JUMP JUMPDEST SWAP2 POP POP PUSH1 0x40 DUP4 ADD MLOAD PUSH2 0x13B3 PUSH1 0x40 DUP7 ADD DUP3 PUSH2 0x134C JUMP JUMPDEST POP PUSH1 0x60 DUP4 ADD MLOAD PUSH2 0x13C6 PUSH1 0x60 DUP7 ADD DUP3 PUSH2 0x135B JUMP JUMPDEST POP PUSH1 0x80 DUP4 ADD MLOAD PUSH2 0x13D9 PUSH1 0x80 DUP7 ADD DUP3 PUSH2 0x135B JUMP JUMPDEST POP DUP1 SWAP2 POP POP SWAP3 SWAP2 POP POP JUMP JUMPDEST PUSH0 PUSH2 0x13EF DUP4 DUP4 PUSH2 0x136A JUMP JUMPDEST SWAP1 POP SWAP3 SWAP2 POP POP JUMP JUMPDEST PUSH0 PUSH1 0x20 DUP3 ADD SWAP1 POP SWAP2 SWAP1 POP JUMP JUMPDEST PUSH0 PUSH2 0x140D DUP3 PUSH2 0x12DB JUMP JUMPDEST PUSH2 0x1417 DUP2 DUP6 PUSH2 0x12E5 JUMP JUMPDEST SWAP4 POP DUP4 PUSH1 0x20 DUP3 MUL DUP6 ADD PUSH2 0x1429 DUP6 PUSH2 0x12F5 JUMP JUMPDEST DUP1 PUSH0 JUMPDEST DUP6 DUP2 LT ISZERO PUSH2 0x1464 JUMPI DUP5 DUP5 SUB DUP10 MSTORE DUP2 MLOAD PUSH2 0x1445 DUP6 DUP3 PUSH2 0x13E4 JUMP JUMPDEST SWAP5 POP PUSH2 0x1450 DUP4 PUSH2 0x13F7 JUMP JUMPDEST SWAP3 POP PUSH1 0x20 DUP11 ADD SWAP10 POP POP PUSH1 0x1 DUP2 ADD SWAP1 POP PUSH2 0x142C JUMP JUMPDEST POP DUP3 SWAP8 POP DUP8 SWAP6 POP POP POP POP POP POP SWAP3 SWAP2 POP POP JUMP JUMPDEST PUSH0 PUSH1 0x20 DUP3 ADD SWAP1 POP DUP2 DUP2 SUB PUSH0 DUP4 ADD MSTORE PUSH2 0x148E DUP2 DUP5 PUSH2 0x1403 JUMP JUMPDEST SWAP1 POP SWAP3 SWAP2 POP POP JUMP JUMPDEST PUSH0 PUSH1 0x20 DUP3 DUP5 SUB SLT ISZERO PUSH2 0x14AB JUMPI PUSH2 0x14AA PUSH2 0xEFB JUMP JUMPDEST JUMPDEST PUSH0 PUSH2 0x14B8 DUP5 DUP3 DUP6 ADD PUSH2 0xF49 JUMP JUMPDEST SWAP2 POP POP SWAP3 SWAP2 POP POP JUMP JUMPDEST PUSH0 DUP1 PUSH0 DUP1 PUSH0 PUSH1 0xA0 DUP7 DUP9 SUB SLT ISZERO PUSH2 0x14DA JUMPI PUSH2 0x14D9 PUSH2 0xEFB JUMP JUMPDEST JUMPDEST PUSH0 DUP7 ADD CALLDATALOAD PUSH8 0xFFFFFFFFFFFFFFFF DUP2 GT ISZERO PUSH2 0x14F7 JUMPI PUSH2 0x14F6 PUSH2 0xEFF JUMP JUMPDEST JUMPDEST PUSH2 0x1503 DUP9 DUP3 DUP10 ADD PUSH2 0x106C JUMP JUMPDEST SWAP6 POP POP PUSH1 0x20 DUP7 ADD CALLDATALOAD PUSH8 0xFFFFFFFFFFFFFFFF DUP2 GT ISZERO PUSH2 0x1524 JUMPI PUSH2 0x1523 PUSH2 0xEFF JUMP JUMPDEST JUMPDEST PUSH2 0x1530 DUP9 DUP3 DUP10 ADD PUSH2 0x106C JUMP JUMPDEST SWAP5 POP POP PUSH1 0x40 PUSH2 0x1541 DUP9 DUP3 DUP10 ADD PUSH2 0xF49 JUMP JUMPDEST SWAP4 POP POP PUSH1 0x60 PUSH2 0x1552 DUP9 DUP3 DUP10 ADD PUSH2 0x116D JUMP JUMPDEST SWAP3 POP POP PUSH1 0x80 PUSH2 0x1563 DUP9 DUP3 DUP10 ADD PUSH2 0x116D JUMP JUMPDEST SWAP2 POP POP SWAP3 SWAP6 POP SWAP3 SWAP6 SWAP1 SWAP4 POP JUMP JUMPDEST PUSH0 PUSH1 0xA0 DUP4 ADD PUSH0 DUP4 ADD MLOAD DUP5 DUP3 SUB PUSH0 DUP7 ADD MSTORE PUSH2 0x158A DUP3 DUP3 PUSH2 0x1314 JUMP JUMPDEST SWAP2 POP POP PUSH1 0x20 DUP4 ADD MLOAD DUP5 DUP3 SUB PUSH1 0x20 DUP7 ADD MSTORE PUSH2 0x15A4 DUP3 DUP3 PUSH2 0x1314 JUMP JUMPDEST SWAP2 POP POP PUSH1 0x40 DUP4 ADD MLOAD PUSH2 0x15B9 PUSH1 0x40 DUP7 ADD DUP3 PUSH2 0x134C JUMP JUMPDEST POP PUSH1 0x60 DUP4 ADD MLOAD PUSH2 0x15CC PUSH1 0x60 DUP7 ADD DUP3 PUSH2 0x135B JUMP JUMPDEST POP PUSH1 0x80 DUP4 ADD MLOAD PUSH2 0x15DF PUSH1 0x80 DUP7 ADD DUP3 PUSH2 0x135B JUMP JUMPDEST POP DUP1 SWAP2 POP POP SWAP3 SWAP2 POP POP JUMP JUMPDEST PUSH0 PUSH1 0x20 DUP3 ADD SWAP1 POP DUP2 DUP2 SUB PUSH0 DUP4 ADD MSTORE PUSH2 0x1602 DUP2 DUP5 PUSH2 0x1570 JUMP JUMPDEST SWAP1 POP SWAP3 SWAP2 POP POP JUMP JUMPDEST PUSH0 DUP2 PUSH1 0x60 SHL SWAP1 POP SWAP2 SWAP1 POP JUMP JUMPDEST PUSH0 PUSH2 0x1620 DUP3 PUSH2 0x160A JUMP JUMPDEST SWAP1 POP SWAP2 SWAP1 POP JUMP JUMPDEST PUSH0 PUSH2 0x1631 DUP3 PUSH2 0x1616 JUMP JUMPDEST SWAP1 POP SWAP2 SWAP1 POP JUMP JUMPDEST PUSH2 0x1649 PUSH2 0x1644 DUP3 PUSH2 0xF22 JUMP JUMPDEST PUSH2 0x1627 JUMP JUMPDEST DUP3 MSTORE POP POP JUMP JUMPDEST PUSH0 PUSH2 0x165A DUP3 DUP5 PUSH2 0x1638 JUMP JUMPDEST PUSH1 0x14 DUP3 ADD SWAP2 POP DUP2 SWAP1 POP SWAP3 SWAP2 POP POP JUMP JUMPDEST PUSH32 0x4E487B7100000000000000000000000000000000000000000000000000000000 PUSH0 MSTORE PUSH1 0x32 PUSH1 0x4 MSTORE PUSH1 0x24 PUSH0 REVERT JUMPDEST PUSH0 DUP2 SWAP1 POP SWAP3 SWAP2 POP POP JUMP JUMPDEST PUSH0 PUSH2 0x16AA DUP3 PUSH2 0x11AC JUMP JUMPDEST PUSH2 0x16B4 DUP2 DUP6 PUSH2 0x1696 JUMP JUMPDEST SWAP4 POP PUSH2 0x16C4 DUP2 DUP6 PUSH1 0x20 DUP7 ADD PUSH2 0x11C6 JUMP JUMPDEST DUP1 DUP5 ADD SWAP2 POP POP SWAP3 SWAP2 POP POP JUMP JUMPDEST PUSH0 PUSH2 0x16DB DUP3 DUP5 PUSH2 0x16A0 JUMP JUMPDEST SWAP2 POP DUP2 SWAP1 POP SWAP3 SWAP2 POP POP JUMP JUMPDEST PUSH32 0x4E487B7100000000000000000000000000000000000000000000000000000000 PUSH0 MSTORE PUSH1 0x22 PUSH1 0x4 MSTORE PUSH1 0x24 PUSH0 REVERT JUMPDEST PUSH0 PUSH1 0x2 DUP3 DIV SWAP1 POP PUSH1 0x1 DUP3 AND DUP1 PUSH2 0x172A JUMPI PUSH1 0x7F DUP3 AND SWAP2 POP JUMPDEST PUSH1 0x20 DUP3 LT DUP2 SUB PUSH2 0x173D JUMPI PUSH2 0x173C PUSH2 0x16E6 JUMP JUMPDEST JUMPDEST POP SWAP2 SWAP1 POP JUMP JUMPDEST PUSH0 DUP2 SWAP1 POP DUP2 PUSH0 MSTORE PUSH1 0x20 PUSH0 KECCAK256 SWAP1 POP SWAP2 SWAP1 POP JUMP JUMPDEST PUSH0 DUP2 SLOAD PUSH2 0x1761 DUP2 PUSH2 0x1713 JUMP JUMPDEST PUSH2 0x176B DUP2 DUP7 PUSH2 0x1696 JUMP JUMPDEST SWAP5 POP PUSH1 0x1 DUP3 AND PUSH0 DUP2 EQ PUSH2 0x1785 JUMPI PUSH1 0x1 DUP2 EQ PUSH2 0x179A JUMPI PUSH2 0x17CC JUMP JUMPDEST PUSH1 0xFF NOT DUP4 AND DUP7 MSTORE DUP2 ISZERO ISZERO DUP3 MUL DUP7 ADD SWAP4 POP PUSH2 0x17CC JUMP JUMPDEST PUSH2 0x17A3 DUP6 PUSH2 0x1743 JUMP JUMPDEST PUSH0 JUMPDEST DUP4 DUP2 LT ISZERO PUSH2 0x17C4 JUMPI DUP2 SLOAD DUP2 DUP10 ADD MSTORE PUSH1 0x1 DUP3 ADD SWAP2 POP PUSH1 0x20 DUP2 ADD SWAP1 POP PUSH2 0x17A5 JUMP JUMPDEST DUP4 DUP9 ADD SWAP6 POP POP POP JUMPDEST POP POP POP SWAP3 SWAP2 POP POP JUMP JUMPDEST PUSH0 PUSH2 0x17E0 DUP3 DUP5 PUSH2 0x1755 JUMP JUMPDEST SWAP2 POP DUP2 SWAP1 POP SWAP3 SWAP2 POP POP JUMP JUMPDEST PUSH32 0x4E487B7100000000000000000000000000000000000000000000000000000000 PUSH0 MSTORE PUSH1 0x11 PUSH1 0x4 MSTORE PUSH1 0x24 PUSH0 REVERT JUMPDEST PUSH0 PUSH2 0x1822 DUP3 PUSH2 0x114E JUMP JUMPDEST SWAP2 POP PUSH32 0xFFFFFFFFFFFFFFFFFFFFFFFFFFFFFFFFFFFFFFFFFFFFFFFFFFFFFFFFFFFFFFFF DUP3 SUB PUSH2 0x1854 JUMPI PUSH2 0x1853 PUSH2 0x17EB JUMP JUMPDEST JUMPDEST PUSH1 0x1 DUP3 ADD SWAP1 POP SWAP2 SWAP1 POP JUMP JUMPDEST PUSH32 0x4F6E6C792063616D706169676E20636F6E74726163742063616C6C2074686973 PUSH0 DUP3 ADD MSTORE PUSH32 0x2066756E6374696F6E0000000000000000000000000000000000000000000000 PUSH1 0x20 DUP3 ADD MSTORE POP JUMP JUMPDEST PUSH0 PUSH2 0x18B9 PUSH1 0x29 DUP4 PUSH2 0x11B6 JUMP JUMPDEST SWAP2 POP PUSH2 0x18C4 DUP3 PUSH2 0x185F JUMP JUMPDEST PUSH1 0x40 DUP3 ADD SWAP1 POP SWAP2 SWAP1 POP JUMP JUMPDEST PUSH0 PUSH1 0x20 DUP3 ADD SWAP1 POP DUP2 DUP2 SUB PUSH0 DUP4 ADD MSTORE PUSH2 0x18E6 DUP2 PUSH2 0x18AD JUMP JUMPDEST SWAP1 POP SWAP2 SWAP1 POP JUMP JUMPDEST PUSH0 PUSH1 0x20 PUSH1 0x1F DUP4 ADD DIV SWAP1 POP SWAP2 SWAP1 POP JUMP JUMPDEST PUSH0 DUP3 DUP3 SHL SWAP1 POP SWAP3 SWAP2 POP POP JUMP JUMPDEST PUSH0 PUSH1 0x8 DUP4 MUL PUSH2 0x1937 PUSH32 0xFFFFFFFFFFFFFFFFFFFFFFFFFFFFFFFFFFFFFFFFFFFFFFFFFFFFFFFFFFFFFFFF DUP3 PUSH2 0x18FC JUMP JUMPDEST PUSH2 0x1941 DUP7 DUP4 PUSH2 0x18FC JUMP JUMPDEST SWAP6 POP DUP1 NOT DUP5 AND SWAP4 POP DUP1 DUP7 AND DUP5 OR SWAP3 POP POP POP SWAP4 SWAP3 POP POP POP JUMP JUMPDEST PUSH0 DUP2 SWAP1 POP SWAP2 SWAP1 POP JUMP JUMPDEST PUSH0 PUSH2 0x197C PUSH2 0x1977 PUSH2 0x1972 DUP5 PUSH2 0x114E JUMP JUMPDEST PUSH2 0x1959 JUMP JUMPDEST PUSH2 0x114E JUMP JUMPDEST SWAP1 POP SWAP2 SWAP1 POP JUMP JUMPDEST PUSH0 DUP2 SWAP1 POP SWAP2 SWAP1 POP JUMP JUMPDEST PUSH2 0x1995 DUP4 PUSH2 0x1962 JUMP JUMPDEST PUSH2 0x19A9 PUSH2 0x19A1 DUP3 PUSH2 0x1983 JUMP JUMPDEST DUP5 DUP5 SLOAD PUSH2 0x1908 JUMP JUMPDEST DUP3 SSTORE POP POP POP POP JUMP JUMPDEST PUSH0 SWAP1 JUMP JUMPDEST PUSH2 0x19BD PUSH2 0x19B1 JUMP JUMPDEST PUSH2 0x19C8 DUP2 DUP5 DUP5 PUSH2 0x198C JUMP JUMPDEST POP POP POP JUMP JUMPDEST JUMPDEST DUP2 DUP2 LT ISZERO PUSH2 0x19EB JUMPI PUSH2 0x19E0 PUSH0 DUP3 PUSH2 0x19B5 JUMP JUMPDEST PUSH1 0x1 DUP2 ADD SWAP1 POP PUSH2 0x19CE JUMP JUMPDEST POP POP JUMP JUMPDEST PUSH1 0x1F DUP3 GT ISZERO PUSH2 0x1A30 JUMPI PUSH2 0x1A01 DUP2 PUSH2 0x1743 JUMP JUMPDEST PUSH2 0x1A0A DUP5 PUSH2 0x18ED JUMP JUMPDEST DUP2 ADD PUSH1 0x20 DUP6 LT ISZERO PUSH2 0x1A19 JUMPI DUP2 SWAP1 POP JUMPDEST PUSH2 0x1A2D PUSH2 0x1A25 DUP6 PUSH2 0x18ED JUMP JUMPDEST DUP4 ADD DUP3 PUSH2 0x19CD JUMP JUMPDEST POP POP JUMPDEST POP POP POP JUMP JUMPDEST PUSH0 DUP3 DUP3 SHR SWAP1 POP SWAP3 SWAP2 POP POP JUMP JUMPDEST PUSH0 PUSH2 0x1A50 PUSH0 NOT DUP5 PUSH1 0x8 MUL PUSH2 0x1A35 JUMP JUMPDEST NOT DUP1 DUP4 AND SWAP2 POP POP SWAP3 SWAP2 POP POP JUMP JUMPDEST PUSH0 PUSH2 0x1A68 DUP4 DUP4 PUSH2 0x1A41 JUMP JUMPDEST SWAP2 POP DUP3 PUSH1 0x2 MUL DUP3 OR SWAP1 POP SWAP3 SWAP2 POP POP JUMP JUMPDEST PUSH2 0x1A81 DUP3 PUSH2 0x11AC JUMP JUMPDEST PUSH8 0xFFFFFFFFFFFFFFFF DUP2 GT ISZERO PUSH2 0x1A9A JUMPI PUSH2 0x1A99 PUSH2 0xF75 JUMP JUMPDEST JUMPDEST PUSH2 0x1AA4 DUP3 SLOAD PUSH2 0x1713 JUMP JUMPDEST PUSH2 0x1AAF DUP3 DUP3 DUP6 PUSH2 0x19EF JUMP JUMPDEST PUSH0 PUSH1 0x20 SWAP1 POP PUSH1 0x1F DUP4 GT PUSH1 0x1 DUP2 EQ PUSH2 0x1AE0 JUMPI PUSH0 DUP5 ISZERO PUSH2 0x1ACE JUMPI DUP3 DUP8 ADD MLOAD SWAP1 POP JUMPDEST PUSH2 0x1AD8 DUP6 DUP3 PUSH2 0x1A5D JUMP JUMPDEST DUP7 SSTORE POP PUSH2 0x1B3F JUMP JUMPDEST PUSH1 0x1F NOT DUP5 AND PUSH2 0x1AEE DUP7 PUSH2 0x1743 JUMP JUMPDEST PUSH0 JUMPDEST DUP3 DUP2 LT ISZERO PUSH2 0x1B15 JUMPI DUP5 DUP10 ADD MLOAD DUP3 SSTORE PUSH1 0x1 DUP3 ADD SWAP2 POP PUSH1 0x20 DUP6 ADD SWAP5 POP PUSH1 0x20 DUP2 ADD SWAP1 POP PUSH2 0x1AF0 JUMP JUMPDEST DUP7 DUP4 LT ISZERO PUSH2 0x1B32 JUMPI DUP5 DUP10 ADD MLOAD PUSH2 0x1B2E PUSH1 0x1F DUP10 AND DUP3 PUSH2 0x1A41 JUMP JUMPDEST DUP4 SSTORE POP JUMPDEST PUSH1 0x1 PUSH1 0x2 DUP9 MUL ADD DUP9 SSTORE POP POP POP JUMPDEST POP POP POP POP POP POP JUMP JUMPDEST PUSH32 0x4E6F7420666F756E640000000000000000000000000000000000000000000000 PUSH0 DUP3 ADD MSTORE POP JUMP JUMPDEST PUSH0 PUSH2 0x1B7B PUSH1 0x9 DUP4 PUSH2 0x11B6 JUMP JUMPDEST SWAP2 POP PUSH2 0x1B86 DUP3 PUSH2 0x1B47 JUMP JUMPDEST PUSH1 0x20 DUP3 ADD SWAP1 POP SWAP2 SWAP1 POP JUMP JUMPDEST PUSH0 PUSH1 0x20 DUP3 ADD SWAP1 POP DUP2 DUP2 SUB PUSH0 DUP4 ADD MSTORE PUSH2 0x1BA8 DUP2 PUSH2 0x1B6F JUMP JUMPDEST SWAP1 POP SWAP2 SWAP1 POP JUMP INVALID LOG2 PUSH5 0x6970667358 0x22 SLT KECCAK256 LOG1 PUSH25 0x48063C2B4BD51B7DBCC25BDC42E12705EF3765815256D50273 POP 0xC3 0xC5 SWAP16 PUSH12 0x64736F6C6343000816003300 "
				},
				"gasEstimates": {
					"creation": {
						"codeDepositCost": "1428200",
						"executionCost": "25757",
						"totalCost": "1453957"
					},
					"external": {
						"addNewTransactionHistory(string,string,address,uint256,uint256)": "infinite",
						"adminAddress()": "2593",
						"campaignAddress()": "2531",
						"getAllTransaction()": "infinite",
						"getDonateByUser(string)": "infinite",
						"getTransactionHistoryByCampaignId(string)": "infinite",
						"isDonatedtoCampaign(address,string)": "infinite",
						"setCampaignAddress(address)": "26881",
						"transactionInfoArray(uint256)": "infinite"
					}
				},
				"methodIdentifiers": {
					"addNewTransactionHistory(string,string,address,uint256,uint256)": "d9aa4eb3",
					"adminAddress()": "fc6f9468",
					"campaignAddress()": "11765b27",
					"getAllTransaction()": "add6415d",
					"getDonateByUser(string)": "e3726d66",
					"getTransactionHistoryByCampaignId(string)": "99b3e96a",
					"isDonatedtoCampaign(address,string)": "048fa3a7",
					"setCampaignAddress(address)": "a3306ae3",
					"transactionInfoArray(uint256)": "92ad672f"
				}
			},
			"storageLayout": {
				"storage": [
					{
						"astId": 4,
						"contract": "contracts/TransactionHistory.sol:TransactionHistory",
						"label": "adminAddress",
						"offset": 0,
						"slot": "0",
						"type": "t_address"
					},
					{
						"astId": 6,
						"contract": "contracts/TransactionHistory.sol:TransactionHistory",
						"label": "campaignAddress",
						"offset": 0,
						"slot": "1",
						"type": "t_address"
					},
					{
						"astId": 21,
						"contract": "contracts/TransactionHistory.sol:TransactionHistory",
						"label": "transactionInfoArray",
						"offset": 0,
						"slot": "2",
						"type": "t_array(t_struct(TransactionInfo)17_storage)dyn_storage"
					}
				],
				"types": {
					"t_address": {
						"encoding": "inplace",
						"label": "address",
						"numberOfBytes": "20"
					},
					"t_array(t_struct(TransactionInfo)17_storage)dyn_storage": {
						"base": "t_struct(TransactionInfo)17_storage",
						"encoding": "dynamic_array",
						"label": "struct TransactionHistory.TransactionInfo[]",
						"numberOfBytes": "32"
					},
					"t_string_storage": {
						"encoding": "bytes",
						"label": "string",
						"numberOfBytes": "32"
					},
					"t_struct(TransactionInfo)17_storage": {
						"encoding": "inplace",
						"label": "struct TransactionHistory.TransactionInfo",
						"members": [
							{
								"astId": 8,
								"contract": "contracts/TransactionHistory.sol:TransactionHistory",
								"label": "campaignId",
								"offset": 0,
								"slot": "0",
								"type": "t_string_storage"
							},
							{
								"astId": 10,
								"contract": "contracts/TransactionHistory.sol:TransactionHistory",
								"label": "donatorId",
								"offset": 0,
								"slot": "1",
								"type": "t_string_storage"
							},
							{
								"astId": 12,
								"contract": "contracts/TransactionHistory.sol:TransactionHistory",
								"label": "donatorAddress",
								"offset": 0,
								"slot": "2",
								"type": "t_address"
							},
							{
								"astId": 14,
								"contract": "contracts/TransactionHistory.sol:TransactionHistory",
								"label": "value",
								"offset": 0,
								"slot": "3",
								"type": "t_uint256"
							},
							{
								"astId": 16,
								"contract": "contracts/TransactionHistory.sol:TransactionHistory",
								"label": "time",
								"offset": 0,
								"slot": "4",
								"type": "t_uint256"
							}
						],
						"numberOfBytes": "160"
					},
					"t_uint256": {
						"encoding": "inplace",
						"label": "uint256",
						"numberOfBytes": "32"
					}
				}
			},
			"userdoc": {
				"kind": "user",
				"methods": {},
				"version": 1
			}
		}
	}
}