{
	"contracts/TransactionHistory.sol": {
		"TransactionHistory": {
			"abi": [
				{
					"inputs": [],
					"stateMutability": "nonpayable",
					"type": "constructor"
				},
				{
					"inputs": [
						{
							"internalType": "uint256",
							"name": "id",
							"type": "uint256"
						},
						{
							"internalType": "string",
							"name": "campaignId",
							"type": "string"
						},
						{
							"internalType": "string",
							"name": "ownerId",
							"type": "string"
						},
						{
							"internalType": "string",
							"name": "donatorId",
							"type": "string"
						},
						{
							"internalType": "address",
							"name": "donatorAddress",
							"type": "address"
						},
						{
							"internalType": "uint256",
							"name": "value",
							"type": "uint256"
						},
						{
							"internalType": "string",
							"name": "time",
							"type": "string"
						}
					],
					"name": "addNewTransactionHistory",
					"outputs": [],
					"stateMutability": "nonpayable",
					"type": "function"
				},
				{
					"inputs": [],
					"name": "campaignContractAddress",
					"outputs": [
						{
							"internalType": "address",
							"name": "",
							"type": "address"
						}
					],
					"stateMutability": "view",
					"type": "function"
				},
				{
					"inputs": [],
					"name": "deployerAddress",
					"outputs": [
						{
							"internalType": "address",
							"name": "",
							"type": "address"
						}
					],
					"stateMutability": "view",
					"type": "function"
				},
				{
					"inputs": [],
					"name": "getAllTransaction",
					"outputs": [
						{
							"components": [
								{
									"internalType": "uint256",
									"name": "id",
									"type": "uint256"
								},
								{
									"internalType": "string",
									"name": "campaignId",
									"type": "string"
								},
								{
									"internalType": "string",
									"name": "ownerId",
									"type": "string"
								},
								{
									"internalType": "string",
									"name": "donatorId",
									"type": "string"
								},
								{
									"internalType": "address",
									"name": "donatorAddress",
									"type": "address"
								},
								{
									"internalType": "uint256",
									"name": "value",
									"type": "uint256"
								},
								{
									"internalType": "bool",
									"name": "isRefund",
									"type": "bool"
								},
								{
									"internalType": "string",
									"name": "time",
									"type": "string"
								}
							],
							"internalType": "struct TransactionHistory.TransactionInfo[]",
							"name": "",
							"type": "tuple[]"
						}
					],
					"stateMutability": "view",
					"type": "function"
				},
				{
					"inputs": [
						{
							"internalType": "string",
							"name": "_ownerId",
							"type": "string"
						}
					],
					"name": "getDonateByOwner",
					"outputs": [
						{
							"components": [
								{
									"internalType": "uint256",
									"name": "id",
									"type": "uint256"
								},
								{
									"internalType": "string",
									"name": "campaignId",
									"type": "string"
								},
								{
									"internalType": "string",
									"name": "ownerId",
									"type": "string"
								},
								{
									"internalType": "string",
									"name": "donatorId",
									"type": "string"
								},
								{
									"internalType": "address",
									"name": "donatorAddress",
									"type": "address"
								},
								{
									"internalType": "uint256",
									"name": "value",
									"type": "uint256"
								},
								{
									"internalType": "bool",
									"name": "isRefund",
									"type": "bool"
								},
								{
									"internalType": "string",
									"name": "time",
									"type": "string"
								}
							],
							"internalType": "struct TransactionHistory.TransactionInfo[]",
							"name": "",
							"type": "tuple[]"
						}
					],
					"stateMutability": "view",
					"type": "function"
				},
				{
					"inputs": [
						{
							"internalType": "string",
							"name": "_donatorId",
							"type": "string"
						}
					],
					"name": "getDonateByUser",
					"outputs": [
						{
							"components": [
								{
									"internalType": "uint256",
									"name": "id",
									"type": "uint256"
								},
								{
									"internalType": "string",
									"name": "campaignId",
									"type": "string"
								},
								{
									"internalType": "string",
									"name": "ownerId",
									"type": "string"
								},
								{
									"internalType": "string",
									"name": "donatorId",
									"type": "string"
								},
								{
									"internalType": "address",
									"name": "donatorAddress",
									"type": "address"
								},
								{
									"internalType": "uint256",
									"name": "value",
									"type": "uint256"
								},
								{
									"internalType": "bool",
									"name": "isRefund",
									"type": "bool"
								},
								{
									"internalType": "string",
									"name": "time",
									"type": "string"
								}
							],
							"internalType": "struct TransactionHistory.TransactionInfo[]",
							"name": "",
							"type": "tuple[]"
						}
					],
					"stateMutability": "view",
					"type": "function"
				},
				{
					"inputs": [
						{
							"internalType": "string",
							"name": "_campaignId",
							"type": "string"
						}
					],
					"name": "getTransactionHistoryByCampaignId",
					"outputs": [
						{
							"components": [
								{
									"internalType": "uint256",
									"name": "id",
									"type": "uint256"
								},
								{
									"internalType": "string",
									"name": "campaignId",
									"type": "string"
								},
								{
									"internalType": "string",
									"name": "ownerId",
									"type": "string"
								},
								{
									"internalType": "string",
									"name": "donatorId",
									"type": "string"
								},
								{
									"internalType": "address",
									"name": "donatorAddress",
									"type": "address"
								},
								{
									"internalType": "uint256",
									"name": "value",
									"type": "uint256"
								},
								{
									"internalType": "bool",
									"name": "isRefund",
									"type": "bool"
								},
								{
									"internalType": "string",
									"name": "time",
									"type": "string"
								}
							],
							"internalType": "struct TransactionHistory.TransactionInfo[]",
							"name": "",
							"type": "tuple[]"
						}
					],
					"stateMutability": "view",
					"type": "function"
				},
				{
					"inputs": [
						{
							"internalType": "string",
							"name": "_campaignId",
							"type": "string"
						}
					],
					"name": "getTransactionHistoryByCampaignIdAndRefund",
					"outputs": [
						{
							"components": [
								{
									"internalType": "uint256",
									"name": "id",
									"type": "uint256"
								},
								{
									"internalType": "string",
									"name": "campaignId",
									"type": "string"
								},
								{
									"internalType": "string",
									"name": "ownerId",
									"type": "string"
								},
								{
									"internalType": "string",
									"name": "donatorId",
									"type": "string"
								},
								{
									"internalType": "address",
									"name": "donatorAddress",
									"type": "address"
								},
								{
									"internalType": "uint256",
									"name": "value",
									"type": "uint256"
								},
								{
									"internalType": "bool",
									"name": "isRefund",
									"type": "bool"
								},
								{
									"internalType": "string",
									"name": "time",
									"type": "string"
								}
							],
							"internalType": "struct TransactionHistory.TransactionInfo[]",
							"name": "",
							"type": "tuple[]"
						}
					],
					"stateMutability": "view",
					"type": "function"
				},
				{
					"inputs": [
						{
							"internalType": "address",
							"name": "_donatorAddress",
							"type": "address"
						},
						{
							"internalType": "string",
							"name": "_campaignId",
							"type": "string"
						}
					],
					"name": "isDonatedtoCampaign",
					"outputs": [
						{
							"internalType": "bool",
							"name": "",
							"type": "bool"
						}
					],
					"stateMutability": "view",
					"type": "function"
				},
				{
					"inputs": [
						{
							"internalType": "address",
							"name": "_campaignContractAddress",
							"type": "address"
						}
					],
					"name": "setCampaignAddress",
					"outputs": [],
					"stateMutability": "nonpayable",
					"type": "function"
				},
				{
					"inputs": [
						{
							"internalType": "uint256",
							"name": "",
							"type": "uint256"
						}
					],
					"name": "transactionInfoArray",
					"outputs": [
						{
							"internalType": "uint256",
							"name": "id",
							"type": "uint256"
						},
						{
							"internalType": "string",
							"name": "campaignId",
							"type": "string"
						},
						{
							"internalType": "string",
							"name": "ownerId",
							"type": "string"
						},
						{
							"internalType": "string",
							"name": "donatorId",
							"type": "string"
						},
						{
							"internalType": "address",
							"name": "donatorAddress",
							"type": "address"
						},
						{
							"internalType": "uint256",
							"name": "value",
							"type": "uint256"
						},
						{
							"internalType": "bool",
							"name": "isRefund",
							"type": "bool"
						},
						{
							"internalType": "string",
							"name": "time",
							"type": "string"
						}
					],
					"stateMutability": "view",
					"type": "function"
				}
			],
			"devdoc": {
				"kind": "dev",
				"methods": {},
				"version": 1
			},
			"evm": {
				"assembly": "    /* \"contracts/TransactionHistory.sol\":68:6410  contract TransactionHistory {... */\n  mstore(0x40, 0x80)\n    /* \"contracts/TransactionHistory.sol\":481:542  constructor() {... */\n  callvalue\n  dup1\n  iszero\n  tag_1\n  jumpi\n  0x00\n  dup1\n  revert\ntag_1:\n  pop\n    /* \"contracts/TransactionHistory.sol\":524:534  msg.sender */\n  caller\n    /* \"contracts/TransactionHistory.sol\":506:521  deployerAddress */\n  0x00\n  dup1\n    /* \"contracts/TransactionHistory.sol\":506:534  deployerAddress = msg.sender */\n  0x0100\n  exp\n  dup2\n  sload\n  dup2\n  0xffffffffffffffffffffffffffffffffffffffff\n  mul\n  not\n  and\n  swap1\n  dup4\n  0xffffffffffffffffffffffffffffffffffffffff\n  and\n  mul\n  or\n  swap1\n  sstore\n  pop\n    /* \"contracts/TransactionHistory.sol\":68:6410  contract TransactionHistory {... */\n  dataSize(sub_0)\n  dup1\n  dataOffset(sub_0)\n  0x00\n  codecopy\n  0x00\n  return\nstop\n\nsub_0: assembly {\n        /* \"contracts/TransactionHistory.sol\":68:6410  contract TransactionHistory {... */\n      mstore(0x40, 0x80)\n      callvalue\n      dup1\n      iszero\n      tag_1\n      jumpi\n      0x00\n      dup1\n      revert\n    tag_1:\n      pop\n      jumpi(tag_2, lt(calldatasize, 0x04))\n      shr(0xe0, calldataload(0x00))\n      dup1\n      0xa3306ae3\n      gt\n      tag_14\n      jumpi\n      dup1\n      0xa3306ae3\n      eq\n      tag_8\n      jumpi\n      dup1\n      0xadd6415d\n      eq\n      tag_9\n      jumpi\n      dup1\n      0xb6b52ccd\n      eq\n      tag_10\n      jumpi\n      dup1\n      0xd740bb6c\n      eq\n      tag_11\n      jumpi\n      dup1\n      0xe3726d66\n      eq\n      tag_12\n      jumpi\n      dup1\n      0xefdee94f\n      eq\n      tag_13\n      jumpi\n      jump(tag_2)\n    tag_14:\n      dup1\n      0x048fa3a7\n      eq\n      tag_3\n      jumpi\n      dup1\n      0x31d7adf7\n      eq\n      tag_4\n      jumpi\n      dup1\n      0x671f18f7\n      eq\n      tag_5\n      jumpi\n      dup1\n      0x92ad672f\n      eq\n      tag_6\n      jumpi\n      dup1\n      0x99b3e96a\n      eq\n      tag_7\n      jumpi\n    tag_2:\n      0x00\n      dup1\n      revert\n        /* \"contracts/TransactionHistory.sol\":2003:2701  function isDonatedtoCampaign(... */\n    tag_3:\n      tag_15\n      0x04\n      dup1\n      calldatasize\n      sub\n      dup2\n      add\n      swap1\n      tag_16\n      swap2\n      swap1\n      tag_17\n      jump\t// in\n    tag_16:\n      tag_18\n      jump\t// in\n    tag_15:\n      mload(0x40)\n      tag_19\n      swap2\n      swap1\n      tag_20\n      jump\t// in\n    tag_19:\n      mload(0x40)\n      dup1\n      swap2\n      sub\n      swap1\n      return\n        /* \"contracts/TransactionHistory.sol\":923:1656  function addNewTransactionHistory(... */\n    tag_4:\n      tag_21\n      0x04\n      dup1\n      calldatasize\n      sub\n      dup2\n      add\n      swap1\n      tag_22\n      swap2\n      swap1\n      tag_23\n      jump\t// in\n    tag_22:\n      tag_24\n      jump\t// in\n    tag_21:\n      stop\n        /* \"contracts/TransactionHistory.sol\":140:178  address public campaignContractAddress */\n    tag_5:\n      tag_25\n      tag_26\n      jump\t// in\n    tag_25:\n      mload(0x40)\n      tag_27\n      swap2\n      swap1\n      tag_28\n      jump\t// in\n    tag_27:\n      mload(0x40)\n      dup1\n      swap2\n      sub\n      swap1\n      return\n        /* \"contracts/TransactionHistory.sol\":427:472  TransactionInfo[] public transactionInfoArray */\n    tag_6:\n      tag_29\n      0x04\n      dup1\n      calldatasize\n      sub\n      dup2\n      add\n      swap1\n      tag_30\n      swap2\n      swap1\n      tag_31\n      jump\t// in\n    tag_30:\n      tag_32\n      jump\t// in\n    tag_29:\n      mload(0x40)\n      tag_33\n      swap9\n      swap8\n      swap7\n      swap6\n      swap5\n      swap4\n      swap3\n      swap2\n      swap1\n      tag_34\n      jump\t// in\n    tag_33:\n      mload(0x40)\n      dup1\n      swap2\n      sub\n      swap1\n      return\n        /* \"contracts/TransactionHistory.sol\":2709:3532  function getTransactionHistoryByCampaignId(string memory _campaignId) external view returns (TransactionInfo[] memory) {... */\n    tag_7:\n      tag_35\n      0x04\n      dup1\n      calldatasize\n      sub\n      dup2\n      add\n      swap1\n      tag_36\n      swap2\n      swap1\n      tag_37\n      jump\t// in\n    tag_36:\n      tag_38\n      jump\t// in\n    tag_35:\n      mload(0x40)\n      tag_39\n      swap2\n      swap1\n      tag_40\n      jump\t// in\n    tag_39:\n      mload(0x40)\n      dup1\n      swap2\n      sub\n      swap1\n      return\n        /* \"contracts/TransactionHistory.sol\":1828:1995  function setCampaignAddress(... */\n    tag_8:\n      tag_41\n      0x04\n      dup1\n      calldatasize\n      sub\n      dup2\n      add\n      swap1\n      tag_42\n      swap2\n      swap1\n      tag_43\n      jump\t// in\n    tag_42:\n      tag_44\n      jump\t// in\n    tag_41:\n      stop\n        /* \"contracts/TransactionHistory.sol\":1664:1820  function getAllTransaction()... */\n    tag_9:\n      tag_45\n      tag_46\n      jump\t// in\n    tag_45:\n      mload(0x40)\n      tag_47\n      swap2\n      swap1\n      tag_40\n      jump\t// in\n    tag_47:\n      mload(0x40)\n      dup1\n      swap2\n      sub\n      swap1\n      return\n        /* \"contracts/TransactionHistory.sol\":5616:6407  function getDonateByOwner(string memory _ownerId) external view returns (TransactionInfo[] memory) {... */\n    tag_10:\n      tag_48\n      0x04\n      dup1\n      calldatasize\n      sub\n      dup2\n      add\n      swap1\n      tag_49\n      swap2\n      swap1\n      tag_37\n      jump\t// in\n    tag_49:\n      tag_50\n      jump\t// in\n    tag_48:\n      mload(0x40)\n      tag_51\n      swap2\n      swap1\n      tag_40\n      jump\t// in\n    tag_51:\n      mload(0x40)\n      dup1\n      swap2\n      sub\n      swap1\n      return\n        /* \"contracts/TransactionHistory.sol\":3540:4434  function getTransactionHistoryByCampaignIdAndRefund(string memory _campaignId) external view returns (TransactionInfo[] memory) {... */\n    tag_11:\n      tag_52\n      0x04\n      dup1\n      calldatasize\n      sub\n      dup2\n      add\n      swap1\n      tag_53\n      swap2\n      swap1\n      tag_37\n      jump\t// in\n    tag_53:\n      tag_54\n      jump\t// in\n    tag_52:\n      mload(0x40)\n      tag_55\n      swap2\n      swap1\n      tag_40\n      jump\t// in\n    tag_55:\n      mload(0x40)\n      dup1\n      swap2\n      sub\n      swap1\n      return\n        /* \"contracts/TransactionHistory.sol\":4808:5608  function getDonateByUser(string memory _donatorId) external view returns (TransactionInfo[] memory) {... */\n    tag_12:\n      tag_56\n      0x04\n      dup1\n      calldatasize\n      sub\n      dup2\n      add\n      swap1\n      tag_57\n      swap2\n      swap1\n      tag_37\n      jump\t// in\n    tag_57:\n      tag_58\n      jump\t// in\n    tag_56:\n      mload(0x40)\n      tag_59\n      swap2\n      swap1\n      tag_40\n      jump\t// in\n    tag_59:\n      mload(0x40)\n      dup1\n      swap2\n      sub\n      swap1\n      return\n        /* \"contracts/TransactionHistory.sol\":103:133  address public deployerAddress */\n    tag_13:\n      tag_60\n      tag_61\n      jump\t// in\n    tag_60:\n      mload(0x40)\n      tag_62\n      swap2\n      swap1\n      tag_28\n      jump\t// in\n    tag_62:\n      mload(0x40)\n      dup1\n      swap2\n      sub\n      swap1\n      return\n        /* \"contracts/TransactionHistory.sol\":2003:2701  function isDonatedtoCampaign(... */\n    tag_18:\n        /* \"contracts/TransactionHistory.sol\":2130:2134  bool */\n      0x00\n        /* \"contracts/TransactionHistory.sol\":2152:2158  uint i */\n      dup1\n        /* \"contracts/TransactionHistory.sol\":2161:2162  0 */\n      0x00\n        /* \"contracts/TransactionHistory.sol\":2152:2162  uint i = 0 */\n      swap1\n      pop\n        /* \"contracts/TransactionHistory.sol\":2147:2669  for (uint i = 0; i < transactionInfoArray.length; i++) {... */\n    tag_64:\n        /* \"contracts/TransactionHistory.sol\":2168:2188  transactionInfoArray */\n      0x02\n        /* \"contracts/TransactionHistory.sol\":2168:2195  transactionInfoArray.length */\n      dup1\n      sload\n      swap1\n      pop\n        /* \"contracts/TransactionHistory.sol\":2164:2165  i */\n      dup2\n        /* \"contracts/TransactionHistory.sol\":2164:2195  i < transactionInfoArray.length */\n      lt\n        /* \"contracts/TransactionHistory.sol\":2147:2669  for (uint i = 0; i < transactionInfoArray.length; i++) {... */\n      iszero\n      tag_65\n      jumpi\n        /* \"contracts/TransactionHistory.sol\":2394:2409  _donatorAddress */\n      dup4\n        /* \"contracts/TransactionHistory.sol\":2377:2410  abi.encodePacked(_donatorAddress) */\n      add(0x20, mload(0x40))\n      tag_67\n      swap2\n      swap1\n      tag_68\n      jump\t// in\n    tag_67:\n      mload(0x40)\n      0x20\n      dup2\n      dup4\n      sub\n      sub\n      dup2\n      mstore\n      swap1\n      0x40\n      mstore\n        /* \"contracts/TransactionHistory.sol\":2367:2411  keccak256(abi.encodePacked(_donatorAddress)) */\n      dup1\n      mload\n      swap1\n      0x20\n      add\n      keccak256\n        /* \"contracts/TransactionHistory.sol\":2288:2308  transactionInfoArray */\n      0x02\n        /* \"contracts/TransactionHistory.sol\":2309:2310  i */\n      dup3\n        /* \"contracts/TransactionHistory.sol\":2288:2311  transactionInfoArray[i] */\n      dup2\n      sload\n      dup2\n      lt\n      tag_69\n      jumpi\n      tag_70\n      tag_71\n      jump\t// in\n    tag_70:\n    tag_69:\n      swap1\n      0x00\n      mstore\n      keccak256(0x00, 0x20)\n      swap1\n      0x08\n      mul\n      add\n        /* \"contracts/TransactionHistory.sol\":2288:2326  transactionInfoArray[i].donatorAddress */\n      0x04\n      add\n      0x00\n      swap1\n      sload\n      swap1\n      0x0100\n      exp\n      swap1\n      div\n      0xffffffffffffffffffffffffffffffffffffffff\n      and\n        /* \"contracts/TransactionHistory.sol\":2271:2327  abi.encodePacked(transactionInfoArray[i].donatorAddress) */\n      add(0x20, mload(0x40))\n      tag_73\n      swap2\n      swap1\n      tag_68\n      jump\t// in\n    tag_73:\n      mload(0x40)\n      0x20\n      dup2\n      dup4\n      sub\n      sub\n      dup2\n      mstore\n      swap1\n      0x40\n      mstore\n        /* \"contracts/TransactionHistory.sol\":2239:2346  keccak256(... */\n      dup1\n      mload\n      swap1\n      0x20\n      add\n      keccak256\n        /* \"contracts/TransactionHistory.sol\":2239:2411  keccak256(... */\n      eq\n        /* \"contracts/TransactionHistory.sol\":2239:2596  keccak256(... */\n      dup1\n      iszero\n      tag_74\n      jumpi\n      pop\n        /* \"contracts/TransactionHistory.sol\":2583:2594  _campaignId */\n      dup3\n        /* \"contracts/TransactionHistory.sol\":2566:2595  abi.encodePacked(_campaignId) */\n      add(0x20, mload(0x40))\n      tag_75\n      swap2\n      swap1\n      tag_76\n      jump\t// in\n    tag_75:\n      mload(0x40)\n      0x20\n      dup2\n      dup4\n      sub\n      sub\n      dup2\n      mstore\n      swap1\n      0x40\n      mstore\n        /* \"contracts/TransactionHistory.sol\":2556:2596  keccak256(abi.encodePacked(_campaignId)) */\n      dup1\n      mload\n      swap1\n      0x20\n      add\n      keccak256\n        /* \"contracts/TransactionHistory.sol\":2481:2501  transactionInfoArray */\n      0x02\n        /* \"contracts/TransactionHistory.sol\":2502:2503  i */\n      dup3\n        /* \"contracts/TransactionHistory.sol\":2481:2504  transactionInfoArray[i] */\n      dup2\n      sload\n      dup2\n      lt\n      tag_77\n      jumpi\n      tag_78\n      tag_71\n      jump\t// in\n    tag_78:\n    tag_77:\n      swap1\n      0x00\n      mstore\n      keccak256(0x00, 0x20)\n      swap1\n      0x08\n      mul\n      add\n        /* \"contracts/TransactionHistory.sol\":2481:2515  transactionInfoArray[i].campaignId */\n      0x01\n      add\n        /* \"contracts/TransactionHistory.sol\":2464:2516  abi.encodePacked(transactionInfoArray[i].campaignId) */\n      add(0x20, mload(0x40))\n      tag_80\n      swap2\n      swap1\n      tag_81\n      jump\t// in\n    tag_80:\n      mload(0x40)\n      0x20\n      dup2\n      dup4\n      sub\n      sub\n      dup2\n      mstore\n      swap1\n      0x40\n      mstore\n        /* \"contracts/TransactionHistory.sol\":2432:2535  keccak256(... */\n      dup1\n      mload\n      swap1\n      0x20\n      add\n      keccak256\n        /* \"contracts/TransactionHistory.sol\":2432:2596  keccak256(... */\n      eq\n        /* \"contracts/TransactionHistory.sol\":2239:2596  keccak256(... */\n    tag_74:\n        /* \"contracts/TransactionHistory.sol\":2217:2658  if (... */\n      iszero\n      tag_82\n      jumpi\n        /* \"contracts/TransactionHistory.sol\":2638:2642  true */\n      0x01\n        /* \"contracts/TransactionHistory.sol\":2631:2642  return true */\n      swap2\n      pop\n      pop\n      jump(tag_63)\n        /* \"contracts/TransactionHistory.sol\":2217:2658  if (... */\n    tag_82:\n        /* \"contracts/TransactionHistory.sol\":2197:2200  i++ */\n      dup1\n      dup1\n      0x01\n      add\n      swap2\n      pop\n      pop\n        /* \"contracts/TransactionHistory.sol\":2147:2669  for (uint i = 0; i < transactionInfoArray.length; i++) {... */\n      jump(tag_64)\n    tag_65:\n      pop\n        /* \"contracts/TransactionHistory.sol\":2688:2693  false */\n      0x00\n        /* \"contracts/TransactionHistory.sol\":2681:2693  return false */\n      swap1\n      pop\n        /* \"contracts/TransactionHistory.sol\":2003:2701  function isDonatedtoCampaign(... */\n    tag_63:\n      swap3\n      swap2\n      pop\n      pop\n      jump\t// out\n        /* \"contracts/TransactionHistory.sol\":923:1656  function addNewTransactionHistory(... */\n    tag_24:\n        /* \"contracts/TransactionHistory.sol\":629:652  campaignContractAddress */\n      0x01\n      0x00\n      swap1\n      sload\n      swap1\n      0x0100\n      exp\n      swap1\n      div\n      0xffffffffffffffffffffffffffffffffffffffff\n      and\n        /* \"contracts/TransactionHistory.sol\":615:652  msg.sender == campaignContractAddress */\n      0xffffffffffffffffffffffffffffffffffffffff\n      and\n        /* \"contracts/TransactionHistory.sol\":615:625  msg.sender */\n      caller\n        /* \"contracts/TransactionHistory.sol\":615:652  msg.sender == campaignContractAddress */\n      0xffffffffffffffffffffffffffffffffffffffff\n      and\n      eq\n        /* \"contracts/TransactionHistory.sol\":593:721  require(... */\n      tag_84\n      jumpi\n      mload(0x40)\n      0x08c379a000000000000000000000000000000000000000000000000000000000\n      dup2\n      mstore\n      0x04\n      add\n      tag_85\n      swap1\n      tag_86\n      jump\t// in\n    tag_85:\n      mload(0x40)\n      dup1\n      swap2\n      sub\n      swap1\n      revert\n    tag_84:\n        /* \"contracts/TransactionHistory.sol\":1210:1247  TransactionInfo memory newTransaction */\n      tag_88\n      tag_89\n      jump\t// in\n    tag_88:\n        /* \"contracts/TransactionHistory.sol\":1278:1280  id */\n      dup8\n        /* \"contracts/TransactionHistory.sol\":1258:1272  newTransaction */\n      dup2\n        /* \"contracts/TransactionHistory.sol\":1258:1275  newTransaction.id */\n      0x00\n      add\n        /* \"contracts/TransactionHistory.sol\":1258:1280  newTransaction.id = id */\n      dup2\n      dup2\n      mstore\n      pop\n      pop\n        /* \"contracts/TransactionHistory.sol\":1319:1329  campaignId */\n      dup7\n        /* \"contracts/TransactionHistory.sol\":1291:1305  newTransaction */\n      dup2\n        /* \"contracts/TransactionHistory.sol\":1291:1316  newTransaction.campaignId */\n      0x20\n      add\n        /* \"contracts/TransactionHistory.sol\":1291:1329  newTransaction.campaignId = campaignId */\n      dup2\n      swap1\n      mstore\n      pop\n        /* \"contracts/TransactionHistory.sol\":1365:1372  ownerId */\n      dup6\n        /* \"contracts/TransactionHistory.sol\":1340:1354  newTransaction */\n      dup2\n        /* \"contracts/TransactionHistory.sol\":1340:1362  newTransaction.ownerId */\n      0x40\n      add\n        /* \"contracts/TransactionHistory.sol\":1340:1372  newTransaction.ownerId = ownerId */\n      dup2\n      swap1\n      mstore\n      pop\n        /* \"contracts/TransactionHistory.sol\":1410:1419  donatorId */\n      dup5\n        /* \"contracts/TransactionHistory.sol\":1383:1397  newTransaction */\n      dup2\n        /* \"contracts/TransactionHistory.sol\":1383:1407  newTransaction.donatorId */\n      0x60\n      add\n        /* \"contracts/TransactionHistory.sol\":1383:1419  newTransaction.donatorId = donatorId */\n      dup2\n      swap1\n      mstore\n      pop\n        /* \"contracts/TransactionHistory.sol\":1462:1476  donatorAddress */\n      dup4\n        /* \"contracts/TransactionHistory.sol\":1430:1444  newTransaction */\n      dup2\n        /* \"contracts/TransactionHistory.sol\":1430:1459  newTransaction.donatorAddress */\n      0x80\n      add\n        /* \"contracts/TransactionHistory.sol\":1430:1476  newTransaction.donatorAddress = donatorAddress */\n      swap1\n      0xffffffffffffffffffffffffffffffffffffffff\n      and\n      swap1\n      dup2\n      0xffffffffffffffffffffffffffffffffffffffff\n      and\n      dup2\n      mstore\n      pop\n      pop\n        /* \"contracts/TransactionHistory.sol\":1510:1515  value */\n      dup3\n        /* \"contracts/TransactionHistory.sol\":1487:1501  newTransaction */\n      dup2\n        /* \"contracts/TransactionHistory.sol\":1487:1507  newTransaction.value */\n      0xa0\n      add\n        /* \"contracts/TransactionHistory.sol\":1487:1515  newTransaction.value = value */\n      dup2\n      dup2\n      mstore\n      pop\n      pop\n        /* \"contracts/TransactionHistory.sol\":1552:1557  false */\n      0x00\n        /* \"contracts/TransactionHistory.sol\":1526:1540  newTransaction */\n      dup2\n        /* \"contracts/TransactionHistory.sol\":1526:1549  newTransaction.isRefund */\n      0xc0\n      add\n        /* \"contracts/TransactionHistory.sol\":1526:1557  newTransaction.isRefund = false */\n      swap1\n      iszero\n      iszero\n      swap1\n      dup2\n      iszero\n      iszero\n      dup2\n      mstore\n      pop\n      pop\n        /* \"contracts/TransactionHistory.sol\":1590:1594  time */\n      dup2\n        /* \"contracts/TransactionHistory.sol\":1568:1582  newTransaction */\n      dup2\n        /* \"contracts/TransactionHistory.sol\":1568:1587  newTransaction.time */\n      0xe0\n      add\n        /* \"contracts/TransactionHistory.sol\":1568:1594  newTransaction.time = time */\n      dup2\n      swap1\n      mstore\n      pop\n        /* \"contracts/TransactionHistory.sol\":1607:1627  transactionInfoArray */\n      0x02\n        /* \"contracts/TransactionHistory.sol\":1633:1647  newTransaction */\n      dup2\n        /* \"contracts/TransactionHistory.sol\":1607:1648  transactionInfoArray.push(newTransaction) */\n      swap1\n      dup1\n      0x01\n      dup2\n      sload\n      add\n      dup1\n      dup3\n      sstore\n      dup1\n      swap2\n      pop\n      pop\n      0x01\n      swap1\n      sub\n      swap1\n      0x00\n      mstore\n      keccak256(0x00, 0x20)\n      swap1\n      0x08\n      mul\n      add\n      0x00\n      swap1\n      swap2\n      swap1\n      swap2\n      swap1\n      swap2\n      pop\n      0x00\n      dup3\n      add\n      mload\n      dup2\n      0x00\n      add\n      sstore\n      0x20\n      dup3\n      add\n      mload\n      dup2\n      0x01\n      add\n      swap1\n      dup2\n      tag_91\n      swap2\n      swap1\n      tag_92\n      jump\t// in\n    tag_91:\n      pop\n      0x40\n      dup3\n      add\n      mload\n      dup2\n      0x02\n      add\n      swap1\n      dup2\n      tag_93\n      swap2\n      swap1\n      tag_92\n      jump\t// in\n    tag_93:\n      pop\n      0x60\n      dup3\n      add\n      mload\n      dup2\n      0x03\n      add\n      swap1\n      dup2\n      tag_94\n      swap2\n      swap1\n      tag_92\n      jump\t// in\n    tag_94:\n      pop\n      0x80\n      dup3\n      add\n      mload\n      dup2\n      0x04\n      add\n      exp(0x0100, 0x00)\n      dup2\n      sload\n      dup2\n      0xffffffffffffffffffffffffffffffffffffffff\n      mul\n      not\n      and\n      swap1\n      dup4\n      0xffffffffffffffffffffffffffffffffffffffff\n      and\n      mul\n      or\n      swap1\n      sstore\n      pop\n      0xa0\n      dup3\n      add\n      mload\n      dup2\n      0x05\n      add\n      sstore\n      0xc0\n      dup3\n      add\n      mload\n      dup2\n      0x06\n      add\n      exp(0x0100, 0x00)\n      dup2\n      sload\n      dup2\n      0xff\n      mul\n      not\n      and\n      swap1\n      dup4\n      iszero\n      iszero\n      mul\n      or\n      swap1\n      sstore\n      pop\n      0xe0\n      dup3\n      add\n      mload\n      dup2\n      0x07\n      add\n      swap1\n      dup2\n      tag_95\n      swap2\n      swap1\n      tag_92\n      jump\t// in\n    tag_95:\n      pop\n      pop\n      pop\n        /* \"contracts/TransactionHistory.sol\":1199:1656  {... */\n      pop\n        /* \"contracts/TransactionHistory.sol\":923:1656  function addNewTransactionHistory(... */\n      pop\n      pop\n      pop\n      pop\n      pop\n      pop\n      pop\n      jump\t// out\n        /* \"contracts/TransactionHistory.sol\":140:178  address public campaignContractAddress */\n    tag_26:\n      0x01\n      0x00\n      swap1\n      sload\n      swap1\n      0x0100\n      exp\n      swap1\n      div\n      0xffffffffffffffffffffffffffffffffffffffff\n      and\n      dup2\n      jump\t// out\n        /* \"contracts/TransactionHistory.sol\":427:472  TransactionInfo[] public transactionInfoArray */\n    tag_32:\n      0x02\n      dup2\n      dup2\n      sload\n      dup2\n      lt\n      tag_96\n      jumpi\n      0x00\n      dup1\n      revert\n    tag_96:\n      swap1\n      0x00\n      mstore\n      keccak256(0x00, 0x20)\n      swap1\n      0x08\n      mul\n      add\n      0x00\n      swap2\n      pop\n      swap1\n      pop\n      dup1\n      0x00\n      add\n      sload\n      swap1\n      dup1\n      0x01\n      add\n      dup1\n      sload\n      tag_98\n      swap1\n      tag_99\n      jump\t// in\n    tag_98:\n      dup1\n      0x1f\n      add\n      0x20\n      dup1\n      swap2\n      div\n      mul\n      0x20\n      add\n      mload(0x40)\n      swap1\n      dup2\n      add\n      0x40\n      mstore\n      dup1\n      swap3\n      swap2\n      swap1\n      dup2\n      dup2\n      mstore\n      0x20\n      add\n      dup3\n      dup1\n      sload\n      tag_100\n      swap1\n      tag_99\n      jump\t// in\n    tag_100:\n      dup1\n      iszero\n      tag_101\n      jumpi\n      dup1\n      0x1f\n      lt\n      tag_102\n      jumpi\n      0x0100\n      dup1\n      dup4\n      sload\n      div\n      mul\n      dup4\n      mstore\n      swap2\n      0x20\n      add\n      swap2\n      jump(tag_101)\n    tag_102:\n      dup3\n      add\n      swap2\n      swap1\n      0x00\n      mstore\n      keccak256(0x00, 0x20)\n      swap1\n    tag_103:\n      dup2\n      sload\n      dup2\n      mstore\n      swap1\n      0x01\n      add\n      swap1\n      0x20\n      add\n      dup1\n      dup4\n      gt\n      tag_103\n      jumpi\n      dup3\n      swap1\n      sub\n      0x1f\n      and\n      dup3\n      add\n      swap2\n    tag_101:\n      pop\n      pop\n      pop\n      pop\n      pop\n      swap1\n      dup1\n      0x02\n      add\n      dup1\n      sload\n      tag_104\n      swap1\n      tag_99\n      jump\t// in\n    tag_104:\n      dup1\n      0x1f\n      add\n      0x20\n      dup1\n      swap2\n      div\n      mul\n      0x20\n      add\n      mload(0x40)\n      swap1\n      dup2\n      add\n      0x40\n      mstore\n      dup1\n      swap3\n      swap2\n      swap1\n      dup2\n      dup2\n      mstore\n      0x20\n      add\n      dup3\n      dup1\n      sload\n      tag_105\n      swap1\n      tag_99\n      jump\t// in\n    tag_105:\n      dup1\n      iszero\n      tag_106\n      jumpi\n      dup1\n      0x1f\n      lt\n      tag_107\n      jumpi\n      0x0100\n      dup1\n      dup4\n      sload\n      div\n      mul\n      dup4\n      mstore\n      swap2\n      0x20\n      add\n      swap2\n      jump(tag_106)\n    tag_107:\n      dup3\n      add\n      swap2\n      swap1\n      0x00\n      mstore\n      keccak256(0x00, 0x20)\n      swap1\n    tag_108:\n      dup2\n      sload\n      dup2\n      mstore\n      swap1\n      0x01\n      add\n      swap1\n      0x20\n      add\n      dup1\n      dup4\n      gt\n      tag_108\n      jumpi\n      dup3\n      swap1\n      sub\n      0x1f\n      and\n      dup3\n      add\n      swap2\n    tag_106:\n      pop\n      pop\n      pop\n      pop\n      pop\n      swap1\n      dup1\n      0x03\n      add\n      dup1\n      sload\n      tag_109\n      swap1\n      tag_99\n      jump\t// in\n    tag_109:\n      dup1\n      0x1f\n      add\n      0x20\n      dup1\n      swap2\n      div\n      mul\n      0x20\n      add\n      mload(0x40)\n      swap1\n      dup2\n      add\n      0x40\n      mstore\n      dup1\n      swap3\n      swap2\n      swap1\n      dup2\n      dup2\n      mstore\n      0x20\n      add\n      dup3\n      dup1\n      sload\n      tag_110\n      swap1\n      tag_99\n      jump\t// in\n    tag_110:\n      dup1\n      iszero\n      tag_111\n      jumpi\n      dup1\n      0x1f\n      lt\n      tag_112\n      jumpi\n      0x0100\n      dup1\n      dup4\n      sload\n      div\n      mul\n      dup4\n      mstore\n      swap2\n      0x20\n      add\n      swap2\n      jump(tag_111)\n    tag_112:\n      dup3\n      add\n      swap2\n      swap1\n      0x00\n      mstore\n      keccak256(0x00, 0x20)\n      swap1\n    tag_113:\n      dup2\n      sload\n      dup2\n      mstore\n      swap1\n      0x01\n      add\n      swap1\n      0x20\n      add\n      dup1\n      dup4\n      gt\n      tag_113\n      jumpi\n      dup3\n      swap1\n      sub\n      0x1f\n      and\n      dup3\n      add\n      swap2\n    tag_111:\n      pop\n      pop\n      pop\n      pop\n      pop\n      swap1\n      dup1\n      0x04\n      add\n      0x00\n      swap1\n      sload\n      swap1\n      0x0100\n      exp\n      swap1\n      div\n      0xffffffffffffffffffffffffffffffffffffffff\n      and\n      swap1\n      dup1\n      0x05\n      add\n      sload\n      swap1\n      dup1\n      0x06\n      add\n      0x00\n      swap1\n      sload\n      swap1\n      0x0100\n      exp\n      swap1\n      div\n      0xff\n      and\n      swap1\n      dup1\n      0x07\n      add\n      dup1\n      sload\n      tag_114\n      swap1\n      tag_99\n      jump\t// in\n    tag_114:\n      dup1\n      0x1f\n      add\n      0x20\n      dup1\n      swap2\n      div\n      mul\n      0x20\n      add\n      mload(0x40)\n      swap1\n      dup2\n      add\n      0x40\n      mstore\n      dup1\n      swap3\n      swap2\n      swap1\n      dup2\n      dup2\n      mstore\n      0x20\n      add\n      dup3\n      dup1\n      sload\n      tag_115\n      swap1\n      tag_99\n      jump\t// in\n    tag_115:\n      dup1\n      iszero\n      tag_116\n      jumpi\n      dup1\n      0x1f\n      lt\n      tag_117\n      jumpi\n      0x0100\n      dup1\n      dup4\n      sload\n      div\n      mul\n      dup4\n      mstore\n      swap2\n      0x20\n      add\n      swap2\n      jump(tag_116)\n    tag_117:\n      dup3\n      add\n      swap2\n      swap1\n      0x00\n      mstore\n      keccak256(0x00, 0x20)\n      swap1\n    tag_118:\n      dup2\n      sload\n      dup2\n      mstore\n      swap1\n      0x01\n      add\n      swap1\n      0x20\n      add\n      dup1\n      dup4\n      gt\n      tag_118\n      jumpi\n      dup3\n      swap1\n      sub\n      0x1f\n      and\n      dup3\n      add\n      swap2\n    tag_116:\n      pop\n      pop\n      pop\n      pop\n      pop\n      swap1\n      pop\n      dup9\n      jump\t// out\n        /* \"contracts/TransactionHistory.sol\":2709:3532  function getTransactionHistoryByCampaignId(string memory _campaignId) external view returns (TransactionInfo[] memory) {... */\n    tag_38:\n        /* \"contracts/TransactionHistory.sol\":2802:2826  TransactionInfo[] memory */\n      0x60\n        /* \"contracts/TransactionHistory.sol\":2839:2849  uint count */\n      0x00\n        /* \"contracts/TransactionHistory.sol\":2869:2875  uint i */\n      dup1\n        /* \"contracts/TransactionHistory.sol\":2864:3100  for (uint i = 0; i < transactionInfoArray.length; i++) {... */\n    tag_120:\n        /* \"contracts/TransactionHistory.sol\":2885:2905  transactionInfoArray */\n      0x02\n        /* \"contracts/TransactionHistory.sol\":2885:2912  transactionInfoArray.length */\n      dup1\n      sload\n      swap1\n      pop\n        /* \"contracts/TransactionHistory.sol\":2881:2882  i */\n      dup2\n        /* \"contracts/TransactionHistory.sol\":2881:2912  i < transactionInfoArray.length */\n      lt\n        /* \"contracts/TransactionHistory.sol\":2864:3100  for (uint i = 0; i < transactionInfoArray.length; i++) {... */\n      iszero\n      tag_121\n      jumpi\n        /* \"contracts/TransactionHistory.sol\":3032:3043  _campaignId */\n      dup4\n        /* \"contracts/TransactionHistory.sol\":3015:3044  abi.encodePacked(_campaignId) */\n      add(0x20, mload(0x40))\n      tag_123\n      swap2\n      swap1\n      tag_76\n      jump\t// in\n    tag_123:\n      mload(0x40)\n      0x20\n      dup2\n      dup4\n      sub\n      sub\n      dup2\n      mstore\n      swap1\n      0x40\n      mstore\n        /* \"contracts/TransactionHistory.sol\":3005:3045  keccak256(abi.encodePacked(_campaignId)) */\n      dup1\n      mload\n      swap1\n      0x20\n      add\n      keccak256\n        /* \"contracts/TransactionHistory.sol\":2965:2985  transactionInfoArray */\n      0x02\n        /* \"contracts/TransactionHistory.sol\":2986:2987  i */\n      dup3\n        /* \"contracts/TransactionHistory.sol\":2965:2988  transactionInfoArray[i] */\n      dup2\n      sload\n      dup2\n      lt\n      tag_124\n      jumpi\n      tag_125\n      tag_71\n      jump\t// in\n    tag_125:\n    tag_124:\n      swap1\n      0x00\n      mstore\n      keccak256(0x00, 0x20)\n      swap1\n      0x08\n      mul\n      add\n        /* \"contracts/TransactionHistory.sol\":2965:2999  transactionInfoArray[i].campaignId */\n      0x01\n      add\n        /* \"contracts/TransactionHistory.sol\":2948:3000  abi.encodePacked(transactionInfoArray[i].campaignId) */\n      add(0x20, mload(0x40))\n      tag_127\n      swap2\n      swap1\n      tag_81\n      jump\t// in\n    tag_127:\n      mload(0x40)\n      0x20\n      dup2\n      dup4\n      sub\n      sub\n      dup2\n      mstore\n      swap1\n      0x40\n      mstore\n        /* \"contracts/TransactionHistory.sol\":2938:3001  keccak256(abi.encodePacked(transactionInfoArray[i].campaignId)) */\n      dup1\n      mload\n      swap1\n      0x20\n      add\n      keccak256\n        /* \"contracts/TransactionHistory.sol\":2938:3045  keccak256(abi.encodePacked(transactionInfoArray[i].campaignId)) == keccak256(abi.encodePacked(_campaignId)) */\n      sub\n        /* \"contracts/TransactionHistory.sol\":2934:3089  if (keccak256(abi.encodePacked(transactionInfoArray[i].campaignId)) == keccak256(abi.encodePacked(_campaignId))) {... */\n      tag_128\n      jumpi\n        /* \"contracts/TransactionHistory.sol\":3066:3073  count++ */\n      dup2\n      dup1\n      tag_129\n      swap1\n      tag_130\n      jump\t// in\n    tag_129:\n      swap3\n      pop\n      pop\n        /* \"contracts/TransactionHistory.sol\":2934:3089  if (keccak256(abi.encodePacked(transactionInfoArray[i].campaignId)) == keccak256(abi.encodePacked(_campaignId))) {... */\n    tag_128:\n        /* \"contracts/TransactionHistory.sol\":2914:2917  i++ */\n      dup1\n      dup1\n      0x01\n      add\n      swap2\n      pop\n      pop\n        /* \"contracts/TransactionHistory.sol\":2864:3100  for (uint i = 0; i < transactionInfoArray.length; i++) {... */\n      jump(tag_120)\n    tag_121:\n      pop\n        /* \"contracts/TransactionHistory.sol\":3112:3143  TransactionInfo[] memory result */\n      0x00\n        /* \"contracts/TransactionHistory.sol\":3168:3173  count */\n      dup2\n        /* \"contracts/TransactionHistory.sol\":3146:3174  new TransactionInfo[](count) */\n      0xffffffffffffffff\n      dup2\n      gt\n      iszero\n      tag_131\n      jumpi\n      tag_132\n      tag_133\n      jump\t// in\n    tag_132:\n    tag_131:\n      mload(0x40)\n      swap1\n      dup1\n      dup3\n      mstore\n      dup1\n      0x20\n      mul\n      0x20\n      add\n      dup3\n      add\n      0x40\n      mstore\n      dup1\n      iszero\n      tag_134\n      jumpi\n      dup2\n      0x20\n      add\n    tag_135:\n      tag_136\n      tag_89\n      jump\t// in\n    tag_136:\n      dup2\n      mstore\n      0x20\n      add\n      swap1\n      0x01\n      swap1\n      sub\n      swap1\n      dup2\n      tag_135\n      jumpi\n      swap1\n      pop\n    tag_134:\n      pop\n        /* \"contracts/TransactionHistory.sol\":3112:3174  TransactionInfo[] memory result = new TransactionInfo[](count) */\n      swap1\n      pop\n        /* \"contracts/TransactionHistory.sol\":3193:3194  0 */\n      0x00\n        /* \"contracts/TransactionHistory.sol\":3185:3194  count = 0 */\n      swap2\n      pop\n        /* \"contracts/TransactionHistory.sol\":3210:3216  uint i */\n      0x00\n        /* \"contracts/TransactionHistory.sol\":3205:3499  for (uint i = 0; i < transactionInfoArray.length; i++) {... */\n    tag_137:\n        /* \"contracts/TransactionHistory.sol\":3226:3246  transactionInfoArray */\n      0x02\n        /* \"contracts/TransactionHistory.sol\":3226:3253  transactionInfoArray.length */\n      dup1\n      sload\n      swap1\n      pop\n        /* \"contracts/TransactionHistory.sol\":3222:3223  i */\n      dup2\n        /* \"contracts/TransactionHistory.sol\":3222:3253  i < transactionInfoArray.length */\n      lt\n        /* \"contracts/TransactionHistory.sol\":3205:3499  for (uint i = 0; i < transactionInfoArray.length; i++) {... */\n      iszero\n      tag_138\n      jumpi\n        /* \"contracts/TransactionHistory.sol\":3373:3384  _campaignId */\n      dup5\n        /* \"contracts/TransactionHistory.sol\":3356:3385  abi.encodePacked(_campaignId) */\n      add(0x20, mload(0x40))\n      tag_140\n      swap2\n      swap1\n      tag_76\n      jump\t// in\n    tag_140:\n      mload(0x40)\n      0x20\n      dup2\n      dup4\n      sub\n      sub\n      dup2\n      mstore\n      swap1\n      0x40\n      mstore\n        /* \"contracts/TransactionHistory.sol\":3346:3386  keccak256(abi.encodePacked(_campaignId)) */\n      dup1\n      mload\n      swap1\n      0x20\n      add\n      keccak256\n        /* \"contracts/TransactionHistory.sol\":3306:3326  transactionInfoArray */\n      0x02\n        /* \"contracts/TransactionHistory.sol\":3327:3328  i */\n      dup3\n        /* \"contracts/TransactionHistory.sol\":3306:3329  transactionInfoArray[i] */\n      dup2\n      sload\n      dup2\n      lt\n      tag_141\n      jumpi\n      tag_142\n      tag_71\n      jump\t// in\n    tag_142:\n    tag_141:\n      swap1\n      0x00\n      mstore\n      keccak256(0x00, 0x20)\n      swap1\n      0x08\n      mul\n      add\n        /* \"contracts/TransactionHistory.sol\":3306:3340  transactionInfoArray[i].campaignId */\n      0x01\n      add\n        /* \"contracts/TransactionHistory.sol\":3289:3341  abi.encodePacked(transactionInfoArray[i].campaignId) */\n      add(0x20, mload(0x40))\n      tag_144\n      swap2\n      swap1\n      tag_81\n      jump\t// in\n    tag_144:\n      mload(0x40)\n      0x20\n      dup2\n      dup4\n      sub\n      sub\n      dup2\n      mstore\n      swap1\n      0x40\n      mstore\n        /* \"contracts/TransactionHistory.sol\":3279:3342  keccak256(abi.encodePacked(transactionInfoArray[i].campaignId)) */\n      dup1\n      mload\n      swap1\n      0x20\n      add\n      keccak256\n        /* \"contracts/TransactionHistory.sol\":3279:3386  keccak256(abi.encodePacked(transactionInfoArray[i].campaignId)) == keccak256(abi.encodePacked(_campaignId)) */\n      sub\n        /* \"contracts/TransactionHistory.sol\":3275:3488  if (keccak256(abi.encodePacked(transactionInfoArray[i].campaignId)) == keccak256(abi.encodePacked(_campaignId))) {... */\n      tag_145\n      jumpi\n        /* \"contracts/TransactionHistory.sol\":3423:3443  transactionInfoArray */\n      0x02\n        /* \"contracts/TransactionHistory.sol\":3444:3445  i */\n      dup2\n        /* \"contracts/TransactionHistory.sol\":3423:3446  transactionInfoArray[i] */\n      dup2\n      sload\n      dup2\n      lt\n      tag_146\n      jumpi\n      tag_147\n      tag_71\n      jump\t// in\n    tag_147:\n    tag_146:\n      swap1\n      0x00\n      mstore\n      keccak256(0x00, 0x20)\n      swap1\n      0x08\n      mul\n      add\n        /* \"contracts/TransactionHistory.sol\":3407:3446  result[count] = transactionInfoArray[i] */\n      mload(0x40)\n      dup1\n      0x0100\n      add\n      0x40\n      mstore\n      swap1\n      dup2\n      0x00\n      dup3\n      add\n      sload\n      dup2\n      mstore\n      0x20\n      add\n      0x01\n      dup3\n      add\n      dup1\n      sload\n      tag_149\n      swap1\n      tag_99\n      jump\t// in\n    tag_149:\n      dup1\n      0x1f\n      add\n      0x20\n      dup1\n      swap2\n      div\n      mul\n      0x20\n      add\n      mload(0x40)\n      swap1\n      dup2\n      add\n      0x40\n      mstore\n      dup1\n      swap3\n      swap2\n      swap1\n      dup2\n      dup2\n      mstore\n      0x20\n      add\n      dup3\n      dup1\n      sload\n      tag_150\n      swap1\n      tag_99\n      jump\t// in\n    tag_150:\n      dup1\n      iszero\n      tag_151\n      jumpi\n      dup1\n      0x1f\n      lt\n      tag_152\n      jumpi\n      0x0100\n      dup1\n      dup4\n      sload\n      div\n      mul\n      dup4\n      mstore\n      swap2\n      0x20\n      add\n      swap2\n      jump(tag_151)\n    tag_152:\n      dup3\n      add\n      swap2\n      swap1\n      0x00\n      mstore\n      keccak256(0x00, 0x20)\n      swap1\n    tag_153:\n      dup2\n      sload\n      dup2\n      mstore\n      swap1\n      0x01\n      add\n      swap1\n      0x20\n      add\n      dup1\n      dup4\n      gt\n      tag_153\n      jumpi\n      dup3\n      swap1\n      sub\n      0x1f\n      and\n      dup3\n      add\n      swap2\n    tag_151:\n      pop\n      pop\n      pop\n      pop\n      pop\n      dup2\n      mstore\n      0x20\n      add\n      0x02\n      dup3\n      add\n      dup1\n      sload\n      tag_154\n      swap1\n      tag_99\n      jump\t// in\n    tag_154:\n      dup1\n      0x1f\n      add\n      0x20\n      dup1\n      swap2\n      div\n      mul\n      0x20\n      add\n      mload(0x40)\n      swap1\n      dup2\n      add\n      0x40\n      mstore\n      dup1\n      swap3\n      swap2\n      swap1\n      dup2\n      dup2\n      mstore\n      0x20\n      add\n      dup3\n      dup1\n      sload\n      tag_155\n      swap1\n      tag_99\n      jump\t// in\n    tag_155:\n      dup1\n      iszero\n      tag_156\n      jumpi\n      dup1\n      0x1f\n      lt\n      tag_157\n      jumpi\n      0x0100\n      dup1\n      dup4\n      sload\n      div\n      mul\n      dup4\n      mstore\n      swap2\n      0x20\n      add\n      swap2\n      jump(tag_156)\n    tag_157:\n      dup3\n      add\n      swap2\n      swap1\n      0x00\n      mstore\n      keccak256(0x00, 0x20)\n      swap1\n    tag_158:\n      dup2\n      sload\n      dup2\n      mstore\n      swap1\n      0x01\n      add\n      swap1\n      0x20\n      add\n      dup1\n      dup4\n      gt\n      tag_158\n      jumpi\n      dup3\n      swap1\n      sub\n      0x1f\n      and\n      dup3\n      add\n      swap2\n    tag_156:\n      pop\n      pop\n      pop\n      pop\n      pop\n      dup2\n      mstore\n      0x20\n      add\n      0x03\n      dup3\n      add\n      dup1\n      sload\n      tag_159\n      swap1\n      tag_99\n      jump\t// in\n    tag_159:\n      dup1\n      0x1f\n      add\n      0x20\n      dup1\n      swap2\n      div\n      mul\n      0x20\n      add\n      mload(0x40)\n      swap1\n      dup2\n      add\n      0x40\n      mstore\n      dup1\n      swap3\n      swap2\n      swap1\n      dup2\n      dup2\n      mstore\n      0x20\n      add\n      dup3\n      dup1\n      sload\n      tag_160\n      swap1\n      tag_99\n      jump\t// in\n    tag_160:\n      dup1\n      iszero\n      tag_161\n      jumpi\n      dup1\n      0x1f\n      lt\n      tag_162\n      jumpi\n      0x0100\n      dup1\n      dup4\n      sload\n      div\n      mul\n      dup4\n      mstore\n      swap2\n      0x20\n      add\n      swap2\n      jump(tag_161)\n    tag_162:\n      dup3\n      add\n      swap2\n      swap1\n      0x00\n      mstore\n      keccak256(0x00, 0x20)\n      swap1\n    tag_163:\n      dup2\n      sload\n      dup2\n      mstore\n      swap1\n      0x01\n      add\n      swap1\n      0x20\n      add\n      dup1\n      dup4\n      gt\n      tag_163\n      jumpi\n      dup3\n      swap1\n      sub\n      0x1f\n      and\n      dup3\n      add\n      swap2\n    tag_161:\n      pop\n      pop\n      pop\n      pop\n      pop\n      dup2\n      mstore\n      0x20\n      add\n      0x04\n      dup3\n      add\n      0x00\n      swap1\n      sload\n      swap1\n      0x0100\n      exp\n      swap1\n      div\n      0xffffffffffffffffffffffffffffffffffffffff\n      and\n      0xffffffffffffffffffffffffffffffffffffffff\n      and\n      0xffffffffffffffffffffffffffffffffffffffff\n      and\n      dup2\n      mstore\n      0x20\n      add\n      0x05\n      dup3\n      add\n      sload\n      dup2\n      mstore\n      0x20\n      add\n      0x06\n      dup3\n      add\n      0x00\n      swap1\n      sload\n      swap1\n      0x0100\n      exp\n      swap1\n      div\n      0xff\n      and\n      iszero\n      iszero\n      iszero\n      iszero\n      dup2\n      mstore\n      0x20\n      add\n      0x07\n      dup3\n      add\n      dup1\n      sload\n      tag_164\n      swap1\n      tag_99\n      jump\t// in\n    tag_164:\n      dup1\n      0x1f\n      add\n      0x20\n      dup1\n      swap2\n      div\n      mul\n      0x20\n      add\n      mload(0x40)\n      swap1\n      dup2\n      add\n      0x40\n      mstore\n      dup1\n      swap3\n      swap2\n      swap1\n      dup2\n      dup2\n      mstore\n      0x20\n      add\n      dup3\n      dup1\n      sload\n      tag_165\n      swap1\n      tag_99\n      jump\t// in\n    tag_165:\n      dup1\n      iszero\n      tag_166\n      jumpi\n      dup1\n      0x1f\n      lt\n      tag_167\n      jumpi\n      0x0100\n      dup1\n      dup4\n      sload\n      div\n      mul\n      dup4\n      mstore\n      swap2\n      0x20\n      add\n      swap2\n      jump(tag_166)\n    tag_167:\n      dup3\n      add\n      swap2\n      swap1\n      0x00\n      mstore\n      keccak256(0x00, 0x20)\n      swap1\n    tag_168:\n      dup2\n      sload\n      dup2\n      mstore\n      swap1\n      0x01\n      add\n      swap1\n      0x20\n      add\n      dup1\n      dup4\n      gt\n      tag_168\n      jumpi\n      dup3\n      swap1\n      sub\n      0x1f\n      and\n      dup3\n      add\n      swap2\n    tag_166:\n      pop\n      pop\n      pop\n      pop\n      pop\n      dup2\n      mstore\n      pop\n      pop\n        /* \"contracts/TransactionHistory.sol\":3407:3413  result */\n      dup3\n        /* \"contracts/TransactionHistory.sol\":3414:3419  count */\n      dup5\n        /* \"contracts/TransactionHistory.sol\":3407:3420  result[count] */\n      dup2\n      mload\n      dup2\n      lt\n      tag_169\n      jumpi\n      tag_170\n      tag_71\n      jump\t// in\n    tag_170:\n    tag_169:\n      0x20\n      mul\n      0x20\n      add\n      add\n        /* \"contracts/TransactionHistory.sol\":3407:3446  result[count] = transactionInfoArray[i] */\n      dup2\n      swap1\n      mstore\n      pop\n        /* \"contracts/TransactionHistory.sol\":3465:3472  count++ */\n      dup3\n      dup1\n      tag_171\n      swap1\n      tag_130\n      jump\t// in\n    tag_171:\n      swap4\n      pop\n      pop\n        /* \"contracts/TransactionHistory.sol\":3275:3488  if (keccak256(abi.encodePacked(transactionInfoArray[i].campaignId)) == keccak256(abi.encodePacked(_campaignId))) {... */\n    tag_145:\n        /* \"contracts/TransactionHistory.sol\":3255:3258  i++ */\n      dup1\n      dup1\n      0x01\n      add\n      swap2\n      pop\n      pop\n        /* \"contracts/TransactionHistory.sol\":3205:3499  for (uint i = 0; i < transactionInfoArray.length; i++) {... */\n      jump(tag_137)\n    tag_138:\n      pop\n        /* \"contracts/TransactionHistory.sol\":3518:3524  result */\n      dup1\n        /* \"contracts/TransactionHistory.sol\":3511:3524  return result */\n      swap3\n      pop\n      pop\n      pop\n        /* \"contracts/TransactionHistory.sol\":2709:3532  function getTransactionHistoryByCampaignId(string memory _campaignId) external view returns (TransactionInfo[] memory) {... */\n      swap2\n      swap1\n      pop\n      jump\t// out\n        /* \"contracts/TransactionHistory.sol\":1828:1995  function setCampaignAddress(... */\n    tag_44:\n        /* \"contracts/TransactionHistory.sol\":820:835  deployerAddress */\n      0x00\n      dup1\n      sload\n      swap1\n      0x0100\n      exp\n      swap1\n      div\n      0xffffffffffffffffffffffffffffffffffffffff\n      and\n        /* \"contracts/TransactionHistory.sol\":806:835  msg.sender == deployerAddress */\n      0xffffffffffffffffffffffffffffffffffffffff\n      and\n        /* \"contracts/TransactionHistory.sol\":806:816  msg.sender */\n      caller\n        /* \"contracts/TransactionHistory.sol\":806:835  msg.sender == deployerAddress */\n      0xffffffffffffffffffffffffffffffffffffffff\n      and\n      eq\n        /* \"contracts/TransactionHistory.sol\":784:895  require(... */\n      tag_173\n      jumpi\n      mload(0x40)\n      0x08c379a000000000000000000000000000000000000000000000000000000000\n      dup2\n      mstore\n      0x04\n      add\n      tag_174\n      swap1\n      tag_175\n      jump\t// in\n    tag_174:\n      mload(0x40)\n      dup1\n      swap2\n      sub\n      swap1\n      revert\n    tag_173:\n        /* \"contracts/TransactionHistory.sol\":1963:1987  _campaignContractAddress */\n      dup1\n        /* \"contracts/TransactionHistory.sol\":1937:1960  campaignContractAddress */\n      0x01\n      0x00\n        /* \"contracts/TransactionHistory.sol\":1937:1987  campaignContractAddress = _campaignContractAddress */\n      0x0100\n      exp\n      dup2\n      sload\n      dup2\n      0xffffffffffffffffffffffffffffffffffffffff\n      mul\n      not\n      and\n      swap1\n      dup4\n      0xffffffffffffffffffffffffffffffffffffffff\n      and\n      mul\n      or\n      swap1\n      sstore\n      pop\n        /* \"contracts/TransactionHistory.sol\":1828:1995  function setCampaignAddress(... */\n      pop\n      jump\t// out\n        /* \"contracts/TransactionHistory.sol\":1664:1820  function getAllTransaction()... */\n    tag_46:\n        /* \"contracts/TransactionHistory.sol\":1743:1767  TransactionInfo[] memory */\n      0x60\n        /* \"contracts/TransactionHistory.sol\":1792:1812  transactionInfoArray */\n      0x02\n        /* \"contracts/TransactionHistory.sol\":1785:1812  return transactionInfoArray */\n      dup1\n      sload\n      dup1\n      0x20\n      mul\n      0x20\n      add\n      mload(0x40)\n      swap1\n      dup2\n      add\n      0x40\n      mstore\n      dup1\n      swap3\n      swap2\n      swap1\n      dup2\n      dup2\n      mstore\n      0x20\n      add\n      0x00\n      swap1\n    tag_178:\n      dup3\n      dup3\n      lt\n      iszero\n      tag_179\n      jumpi\n      dup4\n      dup3\n      swap1\n      0x00\n      mstore\n      keccak256(0x00, 0x20)\n      swap1\n      0x08\n      mul\n      add\n      mload(0x40)\n      dup1\n      0x0100\n      add\n      0x40\n      mstore\n      swap1\n      dup2\n      0x00\n      dup3\n      add\n      sload\n      dup2\n      mstore\n      0x20\n      add\n      0x01\n      dup3\n      add\n      dup1\n      sload\n      tag_181\n      swap1\n      tag_99\n      jump\t// in\n    tag_181:\n      dup1\n      0x1f\n      add\n      0x20\n      dup1\n      swap2\n      div\n      mul\n      0x20\n      add\n      mload(0x40)\n      swap1\n      dup2\n      add\n      0x40\n      mstore\n      dup1\n      swap3\n      swap2\n      swap1\n      dup2\n      dup2\n      mstore\n      0x20\n      add\n      dup3\n      dup1\n      sload\n      tag_182\n      swap1\n      tag_99\n      jump\t// in\n    tag_182:\n      dup1\n      iszero\n      tag_183\n      jumpi\n      dup1\n      0x1f\n      lt\n      tag_184\n      jumpi\n      0x0100\n      dup1\n      dup4\n      sload\n      div\n      mul\n      dup4\n      mstore\n      swap2\n      0x20\n      add\n      swap2\n      jump(tag_183)\n    tag_184:\n      dup3\n      add\n      swap2\n      swap1\n      0x00\n      mstore\n      keccak256(0x00, 0x20)\n      swap1\n    tag_185:\n      dup2\n      sload\n      dup2\n      mstore\n      swap1\n      0x01\n      add\n      swap1\n      0x20\n      add\n      dup1\n      dup4\n      gt\n      tag_185\n      jumpi\n      dup3\n      swap1\n      sub\n      0x1f\n      and\n      dup3\n      add\n      swap2\n    tag_183:\n      pop\n      pop\n      pop\n      pop\n      pop\n      dup2\n      mstore\n      0x20\n      add\n      0x02\n      dup3\n      add\n      dup1\n      sload\n      tag_186\n      swap1\n      tag_99\n      jump\t// in\n    tag_186:\n      dup1\n      0x1f\n      add\n      0x20\n      dup1\n      swap2\n      div\n      mul\n      0x20\n      add\n      mload(0x40)\n      swap1\n      dup2\n      add\n      0x40\n      mstore\n      dup1\n      swap3\n      swap2\n      swap1\n      dup2\n      dup2\n      mstore\n      0x20\n      add\n      dup3\n      dup1\n      sload\n      tag_187\n      swap1\n      tag_99\n      jump\t// in\n    tag_187:\n      dup1\n      iszero\n      tag_188\n      jumpi\n      dup1\n      0x1f\n      lt\n      tag_189\n      jumpi\n      0x0100\n      dup1\n      dup4\n      sload\n      div\n      mul\n      dup4\n      mstore\n      swap2\n      0x20\n      add\n      swap2\n      jump(tag_188)\n    tag_189:\n      dup3\n      add\n      swap2\n      swap1\n      0x00\n      mstore\n      keccak256(0x00, 0x20)\n      swap1\n    tag_190:\n      dup2\n      sload\n      dup2\n      mstore\n      swap1\n      0x01\n      add\n      swap1\n      0x20\n      add\n      dup1\n      dup4\n      gt\n      tag_190\n      jumpi\n      dup3\n      swap1\n      sub\n      0x1f\n      and\n      dup3\n      add\n      swap2\n    tag_188:\n      pop\n      pop\n      pop\n      pop\n      pop\n      dup2\n      mstore\n      0x20\n      add\n      0x03\n      dup3\n      add\n      dup1\n      sload\n      tag_191\n      swap1\n      tag_99\n      jump\t// in\n    tag_191:\n      dup1\n      0x1f\n      add\n      0x20\n      dup1\n      swap2\n      div\n      mul\n      0x20\n      add\n      mload(0x40)\n      swap1\n      dup2\n      add\n      0x40\n      mstore\n      dup1\n      swap3\n      swap2\n      swap1\n      dup2\n      dup2\n      mstore\n      0x20\n      add\n      dup3\n      dup1\n      sload\n      tag_192\n      swap1\n      tag_99\n      jump\t// in\n    tag_192:\n      dup1\n      iszero\n      tag_193\n      jumpi\n      dup1\n      0x1f\n      lt\n      tag_194\n      jumpi\n      0x0100\n      dup1\n      dup4\n      sload\n      div\n      mul\n      dup4\n      mstore\n      swap2\n      0x20\n      add\n      swap2\n      jump(tag_193)\n    tag_194:\n      dup3\n      add\n      swap2\n      swap1\n      0x00\n      mstore\n      keccak256(0x00, 0x20)\n      swap1\n    tag_195:\n      dup2\n      sload\n      dup2\n      mstore\n      swap1\n      0x01\n      add\n      swap1\n      0x20\n      add\n      dup1\n      dup4\n      gt\n      tag_195\n      jumpi\n      dup3\n      swap1\n      sub\n      0x1f\n      and\n      dup3\n      add\n      swap2\n    tag_193:\n      pop\n      pop\n      pop\n      pop\n      pop\n      dup2\n      mstore\n      0x20\n      add\n      0x04\n      dup3\n      add\n      0x00\n      swap1\n      sload\n      swap1\n      0x0100\n      exp\n      swap1\n      div\n      0xffffffffffffffffffffffffffffffffffffffff\n      and\n      0xffffffffffffffffffffffffffffffffffffffff\n      and\n      0xffffffffffffffffffffffffffffffffffffffff\n      and\n      dup2\n      mstore\n      0x20\n      add\n      0x05\n      dup3\n      add\n      sload\n      dup2\n      mstore\n      0x20\n      add\n      0x06\n      dup3\n      add\n      0x00\n      swap1\n      sload\n      swap1\n      0x0100\n      exp\n      swap1\n      div\n      0xff\n      and\n      iszero\n      iszero\n      iszero\n      iszero\n      dup2\n      mstore\n      0x20\n      add\n      0x07\n      dup3\n      add\n      dup1\n      sload\n      tag_196\n      swap1\n      tag_99\n      jump\t// in\n    tag_196:\n      dup1\n      0x1f\n      add\n      0x20\n      dup1\n      swap2\n      div\n      mul\n      0x20\n      add\n      mload(0x40)\n      swap1\n      dup2\n      add\n      0x40\n      mstore\n      dup1\n      swap3\n      swap2\n      swap1\n      dup2\n      dup2\n      mstore\n      0x20\n      add\n      dup3\n      dup1\n      sload\n      tag_197\n      swap1\n      tag_99\n      jump\t// in\n    tag_197:\n      dup1\n      iszero\n      tag_198\n      jumpi\n      dup1\n      0x1f\n      lt\n      tag_199\n      jumpi\n      0x0100\n      dup1\n      dup4\n      sload\n      div\n      mul\n      dup4\n      mstore\n      swap2\n      0x20\n      add\n      swap2\n      jump(tag_198)\n    tag_199:\n      dup3\n      add\n      swap2\n      swap1\n      0x00\n      mstore\n      keccak256(0x00, 0x20)\n      swap1\n    tag_200:\n      dup2\n      sload\n      dup2\n      mstore\n      swap1\n      0x01\n      add\n      swap1\n      0x20\n      add\n      dup1\n      dup4\n      gt\n      tag_200\n      jumpi\n      dup3\n      swap1\n      sub\n      0x1f\n      and\n      dup3\n      add\n      swap2\n    tag_198:\n      pop\n      pop\n      pop\n      pop\n      pop\n      dup2\n      mstore\n      pop\n      pop\n      dup2\n      mstore\n      0x20\n      add\n      swap1\n      0x01\n      add\n      swap1\n      jump(tag_178)\n    tag_179:\n      pop\n      pop\n      pop\n      pop\n      swap1\n      pop\n        /* \"contracts/TransactionHistory.sol\":1664:1820  function getAllTransaction()... */\n      swap1\n      jump\t// out\n        /* \"contracts/TransactionHistory.sol\":5616:6407  function getDonateByOwner(string memory _ownerId) external view returns (TransactionInfo[] memory) {... */\n    tag_50:\n        /* \"contracts/TransactionHistory.sol\":5689:5713  TransactionInfo[] memory */\n      0x60\n        /* \"contracts/TransactionHistory.sol\":5726:5736  uint count */\n      0x00\n        /* \"contracts/TransactionHistory.sol\":5756:5762  uint i */\n      dup1\n        /* \"contracts/TransactionHistory.sol\":5751:5981  for (uint i = 0; i < transactionInfoArray.length; i++) {... */\n    tag_202:\n        /* \"contracts/TransactionHistory.sol\":5772:5792  transactionInfoArray */\n      0x02\n        /* \"contracts/TransactionHistory.sol\":5772:5799  transactionInfoArray.length */\n      dup1\n      sload\n      swap1\n      pop\n        /* \"contracts/TransactionHistory.sol\":5768:5769  i */\n      dup2\n        /* \"contracts/TransactionHistory.sol\":5768:5799  i < transactionInfoArray.length */\n      lt\n        /* \"contracts/TransactionHistory.sol\":5751:5981  for (uint i = 0; i < transactionInfoArray.length; i++) {... */\n      iszero\n      tag_203\n      jumpi\n        /* \"contracts/TransactionHistory.sol\":5916:5924  _ownerId */\n      dup4\n        /* \"contracts/TransactionHistory.sol\":5899:5925  abi.encodePacked(_ownerId) */\n      add(0x20, mload(0x40))\n      tag_205\n      swap2\n      swap1\n      tag_76\n      jump\t// in\n    tag_205:\n      mload(0x40)\n      0x20\n      dup2\n      dup4\n      sub\n      sub\n      dup2\n      mstore\n      swap1\n      0x40\n      mstore\n        /* \"contracts/TransactionHistory.sol\":5889:5926  keccak256(abi.encodePacked(_ownerId)) */\n      dup1\n      mload\n      swap1\n      0x20\n      add\n      keccak256\n        /* \"contracts/TransactionHistory.sol\":5852:5872  transactionInfoArray */\n      0x02\n        /* \"contracts/TransactionHistory.sol\":5873:5874  i */\n      dup3\n        /* \"contracts/TransactionHistory.sol\":5852:5875  transactionInfoArray[i] */\n      dup2\n      sload\n      dup2\n      lt\n      tag_206\n      jumpi\n      tag_207\n      tag_71\n      jump\t// in\n    tag_207:\n    tag_206:\n      swap1\n      0x00\n      mstore\n      keccak256(0x00, 0x20)\n      swap1\n      0x08\n      mul\n      add\n        /* \"contracts/TransactionHistory.sol\":5852:5883  transactionInfoArray[i].ownerId */\n      0x02\n      add\n        /* \"contracts/TransactionHistory.sol\":5835:5884  abi.encodePacked(transactionInfoArray[i].ownerId) */\n      add(0x20, mload(0x40))\n      tag_209\n      swap2\n      swap1\n      tag_81\n      jump\t// in\n    tag_209:\n      mload(0x40)\n      0x20\n      dup2\n      dup4\n      sub\n      sub\n      dup2\n      mstore\n      swap1\n      0x40\n      mstore\n        /* \"contracts/TransactionHistory.sol\":5825:5885  keccak256(abi.encodePacked(transactionInfoArray[i].ownerId)) */\n      dup1\n      mload\n      swap1\n      0x20\n      add\n      keccak256\n        /* \"contracts/TransactionHistory.sol\":5825:5926  keccak256(abi.encodePacked(transactionInfoArray[i].ownerId)) == keccak256(abi.encodePacked(_ownerId)) */\n      sub\n        /* \"contracts/TransactionHistory.sol\":5821:5970  if (keccak256(abi.encodePacked(transactionInfoArray[i].ownerId)) == keccak256(abi.encodePacked(_ownerId))) {... */\n      tag_210\n      jumpi\n        /* \"contracts/TransactionHistory.sol\":5947:5954  count++ */\n      dup2\n      dup1\n      tag_211\n      swap1\n      tag_130\n      jump\t// in\n    tag_211:\n      swap3\n      pop\n      pop\n        /* \"contracts/TransactionHistory.sol\":5821:5970  if (keccak256(abi.encodePacked(transactionInfoArray[i].ownerId)) == keccak256(abi.encodePacked(_ownerId))) {... */\n    tag_210:\n        /* \"contracts/TransactionHistory.sol\":5801:5804  i++ */\n      dup1\n      dup1\n      0x01\n      add\n      swap2\n      pop\n      pop\n        /* \"contracts/TransactionHistory.sol\":5751:5981  for (uint i = 0; i < transactionInfoArray.length; i++) {... */\n      jump(tag_202)\n    tag_203:\n      pop\n        /* \"contracts/TransactionHistory.sol\":5993:6024  TransactionInfo[] memory result */\n      0x00\n        /* \"contracts/TransactionHistory.sol\":6049:6054  count */\n      dup2\n        /* \"contracts/TransactionHistory.sol\":6027:6055  new TransactionInfo[](count) */\n      0xffffffffffffffff\n      dup2\n      gt\n      iszero\n      tag_212\n      jumpi\n      tag_213\n      tag_133\n      jump\t// in\n    tag_213:\n    tag_212:\n      mload(0x40)\n      swap1\n      dup1\n      dup3\n      mstore\n      dup1\n      0x20\n      mul\n      0x20\n      add\n      dup3\n      add\n      0x40\n      mstore\n      dup1\n      iszero\n      tag_214\n      jumpi\n      dup2\n      0x20\n      add\n    tag_215:\n      tag_216\n      tag_89\n      jump\t// in\n    tag_216:\n      dup2\n      mstore\n      0x20\n      add\n      swap1\n      0x01\n      swap1\n      sub\n      swap1\n      dup2\n      tag_215\n      jumpi\n      swap1\n      pop\n    tag_214:\n      pop\n        /* \"contracts/TransactionHistory.sol\":5993:6055  TransactionInfo[] memory result = new TransactionInfo[](count) */\n      swap1\n      pop\n        /* \"contracts/TransactionHistory.sol\":6074:6075  0 */\n      0x00\n        /* \"contracts/TransactionHistory.sol\":6066:6075  count = 0 */\n      swap2\n      pop\n        /* \"contracts/TransactionHistory.sol\":6091:6097  uint i */\n      0x00\n        /* \"contracts/TransactionHistory.sol\":6086:6374  for (uint i = 0; i < transactionInfoArray.length; i++) {... */\n    tag_217:\n        /* \"contracts/TransactionHistory.sol\":6107:6127  transactionInfoArray */\n      0x02\n        /* \"contracts/TransactionHistory.sol\":6107:6134  transactionInfoArray.length */\n      dup1\n      sload\n      swap1\n      pop\n        /* \"contracts/TransactionHistory.sol\":6103:6104  i */\n      dup2\n        /* \"contracts/TransactionHistory.sol\":6103:6134  i < transactionInfoArray.length */\n      lt\n        /* \"contracts/TransactionHistory.sol\":6086:6374  for (uint i = 0; i < transactionInfoArray.length; i++) {... */\n      iszero\n      tag_218\n      jumpi\n        /* \"contracts/TransactionHistory.sol\":6251:6259  _ownerId */\n      dup5\n        /* \"contracts/TransactionHistory.sol\":6234:6260  abi.encodePacked(_ownerId) */\n      add(0x20, mload(0x40))\n      tag_220\n      swap2\n      swap1\n      tag_76\n      jump\t// in\n    tag_220:\n      mload(0x40)\n      0x20\n      dup2\n      dup4\n      sub\n      sub\n      dup2\n      mstore\n      swap1\n      0x40\n      mstore\n        /* \"contracts/TransactionHistory.sol\":6224:6261  keccak256(abi.encodePacked(_ownerId)) */\n      dup1\n      mload\n      swap1\n      0x20\n      add\n      keccak256\n        /* \"contracts/TransactionHistory.sol\":6187:6207  transactionInfoArray */\n      0x02\n        /* \"contracts/TransactionHistory.sol\":6208:6209  i */\n      dup3\n        /* \"contracts/TransactionHistory.sol\":6187:6210  transactionInfoArray[i] */\n      dup2\n      sload\n      dup2\n      lt\n      tag_221\n      jumpi\n      tag_222\n      tag_71\n      jump\t// in\n    tag_222:\n    tag_221:\n      swap1\n      0x00\n      mstore\n      keccak256(0x00, 0x20)\n      swap1\n      0x08\n      mul\n      add\n        /* \"contracts/TransactionHistory.sol\":6187:6218  transactionInfoArray[i].ownerId */\n      0x02\n      add\n        /* \"contracts/TransactionHistory.sol\":6170:6219  abi.encodePacked(transactionInfoArray[i].ownerId) */\n      add(0x20, mload(0x40))\n      tag_224\n      swap2\n      swap1\n      tag_81\n      jump\t// in\n    tag_224:\n      mload(0x40)\n      0x20\n      dup2\n      dup4\n      sub\n      sub\n      dup2\n      mstore\n      swap1\n      0x40\n      mstore\n        /* \"contracts/TransactionHistory.sol\":6160:6220  keccak256(abi.encodePacked(transactionInfoArray[i].ownerId)) */\n      dup1\n      mload\n      swap1\n      0x20\n      add\n      keccak256\n        /* \"contracts/TransactionHistory.sol\":6160:6261  keccak256(abi.encodePacked(transactionInfoArray[i].ownerId)) == keccak256(abi.encodePacked(_ownerId)) */\n      sub\n        /* \"contracts/TransactionHistory.sol\":6156:6363  if (keccak256(abi.encodePacked(transactionInfoArray[i].ownerId)) == keccak256(abi.encodePacked(_ownerId))) {... */\n      tag_225\n      jumpi\n        /* \"contracts/TransactionHistory.sol\":6298:6318  transactionInfoArray */\n      0x02\n        /* \"contracts/TransactionHistory.sol\":6319:6320  i */\n      dup2\n        /* \"contracts/TransactionHistory.sol\":6298:6321  transactionInfoArray[i] */\n      dup2\n      sload\n      dup2\n      lt\n      tag_226\n      jumpi\n      tag_227\n      tag_71\n      jump\t// in\n    tag_227:\n    tag_226:\n      swap1\n      0x00\n      mstore\n      keccak256(0x00, 0x20)\n      swap1\n      0x08\n      mul\n      add\n        /* \"contracts/TransactionHistory.sol\":6282:6321  result[count] = transactionInfoArray[i] */\n      mload(0x40)\n      dup1\n      0x0100\n      add\n      0x40\n      mstore\n      swap1\n      dup2\n      0x00\n      dup3\n      add\n      sload\n      dup2\n      mstore\n      0x20\n      add\n      0x01\n      dup3\n      add\n      dup1\n      sload\n      tag_229\n      swap1\n      tag_99\n      jump\t// in\n    tag_229:\n      dup1\n      0x1f\n      add\n      0x20\n      dup1\n      swap2\n      div\n      mul\n      0x20\n      add\n      mload(0x40)\n      swap1\n      dup2\n      add\n      0x40\n      mstore\n      dup1\n      swap3\n      swap2\n      swap1\n      dup2\n      dup2\n      mstore\n      0x20\n      add\n      dup3\n      dup1\n      sload\n      tag_230\n      swap1\n      tag_99\n      jump\t// in\n    tag_230:\n      dup1\n      iszero\n      tag_231\n      jumpi\n      dup1\n      0x1f\n      lt\n      tag_232\n      jumpi\n      0x0100\n      dup1\n      dup4\n      sload\n      div\n      mul\n      dup4\n      mstore\n      swap2\n      0x20\n      add\n      swap2\n      jump(tag_231)\n    tag_232:\n      dup3\n      add\n      swap2\n      swap1\n      0x00\n      mstore\n      keccak256(0x00, 0x20)\n      swap1\n    tag_233:\n      dup2\n      sload\n      dup2\n      mstore\n      swap1\n      0x01\n      add\n      swap1\n      0x20\n      add\n      dup1\n      dup4\n      gt\n      tag_233\n      jumpi\n      dup3\n      swap1\n      sub\n      0x1f\n      and\n      dup3\n      add\n      swap2\n    tag_231:\n      pop\n      pop\n      pop\n      pop\n      pop\n      dup2\n      mstore\n      0x20\n      add\n      0x02\n      dup3\n      add\n      dup1\n      sload\n      tag_234\n      swap1\n      tag_99\n      jump\t// in\n    tag_234:\n      dup1\n      0x1f\n      add\n      0x20\n      dup1\n      swap2\n      div\n      mul\n      0x20\n      add\n      mload(0x40)\n      swap1\n      dup2\n      add\n      0x40\n      mstore\n      dup1\n      swap3\n      swap2\n      swap1\n      dup2\n      dup2\n      mstore\n      0x20\n      add\n      dup3\n      dup1\n      sload\n      tag_235\n      swap1\n      tag_99\n      jump\t// in\n    tag_235:\n      dup1\n      iszero\n      tag_236\n      jumpi\n      dup1\n      0x1f\n      lt\n      tag_237\n      jumpi\n      0x0100\n      dup1\n      dup4\n      sload\n      div\n      mul\n      dup4\n      mstore\n      swap2\n      0x20\n      add\n      swap2\n      jump(tag_236)\n    tag_237:\n      dup3\n      add\n      swap2\n      swap1\n      0x00\n      mstore\n      keccak256(0x00, 0x20)\n      swap1\n    tag_238:\n      dup2\n      sload\n      dup2\n      mstore\n      swap1\n      0x01\n      add\n      swap1\n      0x20\n      add\n      dup1\n      dup4\n      gt\n      tag_238\n      jumpi\n      dup3\n      swap1\n      sub\n      0x1f\n      and\n      dup3\n      add\n      swap2\n    tag_236:\n      pop\n      pop\n      pop\n      pop\n      pop\n      dup2\n      mstore\n      0x20\n      add\n      0x03\n      dup3\n      add\n      dup1\n      sload\n      tag_239\n      swap1\n      tag_99\n      jump\t// in\n    tag_239:\n      dup1\n      0x1f\n      add\n      0x20\n      dup1\n      swap2\n      div\n      mul\n      0x20\n      add\n      mload(0x40)\n      swap1\n      dup2\n      add\n      0x40\n      mstore\n      dup1\n      swap3\n      swap2\n      swap1\n      dup2\n      dup2\n      mstore\n      0x20\n      add\n      dup3\n      dup1\n      sload\n      tag_240\n      swap1\n      tag_99\n      jump\t// in\n    tag_240:\n      dup1\n      iszero\n      tag_241\n      jumpi\n      dup1\n      0x1f\n      lt\n      tag_242\n      jumpi\n      0x0100\n      dup1\n      dup4\n      sload\n      div\n      mul\n      dup4\n      mstore\n      swap2\n      0x20\n      add\n      swap2\n      jump(tag_241)\n    tag_242:\n      dup3\n      add\n      swap2\n      swap1\n      0x00\n      mstore\n      keccak256(0x00, 0x20)\n      swap1\n    tag_243:\n      dup2\n      sload\n      dup2\n      mstore\n      swap1\n      0x01\n      add\n      swap1\n      0x20\n      add\n      dup1\n      dup4\n      gt\n      tag_243\n      jumpi\n      dup3\n      swap1\n      sub\n      0x1f\n      and\n      dup3\n      add\n      swap2\n    tag_241:\n      pop\n      pop\n      pop\n      pop\n      pop\n      dup2\n      mstore\n      0x20\n      add\n      0x04\n      dup3\n      add\n      0x00\n      swap1\n      sload\n      swap1\n      0x0100\n      exp\n      swap1\n      div\n      0xffffffffffffffffffffffffffffffffffffffff\n      and\n      0xffffffffffffffffffffffffffffffffffffffff\n      and\n      0xffffffffffffffffffffffffffffffffffffffff\n      and\n      dup2\n      mstore\n      0x20\n      add\n      0x05\n      dup3\n      add\n      sload\n      dup2\n      mstore\n      0x20\n      add\n      0x06\n      dup3\n      add\n      0x00\n      swap1\n      sload\n      swap1\n      0x0100\n      exp\n      swap1\n      div\n      0xff\n      and\n      iszero\n      iszero\n      iszero\n      iszero\n      dup2\n      mstore\n      0x20\n      add\n      0x07\n      dup3\n      add\n      dup1\n      sload\n      tag_244\n      swap1\n      tag_99\n      jump\t// in\n    tag_244:\n      dup1\n      0x1f\n      add\n      0x20\n      dup1\n      swap2\n      div\n      mul\n      0x20\n      add\n      mload(0x40)\n      swap1\n      dup2\n      add\n      0x40\n      mstore\n      dup1\n      swap3\n      swap2\n      swap1\n      dup2\n      dup2\n      mstore\n      0x20\n      add\n      dup3\n      dup1\n      sload\n      tag_245\n      swap1\n      tag_99\n      jump\t// in\n    tag_245:\n      dup1\n      iszero\n      tag_246\n      jumpi\n      dup1\n      0x1f\n      lt\n      tag_247\n      jumpi\n      0x0100\n      dup1\n      dup4\n      sload\n      div\n      mul\n      dup4\n      mstore\n      swap2\n      0x20\n      add\n      swap2\n      jump(tag_246)\n    tag_247:\n      dup3\n      add\n      swap2\n      swap1\n      0x00\n      mstore\n      keccak256(0x00, 0x20)\n      swap1\n    tag_248:\n      dup2\n      sload\n      dup2\n      mstore\n      swap1\n      0x01\n      add\n      swap1\n      0x20\n      add\n      dup1\n      dup4\n      gt\n      tag_248\n      jumpi\n      dup3\n      swap1\n      sub\n      0x1f\n      and\n      dup3\n      add\n      swap2\n    tag_246:\n      pop\n      pop\n      pop\n      pop\n      pop\n      dup2\n      mstore\n      pop\n      pop\n        /* \"contracts/TransactionHistory.sol\":6282:6288  result */\n      dup3\n        /* \"contracts/TransactionHistory.sol\":6289:6294  count */\n      dup5\n        /* \"contracts/TransactionHistory.sol\":6282:6295  result[count] */\n      dup2\n      mload\n      dup2\n      lt\n      tag_249\n      jumpi\n      tag_250\n      tag_71\n      jump\t// in\n    tag_250:\n    tag_249:\n      0x20\n      mul\n      0x20\n      add\n      add\n        /* \"contracts/TransactionHistory.sol\":6282:6321  result[count] = transactionInfoArray[i] */\n      dup2\n      swap1\n      mstore\n      pop\n        /* \"contracts/TransactionHistory.sol\":6340:6347  count++ */\n      dup3\n      dup1\n      tag_251\n      swap1\n      tag_130\n      jump\t// in\n    tag_251:\n      swap4\n      pop\n      pop\n        /* \"contracts/TransactionHistory.sol\":6156:6363  if (keccak256(abi.encodePacked(transactionInfoArray[i].ownerId)) == keccak256(abi.encodePacked(_ownerId))) {... */\n    tag_225:\n        /* \"contracts/TransactionHistory.sol\":6136:6139  i++ */\n      dup1\n      dup1\n      0x01\n      add\n      swap2\n      pop\n      pop\n        /* \"contracts/TransactionHistory.sol\":6086:6374  for (uint i = 0; i < transactionInfoArray.length; i++) {... */\n      jump(tag_217)\n    tag_218:\n      pop\n        /* \"contracts/TransactionHistory.sol\":6393:6399  result */\n      dup1\n        /* \"contracts/TransactionHistory.sol\":6386:6399  return result */\n      swap3\n      pop\n      pop\n      pop\n        /* \"contracts/TransactionHistory.sol\":5616:6407  function getDonateByOwner(string memory _ownerId) external view returns (TransactionInfo[] memory) {... */\n      swap2\n      swap1\n      pop\n      jump\t// out\n        /* \"contracts/TransactionHistory.sol\":3540:4434  function getTransactionHistoryByCampaignIdAndRefund(string memory _campaignId) external view returns (TransactionInfo[] memory) {... */\n    tag_54:\n        /* \"contracts/TransactionHistory.sol\":3642:3666  TransactionInfo[] memory */\n      0x60\n        /* \"contracts/TransactionHistory.sol\":3679:3689  uint count */\n      0x00\n        /* \"contracts/TransactionHistory.sol\":3709:3715  uint i */\n      dup1\n        /* \"contracts/TransactionHistory.sol\":3704:3940  for (uint i = 0; i < transactionInfoArray.length; i++) {... */\n    tag_253:\n        /* \"contracts/TransactionHistory.sol\":3725:3745  transactionInfoArray */\n      0x02\n        /* \"contracts/TransactionHistory.sol\":3725:3752  transactionInfoArray.length */\n      dup1\n      sload\n      swap1\n      pop\n        /* \"contracts/TransactionHistory.sol\":3721:3722  i */\n      dup2\n        /* \"contracts/TransactionHistory.sol\":3721:3752  i < transactionInfoArray.length */\n      lt\n        /* \"contracts/TransactionHistory.sol\":3704:3940  for (uint i = 0; i < transactionInfoArray.length; i++) {... */\n      iszero\n      tag_254\n      jumpi\n        /* \"contracts/TransactionHistory.sol\":3872:3883  _campaignId */\n      dup4\n        /* \"contracts/TransactionHistory.sol\":3855:3884  abi.encodePacked(_campaignId) */\n      add(0x20, mload(0x40))\n      tag_256\n      swap2\n      swap1\n      tag_76\n      jump\t// in\n    tag_256:\n      mload(0x40)\n      0x20\n      dup2\n      dup4\n      sub\n      sub\n      dup2\n      mstore\n      swap1\n      0x40\n      mstore\n        /* \"contracts/TransactionHistory.sol\":3845:3885  keccak256(abi.encodePacked(_campaignId)) */\n      dup1\n      mload\n      swap1\n      0x20\n      add\n      keccak256\n        /* \"contracts/TransactionHistory.sol\":3805:3825  transactionInfoArray */\n      0x02\n        /* \"contracts/TransactionHistory.sol\":3826:3827  i */\n      dup3\n        /* \"contracts/TransactionHistory.sol\":3805:3828  transactionInfoArray[i] */\n      dup2\n      sload\n      dup2\n      lt\n      tag_257\n      jumpi\n      tag_258\n      tag_71\n      jump\t// in\n    tag_258:\n    tag_257:\n      swap1\n      0x00\n      mstore\n      keccak256(0x00, 0x20)\n      swap1\n      0x08\n      mul\n      add\n        /* \"contracts/TransactionHistory.sol\":3805:3839  transactionInfoArray[i].campaignId */\n      0x01\n      add\n        /* \"contracts/TransactionHistory.sol\":3788:3840  abi.encodePacked(transactionInfoArray[i].campaignId) */\n      add(0x20, mload(0x40))\n      tag_260\n      swap2\n      swap1\n      tag_81\n      jump\t// in\n    tag_260:\n      mload(0x40)\n      0x20\n      dup2\n      dup4\n      sub\n      sub\n      dup2\n      mstore\n      swap1\n      0x40\n      mstore\n        /* \"contracts/TransactionHistory.sol\":3778:3841  keccak256(abi.encodePacked(transactionInfoArray[i].campaignId)) */\n      dup1\n      mload\n      swap1\n      0x20\n      add\n      keccak256\n        /* \"contracts/TransactionHistory.sol\":3778:3885  keccak256(abi.encodePacked(transactionInfoArray[i].campaignId)) == keccak256(abi.encodePacked(_campaignId)) */\n      sub\n        /* \"contracts/TransactionHistory.sol\":3774:3929  if (keccak256(abi.encodePacked(transactionInfoArray[i].campaignId)) == keccak256(abi.encodePacked(_campaignId))) {... */\n      tag_261\n      jumpi\n        /* \"contracts/TransactionHistory.sol\":3906:3913  count++ */\n      dup2\n      dup1\n      tag_262\n      swap1\n      tag_130\n      jump\t// in\n    tag_262:\n      swap3\n      pop\n      pop\n        /* \"contracts/TransactionHistory.sol\":3774:3929  if (keccak256(abi.encodePacked(transactionInfoArray[i].campaignId)) == keccak256(abi.encodePacked(_campaignId))) {... */\n    tag_261:\n        /* \"contracts/TransactionHistory.sol\":3754:3757  i++ */\n      dup1\n      dup1\n      0x01\n      add\n      swap2\n      pop\n      pop\n        /* \"contracts/TransactionHistory.sol\":3704:3940  for (uint i = 0; i < transactionInfoArray.length; i++) {... */\n      jump(tag_253)\n    tag_254:\n      pop\n        /* \"contracts/TransactionHistory.sol\":3952:3983  TransactionInfo[] memory result */\n      0x00\n        /* \"contracts/TransactionHistory.sol\":4008:4013  count */\n      dup2\n        /* \"contracts/TransactionHistory.sol\":3986:4014  new TransactionInfo[](count) */\n      0xffffffffffffffff\n      dup2\n      gt\n      iszero\n      tag_263\n      jumpi\n      tag_264\n      tag_133\n      jump\t// in\n    tag_264:\n    tag_263:\n      mload(0x40)\n      swap1\n      dup1\n      dup3\n      mstore\n      dup1\n      0x20\n      mul\n      0x20\n      add\n      dup3\n      add\n      0x40\n      mstore\n      dup1\n      iszero\n      tag_265\n      jumpi\n      dup2\n      0x20\n      add\n    tag_266:\n      tag_267\n      tag_89\n      jump\t// in\n    tag_267:\n      dup2\n      mstore\n      0x20\n      add\n      swap1\n      0x01\n      swap1\n      sub\n      swap1\n      dup2\n      tag_266\n      jumpi\n      swap1\n      pop\n    tag_265:\n      pop\n        /* \"contracts/TransactionHistory.sol\":3952:4014  TransactionInfo[] memory result = new TransactionInfo[](count) */\n      swap1\n      pop\n        /* \"contracts/TransactionHistory.sol\":4033:4034  0 */\n      0x00\n        /* \"contracts/TransactionHistory.sol\":4025:4034  count = 0 */\n      swap2\n      pop\n        /* \"contracts/TransactionHistory.sol\":4050:4056  uint i */\n      0x00\n        /* \"contracts/TransactionHistory.sol\":4045:4401  for (uint i = 0; i < transactionInfoArray.length; i++) {... */\n    tag_268:\n        /* \"contracts/TransactionHistory.sol\":4066:4086  transactionInfoArray */\n      0x02\n        /* \"contracts/TransactionHistory.sol\":4066:4093  transactionInfoArray.length */\n      dup1\n      sload\n      swap1\n      pop\n        /* \"contracts/TransactionHistory.sol\":4062:4063  i */\n      dup2\n        /* \"contracts/TransactionHistory.sol\":4062:4093  i < transactionInfoArray.length */\n      lt\n        /* \"contracts/TransactionHistory.sol\":4045:4401  for (uint i = 0; i < transactionInfoArray.length; i++) {... */\n      iszero\n      tag_269\n      jumpi\n        /* \"contracts/TransactionHistory.sol\":4213:4224  _campaignId */\n      dup5\n        /* \"contracts/TransactionHistory.sol\":4196:4225  abi.encodePacked(_campaignId) */\n      add(0x20, mload(0x40))\n      tag_271\n      swap2\n      swap1\n      tag_76\n      jump\t// in\n    tag_271:\n      mload(0x40)\n      0x20\n      dup2\n      dup4\n      sub\n      sub\n      dup2\n      mstore\n      swap1\n      0x40\n      mstore\n        /* \"contracts/TransactionHistory.sol\":4186:4226  keccak256(abi.encodePacked(_campaignId)) */\n      dup1\n      mload\n      swap1\n      0x20\n      add\n      keccak256\n        /* \"contracts/TransactionHistory.sol\":4146:4166  transactionInfoArray */\n      0x02\n        /* \"contracts/TransactionHistory.sol\":4167:4168  i */\n      dup3\n        /* \"contracts/TransactionHistory.sol\":4146:4169  transactionInfoArray[i] */\n      dup2\n      sload\n      dup2\n      lt\n      tag_272\n      jumpi\n      tag_273\n      tag_71\n      jump\t// in\n    tag_273:\n    tag_272:\n      swap1\n      0x00\n      mstore\n      keccak256(0x00, 0x20)\n      swap1\n      0x08\n      mul\n      add\n        /* \"contracts/TransactionHistory.sol\":4146:4180  transactionInfoArray[i].campaignId */\n      0x01\n      add\n        /* \"contracts/TransactionHistory.sol\":4129:4181  abi.encodePacked(transactionInfoArray[i].campaignId) */\n      add(0x20, mload(0x40))\n      tag_275\n      swap2\n      swap1\n      tag_81\n      jump\t// in\n    tag_275:\n      mload(0x40)\n      0x20\n      dup2\n      dup4\n      sub\n      sub\n      dup2\n      mstore\n      swap1\n      0x40\n      mstore\n        /* \"contracts/TransactionHistory.sol\":4119:4182  keccak256(abi.encodePacked(transactionInfoArray[i].campaignId)) */\n      dup1\n      mload\n      swap1\n      0x20\n      add\n      keccak256\n        /* \"contracts/TransactionHistory.sol\":4119:4226  keccak256(abi.encodePacked(transactionInfoArray[i].campaignId)) == keccak256(abi.encodePacked(_campaignId)) */\n      eq\n        /* \"contracts/TransactionHistory.sol\":4119:4288  keccak256(abi.encodePacked(transactionInfoArray[i].campaignId)) == keccak256(abi.encodePacked(_campaignId))... */\n      dup1\n      iszero\n      tag_276\n      jumpi\n      pop\n        /* \"contracts/TransactionHistory.sol\":4283:4288  false */\n      0x00\n        /* \"contracts/TransactionHistory.sol\":4247:4288  transactionInfoArray[i].isRefund == false */\n      iszero\n      iszero\n        /* \"contracts/TransactionHistory.sol\":4247:4267  transactionInfoArray */\n      0x02\n        /* \"contracts/TransactionHistory.sol\":4268:4269  i */\n      dup3\n        /* \"contracts/TransactionHistory.sol\":4247:4270  transactionInfoArray[i] */\n      dup2\n      sload\n      dup2\n      lt\n      tag_277\n      jumpi\n      tag_278\n      tag_71\n      jump\t// in\n    tag_278:\n    tag_277:\n      swap1\n      0x00\n      mstore\n      keccak256(0x00, 0x20)\n      swap1\n      0x08\n      mul\n      add\n        /* \"contracts/TransactionHistory.sol\":4247:4279  transactionInfoArray[i].isRefund */\n      0x06\n      add\n      0x00\n      swap1\n      sload\n      swap1\n      0x0100\n      exp\n      swap1\n      div\n      0xff\n      and\n        /* \"contracts/TransactionHistory.sol\":4247:4288  transactionInfoArray[i].isRefund == false */\n      iszero\n      iszero\n      eq\n        /* \"contracts/TransactionHistory.sol\":4119:4288  keccak256(abi.encodePacked(transactionInfoArray[i].campaignId)) == keccak256(abi.encodePacked(_campaignId))... */\n    tag_276:\n        /* \"contracts/TransactionHistory.sol\":4115:4390  if (keccak256(abi.encodePacked(transactionInfoArray[i].campaignId)) == keccak256(abi.encodePacked(_campaignId))... */\n      iszero\n      tag_280\n      jumpi\n        /* \"contracts/TransactionHistory.sol\":4325:4345  transactionInfoArray */\n      0x02\n        /* \"contracts/TransactionHistory.sol\":4346:4347  i */\n      dup2\n        /* \"contracts/TransactionHistory.sol\":4325:4348  transactionInfoArray[i] */\n      dup2\n      sload\n      dup2\n      lt\n      tag_281\n      jumpi\n      tag_282\n      tag_71\n      jump\t// in\n    tag_282:\n    tag_281:\n      swap1\n      0x00\n      mstore\n      keccak256(0x00, 0x20)\n      swap1\n      0x08\n      mul\n      add\n        /* \"contracts/TransactionHistory.sol\":4309:4348  result[count] = transactionInfoArray[i] */\n      mload(0x40)\n      dup1\n      0x0100\n      add\n      0x40\n      mstore\n      swap1\n      dup2\n      0x00\n      dup3\n      add\n      sload\n      dup2\n      mstore\n      0x20\n      add\n      0x01\n      dup3\n      add\n      dup1\n      sload\n      tag_284\n      swap1\n      tag_99\n      jump\t// in\n    tag_284:\n      dup1\n      0x1f\n      add\n      0x20\n      dup1\n      swap2\n      div\n      mul\n      0x20\n      add\n      mload(0x40)\n      swap1\n      dup2\n      add\n      0x40\n      mstore\n      dup1\n      swap3\n      swap2\n      swap1\n      dup2\n      dup2\n      mstore\n      0x20\n      add\n      dup3\n      dup1\n      sload\n      tag_285\n      swap1\n      tag_99\n      jump\t// in\n    tag_285:\n      dup1\n      iszero\n      tag_286\n      jumpi\n      dup1\n      0x1f\n      lt\n      tag_287\n      jumpi\n      0x0100\n      dup1\n      dup4\n      sload\n      div\n      mul\n      dup4\n      mstore\n      swap2\n      0x20\n      add\n      swap2\n      jump(tag_286)\n    tag_287:\n      dup3\n      add\n      swap2\n      swap1\n      0x00\n      mstore\n      keccak256(0x00, 0x20)\n      swap1\n    tag_288:\n      dup2\n      sload\n      dup2\n      mstore\n      swap1\n      0x01\n      add\n      swap1\n      0x20\n      add\n      dup1\n      dup4\n      gt\n      tag_288\n      jumpi\n      dup3\n      swap1\n      sub\n      0x1f\n      and\n      dup3\n      add\n      swap2\n    tag_286:\n      pop\n      pop\n      pop\n      pop\n      pop\n      dup2\n      mstore\n      0x20\n      add\n      0x02\n      dup3\n      add\n      dup1\n      sload\n      tag_289\n      swap1\n      tag_99\n      jump\t// in\n    tag_289:\n      dup1\n      0x1f\n      add\n      0x20\n      dup1\n      swap2\n      div\n      mul\n      0x20\n      add\n      mload(0x40)\n      swap1\n      dup2\n      add\n      0x40\n      mstore\n      dup1\n      swap3\n      swap2\n      swap1\n      dup2\n      dup2\n      mstore\n      0x20\n      add\n      dup3\n      dup1\n      sload\n      tag_290\n      swap1\n      tag_99\n      jump\t// in\n    tag_290:\n      dup1\n      iszero\n      tag_291\n      jumpi\n      dup1\n      0x1f\n      lt\n      tag_292\n      jumpi\n      0x0100\n      dup1\n      dup4\n      sload\n      div\n      mul\n      dup4\n      mstore\n      swap2\n      0x20\n      add\n      swap2\n      jump(tag_291)\n    tag_292:\n      dup3\n      add\n      swap2\n      swap1\n      0x00\n      mstore\n      keccak256(0x00, 0x20)\n      swap1\n    tag_293:\n      dup2\n      sload\n      dup2\n      mstore\n      swap1\n      0x01\n      add\n      swap1\n      0x20\n      add\n      dup1\n      dup4\n      gt\n      tag_293\n      jumpi\n      dup3\n      swap1\n      sub\n      0x1f\n      and\n      dup3\n      add\n      swap2\n    tag_291:\n      pop\n      pop\n      pop\n      pop\n      pop\n      dup2\n      mstore\n      0x20\n      add\n      0x03\n      dup3\n      add\n      dup1\n      sload\n      tag_294\n      swap1\n      tag_99\n      jump\t// in\n    tag_294:\n      dup1\n      0x1f\n      add\n      0x20\n      dup1\n      swap2\n      div\n      mul\n      0x20\n      add\n      mload(0x40)\n      swap1\n      dup2\n      add\n      0x40\n      mstore\n      dup1\n      swap3\n      swap2\n      swap1\n      dup2\n      dup2\n      mstore\n      0x20\n      add\n      dup3\n      dup1\n      sload\n      tag_295\n      swap1\n      tag_99\n      jump\t// in\n    tag_295:\n      dup1\n      iszero\n      tag_296\n      jumpi\n      dup1\n      0x1f\n      lt\n      tag_297\n      jumpi\n      0x0100\n      dup1\n      dup4\n      sload\n      div\n      mul\n      dup4\n      mstore\n      swap2\n      0x20\n      add\n      swap2\n      jump(tag_296)\n    tag_297:\n      dup3\n      add\n      swap2\n      swap1\n      0x00\n      mstore\n      keccak256(0x00, 0x20)\n      swap1\n    tag_298:\n      dup2\n      sload\n      dup2\n      mstore\n      swap1\n      0x01\n      add\n      swap1\n      0x20\n      add\n      dup1\n      dup4\n      gt\n      tag_298\n      jumpi\n      dup3\n      swap1\n      sub\n      0x1f\n      and\n      dup3\n      add\n      swap2\n    tag_296:\n      pop\n      pop\n      pop\n      pop\n      pop\n      dup2\n      mstore\n      0x20\n      add\n      0x04\n      dup3\n      add\n      0x00\n      swap1\n      sload\n      swap1\n      0x0100\n      exp\n      swap1\n      div\n      0xffffffffffffffffffffffffffffffffffffffff\n      and\n      0xffffffffffffffffffffffffffffffffffffffff\n      and\n      0xffffffffffffffffffffffffffffffffffffffff\n      and\n      dup2\n      mstore\n      0x20\n      add\n      0x05\n      dup3\n      add\n      sload\n      dup2\n      mstore\n      0x20\n      add\n      0x06\n      dup3\n      add\n      0x00\n      swap1\n      sload\n      swap1\n      0x0100\n      exp\n      swap1\n      div\n      0xff\n      and\n      iszero\n      iszero\n      iszero\n      iszero\n      dup2\n      mstore\n      0x20\n      add\n      0x07\n      dup3\n      add\n      dup1\n      sload\n      tag_299\n      swap1\n      tag_99\n      jump\t// in\n    tag_299:\n      dup1\n      0x1f\n      add\n      0x20\n      dup1\n      swap2\n      div\n      mul\n      0x20\n      add\n      mload(0x40)\n      swap1\n      dup2\n      add\n      0x40\n      mstore\n      dup1\n      swap3\n      swap2\n      swap1\n      dup2\n      dup2\n      mstore\n      0x20\n      add\n      dup3\n      dup1\n      sload\n      tag_300\n      swap1\n      tag_99\n      jump\t// in\n    tag_300:\n      dup1\n      iszero\n      tag_301\n      jumpi\n      dup1\n      0x1f\n      lt\n      tag_302\n      jumpi\n      0x0100\n      dup1\n      dup4\n      sload\n      div\n      mul\n      dup4\n      mstore\n      swap2\n      0x20\n      add\n      swap2\n      jump(tag_301)\n    tag_302:\n      dup3\n      add\n      swap2\n      swap1\n      0x00\n      mstore\n      keccak256(0x00, 0x20)\n      swap1\n    tag_303:\n      dup2\n      sload\n      dup2\n      mstore\n      swap1\n      0x01\n      add\n      swap1\n      0x20\n      add\n      dup1\n      dup4\n      gt\n      tag_303\n      jumpi\n      dup3\n      swap1\n      sub\n      0x1f\n      and\n      dup3\n      add\n      swap2\n    tag_301:\n      pop\n      pop\n      pop\n      pop\n      pop\n      dup2\n      mstore\n      pop\n      pop\n        /* \"contracts/TransactionHistory.sol\":4309:4315  result */\n      dup3\n        /* \"contracts/TransactionHistory.sol\":4316:4321  count */\n      dup5\n        /* \"contracts/TransactionHistory.sol\":4309:4322  result[count] */\n      dup2\n      mload\n      dup2\n      lt\n      tag_304\n      jumpi\n      tag_305\n      tag_71\n      jump\t// in\n    tag_305:\n    tag_304:\n      0x20\n      mul\n      0x20\n      add\n      add\n        /* \"contracts/TransactionHistory.sol\":4309:4348  result[count] = transactionInfoArray[i] */\n      dup2\n      swap1\n      mstore\n      pop\n        /* \"contracts/TransactionHistory.sol\":4367:4374  count++ */\n      dup3\n      dup1\n      tag_306\n      swap1\n      tag_130\n      jump\t// in\n    tag_306:\n      swap4\n      pop\n      pop\n        /* \"contracts/TransactionHistory.sol\":4115:4390  if (keccak256(abi.encodePacked(transactionInfoArray[i].campaignId)) == keccak256(abi.encodePacked(_campaignId))... */\n    tag_280:\n        /* \"contracts/TransactionHistory.sol\":4095:4098  i++ */\n      dup1\n      dup1\n      0x01\n      add\n      swap2\n      pop\n      pop\n        /* \"contracts/TransactionHistory.sol\":4045:4401  for (uint i = 0; i < transactionInfoArray.length; i++) {... */\n      jump(tag_268)\n    tag_269:\n      pop\n        /* \"contracts/TransactionHistory.sol\":4420:4426  result */\n      dup1\n        /* \"contracts/TransactionHistory.sol\":4413:4426  return result */\n      swap3\n      pop\n      pop\n      pop\n        /* \"contracts/TransactionHistory.sol\":3540:4434  function getTransactionHistoryByCampaignIdAndRefund(string memory _campaignId) external view returns (TransactionInfo[] memory) {... */\n      swap2\n      swap1\n      pop\n      jump\t// out\n        /* \"contracts/TransactionHistory.sol\":4808:5608  function getDonateByUser(string memory _donatorId) external view returns (TransactionInfo[] memory) {... */\n    tag_58:\n        /* \"contracts/TransactionHistory.sol\":4882:4906  TransactionInfo[] memory */\n      0x60\n        /* \"contracts/TransactionHistory.sol\":4919:4929  uint count */\n      0x00\n        /* \"contracts/TransactionHistory.sol\":4949:4955  uint i */\n      dup1\n        /* \"contracts/TransactionHistory.sol\":4944:5178  for (uint i = 0; i < transactionInfoArray.length; i++) {... */\n    tag_308:\n        /* \"contracts/TransactionHistory.sol\":4965:4985  transactionInfoArray */\n      0x02\n        /* \"contracts/TransactionHistory.sol\":4965:4992  transactionInfoArray.length */\n      dup1\n      sload\n      swap1\n      pop\n        /* \"contracts/TransactionHistory.sol\":4961:4962  i */\n      dup2\n        /* \"contracts/TransactionHistory.sol\":4961:4992  i < transactionInfoArray.length */\n      lt\n        /* \"contracts/TransactionHistory.sol\":4944:5178  for (uint i = 0; i < transactionInfoArray.length; i++) {... */\n      iszero\n      tag_309\n      jumpi\n        /* \"contracts/TransactionHistory.sol\":5111:5121  _donatorId */\n      dup4\n        /* \"contracts/TransactionHistory.sol\":5094:5122  abi.encodePacked(_donatorId) */\n      add(0x20, mload(0x40))\n      tag_311\n      swap2\n      swap1\n      tag_76\n      jump\t// in\n    tag_311:\n      mload(0x40)\n      0x20\n      dup2\n      dup4\n      sub\n      sub\n      dup2\n      mstore\n      swap1\n      0x40\n      mstore\n        /* \"contracts/TransactionHistory.sol\":5084:5123  keccak256(abi.encodePacked(_donatorId)) */\n      dup1\n      mload\n      swap1\n      0x20\n      add\n      keccak256\n        /* \"contracts/TransactionHistory.sol\":5045:5065  transactionInfoArray */\n      0x02\n        /* \"contracts/TransactionHistory.sol\":5066:5067  i */\n      dup3\n        /* \"contracts/TransactionHistory.sol\":5045:5068  transactionInfoArray[i] */\n      dup2\n      sload\n      dup2\n      lt\n      tag_312\n      jumpi\n      tag_313\n      tag_71\n      jump\t// in\n    tag_313:\n    tag_312:\n      swap1\n      0x00\n      mstore\n      keccak256(0x00, 0x20)\n      swap1\n      0x08\n      mul\n      add\n        /* \"contracts/TransactionHistory.sol\":5045:5078  transactionInfoArray[i].donatorId */\n      0x03\n      add\n        /* \"contracts/TransactionHistory.sol\":5028:5079  abi.encodePacked(transactionInfoArray[i].donatorId) */\n      add(0x20, mload(0x40))\n      tag_315\n      swap2\n      swap1\n      tag_81\n      jump\t// in\n    tag_315:\n      mload(0x40)\n      0x20\n      dup2\n      dup4\n      sub\n      sub\n      dup2\n      mstore\n      swap1\n      0x40\n      mstore\n        /* \"contracts/TransactionHistory.sol\":5018:5080  keccak256(abi.encodePacked(transactionInfoArray[i].donatorId)) */\n      dup1\n      mload\n      swap1\n      0x20\n      add\n      keccak256\n        /* \"contracts/TransactionHistory.sol\":5018:5123  keccak256(abi.encodePacked(transactionInfoArray[i].donatorId)) == keccak256(abi.encodePacked(_donatorId)) */\n      sub\n        /* \"contracts/TransactionHistory.sol\":5014:5167  if (keccak256(abi.encodePacked(transactionInfoArray[i].donatorId)) == keccak256(abi.encodePacked(_donatorId))) {... */\n      tag_316\n      jumpi\n        /* \"contracts/TransactionHistory.sol\":5144:5151  count++ */\n      dup2\n      dup1\n      tag_317\n      swap1\n      tag_130\n      jump\t// in\n    tag_317:\n      swap3\n      pop\n      pop\n        /* \"contracts/TransactionHistory.sol\":5014:5167  if (keccak256(abi.encodePacked(transactionInfoArray[i].donatorId)) == keccak256(abi.encodePacked(_donatorId))) {... */\n    tag_316:\n        /* \"contracts/TransactionHistory.sol\":4994:4997  i++ */\n      dup1\n      dup1\n      0x01\n      add\n      swap2\n      pop\n      pop\n        /* \"contracts/TransactionHistory.sol\":4944:5178  for (uint i = 0; i < transactionInfoArray.length; i++) {... */\n      jump(tag_308)\n    tag_309:\n      pop\n        /* \"contracts/TransactionHistory.sol\":5190:5221  TransactionInfo[] memory result */\n      0x00\n        /* \"contracts/TransactionHistory.sol\":5246:5251  count */\n      dup2\n        /* \"contracts/TransactionHistory.sol\":5224:5252  new TransactionInfo[](count) */\n      0xffffffffffffffff\n      dup2\n      gt\n      iszero\n      tag_318\n      jumpi\n      tag_319\n      tag_133\n      jump\t// in\n    tag_319:\n    tag_318:\n      mload(0x40)\n      swap1\n      dup1\n      dup3\n      mstore\n      dup1\n      0x20\n      mul\n      0x20\n      add\n      dup3\n      add\n      0x40\n      mstore\n      dup1\n      iszero\n      tag_320\n      jumpi\n      dup2\n      0x20\n      add\n    tag_321:\n      tag_322\n      tag_89\n      jump\t// in\n    tag_322:\n      dup2\n      mstore\n      0x20\n      add\n      swap1\n      0x01\n      swap1\n      sub\n      swap1\n      dup2\n      tag_321\n      jumpi\n      swap1\n      pop\n    tag_320:\n      pop\n        /* \"contracts/TransactionHistory.sol\":5190:5252  TransactionInfo[] memory result = new TransactionInfo[](count) */\n      swap1\n      pop\n        /* \"contracts/TransactionHistory.sol\":5271:5272  0 */\n      0x00\n        /* \"contracts/TransactionHistory.sol\":5263:5272  count = 0 */\n      swap2\n      pop\n        /* \"contracts/TransactionHistory.sol\":5288:5294  uint i */\n      0x00\n        /* \"contracts/TransactionHistory.sol\":5283:5575  for (uint i = 0; i < transactionInfoArray.length; i++) {... */\n    tag_323:\n        /* \"contracts/TransactionHistory.sol\":5304:5324  transactionInfoArray */\n      0x02\n        /* \"contracts/TransactionHistory.sol\":5304:5331  transactionInfoArray.length */\n      dup1\n      sload\n      swap1\n      pop\n        /* \"contracts/TransactionHistory.sol\":5300:5301  i */\n      dup2\n        /* \"contracts/TransactionHistory.sol\":5300:5331  i < transactionInfoArray.length */\n      lt\n        /* \"contracts/TransactionHistory.sol\":5283:5575  for (uint i = 0; i < transactionInfoArray.length; i++) {... */\n      iszero\n      tag_324\n      jumpi\n        /* \"contracts/TransactionHistory.sol\":5450:5460  _donatorId */\n      dup5\n        /* \"contracts/TransactionHistory.sol\":5433:5461  abi.encodePacked(_donatorId) */\n      add(0x20, mload(0x40))\n      tag_326\n      swap2\n      swap1\n      tag_76\n      jump\t// in\n    tag_326:\n      mload(0x40)\n      0x20\n      dup2\n      dup4\n      sub\n      sub\n      dup2\n      mstore\n      swap1\n      0x40\n      mstore\n        /* \"contracts/TransactionHistory.sol\":5423:5462  keccak256(abi.encodePacked(_donatorId)) */\n      dup1\n      mload\n      swap1\n      0x20\n      add\n      keccak256\n        /* \"contracts/TransactionHistory.sol\":5384:5404  transactionInfoArray */\n      0x02\n        /* \"contracts/TransactionHistory.sol\":5405:5406  i */\n      dup3\n        /* \"contracts/TransactionHistory.sol\":5384:5407  transactionInfoArray[i] */\n      dup2\n      sload\n      dup2\n      lt\n      tag_327\n      jumpi\n      tag_328\n      tag_71\n      jump\t// in\n    tag_328:\n    tag_327:\n      swap1\n      0x00\n      mstore\n      keccak256(0x00, 0x20)\n      swap1\n      0x08\n      mul\n      add\n        /* \"contracts/TransactionHistory.sol\":5384:5417  transactionInfoArray[i].donatorId */\n      0x03\n      add\n        /* \"contracts/TransactionHistory.sol\":5367:5418  abi.encodePacked(transactionInfoArray[i].donatorId) */\n      add(0x20, mload(0x40))\n      tag_330\n      swap2\n      swap1\n      tag_81\n      jump\t// in\n    tag_330:\n      mload(0x40)\n      0x20\n      dup2\n      dup4\n      sub\n      sub\n      dup2\n      mstore\n      swap1\n      0x40\n      mstore\n        /* \"contracts/TransactionHistory.sol\":5357:5419  keccak256(abi.encodePacked(transactionInfoArray[i].donatorId)) */\n      dup1\n      mload\n      swap1\n      0x20\n      add\n      keccak256\n        /* \"contracts/TransactionHistory.sol\":5357:5462  keccak256(abi.encodePacked(transactionInfoArray[i].donatorId)) == keccak256(abi.encodePacked(_donatorId)) */\n      sub\n        /* \"contracts/TransactionHistory.sol\":5353:5564  if (keccak256(abi.encodePacked(transactionInfoArray[i].donatorId)) == keccak256(abi.encodePacked(_donatorId))) {... */\n      tag_331\n      jumpi\n        /* \"contracts/TransactionHistory.sol\":5499:5519  transactionInfoArray */\n      0x02\n        /* \"contracts/TransactionHistory.sol\":5520:5521  i */\n      dup2\n        /* \"contracts/TransactionHistory.sol\":5499:5522  transactionInfoArray[i] */\n      dup2\n      sload\n      dup2\n      lt\n      tag_332\n      jumpi\n      tag_333\n      tag_71\n      jump\t// in\n    tag_333:\n    tag_332:\n      swap1\n      0x00\n      mstore\n      keccak256(0x00, 0x20)\n      swap1\n      0x08\n      mul\n      add\n        /* \"contracts/TransactionHistory.sol\":5483:5522  result[count] = transactionInfoArray[i] */\n      mload(0x40)\n      dup1\n      0x0100\n      add\n      0x40\n      mstore\n      swap1\n      dup2\n      0x00\n      dup3\n      add\n      sload\n      dup2\n      mstore\n      0x20\n      add\n      0x01\n      dup3\n      add\n      dup1\n      sload\n      tag_335\n      swap1\n      tag_99\n      jump\t// in\n    tag_335:\n      dup1\n      0x1f\n      add\n      0x20\n      dup1\n      swap2\n      div\n      mul\n      0x20\n      add\n      mload(0x40)\n      swap1\n      dup2\n      add\n      0x40\n      mstore\n      dup1\n      swap3\n      swap2\n      swap1\n      dup2\n      dup2\n      mstore\n      0x20\n      add\n      dup3\n      dup1\n      sload\n      tag_336\n      swap1\n      tag_99\n      jump\t// in\n    tag_336:\n      dup1\n      iszero\n      tag_337\n      jumpi\n      dup1\n      0x1f\n      lt\n      tag_338\n      jumpi\n      0x0100\n      dup1\n      dup4\n      sload\n      div\n      mul\n      dup4\n      mstore\n      swap2\n      0x20\n      add\n      swap2\n      jump(tag_337)\n    tag_338:\n      dup3\n      add\n      swap2\n      swap1\n      0x00\n      mstore\n      keccak256(0x00, 0x20)\n      swap1\n    tag_339:\n      dup2\n      sload\n      dup2\n      mstore\n      swap1\n      0x01\n      add\n      swap1\n      0x20\n      add\n      dup1\n      dup4\n      gt\n      tag_339\n      jumpi\n      dup3\n      swap1\n      sub\n      0x1f\n      and\n      dup3\n      add\n      swap2\n    tag_337:\n      pop\n      pop\n      pop\n      pop\n      pop\n      dup2\n      mstore\n      0x20\n      add\n      0x02\n      dup3\n      add\n      dup1\n      sload\n      tag_340\n      swap1\n      tag_99\n      jump\t// in\n    tag_340:\n      dup1\n      0x1f\n      add\n      0x20\n      dup1\n      swap2\n      div\n      mul\n      0x20\n      add\n      mload(0x40)\n      swap1\n      dup2\n      add\n      0x40\n      mstore\n      dup1\n      swap3\n      swap2\n      swap1\n      dup2\n      dup2\n      mstore\n      0x20\n      add\n      dup3\n      dup1\n      sload\n      tag_341\n      swap1\n      tag_99\n      jump\t// in\n    tag_341:\n      dup1\n      iszero\n      tag_342\n      jumpi\n      dup1\n      0x1f\n      lt\n      tag_343\n      jumpi\n      0x0100\n      dup1\n      dup4\n      sload\n      div\n      mul\n      dup4\n      mstore\n      swap2\n      0x20\n      add\n      swap2\n      jump(tag_342)\n    tag_343:\n      dup3\n      add\n      swap2\n      swap1\n      0x00\n      mstore\n      keccak256(0x00, 0x20)\n      swap1\n    tag_344:\n      dup2\n      sload\n      dup2\n      mstore\n      swap1\n      0x01\n      add\n      swap1\n      0x20\n      add\n      dup1\n      dup4\n      gt\n      tag_344\n      jumpi\n      dup3\n      swap1\n      sub\n      0x1f\n      and\n      dup3\n      add\n      swap2\n    tag_342:\n      pop\n      pop\n      pop\n      pop\n      pop\n      dup2\n      mstore\n      0x20\n      add\n      0x03\n      dup3\n      add\n      dup1\n      sload\n      tag_345\n      swap1\n      tag_99\n      jump\t// in\n    tag_345:\n      dup1\n      0x1f\n      add\n      0x20\n      dup1\n      swap2\n      div\n      mul\n      0x20\n      add\n      mload(0x40)\n      swap1\n      dup2\n      add\n      0x40\n      mstore\n      dup1\n      swap3\n      swap2\n      swap1\n      dup2\n      dup2\n      mstore\n      0x20\n      add\n      dup3\n      dup1\n      sload\n      tag_346\n      swap1\n      tag_99\n      jump\t// in\n    tag_346:\n      dup1\n      iszero\n      tag_347\n      jumpi\n      dup1\n      0x1f\n      lt\n      tag_348\n      jumpi\n      0x0100\n      dup1\n      dup4\n      sload\n      div\n      mul\n      dup4\n      mstore\n      swap2\n      0x20\n      add\n      swap2\n      jump(tag_347)\n    tag_348:\n      dup3\n      add\n      swap2\n      swap1\n      0x00\n      mstore\n      keccak256(0x00, 0x20)\n      swap1\n    tag_349:\n      dup2\n      sload\n      dup2\n      mstore\n      swap1\n      0x01\n      add\n      swap1\n      0x20\n      add\n      dup1\n      dup4\n      gt\n      tag_349\n      jumpi\n      dup3\n      swap1\n      sub\n      0x1f\n      and\n      dup3\n      add\n      swap2\n    tag_347:\n      pop\n      pop\n      pop\n      pop\n      pop\n      dup2\n      mstore\n      0x20\n      add\n      0x04\n      dup3\n      add\n      0x00\n      swap1\n      sload\n      swap1\n      0x0100\n      exp\n      swap1\n      div\n      0xffffffffffffffffffffffffffffffffffffffff\n      and\n      0xffffffffffffffffffffffffffffffffffffffff\n      and\n      0xffffffffffffffffffffffffffffffffffffffff\n      and\n      dup2\n      mstore\n      0x20\n      add\n      0x05\n      dup3\n      add\n      sload\n      dup2\n      mstore\n      0x20\n      add\n      0x06\n      dup3\n      add\n      0x00\n      swap1\n      sload\n      swap1\n      0x0100\n      exp\n      swap1\n      div\n      0xff\n      and\n      iszero\n      iszero\n      iszero\n      iszero\n      dup2\n      mstore\n      0x20\n      add\n      0x07\n      dup3\n      add\n      dup1\n      sload\n      tag_350\n      swap1\n      tag_99\n      jump\t// in\n    tag_350:\n      dup1\n      0x1f\n      add\n      0x20\n      dup1\n      swap2\n      div\n      mul\n      0x20\n      add\n      mload(0x40)\n      swap1\n      dup2\n      add\n      0x40\n      mstore\n      dup1\n      swap3\n      swap2\n      swap1\n      dup2\n      dup2\n      mstore\n      0x20\n      add\n      dup3\n      dup1\n      sload\n      tag_351\n      swap1\n      tag_99\n      jump\t// in\n    tag_351:\n      dup1\n      iszero\n      tag_352\n      jumpi\n      dup1\n      0x1f\n      lt\n      tag_353\n      jumpi\n      0x0100\n      dup1\n      dup4\n      sload\n      div\n      mul\n      dup4\n      mstore\n      swap2\n      0x20\n      add\n      swap2\n      jump(tag_352)\n    tag_353:\n      dup3\n      add\n      swap2\n      swap1\n      0x00\n      mstore\n      keccak256(0x00, 0x20)\n      swap1\n    tag_354:\n      dup2\n      sload\n      dup2\n      mstore\n      swap1\n      0x01\n      add\n      swap1\n      0x20\n      add\n      dup1\n      dup4\n      gt\n      tag_354\n      jumpi\n      dup3\n      swap1\n      sub\n      0x1f\n      and\n      dup3\n      add\n      swap2\n    tag_352:\n      pop\n      pop\n      pop\n      pop\n      pop\n      dup2\n      mstore\n      pop\n      pop\n        /* \"contracts/TransactionHistory.sol\":5483:5489  result */\n      dup3\n        /* \"contracts/TransactionHistory.sol\":5490:5495  count */\n      dup5\n        /* \"contracts/TransactionHistory.sol\":5483:5496  result[count] */\n      dup2\n      mload\n      dup2\n      lt\n      tag_355\n      jumpi\n      tag_356\n      tag_71\n      jump\t// in\n    tag_356:\n    tag_355:\n      0x20\n      mul\n      0x20\n      add\n      add\n        /* \"contracts/TransactionHistory.sol\":5483:5522  result[count] = transactionInfoArray[i] */\n      dup2\n      swap1\n      mstore\n      pop\n        /* \"contracts/TransactionHistory.sol\":5541:5548  count++ */\n      dup3\n      dup1\n      tag_357\n      swap1\n      tag_130\n      jump\t// in\n    tag_357:\n      swap4\n      pop\n      pop\n        /* \"contracts/TransactionHistory.sol\":5353:5564  if (keccak256(abi.encodePacked(transactionInfoArray[i].donatorId)) == keccak256(abi.encodePacked(_donatorId))) {... */\n    tag_331:\n        /* \"contracts/TransactionHistory.sol\":5333:5336  i++ */\n      dup1\n      dup1\n      0x01\n      add\n      swap2\n      pop\n      pop\n        /* \"contracts/TransactionHistory.sol\":5283:5575  for (uint i = 0; i < transactionInfoArray.length; i++) {... */\n      jump(tag_323)\n    tag_324:\n      pop\n        /* \"contracts/TransactionHistory.sol\":5594:5600  result */\n      dup1\n        /* \"contracts/TransactionHistory.sol\":5587:5600  return result */\n      swap3\n      pop\n      pop\n      pop\n        /* \"contracts/TransactionHistory.sol\":4808:5608  function getDonateByUser(string memory _donatorId) external view returns (TransactionInfo[] memory) {... */\n      swap2\n      swap1\n      pop\n      jump\t// out\n        /* \"contracts/TransactionHistory.sol\":103:133  address public deployerAddress */\n    tag_61:\n      0x00\n      dup1\n      sload\n      swap1\n      0x0100\n      exp\n      swap1\n      div\n      0xffffffffffffffffffffffffffffffffffffffff\n      and\n      dup2\n      jump\t// out\n    tag_89:\n      mload(0x40)\n      dup1\n      0x0100\n      add\n      0x40\n      mstore\n      dup1\n      0x00\n      dup2\n      mstore\n      0x20\n      add\n      0x60\n      dup2\n      mstore\n      0x20\n      add\n      0x60\n      dup2\n      mstore\n      0x20\n      add\n      0x60\n      dup2\n      mstore\n      0x20\n      add\n      and(0xffffffffffffffffffffffffffffffffffffffff, 0x00)\n      dup2\n      mstore\n      0x20\n      add\n      0x00\n      dup2\n      mstore\n      0x20\n      add\n      iszero(iszero(0x00))\n      dup2\n      mstore\n      0x20\n      add\n      0x60\n      dup2\n      mstore\n      pop\n      swap1\n      jump\t// out\n        /* \"#utility.yul\":7:82   */\n    tag_358:\n        /* \"#utility.yul\":40:46   */\n      0x00\n        /* \"#utility.yul\":73:75   */\n      0x40\n        /* \"#utility.yul\":67:76   */\n      mload\n        /* \"#utility.yul\":57:76   */\n      swap1\n      pop\n        /* \"#utility.yul\":7:82   */\n      swap1\n      jump\t// out\n        /* \"#utility.yul\":88:205   */\n    tag_359:\n        /* \"#utility.yul\":197:198   */\n      0x00\n        /* \"#utility.yul\":194:195   */\n      dup1\n        /* \"#utility.yul\":187:199   */\n      revert\n        /* \"#utility.yul\":211:328   */\n    tag_360:\n        /* \"#utility.yul\":320:321   */\n      0x00\n        /* \"#utility.yul\":317:318   */\n      dup1\n        /* \"#utility.yul\":310:322   */\n      revert\n        /* \"#utility.yul\":334:460   */\n    tag_361:\n        /* \"#utility.yul\":371:378   */\n      0x00\n        /* \"#utility.yul\":411:453   */\n      0xffffffffffffffffffffffffffffffffffffffff\n        /* \"#utility.yul\":404:409   */\n      dup3\n        /* \"#utility.yul\":400:454   */\n      and\n        /* \"#utility.yul\":389:454   */\n      swap1\n      pop\n        /* \"#utility.yul\":334:460   */\n      swap2\n      swap1\n      pop\n      jump\t// out\n        /* \"#utility.yul\":466:562   */\n    tag_362:\n        /* \"#utility.yul\":503:510   */\n      0x00\n        /* \"#utility.yul\":532:556   */\n      tag_431\n        /* \"#utility.yul\":550:555   */\n      dup3\n        /* \"#utility.yul\":532:556   */\n      tag_361\n      jump\t// in\n    tag_431:\n        /* \"#utility.yul\":521:556   */\n      swap1\n      pop\n        /* \"#utility.yul\":466:562   */\n      swap2\n      swap1\n      pop\n      jump\t// out\n        /* \"#utility.yul\":568:690   */\n    tag_363:\n        /* \"#utility.yul\":641:665   */\n      tag_433\n        /* \"#utility.yul\":659:664   */\n      dup2\n        /* \"#utility.yul\":641:665   */\n      tag_362\n      jump\t// in\n    tag_433:\n        /* \"#utility.yul\":634:639   */\n      dup2\n        /* \"#utility.yul\":631:666   */\n      eq\n        /* \"#utility.yul\":621:684   */\n      tag_434\n      jumpi\n        /* \"#utility.yul\":680:681   */\n      0x00\n        /* \"#utility.yul\":677:678   */\n      dup1\n        /* \"#utility.yul\":670:682   */\n      revert\n        /* \"#utility.yul\":621:684   */\n    tag_434:\n        /* \"#utility.yul\":568:690   */\n      pop\n      jump\t// out\n        /* \"#utility.yul\":696:835   */\n    tag_364:\n        /* \"#utility.yul\":742:747   */\n      0x00\n        /* \"#utility.yul\":780:786   */\n      dup2\n        /* \"#utility.yul\":767:787   */\n      calldataload\n        /* \"#utility.yul\":758:787   */\n      swap1\n      pop\n        /* \"#utility.yul\":796:829   */\n      tag_436\n        /* \"#utility.yul\":823:828   */\n      dup2\n        /* \"#utility.yul\":796:829   */\n      tag_363\n      jump\t// in\n    tag_436:\n        /* \"#utility.yul\":696:835   */\n      swap3\n      swap2\n      pop\n      pop\n      jump\t// out\n        /* \"#utility.yul\":841:958   */\n    tag_365:\n        /* \"#utility.yul\":950:951   */\n      0x00\n        /* \"#utility.yul\":947:948   */\n      dup1\n        /* \"#utility.yul\":940:952   */\n      revert\n        /* \"#utility.yul\":964:1081   */\n    tag_366:\n        /* \"#utility.yul\":1073:1074   */\n      0x00\n        /* \"#utility.yul\":1070:1071   */\n      dup1\n        /* \"#utility.yul\":1063:1075   */\n      revert\n        /* \"#utility.yul\":1087:1189   */\n    tag_367:\n        /* \"#utility.yul\":1128:1134   */\n      0x00\n        /* \"#utility.yul\":1179:1181   */\n      0x1f\n        /* \"#utility.yul\":1175:1182   */\n      not\n        /* \"#utility.yul\":1170:1172   */\n      0x1f\n        /* \"#utility.yul\":1163:1168   */\n      dup4\n        /* \"#utility.yul\":1159:1173   */\n      add\n        /* \"#utility.yul\":1155:1183   */\n      and\n        /* \"#utility.yul\":1145:1183   */\n      swap1\n      pop\n        /* \"#utility.yul\":1087:1189   */\n      swap2\n      swap1\n      pop\n      jump\t// out\n        /* \"#utility.yul\":1195:1375   */\n    tag_133:\n        /* \"#utility.yul\":1243:1320   */\n      0x4e487b7100000000000000000000000000000000000000000000000000000000\n        /* \"#utility.yul\":1240:1241   */\n      0x00\n        /* \"#utility.yul\":1233:1321   */\n      mstore\n        /* \"#utility.yul\":1340:1344   */\n      0x41\n        /* \"#utility.yul\":1337:1338   */\n      0x04\n        /* \"#utility.yul\":1330:1345   */\n      mstore\n        /* \"#utility.yul\":1364:1368   */\n      0x24\n        /* \"#utility.yul\":1361:1362   */\n      0x00\n        /* \"#utility.yul\":1354:1369   */\n      revert\n        /* \"#utility.yul\":1381:1662   */\n    tag_368:\n        /* \"#utility.yul\":1464:1491   */\n      tag_442\n        /* \"#utility.yul\":1486:1490   */\n      dup3\n        /* \"#utility.yul\":1464:1491   */\n      tag_367\n      jump\t// in\n    tag_442:\n        /* \"#utility.yul\":1456:1462   */\n      dup2\n        /* \"#utility.yul\":1452:1492   */\n      add\n        /* \"#utility.yul\":1594:1600   */\n      dup2\n        /* \"#utility.yul\":1582:1592   */\n      dup2\n        /* \"#utility.yul\":1579:1601   */\n      lt\n        /* \"#utility.yul\":1558:1576   */\n      0xffffffffffffffff\n        /* \"#utility.yul\":1546:1556   */\n      dup3\n        /* \"#utility.yul\":1543:1577   */\n      gt\n        /* \"#utility.yul\":1540:1602   */\n      or\n        /* \"#utility.yul\":1537:1625   */\n      iszero\n      tag_443\n      jumpi\n        /* \"#utility.yul\":1605:1623   */\n      tag_444\n      tag_133\n      jump\t// in\n    tag_444:\n        /* \"#utility.yul\":1537:1625   */\n    tag_443:\n        /* \"#utility.yul\":1645:1655   */\n      dup1\n        /* \"#utility.yul\":1641:1643   */\n      0x40\n        /* \"#utility.yul\":1634:1656   */\n      mstore\n        /* \"#utility.yul\":1424:1662   */\n      pop\n        /* \"#utility.yul\":1381:1662   */\n      pop\n      pop\n      jump\t// out\n        /* \"#utility.yul\":1668:1797   */\n    tag_369:\n        /* \"#utility.yul\":1702:1708   */\n      0x00\n        /* \"#utility.yul\":1729:1749   */\n      tag_446\n      tag_358\n      jump\t// in\n    tag_446:\n        /* \"#utility.yul\":1719:1749   */\n      swap1\n      pop\n        /* \"#utility.yul\":1758:1791   */\n      tag_447\n        /* \"#utility.yul\":1786:1790   */\n      dup3\n        /* \"#utility.yul\":1778:1784   */\n      dup3\n        /* \"#utility.yul\":1758:1791   */\n      tag_368\n      jump\t// in\n    tag_447:\n        /* \"#utility.yul\":1668:1797   */\n      swap2\n      swap1\n      pop\n      jump\t// out\n        /* \"#utility.yul\":1803:2111   */\n    tag_370:\n        /* \"#utility.yul\":1865:1869   */\n      0x00\n        /* \"#utility.yul\":1955:1973   */\n      0xffffffffffffffff\n        /* \"#utility.yul\":1947:1953   */\n      dup3\n        /* \"#utility.yul\":1944:1974   */\n      gt\n        /* \"#utility.yul\":1941:1997   */\n      iszero\n      tag_449\n      jumpi\n        /* \"#utility.yul\":1977:1995   */\n      tag_450\n      tag_133\n      jump\t// in\n    tag_450:\n        /* \"#utility.yul\":1941:1997   */\n    tag_449:\n        /* \"#utility.yul\":2015:2044   */\n      tag_451\n        /* \"#utility.yul\":2037:2043   */\n      dup3\n        /* \"#utility.yul\":2015:2044   */\n      tag_367\n      jump\t// in\n    tag_451:\n        /* \"#utility.yul\":2007:2044   */\n      swap1\n      pop\n        /* \"#utility.yul\":2099:2103   */\n      0x20\n        /* \"#utility.yul\":2093:2097   */\n      dup2\n        /* \"#utility.yul\":2089:2104   */\n      add\n        /* \"#utility.yul\":2081:2104   */\n      swap1\n      pop\n        /* \"#utility.yul\":1803:2111   */\n      swap2\n      swap1\n      pop\n      jump\t// out\n        /* \"#utility.yul\":2117:2263   */\n    tag_371:\n        /* \"#utility.yul\":2214:2220   */\n      dup3\n        /* \"#utility.yul\":2209:2212   */\n      dup2\n        /* \"#utility.yul\":2204:2207   */\n      dup4\n        /* \"#utility.yul\":2191:2221   */\n      calldatacopy\n        /* \"#utility.yul\":2255:2256   */\n      0x00\n        /* \"#utility.yul\":2246:2252   */\n      dup4\n        /* \"#utility.yul\":2241:2244   */\n      dup4\n        /* \"#utility.yul\":2237:2253   */\n      add\n        /* \"#utility.yul\":2230:2257   */\n      mstore\n        /* \"#utility.yul\":2117:2263   */\n      pop\n      pop\n      pop\n      jump\t// out\n        /* \"#utility.yul\":2269:2694   */\n    tag_372:\n        /* \"#utility.yul\":2347:2352   */\n      0x00\n        /* \"#utility.yul\":2372:2438   */\n      tag_454\n        /* \"#utility.yul\":2388:2437   */\n      tag_455\n        /* \"#utility.yul\":2430:2436   */\n      dup5\n        /* \"#utility.yul\":2388:2437   */\n      tag_370\n      jump\t// in\n    tag_455:\n        /* \"#utility.yul\":2372:2438   */\n      tag_369\n      jump\t// in\n    tag_454:\n        /* \"#utility.yul\":2363:2438   */\n      swap1\n      pop\n        /* \"#utility.yul\":2461:2467   */\n      dup3\n        /* \"#utility.yul\":2454:2459   */\n      dup2\n        /* \"#utility.yul\":2447:2468   */\n      mstore\n        /* \"#utility.yul\":2499:2503   */\n      0x20\n        /* \"#utility.yul\":2492:2497   */\n      dup2\n        /* \"#utility.yul\":2488:2504   */\n      add\n        /* \"#utility.yul\":2537:2540   */\n      dup5\n        /* \"#utility.yul\":2528:2534   */\n      dup5\n        /* \"#utility.yul\":2523:2526   */\n      dup5\n        /* \"#utility.yul\":2519:2535   */\n      add\n        /* \"#utility.yul\":2516:2541   */\n      gt\n        /* \"#utility.yul\":2513:2625   */\n      iszero\n      tag_456\n      jumpi\n        /* \"#utility.yul\":2544:2623   */\n      tag_457\n      tag_366\n      jump\t// in\n    tag_457:\n        /* \"#utility.yul\":2513:2625   */\n    tag_456:\n        /* \"#utility.yul\":2634:2688   */\n      tag_458\n        /* \"#utility.yul\":2681:2687   */\n      dup5\n        /* \"#utility.yul\":2676:2679   */\n      dup3\n        /* \"#utility.yul\":2671:2674   */\n      dup6\n        /* \"#utility.yul\":2634:2688   */\n      tag_371\n      jump\t// in\n    tag_458:\n        /* \"#utility.yul\":2353:2694   */\n      pop\n        /* \"#utility.yul\":2269:2694   */\n      swap4\n      swap3\n      pop\n      pop\n      pop\n      jump\t// out\n        /* \"#utility.yul\":2714:3054   */\n    tag_373:\n        /* \"#utility.yul\":2770:2775   */\n      0x00\n        /* \"#utility.yul\":2819:2822   */\n      dup3\n        /* \"#utility.yul\":2812:2816   */\n      0x1f\n        /* \"#utility.yul\":2804:2810   */\n      dup4\n        /* \"#utility.yul\":2800:2817   */\n      add\n        /* \"#utility.yul\":2796:2823   */\n      slt\n        /* \"#utility.yul\":2786:2908   */\n      tag_460\n      jumpi\n        /* \"#utility.yul\":2827:2906   */\n      tag_461\n      tag_365\n      jump\t// in\n    tag_461:\n        /* \"#utility.yul\":2786:2908   */\n    tag_460:\n        /* \"#utility.yul\":2944:2950   */\n      dup2\n        /* \"#utility.yul\":2931:2951   */\n      calldataload\n        /* \"#utility.yul\":2969:3048   */\n      tag_462\n        /* \"#utility.yul\":3044:3047   */\n      dup5\n        /* \"#utility.yul\":3036:3042   */\n      dup3\n        /* \"#utility.yul\":3029:3033   */\n      0x20\n        /* \"#utility.yul\":3021:3027   */\n      dup7\n        /* \"#utility.yul\":3017:3034   */\n      add\n        /* \"#utility.yul\":2969:3048   */\n      tag_372\n      jump\t// in\n    tag_462:\n        /* \"#utility.yul\":2960:3048   */\n      swap2\n      pop\n        /* \"#utility.yul\":2776:3054   */\n      pop\n        /* \"#utility.yul\":2714:3054   */\n      swap3\n      swap2\n      pop\n      pop\n      jump\t// out\n        /* \"#utility.yul\":3060:3714   */\n    tag_17:\n        /* \"#utility.yul\":3138:3144   */\n      0x00\n        /* \"#utility.yul\":3146:3152   */\n      dup1\n        /* \"#utility.yul\":3195:3197   */\n      0x40\n        /* \"#utility.yul\":3183:3192   */\n      dup4\n        /* \"#utility.yul\":3174:3181   */\n      dup6\n        /* \"#utility.yul\":3170:3193   */\n      sub\n        /* \"#utility.yul\":3166:3198   */\n      slt\n        /* \"#utility.yul\":3163:3282   */\n      iszero\n      tag_464\n      jumpi\n        /* \"#utility.yul\":3201:3280   */\n      tag_465\n      tag_359\n      jump\t// in\n    tag_465:\n        /* \"#utility.yul\":3163:3282   */\n    tag_464:\n        /* \"#utility.yul\":3321:3322   */\n      0x00\n        /* \"#utility.yul\":3346:3399   */\n      tag_466\n        /* \"#utility.yul\":3391:3398   */\n      dup6\n        /* \"#utility.yul\":3382:3388   */\n      dup3\n        /* \"#utility.yul\":3371:3380   */\n      dup7\n        /* \"#utility.yul\":3367:3389   */\n      add\n        /* \"#utility.yul\":3346:3399   */\n      tag_364\n      jump\t// in\n    tag_466:\n        /* \"#utility.yul\":3336:3399   */\n      swap3\n      pop\n        /* \"#utility.yul\":3292:3409   */\n      pop\n        /* \"#utility.yul\":3476:3478   */\n      0x20\n        /* \"#utility.yul\":3465:3474   */\n      dup4\n        /* \"#utility.yul\":3461:3479   */\n      add\n        /* \"#utility.yul\":3448:3480   */\n      calldataload\n        /* \"#utility.yul\":3507:3525   */\n      0xffffffffffffffff\n        /* \"#utility.yul\":3499:3505   */\n      dup2\n        /* \"#utility.yul\":3496:3526   */\n      gt\n        /* \"#utility.yul\":3493:3610   */\n      iszero\n      tag_467\n      jumpi\n        /* \"#utility.yul\":3529:3608   */\n      tag_468\n      tag_360\n      jump\t// in\n    tag_468:\n        /* \"#utility.yul\":3493:3610   */\n    tag_467:\n        /* \"#utility.yul\":3634:3697   */\n      tag_469\n        /* \"#utility.yul\":3689:3696   */\n      dup6\n        /* \"#utility.yul\":3680:3686   */\n      dup3\n        /* \"#utility.yul\":3669:3678   */\n      dup7\n        /* \"#utility.yul\":3665:3687   */\n      add\n        /* \"#utility.yul\":3634:3697   */\n      tag_373\n      jump\t// in\n    tag_469:\n        /* \"#utility.yul\":3624:3697   */\n      swap2\n      pop\n        /* \"#utility.yul\":3419:3707   */\n      pop\n        /* \"#utility.yul\":3060:3714   */\n      swap3\n      pop\n      swap3\n      swap1\n      pop\n      jump\t// out\n        /* \"#utility.yul\":3720:3810   */\n    tag_374:\n        /* \"#utility.yul\":3754:3761   */\n      0x00\n        /* \"#utility.yul\":3797:3802   */\n      dup2\n        /* \"#utility.yul\":3790:3803   */\n      iszero\n        /* \"#utility.yul\":3783:3804   */\n      iszero\n        /* \"#utility.yul\":3772:3804   */\n      swap1\n      pop\n        /* \"#utility.yul\":3720:3810   */\n      swap2\n      swap1\n      pop\n      jump\t// out\n        /* \"#utility.yul\":3816:3925   */\n    tag_375:\n        /* \"#utility.yul\":3897:3918   */\n      tag_472\n        /* \"#utility.yul\":3912:3917   */\n      dup2\n        /* \"#utility.yul\":3897:3918   */\n      tag_374\n      jump\t// in\n    tag_472:\n        /* \"#utility.yul\":3892:3895   */\n      dup3\n        /* \"#utility.yul\":3885:3919   */\n      mstore\n        /* \"#utility.yul\":3816:3925   */\n      pop\n      pop\n      jump\t// out\n        /* \"#utility.yul\":3931:4141   */\n    tag_20:\n        /* \"#utility.yul\":4018:4022   */\n      0x00\n        /* \"#utility.yul\":4056:4058   */\n      0x20\n        /* \"#utility.yul\":4045:4054   */\n      dup3\n        /* \"#utility.yul\":4041:4059   */\n      add\n        /* \"#utility.yul\":4033:4059   */\n      swap1\n      pop\n        /* \"#utility.yul\":4069:4134   */\n      tag_474\n        /* \"#utility.yul\":4131:4132   */\n      0x00\n        /* \"#utility.yul\":4120:4129   */\n      dup4\n        /* \"#utility.yul\":4116:4133   */\n      add\n        /* \"#utility.yul\":4107:4113   */\n      dup5\n        /* \"#utility.yul\":4069:4134   */\n      tag_375\n      jump\t// in\n    tag_474:\n        /* \"#utility.yul\":3931:4141   */\n      swap3\n      swap2\n      pop\n      pop\n      jump\t// out\n        /* \"#utility.yul\":4147:4224   */\n    tag_376:\n        /* \"#utility.yul\":4184:4191   */\n      0x00\n        /* \"#utility.yul\":4213:4218   */\n      dup2\n        /* \"#utility.yul\":4202:4218   */\n      swap1\n      pop\n        /* \"#utility.yul\":4147:4224   */\n      swap2\n      swap1\n      pop\n      jump\t// out\n        /* \"#utility.yul\":4230:4352   */\n    tag_377:\n        /* \"#utility.yul\":4303:4327   */\n      tag_477\n        /* \"#utility.yul\":4321:4326   */\n      dup2\n        /* \"#utility.yul\":4303:4327   */\n      tag_376\n      jump\t// in\n    tag_477:\n        /* \"#utility.yul\":4296:4301   */\n      dup2\n        /* \"#utility.yul\":4293:4328   */\n      eq\n        /* \"#utility.yul\":4283:4346   */\n      tag_478\n      jumpi\n        /* \"#utility.yul\":4342:4343   */\n      0x00\n        /* \"#utility.yul\":4339:4340   */\n      dup1\n        /* \"#utility.yul\":4332:4344   */\n      revert\n        /* \"#utility.yul\":4283:4346   */\n    tag_478:\n        /* \"#utility.yul\":4230:4352   */\n      pop\n      jump\t// out\n        /* \"#utility.yul\":4358:4497   */\n    tag_378:\n        /* \"#utility.yul\":4404:4409   */\n      0x00\n        /* \"#utility.yul\":4442:4448   */\n      dup2\n        /* \"#utility.yul\":4429:4449   */\n      calldataload\n        /* \"#utility.yul\":4420:4449   */\n      swap1\n      pop\n        /* \"#utility.yul\":4458:4491   */\n      tag_480\n        /* \"#utility.yul\":4485:4490   */\n      dup2\n        /* \"#utility.yul\":4458:4491   */\n      tag_377\n      jump\t// in\n    tag_480:\n        /* \"#utility.yul\":4358:4497   */\n      swap3\n      swap2\n      pop\n      pop\n      jump\t// out\n        /* \"#utility.yul\":4503:6426   */\n    tag_23:\n        /* \"#utility.yul\":4656:4662   */\n      0x00\n        /* \"#utility.yul\":4664:4670   */\n      dup1\n        /* \"#utility.yul\":4672:4678   */\n      0x00\n        /* \"#utility.yul\":4680:4686   */\n      dup1\n        /* \"#utility.yul\":4688:4694   */\n      0x00\n        /* \"#utility.yul\":4696:4702   */\n      dup1\n        /* \"#utility.yul\":4704:4710   */\n      0x00\n        /* \"#utility.yul\":4753:4756   */\n      0xe0\n        /* \"#utility.yul\":4741:4750   */\n      dup9\n        /* \"#utility.yul\":4732:4739   */\n      dup11\n        /* \"#utility.yul\":4728:4751   */\n      sub\n        /* \"#utility.yul\":4724:4757   */\n      slt\n        /* \"#utility.yul\":4721:4841   */\n      iszero\n      tag_482\n      jumpi\n        /* \"#utility.yul\":4760:4839   */\n      tag_483\n      tag_359\n      jump\t// in\n    tag_483:\n        /* \"#utility.yul\":4721:4841   */\n    tag_482:\n        /* \"#utility.yul\":4880:4881   */\n      0x00\n        /* \"#utility.yul\":4905:4958   */\n      tag_484\n        /* \"#utility.yul\":4950:4957   */\n      dup11\n        /* \"#utility.yul\":4941:4947   */\n      dup3\n        /* \"#utility.yul\":4930:4939   */\n      dup12\n        /* \"#utility.yul\":4926:4948   */\n      add\n        /* \"#utility.yul\":4905:4958   */\n      tag_378\n      jump\t// in\n    tag_484:\n        /* \"#utility.yul\":4895:4958   */\n      swap8\n      pop\n        /* \"#utility.yul\":4851:4968   */\n      pop\n        /* \"#utility.yul\":5035:5037   */\n      0x20\n        /* \"#utility.yul\":5024:5033   */\n      dup9\n        /* \"#utility.yul\":5020:5038   */\n      add\n        /* \"#utility.yul\":5007:5039   */\n      calldataload\n        /* \"#utility.yul\":5066:5084   */\n      0xffffffffffffffff\n        /* \"#utility.yul\":5058:5064   */\n      dup2\n        /* \"#utility.yul\":5055:5085   */\n      gt\n        /* \"#utility.yul\":5052:5169   */\n      iszero\n      tag_485\n      jumpi\n        /* \"#utility.yul\":5088:5167   */\n      tag_486\n      tag_360\n      jump\t// in\n    tag_486:\n        /* \"#utility.yul\":5052:5169   */\n    tag_485:\n        /* \"#utility.yul\":5193:5256   */\n      tag_487\n        /* \"#utility.yul\":5248:5255   */\n      dup11\n        /* \"#utility.yul\":5239:5245   */\n      dup3\n        /* \"#utility.yul\":5228:5237   */\n      dup12\n        /* \"#utility.yul\":5224:5246   */\n      add\n        /* \"#utility.yul\":5193:5256   */\n      tag_373\n      jump\t// in\n    tag_487:\n        /* \"#utility.yul\":5183:5256   */\n      swap7\n      pop\n        /* \"#utility.yul\":4978:5266   */\n      pop\n        /* \"#utility.yul\":5333:5335   */\n      0x40\n        /* \"#utility.yul\":5322:5331   */\n      dup9\n        /* \"#utility.yul\":5318:5336   */\n      add\n        /* \"#utility.yul\":5305:5337   */\n      calldataload\n        /* \"#utility.yul\":5364:5382   */\n      0xffffffffffffffff\n        /* \"#utility.yul\":5356:5362   */\n      dup2\n        /* \"#utility.yul\":5353:5383   */\n      gt\n        /* \"#utility.yul\":5350:5467   */\n      iszero\n      tag_488\n      jumpi\n        /* \"#utility.yul\":5386:5465   */\n      tag_489\n      tag_360\n      jump\t// in\n    tag_489:\n        /* \"#utility.yul\":5350:5467   */\n    tag_488:\n        /* \"#utility.yul\":5491:5554   */\n      tag_490\n        /* \"#utility.yul\":5546:5553   */\n      dup11\n        /* \"#utility.yul\":5537:5543   */\n      dup3\n        /* \"#utility.yul\":5526:5535   */\n      dup12\n        /* \"#utility.yul\":5522:5544   */\n      add\n        /* \"#utility.yul\":5491:5554   */\n      tag_373\n      jump\t// in\n    tag_490:\n        /* \"#utility.yul\":5481:5554   */\n      swap6\n      pop\n        /* \"#utility.yul\":5276:5564   */\n      pop\n        /* \"#utility.yul\":5631:5633   */\n      0x60\n        /* \"#utility.yul\":5620:5629   */\n      dup9\n        /* \"#utility.yul\":5616:5634   */\n      add\n        /* \"#utility.yul\":5603:5635   */\n      calldataload\n        /* \"#utility.yul\":5662:5680   */\n      0xffffffffffffffff\n        /* \"#utility.yul\":5654:5660   */\n      dup2\n        /* \"#utility.yul\":5651:5681   */\n      gt\n        /* \"#utility.yul\":5648:5765   */\n      iszero\n      tag_491\n      jumpi\n        /* \"#utility.yul\":5684:5763   */\n      tag_492\n      tag_360\n      jump\t// in\n    tag_492:\n        /* \"#utility.yul\":5648:5765   */\n    tag_491:\n        /* \"#utility.yul\":5789:5852   */\n      tag_493\n        /* \"#utility.yul\":5844:5851   */\n      dup11\n        /* \"#utility.yul\":5835:5841   */\n      dup3\n        /* \"#utility.yul\":5824:5833   */\n      dup12\n        /* \"#utility.yul\":5820:5842   */\n      add\n        /* \"#utility.yul\":5789:5852   */\n      tag_373\n      jump\t// in\n    tag_493:\n        /* \"#utility.yul\":5779:5852   */\n      swap5\n      pop\n        /* \"#utility.yul\":5574:5862   */\n      pop\n        /* \"#utility.yul\":5901:5904   */\n      0x80\n        /* \"#utility.yul\":5928:5981   */\n      tag_494\n        /* \"#utility.yul\":5973:5980   */\n      dup11\n        /* \"#utility.yul\":5964:5970   */\n      dup3\n        /* \"#utility.yul\":5953:5962   */\n      dup12\n        /* \"#utility.yul\":5949:5971   */\n      add\n        /* \"#utility.yul\":5928:5981   */\n      tag_364\n      jump\t// in\n    tag_494:\n        /* \"#utility.yul\":5918:5981   */\n      swap4\n      pop\n        /* \"#utility.yul\":5872:5991   */\n      pop\n        /* \"#utility.yul\":6030:6033   */\n      0xa0\n        /* \"#utility.yul\":6057:6110   */\n      tag_495\n        /* \"#utility.yul\":6102:6109   */\n      dup11\n        /* \"#utility.yul\":6093:6099   */\n      dup3\n        /* \"#utility.yul\":6082:6091   */\n      dup12\n        /* \"#utility.yul\":6078:6100   */\n      add\n        /* \"#utility.yul\":6057:6110   */\n      tag_378\n      jump\t// in\n    tag_495:\n        /* \"#utility.yul\":6047:6110   */\n      swap3\n      pop\n        /* \"#utility.yul\":6001:6120   */\n      pop\n        /* \"#utility.yul\":6187:6190   */\n      0xc0\n        /* \"#utility.yul\":6176:6185   */\n      dup9\n        /* \"#utility.yul\":6172:6191   */\n      add\n        /* \"#utility.yul\":6159:6192   */\n      calldataload\n        /* \"#utility.yul\":6219:6237   */\n      0xffffffffffffffff\n        /* \"#utility.yul\":6211:6217   */\n      dup2\n        /* \"#utility.yul\":6208:6238   */\n      gt\n        /* \"#utility.yul\":6205:6322   */\n      iszero\n      tag_496\n      jumpi\n        /* \"#utility.yul\":6241:6320   */\n      tag_497\n      tag_360\n      jump\t// in\n    tag_497:\n        /* \"#utility.yul\":6205:6322   */\n    tag_496:\n        /* \"#utility.yul\":6346:6409   */\n      tag_498\n        /* \"#utility.yul\":6401:6408   */\n      dup11\n        /* \"#utility.yul\":6392:6398   */\n      dup3\n        /* \"#utility.yul\":6381:6390   */\n      dup12\n        /* \"#utility.yul\":6377:6399   */\n      add\n        /* \"#utility.yul\":6346:6409   */\n      tag_373\n      jump\t// in\n    tag_498:\n        /* \"#utility.yul\":6336:6409   */\n      swap2\n      pop\n        /* \"#utility.yul\":6130:6419   */\n      pop\n        /* \"#utility.yul\":4503:6426   */\n      swap3\n      swap6\n      swap9\n      swap2\n      swap5\n      swap8\n      pop\n      swap3\n      swap6\n      pop\n      jump\t// out\n        /* \"#utility.yul\":6432:6550   */\n    tag_379:\n        /* \"#utility.yul\":6519:6543   */\n      tag_500\n        /* \"#utility.yul\":6537:6542   */\n      dup2\n        /* \"#utility.yul\":6519:6543   */\n      tag_362\n      jump\t// in\n    tag_500:\n        /* \"#utility.yul\":6514:6517   */\n      dup3\n        /* \"#utility.yul\":6507:6544   */\n      mstore\n        /* \"#utility.yul\":6432:6550   */\n      pop\n      pop\n      jump\t// out\n        /* \"#utility.yul\":6556:6778   */\n    tag_28:\n        /* \"#utility.yul\":6649:6653   */\n      0x00\n        /* \"#utility.yul\":6687:6689   */\n      0x20\n        /* \"#utility.yul\":6676:6685   */\n      dup3\n        /* \"#utility.yul\":6672:6690   */\n      add\n        /* \"#utility.yul\":6664:6690   */\n      swap1\n      pop\n        /* \"#utility.yul\":6700:6771   */\n      tag_502\n        /* \"#utility.yul\":6768:6769   */\n      0x00\n        /* \"#utility.yul\":6757:6766   */\n      dup4\n        /* \"#utility.yul\":6753:6770   */\n      add\n        /* \"#utility.yul\":6744:6750   */\n      dup5\n        /* \"#utility.yul\":6700:6771   */\n      tag_379\n      jump\t// in\n    tag_502:\n        /* \"#utility.yul\":6556:6778   */\n      swap3\n      swap2\n      pop\n      pop\n      jump\t// out\n        /* \"#utility.yul\":6784:7113   */\n    tag_31:\n        /* \"#utility.yul\":6843:6849   */\n      0x00\n        /* \"#utility.yul\":6892:6894   */\n      0x20\n        /* \"#utility.yul\":6880:6889   */\n      dup3\n        /* \"#utility.yul\":6871:6878   */\n      dup5\n        /* \"#utility.yul\":6867:6890   */\n      sub\n        /* \"#utility.yul\":6863:6895   */\n      slt\n        /* \"#utility.yul\":6860:6979   */\n      iszero\n      tag_504\n      jumpi\n        /* \"#utility.yul\":6898:6977   */\n      tag_505\n      tag_359\n      jump\t// in\n    tag_505:\n        /* \"#utility.yul\":6860:6979   */\n    tag_504:\n        /* \"#utility.yul\":7018:7019   */\n      0x00\n        /* \"#utility.yul\":7043:7096   */\n      tag_506\n        /* \"#utility.yul\":7088:7095   */\n      dup5\n        /* \"#utility.yul\":7079:7085   */\n      dup3\n        /* \"#utility.yul\":7068:7077   */\n      dup6\n        /* \"#utility.yul\":7064:7086   */\n      add\n        /* \"#utility.yul\":7043:7096   */\n      tag_378\n      jump\t// in\n    tag_506:\n        /* \"#utility.yul\":7033:7096   */\n      swap2\n      pop\n        /* \"#utility.yul\":6989:7106   */\n      pop\n        /* \"#utility.yul\":6784:7113   */\n      swap3\n      swap2\n      pop\n      pop\n      jump\t// out\n        /* \"#utility.yul\":7119:7237   */\n    tag_380:\n        /* \"#utility.yul\":7206:7230   */\n      tag_508\n        /* \"#utility.yul\":7224:7229   */\n      dup2\n        /* \"#utility.yul\":7206:7230   */\n      tag_376\n      jump\t// in\n    tag_508:\n        /* \"#utility.yul\":7201:7204   */\n      dup3\n        /* \"#utility.yul\":7194:7231   */\n      mstore\n        /* \"#utility.yul\":7119:7237   */\n      pop\n      pop\n      jump\t// out\n        /* \"#utility.yul\":7243:7342   */\n    tag_381:\n        /* \"#utility.yul\":7295:7301   */\n      0x00\n        /* \"#utility.yul\":7329:7334   */\n      dup2\n        /* \"#utility.yul\":7323:7335   */\n      mload\n        /* \"#utility.yul\":7313:7335   */\n      swap1\n      pop\n        /* \"#utility.yul\":7243:7342   */\n      swap2\n      swap1\n      pop\n      jump\t// out\n        /* \"#utility.yul\":7348:7517   */\n    tag_382:\n        /* \"#utility.yul\":7432:7443   */\n      0x00\n        /* \"#utility.yul\":7466:7472   */\n      dup3\n        /* \"#utility.yul\":7461:7464   */\n      dup3\n        /* \"#utility.yul\":7454:7473   */\n      mstore\n        /* \"#utility.yul\":7506:7510   */\n      0x20\n        /* \"#utility.yul\":7501:7504   */\n      dup3\n        /* \"#utility.yul\":7497:7511   */\n      add\n        /* \"#utility.yul\":7482:7511   */\n      swap1\n      pop\n        /* \"#utility.yul\":7348:7517   */\n      swap3\n      swap2\n      pop\n      pop\n      jump\t// out\n        /* \"#utility.yul\":7523:7769   */\n    tag_383:\n        /* \"#utility.yul\":7604:7605   */\n      0x00\n        /* \"#utility.yul\":7614:7727   */\n    tag_512:\n        /* \"#utility.yul\":7628:7634   */\n      dup4\n        /* \"#utility.yul\":7625:7626   */\n      dup2\n        /* \"#utility.yul\":7622:7635   */\n      lt\n        /* \"#utility.yul\":7614:7727   */\n      iszero\n      tag_514\n      jumpi\n        /* \"#utility.yul\":7713:7714   */\n      dup1\n        /* \"#utility.yul\":7708:7711   */\n      dup3\n        /* \"#utility.yul\":7704:7715   */\n      add\n        /* \"#utility.yul\":7698:7716   */\n      mload\n        /* \"#utility.yul\":7694:7695   */\n      dup2\n        /* \"#utility.yul\":7689:7692   */\n      dup5\n        /* \"#utility.yul\":7685:7696   */\n      add\n        /* \"#utility.yul\":7678:7717   */\n      mstore\n        /* \"#utility.yul\":7650:7652   */\n      0x20\n        /* \"#utility.yul\":7647:7648   */\n      dup2\n        /* \"#utility.yul\":7643:7653   */\n      add\n        /* \"#utility.yul\":7638:7653   */\n      swap1\n      pop\n        /* \"#utility.yul\":7614:7727   */\n      jump(tag_512)\n    tag_514:\n        /* \"#utility.yul\":7761:7762   */\n      0x00\n        /* \"#utility.yul\":7752:7758   */\n      dup5\n        /* \"#utility.yul\":7747:7750   */\n      dup5\n        /* \"#utility.yul\":7743:7759   */\n      add\n        /* \"#utility.yul\":7736:7763   */\n      mstore\n        /* \"#utility.yul\":7585:7769   */\n      pop\n        /* \"#utility.yul\":7523:7769   */\n      pop\n      pop\n      pop\n      jump\t// out\n        /* \"#utility.yul\":7775:8152   */\n    tag_384:\n        /* \"#utility.yul\":7863:7866   */\n      0x00\n        /* \"#utility.yul\":7891:7930   */\n      tag_516\n        /* \"#utility.yul\":7924:7929   */\n      dup3\n        /* \"#utility.yul\":7891:7930   */\n      tag_381\n      jump\t// in\n    tag_516:\n        /* \"#utility.yul\":7946:8017   */\n      tag_517\n        /* \"#utility.yul\":8010:8016   */\n      dup2\n        /* \"#utility.yul\":8005:8008   */\n      dup6\n        /* \"#utility.yul\":7946:8017   */\n      tag_382\n      jump\t// in\n    tag_517:\n        /* \"#utility.yul\":7939:8017   */\n      swap4\n      pop\n        /* \"#utility.yul\":8026:8091   */\n      tag_518\n        /* \"#utility.yul\":8084:8090   */\n      dup2\n        /* \"#utility.yul\":8079:8082   */\n      dup6\n        /* \"#utility.yul\":8072:8076   */\n      0x20\n        /* \"#utility.yul\":8065:8070   */\n      dup7\n        /* \"#utility.yul\":8061:8077   */\n      add\n        /* \"#utility.yul\":8026:8091   */\n      tag_383\n      jump\t// in\n    tag_518:\n        /* \"#utility.yul\":8116:8145   */\n      tag_519\n        /* \"#utility.yul\":8138:8144   */\n      dup2\n        /* \"#utility.yul\":8116:8145   */\n      tag_367\n      jump\t// in\n    tag_519:\n        /* \"#utility.yul\":8111:8114   */\n      dup5\n        /* \"#utility.yul\":8107:8146   */\n      add\n        /* \"#utility.yul\":8100:8146   */\n      swap2\n      pop\n        /* \"#utility.yul\":7867:8152   */\n      pop\n        /* \"#utility.yul\":7775:8152   */\n      swap3\n      swap2\n      pop\n      pop\n      jump\t// out\n        /* \"#utility.yul\":8158:9507   */\n    tag_34:\n        /* \"#utility.yul\":8521:8525   */\n      0x00\n        /* \"#utility.yul\":8559:8562   */\n      0x0100\n        /* \"#utility.yul\":8548:8557   */\n      dup3\n        /* \"#utility.yul\":8544:8563   */\n      add\n        /* \"#utility.yul\":8536:8563   */\n      swap1\n      pop\n        /* \"#utility.yul\":8573:8644   */\n      tag_521\n        /* \"#utility.yul\":8641:8642   */\n      0x00\n        /* \"#utility.yul\":8630:8639   */\n      dup4\n        /* \"#utility.yul\":8626:8643   */\n      add\n        /* \"#utility.yul\":8617:8623   */\n      dup12\n        /* \"#utility.yul\":8573:8644   */\n      tag_380\n      jump\t// in\n    tag_521:\n        /* \"#utility.yul\":8691:8700   */\n      dup2\n        /* \"#utility.yul\":8685:8689   */\n      dup2\n        /* \"#utility.yul\":8681:8701   */\n      sub\n        /* \"#utility.yul\":8676:8678   */\n      0x20\n        /* \"#utility.yul\":8665:8674   */\n      dup4\n        /* \"#utility.yul\":8661:8679   */\n      add\n        /* \"#utility.yul\":8654:8702   */\n      mstore\n        /* \"#utility.yul\":8719:8797   */\n      tag_522\n        /* \"#utility.yul\":8792:8796   */\n      dup2\n        /* \"#utility.yul\":8783:8789   */\n      dup11\n        /* \"#utility.yul\":8719:8797   */\n      tag_384\n      jump\t// in\n    tag_522:\n        /* \"#utility.yul\":8711:8797   */\n      swap1\n      pop\n        /* \"#utility.yul\":8844:8853   */\n      dup2\n        /* \"#utility.yul\":8838:8842   */\n      dup2\n        /* \"#utility.yul\":8834:8854   */\n      sub\n        /* \"#utility.yul\":8829:8831   */\n      0x40\n        /* \"#utility.yul\":8818:8827   */\n      dup4\n        /* \"#utility.yul\":8814:8832   */\n      add\n        /* \"#utility.yul\":8807:8855   */\n      mstore\n        /* \"#utility.yul\":8872:8950   */\n      tag_523\n        /* \"#utility.yul\":8945:8949   */\n      dup2\n        /* \"#utility.yul\":8936:8942   */\n      dup10\n        /* \"#utility.yul\":8872:8950   */\n      tag_384\n      jump\t// in\n    tag_523:\n        /* \"#utility.yul\":8864:8950   */\n      swap1\n      pop\n        /* \"#utility.yul\":8997:9006   */\n      dup2\n        /* \"#utility.yul\":8991:8995   */\n      dup2\n        /* \"#utility.yul\":8987:9007   */\n      sub\n        /* \"#utility.yul\":8982:8984   */\n      0x60\n        /* \"#utility.yul\":8971:8980   */\n      dup4\n        /* \"#utility.yul\":8967:8985   */\n      add\n        /* \"#utility.yul\":8960:9008   */\n      mstore\n        /* \"#utility.yul\":9025:9103   */\n      tag_524\n        /* \"#utility.yul\":9098:9102   */\n      dup2\n        /* \"#utility.yul\":9089:9095   */\n      dup9\n        /* \"#utility.yul\":9025:9103   */\n      tag_384\n      jump\t// in\n    tag_524:\n        /* \"#utility.yul\":9017:9103   */\n      swap1\n      pop\n        /* \"#utility.yul\":9113:9186   */\n      tag_525\n        /* \"#utility.yul\":9181:9184   */\n      0x80\n        /* \"#utility.yul\":9170:9179   */\n      dup4\n        /* \"#utility.yul\":9166:9185   */\n      add\n        /* \"#utility.yul\":9157:9163   */\n      dup8\n        /* \"#utility.yul\":9113:9186   */\n      tag_379\n      jump\t// in\n    tag_525:\n        /* \"#utility.yul\":9196:9269   */\n      tag_526\n        /* \"#utility.yul\":9264:9267   */\n      0xa0\n        /* \"#utility.yul\":9253:9262   */\n      dup4\n        /* \"#utility.yul\":9249:9268   */\n      add\n        /* \"#utility.yul\":9240:9246   */\n      dup7\n        /* \"#utility.yul\":9196:9269   */\n      tag_380\n      jump\t// in\n    tag_526:\n        /* \"#utility.yul\":9279:9346   */\n      tag_527\n        /* \"#utility.yul\":9341:9344   */\n      0xc0\n        /* \"#utility.yul\":9330:9339   */\n      dup4\n        /* \"#utility.yul\":9326:9345   */\n      add\n        /* \"#utility.yul\":9317:9323   */\n      dup6\n        /* \"#utility.yul\":9279:9346   */\n      tag_375\n      jump\t// in\n    tag_527:\n        /* \"#utility.yul\":9394:9403   */\n      dup2\n        /* \"#utility.yul\":9388:9392   */\n      dup2\n        /* \"#utility.yul\":9384:9404   */\n      sub\n        /* \"#utility.yul\":9378:9381   */\n      0xe0\n        /* \"#utility.yul\":9367:9376   */\n      dup4\n        /* \"#utility.yul\":9363:9382   */\n      add\n        /* \"#utility.yul\":9356:9405   */\n      mstore\n        /* \"#utility.yul\":9422:9500   */\n      tag_528\n        /* \"#utility.yul\":9495:9499   */\n      dup2\n        /* \"#utility.yul\":9486:9492   */\n      dup5\n        /* \"#utility.yul\":9422:9500   */\n      tag_384\n      jump\t// in\n    tag_528:\n        /* \"#utility.yul\":9414:9500   */\n      swap1\n      pop\n        /* \"#utility.yul\":8158:9507   */\n      swap10\n      swap9\n      pop\n      pop\n      pop\n      pop\n      pop\n      pop\n      pop\n      pop\n      pop\n      jump\t// out\n        /* \"#utility.yul\":9513:10022   */\n    tag_37:\n        /* \"#utility.yul\":9582:9588   */\n      0x00\n        /* \"#utility.yul\":9631:9633   */\n      0x20\n        /* \"#utility.yul\":9619:9628   */\n      dup3\n        /* \"#utility.yul\":9610:9617   */\n      dup5\n        /* \"#utility.yul\":9606:9629   */\n      sub\n        /* \"#utility.yul\":9602:9634   */\n      slt\n        /* \"#utility.yul\":9599:9718   */\n      iszero\n      tag_530\n      jumpi\n        /* \"#utility.yul\":9637:9716   */\n      tag_531\n      tag_359\n      jump\t// in\n    tag_531:\n        /* \"#utility.yul\":9599:9718   */\n    tag_530:\n        /* \"#utility.yul\":9785:9786   */\n      0x00\n        /* \"#utility.yul\":9774:9783   */\n      dup3\n        /* \"#utility.yul\":9770:9787   */\n      add\n        /* \"#utility.yul\":9757:9788   */\n      calldataload\n        /* \"#utility.yul\":9815:9833   */\n      0xffffffffffffffff\n        /* \"#utility.yul\":9807:9813   */\n      dup2\n        /* \"#utility.yul\":9804:9834   */\n      gt\n        /* \"#utility.yul\":9801:9918   */\n      iszero\n      tag_532\n      jumpi\n        /* \"#utility.yul\":9837:9916   */\n      tag_533\n      tag_360\n      jump\t// in\n    tag_533:\n        /* \"#utility.yul\":9801:9918   */\n    tag_532:\n        /* \"#utility.yul\":9942:10005   */\n      tag_534\n        /* \"#utility.yul\":9997:10004   */\n      dup5\n        /* \"#utility.yul\":9988:9994   */\n      dup3\n        /* \"#utility.yul\":9977:9986   */\n      dup6\n        /* \"#utility.yul\":9973:9995   */\n      add\n        /* \"#utility.yul\":9942:10005   */\n      tag_373\n      jump\t// in\n    tag_534:\n        /* \"#utility.yul\":9932:10005   */\n      swap2\n      pop\n        /* \"#utility.yul\":9728:10015   */\n      pop\n        /* \"#utility.yul\":9513:10022   */\n      swap3\n      swap2\n      pop\n      pop\n      jump\t// out\n        /* \"#utility.yul\":10028:10173   */\n    tag_385:\n        /* \"#utility.yul\":10126:10132   */\n      0x00\n        /* \"#utility.yul\":10160:10165   */\n      dup2\n        /* \"#utility.yul\":10154:10166   */\n      mload\n        /* \"#utility.yul\":10144:10166   */\n      swap1\n      pop\n        /* \"#utility.yul\":10028:10173   */\n      swap2\n      swap1\n      pop\n      jump\t// out\n        /* \"#utility.yul\":10179:10394   */\n    tag_386:\n        /* \"#utility.yul\":10309:10320   */\n      0x00\n        /* \"#utility.yul\":10343:10349   */\n      dup3\n        /* \"#utility.yul\":10338:10341   */\n      dup3\n        /* \"#utility.yul\":10331:10350   */\n      mstore\n        /* \"#utility.yul\":10383:10387   */\n      0x20\n        /* \"#utility.yul\":10378:10381   */\n      dup3\n        /* \"#utility.yul\":10374:10388   */\n      add\n        /* \"#utility.yul\":10359:10388   */\n      swap1\n      pop\n        /* \"#utility.yul\":10179:10394   */\n      swap3\n      swap2\n      pop\n      pop\n      jump\t// out\n        /* \"#utility.yul\":10400:10563   */\n    tag_387:\n        /* \"#utility.yul\":10498:10502   */\n      0x00\n        /* \"#utility.yul\":10521:10524   */\n      dup2\n        /* \"#utility.yul\":10513:10524   */\n      swap1\n      pop\n        /* \"#utility.yul\":10551:10555   */\n      0x20\n        /* \"#utility.yul\":10546:10549   */\n      dup3\n        /* \"#utility.yul\":10542:10556   */\n      add\n        /* \"#utility.yul\":10534:10556   */\n      swap1\n      pop\n        /* \"#utility.yul\":10400:10563   */\n      swap2\n      swap1\n      pop\n      jump\t// out\n        /* \"#utility.yul\":10569:10677   */\n    tag_388:\n        /* \"#utility.yul\":10646:10670   */\n      tag_539\n        /* \"#utility.yul\":10664:10669   */\n      dup2\n        /* \"#utility.yul\":10646:10670   */\n      tag_376\n      jump\t// in\n    tag_539:\n        /* \"#utility.yul\":10641:10644   */\n      dup3\n        /* \"#utility.yul\":10634:10671   */\n      mstore\n        /* \"#utility.yul\":10569:10677   */\n      pop\n      pop\n      jump\t// out\n        /* \"#utility.yul\":10683:10842   */\n    tag_389:\n        /* \"#utility.yul\":10757:10768   */\n      0x00\n        /* \"#utility.yul\":10791:10797   */\n      dup3\n        /* \"#utility.yul\":10786:10789   */\n      dup3\n        /* \"#utility.yul\":10779:10798   */\n      mstore\n        /* \"#utility.yul\":10831:10835   */\n      0x20\n        /* \"#utility.yul\":10826:10829   */\n      dup3\n        /* \"#utility.yul\":10822:10836   */\n      add\n        /* \"#utility.yul\":10807:10836   */\n      swap1\n      pop\n        /* \"#utility.yul\":10683:10842   */\n      swap3\n      swap2\n      pop\n      pop\n      jump\t// out\n        /* \"#utility.yul\":10848:11205   */\n    tag_390:\n        /* \"#utility.yul\":10926:10929   */\n      0x00\n        /* \"#utility.yul\":10954:10993   */\n      tag_542\n        /* \"#utility.yul\":10987:10992   */\n      dup3\n        /* \"#utility.yul\":10954:10993   */\n      tag_381\n      jump\t// in\n    tag_542:\n        /* \"#utility.yul\":11009:11070   */\n      tag_543\n        /* \"#utility.yul\":11063:11069   */\n      dup2\n        /* \"#utility.yul\":11058:11061   */\n      dup6\n        /* \"#utility.yul\":11009:11070   */\n      tag_389\n      jump\t// in\n    tag_543:\n        /* \"#utility.yul\":11002:11070   */\n      swap4\n      pop\n        /* \"#utility.yul\":11079:11144   */\n      tag_544\n        /* \"#utility.yul\":11137:11143   */\n      dup2\n        /* \"#utility.yul\":11132:11135   */\n      dup6\n        /* \"#utility.yul\":11125:11129   */\n      0x20\n        /* \"#utility.yul\":11118:11123   */\n      dup7\n        /* \"#utility.yul\":11114:11130   */\n      add\n        /* \"#utility.yul\":11079:11144   */\n      tag_383\n      jump\t// in\n    tag_544:\n        /* \"#utility.yul\":11169:11198   */\n      tag_545\n        /* \"#utility.yul\":11191:11197   */\n      dup2\n        /* \"#utility.yul\":11169:11198   */\n      tag_367\n      jump\t// in\n    tag_545:\n        /* \"#utility.yul\":11164:11167   */\n      dup5\n        /* \"#utility.yul\":11160:11199   */\n      add\n        /* \"#utility.yul\":11153:11199   */\n      swap2\n      pop\n        /* \"#utility.yul\":10930:11205   */\n      pop\n        /* \"#utility.yul\":10848:11205   */\n      swap3\n      swap2\n      pop\n      pop\n      jump\t// out\n        /* \"#utility.yul\":11211:11319   */\n    tag_391:\n        /* \"#utility.yul\":11288:11312   */\n      tag_547\n        /* \"#utility.yul\":11306:11311   */\n      dup2\n        /* \"#utility.yul\":11288:11312   */\n      tag_362\n      jump\t// in\n    tag_547:\n        /* \"#utility.yul\":11283:11286   */\n      dup3\n        /* \"#utility.yul\":11276:11313   */\n      mstore\n        /* \"#utility.yul\":11211:11319   */\n      pop\n      pop\n      jump\t// out\n        /* \"#utility.yul\":11325:11424   */\n    tag_392:\n        /* \"#utility.yul\":11396:11417   */\n      tag_549\n        /* \"#utility.yul\":11411:11416   */\n      dup2\n        /* \"#utility.yul\":11396:11417   */\n      tag_374\n      jump\t// in\n    tag_549:\n        /* \"#utility.yul\":11391:11394   */\n      dup3\n        /* \"#utility.yul\":11384:11418   */\n      mstore\n        /* \"#utility.yul\":11325:11424   */\n      pop\n      pop\n      jump\t// out\n        /* \"#utility.yul\":11524:13412   */\n    tag_393:\n        /* \"#utility.yul\":11645:11648   */\n      0x00\n        /* \"#utility.yul\":11681:11687   */\n      0x0100\n        /* \"#utility.yul\":11676:11679   */\n      dup4\n        /* \"#utility.yul\":11672:11688   */\n      add\n        /* \"#utility.yul\":11768:11772   */\n      0x00\n        /* \"#utility.yul\":11761:11766   */\n      dup4\n        /* \"#utility.yul\":11757:11773   */\n      add\n        /* \"#utility.yul\":11751:11774   */\n      mload\n        /* \"#utility.yul\":11787:11850   */\n      tag_551\n        /* \"#utility.yul\":11844:11848   */\n      0x00\n        /* \"#utility.yul\":11839:11842   */\n      dup7\n        /* \"#utility.yul\":11835:11849   */\n      add\n        /* \"#utility.yul\":11821:11833   */\n      dup3\n        /* \"#utility.yul\":11787:11850   */\n      tag_388\n      jump\t// in\n    tag_551:\n        /* \"#utility.yul\":11698:11860   */\n      pop\n        /* \"#utility.yul\":11948:11952   */\n      0x20\n        /* \"#utility.yul\":11941:11946   */\n      dup4\n        /* \"#utility.yul\":11937:11953   */\n      add\n        /* \"#utility.yul\":11931:11954   */\n      mload\n        /* \"#utility.yul\":12001:12004   */\n      dup5\n        /* \"#utility.yul\":11995:11999   */\n      dup3\n        /* \"#utility.yul\":11991:12005   */\n      sub\n        /* \"#utility.yul\":11984:11988   */\n      0x20\n        /* \"#utility.yul\":11979:11982   */\n      dup7\n        /* \"#utility.yul\":11975:11989   */\n      add\n        /* \"#utility.yul\":11968:12006   */\n      mstore\n        /* \"#utility.yul\":12027:12100   */\n      tag_552\n        /* \"#utility.yul\":12095:12099   */\n      dup3\n        /* \"#utility.yul\":12081:12093   */\n      dup3\n        /* \"#utility.yul\":12027:12100   */\n      tag_390\n      jump\t// in\n    tag_552:\n        /* \"#utility.yul\":12019:12100   */\n      swap2\n      pop\n        /* \"#utility.yul\":11870:12111   */\n      pop\n        /* \"#utility.yul\":12196:12200   */\n      0x40\n        /* \"#utility.yul\":12189:12194   */\n      dup4\n        /* \"#utility.yul\":12185:12201   */\n      add\n        /* \"#utility.yul\":12179:12202   */\n      mload\n        /* \"#utility.yul\":12249:12252   */\n      dup5\n        /* \"#utility.yul\":12243:12247   */\n      dup3\n        /* \"#utility.yul\":12239:12253   */\n      sub\n        /* \"#utility.yul\":12232:12236   */\n      0x40\n        /* \"#utility.yul\":12227:12230   */\n      dup7\n        /* \"#utility.yul\":12223:12237   */\n      add\n        /* \"#utility.yul\":12216:12254   */\n      mstore\n        /* \"#utility.yul\":12275:12348   */\n      tag_553\n        /* \"#utility.yul\":12343:12347   */\n      dup3\n        /* \"#utility.yul\":12329:12341   */\n      dup3\n        /* \"#utility.yul\":12275:12348   */\n      tag_390\n      jump\t// in\n    tag_553:\n        /* \"#utility.yul\":12267:12348   */\n      swap2\n      pop\n        /* \"#utility.yul\":12121:12359   */\n      pop\n        /* \"#utility.yul\":12446:12450   */\n      0x60\n        /* \"#utility.yul\":12439:12444   */\n      dup4\n        /* \"#utility.yul\":12435:12451   */\n      add\n        /* \"#utility.yul\":12429:12452   */\n      mload\n        /* \"#utility.yul\":12499:12502   */\n      dup5\n        /* \"#utility.yul\":12493:12497   */\n      dup3\n        /* \"#utility.yul\":12489:12503   */\n      sub\n        /* \"#utility.yul\":12482:12486   */\n      0x60\n        /* \"#utility.yul\":12477:12480   */\n      dup7\n        /* \"#utility.yul\":12473:12487   */\n      add\n        /* \"#utility.yul\":12466:12504   */\n      mstore\n        /* \"#utility.yul\":12525:12598   */\n      tag_554\n        /* \"#utility.yul\":12593:12597   */\n      dup3\n        /* \"#utility.yul\":12579:12591   */\n      dup3\n        /* \"#utility.yul\":12525:12598   */\n      tag_390\n      jump\t// in\n    tag_554:\n        /* \"#utility.yul\":12517:12598   */\n      swap2\n      pop\n        /* \"#utility.yul\":12369:12609   */\n      pop\n        /* \"#utility.yul\":12701:12705   */\n      0x80\n        /* \"#utility.yul\":12694:12699   */\n      dup4\n        /* \"#utility.yul\":12690:12706   */\n      add\n        /* \"#utility.yul\":12684:12707   */\n      mload\n        /* \"#utility.yul\":12720:12783   */\n      tag_555\n        /* \"#utility.yul\":12777:12781   */\n      0x80\n        /* \"#utility.yul\":12772:12775   */\n      dup7\n        /* \"#utility.yul\":12768:12782   */\n      add\n        /* \"#utility.yul\":12754:12766   */\n      dup3\n        /* \"#utility.yul\":12720:12783   */\n      tag_391\n      jump\t// in\n    tag_555:\n        /* \"#utility.yul\":12619:12793   */\n      pop\n        /* \"#utility.yul\":12876:12880   */\n      0xa0\n        /* \"#utility.yul\":12869:12874   */\n      dup4\n        /* \"#utility.yul\":12865:12881   */\n      add\n        /* \"#utility.yul\":12859:12882   */\n      mload\n        /* \"#utility.yul\":12895:12958   */\n      tag_556\n        /* \"#utility.yul\":12952:12956   */\n      0xa0\n        /* \"#utility.yul\":12947:12950   */\n      dup7\n        /* \"#utility.yul\":12943:12957   */\n      add\n        /* \"#utility.yul\":12929:12941   */\n      dup3\n        /* \"#utility.yul\":12895:12958   */\n      tag_388\n      jump\t// in\n    tag_556:\n        /* \"#utility.yul\":12803:12968   */\n      pop\n        /* \"#utility.yul\":13054:13058   */\n      0xc0\n        /* \"#utility.yul\":13047:13052   */\n      dup4\n        /* \"#utility.yul\":13043:13059   */\n      add\n        /* \"#utility.yul\":13037:13060   */\n      mload\n        /* \"#utility.yul\":13073:13130   */\n      tag_557\n        /* \"#utility.yul\":13124:13128   */\n      0xc0\n        /* \"#utility.yul\":13119:13122   */\n      dup7\n        /* \"#utility.yul\":13115:13129   */\n      add\n        /* \"#utility.yul\":13101:13113   */\n      dup3\n        /* \"#utility.yul\":13073:13130   */\n      tag_392\n      jump\t// in\n    tag_557:\n        /* \"#utility.yul\":12978:13140   */\n      pop\n        /* \"#utility.yul\":13222:13226   */\n      0xe0\n        /* \"#utility.yul\":13215:13220   */\n      dup4\n        /* \"#utility.yul\":13211:13227   */\n      add\n        /* \"#utility.yul\":13205:13228   */\n      mload\n        /* \"#utility.yul\":13275:13278   */\n      dup5\n        /* \"#utility.yul\":13269:13273   */\n      dup3\n        /* \"#utility.yul\":13265:13279   */\n      sub\n        /* \"#utility.yul\":13258:13262   */\n      0xe0\n        /* \"#utility.yul\":13253:13256   */\n      dup7\n        /* \"#utility.yul\":13249:13263   */\n      add\n        /* \"#utility.yul\":13242:13280   */\n      mstore\n        /* \"#utility.yul\":13301:13374   */\n      tag_558\n        /* \"#utility.yul\":13369:13373   */\n      dup3\n        /* \"#utility.yul\":13355:13367   */\n      dup3\n        /* \"#utility.yul\":13301:13374   */\n      tag_390\n      jump\t// in\n    tag_558:\n        /* \"#utility.yul\":13293:13374   */\n      swap2\n      pop\n        /* \"#utility.yul\":13150:13385   */\n      pop\n        /* \"#utility.yul\":13402:13406   */\n      dup1\n        /* \"#utility.yul\":13395:13406   */\n      swap2\n      pop\n        /* \"#utility.yul\":11650:13412   */\n      pop\n        /* \"#utility.yul\":11524:13412   */\n      swap3\n      swap2\n      pop\n      pop\n      jump\t// out\n        /* \"#utility.yul\":13418:13698   */\n    tag_394:\n        /* \"#utility.yul\":13549:13559   */\n      0x00\n        /* \"#utility.yul\":13584:13692   */\n      tag_560\n        /* \"#utility.yul\":13688:13691   */\n      dup4\n        /* \"#utility.yul\":13680:13686   */\n      dup4\n        /* \"#utility.yul\":13584:13692   */\n      tag_393\n      jump\t// in\n    tag_560:\n        /* \"#utility.yul\":13570:13692   */\n      swap1\n      pop\n        /* \"#utility.yul\":13418:13698   */\n      swap3\n      swap2\n      pop\n      pop\n      jump\t// out\n        /* \"#utility.yul\":13704:13848   */\n    tag_395:\n        /* \"#utility.yul\":13805:13809   */\n      0x00\n        /* \"#utility.yul\":13837:13841   */\n      0x20\n        /* \"#utility.yul\":13832:13835   */\n      dup3\n        /* \"#utility.yul\":13828:13842   */\n      add\n        /* \"#utility.yul\":13820:13842   */\n      swap1\n      pop\n        /* \"#utility.yul\":13704:13848   */\n      swap2\n      swap1\n      pop\n      jump\t// out\n        /* \"#utility.yul\":13952:15111   */\n    tag_396:\n        /* \"#utility.yul\":14133:14136   */\n      0x00\n        /* \"#utility.yul\":14162:14247   */\n      tag_563\n        /* \"#utility.yul\":14241:14246   */\n      dup3\n        /* \"#utility.yul\":14162:14247   */\n      tag_385\n      jump\t// in\n    tag_563:\n        /* \"#utility.yul\":14263:14380   */\n      tag_564\n        /* \"#utility.yul\":14373:14379   */\n      dup2\n        /* \"#utility.yul\":14368:14371   */\n      dup6\n        /* \"#utility.yul\":14263:14380   */\n      tag_386\n      jump\t// in\n    tag_564:\n        /* \"#utility.yul\":14256:14380   */\n      swap4\n      pop\n        /* \"#utility.yul\":14406:14409   */\n      dup4\n        /* \"#utility.yul\":14451:14455   */\n      0x20\n        /* \"#utility.yul\":14443:14449   */\n      dup3\n        /* \"#utility.yul\":14439:14456   */\n      mul\n        /* \"#utility.yul\":14434:14437   */\n      dup6\n        /* \"#utility.yul\":14430:14457   */\n      add\n        /* \"#utility.yul\":14481:14568   */\n      tag_565\n        /* \"#utility.yul\":14562:14567   */\n      dup6\n        /* \"#utility.yul\":14481:14568   */\n      tag_387\n      jump\t// in\n    tag_565:\n        /* \"#utility.yul\":14591:14598   */\n      dup1\n        /* \"#utility.yul\":14622:14623   */\n      0x00\n        /* \"#utility.yul\":14607:15066   */\n    tag_566:\n        /* \"#utility.yul\":14632:14638   */\n      dup6\n        /* \"#utility.yul\":14629:14630   */\n      dup2\n        /* \"#utility.yul\":14626:14639   */\n      lt\n        /* \"#utility.yul\":14607:15066   */\n      iszero\n      tag_568\n      jumpi\n        /* \"#utility.yul\":14703:14712   */\n      dup5\n        /* \"#utility.yul\":14697:14701   */\n      dup5\n        /* \"#utility.yul\":14693:14713   */\n      sub\n        /* \"#utility.yul\":14688:14691   */\n      dup10\n        /* \"#utility.yul\":14681:14714   */\n      mstore\n        /* \"#utility.yul\":14754:14760   */\n      dup2\n        /* \"#utility.yul\":14748:14761   */\n      mload\n        /* \"#utility.yul\":14782:14908   */\n      tag_569\n        /* \"#utility.yul\":14903:14907   */\n      dup6\n        /* \"#utility.yul\":14888:14901   */\n      dup3\n        /* \"#utility.yul\":14782:14908   */\n      tag_394\n      jump\t// in\n    tag_569:\n        /* \"#utility.yul\":14774:14908   */\n      swap5\n      pop\n        /* \"#utility.yul\":14931:15022   */\n      tag_570\n        /* \"#utility.yul\":15015:15021   */\n      dup4\n        /* \"#utility.yul\":14931:15022   */\n      tag_395\n      jump\t// in\n    tag_570:\n        /* \"#utility.yul\":14921:15022   */\n      swap3\n      pop\n        /* \"#utility.yul\":15051:15055   */\n      0x20\n        /* \"#utility.yul\":15046:15049   */\n      dup11\n        /* \"#utility.yul\":15042:15056   */\n      add\n        /* \"#utility.yul\":15035:15056   */\n      swap10\n      pop\n        /* \"#utility.yul\":14667:15066   */\n      pop\n        /* \"#utility.yul\":14654:14655   */\n      0x01\n        /* \"#utility.yul\":14651:14652   */\n      dup2\n        /* \"#utility.yul\":14647:14656   */\n      add\n        /* \"#utility.yul\":14642:14656   */\n      swap1\n      pop\n        /* \"#utility.yul\":14607:15066   */\n      jump(tag_566)\n    tag_568:\n        /* \"#utility.yul\":14611:14625   */\n      pop\n        /* \"#utility.yul\":15082:15086   */\n      dup3\n        /* \"#utility.yul\":15075:15086   */\n      swap8\n      pop\n        /* \"#utility.yul\":15102:15105   */\n      dup8\n        /* \"#utility.yul\":15095:15105   */\n      swap6\n      pop\n        /* \"#utility.yul\":14138:15111   */\n      pop\n      pop\n      pop\n      pop\n      pop\n        /* \"#utility.yul\":13952:15111   */\n      swap3\n      swap2\n      pop\n      pop\n      jump\t// out\n        /* \"#utility.yul\":15117:15614   */\n    tag_40:\n        /* \"#utility.yul\":15322:15326   */\n      0x00\n        /* \"#utility.yul\":15360:15362   */\n      0x20\n        /* \"#utility.yul\":15349:15358   */\n      dup3\n        /* \"#utility.yul\":15345:15363   */\n      add\n        /* \"#utility.yul\":15337:15363   */\n      swap1\n      pop\n        /* \"#utility.yul\":15409:15418   */\n      dup2\n        /* \"#utility.yul\":15403:15407   */\n      dup2\n        /* \"#utility.yul\":15399:15419   */\n      sub\n        /* \"#utility.yul\":15395:15396   */\n      0x00\n        /* \"#utility.yul\":15384:15393   */\n      dup4\n        /* \"#utility.yul\":15380:15397   */\n      add\n        /* \"#utility.yul\":15373:15420   */\n      mstore\n        /* \"#utility.yul\":15437:15607   */\n      tag_572\n        /* \"#utility.yul\":15602:15606   */\n      dup2\n        /* \"#utility.yul\":15593:15599   */\n      dup5\n        /* \"#utility.yul\":15437:15607   */\n      tag_396\n      jump\t// in\n    tag_572:\n        /* \"#utility.yul\":15429:15607   */\n      swap1\n      pop\n        /* \"#utility.yul\":15117:15614   */\n      swap3\n      swap2\n      pop\n      pop\n      jump\t// out\n        /* \"#utility.yul\":15620:15949   */\n    tag_43:\n        /* \"#utility.yul\":15679:15685   */\n      0x00\n        /* \"#utility.yul\":15728:15730   */\n      0x20\n        /* \"#utility.yul\":15716:15725   */\n      dup3\n        /* \"#utility.yul\":15707:15714   */\n      dup5\n        /* \"#utility.yul\":15703:15726   */\n      sub\n        /* \"#utility.yul\":15699:15731   */\n      slt\n        /* \"#utility.yul\":15696:15815   */\n      iszero\n      tag_574\n      jumpi\n        /* \"#utility.yul\":15734:15813   */\n      tag_575\n      tag_359\n      jump\t// in\n    tag_575:\n        /* \"#utility.yul\":15696:15815   */\n    tag_574:\n        /* \"#utility.yul\":15854:15855   */\n      0x00\n        /* \"#utility.yul\":15879:15932   */\n      tag_576\n        /* \"#utility.yul\":15924:15931   */\n      dup5\n        /* \"#utility.yul\":15915:15921   */\n      dup3\n        /* \"#utility.yul\":15904:15913   */\n      dup6\n        /* \"#utility.yul\":15900:15922   */\n      add\n        /* \"#utility.yul\":15879:15932   */\n      tag_364\n      jump\t// in\n    tag_576:\n        /* \"#utility.yul\":15869:15932   */\n      swap2\n      pop\n        /* \"#utility.yul\":15825:15942   */\n      pop\n        /* \"#utility.yul\":15620:15949   */\n      swap3\n      swap2\n      pop\n      pop\n      jump\t// out\n        /* \"#utility.yul\":15955:16049   */\n    tag_397:\n        /* \"#utility.yul\":15988:15996   */\n      0x00\n        /* \"#utility.yul\":16036:16041   */\n      dup2\n        /* \"#utility.yul\":16032:16034   */\n      0x60\n        /* \"#utility.yul\":16028:16042   */\n      shl\n        /* \"#utility.yul\":16007:16042   */\n      swap1\n      pop\n        /* \"#utility.yul\":15955:16049   */\n      swap2\n      swap1\n      pop\n      jump\t// out\n        /* \"#utility.yul\":16055:16149   */\n    tag_398:\n        /* \"#utility.yul\":16094:16101   */\n      0x00\n        /* \"#utility.yul\":16123:16143   */\n      tag_579\n        /* \"#utility.yul\":16137:16142   */\n      dup3\n        /* \"#utility.yul\":16123:16143   */\n      tag_397\n      jump\t// in\n    tag_579:\n        /* \"#utility.yul\":16112:16143   */\n      swap1\n      pop\n        /* \"#utility.yul\":16055:16149   */\n      swap2\n      swap1\n      pop\n      jump\t// out\n        /* \"#utility.yul\":16155:16255   */\n    tag_399:\n        /* \"#utility.yul\":16194:16201   */\n      0x00\n        /* \"#utility.yul\":16223:16249   */\n      tag_581\n        /* \"#utility.yul\":16243:16248   */\n      dup3\n        /* \"#utility.yul\":16223:16249   */\n      tag_398\n      jump\t// in\n    tag_581:\n        /* \"#utility.yul\":16212:16249   */\n      swap1\n      pop\n        /* \"#utility.yul\":16155:16255   */\n      swap2\n      swap1\n      pop\n      jump\t// out\n        /* \"#utility.yul\":16261:16418   */\n    tag_400:\n        /* \"#utility.yul\":16366:16411   */\n      tag_583\n        /* \"#utility.yul\":16386:16410   */\n      tag_584\n        /* \"#utility.yul\":16404:16409   */\n      dup3\n        /* \"#utility.yul\":16386:16410   */\n      tag_362\n      jump\t// in\n    tag_584:\n        /* \"#utility.yul\":16366:16411   */\n      tag_399\n      jump\t// in\n    tag_583:\n        /* \"#utility.yul\":16361:16364   */\n      dup3\n        /* \"#utility.yul\":16354:16412   */\n      mstore\n        /* \"#utility.yul\":16261:16418   */\n      pop\n      pop\n      jump\t// out\n        /* \"#utility.yul\":16424:16680   */\n    tag_68:\n        /* \"#utility.yul\":16536:16539   */\n      0x00\n        /* \"#utility.yul\":16551:16626   */\n      tag_586\n        /* \"#utility.yul\":16622:16625   */\n      dup3\n        /* \"#utility.yul\":16613:16619   */\n      dup5\n        /* \"#utility.yul\":16551:16626   */\n      tag_400\n      jump\t// in\n    tag_586:\n        /* \"#utility.yul\":16651:16653   */\n      0x14\n        /* \"#utility.yul\":16646:16649   */\n      dup3\n        /* \"#utility.yul\":16642:16654   */\n      add\n        /* \"#utility.yul\":16635:16654   */\n      swap2\n      pop\n        /* \"#utility.yul\":16671:16674   */\n      dup2\n        /* \"#utility.yul\":16664:16674   */\n      swap1\n      pop\n        /* \"#utility.yul\":16424:16680   */\n      swap3\n      swap2\n      pop\n      pop\n      jump\t// out\n        /* \"#utility.yul\":16686:16866   */\n    tag_71:\n        /* \"#utility.yul\":16734:16811   */\n      0x4e487b7100000000000000000000000000000000000000000000000000000000\n        /* \"#utility.yul\":16731:16732   */\n      0x00\n        /* \"#utility.yul\":16724:16812   */\n      mstore\n        /* \"#utility.yul\":16831:16835   */\n      0x32\n        /* \"#utility.yul\":16828:16829   */\n      0x04\n        /* \"#utility.yul\":16821:16836   */\n      mstore\n        /* \"#utility.yul\":16855:16859   */\n      0x24\n        /* \"#utility.yul\":16852:16853   */\n      0x00\n        /* \"#utility.yul\":16845:16860   */\n      revert\n        /* \"#utility.yul\":16872:17020   */\n    tag_401:\n        /* \"#utility.yul\":16974:16985   */\n      0x00\n        /* \"#utility.yul\":17011:17014   */\n      dup2\n        /* \"#utility.yul\":16996:17014   */\n      swap1\n      pop\n        /* \"#utility.yul\":16872:17020   */\n      swap3\n      swap2\n      pop\n      pop\n      jump\t// out\n        /* \"#utility.yul\":17026:17416   */\n    tag_402:\n        /* \"#utility.yul\":17132:17135   */\n      0x00\n        /* \"#utility.yul\":17160:17199   */\n      tag_590\n        /* \"#utility.yul\":17193:17198   */\n      dup3\n        /* \"#utility.yul\":17160:17199   */\n      tag_381\n      jump\t// in\n    tag_590:\n        /* \"#utility.yul\":17215:17304   */\n      tag_591\n        /* \"#utility.yul\":17297:17303   */\n      dup2\n        /* \"#utility.yul\":17292:17295   */\n      dup6\n        /* \"#utility.yul\":17215:17304   */\n      tag_401\n      jump\t// in\n    tag_591:\n        /* \"#utility.yul\":17208:17304   */\n      swap4\n      pop\n        /* \"#utility.yul\":17313:17378   */\n      tag_592\n        /* \"#utility.yul\":17371:17377   */\n      dup2\n        /* \"#utility.yul\":17366:17369   */\n      dup6\n        /* \"#utility.yul\":17359:17363   */\n      0x20\n        /* \"#utility.yul\":17352:17357   */\n      dup7\n        /* \"#utility.yul\":17348:17364   */\n      add\n        /* \"#utility.yul\":17313:17378   */\n      tag_383\n      jump\t// in\n    tag_592:\n        /* \"#utility.yul\":17403:17409   */\n      dup1\n        /* \"#utility.yul\":17398:17401   */\n      dup5\n        /* \"#utility.yul\":17394:17410   */\n      add\n        /* \"#utility.yul\":17387:17410   */\n      swap2\n      pop\n        /* \"#utility.yul\":17136:17416   */\n      pop\n        /* \"#utility.yul\":17026:17416   */\n      swap3\n      swap2\n      pop\n      pop\n      jump\t// out\n        /* \"#utility.yul\":17422:17697   */\n    tag_76:\n        /* \"#utility.yul\":17554:17557   */\n      0x00\n        /* \"#utility.yul\":17576:17671   */\n      tag_594\n        /* \"#utility.yul\":17667:17670   */\n      dup3\n        /* \"#utility.yul\":17658:17664   */\n      dup5\n        /* \"#utility.yul\":17576:17671   */\n      tag_402\n      jump\t// in\n    tag_594:\n        /* \"#utility.yul\":17569:17671   */\n      swap2\n      pop\n        /* \"#utility.yul\":17688:17691   */\n      dup2\n        /* \"#utility.yul\":17681:17691   */\n      swap1\n      pop\n        /* \"#utility.yul\":17422:17697   */\n      swap3\n      swap2\n      pop\n      pop\n      jump\t// out\n        /* \"#utility.yul\":17703:17883   */\n    tag_403:\n        /* \"#utility.yul\":17751:17828   */\n      0x4e487b7100000000000000000000000000000000000000000000000000000000\n        /* \"#utility.yul\":17748:17749   */\n      0x00\n        /* \"#utility.yul\":17741:17829   */\n      mstore\n        /* \"#utility.yul\":17848:17852   */\n      0x22\n        /* \"#utility.yul\":17845:17846   */\n      0x04\n        /* \"#utility.yul\":17838:17853   */\n      mstore\n        /* \"#utility.yul\":17872:17876   */\n      0x24\n        /* \"#utility.yul\":17869:17870   */\n      0x00\n        /* \"#utility.yul\":17862:17877   */\n      revert\n        /* \"#utility.yul\":17889:18209   */\n    tag_99:\n        /* \"#utility.yul\":17933:17939   */\n      0x00\n        /* \"#utility.yul\":17970:17971   */\n      0x02\n        /* \"#utility.yul\":17964:17968   */\n      dup3\n        /* \"#utility.yul\":17960:17972   */\n      div\n        /* \"#utility.yul\":17950:17972   */\n      swap1\n      pop\n        /* \"#utility.yul\":18017:18018   */\n      0x01\n        /* \"#utility.yul\":18011:18015   */\n      dup3\n        /* \"#utility.yul\":18007:18019   */\n      and\n        /* \"#utility.yul\":18038:18056   */\n      dup1\n        /* \"#utility.yul\":18028:18109   */\n      tag_597\n      jumpi\n        /* \"#utility.yul\":18094:18098   */\n      0x7f\n        /* \"#utility.yul\":18086:18092   */\n      dup3\n        /* \"#utility.yul\":18082:18099   */\n      and\n        /* \"#utility.yul\":18072:18099   */\n      swap2\n      pop\n        /* \"#utility.yul\":18028:18109   */\n    tag_597:\n        /* \"#utility.yul\":18156:18158   */\n      0x20\n        /* \"#utility.yul\":18148:18154   */\n      dup3\n        /* \"#utility.yul\":18145:18159   */\n      lt\n        /* \"#utility.yul\":18125:18143   */\n      dup2\n        /* \"#utility.yul\":18122:18160   */\n      sub\n        /* \"#utility.yul\":18119:18203   */\n      tag_598\n      jumpi\n        /* \"#utility.yul\":18175:18193   */\n      tag_599\n      tag_403\n      jump\t// in\n    tag_599:\n        /* \"#utility.yul\":18119:18203   */\n    tag_598:\n        /* \"#utility.yul\":17940:18209   */\n      pop\n        /* \"#utility.yul\":17889:18209   */\n      swap2\n      swap1\n      pop\n      jump\t// out\n        /* \"#utility.yul\":18215:18356   */\n    tag_404:\n        /* \"#utility.yul\":18264:18268   */\n      0x00\n        /* \"#utility.yul\":18287:18290   */\n      dup2\n        /* \"#utility.yul\":18279:18290   */\n      swap1\n      pop\n        /* \"#utility.yul\":18310:18313   */\n      dup2\n        /* \"#utility.yul\":18307:18308   */\n      0x00\n        /* \"#utility.yul\":18300:18314   */\n      mstore\n        /* \"#utility.yul\":18344:18348   */\n      0x20\n        /* \"#utility.yul\":18341:18342   */\n      0x00\n        /* \"#utility.yul\":18331:18349   */\n      keccak256\n        /* \"#utility.yul\":18323:18349   */\n      swap1\n      pop\n        /* \"#utility.yul\":18215:18356   */\n      swap2\n      swap1\n      pop\n      jump\t// out\n        /* \"#utility.yul\":18386:19260   */\n    tag_405:\n        /* \"#utility.yul\":18489:18492   */\n      0x00\n        /* \"#utility.yul\":18526:18531   */\n      dup2\n        /* \"#utility.yul\":18520:18532   */\n      sload\n        /* \"#utility.yul\":18555:18591   */\n      tag_602\n        /* \"#utility.yul\":18581:18590   */\n      dup2\n        /* \"#utility.yul\":18555:18591   */\n      tag_99\n      jump\t// in\n    tag_602:\n        /* \"#utility.yul\":18607:18696   */\n      tag_603\n        /* \"#utility.yul\":18689:18695   */\n      dup2\n        /* \"#utility.yul\":18684:18687   */\n      dup7\n        /* \"#utility.yul\":18607:18696   */\n      tag_401\n      jump\t// in\n    tag_603:\n        /* \"#utility.yul\":18600:18696   */\n      swap5\n      pop\n        /* \"#utility.yul\":18727:18728   */\n      0x01\n        /* \"#utility.yul\":18716:18725   */\n      dup3\n        /* \"#utility.yul\":18712:18729   */\n      and\n        /* \"#utility.yul\":18743:18744   */\n      0x00\n        /* \"#utility.yul\":18738:18904   */\n      dup2\n      eq\n      tag_605\n      jumpi\n        /* \"#utility.yul\":18918:18919   */\n      0x01\n        /* \"#utility.yul\":18913:19254   */\n      dup2\n      eq\n      tag_606\n      jumpi\n        /* \"#utility.yul\":18705:19254   */\n      jump(tag_604)\n        /* \"#utility.yul\":18738:18904   */\n    tag_605:\n        /* \"#utility.yul\":18822:18826   */\n      0xff\n        /* \"#utility.yul\":18818:18827   */\n      not\n        /* \"#utility.yul\":18807:18816   */\n      dup4\n        /* \"#utility.yul\":18803:18828   */\n      and\n        /* \"#utility.yul\":18798:18801   */\n      dup7\n        /* \"#utility.yul\":18791:18829   */\n      mstore\n        /* \"#utility.yul\":18884:18890   */\n      dup2\n        /* \"#utility.yul\":18877:18891   */\n      iszero\n        /* \"#utility.yul\":18870:18892   */\n      iszero\n        /* \"#utility.yul\":18862:18868   */\n      dup3\n        /* \"#utility.yul\":18858:18893   */\n      mul\n        /* \"#utility.yul\":18853:18856   */\n      dup7\n        /* \"#utility.yul\":18849:18894   */\n      add\n        /* \"#utility.yul\":18842:18894   */\n      swap4\n      pop\n        /* \"#utility.yul\":18738:18904   */\n      jump(tag_604)\n        /* \"#utility.yul\":18913:19254   */\n    tag_606:\n        /* \"#utility.yul\":18980:19018   */\n      tag_607\n        /* \"#utility.yul\":19012:19017   */\n      dup6\n        /* \"#utility.yul\":18980:19018   */\n      tag_404\n      jump\t// in\n    tag_607:\n        /* \"#utility.yul\":19040:19041   */\n      0x00\n        /* \"#utility.yul\":19054:19208   */\n    tag_608:\n        /* \"#utility.yul\":19068:19074   */\n      dup4\n        /* \"#utility.yul\":19065:19066   */\n      dup2\n        /* \"#utility.yul\":19062:19075   */\n      lt\n        /* \"#utility.yul\":19054:19208   */\n      iszero\n      tag_610\n      jumpi\n        /* \"#utility.yul\":19142:19149   */\n      dup2\n        /* \"#utility.yul\":19136:19150   */\n      sload\n        /* \"#utility.yul\":19132:19133   */\n      dup2\n        /* \"#utility.yul\":19127:19130   */\n      dup10\n        /* \"#utility.yul\":19123:19134   */\n      add\n        /* \"#utility.yul\":19116:19151   */\n      mstore\n        /* \"#utility.yul\":19192:19193   */\n      0x01\n        /* \"#utility.yul\":19183:19190   */\n      dup3\n        /* \"#utility.yul\":19179:19194   */\n      add\n        /* \"#utility.yul\":19168:19194   */\n      swap2\n      pop\n        /* \"#utility.yul\":19090:19094   */\n      0x20\n        /* \"#utility.yul\":19087:19088   */\n      dup2\n        /* \"#utility.yul\":19083:19095   */\n      add\n        /* \"#utility.yul\":19078:19095   */\n      swap1\n      pop\n        /* \"#utility.yul\":19054:19208   */\n      jump(tag_608)\n    tag_610:\n        /* \"#utility.yul\":19237:19243   */\n      dup4\n        /* \"#utility.yul\":19232:19235   */\n      dup9\n        /* \"#utility.yul\":19228:19244   */\n      add\n        /* \"#utility.yul\":19221:19244   */\n      swap6\n      pop\n        /* \"#utility.yul\":18920:19254   */\n      pop\n      pop\n        /* \"#utility.yul\":18705:19254   */\n    tag_604:\n      pop\n        /* \"#utility.yul\":18493:19260   */\n      pop\n      pop\n        /* \"#utility.yul\":18386:19260   */\n      swap3\n      swap2\n      pop\n      pop\n      jump\t// out\n        /* \"#utility.yul\":19266:19535   */\n    tag_81:\n        /* \"#utility.yul\":19395:19398   */\n      0x00\n        /* \"#utility.yul\":19417:19509   */\n      tag_612\n        /* \"#utility.yul\":19505:19508   */\n      dup3\n        /* \"#utility.yul\":19496:19502   */\n      dup5\n        /* \"#utility.yul\":19417:19509   */\n      tag_405\n      jump\t// in\n    tag_612:\n        /* \"#utility.yul\":19410:19509   */\n      swap2\n      pop\n        /* \"#utility.yul\":19526:19529   */\n      dup2\n        /* \"#utility.yul\":19519:19529   */\n      swap1\n      pop\n        /* \"#utility.yul\":19266:19535   */\n      swap3\n      swap2\n      pop\n      pop\n      jump\t// out\n        /* \"#utility.yul\":19541:19769   */\n    tag_406:\n        /* \"#utility.yul\":19681:19715   */\n      0x4f6e6c792063616d706169676e20636f6e74726163742063616c6c2074686973\n        /* \"#utility.yul\":19677:19678   */\n      0x00\n        /* \"#utility.yul\":19669:19675   */\n      dup3\n        /* \"#utility.yul\":19665:19679   */\n      add\n        /* \"#utility.yul\":19658:19716   */\n      mstore\n        /* \"#utility.yul\":19750:19761   */\n      0x2066756e6374696f6e0000000000000000000000000000000000000000000000\n        /* \"#utility.yul\":19745:19747   */\n      0x20\n        /* \"#utility.yul\":19737:19743   */\n      dup3\n        /* \"#utility.yul\":19733:19748   */\n      add\n        /* \"#utility.yul\":19726:19762   */\n      mstore\n        /* \"#utility.yul\":19541:19769   */\n      pop\n      jump\t// out\n        /* \"#utility.yul\":19775:20141   */\n    tag_407:\n        /* \"#utility.yul\":19917:19920   */\n      0x00\n        /* \"#utility.yul\":19938:20005   */\n      tag_615\n        /* \"#utility.yul\":20002:20004   */\n      0x29\n        /* \"#utility.yul\":19997:20000   */\n      dup4\n        /* \"#utility.yul\":19938:20005   */\n      tag_382\n      jump\t// in\n    tag_615:\n        /* \"#utility.yul\":19931:20005   */\n      swap2\n      pop\n        /* \"#utility.yul\":20014:20107   */\n      tag_616\n        /* \"#utility.yul\":20103:20106   */\n      dup3\n        /* \"#utility.yul\":20014:20107   */\n      tag_406\n      jump\t// in\n    tag_616:\n        /* \"#utility.yul\":20132:20134   */\n      0x40\n        /* \"#utility.yul\":20127:20130   */\n      dup3\n        /* \"#utility.yul\":20123:20135   */\n      add\n        /* \"#utility.yul\":20116:20135   */\n      swap1\n      pop\n        /* \"#utility.yul\":19775:20141   */\n      swap2\n      swap1\n      pop\n      jump\t// out\n        /* \"#utility.yul\":20147:20566   */\n    tag_86:\n        /* \"#utility.yul\":20313:20317   */\n      0x00\n        /* \"#utility.yul\":20351:20353   */\n      0x20\n        /* \"#utility.yul\":20340:20349   */\n      dup3\n        /* \"#utility.yul\":20336:20354   */\n      add\n        /* \"#utility.yul\":20328:20354   */\n      swap1\n      pop\n        /* \"#utility.yul\":20400:20409   */\n      dup2\n        /* \"#utility.yul\":20394:20398   */\n      dup2\n        /* \"#utility.yul\":20390:20410   */\n      sub\n        /* \"#utility.yul\":20386:20387   */\n      0x00\n        /* \"#utility.yul\":20375:20384   */\n      dup4\n        /* \"#utility.yul\":20371:20388   */\n      add\n        /* \"#utility.yul\":20364:20411   */\n      mstore\n        /* \"#utility.yul\":20428:20559   */\n      tag_618\n        /* \"#utility.yul\":20554:20558   */\n      dup2\n        /* \"#utility.yul\":20428:20559   */\n      tag_407\n      jump\t// in\n    tag_618:\n        /* \"#utility.yul\":20420:20559   */\n      swap1\n      pop\n        /* \"#utility.yul\":20147:20566   */\n      swap2\n      swap1\n      pop\n      jump\t// out\n        /* \"#utility.yul\":20572:20665   */\n    tag_408:\n        /* \"#utility.yul\":20609:20615   */\n      0x00\n        /* \"#utility.yul\":20656:20658   */\n      0x20\n        /* \"#utility.yul\":20651:20653   */\n      0x1f\n        /* \"#utility.yul\":20644:20649   */\n      dup4\n        /* \"#utility.yul\":20640:20654   */\n      add\n        /* \"#utility.yul\":20636:20659   */\n      div\n        /* \"#utility.yul\":20626:20659   */\n      swap1\n      pop\n        /* \"#utility.yul\":20572:20665   */\n      swap2\n      swap1\n      pop\n      jump\t// out\n        /* \"#utility.yul\":20671:20778   */\n    tag_409:\n        /* \"#utility.yul\":20715:20723   */\n      0x00\n        /* \"#utility.yul\":20765:20770   */\n      dup3\n        /* \"#utility.yul\":20759:20763   */\n      dup3\n        /* \"#utility.yul\":20755:20771   */\n      shl\n        /* \"#utility.yul\":20734:20771   */\n      swap1\n      pop\n        /* \"#utility.yul\":20671:20778   */\n      swap3\n      swap2\n      pop\n      pop\n      jump\t// out\n        /* \"#utility.yul\":20784:21177   */\n    tag_410:\n        /* \"#utility.yul\":20853:20859   */\n      0x00\n        /* \"#utility.yul\":20903:20904   */\n      0x08\n        /* \"#utility.yul\":20891:20901   */\n      dup4\n        /* \"#utility.yul\":20887:20905   */\n      mul\n        /* \"#utility.yul\":20926:21023   */\n      tag_622\n        /* \"#utility.yul\":20956:21022   */\n      0xffffffffffffffffffffffffffffffffffffffffffffffffffffffffffffffff\n        /* \"#utility.yul\":20945:20954   */\n      dup3\n        /* \"#utility.yul\":20926:21023   */\n      tag_409\n      jump\t// in\n    tag_622:\n        /* \"#utility.yul\":21044:21083   */\n      tag_623\n        /* \"#utility.yul\":21074:21082   */\n      dup7\n        /* \"#utility.yul\":21063:21072   */\n      dup4\n        /* \"#utility.yul\":21044:21083   */\n      tag_409\n      jump\t// in\n    tag_623:\n        /* \"#utility.yul\":21032:21083   */\n      swap6\n      pop\n        /* \"#utility.yul\":21116:21120   */\n      dup1\n        /* \"#utility.yul\":21112:21121   */\n      not\n        /* \"#utility.yul\":21105:21110   */\n      dup5\n        /* \"#utility.yul\":21101:21122   */\n      and\n        /* \"#utility.yul\":21092:21122   */\n      swap4\n      pop\n        /* \"#utility.yul\":21165:21169   */\n      dup1\n        /* \"#utility.yul\":21155:21163   */\n      dup7\n        /* \"#utility.yul\":21151:21170   */\n      and\n        /* \"#utility.yul\":21144:21149   */\n      dup5\n        /* \"#utility.yul\":21141:21171   */\n      or\n        /* \"#utility.yul\":21131:21171   */\n      swap3\n      pop\n        /* \"#utility.yul\":20860:21177   */\n      pop\n      pop\n        /* \"#utility.yul\":20784:21177   */\n      swap4\n      swap3\n      pop\n      pop\n      pop\n      jump\t// out\n        /* \"#utility.yul\":21183:21243   */\n    tag_411:\n        /* \"#utility.yul\":21211:21214   */\n      0x00\n        /* \"#utility.yul\":21232:21237   */\n      dup2\n        /* \"#utility.yul\":21225:21237   */\n      swap1\n      pop\n        /* \"#utility.yul\":21183:21243   */\n      swap2\n      swap1\n      pop\n      jump\t// out\n        /* \"#utility.yul\":21249:21391   */\n    tag_412:\n        /* \"#utility.yul\":21299:21308   */\n      0x00\n        /* \"#utility.yul\":21332:21385   */\n      tag_626\n        /* \"#utility.yul\":21350:21384   */\n      tag_627\n        /* \"#utility.yul\":21359:21383   */\n      tag_628\n        /* \"#utility.yul\":21377:21382   */\n      dup5\n        /* \"#utility.yul\":21359:21383   */\n      tag_376\n      jump\t// in\n    tag_628:\n        /* \"#utility.yul\":21350:21384   */\n      tag_411\n      jump\t// in\n    tag_627:\n        /* \"#utility.yul\":21332:21385   */\n      tag_376\n      jump\t// in\n    tag_626:\n        /* \"#utility.yul\":21319:21385   */\n      swap1\n      pop\n        /* \"#utility.yul\":21249:21391   */\n      swap2\n      swap1\n      pop\n      jump\t// out\n        /* \"#utility.yul\":21397:21472   */\n    tag_413:\n        /* \"#utility.yul\":21440:21443   */\n      0x00\n        /* \"#utility.yul\":21461:21466   */\n      dup2\n        /* \"#utility.yul\":21454:21466   */\n      swap1\n      pop\n        /* \"#utility.yul\":21397:21472   */\n      swap2\n      swap1\n      pop\n      jump\t// out\n        /* \"#utility.yul\":21478:21747   */\n    tag_414:\n        /* \"#utility.yul\":21588:21627   */\n      tag_631\n        /* \"#utility.yul\":21619:21626   */\n      dup4\n        /* \"#utility.yul\":21588:21627   */\n      tag_412\n      jump\t// in\n    tag_631:\n        /* \"#utility.yul\":21649:21740   */\n      tag_632\n        /* \"#utility.yul\":21698:21739   */\n      tag_633\n        /* \"#utility.yul\":21722:21738   */\n      dup3\n        /* \"#utility.yul\":21698:21739   */\n      tag_413\n      jump\t// in\n    tag_633:\n        /* \"#utility.yul\":21690:21696   */\n      dup5\n        /* \"#utility.yul\":21683:21687   */\n      dup5\n        /* \"#utility.yul\":21677:21688   */\n      sload\n        /* \"#utility.yul\":21649:21740   */\n      tag_410\n      jump\t// in\n    tag_632:\n        /* \"#utility.yul\":21643:21647   */\n      dup3\n        /* \"#utility.yul\":21636:21741   */\n      sstore\n        /* \"#utility.yul\":21554:21747   */\n      pop\n        /* \"#utility.yul\":21478:21747   */\n      pop\n      pop\n      pop\n      jump\t// out\n        /* \"#utility.yul\":21753:21826   */\n    tag_415:\n        /* \"#utility.yul\":21798:21801   */\n      0x00\n        /* \"#utility.yul\":21753:21826   */\n      swap1\n      jump\t// out\n        /* \"#utility.yul\":21832:22021   */\n    tag_416:\n        /* \"#utility.yul\":21909:21941   */\n      tag_636\n      tag_415\n      jump\t// in\n    tag_636:\n        /* \"#utility.yul\":21950:22015   */\n      tag_637\n        /* \"#utility.yul\":22008:22014   */\n      dup2\n        /* \"#utility.yul\":22000:22006   */\n      dup5\n        /* \"#utility.yul\":21994:21998   */\n      dup5\n        /* \"#utility.yul\":21950:22015   */\n      tag_414\n      jump\t// in\n    tag_637:\n        /* \"#utility.yul\":21885:22021   */\n      pop\n        /* \"#utility.yul\":21832:22021   */\n      pop\n      pop\n      jump\t// out\n        /* \"#utility.yul\":22027:22213   */\n    tag_417:\n        /* \"#utility.yul\":22087:22207   */\n    tag_639:\n        /* \"#utility.yul\":22104:22107   */\n      dup2\n        /* \"#utility.yul\":22097:22102   */\n      dup2\n        /* \"#utility.yul\":22094:22108   */\n      lt\n        /* \"#utility.yul\":22087:22207   */\n      iszero\n      tag_641\n      jumpi\n        /* \"#utility.yul\":22158:22197   */\n      tag_642\n        /* \"#utility.yul\":22195:22196   */\n      0x00\n        /* \"#utility.yul\":22188:22193   */\n      dup3\n        /* \"#utility.yul\":22158:22197   */\n      tag_416\n      jump\t// in\n    tag_642:\n        /* \"#utility.yul\":22131:22132   */\n      0x01\n        /* \"#utility.yul\":22124:22129   */\n      dup2\n        /* \"#utility.yul\":22120:22133   */\n      add\n        /* \"#utility.yul\":22111:22133   */\n      swap1\n      pop\n        /* \"#utility.yul\":22087:22207   */\n      jump(tag_639)\n    tag_641:\n        /* \"#utility.yul\":22027:22213   */\n      pop\n      pop\n      jump\t// out\n        /* \"#utility.yul\":22219:22762   */\n    tag_418:\n        /* \"#utility.yul\":22320:22322   */\n      0x1f\n        /* \"#utility.yul\":22315:22318   */\n      dup3\n        /* \"#utility.yul\":22312:22323   */\n      gt\n        /* \"#utility.yul\":22309:22755   */\n      iszero\n      tag_644\n      jumpi\n        /* \"#utility.yul\":22354:22392   */\n      tag_645\n        /* \"#utility.yul\":22386:22391   */\n      dup2\n        /* \"#utility.yul\":22354:22392   */\n      tag_404\n      jump\t// in\n    tag_645:\n        /* \"#utility.yul\":22438:22467   */\n      tag_646\n        /* \"#utility.yul\":22456:22466   */\n      dup5\n        /* \"#utility.yul\":22438:22467   */\n      tag_408\n      jump\t// in\n    tag_646:\n        /* \"#utility.yul\":22428:22436   */\n      dup2\n        /* \"#utility.yul\":22424:22468   */\n      add\n        /* \"#utility.yul\":22621:22623   */\n      0x20\n        /* \"#utility.yul\":22609:22619   */\n      dup6\n        /* \"#utility.yul\":22606:22624   */\n      lt\n        /* \"#utility.yul\":22603:22652   */\n      iszero\n      tag_647\n      jumpi\n        /* \"#utility.yul\":22642:22650   */\n      dup2\n        /* \"#utility.yul\":22627:22650   */\n      swap1\n      pop\n        /* \"#utility.yul\":22603:22652   */\n    tag_647:\n        /* \"#utility.yul\":22665:22745   */\n      tag_648\n        /* \"#utility.yul\":22721:22743   */\n      tag_649\n        /* \"#utility.yul\":22739:22742   */\n      dup6\n        /* \"#utility.yul\":22721:22743   */\n      tag_408\n      jump\t// in\n    tag_649:\n        /* \"#utility.yul\":22711:22719   */\n      dup4\n        /* \"#utility.yul\":22707:22744   */\n      add\n        /* \"#utility.yul\":22694:22705   */\n      dup3\n        /* \"#utility.yul\":22665:22745   */\n      tag_417\n      jump\t// in\n    tag_648:\n        /* \"#utility.yul\":22324:22755   */\n      pop\n      pop\n        /* \"#utility.yul\":22309:22755   */\n    tag_644:\n        /* \"#utility.yul\":22219:22762   */\n      pop\n      pop\n      pop\n      jump\t// out\n        /* \"#utility.yul\":22768:22885   */\n    tag_419:\n        /* \"#utility.yul\":22822:22830   */\n      0x00\n        /* \"#utility.yul\":22872:22877   */\n      dup3\n        /* \"#utility.yul\":22866:22870   */\n      dup3\n        /* \"#utility.yul\":22862:22878   */\n      shr\n        /* \"#utility.yul\":22841:22878   */\n      swap1\n      pop\n        /* \"#utility.yul\":22768:22885   */\n      swap3\n      swap2\n      pop\n      pop\n      jump\t// out\n        /* \"#utility.yul\":22891:23060   */\n    tag_420:\n        /* \"#utility.yul\":22935:22941   */\n      0x00\n        /* \"#utility.yul\":22968:23019   */\n      tag_652\n        /* \"#utility.yul\":23016:23017   */\n      0x00\n        /* \"#utility.yul\":23012:23018   */\n      not\n        /* \"#utility.yul\":23004:23009   */\n      dup5\n        /* \"#utility.yul\":23001:23002   */\n      0x08\n        /* \"#utility.yul\":22997:23010   */\n      mul\n        /* \"#utility.yul\":22968:23019   */\n      tag_419\n      jump\t// in\n    tag_652:\n        /* \"#utility.yul\":22964:23020   */\n      not\n        /* \"#utility.yul\":23049:23053   */\n      dup1\n        /* \"#utility.yul\":23043:23047   */\n      dup4\n        /* \"#utility.yul\":23039:23054   */\n      and\n        /* \"#utility.yul\":23029:23054   */\n      swap2\n      pop\n        /* \"#utility.yul\":22942:23060   */\n      pop\n        /* \"#utility.yul\":22891:23060   */\n      swap3\n      swap2\n      pop\n      pop\n      jump\t// out\n        /* \"#utility.yul\":23065:23360   */\n    tag_421:\n        /* \"#utility.yul\":23141:23145   */\n      0x00\n        /* \"#utility.yul\":23287:23316   */\n      tag_654\n        /* \"#utility.yul\":23312:23315   */\n      dup4\n        /* \"#utility.yul\":23306:23310   */\n      dup4\n        /* \"#utility.yul\":23287:23316   */\n      tag_420\n      jump\t// in\n    tag_654:\n        /* \"#utility.yul\":23279:23316   */\n      swap2\n      pop\n        /* \"#utility.yul\":23349:23352   */\n      dup3\n        /* \"#utility.yul\":23346:23347   */\n      0x02\n        /* \"#utility.yul\":23342:23353   */\n      mul\n        /* \"#utility.yul\":23336:23340   */\n      dup3\n        /* \"#utility.yul\":23333:23354   */\n      or\n        /* \"#utility.yul\":23325:23354   */\n      swap1\n      pop\n        /* \"#utility.yul\":23065:23360   */\n      swap3\n      swap2\n      pop\n      pop\n      jump\t// out\n        /* \"#utility.yul\":23365:24760   */\n    tag_92:\n        /* \"#utility.yul\":23482:23519   */\n      tag_656\n        /* \"#utility.yul\":23515:23518   */\n      dup3\n        /* \"#utility.yul\":23482:23519   */\n      tag_381\n      jump\t// in\n    tag_656:\n        /* \"#utility.yul\":23584:23602   */\n      0xffffffffffffffff\n        /* \"#utility.yul\":23576:23582   */\n      dup2\n        /* \"#utility.yul\":23573:23603   */\n      gt\n        /* \"#utility.yul\":23570:23626   */\n      iszero\n      tag_657\n      jumpi\n        /* \"#utility.yul\":23606:23624   */\n      tag_658\n      tag_133\n      jump\t// in\n    tag_658:\n        /* \"#utility.yul\":23570:23626   */\n    tag_657:\n        /* \"#utility.yul\":23650:23688   */\n      tag_659\n        /* \"#utility.yul\":23682:23686   */\n      dup3\n        /* \"#utility.yul\":23676:23687   */\n      sload\n        /* \"#utility.yul\":23650:23688   */\n      tag_99\n      jump\t// in\n    tag_659:\n        /* \"#utility.yul\":23735:23802   */\n      tag_660\n        /* \"#utility.yul\":23795:23801   */\n      dup3\n        /* \"#utility.yul\":23787:23793   */\n      dup3\n        /* \"#utility.yul\":23781:23785   */\n      dup6\n        /* \"#utility.yul\":23735:23802   */\n      tag_418\n      jump\t// in\n    tag_660:\n        /* \"#utility.yul\":23829:23830   */\n      0x00\n        /* \"#utility.yul\":23853:23857   */\n      0x20\n        /* \"#utility.yul\":23840:23857   */\n      swap1\n      pop\n        /* \"#utility.yul\":23885:23887   */\n      0x1f\n        /* \"#utility.yul\":23877:23883   */\n      dup4\n        /* \"#utility.yul\":23874:23888   */\n      gt\n        /* \"#utility.yul\":23902:23903   */\n      0x01\n        /* \"#utility.yul\":23897:24515   */\n      dup2\n      eq\n      tag_662\n      jumpi\n        /* \"#utility.yul\":24559:24560   */\n      0x00\n        /* \"#utility.yul\":24576:24582   */\n      dup5\n        /* \"#utility.yul\":24573:24650   */\n      iszero\n      tag_663\n      jumpi\n        /* \"#utility.yul\":24625:24634   */\n      dup3\n        /* \"#utility.yul\":24620:24623   */\n      dup8\n        /* \"#utility.yul\":24616:24635   */\n      add\n        /* \"#utility.yul\":24610:24636   */\n      mload\n        /* \"#utility.yul\":24601:24636   */\n      swap1\n      pop\n        /* \"#utility.yul\":24573:24650   */\n    tag_663:\n        /* \"#utility.yul\":24676:24743   */\n      tag_664\n        /* \"#utility.yul\":24736:24742   */\n      dup6\n        /* \"#utility.yul\":24729:24734   */\n      dup3\n        /* \"#utility.yul\":24676:24743   */\n      tag_421\n      jump\t// in\n    tag_664:\n        /* \"#utility.yul\":24670:24674   */\n      dup7\n        /* \"#utility.yul\":24663:24744   */\n      sstore\n        /* \"#utility.yul\":24532:24754   */\n      pop\n        /* \"#utility.yul\":23867:24754   */\n      jump(tag_661)\n        /* \"#utility.yul\":23897:24515   */\n    tag_662:\n        /* \"#utility.yul\":23949:23953   */\n      0x1f\n        /* \"#utility.yul\":23945:23954   */\n      not\n        /* \"#utility.yul\":23937:23943   */\n      dup5\n        /* \"#utility.yul\":23933:23955   */\n      and\n        /* \"#utility.yul\":23983:24020   */\n      tag_665\n        /* \"#utility.yul\":24015:24019   */\n      dup7\n        /* \"#utility.yul\":23983:24020   */\n      tag_404\n      jump\t// in\n    tag_665:\n        /* \"#utility.yul\":24042:24043   */\n      0x00\n        /* \"#utility.yul\":24056:24264   */\n    tag_666:\n        /* \"#utility.yul\":24070:24077   */\n      dup3\n        /* \"#utility.yul\":24067:24068   */\n      dup2\n        /* \"#utility.yul\":24064:24078   */\n      lt\n        /* \"#utility.yul\":24056:24264   */\n      iszero\n      tag_668\n      jumpi\n        /* \"#utility.yul\":24149:24158   */\n      dup5\n        /* \"#utility.yul\":24144:24147   */\n      dup10\n        /* \"#utility.yul\":24140:24159   */\n      add\n        /* \"#utility.yul\":24134:24160   */\n      mload\n        /* \"#utility.yul\":24126:24132   */\n      dup3\n        /* \"#utility.yul\":24119:24161   */\n      sstore\n        /* \"#utility.yul\":24200:24201   */\n      0x01\n        /* \"#utility.yul\":24192:24198   */\n      dup3\n        /* \"#utility.yul\":24188:24202   */\n      add\n        /* \"#utility.yul\":24178:24202   */\n      swap2\n      pop\n        /* \"#utility.yul\":24247:24249   */\n      0x20\n        /* \"#utility.yul\":24236:24245   */\n      dup6\n        /* \"#utility.yul\":24232:24250   */\n      add\n        /* \"#utility.yul\":24219:24250   */\n      swap5\n      pop\n        /* \"#utility.yul\":24093:24097   */\n      0x20\n        /* \"#utility.yul\":24090:24091   */\n      dup2\n        /* \"#utility.yul\":24086:24098   */\n      add\n        /* \"#utility.yul\":24081:24098   */\n      swap1\n      pop\n        /* \"#utility.yul\":24056:24264   */\n      jump(tag_666)\n    tag_668:\n        /* \"#utility.yul\":24292:24298   */\n      dup7\n        /* \"#utility.yul\":24283:24290   */\n      dup4\n        /* \"#utility.yul\":24280:24299   */\n      lt\n        /* \"#utility.yul\":24277:24456   */\n      iszero\n      tag_669\n      jumpi\n        /* \"#utility.yul\":24350:24359   */\n      dup5\n        /* \"#utility.yul\":24345:24348   */\n      dup10\n        /* \"#utility.yul\":24341:24360   */\n      add\n        /* \"#utility.yul\":24335:24361   */\n      mload\n        /* \"#utility.yul\":24393:24441   */\n      tag_670\n        /* \"#utility.yul\":24435:24439   */\n      0x1f\n        /* \"#utility.yul\":24427:24433   */\n      dup10\n        /* \"#utility.yul\":24423:24440   */\n      and\n        /* \"#utility.yul\":24412:24421   */\n      dup3\n        /* \"#utility.yul\":24393:24441   */\n      tag_420\n      jump\t// in\n    tag_670:\n        /* \"#utility.yul\":24385:24391   */\n      dup4\n        /* \"#utility.yul\":24378:24442   */\n      sstore\n        /* \"#utility.yul\":24300:24456   */\n      pop\n        /* \"#utility.yul\":24277:24456   */\n    tag_669:\n        /* \"#utility.yul\":24502:24503   */\n      0x01\n        /* \"#utility.yul\":24498:24499   */\n      0x02\n        /* \"#utility.yul\":24490:24496   */\n      dup9\n        /* \"#utility.yul\":24486:24500   */\n      mul\n        /* \"#utility.yul\":24482:24504   */\n      add\n        /* \"#utility.yul\":24476:24480   */\n      dup9\n        /* \"#utility.yul\":24469:24505   */\n      sstore\n        /* \"#utility.yul\":23904:24515   */\n      pop\n      pop\n      pop\n        /* \"#utility.yul\":23867:24754   */\n    tag_661:\n      pop\n        /* \"#utility.yul\":23457:24760   */\n      pop\n      pop\n      pop\n        /* \"#utility.yul\":23365:24760   */\n      pop\n      pop\n      jump\t// out\n        /* \"#utility.yul\":24766:24946   */\n    tag_422:\n        /* \"#utility.yul\":24814:24891   */\n      0x4e487b7100000000000000000000000000000000000000000000000000000000\n        /* \"#utility.yul\":24811:24812   */\n      0x00\n        /* \"#utility.yul\":24804:24892   */\n      mstore\n        /* \"#utility.yul\":24911:24915   */\n      0x11\n        /* \"#utility.yul\":24908:24909   */\n      0x04\n        /* \"#utility.yul\":24901:24916   */\n      mstore\n        /* \"#utility.yul\":24935:24939   */\n      0x24\n        /* \"#utility.yul\":24932:24933   */\n      0x00\n        /* \"#utility.yul\":24925:24940   */\n      revert\n        /* \"#utility.yul\":24952:25185   */\n    tag_130:\n        /* \"#utility.yul\":24991:24994   */\n      0x00\n        /* \"#utility.yul\":25014:25038   */\n      tag_673\n        /* \"#utility.yul\":25032:25037   */\n      dup3\n        /* \"#utility.yul\":25014:25038   */\n      tag_376\n      jump\t// in\n    tag_673:\n        /* \"#utility.yul\":25005:25038   */\n      swap2\n      pop\n        /* \"#utility.yul\":25060:25126   */\n      0xffffffffffffffffffffffffffffffffffffffffffffffffffffffffffffffff\n        /* \"#utility.yul\":25053:25058   */\n      dup3\n        /* \"#utility.yul\":25050:25127   */\n      sub\n        /* \"#utility.yul\":25047:25150   */\n      tag_674\n      jumpi\n        /* \"#utility.yul\":25130:25148   */\n      tag_675\n      tag_422\n      jump\t// in\n    tag_675:\n        /* \"#utility.yul\":25047:25150   */\n    tag_674:\n        /* \"#utility.yul\":25177:25178   */\n      0x01\n        /* \"#utility.yul\":25170:25175   */\n      dup3\n        /* \"#utility.yul\":25166:25179   */\n      add\n        /* \"#utility.yul\":25159:25179   */\n      swap1\n      pop\n        /* \"#utility.yul\":24952:25185   */\n      swap2\n      swap1\n      pop\n      jump\t// out\n        /* \"#utility.yul\":25191:25373   */\n    tag_423:\n        /* \"#utility.yul\":25331:25365   */\n      0x4f6e6c79206465706c6f7965722063616c6c20746869732066756e6374696f6e\n        /* \"#utility.yul\":25327:25328   */\n      0x00\n        /* \"#utility.yul\":25319:25325   */\n      dup3\n        /* \"#utility.yul\":25315:25329   */\n      add\n        /* \"#utility.yul\":25308:25366   */\n      mstore\n        /* \"#utility.yul\":25191:25373   */\n      pop\n      jump\t// out\n        /* \"#utility.yul\":25379:25745   */\n    tag_424:\n        /* \"#utility.yul\":25521:25524   */\n      0x00\n        /* \"#utility.yul\":25542:25609   */\n      tag_678\n        /* \"#utility.yul\":25606:25608   */\n      0x20\n        /* \"#utility.yul\":25601:25604   */\n      dup4\n        /* \"#utility.yul\":25542:25609   */\n      tag_382\n      jump\t// in\n    tag_678:\n        /* \"#utility.yul\":25535:25609   */\n      swap2\n      pop\n        /* \"#utility.yul\":25618:25711   */\n      tag_679\n        /* \"#utility.yul\":25707:25710   */\n      dup3\n        /* \"#utility.yul\":25618:25711   */\n      tag_423\n      jump\t// in\n    tag_679:\n        /* \"#utility.yul\":25736:25738   */\n      0x20\n        /* \"#utility.yul\":25731:25734   */\n      dup3\n        /* \"#utility.yul\":25727:25739   */\n      add\n        /* \"#utility.yul\":25720:25739   */\n      swap1\n      pop\n        /* \"#utility.yul\":25379:25745   */\n      swap2\n      swap1\n      pop\n      jump\t// out\n        /* \"#utility.yul\":25751:26170   */\n    tag_175:\n        /* \"#utility.yul\":25917:25921   */\n      0x00\n        /* \"#utility.yul\":25955:25957   */\n      0x20\n        /* \"#utility.yul\":25944:25953   */\n      dup3\n        /* \"#utility.yul\":25940:25958   */\n      add\n        /* \"#utility.yul\":25932:25958   */\n      swap1\n      pop\n        /* \"#utility.yul\":26004:26013   */\n      dup2\n        /* \"#utility.yul\":25998:26002   */\n      dup2\n        /* \"#utility.yul\":25994:26014   */\n      sub\n        /* \"#utility.yul\":25990:25991   */\n      0x00\n        /* \"#utility.yul\":25979:25988   */\n      dup4\n        /* \"#utility.yul\":25975:25992   */\n      add\n        /* \"#utility.yul\":25968:26015   */\n      mstore\n        /* \"#utility.yul\":26032:26163   */\n      tag_681\n        /* \"#utility.yul\":26158:26162   */\n      dup2\n        /* \"#utility.yul\":26032:26163   */\n      tag_424\n      jump\t// in\n    tag_681:\n        /* \"#utility.yul\":26024:26163   */\n      swap1\n      pop\n        /* \"#utility.yul\":25751:26170   */\n      swap2\n      swap1\n      pop\n      jump\t// out\n\n    auxdata: 0xa2646970667358221220d28ad54171df97461ebb83afa2d5037f7e839d034114d68b6a9dee070e11345e64736f6c63430008160033\n}\n",
				"bytecode": {
					"linkReferences": {},
					"object": "608060405234801561000f575f80fd5b50335f806101000a81548173ffffffffffffffffffffffffffffffffffffffff021916908373ffffffffffffffffffffffffffffffffffffffff160217905550612d428061005c5f395ff3fe608060405234801561000f575f80fd5b50600436106100a7575f3560e01c8063a3306ae31161006f578063a3306ae31461017c578063add6415d14610198578063b6b52ccd146101b6578063d740bb6c146101e6578063e3726d6614610216578063efdee94f14610246576100a7565b8063048fa3a7146100ab57806331d7adf7146100db578063671f18f7146100f757806392ad672f1461011557806399b3e96a1461014c575b5f80fd5b6100c560048036038101906100c091906121a2565b610264565b6040516100d29190612216565b60405180910390f35b6100f560048036038101906100f09190612262565b6103a8565b005b6100ff6105c2565b60405161010c919061237e565b60405180910390f35b61012f600480360381019061012a9190612397565b6105e7565b60405161014398979695949392919061244b565b60405180910390f35b610166600480360381019061016191906124e3565b61087d565b604051610173919061271c565b60405180910390f35b6101966004803603810190610191919061273c565b610d32565b005b6101a0610e02565b6040516101ad919061271c565b60405180910390f35b6101d060048036038101906101cb91906124e3565b611121565b6040516101dd919061271c565b60405180910390f35b61020060048036038101906101fb91906124e3565b6115d6565b60405161020d919061271c565b60405180910390f35b610230600480360381019061022b91906124e3565b611aca565b60405161023d919061271c565b60405180910390f35b61024e611f7f565b60405161025b919061237e565b60405180910390f35b5f805f90505b60028054905081101561039d578360405160200161028891906127ac565b60405160208183030381529060405280519060200120600282815481106102b2576102b16127c6565b5b905f5260205f2090600802016004015f9054906101000a900473ffffffffffffffffffffffffffffffffffffffff166040516020016102f191906127ac565b60405160208183030381529060405280519060200120148015610381575082604051602001610320919061282d565b604051602081830303815290604052805190602001206002828154811061034a576103496127c6565b5b905f5260205f2090600802016001016040516020016103699190612932565b60405160208183030381529060405280519060200120145b156103905760019150506103a2565b808060010191505061026a565b505f90505b92915050565b60015f9054906101000a900473ffffffffffffffffffffffffffffffffffffffff1673ffffffffffffffffffffffffffffffffffffffff163373ffffffffffffffffffffffffffffffffffffffff1614610437576040517f08c379a000000000000000000000000000000000000000000000000000000000815260040161042e906129b8565b60405180910390fd5b61043f611fa2565b87815f01818152505086816020018190525085816040018190525084816060018190525083816080019073ffffffffffffffffffffffffffffffffffffffff16908173ffffffffffffffffffffffffffffffffffffffff1681525050828160a00181815250505f8160c0019015159081151581525050818160e00181905250600281908060018154018082558091505060019003905f5260205f2090600802015f909190919091505f820151815f015560208201518160010190816105049190612b61565b50604082015181600201908161051a9190612b61565b5060608201518160030190816105309190612b61565b506080820151816004015f6101000a81548173ffffffffffffffffffffffffffffffffffffffff021916908373ffffffffffffffffffffffffffffffffffffffff16021790555060a0820151816005015560c0820151816006015f6101000a81548160ff02191690831515021790555060e08201518160070190816105b59190612b61565b5050505050505050505050565b60015f9054906101000a900473ffffffffffffffffffffffffffffffffffffffff1681565b600281815481106105f6575f80fd5b905f5260205f2090600802015f91509050805f01549080600101805461061b90612870565b80601f016020809104026020016040519081016040528092919081815260200182805461064790612870565b80156106925780601f1061066957610100808354040283529160200191610692565b820191905f5260205f20905b81548152906001019060200180831161067557829003601f168201915b5050505050908060020180546106a790612870565b80601f01602080910402602001604051908101604052809291908181526020018280546106d390612870565b801561071e5780601f106106f55761010080835404028352916020019161071e565b820191905f5260205f20905b81548152906001019060200180831161070157829003601f168201915b50505050509080600301805461073390612870565b80601f016020809104026020016040519081016040528092919081815260200182805461075f90612870565b80156107aa5780601f10610781576101008083540402835291602001916107aa565b820191905f5260205f20905b81548152906001019060200180831161078d57829003601f168201915b505050505090806004015f9054906101000a900473ffffffffffffffffffffffffffffffffffffffff1690806005015490806006015f9054906101000a900460ff16908060070180546107fc90612870565b80601f016020809104026020016040519081016040528092919081815260200182805461082890612870565b80156108735780601f1061084a57610100808354040283529160200191610873565b820191905f5260205f20905b81548152906001019060200180831161085657829003601f168201915b5050505050905088565b60605f805b60028054905081101561092057836040516020016108a0919061282d565b60405160208183030381529060405280519060200120600282815481106108ca576108c96127c6565b5b905f5260205f2090600802016001016040516020016108e99190612932565b604051602081830303815290604052805190602001200361091357818061090f90612c5d565b9250505b8080600101915050610882565b505f8167ffffffffffffffff81111561093c5761093b61207e565b5b60405190808252806020026020018201604052801561097557816020015b610962611fa2565b81526020019060019003908161095a5790505b5090505f91505f5b600280549050811015610d27578460405160200161099b919061282d565b60405160208183030381529060405280519060200120600282815481106109c5576109c46127c6565b5b905f5260205f2090600802016001016040516020016109e49190612932565b6040516020818303038152906040528051906020012003610d1a5760028181548110610a1357610a126127c6565b5b905f5260205f209060080201604051806101000160405290815f8201548152602001600182018054610a4490612870565b80601f0160208091040260200160405190810160405280929190818152602001828054610a7090612870565b8015610abb5780601f10610a9257610100808354040283529160200191610abb565b820191905f5260205f20905b815481529060010190602001808311610a9e57829003601f168201915b50505050508152602001600282018054610ad490612870565b80601f0160208091040260200160405190810160405280929190818152602001828054610b0090612870565b8015610b4b5780601f10610b2257610100808354040283529160200191610b4b565b820191905f5260205f20905b815481529060010190602001808311610b2e57829003601f168201915b50505050508152602001600382018054610b6490612870565b80601f0160208091040260200160405190810160405280929190818152602001828054610b9090612870565b8015610bdb5780601f10610bb257610100808354040283529160200191610bdb565b820191905f5260205f20905b815481529060010190602001808311610bbe57829003601f168201915b50505050508152602001600482015f9054906101000a900473ffffffffffffffffffffffffffffffffffffffff1673ffffffffffffffffffffffffffffffffffffffff1673ffffffffffffffffffffffffffffffffffffffff16815260200160058201548152602001600682015f9054906101000a900460ff16151515158152602001600782018054610c6d90612870565b80601f0160208091040260200160405190810160405280929190818152602001828054610c9990612870565b8015610ce45780601f10610cbb57610100808354040283529160200191610ce4565b820191905f5260205f20905b815481529060010190602001808311610cc757829003601f168201915b505050505081525050828481518110610d0057610cff6127c6565b5b60200260200101819052508280610d1690612c5d565b9350505b808060010191505061097d565b508092505050919050565b5f8054906101000a900473ffffffffffffffffffffffffffffffffffffffff1673ffffffffffffffffffffffffffffffffffffffff163373ffffffffffffffffffffffffffffffffffffffff1614610dbf576040517f08c379a0000000000000000000000000000000000000000000000000000000008152600401610db690612cee565b60405180910390fd5b8060015f6101000a81548173ffffffffffffffffffffffffffffffffffffffff021916908373ffffffffffffffffffffffffffffffffffffffff16021790555050565b60606002805480602002602001604051908101604052809291908181526020015f905b82821015611118578382905f5260205f209060080201604051806101000160405290815f8201548152602001600182018054610e6090612870565b80601f0160208091040260200160405190810160405280929190818152602001828054610e8c90612870565b8015610ed75780601f10610eae57610100808354040283529160200191610ed7565b820191905f5260205f20905b815481529060010190602001808311610eba57829003601f168201915b50505050508152602001600282018054610ef090612870565b80601f0160208091040260200160405190810160405280929190818152602001828054610f1c90612870565b8015610f675780601f10610f3e57610100808354040283529160200191610f67565b820191905f5260205f20905b815481529060010190602001808311610f4a57829003601f168201915b50505050508152602001600382018054610f8090612870565b80601f0160208091040260200160405190810160405280929190818152602001828054610fac90612870565b8015610ff75780601f10610fce57610100808354040283529160200191610ff7565b820191905f5260205f20905b815481529060010190602001808311610fda57829003601f168201915b50505050508152602001600482015f9054906101000a900473ffffffffffffffffffffffffffffffffffffffff1673ffffffffffffffffffffffffffffffffffffffff1673ffffffffffffffffffffffffffffffffffffffff16815260200160058201548152602001600682015f9054906101000a900460ff1615151515815260200160078201805461108990612870565b80601f01602080910402602001604051908101604052809291908181526020018280546110b590612870565b80156111005780601f106110d757610100808354040283529160200191611100565b820191905f5260205f20905b8154815290600101906020018083116110e357829003601f168201915b50505050508152505081526020019060010190610e25565b50505050905090565b60605f805b6002805490508110156111c45783604051602001611144919061282d565b604051602081830303815290604052805190602001206002828154811061116e5761116d6127c6565b5b905f5260205f20906008020160020160405160200161118d9190612932565b60405160208183030381529060405280519060200120036111b75781806111b390612c5d565b9250505b8080600101915050611126565b505f8167ffffffffffffffff8111156111e0576111df61207e565b5b60405190808252806020026020018201604052801561121957816020015b611206611fa2565b8152602001906001900390816111fe5790505b5090505f91505f5b6002805490508110156115cb578460405160200161123f919061282d565b6040516020818303038152906040528051906020012060028281548110611269576112686127c6565b5b905f5260205f2090600802016002016040516020016112889190612932565b60405160208183030381529060405280519060200120036115be57600281815481106112b7576112b66127c6565b5b905f5260205f209060080201604051806101000160405290815f82015481526020016001820180546112e890612870565b80601f016020809104026020016040519081016040528092919081815260200182805461131490612870565b801561135f5780601f106113365761010080835404028352916020019161135f565b820191905f5260205f20905b81548152906001019060200180831161134257829003601f168201915b5050505050815260200160028201805461137890612870565b80601f01602080910402602001604051908101604052809291908181526020018280546113a490612870565b80156113ef5780601f106113c6576101008083540402835291602001916113ef565b820191905f5260205f20905b8154815290600101906020018083116113d257829003601f168201915b5050505050815260200160038201805461140890612870565b80601f016020809104026020016040519081016040528092919081815260200182805461143490612870565b801561147f5780601f106114565761010080835404028352916020019161147f565b820191905f5260205f20905b81548152906001019060200180831161146257829003601f168201915b50505050508152602001600482015f9054906101000a900473ffffffffffffffffffffffffffffffffffffffff1673ffffffffffffffffffffffffffffffffffffffff1673ffffffffffffffffffffffffffffffffffffffff16815260200160058201548152602001600682015f9054906101000a900460ff1615151515815260200160078201805461151190612870565b80601f016020809104026020016040519081016040528092919081815260200182805461153d90612870565b80156115885780601f1061155f57610100808354040283529160200191611588565b820191905f5260205f20905b81548152906001019060200180831161156b57829003601f168201915b5050505050815250508284815181106115a4576115a36127c6565b5b602002602001018190525082806115ba90612c5d565b9350505b8080600101915050611221565b508092505050919050565b60605f805b60028054905081101561167957836040516020016115f9919061282d565b6040516020818303038152906040528051906020012060028281548110611623576116226127c6565b5b905f5260205f2090600802016001016040516020016116429190612932565b604051602081830303815290604052805190602001200361166c57818061166890612c5d565b9250505b80806001019150506115db565b505f8167ffffffffffffffff8111156116955761169461207e565b5b6040519080825280602002602001820160405280156116ce57816020015b6116bb611fa2565b8152602001906001900390816116b35790505b5090505f91505f5b600280549050811015611abf57846040516020016116f4919061282d565b604051602081830303815290604052805190602001206002828154811061171e5761171d6127c6565b5b905f5260205f20906008020160010160405160200161173d9190612932565b6040516020818303038152906040528051906020012014801561179257505f151560028281548110611772576117716127c6565b5b905f5260205f2090600802016006015f9054906101000a900460ff161515145b15611ab257600281815481106117ab576117aa6127c6565b5b905f5260205f209060080201604051806101000160405290815f82015481526020016001820180546117dc90612870565b80601f016020809104026020016040519081016040528092919081815260200182805461180890612870565b80156118535780601f1061182a57610100808354040283529160200191611853565b820191905f5260205f20905b81548152906001019060200180831161183657829003601f168201915b5050505050815260200160028201805461186c90612870565b80601f016020809104026020016040519081016040528092919081815260200182805461189890612870565b80156118e35780601f106118ba576101008083540402835291602001916118e3565b820191905f5260205f20905b8154815290600101906020018083116118c657829003601f168201915b505050505081526020016003820180546118fc90612870565b80601f016020809104026020016040519081016040528092919081815260200182805461192890612870565b80156119735780601f1061194a57610100808354040283529160200191611973565b820191905f5260205f20905b81548152906001019060200180831161195657829003601f168201915b50505050508152602001600482015f9054906101000a900473ffffffffffffffffffffffffffffffffffffffff1673ffffffffffffffffffffffffffffffffffffffff1673ffffffffffffffffffffffffffffffffffffffff16815260200160058201548152602001600682015f9054906101000a900460ff16151515158152602001600782018054611a0590612870565b80601f0160208091040260200160405190810160405280929190818152602001828054611a3190612870565b8015611a7c5780601f10611a5357610100808354040283529160200191611a7c565b820191905f5260205f20905b815481529060010190602001808311611a5f57829003601f168201915b505050505081525050828481518110611a9857611a976127c6565b5b60200260200101819052508280611aae90612c5d565b9350505b80806001019150506116d6565b508092505050919050565b60605f805b600280549050811015611b6d5783604051602001611aed919061282d565b6040516020818303038152906040528051906020012060028281548110611b1757611b166127c6565b5b905f5260205f209060080201600301604051602001611b369190612932565b6040516020818303038152906040528051906020012003611b60578180611b5c90612c5d565b9250505b8080600101915050611acf565b505f8167ffffffffffffffff811115611b8957611b8861207e565b5b604051908082528060200260200182016040528015611bc257816020015b611baf611fa2565b815260200190600190039081611ba75790505b5090505f91505f5b600280549050811015611f745784604051602001611be8919061282d565b6040516020818303038152906040528051906020012060028281548110611c1257611c116127c6565b5b905f5260205f209060080201600301604051602001611c319190612932565b6040516020818303038152906040528051906020012003611f675760028181548110611c6057611c5f6127c6565b5b905f5260205f209060080201604051806101000160405290815f8201548152602001600182018054611c9190612870565b80601f0160208091040260200160405190810160405280929190818152602001828054611cbd90612870565b8015611d085780601f10611cdf57610100808354040283529160200191611d08565b820191905f5260205f20905b815481529060010190602001808311611ceb57829003601f168201915b50505050508152602001600282018054611d2190612870565b80601f0160208091040260200160405190810160405280929190818152602001828054611d4d90612870565b8015611d985780601f10611d6f57610100808354040283529160200191611d98565b820191905f5260205f20905b815481529060010190602001808311611d7b57829003601f168201915b50505050508152602001600382018054611db190612870565b80601f0160208091040260200160405190810160405280929190818152602001828054611ddd90612870565b8015611e285780601f10611dff57610100808354040283529160200191611e28565b820191905f5260205f20905b815481529060010190602001808311611e0b57829003601f168201915b50505050508152602001600482015f9054906101000a900473ffffffffffffffffffffffffffffffffffffffff1673ffffffffffffffffffffffffffffffffffffffff1673ffffffffffffffffffffffffffffffffffffffff16815260200160058201548152602001600682015f9054906101000a900460ff16151515158152602001600782018054611eba90612870565b80601f0160208091040260200160405190810160405280929190818152602001828054611ee690612870565b8015611f315780601f10611f0857610100808354040283529160200191611f31565b820191905f5260205f20905b815481529060010190602001808311611f1457829003601f168201915b505050505081525050828481518110611f4d57611f4c6127c6565b5b60200260200101819052508280611f6390612c5d565b9350505b8080600101915050611bca565b508092505050919050565b5f8054906101000a900473ffffffffffffffffffffffffffffffffffffffff1681565b6040518061010001604052805f81526020016060815260200160608152602001606081526020015f73ffffffffffffffffffffffffffffffffffffffff1681526020015f81526020015f15158152602001606081525090565b5f604051905090565b5f80fd5b5f80fd5b5f73ffffffffffffffffffffffffffffffffffffffff82169050919050565b5f6120358261200c565b9050919050565b6120458161202b565b811461204f575f80fd5b50565b5f813590506120608161203c565b92915050565b5f80fd5b5f80fd5b5f601f19601f8301169050919050565b7f4e487b71000000000000000000000000000000000000000000000000000000005f52604160045260245ffd5b6120b48261206e565b810181811067ffffffffffffffff821117156120d3576120d261207e565b5b80604052505050565b5f6120e5611ffb565b90506120f182826120ab565b919050565b5f67ffffffffffffffff8211156121105761210f61207e565b5b6121198261206e565b9050602081019050919050565b828183375f83830152505050565b5f612146612141846120f6565b6120dc565b9050828152602081018484840111156121625761216161206a565b5b61216d848285612126565b509392505050565b5f82601f83011261218957612188612066565b5b8135612199848260208601612134565b91505092915050565b5f80604083850312156121b8576121b7612004565b5b5f6121c585828601612052565b925050602083013567ffffffffffffffff8111156121e6576121e5612008565b5b6121f285828601612175565b9150509250929050565b5f8115159050919050565b612210816121fc565b82525050565b5f6020820190506122295f830184612207565b92915050565b5f819050919050565b6122418161222f565b811461224b575f80fd5b50565b5f8135905061225c81612238565b92915050565b5f805f805f805f60e0888a03121561227d5761227c612004565b5b5f61228a8a828b0161224e565b975050602088013567ffffffffffffffff8111156122ab576122aa612008565b5b6122b78a828b01612175565b965050604088013567ffffffffffffffff8111156122d8576122d7612008565b5b6122e48a828b01612175565b955050606088013567ffffffffffffffff81111561230557612304612008565b5b6123118a828b01612175565b94505060806123228a828b01612052565b93505060a06123338a828b0161224e565b92505060c088013567ffffffffffffffff81111561235457612353612008565b5b6123608a828b01612175565b91505092959891949750929550565b6123788161202b565b82525050565b5f6020820190506123915f83018461236f565b92915050565b5f602082840312156123ac576123ab612004565b5b5f6123b98482850161224e565b91505092915050565b6123cb8161222f565b82525050565b5f81519050919050565b5f82825260208201905092915050565b5f5b838110156124085780820151818401526020810190506123ed565b5f8484015250505050565b5f61241d826123d1565b61242781856123db565b93506124378185602086016123eb565b6124408161206e565b840191505092915050565b5f6101008201905061245f5f83018b6123c2565b8181036020830152612471818a612413565b905081810360408301526124858189612413565b905081810360608301526124998188612413565b90506124a8608083018761236f565b6124b560a08301866123c2565b6124c260c0830185612207565b81810360e08301526124d48184612413565b90509998505050505050505050565b5f602082840312156124f8576124f7612004565b5b5f82013567ffffffffffffffff81111561251557612514612008565b5b61252184828501612175565b91505092915050565b5f81519050919050565b5f82825260208201905092915050565b5f819050602082019050919050565b61255c8161222f565b82525050565b5f82825260208201905092915050565b5f61257c826123d1565b6125868185612562565b93506125968185602086016123eb565b61259f8161206e565b840191505092915050565b6125b38161202b565b82525050565b6125c2816121fc565b82525050565b5f61010083015f8301516125de5f860182612553565b50602083015184820360208601526125f68282612572565b915050604083015184820360408601526126108282612572565b9150506060830151848203606086015261262a8282612572565b915050608083015161263f60808601826125aa565b5060a083015161265260a0860182612553565b5060c083015161266560c08601826125b9565b5060e083015184820360e086015261267d8282612572565b9150508091505092915050565b5f61269583836125c8565b905092915050565b5f602082019050919050565b5f6126b38261252a565b6126bd8185612534565b9350836020820285016126cf85612544565b805f5b8581101561270a57848403895281516126eb858261268a565b94506126f68361269d565b925060208a019950506001810190506126d2565b50829750879550505050505092915050565b5f6020820190508181035f83015261273481846126a9565b905092915050565b5f6020828403121561275157612750612004565b5b5f61275e84828501612052565b91505092915050565b5f8160601b9050919050565b5f61277d82612767565b9050919050565b5f61278e82612773565b9050919050565b6127a66127a18261202b565b612784565b82525050565b5f6127b78284612795565b60148201915081905092915050565b7f4e487b71000000000000000000000000000000000000000000000000000000005f52603260045260245ffd5b5f81905092915050565b5f612807826123d1565b61281181856127f3565b93506128218185602086016123eb565b80840191505092915050565b5f61283882846127fd565b915081905092915050565b7f4e487b71000000000000000000000000000000000000000000000000000000005f52602260045260245ffd5b5f600282049050600182168061288757607f821691505b60208210810361289a57612899612843565b5b50919050565b5f819050815f5260205f209050919050565b5f81546128be81612870565b6128c881866127f3565b9450600182165f81146128e257600181146128f757612929565b60ff1983168652811515820286019350612929565b612900856128a0565b5f5b8381101561292157815481890152600182019150602081019050612902565b838801955050505b50505092915050565b5f61293d82846128b2565b915081905092915050565b7f4f6e6c792063616d706169676e20636f6e74726163742063616c6c20746869735f8201527f2066756e6374696f6e0000000000000000000000000000000000000000000000602082015250565b5f6129a26029836123db565b91506129ad82612948565b604082019050919050565b5f6020820190508181035f8301526129cf81612996565b9050919050565b5f6020601f8301049050919050565b5f82821b905092915050565b5f60088302612a207fffffffffffffffffffffffffffffffffffffffffffffffffffffffffffffffff826129e5565b612a2a86836129e5565b95508019841693508086168417925050509392505050565b5f819050919050565b5f612a65612a60612a5b8461222f565b612a42565b61222f565b9050919050565b5f819050919050565b612a7e83612a4b565b612a92612a8a82612a6c565b8484546129f1565b825550505050565b5f90565b612aa6612a9a565b612ab1818484612a75565b505050565b5b81811015612ad457612ac95f82612a9e565b600181019050612ab7565b5050565b601f821115612b1957612aea816128a0565b612af3846129d6565b81016020851015612b02578190505b612b16612b0e856129d6565b830182612ab6565b50505b505050565b5f82821c905092915050565b5f612b395f1984600802612b1e565b1980831691505092915050565b5f612b518383612b2a565b9150826002028217905092915050565b612b6a826123d1565b67ffffffffffffffff811115612b8357612b8261207e565b5b612b8d8254612870565b612b98828285612ad8565b5f60209050601f831160018114612bc9575f8415612bb7578287015190505b612bc18582612b46565b865550612c28565b601f198416612bd7866128a0565b5f5b82811015612bfe57848901518255600182019150602085019450602081019050612bd9565b86831015612c1b5784890151612c17601f891682612b2a565b8355505b6001600288020188555050505b505050505050565b7f4e487b71000000000000000000000000000000000000000000000000000000005f52601160045260245ffd5b5f612c678261222f565b91507fffffffffffffffffffffffffffffffffffffffffffffffffffffffffffffffff8203612c9957612c98612c30565b5b600182019050919050565b7f4f6e6c79206465706c6f7965722063616c6c20746869732066756e6374696f6e5f82015250565b5f612cd86020836123db565b9150612ce382612ca4565b602082019050919050565b5f6020820190508181035f830152612d0581612ccc565b905091905056fea2646970667358221220d28ad54171df97461ebb83afa2d5037f7e839d034114d68b6a9dee070e11345e64736f6c63430008160033",
					"opcodes": "PUSH1 0x80 PUSH1 0x40 MSTORE CALLVALUE DUP1 ISZERO PUSH2 0xF JUMPI PUSH0 DUP1 REVERT JUMPDEST POP CALLER PUSH0 DUP1 PUSH2 0x100 EXP DUP2 SLOAD DUP2 PUSH20 0xFFFFFFFFFFFFFFFFFFFFFFFFFFFFFFFFFFFFFFFF MUL NOT AND SWAP1 DUP4 PUSH20 0xFFFFFFFFFFFFFFFFFFFFFFFFFFFFFFFFFFFFFFFF AND MUL OR SWAP1 SSTORE POP PUSH2 0x2D42 DUP1 PUSH2 0x5C PUSH0 CODECOPY PUSH0 RETURN INVALID PUSH1 0x80 PUSH1 0x40 MSTORE CALLVALUE DUP1 ISZERO PUSH2 0xF JUMPI PUSH0 DUP1 REVERT JUMPDEST POP PUSH1 0x4 CALLDATASIZE LT PUSH2 0xA7 JUMPI PUSH0 CALLDATALOAD PUSH1 0xE0 SHR DUP1 PUSH4 0xA3306AE3 GT PUSH2 0x6F JUMPI DUP1 PUSH4 0xA3306AE3 EQ PUSH2 0x17C JUMPI DUP1 PUSH4 0xADD6415D EQ PUSH2 0x198 JUMPI DUP1 PUSH4 0xB6B52CCD EQ PUSH2 0x1B6 JUMPI DUP1 PUSH4 0xD740BB6C EQ PUSH2 0x1E6 JUMPI DUP1 PUSH4 0xE3726D66 EQ PUSH2 0x216 JUMPI DUP1 PUSH4 0xEFDEE94F EQ PUSH2 0x246 JUMPI PUSH2 0xA7 JUMP JUMPDEST DUP1 PUSH4 0x48FA3A7 EQ PUSH2 0xAB JUMPI DUP1 PUSH4 0x31D7ADF7 EQ PUSH2 0xDB JUMPI DUP1 PUSH4 0x671F18F7 EQ PUSH2 0xF7 JUMPI DUP1 PUSH4 0x92AD672F EQ PUSH2 0x115 JUMPI DUP1 PUSH4 0x99B3E96A EQ PUSH2 0x14C JUMPI JUMPDEST PUSH0 DUP1 REVERT JUMPDEST PUSH2 0xC5 PUSH1 0x4 DUP1 CALLDATASIZE SUB DUP2 ADD SWAP1 PUSH2 0xC0 SWAP2 SWAP1 PUSH2 0x21A2 JUMP JUMPDEST PUSH2 0x264 JUMP JUMPDEST PUSH1 0x40 MLOAD PUSH2 0xD2 SWAP2 SWAP1 PUSH2 0x2216 JUMP JUMPDEST PUSH1 0x40 MLOAD DUP1 SWAP2 SUB SWAP1 RETURN JUMPDEST PUSH2 0xF5 PUSH1 0x4 DUP1 CALLDATASIZE SUB DUP2 ADD SWAP1 PUSH2 0xF0 SWAP2 SWAP1 PUSH2 0x2262 JUMP JUMPDEST PUSH2 0x3A8 JUMP JUMPDEST STOP JUMPDEST PUSH2 0xFF PUSH2 0x5C2 JUMP JUMPDEST PUSH1 0x40 MLOAD PUSH2 0x10C SWAP2 SWAP1 PUSH2 0x237E JUMP JUMPDEST PUSH1 0x40 MLOAD DUP1 SWAP2 SUB SWAP1 RETURN JUMPDEST PUSH2 0x12F PUSH1 0x4 DUP1 CALLDATASIZE SUB DUP2 ADD SWAP1 PUSH2 0x12A SWAP2 SWAP1 PUSH2 0x2397 JUMP JUMPDEST PUSH2 0x5E7 JUMP JUMPDEST PUSH1 0x40 MLOAD PUSH2 0x143 SWAP9 SWAP8 SWAP7 SWAP6 SWAP5 SWAP4 SWAP3 SWAP2 SWAP1 PUSH2 0x244B JUMP JUMPDEST PUSH1 0x40 MLOAD DUP1 SWAP2 SUB SWAP1 RETURN JUMPDEST PUSH2 0x166 PUSH1 0x4 DUP1 CALLDATASIZE SUB DUP2 ADD SWAP1 PUSH2 0x161 SWAP2 SWAP1 PUSH2 0x24E3 JUMP JUMPDEST PUSH2 0x87D JUMP JUMPDEST PUSH1 0x40 MLOAD PUSH2 0x173 SWAP2 SWAP1 PUSH2 0x271C JUMP JUMPDEST PUSH1 0x40 MLOAD DUP1 SWAP2 SUB SWAP1 RETURN JUMPDEST PUSH2 0x196 PUSH1 0x4 DUP1 CALLDATASIZE SUB DUP2 ADD SWAP1 PUSH2 0x191 SWAP2 SWAP1 PUSH2 0x273C JUMP JUMPDEST PUSH2 0xD32 JUMP JUMPDEST STOP JUMPDEST PUSH2 0x1A0 PUSH2 0xE02 JUMP JUMPDEST PUSH1 0x40 MLOAD PUSH2 0x1AD SWAP2 SWAP1 PUSH2 0x271C JUMP JUMPDEST PUSH1 0x40 MLOAD DUP1 SWAP2 SUB SWAP1 RETURN JUMPDEST PUSH2 0x1D0 PUSH1 0x4 DUP1 CALLDATASIZE SUB DUP2 ADD SWAP1 PUSH2 0x1CB SWAP2 SWAP1 PUSH2 0x24E3 JUMP JUMPDEST PUSH2 0x1121 JUMP JUMPDEST PUSH1 0x40 MLOAD PUSH2 0x1DD SWAP2 SWAP1 PUSH2 0x271C JUMP JUMPDEST PUSH1 0x40 MLOAD DUP1 SWAP2 SUB SWAP1 RETURN JUMPDEST PUSH2 0x200 PUSH1 0x4 DUP1 CALLDATASIZE SUB DUP2 ADD SWAP1 PUSH2 0x1FB SWAP2 SWAP1 PUSH2 0x24E3 JUMP JUMPDEST PUSH2 0x15D6 JUMP JUMPDEST PUSH1 0x40 MLOAD PUSH2 0x20D SWAP2 SWAP1 PUSH2 0x271C JUMP JUMPDEST PUSH1 0x40 MLOAD DUP1 SWAP2 SUB SWAP1 RETURN JUMPDEST PUSH2 0x230 PUSH1 0x4 DUP1 CALLDATASIZE SUB DUP2 ADD SWAP1 PUSH2 0x22B SWAP2 SWAP1 PUSH2 0x24E3 JUMP JUMPDEST PUSH2 0x1ACA JUMP JUMPDEST PUSH1 0x40 MLOAD PUSH2 0x23D SWAP2 SWAP1 PUSH2 0x271C JUMP JUMPDEST PUSH1 0x40 MLOAD DUP1 SWAP2 SUB SWAP1 RETURN JUMPDEST PUSH2 0x24E PUSH2 0x1F7F JUMP JUMPDEST PUSH1 0x40 MLOAD PUSH2 0x25B SWAP2 SWAP1 PUSH2 0x237E JUMP JUMPDEST PUSH1 0x40 MLOAD DUP1 SWAP2 SUB SWAP1 RETURN JUMPDEST PUSH0 DUP1 PUSH0 SWAP1 POP JUMPDEST PUSH1 0x2 DUP1 SLOAD SWAP1 POP DUP2 LT ISZERO PUSH2 0x39D JUMPI DUP4 PUSH1 0x40 MLOAD PUSH1 0x20 ADD PUSH2 0x288 SWAP2 SWAP1 PUSH2 0x27AC JUMP JUMPDEST PUSH1 0x40 MLOAD PUSH1 0x20 DUP2 DUP4 SUB SUB DUP2 MSTORE SWAP1 PUSH1 0x40 MSTORE DUP1 MLOAD SWAP1 PUSH1 0x20 ADD KECCAK256 PUSH1 0x2 DUP3 DUP2 SLOAD DUP2 LT PUSH2 0x2B2 JUMPI PUSH2 0x2B1 PUSH2 0x27C6 JUMP JUMPDEST JUMPDEST SWAP1 PUSH0 MSTORE PUSH1 0x20 PUSH0 KECCAK256 SWAP1 PUSH1 0x8 MUL ADD PUSH1 0x4 ADD PUSH0 SWAP1 SLOAD SWAP1 PUSH2 0x100 EXP SWAP1 DIV PUSH20 0xFFFFFFFFFFFFFFFFFFFFFFFFFFFFFFFFFFFFFFFF AND PUSH1 0x40 MLOAD PUSH1 0x20 ADD PUSH2 0x2F1 SWAP2 SWAP1 PUSH2 0x27AC JUMP JUMPDEST PUSH1 0x40 MLOAD PUSH1 0x20 DUP2 DUP4 SUB SUB DUP2 MSTORE SWAP1 PUSH1 0x40 MSTORE DUP1 MLOAD SWAP1 PUSH1 0x20 ADD KECCAK256 EQ DUP1 ISZERO PUSH2 0x381 JUMPI POP DUP3 PUSH1 0x40 MLOAD PUSH1 0x20 ADD PUSH2 0x320 SWAP2 SWAP1 PUSH2 0x282D JUMP JUMPDEST PUSH1 0x40 MLOAD PUSH1 0x20 DUP2 DUP4 SUB SUB DUP2 MSTORE SWAP1 PUSH1 0x40 MSTORE DUP1 MLOAD SWAP1 PUSH1 0x20 ADD KECCAK256 PUSH1 0x2 DUP3 DUP2 SLOAD DUP2 LT PUSH2 0x34A JUMPI PUSH2 0x349 PUSH2 0x27C6 JUMP JUMPDEST JUMPDEST SWAP1 PUSH0 MSTORE PUSH1 0x20 PUSH0 KECCAK256 SWAP1 PUSH1 0x8 MUL ADD PUSH1 0x1 ADD PUSH1 0x40 MLOAD PUSH1 0x20 ADD PUSH2 0x369 SWAP2 SWAP1 PUSH2 0x2932 JUMP JUMPDEST PUSH1 0x40 MLOAD PUSH1 0x20 DUP2 DUP4 SUB SUB DUP2 MSTORE SWAP1 PUSH1 0x40 MSTORE DUP1 MLOAD SWAP1 PUSH1 0x20 ADD KECCAK256 EQ JUMPDEST ISZERO PUSH2 0x390 JUMPI PUSH1 0x1 SWAP2 POP POP PUSH2 0x3A2 JUMP JUMPDEST DUP1 DUP1 PUSH1 0x1 ADD SWAP2 POP POP PUSH2 0x26A JUMP JUMPDEST POP PUSH0 SWAP1 POP JUMPDEST SWAP3 SWAP2 POP POP JUMP JUMPDEST PUSH1 0x1 PUSH0 SWAP1 SLOAD SWAP1 PUSH2 0x100 EXP SWAP1 DIV PUSH20 0xFFFFFFFFFFFFFFFFFFFFFFFFFFFFFFFFFFFFFFFF AND PUSH20 0xFFFFFFFFFFFFFFFFFFFFFFFFFFFFFFFFFFFFFFFF AND CALLER PUSH20 0xFFFFFFFFFFFFFFFFFFFFFFFFFFFFFFFFFFFFFFFF AND EQ PUSH2 0x437 JUMPI PUSH1 0x40 MLOAD PUSH32 0x8C379A000000000000000000000000000000000000000000000000000000000 DUP2 MSTORE PUSH1 0x4 ADD PUSH2 0x42E SWAP1 PUSH2 0x29B8 JUMP JUMPDEST PUSH1 0x40 MLOAD DUP1 SWAP2 SUB SWAP1 REVERT JUMPDEST PUSH2 0x43F PUSH2 0x1FA2 JUMP JUMPDEST DUP8 DUP2 PUSH0 ADD DUP2 DUP2 MSTORE POP POP DUP7 DUP2 PUSH1 0x20 ADD DUP2 SWAP1 MSTORE POP DUP6 DUP2 PUSH1 0x40 ADD DUP2 SWAP1 MSTORE POP DUP5 DUP2 PUSH1 0x60 ADD DUP2 SWAP1 MSTORE POP DUP4 DUP2 PUSH1 0x80 ADD SWAP1 PUSH20 0xFFFFFFFFFFFFFFFFFFFFFFFFFFFFFFFFFFFFFFFF AND SWAP1 DUP2 PUSH20 0xFFFFFFFFFFFFFFFFFFFFFFFFFFFFFFFFFFFFFFFF AND DUP2 MSTORE POP POP DUP3 DUP2 PUSH1 0xA0 ADD DUP2 DUP2 MSTORE POP POP PUSH0 DUP2 PUSH1 0xC0 ADD SWAP1 ISZERO ISZERO SWAP1 DUP2 ISZERO ISZERO DUP2 MSTORE POP POP DUP2 DUP2 PUSH1 0xE0 ADD DUP2 SWAP1 MSTORE POP PUSH1 0x2 DUP2 SWAP1 DUP1 PUSH1 0x1 DUP2 SLOAD ADD DUP1 DUP3 SSTORE DUP1 SWAP2 POP POP PUSH1 0x1 SWAP1 SUB SWAP1 PUSH0 MSTORE PUSH1 0x20 PUSH0 KECCAK256 SWAP1 PUSH1 0x8 MUL ADD PUSH0 SWAP1 SWAP2 SWAP1 SWAP2 SWAP1 SWAP2 POP PUSH0 DUP3 ADD MLOAD DUP2 PUSH0 ADD SSTORE PUSH1 0x20 DUP3 ADD MLOAD DUP2 PUSH1 0x1 ADD SWAP1 DUP2 PUSH2 0x504 SWAP2 SWAP1 PUSH2 0x2B61 JUMP JUMPDEST POP PUSH1 0x40 DUP3 ADD MLOAD DUP2 PUSH1 0x2 ADD SWAP1 DUP2 PUSH2 0x51A SWAP2 SWAP1 PUSH2 0x2B61 JUMP JUMPDEST POP PUSH1 0x60 DUP3 ADD MLOAD DUP2 PUSH1 0x3 ADD SWAP1 DUP2 PUSH2 0x530 SWAP2 SWAP1 PUSH2 0x2B61 JUMP JUMPDEST POP PUSH1 0x80 DUP3 ADD MLOAD DUP2 PUSH1 0x4 ADD PUSH0 PUSH2 0x100 EXP DUP2 SLOAD DUP2 PUSH20 0xFFFFFFFFFFFFFFFFFFFFFFFFFFFFFFFFFFFFFFFF MUL NOT AND SWAP1 DUP4 PUSH20 0xFFFFFFFFFFFFFFFFFFFFFFFFFFFFFFFFFFFFFFFF AND MUL OR SWAP1 SSTORE POP PUSH1 0xA0 DUP3 ADD MLOAD DUP2 PUSH1 0x5 ADD SSTORE PUSH1 0xC0 DUP3 ADD MLOAD DUP2 PUSH1 0x6 ADD PUSH0 PUSH2 0x100 EXP DUP2 SLOAD DUP2 PUSH1 0xFF MUL NOT AND SWAP1 DUP4 ISZERO ISZERO MUL OR SWAP1 SSTORE POP PUSH1 0xE0 DUP3 ADD MLOAD DUP2 PUSH1 0x7 ADD SWAP1 DUP2 PUSH2 0x5B5 SWAP2 SWAP1 PUSH2 0x2B61 JUMP JUMPDEST POP POP POP POP POP POP POP POP POP POP POP JUMP JUMPDEST PUSH1 0x1 PUSH0 SWAP1 SLOAD SWAP1 PUSH2 0x100 EXP SWAP1 DIV PUSH20 0xFFFFFFFFFFFFFFFFFFFFFFFFFFFFFFFFFFFFFFFF AND DUP2 JUMP JUMPDEST PUSH1 0x2 DUP2 DUP2 SLOAD DUP2 LT PUSH2 0x5F6 JUMPI PUSH0 DUP1 REVERT JUMPDEST SWAP1 PUSH0 MSTORE PUSH1 0x20 PUSH0 KECCAK256 SWAP1 PUSH1 0x8 MUL ADD PUSH0 SWAP2 POP SWAP1 POP DUP1 PUSH0 ADD SLOAD SWAP1 DUP1 PUSH1 0x1 ADD DUP1 SLOAD PUSH2 0x61B SWAP1 PUSH2 0x2870 JUMP JUMPDEST DUP1 PUSH1 0x1F ADD PUSH1 0x20 DUP1 SWAP2 DIV MUL PUSH1 0x20 ADD PUSH1 0x40 MLOAD SWAP1 DUP2 ADD PUSH1 0x40 MSTORE DUP1 SWAP3 SWAP2 SWAP1 DUP2 DUP2 MSTORE PUSH1 0x20 ADD DUP3 DUP1 SLOAD PUSH2 0x647 SWAP1 PUSH2 0x2870 JUMP JUMPDEST DUP1 ISZERO PUSH2 0x692 JUMPI DUP1 PUSH1 0x1F LT PUSH2 0x669 JUMPI PUSH2 0x100 DUP1 DUP4 SLOAD DIV MUL DUP4 MSTORE SWAP2 PUSH1 0x20 ADD SWAP2 PUSH2 0x692 JUMP JUMPDEST DUP3 ADD SWAP2 SWAP1 PUSH0 MSTORE PUSH1 0x20 PUSH0 KECCAK256 SWAP1 JUMPDEST DUP2 SLOAD DUP2 MSTORE SWAP1 PUSH1 0x1 ADD SWAP1 PUSH1 0x20 ADD DUP1 DUP4 GT PUSH2 0x675 JUMPI DUP3 SWAP1 SUB PUSH1 0x1F AND DUP3 ADD SWAP2 JUMPDEST POP POP POP POP POP SWAP1 DUP1 PUSH1 0x2 ADD DUP1 SLOAD PUSH2 0x6A7 SWAP1 PUSH2 0x2870 JUMP JUMPDEST DUP1 PUSH1 0x1F ADD PUSH1 0x20 DUP1 SWAP2 DIV MUL PUSH1 0x20 ADD PUSH1 0x40 MLOAD SWAP1 DUP2 ADD PUSH1 0x40 MSTORE DUP1 SWAP3 SWAP2 SWAP1 DUP2 DUP2 MSTORE PUSH1 0x20 ADD DUP3 DUP1 SLOAD PUSH2 0x6D3 SWAP1 PUSH2 0x2870 JUMP JUMPDEST DUP1 ISZERO PUSH2 0x71E JUMPI DUP1 PUSH1 0x1F LT PUSH2 0x6F5 JUMPI PUSH2 0x100 DUP1 DUP4 SLOAD DIV MUL DUP4 MSTORE SWAP2 PUSH1 0x20 ADD SWAP2 PUSH2 0x71E JUMP JUMPDEST DUP3 ADD SWAP2 SWAP1 PUSH0 MSTORE PUSH1 0x20 PUSH0 KECCAK256 SWAP1 JUMPDEST DUP2 SLOAD DUP2 MSTORE SWAP1 PUSH1 0x1 ADD SWAP1 PUSH1 0x20 ADD DUP1 DUP4 GT PUSH2 0x701 JUMPI DUP3 SWAP1 SUB PUSH1 0x1F AND DUP3 ADD SWAP2 JUMPDEST POP POP POP POP POP SWAP1 DUP1 PUSH1 0x3 ADD DUP1 SLOAD PUSH2 0x733 SWAP1 PUSH2 0x2870 JUMP JUMPDEST DUP1 PUSH1 0x1F ADD PUSH1 0x20 DUP1 SWAP2 DIV MUL PUSH1 0x20 ADD PUSH1 0x40 MLOAD SWAP1 DUP2 ADD PUSH1 0x40 MSTORE DUP1 SWAP3 SWAP2 SWAP1 DUP2 DUP2 MSTORE PUSH1 0x20 ADD DUP3 DUP1 SLOAD PUSH2 0x75F SWAP1 PUSH2 0x2870 JUMP JUMPDEST DUP1 ISZERO PUSH2 0x7AA JUMPI DUP1 PUSH1 0x1F LT PUSH2 0x781 JUMPI PUSH2 0x100 DUP1 DUP4 SLOAD DIV MUL DUP4 MSTORE SWAP2 PUSH1 0x20 ADD SWAP2 PUSH2 0x7AA JUMP JUMPDEST DUP3 ADD SWAP2 SWAP1 PUSH0 MSTORE PUSH1 0x20 PUSH0 KECCAK256 SWAP1 JUMPDEST DUP2 SLOAD DUP2 MSTORE SWAP1 PUSH1 0x1 ADD SWAP1 PUSH1 0x20 ADD DUP1 DUP4 GT PUSH2 0x78D JUMPI DUP3 SWAP1 SUB PUSH1 0x1F AND DUP3 ADD SWAP2 JUMPDEST POP POP POP POP POP SWAP1 DUP1 PUSH1 0x4 ADD PUSH0 SWAP1 SLOAD SWAP1 PUSH2 0x100 EXP SWAP1 DIV PUSH20 0xFFFFFFFFFFFFFFFFFFFFFFFFFFFFFFFFFFFFFFFF AND SWAP1 DUP1 PUSH1 0x5 ADD SLOAD SWAP1 DUP1 PUSH1 0x6 ADD PUSH0 SWAP1 SLOAD SWAP1 PUSH2 0x100 EXP SWAP1 DIV PUSH1 0xFF AND SWAP1 DUP1 PUSH1 0x7 ADD DUP1 SLOAD PUSH2 0x7FC SWAP1 PUSH2 0x2870 JUMP JUMPDEST DUP1 PUSH1 0x1F ADD PUSH1 0x20 DUP1 SWAP2 DIV MUL PUSH1 0x20 ADD PUSH1 0x40 MLOAD SWAP1 DUP2 ADD PUSH1 0x40 MSTORE DUP1 SWAP3 SWAP2 SWAP1 DUP2 DUP2 MSTORE PUSH1 0x20 ADD DUP3 DUP1 SLOAD PUSH2 0x828 SWAP1 PUSH2 0x2870 JUMP JUMPDEST DUP1 ISZERO PUSH2 0x873 JUMPI DUP1 PUSH1 0x1F LT PUSH2 0x84A JUMPI PUSH2 0x100 DUP1 DUP4 SLOAD DIV MUL DUP4 MSTORE SWAP2 PUSH1 0x20 ADD SWAP2 PUSH2 0x873 JUMP JUMPDEST DUP3 ADD SWAP2 SWAP1 PUSH0 MSTORE PUSH1 0x20 PUSH0 KECCAK256 SWAP1 JUMPDEST DUP2 SLOAD DUP2 MSTORE SWAP1 PUSH1 0x1 ADD SWAP1 PUSH1 0x20 ADD DUP1 DUP4 GT PUSH2 0x856 JUMPI DUP3 SWAP1 SUB PUSH1 0x1F AND DUP3 ADD SWAP2 JUMPDEST POP POP POP POP POP SWAP1 POP DUP9 JUMP JUMPDEST PUSH1 0x60 PUSH0 DUP1 JUMPDEST PUSH1 0x2 DUP1 SLOAD SWAP1 POP DUP2 LT ISZERO PUSH2 0x920 JUMPI DUP4 PUSH1 0x40 MLOAD PUSH1 0x20 ADD PUSH2 0x8A0 SWAP2 SWAP1 PUSH2 0x282D JUMP JUMPDEST PUSH1 0x40 MLOAD PUSH1 0x20 DUP2 DUP4 SUB SUB DUP2 MSTORE SWAP1 PUSH1 0x40 MSTORE DUP1 MLOAD SWAP1 PUSH1 0x20 ADD KECCAK256 PUSH1 0x2 DUP3 DUP2 SLOAD DUP2 LT PUSH2 0x8CA JUMPI PUSH2 0x8C9 PUSH2 0x27C6 JUMP JUMPDEST JUMPDEST SWAP1 PUSH0 MSTORE PUSH1 0x20 PUSH0 KECCAK256 SWAP1 PUSH1 0x8 MUL ADD PUSH1 0x1 ADD PUSH1 0x40 MLOAD PUSH1 0x20 ADD PUSH2 0x8E9 SWAP2 SWAP1 PUSH2 0x2932 JUMP JUMPDEST PUSH1 0x40 MLOAD PUSH1 0x20 DUP2 DUP4 SUB SUB DUP2 MSTORE SWAP1 PUSH1 0x40 MSTORE DUP1 MLOAD SWAP1 PUSH1 0x20 ADD KECCAK256 SUB PUSH2 0x913 JUMPI DUP2 DUP1 PUSH2 0x90F SWAP1 PUSH2 0x2C5D JUMP JUMPDEST SWAP3 POP POP JUMPDEST DUP1 DUP1 PUSH1 0x1 ADD SWAP2 POP POP PUSH2 0x882 JUMP JUMPDEST POP PUSH0 DUP2 PUSH8 0xFFFFFFFFFFFFFFFF DUP2 GT ISZERO PUSH2 0x93C JUMPI PUSH2 0x93B PUSH2 0x207E JUMP JUMPDEST JUMPDEST PUSH1 0x40 MLOAD SWAP1 DUP1 DUP3 MSTORE DUP1 PUSH1 0x20 MUL PUSH1 0x20 ADD DUP3 ADD PUSH1 0x40 MSTORE DUP1 ISZERO PUSH2 0x975 JUMPI DUP2 PUSH1 0x20 ADD JUMPDEST PUSH2 0x962 PUSH2 0x1FA2 JUMP JUMPDEST DUP2 MSTORE PUSH1 0x20 ADD SWAP1 PUSH1 0x1 SWAP1 SUB SWAP1 DUP2 PUSH2 0x95A JUMPI SWAP1 POP JUMPDEST POP SWAP1 POP PUSH0 SWAP2 POP PUSH0 JUMPDEST PUSH1 0x2 DUP1 SLOAD SWAP1 POP DUP2 LT ISZERO PUSH2 0xD27 JUMPI DUP5 PUSH1 0x40 MLOAD PUSH1 0x20 ADD PUSH2 0x99B SWAP2 SWAP1 PUSH2 0x282D JUMP JUMPDEST PUSH1 0x40 MLOAD PUSH1 0x20 DUP2 DUP4 SUB SUB DUP2 MSTORE SWAP1 PUSH1 0x40 MSTORE DUP1 MLOAD SWAP1 PUSH1 0x20 ADD KECCAK256 PUSH1 0x2 DUP3 DUP2 SLOAD DUP2 LT PUSH2 0x9C5 JUMPI PUSH2 0x9C4 PUSH2 0x27C6 JUMP JUMPDEST JUMPDEST SWAP1 PUSH0 MSTORE PUSH1 0x20 PUSH0 KECCAK256 SWAP1 PUSH1 0x8 MUL ADD PUSH1 0x1 ADD PUSH1 0x40 MLOAD PUSH1 0x20 ADD PUSH2 0x9E4 SWAP2 SWAP1 PUSH2 0x2932 JUMP JUMPDEST PUSH1 0x40 MLOAD PUSH1 0x20 DUP2 DUP4 SUB SUB DUP2 MSTORE SWAP1 PUSH1 0x40 MSTORE DUP1 MLOAD SWAP1 PUSH1 0x20 ADD KECCAK256 SUB PUSH2 0xD1A JUMPI PUSH1 0x2 DUP2 DUP2 SLOAD DUP2 LT PUSH2 0xA13 JUMPI PUSH2 0xA12 PUSH2 0x27C6 JUMP JUMPDEST JUMPDEST SWAP1 PUSH0 MSTORE PUSH1 0x20 PUSH0 KECCAK256 SWAP1 PUSH1 0x8 MUL ADD PUSH1 0x40 MLOAD DUP1 PUSH2 0x100 ADD PUSH1 0x40 MSTORE SWAP1 DUP2 PUSH0 DUP3 ADD SLOAD DUP2 MSTORE PUSH1 0x20 ADD PUSH1 0x1 DUP3 ADD DUP1 SLOAD PUSH2 0xA44 SWAP1 PUSH2 0x2870 JUMP JUMPDEST DUP1 PUSH1 0x1F ADD PUSH1 0x20 DUP1 SWAP2 DIV MUL PUSH1 0x20 ADD PUSH1 0x40 MLOAD SWAP1 DUP2 ADD PUSH1 0x40 MSTORE DUP1 SWAP3 SWAP2 SWAP1 DUP2 DUP2 MSTORE PUSH1 0x20 ADD DUP3 DUP1 SLOAD PUSH2 0xA70 SWAP1 PUSH2 0x2870 JUMP JUMPDEST DUP1 ISZERO PUSH2 0xABB JUMPI DUP1 PUSH1 0x1F LT PUSH2 0xA92 JUMPI PUSH2 0x100 DUP1 DUP4 SLOAD DIV MUL DUP4 MSTORE SWAP2 PUSH1 0x20 ADD SWAP2 PUSH2 0xABB JUMP JUMPDEST DUP3 ADD SWAP2 SWAP1 PUSH0 MSTORE PUSH1 0x20 PUSH0 KECCAK256 SWAP1 JUMPDEST DUP2 SLOAD DUP2 MSTORE SWAP1 PUSH1 0x1 ADD SWAP1 PUSH1 0x20 ADD DUP1 DUP4 GT PUSH2 0xA9E JUMPI DUP3 SWAP1 SUB PUSH1 0x1F AND DUP3 ADD SWAP2 JUMPDEST POP POP POP POP POP DUP2 MSTORE PUSH1 0x20 ADD PUSH1 0x2 DUP3 ADD DUP1 SLOAD PUSH2 0xAD4 SWAP1 PUSH2 0x2870 JUMP JUMPDEST DUP1 PUSH1 0x1F ADD PUSH1 0x20 DUP1 SWAP2 DIV MUL PUSH1 0x20 ADD PUSH1 0x40 MLOAD SWAP1 DUP2 ADD PUSH1 0x40 MSTORE DUP1 SWAP3 SWAP2 SWAP1 DUP2 DUP2 MSTORE PUSH1 0x20 ADD DUP3 DUP1 SLOAD PUSH2 0xB00 SWAP1 PUSH2 0x2870 JUMP JUMPDEST DUP1 ISZERO PUSH2 0xB4B JUMPI DUP1 PUSH1 0x1F LT PUSH2 0xB22 JUMPI PUSH2 0x100 DUP1 DUP4 SLOAD DIV MUL DUP4 MSTORE SWAP2 PUSH1 0x20 ADD SWAP2 PUSH2 0xB4B JUMP JUMPDEST DUP3 ADD SWAP2 SWAP1 PUSH0 MSTORE PUSH1 0x20 PUSH0 KECCAK256 SWAP1 JUMPDEST DUP2 SLOAD DUP2 MSTORE SWAP1 PUSH1 0x1 ADD SWAP1 PUSH1 0x20 ADD DUP1 DUP4 GT PUSH2 0xB2E JUMPI DUP3 SWAP1 SUB PUSH1 0x1F AND DUP3 ADD SWAP2 JUMPDEST POP POP POP POP POP DUP2 MSTORE PUSH1 0x20 ADD PUSH1 0x3 DUP3 ADD DUP1 SLOAD PUSH2 0xB64 SWAP1 PUSH2 0x2870 JUMP JUMPDEST DUP1 PUSH1 0x1F ADD PUSH1 0x20 DUP1 SWAP2 DIV MUL PUSH1 0x20 ADD PUSH1 0x40 MLOAD SWAP1 DUP2 ADD PUSH1 0x40 MSTORE DUP1 SWAP3 SWAP2 SWAP1 DUP2 DUP2 MSTORE PUSH1 0x20 ADD DUP3 DUP1 SLOAD PUSH2 0xB90 SWAP1 PUSH2 0x2870 JUMP JUMPDEST DUP1 ISZERO PUSH2 0xBDB JUMPI DUP1 PUSH1 0x1F LT PUSH2 0xBB2 JUMPI PUSH2 0x100 DUP1 DUP4 SLOAD DIV MUL DUP4 MSTORE SWAP2 PUSH1 0x20 ADD SWAP2 PUSH2 0xBDB JUMP JUMPDEST DUP3 ADD SWAP2 SWAP1 PUSH0 MSTORE PUSH1 0x20 PUSH0 KECCAK256 SWAP1 JUMPDEST DUP2 SLOAD DUP2 MSTORE SWAP1 PUSH1 0x1 ADD SWAP1 PUSH1 0x20 ADD DUP1 DUP4 GT PUSH2 0xBBE JUMPI DUP3 SWAP1 SUB PUSH1 0x1F AND DUP3 ADD SWAP2 JUMPDEST POP POP POP POP POP DUP2 MSTORE PUSH1 0x20 ADD PUSH1 0x4 DUP3 ADD PUSH0 SWAP1 SLOAD SWAP1 PUSH2 0x100 EXP SWAP1 DIV PUSH20 0xFFFFFFFFFFFFFFFFFFFFFFFFFFFFFFFFFFFFFFFF AND PUSH20 0xFFFFFFFFFFFFFFFFFFFFFFFFFFFFFFFFFFFFFFFF AND PUSH20 0xFFFFFFFFFFFFFFFFFFFFFFFFFFFFFFFFFFFFFFFF AND DUP2 MSTORE PUSH1 0x20 ADD PUSH1 0x5 DUP3 ADD SLOAD DUP2 MSTORE PUSH1 0x20 ADD PUSH1 0x6 DUP3 ADD PUSH0 SWAP1 SLOAD SWAP1 PUSH2 0x100 EXP SWAP1 DIV PUSH1 0xFF AND ISZERO ISZERO ISZERO ISZERO DUP2 MSTORE PUSH1 0x20 ADD PUSH1 0x7 DUP3 ADD DUP1 SLOAD PUSH2 0xC6D SWAP1 PUSH2 0x2870 JUMP JUMPDEST DUP1 PUSH1 0x1F ADD PUSH1 0x20 DUP1 SWAP2 DIV MUL PUSH1 0x20 ADD PUSH1 0x40 MLOAD SWAP1 DUP2 ADD PUSH1 0x40 MSTORE DUP1 SWAP3 SWAP2 SWAP1 DUP2 DUP2 MSTORE PUSH1 0x20 ADD DUP3 DUP1 SLOAD PUSH2 0xC99 SWAP1 PUSH2 0x2870 JUMP JUMPDEST DUP1 ISZERO PUSH2 0xCE4 JUMPI DUP1 PUSH1 0x1F LT PUSH2 0xCBB JUMPI PUSH2 0x100 DUP1 DUP4 SLOAD DIV MUL DUP4 MSTORE SWAP2 PUSH1 0x20 ADD SWAP2 PUSH2 0xCE4 JUMP JUMPDEST DUP3 ADD SWAP2 SWAP1 PUSH0 MSTORE PUSH1 0x20 PUSH0 KECCAK256 SWAP1 JUMPDEST DUP2 SLOAD DUP2 MSTORE SWAP1 PUSH1 0x1 ADD SWAP1 PUSH1 0x20 ADD DUP1 DUP4 GT PUSH2 0xCC7 JUMPI DUP3 SWAP1 SUB PUSH1 0x1F AND DUP3 ADD SWAP2 JUMPDEST POP POP POP POP POP DUP2 MSTORE POP POP DUP3 DUP5 DUP2 MLOAD DUP2 LT PUSH2 0xD00 JUMPI PUSH2 0xCFF PUSH2 0x27C6 JUMP JUMPDEST JUMPDEST PUSH1 0x20 MUL PUSH1 0x20 ADD ADD DUP2 SWAP1 MSTORE POP DUP3 DUP1 PUSH2 0xD16 SWAP1 PUSH2 0x2C5D JUMP JUMPDEST SWAP4 POP POP JUMPDEST DUP1 DUP1 PUSH1 0x1 ADD SWAP2 POP POP PUSH2 0x97D JUMP JUMPDEST POP DUP1 SWAP3 POP POP POP SWAP2 SWAP1 POP JUMP JUMPDEST PUSH0 DUP1 SLOAD SWAP1 PUSH2 0x100 EXP SWAP1 DIV PUSH20 0xFFFFFFFFFFFFFFFFFFFFFFFFFFFFFFFFFFFFFFFF AND PUSH20 0xFFFFFFFFFFFFFFFFFFFFFFFFFFFFFFFFFFFFFFFF AND CALLER PUSH20 0xFFFFFFFFFFFFFFFFFFFFFFFFFFFFFFFFFFFFFFFF AND EQ PUSH2 0xDBF JUMPI PUSH1 0x40 MLOAD PUSH32 0x8C379A000000000000000000000000000000000000000000000000000000000 DUP2 MSTORE PUSH1 0x4 ADD PUSH2 0xDB6 SWAP1 PUSH2 0x2CEE JUMP JUMPDEST PUSH1 0x40 MLOAD DUP1 SWAP2 SUB SWAP1 REVERT JUMPDEST DUP1 PUSH1 0x1 PUSH0 PUSH2 0x100 EXP DUP2 SLOAD DUP2 PUSH20 0xFFFFFFFFFFFFFFFFFFFFFFFFFFFFFFFFFFFFFFFF MUL NOT AND SWAP1 DUP4 PUSH20 0xFFFFFFFFFFFFFFFFFFFFFFFFFFFFFFFFFFFFFFFF AND MUL OR SWAP1 SSTORE POP POP JUMP JUMPDEST PUSH1 0x60 PUSH1 0x2 DUP1 SLOAD DUP1 PUSH1 0x20 MUL PUSH1 0x20 ADD PUSH1 0x40 MLOAD SWAP1 DUP2 ADD PUSH1 0x40 MSTORE DUP1 SWAP3 SWAP2 SWAP1 DUP2 DUP2 MSTORE PUSH1 0x20 ADD PUSH0 SWAP1 JUMPDEST DUP3 DUP3 LT ISZERO PUSH2 0x1118 JUMPI DUP4 DUP3 SWAP1 PUSH0 MSTORE PUSH1 0x20 PUSH0 KECCAK256 SWAP1 PUSH1 0x8 MUL ADD PUSH1 0x40 MLOAD DUP1 PUSH2 0x100 ADD PUSH1 0x40 MSTORE SWAP1 DUP2 PUSH0 DUP3 ADD SLOAD DUP2 MSTORE PUSH1 0x20 ADD PUSH1 0x1 DUP3 ADD DUP1 SLOAD PUSH2 0xE60 SWAP1 PUSH2 0x2870 JUMP JUMPDEST DUP1 PUSH1 0x1F ADD PUSH1 0x20 DUP1 SWAP2 DIV MUL PUSH1 0x20 ADD PUSH1 0x40 MLOAD SWAP1 DUP2 ADD PUSH1 0x40 MSTORE DUP1 SWAP3 SWAP2 SWAP1 DUP2 DUP2 MSTORE PUSH1 0x20 ADD DUP3 DUP1 SLOAD PUSH2 0xE8C SWAP1 PUSH2 0x2870 JUMP JUMPDEST DUP1 ISZERO PUSH2 0xED7 JUMPI DUP1 PUSH1 0x1F LT PUSH2 0xEAE JUMPI PUSH2 0x100 DUP1 DUP4 SLOAD DIV MUL DUP4 MSTORE SWAP2 PUSH1 0x20 ADD SWAP2 PUSH2 0xED7 JUMP JUMPDEST DUP3 ADD SWAP2 SWAP1 PUSH0 MSTORE PUSH1 0x20 PUSH0 KECCAK256 SWAP1 JUMPDEST DUP2 SLOAD DUP2 MSTORE SWAP1 PUSH1 0x1 ADD SWAP1 PUSH1 0x20 ADD DUP1 DUP4 GT PUSH2 0xEBA JUMPI DUP3 SWAP1 SUB PUSH1 0x1F AND DUP3 ADD SWAP2 JUMPDEST POP POP POP POP POP DUP2 MSTORE PUSH1 0x20 ADD PUSH1 0x2 DUP3 ADD DUP1 SLOAD PUSH2 0xEF0 SWAP1 PUSH2 0x2870 JUMP JUMPDEST DUP1 PUSH1 0x1F ADD PUSH1 0x20 DUP1 SWAP2 DIV MUL PUSH1 0x20 ADD PUSH1 0x40 MLOAD SWAP1 DUP2 ADD PUSH1 0x40 MSTORE DUP1 SWAP3 SWAP2 SWAP1 DUP2 DUP2 MSTORE PUSH1 0x20 ADD DUP3 DUP1 SLOAD PUSH2 0xF1C SWAP1 PUSH2 0x2870 JUMP JUMPDEST DUP1 ISZERO PUSH2 0xF67 JUMPI DUP1 PUSH1 0x1F LT PUSH2 0xF3E JUMPI PUSH2 0x100 DUP1 DUP4 SLOAD DIV MUL DUP4 MSTORE SWAP2 PUSH1 0x20 ADD SWAP2 PUSH2 0xF67 JUMP JUMPDEST DUP3 ADD SWAP2 SWAP1 PUSH0 MSTORE PUSH1 0x20 PUSH0 KECCAK256 SWAP1 JUMPDEST DUP2 SLOAD DUP2 MSTORE SWAP1 PUSH1 0x1 ADD SWAP1 PUSH1 0x20 ADD DUP1 DUP4 GT PUSH2 0xF4A JUMPI DUP3 SWAP1 SUB PUSH1 0x1F AND DUP3 ADD SWAP2 JUMPDEST POP POP POP POP POP DUP2 MSTORE PUSH1 0x20 ADD PUSH1 0x3 DUP3 ADD DUP1 SLOAD PUSH2 0xF80 SWAP1 PUSH2 0x2870 JUMP JUMPDEST DUP1 PUSH1 0x1F ADD PUSH1 0x20 DUP1 SWAP2 DIV MUL PUSH1 0x20 ADD PUSH1 0x40 MLOAD SWAP1 DUP2 ADD PUSH1 0x40 MSTORE DUP1 SWAP3 SWAP2 SWAP1 DUP2 DUP2 MSTORE PUSH1 0x20 ADD DUP3 DUP1 SLOAD PUSH2 0xFAC SWAP1 PUSH2 0x2870 JUMP JUMPDEST DUP1 ISZERO PUSH2 0xFF7 JUMPI DUP1 PUSH1 0x1F LT PUSH2 0xFCE JUMPI PUSH2 0x100 DUP1 DUP4 SLOAD DIV MUL DUP4 MSTORE SWAP2 PUSH1 0x20 ADD SWAP2 PUSH2 0xFF7 JUMP JUMPDEST DUP3 ADD SWAP2 SWAP1 PUSH0 MSTORE PUSH1 0x20 PUSH0 KECCAK256 SWAP1 JUMPDEST DUP2 SLOAD DUP2 MSTORE SWAP1 PUSH1 0x1 ADD SWAP1 PUSH1 0x20 ADD DUP1 DUP4 GT PUSH2 0xFDA JUMPI DUP3 SWAP1 SUB PUSH1 0x1F AND DUP3 ADD SWAP2 JUMPDEST POP POP POP POP POP DUP2 MSTORE PUSH1 0x20 ADD PUSH1 0x4 DUP3 ADD PUSH0 SWAP1 SLOAD SWAP1 PUSH2 0x100 EXP SWAP1 DIV PUSH20 0xFFFFFFFFFFFFFFFFFFFFFFFFFFFFFFFFFFFFFFFF AND PUSH20 0xFFFFFFFFFFFFFFFFFFFFFFFFFFFFFFFFFFFFFFFF AND PUSH20 0xFFFFFFFFFFFFFFFFFFFFFFFFFFFFFFFFFFFFFFFF AND DUP2 MSTORE PUSH1 0x20 ADD PUSH1 0x5 DUP3 ADD SLOAD DUP2 MSTORE PUSH1 0x20 ADD PUSH1 0x6 DUP3 ADD PUSH0 SWAP1 SLOAD SWAP1 PUSH2 0x100 EXP SWAP1 DIV PUSH1 0xFF AND ISZERO ISZERO ISZERO ISZERO DUP2 MSTORE PUSH1 0x20 ADD PUSH1 0x7 DUP3 ADD DUP1 SLOAD PUSH2 0x1089 SWAP1 PUSH2 0x2870 JUMP JUMPDEST DUP1 PUSH1 0x1F ADD PUSH1 0x20 DUP1 SWAP2 DIV MUL PUSH1 0x20 ADD PUSH1 0x40 MLOAD SWAP1 DUP2 ADD PUSH1 0x40 MSTORE DUP1 SWAP3 SWAP2 SWAP1 DUP2 DUP2 MSTORE PUSH1 0x20 ADD DUP3 DUP1 SLOAD PUSH2 0x10B5 SWAP1 PUSH2 0x2870 JUMP JUMPDEST DUP1 ISZERO PUSH2 0x1100 JUMPI DUP1 PUSH1 0x1F LT PUSH2 0x10D7 JUMPI PUSH2 0x100 DUP1 DUP4 SLOAD DIV MUL DUP4 MSTORE SWAP2 PUSH1 0x20 ADD SWAP2 PUSH2 0x1100 JUMP JUMPDEST DUP3 ADD SWAP2 SWAP1 PUSH0 MSTORE PUSH1 0x20 PUSH0 KECCAK256 SWAP1 JUMPDEST DUP2 SLOAD DUP2 MSTORE SWAP1 PUSH1 0x1 ADD SWAP1 PUSH1 0x20 ADD DUP1 DUP4 GT PUSH2 0x10E3 JUMPI DUP3 SWAP1 SUB PUSH1 0x1F AND DUP3 ADD SWAP2 JUMPDEST POP POP POP POP POP DUP2 MSTORE POP POP DUP2 MSTORE PUSH1 0x20 ADD SWAP1 PUSH1 0x1 ADD SWAP1 PUSH2 0xE25 JUMP JUMPDEST POP POP POP POP SWAP1 POP SWAP1 JUMP JUMPDEST PUSH1 0x60 PUSH0 DUP1 JUMPDEST PUSH1 0x2 DUP1 SLOAD SWAP1 POP DUP2 LT ISZERO PUSH2 0x11C4 JUMPI DUP4 PUSH1 0x40 MLOAD PUSH1 0x20 ADD PUSH2 0x1144 SWAP2 SWAP1 PUSH2 0x282D JUMP JUMPDEST PUSH1 0x40 MLOAD PUSH1 0x20 DUP2 DUP4 SUB SUB DUP2 MSTORE SWAP1 PUSH1 0x40 MSTORE DUP1 MLOAD SWAP1 PUSH1 0x20 ADD KECCAK256 PUSH1 0x2 DUP3 DUP2 SLOAD DUP2 LT PUSH2 0x116E JUMPI PUSH2 0x116D PUSH2 0x27C6 JUMP JUMPDEST JUMPDEST SWAP1 PUSH0 MSTORE PUSH1 0x20 PUSH0 KECCAK256 SWAP1 PUSH1 0x8 MUL ADD PUSH1 0x2 ADD PUSH1 0x40 MLOAD PUSH1 0x20 ADD PUSH2 0x118D SWAP2 SWAP1 PUSH2 0x2932 JUMP JUMPDEST PUSH1 0x40 MLOAD PUSH1 0x20 DUP2 DUP4 SUB SUB DUP2 MSTORE SWAP1 PUSH1 0x40 MSTORE DUP1 MLOAD SWAP1 PUSH1 0x20 ADD KECCAK256 SUB PUSH2 0x11B7 JUMPI DUP2 DUP1 PUSH2 0x11B3 SWAP1 PUSH2 0x2C5D JUMP JUMPDEST SWAP3 POP POP JUMPDEST DUP1 DUP1 PUSH1 0x1 ADD SWAP2 POP POP PUSH2 0x1126 JUMP JUMPDEST POP PUSH0 DUP2 PUSH8 0xFFFFFFFFFFFFFFFF DUP2 GT ISZERO PUSH2 0x11E0 JUMPI PUSH2 0x11DF PUSH2 0x207E JUMP JUMPDEST JUMPDEST PUSH1 0x40 MLOAD SWAP1 DUP1 DUP3 MSTORE DUP1 PUSH1 0x20 MUL PUSH1 0x20 ADD DUP3 ADD PUSH1 0x40 MSTORE DUP1 ISZERO PUSH2 0x1219 JUMPI DUP2 PUSH1 0x20 ADD JUMPDEST PUSH2 0x1206 PUSH2 0x1FA2 JUMP JUMPDEST DUP2 MSTORE PUSH1 0x20 ADD SWAP1 PUSH1 0x1 SWAP1 SUB SWAP1 DUP2 PUSH2 0x11FE JUMPI SWAP1 POP JUMPDEST POP SWAP1 POP PUSH0 SWAP2 POP PUSH0 JUMPDEST PUSH1 0x2 DUP1 SLOAD SWAP1 POP DUP2 LT ISZERO PUSH2 0x15CB JUMPI DUP5 PUSH1 0x40 MLOAD PUSH1 0x20 ADD PUSH2 0x123F SWAP2 SWAP1 PUSH2 0x282D JUMP JUMPDEST PUSH1 0x40 MLOAD PUSH1 0x20 DUP2 DUP4 SUB SUB DUP2 MSTORE SWAP1 PUSH1 0x40 MSTORE DUP1 MLOAD SWAP1 PUSH1 0x20 ADD KECCAK256 PUSH1 0x2 DUP3 DUP2 SLOAD DUP2 LT PUSH2 0x1269 JUMPI PUSH2 0x1268 PUSH2 0x27C6 JUMP JUMPDEST JUMPDEST SWAP1 PUSH0 MSTORE PUSH1 0x20 PUSH0 KECCAK256 SWAP1 PUSH1 0x8 MUL ADD PUSH1 0x2 ADD PUSH1 0x40 MLOAD PUSH1 0x20 ADD PUSH2 0x1288 SWAP2 SWAP1 PUSH2 0x2932 JUMP JUMPDEST PUSH1 0x40 MLOAD PUSH1 0x20 DUP2 DUP4 SUB SUB DUP2 MSTORE SWAP1 PUSH1 0x40 MSTORE DUP1 MLOAD SWAP1 PUSH1 0x20 ADD KECCAK256 SUB PUSH2 0x15BE JUMPI PUSH1 0x2 DUP2 DUP2 SLOAD DUP2 LT PUSH2 0x12B7 JUMPI PUSH2 0x12B6 PUSH2 0x27C6 JUMP JUMPDEST JUMPDEST SWAP1 PUSH0 MSTORE PUSH1 0x20 PUSH0 KECCAK256 SWAP1 PUSH1 0x8 MUL ADD PUSH1 0x40 MLOAD DUP1 PUSH2 0x100 ADD PUSH1 0x40 MSTORE SWAP1 DUP2 PUSH0 DUP3 ADD SLOAD DUP2 MSTORE PUSH1 0x20 ADD PUSH1 0x1 DUP3 ADD DUP1 SLOAD PUSH2 0x12E8 SWAP1 PUSH2 0x2870 JUMP JUMPDEST DUP1 PUSH1 0x1F ADD PUSH1 0x20 DUP1 SWAP2 DIV MUL PUSH1 0x20 ADD PUSH1 0x40 MLOAD SWAP1 DUP2 ADD PUSH1 0x40 MSTORE DUP1 SWAP3 SWAP2 SWAP1 DUP2 DUP2 MSTORE PUSH1 0x20 ADD DUP3 DUP1 SLOAD PUSH2 0x1314 SWAP1 PUSH2 0x2870 JUMP JUMPDEST DUP1 ISZERO PUSH2 0x135F JUMPI DUP1 PUSH1 0x1F LT PUSH2 0x1336 JUMPI PUSH2 0x100 DUP1 DUP4 SLOAD DIV MUL DUP4 MSTORE SWAP2 PUSH1 0x20 ADD SWAP2 PUSH2 0x135F JUMP JUMPDEST DUP3 ADD SWAP2 SWAP1 PUSH0 MSTORE PUSH1 0x20 PUSH0 KECCAK256 SWAP1 JUMPDEST DUP2 SLOAD DUP2 MSTORE SWAP1 PUSH1 0x1 ADD SWAP1 PUSH1 0x20 ADD DUP1 DUP4 GT PUSH2 0x1342 JUMPI DUP3 SWAP1 SUB PUSH1 0x1F AND DUP3 ADD SWAP2 JUMPDEST POP POP POP POP POP DUP2 MSTORE PUSH1 0x20 ADD PUSH1 0x2 DUP3 ADD DUP1 SLOAD PUSH2 0x1378 SWAP1 PUSH2 0x2870 JUMP JUMPDEST DUP1 PUSH1 0x1F ADD PUSH1 0x20 DUP1 SWAP2 DIV MUL PUSH1 0x20 ADD PUSH1 0x40 MLOAD SWAP1 DUP2 ADD PUSH1 0x40 MSTORE DUP1 SWAP3 SWAP2 SWAP1 DUP2 DUP2 MSTORE PUSH1 0x20 ADD DUP3 DUP1 SLOAD PUSH2 0x13A4 SWAP1 PUSH2 0x2870 JUMP JUMPDEST DUP1 ISZERO PUSH2 0x13EF JUMPI DUP1 PUSH1 0x1F LT PUSH2 0x13C6 JUMPI PUSH2 0x100 DUP1 DUP4 SLOAD DIV MUL DUP4 MSTORE SWAP2 PUSH1 0x20 ADD SWAP2 PUSH2 0x13EF JUMP JUMPDEST DUP3 ADD SWAP2 SWAP1 PUSH0 MSTORE PUSH1 0x20 PUSH0 KECCAK256 SWAP1 JUMPDEST DUP2 SLOAD DUP2 MSTORE SWAP1 PUSH1 0x1 ADD SWAP1 PUSH1 0x20 ADD DUP1 DUP4 GT PUSH2 0x13D2 JUMPI DUP3 SWAP1 SUB PUSH1 0x1F AND DUP3 ADD SWAP2 JUMPDEST POP POP POP POP POP DUP2 MSTORE PUSH1 0x20 ADD PUSH1 0x3 DUP3 ADD DUP1 SLOAD PUSH2 0x1408 SWAP1 PUSH2 0x2870 JUMP JUMPDEST DUP1 PUSH1 0x1F ADD PUSH1 0x20 DUP1 SWAP2 DIV MUL PUSH1 0x20 ADD PUSH1 0x40 MLOAD SWAP1 DUP2 ADD PUSH1 0x40 MSTORE DUP1 SWAP3 SWAP2 SWAP1 DUP2 DUP2 MSTORE PUSH1 0x20 ADD DUP3 DUP1 SLOAD PUSH2 0x1434 SWAP1 PUSH2 0x2870 JUMP JUMPDEST DUP1 ISZERO PUSH2 0x147F JUMPI DUP1 PUSH1 0x1F LT PUSH2 0x1456 JUMPI PUSH2 0x100 DUP1 DUP4 SLOAD DIV MUL DUP4 MSTORE SWAP2 PUSH1 0x20 ADD SWAP2 PUSH2 0x147F JUMP JUMPDEST DUP3 ADD SWAP2 SWAP1 PUSH0 MSTORE PUSH1 0x20 PUSH0 KECCAK256 SWAP1 JUMPDEST DUP2 SLOAD DUP2 MSTORE SWAP1 PUSH1 0x1 ADD SWAP1 PUSH1 0x20 ADD DUP1 DUP4 GT PUSH2 0x1462 JUMPI DUP3 SWAP1 SUB PUSH1 0x1F AND DUP3 ADD SWAP2 JUMPDEST POP POP POP POP POP DUP2 MSTORE PUSH1 0x20 ADD PUSH1 0x4 DUP3 ADD PUSH0 SWAP1 SLOAD SWAP1 PUSH2 0x100 EXP SWAP1 DIV PUSH20 0xFFFFFFFFFFFFFFFFFFFFFFFFFFFFFFFFFFFFFFFF AND PUSH20 0xFFFFFFFFFFFFFFFFFFFFFFFFFFFFFFFFFFFFFFFF AND PUSH20 0xFFFFFFFFFFFFFFFFFFFFFFFFFFFFFFFFFFFFFFFF AND DUP2 MSTORE PUSH1 0x20 ADD PUSH1 0x5 DUP3 ADD SLOAD DUP2 MSTORE PUSH1 0x20 ADD PUSH1 0x6 DUP3 ADD PUSH0 SWAP1 SLOAD SWAP1 PUSH2 0x100 EXP SWAP1 DIV PUSH1 0xFF AND ISZERO ISZERO ISZERO ISZERO DUP2 MSTORE PUSH1 0x20 ADD PUSH1 0x7 DUP3 ADD DUP1 SLOAD PUSH2 0x1511 SWAP1 PUSH2 0x2870 JUMP JUMPDEST DUP1 PUSH1 0x1F ADD PUSH1 0x20 DUP1 SWAP2 DIV MUL PUSH1 0x20 ADD PUSH1 0x40 MLOAD SWAP1 DUP2 ADD PUSH1 0x40 MSTORE DUP1 SWAP3 SWAP2 SWAP1 DUP2 DUP2 MSTORE PUSH1 0x20 ADD DUP3 DUP1 SLOAD PUSH2 0x153D SWAP1 PUSH2 0x2870 JUMP JUMPDEST DUP1 ISZERO PUSH2 0x1588 JUMPI DUP1 PUSH1 0x1F LT PUSH2 0x155F JUMPI PUSH2 0x100 DUP1 DUP4 SLOAD DIV MUL DUP4 MSTORE SWAP2 PUSH1 0x20 ADD SWAP2 PUSH2 0x1588 JUMP JUMPDEST DUP3 ADD SWAP2 SWAP1 PUSH0 MSTORE PUSH1 0x20 PUSH0 KECCAK256 SWAP1 JUMPDEST DUP2 SLOAD DUP2 MSTORE SWAP1 PUSH1 0x1 ADD SWAP1 PUSH1 0x20 ADD DUP1 DUP4 GT PUSH2 0x156B JUMPI DUP3 SWAP1 SUB PUSH1 0x1F AND DUP3 ADD SWAP2 JUMPDEST POP POP POP POP POP DUP2 MSTORE POP POP DUP3 DUP5 DUP2 MLOAD DUP2 LT PUSH2 0x15A4 JUMPI PUSH2 0x15A3 PUSH2 0x27C6 JUMP JUMPDEST JUMPDEST PUSH1 0x20 MUL PUSH1 0x20 ADD ADD DUP2 SWAP1 MSTORE POP DUP3 DUP1 PUSH2 0x15BA SWAP1 PUSH2 0x2C5D JUMP JUMPDEST SWAP4 POP POP JUMPDEST DUP1 DUP1 PUSH1 0x1 ADD SWAP2 POP POP PUSH2 0x1221 JUMP JUMPDEST POP DUP1 SWAP3 POP POP POP SWAP2 SWAP1 POP JUMP JUMPDEST PUSH1 0x60 PUSH0 DUP1 JUMPDEST PUSH1 0x2 DUP1 SLOAD SWAP1 POP DUP2 LT ISZERO PUSH2 0x1679 JUMPI DUP4 PUSH1 0x40 MLOAD PUSH1 0x20 ADD PUSH2 0x15F9 SWAP2 SWAP1 PUSH2 0x282D JUMP JUMPDEST PUSH1 0x40 MLOAD PUSH1 0x20 DUP2 DUP4 SUB SUB DUP2 MSTORE SWAP1 PUSH1 0x40 MSTORE DUP1 MLOAD SWAP1 PUSH1 0x20 ADD KECCAK256 PUSH1 0x2 DUP3 DUP2 SLOAD DUP2 LT PUSH2 0x1623 JUMPI PUSH2 0x1622 PUSH2 0x27C6 JUMP JUMPDEST JUMPDEST SWAP1 PUSH0 MSTORE PUSH1 0x20 PUSH0 KECCAK256 SWAP1 PUSH1 0x8 MUL ADD PUSH1 0x1 ADD PUSH1 0x40 MLOAD PUSH1 0x20 ADD PUSH2 0x1642 SWAP2 SWAP1 PUSH2 0x2932 JUMP JUMPDEST PUSH1 0x40 MLOAD PUSH1 0x20 DUP2 DUP4 SUB SUB DUP2 MSTORE SWAP1 PUSH1 0x40 MSTORE DUP1 MLOAD SWAP1 PUSH1 0x20 ADD KECCAK256 SUB PUSH2 0x166C JUMPI DUP2 DUP1 PUSH2 0x1668 SWAP1 PUSH2 0x2C5D JUMP JUMPDEST SWAP3 POP POP JUMPDEST DUP1 DUP1 PUSH1 0x1 ADD SWAP2 POP POP PUSH2 0x15DB JUMP JUMPDEST POP PUSH0 DUP2 PUSH8 0xFFFFFFFFFFFFFFFF DUP2 GT ISZERO PUSH2 0x1695 JUMPI PUSH2 0x1694 PUSH2 0x207E JUMP JUMPDEST JUMPDEST PUSH1 0x40 MLOAD SWAP1 DUP1 DUP3 MSTORE DUP1 PUSH1 0x20 MUL PUSH1 0x20 ADD DUP3 ADD PUSH1 0x40 MSTORE DUP1 ISZERO PUSH2 0x16CE JUMPI DUP2 PUSH1 0x20 ADD JUMPDEST PUSH2 0x16BB PUSH2 0x1FA2 JUMP JUMPDEST DUP2 MSTORE PUSH1 0x20 ADD SWAP1 PUSH1 0x1 SWAP1 SUB SWAP1 DUP2 PUSH2 0x16B3 JUMPI SWAP1 POP JUMPDEST POP SWAP1 POP PUSH0 SWAP2 POP PUSH0 JUMPDEST PUSH1 0x2 DUP1 SLOAD SWAP1 POP DUP2 LT ISZERO PUSH2 0x1ABF JUMPI DUP5 PUSH1 0x40 MLOAD PUSH1 0x20 ADD PUSH2 0x16F4 SWAP2 SWAP1 PUSH2 0x282D JUMP JUMPDEST PUSH1 0x40 MLOAD PUSH1 0x20 DUP2 DUP4 SUB SUB DUP2 MSTORE SWAP1 PUSH1 0x40 MSTORE DUP1 MLOAD SWAP1 PUSH1 0x20 ADD KECCAK256 PUSH1 0x2 DUP3 DUP2 SLOAD DUP2 LT PUSH2 0x171E JUMPI PUSH2 0x171D PUSH2 0x27C6 JUMP JUMPDEST JUMPDEST SWAP1 PUSH0 MSTORE PUSH1 0x20 PUSH0 KECCAK256 SWAP1 PUSH1 0x8 MUL ADD PUSH1 0x1 ADD PUSH1 0x40 MLOAD PUSH1 0x20 ADD PUSH2 0x173D SWAP2 SWAP1 PUSH2 0x2932 JUMP JUMPDEST PUSH1 0x40 MLOAD PUSH1 0x20 DUP2 DUP4 SUB SUB DUP2 MSTORE SWAP1 PUSH1 0x40 MSTORE DUP1 MLOAD SWAP1 PUSH1 0x20 ADD KECCAK256 EQ DUP1 ISZERO PUSH2 0x1792 JUMPI POP PUSH0 ISZERO ISZERO PUSH1 0x2 DUP3 DUP2 SLOAD DUP2 LT PUSH2 0x1772 JUMPI PUSH2 0x1771 PUSH2 0x27C6 JUMP JUMPDEST JUMPDEST SWAP1 PUSH0 MSTORE PUSH1 0x20 PUSH0 KECCAK256 SWAP1 PUSH1 0x8 MUL ADD PUSH1 0x6 ADD PUSH0 SWAP1 SLOAD SWAP1 PUSH2 0x100 EXP SWAP1 DIV PUSH1 0xFF AND ISZERO ISZERO EQ JUMPDEST ISZERO PUSH2 0x1AB2 JUMPI PUSH1 0x2 DUP2 DUP2 SLOAD DUP2 LT PUSH2 0x17AB JUMPI PUSH2 0x17AA PUSH2 0x27C6 JUMP JUMPDEST JUMPDEST SWAP1 PUSH0 MSTORE PUSH1 0x20 PUSH0 KECCAK256 SWAP1 PUSH1 0x8 MUL ADD PUSH1 0x40 MLOAD DUP1 PUSH2 0x100 ADD PUSH1 0x40 MSTORE SWAP1 DUP2 PUSH0 DUP3 ADD SLOAD DUP2 MSTORE PUSH1 0x20 ADD PUSH1 0x1 DUP3 ADD DUP1 SLOAD PUSH2 0x17DC SWAP1 PUSH2 0x2870 JUMP JUMPDEST DUP1 PUSH1 0x1F ADD PUSH1 0x20 DUP1 SWAP2 DIV MUL PUSH1 0x20 ADD PUSH1 0x40 MLOAD SWAP1 DUP2 ADD PUSH1 0x40 MSTORE DUP1 SWAP3 SWAP2 SWAP1 DUP2 DUP2 MSTORE PUSH1 0x20 ADD DUP3 DUP1 SLOAD PUSH2 0x1808 SWAP1 PUSH2 0x2870 JUMP JUMPDEST DUP1 ISZERO PUSH2 0x1853 JUMPI DUP1 PUSH1 0x1F LT PUSH2 0x182A JUMPI PUSH2 0x100 DUP1 DUP4 SLOAD DIV MUL DUP4 MSTORE SWAP2 PUSH1 0x20 ADD SWAP2 PUSH2 0x1853 JUMP JUMPDEST DUP3 ADD SWAP2 SWAP1 PUSH0 MSTORE PUSH1 0x20 PUSH0 KECCAK256 SWAP1 JUMPDEST DUP2 SLOAD DUP2 MSTORE SWAP1 PUSH1 0x1 ADD SWAP1 PUSH1 0x20 ADD DUP1 DUP4 GT PUSH2 0x1836 JUMPI DUP3 SWAP1 SUB PUSH1 0x1F AND DUP3 ADD SWAP2 JUMPDEST POP POP POP POP POP DUP2 MSTORE PUSH1 0x20 ADD PUSH1 0x2 DUP3 ADD DUP1 SLOAD PUSH2 0x186C SWAP1 PUSH2 0x2870 JUMP JUMPDEST DUP1 PUSH1 0x1F ADD PUSH1 0x20 DUP1 SWAP2 DIV MUL PUSH1 0x20 ADD PUSH1 0x40 MLOAD SWAP1 DUP2 ADD PUSH1 0x40 MSTORE DUP1 SWAP3 SWAP2 SWAP1 DUP2 DUP2 MSTORE PUSH1 0x20 ADD DUP3 DUP1 SLOAD PUSH2 0x1898 SWAP1 PUSH2 0x2870 JUMP JUMPDEST DUP1 ISZERO PUSH2 0x18E3 JUMPI DUP1 PUSH1 0x1F LT PUSH2 0x18BA JUMPI PUSH2 0x100 DUP1 DUP4 SLOAD DIV MUL DUP4 MSTORE SWAP2 PUSH1 0x20 ADD SWAP2 PUSH2 0x18E3 JUMP JUMPDEST DUP3 ADD SWAP2 SWAP1 PUSH0 MSTORE PUSH1 0x20 PUSH0 KECCAK256 SWAP1 JUMPDEST DUP2 SLOAD DUP2 MSTORE SWAP1 PUSH1 0x1 ADD SWAP1 PUSH1 0x20 ADD DUP1 DUP4 GT PUSH2 0x18C6 JUMPI DUP3 SWAP1 SUB PUSH1 0x1F AND DUP3 ADD SWAP2 JUMPDEST POP POP POP POP POP DUP2 MSTORE PUSH1 0x20 ADD PUSH1 0x3 DUP3 ADD DUP1 SLOAD PUSH2 0x18FC SWAP1 PUSH2 0x2870 JUMP JUMPDEST DUP1 PUSH1 0x1F ADD PUSH1 0x20 DUP1 SWAP2 DIV MUL PUSH1 0x20 ADD PUSH1 0x40 MLOAD SWAP1 DUP2 ADD PUSH1 0x40 MSTORE DUP1 SWAP3 SWAP2 SWAP1 DUP2 DUP2 MSTORE PUSH1 0x20 ADD DUP3 DUP1 SLOAD PUSH2 0x1928 SWAP1 PUSH2 0x2870 JUMP JUMPDEST DUP1 ISZERO PUSH2 0x1973 JUMPI DUP1 PUSH1 0x1F LT PUSH2 0x194A JUMPI PUSH2 0x100 DUP1 DUP4 SLOAD DIV MUL DUP4 MSTORE SWAP2 PUSH1 0x20 ADD SWAP2 PUSH2 0x1973 JUMP JUMPDEST DUP3 ADD SWAP2 SWAP1 PUSH0 MSTORE PUSH1 0x20 PUSH0 KECCAK256 SWAP1 JUMPDEST DUP2 SLOAD DUP2 MSTORE SWAP1 PUSH1 0x1 ADD SWAP1 PUSH1 0x20 ADD DUP1 DUP4 GT PUSH2 0x1956 JUMPI DUP3 SWAP1 SUB PUSH1 0x1F AND DUP3 ADD SWAP2 JUMPDEST POP POP POP POP POP DUP2 MSTORE PUSH1 0x20 ADD PUSH1 0x4 DUP3 ADD PUSH0 SWAP1 SLOAD SWAP1 PUSH2 0x100 EXP SWAP1 DIV PUSH20 0xFFFFFFFFFFFFFFFFFFFFFFFFFFFFFFFFFFFFFFFF AND PUSH20 0xFFFFFFFFFFFFFFFFFFFFFFFFFFFFFFFFFFFFFFFF AND PUSH20 0xFFFFFFFFFFFFFFFFFFFFFFFFFFFFFFFFFFFFFFFF AND DUP2 MSTORE PUSH1 0x20 ADD PUSH1 0x5 DUP3 ADD SLOAD DUP2 MSTORE PUSH1 0x20 ADD PUSH1 0x6 DUP3 ADD PUSH0 SWAP1 SLOAD SWAP1 PUSH2 0x100 EXP SWAP1 DIV PUSH1 0xFF AND ISZERO ISZERO ISZERO ISZERO DUP2 MSTORE PUSH1 0x20 ADD PUSH1 0x7 DUP3 ADD DUP1 SLOAD PUSH2 0x1A05 SWAP1 PUSH2 0x2870 JUMP JUMPDEST DUP1 PUSH1 0x1F ADD PUSH1 0x20 DUP1 SWAP2 DIV MUL PUSH1 0x20 ADD PUSH1 0x40 MLOAD SWAP1 DUP2 ADD PUSH1 0x40 MSTORE DUP1 SWAP3 SWAP2 SWAP1 DUP2 DUP2 MSTORE PUSH1 0x20 ADD DUP3 DUP1 SLOAD PUSH2 0x1A31 SWAP1 PUSH2 0x2870 JUMP JUMPDEST DUP1 ISZERO PUSH2 0x1A7C JUMPI DUP1 PUSH1 0x1F LT PUSH2 0x1A53 JUMPI PUSH2 0x100 DUP1 DUP4 SLOAD DIV MUL DUP4 MSTORE SWAP2 PUSH1 0x20 ADD SWAP2 PUSH2 0x1A7C JUMP JUMPDEST DUP3 ADD SWAP2 SWAP1 PUSH0 MSTORE PUSH1 0x20 PUSH0 KECCAK256 SWAP1 JUMPDEST DUP2 SLOAD DUP2 MSTORE SWAP1 PUSH1 0x1 ADD SWAP1 PUSH1 0x20 ADD DUP1 DUP4 GT PUSH2 0x1A5F JUMPI DUP3 SWAP1 SUB PUSH1 0x1F AND DUP3 ADD SWAP2 JUMPDEST POP POP POP POP POP DUP2 MSTORE POP POP DUP3 DUP5 DUP2 MLOAD DUP2 LT PUSH2 0x1A98 JUMPI PUSH2 0x1A97 PUSH2 0x27C6 JUMP JUMPDEST JUMPDEST PUSH1 0x20 MUL PUSH1 0x20 ADD ADD DUP2 SWAP1 MSTORE POP DUP3 DUP1 PUSH2 0x1AAE SWAP1 PUSH2 0x2C5D JUMP JUMPDEST SWAP4 POP POP JUMPDEST DUP1 DUP1 PUSH1 0x1 ADD SWAP2 POP POP PUSH2 0x16D6 JUMP JUMPDEST POP DUP1 SWAP3 POP POP POP SWAP2 SWAP1 POP JUMP JUMPDEST PUSH1 0x60 PUSH0 DUP1 JUMPDEST PUSH1 0x2 DUP1 SLOAD SWAP1 POP DUP2 LT ISZERO PUSH2 0x1B6D JUMPI DUP4 PUSH1 0x40 MLOAD PUSH1 0x20 ADD PUSH2 0x1AED SWAP2 SWAP1 PUSH2 0x282D JUMP JUMPDEST PUSH1 0x40 MLOAD PUSH1 0x20 DUP2 DUP4 SUB SUB DUP2 MSTORE SWAP1 PUSH1 0x40 MSTORE DUP1 MLOAD SWAP1 PUSH1 0x20 ADD KECCAK256 PUSH1 0x2 DUP3 DUP2 SLOAD DUP2 LT PUSH2 0x1B17 JUMPI PUSH2 0x1B16 PUSH2 0x27C6 JUMP JUMPDEST JUMPDEST SWAP1 PUSH0 MSTORE PUSH1 0x20 PUSH0 KECCAK256 SWAP1 PUSH1 0x8 MUL ADD PUSH1 0x3 ADD PUSH1 0x40 MLOAD PUSH1 0x20 ADD PUSH2 0x1B36 SWAP2 SWAP1 PUSH2 0x2932 JUMP JUMPDEST PUSH1 0x40 MLOAD PUSH1 0x20 DUP2 DUP4 SUB SUB DUP2 MSTORE SWAP1 PUSH1 0x40 MSTORE DUP1 MLOAD SWAP1 PUSH1 0x20 ADD KECCAK256 SUB PUSH2 0x1B60 JUMPI DUP2 DUP1 PUSH2 0x1B5C SWAP1 PUSH2 0x2C5D JUMP JUMPDEST SWAP3 POP POP JUMPDEST DUP1 DUP1 PUSH1 0x1 ADD SWAP2 POP POP PUSH2 0x1ACF JUMP JUMPDEST POP PUSH0 DUP2 PUSH8 0xFFFFFFFFFFFFFFFF DUP2 GT ISZERO PUSH2 0x1B89 JUMPI PUSH2 0x1B88 PUSH2 0x207E JUMP JUMPDEST JUMPDEST PUSH1 0x40 MLOAD SWAP1 DUP1 DUP3 MSTORE DUP1 PUSH1 0x20 MUL PUSH1 0x20 ADD DUP3 ADD PUSH1 0x40 MSTORE DUP1 ISZERO PUSH2 0x1BC2 JUMPI DUP2 PUSH1 0x20 ADD JUMPDEST PUSH2 0x1BAF PUSH2 0x1FA2 JUMP JUMPDEST DUP2 MSTORE PUSH1 0x20 ADD SWAP1 PUSH1 0x1 SWAP1 SUB SWAP1 DUP2 PUSH2 0x1BA7 JUMPI SWAP1 POP JUMPDEST POP SWAP1 POP PUSH0 SWAP2 POP PUSH0 JUMPDEST PUSH1 0x2 DUP1 SLOAD SWAP1 POP DUP2 LT ISZERO PUSH2 0x1F74 JUMPI DUP5 PUSH1 0x40 MLOAD PUSH1 0x20 ADD PUSH2 0x1BE8 SWAP2 SWAP1 PUSH2 0x282D JUMP JUMPDEST PUSH1 0x40 MLOAD PUSH1 0x20 DUP2 DUP4 SUB SUB DUP2 MSTORE SWAP1 PUSH1 0x40 MSTORE DUP1 MLOAD SWAP1 PUSH1 0x20 ADD KECCAK256 PUSH1 0x2 DUP3 DUP2 SLOAD DUP2 LT PUSH2 0x1C12 JUMPI PUSH2 0x1C11 PUSH2 0x27C6 JUMP JUMPDEST JUMPDEST SWAP1 PUSH0 MSTORE PUSH1 0x20 PUSH0 KECCAK256 SWAP1 PUSH1 0x8 MUL ADD PUSH1 0x3 ADD PUSH1 0x40 MLOAD PUSH1 0x20 ADD PUSH2 0x1C31 SWAP2 SWAP1 PUSH2 0x2932 JUMP JUMPDEST PUSH1 0x40 MLOAD PUSH1 0x20 DUP2 DUP4 SUB SUB DUP2 MSTORE SWAP1 PUSH1 0x40 MSTORE DUP1 MLOAD SWAP1 PUSH1 0x20 ADD KECCAK256 SUB PUSH2 0x1F67 JUMPI PUSH1 0x2 DUP2 DUP2 SLOAD DUP2 LT PUSH2 0x1C60 JUMPI PUSH2 0x1C5F PUSH2 0x27C6 JUMP JUMPDEST JUMPDEST SWAP1 PUSH0 MSTORE PUSH1 0x20 PUSH0 KECCAK256 SWAP1 PUSH1 0x8 MUL ADD PUSH1 0x40 MLOAD DUP1 PUSH2 0x100 ADD PUSH1 0x40 MSTORE SWAP1 DUP2 PUSH0 DUP3 ADD SLOAD DUP2 MSTORE PUSH1 0x20 ADD PUSH1 0x1 DUP3 ADD DUP1 SLOAD PUSH2 0x1C91 SWAP1 PUSH2 0x2870 JUMP JUMPDEST DUP1 PUSH1 0x1F ADD PUSH1 0x20 DUP1 SWAP2 DIV MUL PUSH1 0x20 ADD PUSH1 0x40 MLOAD SWAP1 DUP2 ADD PUSH1 0x40 MSTORE DUP1 SWAP3 SWAP2 SWAP1 DUP2 DUP2 MSTORE PUSH1 0x20 ADD DUP3 DUP1 SLOAD PUSH2 0x1CBD SWAP1 PUSH2 0x2870 JUMP JUMPDEST DUP1 ISZERO PUSH2 0x1D08 JUMPI DUP1 PUSH1 0x1F LT PUSH2 0x1CDF JUMPI PUSH2 0x100 DUP1 DUP4 SLOAD DIV MUL DUP4 MSTORE SWAP2 PUSH1 0x20 ADD SWAP2 PUSH2 0x1D08 JUMP JUMPDEST DUP3 ADD SWAP2 SWAP1 PUSH0 MSTORE PUSH1 0x20 PUSH0 KECCAK256 SWAP1 JUMPDEST DUP2 SLOAD DUP2 MSTORE SWAP1 PUSH1 0x1 ADD SWAP1 PUSH1 0x20 ADD DUP1 DUP4 GT PUSH2 0x1CEB JUMPI DUP3 SWAP1 SUB PUSH1 0x1F AND DUP3 ADD SWAP2 JUMPDEST POP POP POP POP POP DUP2 MSTORE PUSH1 0x20 ADD PUSH1 0x2 DUP3 ADD DUP1 SLOAD PUSH2 0x1D21 SWAP1 PUSH2 0x2870 JUMP JUMPDEST DUP1 PUSH1 0x1F ADD PUSH1 0x20 DUP1 SWAP2 DIV MUL PUSH1 0x20 ADD PUSH1 0x40 MLOAD SWAP1 DUP2 ADD PUSH1 0x40 MSTORE DUP1 SWAP3 SWAP2 SWAP1 DUP2 DUP2 MSTORE PUSH1 0x20 ADD DUP3 DUP1 SLOAD PUSH2 0x1D4D SWAP1 PUSH2 0x2870 JUMP JUMPDEST DUP1 ISZERO PUSH2 0x1D98 JUMPI DUP1 PUSH1 0x1F LT PUSH2 0x1D6F JUMPI PUSH2 0x100 DUP1 DUP4 SLOAD DIV MUL DUP4 MSTORE SWAP2 PUSH1 0x20 ADD SWAP2 PUSH2 0x1D98 JUMP JUMPDEST DUP3 ADD SWAP2 SWAP1 PUSH0 MSTORE PUSH1 0x20 PUSH0 KECCAK256 SWAP1 JUMPDEST DUP2 SLOAD DUP2 MSTORE SWAP1 PUSH1 0x1 ADD SWAP1 PUSH1 0x20 ADD DUP1 DUP4 GT PUSH2 0x1D7B JUMPI DUP3 SWAP1 SUB PUSH1 0x1F AND DUP3 ADD SWAP2 JUMPDEST POP POP POP POP POP DUP2 MSTORE PUSH1 0x20 ADD PUSH1 0x3 DUP3 ADD DUP1 SLOAD PUSH2 0x1DB1 SWAP1 PUSH2 0x2870 JUMP JUMPDEST DUP1 PUSH1 0x1F ADD PUSH1 0x20 DUP1 SWAP2 DIV MUL PUSH1 0x20 ADD PUSH1 0x40 MLOAD SWAP1 DUP2 ADD PUSH1 0x40 MSTORE DUP1 SWAP3 SWAP2 SWAP1 DUP2 DUP2 MSTORE PUSH1 0x20 ADD DUP3 DUP1 SLOAD PUSH2 0x1DDD SWAP1 PUSH2 0x2870 JUMP JUMPDEST DUP1 ISZERO PUSH2 0x1E28 JUMPI DUP1 PUSH1 0x1F LT PUSH2 0x1DFF JUMPI PUSH2 0x100 DUP1 DUP4 SLOAD DIV MUL DUP4 MSTORE SWAP2 PUSH1 0x20 ADD SWAP2 PUSH2 0x1E28 JUMP JUMPDEST DUP3 ADD SWAP2 SWAP1 PUSH0 MSTORE PUSH1 0x20 PUSH0 KECCAK256 SWAP1 JUMPDEST DUP2 SLOAD DUP2 MSTORE SWAP1 PUSH1 0x1 ADD SWAP1 PUSH1 0x20 ADD DUP1 DUP4 GT PUSH2 0x1E0B JUMPI DUP3 SWAP1 SUB PUSH1 0x1F AND DUP3 ADD SWAP2 JUMPDEST POP POP POP POP POP DUP2 MSTORE PUSH1 0x20 ADD PUSH1 0x4 DUP3 ADD PUSH0 SWAP1 SLOAD SWAP1 PUSH2 0x100 EXP SWAP1 DIV PUSH20 0xFFFFFFFFFFFFFFFFFFFFFFFFFFFFFFFFFFFFFFFF AND PUSH20 0xFFFFFFFFFFFFFFFFFFFFFFFFFFFFFFFFFFFFFFFF AND PUSH20 0xFFFFFFFFFFFFFFFFFFFFFFFFFFFFFFFFFFFFFFFF AND DUP2 MSTORE PUSH1 0x20 ADD PUSH1 0x5 DUP3 ADD SLOAD DUP2 MSTORE PUSH1 0x20 ADD PUSH1 0x6 DUP3 ADD PUSH0 SWAP1 SLOAD SWAP1 PUSH2 0x100 EXP SWAP1 DIV PUSH1 0xFF AND ISZERO ISZERO ISZERO ISZERO DUP2 MSTORE PUSH1 0x20 ADD PUSH1 0x7 DUP3 ADD DUP1 SLOAD PUSH2 0x1EBA SWAP1 PUSH2 0x2870 JUMP JUMPDEST DUP1 PUSH1 0x1F ADD PUSH1 0x20 DUP1 SWAP2 DIV MUL PUSH1 0x20 ADD PUSH1 0x40 MLOAD SWAP1 DUP2 ADD PUSH1 0x40 MSTORE DUP1 SWAP3 SWAP2 SWAP1 DUP2 DUP2 MSTORE PUSH1 0x20 ADD DUP3 DUP1 SLOAD PUSH2 0x1EE6 SWAP1 PUSH2 0x2870 JUMP JUMPDEST DUP1 ISZERO PUSH2 0x1F31 JUMPI DUP1 PUSH1 0x1F LT PUSH2 0x1F08 JUMPI PUSH2 0x100 DUP1 DUP4 SLOAD DIV MUL DUP4 MSTORE SWAP2 PUSH1 0x20 ADD SWAP2 PUSH2 0x1F31 JUMP JUMPDEST DUP3 ADD SWAP2 SWAP1 PUSH0 MSTORE PUSH1 0x20 PUSH0 KECCAK256 SWAP1 JUMPDEST DUP2 SLOAD DUP2 MSTORE SWAP1 PUSH1 0x1 ADD SWAP1 PUSH1 0x20 ADD DUP1 DUP4 GT PUSH2 0x1F14 JUMPI DUP3 SWAP1 SUB PUSH1 0x1F AND DUP3 ADD SWAP2 JUMPDEST POP POP POP POP POP DUP2 MSTORE POP POP DUP3 DUP5 DUP2 MLOAD DUP2 LT PUSH2 0x1F4D JUMPI PUSH2 0x1F4C PUSH2 0x27C6 JUMP JUMPDEST JUMPDEST PUSH1 0x20 MUL PUSH1 0x20 ADD ADD DUP2 SWAP1 MSTORE POP DUP3 DUP1 PUSH2 0x1F63 SWAP1 PUSH2 0x2C5D JUMP JUMPDEST SWAP4 POP POP JUMPDEST DUP1 DUP1 PUSH1 0x1 ADD SWAP2 POP POP PUSH2 0x1BCA JUMP JUMPDEST POP DUP1 SWAP3 POP POP POP SWAP2 SWAP1 POP JUMP JUMPDEST PUSH0 DUP1 SLOAD SWAP1 PUSH2 0x100 EXP SWAP1 DIV PUSH20 0xFFFFFFFFFFFFFFFFFFFFFFFFFFFFFFFFFFFFFFFF AND DUP2 JUMP JUMPDEST PUSH1 0x40 MLOAD DUP1 PUSH2 0x100 ADD PUSH1 0x40 MSTORE DUP1 PUSH0 DUP2 MSTORE PUSH1 0x20 ADD PUSH1 0x60 DUP2 MSTORE PUSH1 0x20 ADD PUSH1 0x60 DUP2 MSTORE PUSH1 0x20 ADD PUSH1 0x60 DUP2 MSTORE PUSH1 0x20 ADD PUSH0 PUSH20 0xFFFFFFFFFFFFFFFFFFFFFFFFFFFFFFFFFFFFFFFF AND DUP2 MSTORE PUSH1 0x20 ADD PUSH0 DUP2 MSTORE PUSH1 0x20 ADD PUSH0 ISZERO ISZERO DUP2 MSTORE PUSH1 0x20 ADD PUSH1 0x60 DUP2 MSTORE POP SWAP1 JUMP JUMPDEST PUSH0 PUSH1 0x40 MLOAD SWAP1 POP SWAP1 JUMP JUMPDEST PUSH0 DUP1 REVERT JUMPDEST PUSH0 DUP1 REVERT JUMPDEST PUSH0 PUSH20 0xFFFFFFFFFFFFFFFFFFFFFFFFFFFFFFFFFFFFFFFF DUP3 AND SWAP1 POP SWAP2 SWAP1 POP JUMP JUMPDEST PUSH0 PUSH2 0x2035 DUP3 PUSH2 0x200C JUMP JUMPDEST SWAP1 POP SWAP2 SWAP1 POP JUMP JUMPDEST PUSH2 0x2045 DUP2 PUSH2 0x202B JUMP JUMPDEST DUP2 EQ PUSH2 0x204F JUMPI PUSH0 DUP1 REVERT JUMPDEST POP JUMP JUMPDEST PUSH0 DUP2 CALLDATALOAD SWAP1 POP PUSH2 0x2060 DUP2 PUSH2 0x203C JUMP JUMPDEST SWAP3 SWAP2 POP POP JUMP JUMPDEST PUSH0 DUP1 REVERT JUMPDEST PUSH0 DUP1 REVERT JUMPDEST PUSH0 PUSH1 0x1F NOT PUSH1 0x1F DUP4 ADD AND SWAP1 POP SWAP2 SWAP1 POP JUMP JUMPDEST PUSH32 0x4E487B7100000000000000000000000000000000000000000000000000000000 PUSH0 MSTORE PUSH1 0x41 PUSH1 0x4 MSTORE PUSH1 0x24 PUSH0 REVERT JUMPDEST PUSH2 0x20B4 DUP3 PUSH2 0x206E JUMP JUMPDEST DUP2 ADD DUP2 DUP2 LT PUSH8 0xFFFFFFFFFFFFFFFF DUP3 GT OR ISZERO PUSH2 0x20D3 JUMPI PUSH2 0x20D2 PUSH2 0x207E JUMP JUMPDEST JUMPDEST DUP1 PUSH1 0x40 MSTORE POP POP POP JUMP JUMPDEST PUSH0 PUSH2 0x20E5 PUSH2 0x1FFB JUMP JUMPDEST SWAP1 POP PUSH2 0x20F1 DUP3 DUP3 PUSH2 0x20AB JUMP JUMPDEST SWAP2 SWAP1 POP JUMP JUMPDEST PUSH0 PUSH8 0xFFFFFFFFFFFFFFFF DUP3 GT ISZERO PUSH2 0x2110 JUMPI PUSH2 0x210F PUSH2 0x207E JUMP JUMPDEST JUMPDEST PUSH2 0x2119 DUP3 PUSH2 0x206E JUMP JUMPDEST SWAP1 POP PUSH1 0x20 DUP2 ADD SWAP1 POP SWAP2 SWAP1 POP JUMP JUMPDEST DUP3 DUP2 DUP4 CALLDATACOPY PUSH0 DUP4 DUP4 ADD MSTORE POP POP POP JUMP JUMPDEST PUSH0 PUSH2 0x2146 PUSH2 0x2141 DUP5 PUSH2 0x20F6 JUMP JUMPDEST PUSH2 0x20DC JUMP JUMPDEST SWAP1 POP DUP3 DUP2 MSTORE PUSH1 0x20 DUP2 ADD DUP5 DUP5 DUP5 ADD GT ISZERO PUSH2 0x2162 JUMPI PUSH2 0x2161 PUSH2 0x206A JUMP JUMPDEST JUMPDEST PUSH2 0x216D DUP5 DUP3 DUP6 PUSH2 0x2126 JUMP JUMPDEST POP SWAP4 SWAP3 POP POP POP JUMP JUMPDEST PUSH0 DUP3 PUSH1 0x1F DUP4 ADD SLT PUSH2 0x2189 JUMPI PUSH2 0x2188 PUSH2 0x2066 JUMP JUMPDEST JUMPDEST DUP2 CALLDATALOAD PUSH2 0x2199 DUP5 DUP3 PUSH1 0x20 DUP7 ADD PUSH2 0x2134 JUMP JUMPDEST SWAP2 POP POP SWAP3 SWAP2 POP POP JUMP JUMPDEST PUSH0 DUP1 PUSH1 0x40 DUP4 DUP6 SUB SLT ISZERO PUSH2 0x21B8 JUMPI PUSH2 0x21B7 PUSH2 0x2004 JUMP JUMPDEST JUMPDEST PUSH0 PUSH2 0x21C5 DUP6 DUP3 DUP7 ADD PUSH2 0x2052 JUMP JUMPDEST SWAP3 POP POP PUSH1 0x20 DUP4 ADD CALLDATALOAD PUSH8 0xFFFFFFFFFFFFFFFF DUP2 GT ISZERO PUSH2 0x21E6 JUMPI PUSH2 0x21E5 PUSH2 0x2008 JUMP JUMPDEST JUMPDEST PUSH2 0x21F2 DUP6 DUP3 DUP7 ADD PUSH2 0x2175 JUMP JUMPDEST SWAP2 POP POP SWAP3 POP SWAP3 SWAP1 POP JUMP JUMPDEST PUSH0 DUP2 ISZERO ISZERO SWAP1 POP SWAP2 SWAP1 POP JUMP JUMPDEST PUSH2 0x2210 DUP2 PUSH2 0x21FC JUMP JUMPDEST DUP3 MSTORE POP POP JUMP JUMPDEST PUSH0 PUSH1 0x20 DUP3 ADD SWAP1 POP PUSH2 0x2229 PUSH0 DUP4 ADD DUP5 PUSH2 0x2207 JUMP JUMPDEST SWAP3 SWAP2 POP POP JUMP JUMPDEST PUSH0 DUP2 SWAP1 POP SWAP2 SWAP1 POP JUMP JUMPDEST PUSH2 0x2241 DUP2 PUSH2 0x222F JUMP JUMPDEST DUP2 EQ PUSH2 0x224B JUMPI PUSH0 DUP1 REVERT JUMPDEST POP JUMP JUMPDEST PUSH0 DUP2 CALLDATALOAD SWAP1 POP PUSH2 0x225C DUP2 PUSH2 0x2238 JUMP JUMPDEST SWAP3 SWAP2 POP POP JUMP JUMPDEST PUSH0 DUP1 PUSH0 DUP1 PUSH0 DUP1 PUSH0 PUSH1 0xE0 DUP9 DUP11 SUB SLT ISZERO PUSH2 0x227D JUMPI PUSH2 0x227C PUSH2 0x2004 JUMP JUMPDEST JUMPDEST PUSH0 PUSH2 0x228A DUP11 DUP3 DUP12 ADD PUSH2 0x224E JUMP JUMPDEST SWAP8 POP POP PUSH1 0x20 DUP9 ADD CALLDATALOAD PUSH8 0xFFFFFFFFFFFFFFFF DUP2 GT ISZERO PUSH2 0x22AB JUMPI PUSH2 0x22AA PUSH2 0x2008 JUMP JUMPDEST JUMPDEST PUSH2 0x22B7 DUP11 DUP3 DUP12 ADD PUSH2 0x2175 JUMP JUMPDEST SWAP7 POP POP PUSH1 0x40 DUP9 ADD CALLDATALOAD PUSH8 0xFFFFFFFFFFFFFFFF DUP2 GT ISZERO PUSH2 0x22D8 JUMPI PUSH2 0x22D7 PUSH2 0x2008 JUMP JUMPDEST JUMPDEST PUSH2 0x22E4 DUP11 DUP3 DUP12 ADD PUSH2 0x2175 JUMP JUMPDEST SWAP6 POP POP PUSH1 0x60 DUP9 ADD CALLDATALOAD PUSH8 0xFFFFFFFFFFFFFFFF DUP2 GT ISZERO PUSH2 0x2305 JUMPI PUSH2 0x2304 PUSH2 0x2008 JUMP JUMPDEST JUMPDEST PUSH2 0x2311 DUP11 DUP3 DUP12 ADD PUSH2 0x2175 JUMP JUMPDEST SWAP5 POP POP PUSH1 0x80 PUSH2 0x2322 DUP11 DUP3 DUP12 ADD PUSH2 0x2052 JUMP JUMPDEST SWAP4 POP POP PUSH1 0xA0 PUSH2 0x2333 DUP11 DUP3 DUP12 ADD PUSH2 0x224E JUMP JUMPDEST SWAP3 POP POP PUSH1 0xC0 DUP9 ADD CALLDATALOAD PUSH8 0xFFFFFFFFFFFFFFFF DUP2 GT ISZERO PUSH2 0x2354 JUMPI PUSH2 0x2353 PUSH2 0x2008 JUMP JUMPDEST JUMPDEST PUSH2 0x2360 DUP11 DUP3 DUP12 ADD PUSH2 0x2175 JUMP JUMPDEST SWAP2 POP POP SWAP3 SWAP6 SWAP9 SWAP2 SWAP5 SWAP8 POP SWAP3 SWAP6 POP JUMP JUMPDEST PUSH2 0x2378 DUP2 PUSH2 0x202B JUMP JUMPDEST DUP3 MSTORE POP POP JUMP JUMPDEST PUSH0 PUSH1 0x20 DUP3 ADD SWAP1 POP PUSH2 0x2391 PUSH0 DUP4 ADD DUP5 PUSH2 0x236F JUMP JUMPDEST SWAP3 SWAP2 POP POP JUMP JUMPDEST PUSH0 PUSH1 0x20 DUP3 DUP5 SUB SLT ISZERO PUSH2 0x23AC JUMPI PUSH2 0x23AB PUSH2 0x2004 JUMP JUMPDEST JUMPDEST PUSH0 PUSH2 0x23B9 DUP5 DUP3 DUP6 ADD PUSH2 0x224E JUMP JUMPDEST SWAP2 POP POP SWAP3 SWAP2 POP POP JUMP JUMPDEST PUSH2 0x23CB DUP2 PUSH2 0x222F JUMP JUMPDEST DUP3 MSTORE POP POP JUMP JUMPDEST PUSH0 DUP2 MLOAD SWAP1 POP SWAP2 SWAP1 POP JUMP JUMPDEST PUSH0 DUP3 DUP3 MSTORE PUSH1 0x20 DUP3 ADD SWAP1 POP SWAP3 SWAP2 POP POP JUMP JUMPDEST PUSH0 JUMPDEST DUP4 DUP2 LT ISZERO PUSH2 0x2408 JUMPI DUP1 DUP3 ADD MLOAD DUP2 DUP5 ADD MSTORE PUSH1 0x20 DUP2 ADD SWAP1 POP PUSH2 0x23ED JUMP JUMPDEST PUSH0 DUP5 DUP5 ADD MSTORE POP POP POP POP JUMP JUMPDEST PUSH0 PUSH2 0x241D DUP3 PUSH2 0x23D1 JUMP JUMPDEST PUSH2 0x2427 DUP2 DUP6 PUSH2 0x23DB JUMP JUMPDEST SWAP4 POP PUSH2 0x2437 DUP2 DUP6 PUSH1 0x20 DUP7 ADD PUSH2 0x23EB JUMP JUMPDEST PUSH2 0x2440 DUP2 PUSH2 0x206E JUMP JUMPDEST DUP5 ADD SWAP2 POP POP SWAP3 SWAP2 POP POP JUMP JUMPDEST PUSH0 PUSH2 0x100 DUP3 ADD SWAP1 POP PUSH2 0x245F PUSH0 DUP4 ADD DUP12 PUSH2 0x23C2 JUMP JUMPDEST DUP2 DUP2 SUB PUSH1 0x20 DUP4 ADD MSTORE PUSH2 0x2471 DUP2 DUP11 PUSH2 0x2413 JUMP JUMPDEST SWAP1 POP DUP2 DUP2 SUB PUSH1 0x40 DUP4 ADD MSTORE PUSH2 0x2485 DUP2 DUP10 PUSH2 0x2413 JUMP JUMPDEST SWAP1 POP DUP2 DUP2 SUB PUSH1 0x60 DUP4 ADD MSTORE PUSH2 0x2499 DUP2 DUP9 PUSH2 0x2413 JUMP JUMPDEST SWAP1 POP PUSH2 0x24A8 PUSH1 0x80 DUP4 ADD DUP8 PUSH2 0x236F JUMP JUMPDEST PUSH2 0x24B5 PUSH1 0xA0 DUP4 ADD DUP7 PUSH2 0x23C2 JUMP JUMPDEST PUSH2 0x24C2 PUSH1 0xC0 DUP4 ADD DUP6 PUSH2 0x2207 JUMP JUMPDEST DUP2 DUP2 SUB PUSH1 0xE0 DUP4 ADD MSTORE PUSH2 0x24D4 DUP2 DUP5 PUSH2 0x2413 JUMP JUMPDEST SWAP1 POP SWAP10 SWAP9 POP POP POP POP POP POP POP POP POP JUMP JUMPDEST PUSH0 PUSH1 0x20 DUP3 DUP5 SUB SLT ISZERO PUSH2 0x24F8 JUMPI PUSH2 0x24F7 PUSH2 0x2004 JUMP JUMPDEST JUMPDEST PUSH0 DUP3 ADD CALLDATALOAD PUSH8 0xFFFFFFFFFFFFFFFF DUP2 GT ISZERO PUSH2 0x2515 JUMPI PUSH2 0x2514 PUSH2 0x2008 JUMP JUMPDEST JUMPDEST PUSH2 0x2521 DUP5 DUP3 DUP6 ADD PUSH2 0x2175 JUMP JUMPDEST SWAP2 POP POP SWAP3 SWAP2 POP POP JUMP JUMPDEST PUSH0 DUP2 MLOAD SWAP1 POP SWAP2 SWAP1 POP JUMP JUMPDEST PUSH0 DUP3 DUP3 MSTORE PUSH1 0x20 DUP3 ADD SWAP1 POP SWAP3 SWAP2 POP POP JUMP JUMPDEST PUSH0 DUP2 SWAP1 POP PUSH1 0x20 DUP3 ADD SWAP1 POP SWAP2 SWAP1 POP JUMP JUMPDEST PUSH2 0x255C DUP2 PUSH2 0x222F JUMP JUMPDEST DUP3 MSTORE POP POP JUMP JUMPDEST PUSH0 DUP3 DUP3 MSTORE PUSH1 0x20 DUP3 ADD SWAP1 POP SWAP3 SWAP2 POP POP JUMP JUMPDEST PUSH0 PUSH2 0x257C DUP3 PUSH2 0x23D1 JUMP JUMPDEST PUSH2 0x2586 DUP2 DUP6 PUSH2 0x2562 JUMP JUMPDEST SWAP4 POP PUSH2 0x2596 DUP2 DUP6 PUSH1 0x20 DUP7 ADD PUSH2 0x23EB JUMP JUMPDEST PUSH2 0x259F DUP2 PUSH2 0x206E JUMP JUMPDEST DUP5 ADD SWAP2 POP POP SWAP3 SWAP2 POP POP JUMP JUMPDEST PUSH2 0x25B3 DUP2 PUSH2 0x202B JUMP JUMPDEST DUP3 MSTORE POP POP JUMP JUMPDEST PUSH2 0x25C2 DUP2 PUSH2 0x21FC JUMP JUMPDEST DUP3 MSTORE POP POP JUMP JUMPDEST PUSH0 PUSH2 0x100 DUP4 ADD PUSH0 DUP4 ADD MLOAD PUSH2 0x25DE PUSH0 DUP7 ADD DUP3 PUSH2 0x2553 JUMP JUMPDEST POP PUSH1 0x20 DUP4 ADD MLOAD DUP5 DUP3 SUB PUSH1 0x20 DUP7 ADD MSTORE PUSH2 0x25F6 DUP3 DUP3 PUSH2 0x2572 JUMP JUMPDEST SWAP2 POP POP PUSH1 0x40 DUP4 ADD MLOAD DUP5 DUP3 SUB PUSH1 0x40 DUP7 ADD MSTORE PUSH2 0x2610 DUP3 DUP3 PUSH2 0x2572 JUMP JUMPDEST SWAP2 POP POP PUSH1 0x60 DUP4 ADD MLOAD DUP5 DUP3 SUB PUSH1 0x60 DUP7 ADD MSTORE PUSH2 0x262A DUP3 DUP3 PUSH2 0x2572 JUMP JUMPDEST SWAP2 POP POP PUSH1 0x80 DUP4 ADD MLOAD PUSH2 0x263F PUSH1 0x80 DUP7 ADD DUP3 PUSH2 0x25AA JUMP JUMPDEST POP PUSH1 0xA0 DUP4 ADD MLOAD PUSH2 0x2652 PUSH1 0xA0 DUP7 ADD DUP3 PUSH2 0x2553 JUMP JUMPDEST POP PUSH1 0xC0 DUP4 ADD MLOAD PUSH2 0x2665 PUSH1 0xC0 DUP7 ADD DUP3 PUSH2 0x25B9 JUMP JUMPDEST POP PUSH1 0xE0 DUP4 ADD MLOAD DUP5 DUP3 SUB PUSH1 0xE0 DUP7 ADD MSTORE PUSH2 0x267D DUP3 DUP3 PUSH2 0x2572 JUMP JUMPDEST SWAP2 POP POP DUP1 SWAP2 POP POP SWAP3 SWAP2 POP POP JUMP JUMPDEST PUSH0 PUSH2 0x2695 DUP4 DUP4 PUSH2 0x25C8 JUMP JUMPDEST SWAP1 POP SWAP3 SWAP2 POP POP JUMP JUMPDEST PUSH0 PUSH1 0x20 DUP3 ADD SWAP1 POP SWAP2 SWAP1 POP JUMP JUMPDEST PUSH0 PUSH2 0x26B3 DUP3 PUSH2 0x252A JUMP JUMPDEST PUSH2 0x26BD DUP2 DUP6 PUSH2 0x2534 JUMP JUMPDEST SWAP4 POP DUP4 PUSH1 0x20 DUP3 MUL DUP6 ADD PUSH2 0x26CF DUP6 PUSH2 0x2544 JUMP JUMPDEST DUP1 PUSH0 JUMPDEST DUP6 DUP2 LT ISZERO PUSH2 0x270A JUMPI DUP5 DUP5 SUB DUP10 MSTORE DUP2 MLOAD PUSH2 0x26EB DUP6 DUP3 PUSH2 0x268A JUMP JUMPDEST SWAP5 POP PUSH2 0x26F6 DUP4 PUSH2 0x269D JUMP JUMPDEST SWAP3 POP PUSH1 0x20 DUP11 ADD SWAP10 POP POP PUSH1 0x1 DUP2 ADD SWAP1 POP PUSH2 0x26D2 JUMP JUMPDEST POP DUP3 SWAP8 POP DUP8 SWAP6 POP POP POP POP POP POP SWAP3 SWAP2 POP POP JUMP JUMPDEST PUSH0 PUSH1 0x20 DUP3 ADD SWAP1 POP DUP2 DUP2 SUB PUSH0 DUP4 ADD MSTORE PUSH2 0x2734 DUP2 DUP5 PUSH2 0x26A9 JUMP JUMPDEST SWAP1 POP SWAP3 SWAP2 POP POP JUMP JUMPDEST PUSH0 PUSH1 0x20 DUP3 DUP5 SUB SLT ISZERO PUSH2 0x2751 JUMPI PUSH2 0x2750 PUSH2 0x2004 JUMP JUMPDEST JUMPDEST PUSH0 PUSH2 0x275E DUP5 DUP3 DUP6 ADD PUSH2 0x2052 JUMP JUMPDEST SWAP2 POP POP SWAP3 SWAP2 POP POP JUMP JUMPDEST PUSH0 DUP2 PUSH1 0x60 SHL SWAP1 POP SWAP2 SWAP1 POP JUMP JUMPDEST PUSH0 PUSH2 0x277D DUP3 PUSH2 0x2767 JUMP JUMPDEST SWAP1 POP SWAP2 SWAP1 POP JUMP JUMPDEST PUSH0 PUSH2 0x278E DUP3 PUSH2 0x2773 JUMP JUMPDEST SWAP1 POP SWAP2 SWAP1 POP JUMP JUMPDEST PUSH2 0x27A6 PUSH2 0x27A1 DUP3 PUSH2 0x202B JUMP JUMPDEST PUSH2 0x2784 JUMP JUMPDEST DUP3 MSTORE POP POP JUMP JUMPDEST PUSH0 PUSH2 0x27B7 DUP3 DUP5 PUSH2 0x2795 JUMP JUMPDEST PUSH1 0x14 DUP3 ADD SWAP2 POP DUP2 SWAP1 POP SWAP3 SWAP2 POP POP JUMP JUMPDEST PUSH32 0x4E487B7100000000000000000000000000000000000000000000000000000000 PUSH0 MSTORE PUSH1 0x32 PUSH1 0x4 MSTORE PUSH1 0x24 PUSH0 REVERT JUMPDEST PUSH0 DUP2 SWAP1 POP SWAP3 SWAP2 POP POP JUMP JUMPDEST PUSH0 PUSH2 0x2807 DUP3 PUSH2 0x23D1 JUMP JUMPDEST PUSH2 0x2811 DUP2 DUP6 PUSH2 0x27F3 JUMP JUMPDEST SWAP4 POP PUSH2 0x2821 DUP2 DUP6 PUSH1 0x20 DUP7 ADD PUSH2 0x23EB JUMP JUMPDEST DUP1 DUP5 ADD SWAP2 POP POP SWAP3 SWAP2 POP POP JUMP JUMPDEST PUSH0 PUSH2 0x2838 DUP3 DUP5 PUSH2 0x27FD JUMP JUMPDEST SWAP2 POP DUP2 SWAP1 POP SWAP3 SWAP2 POP POP JUMP JUMPDEST PUSH32 0x4E487B7100000000000000000000000000000000000000000000000000000000 PUSH0 MSTORE PUSH1 0x22 PUSH1 0x4 MSTORE PUSH1 0x24 PUSH0 REVERT JUMPDEST PUSH0 PUSH1 0x2 DUP3 DIV SWAP1 POP PUSH1 0x1 DUP3 AND DUP1 PUSH2 0x2887 JUMPI PUSH1 0x7F DUP3 AND SWAP2 POP JUMPDEST PUSH1 0x20 DUP3 LT DUP2 SUB PUSH2 0x289A JUMPI PUSH2 0x2899 PUSH2 0x2843 JUMP JUMPDEST JUMPDEST POP SWAP2 SWAP1 POP JUMP JUMPDEST PUSH0 DUP2 SWAP1 POP DUP2 PUSH0 MSTORE PUSH1 0x20 PUSH0 KECCAK256 SWAP1 POP SWAP2 SWAP1 POP JUMP JUMPDEST PUSH0 DUP2 SLOAD PUSH2 0x28BE DUP2 PUSH2 0x2870 JUMP JUMPDEST PUSH2 0x28C8 DUP2 DUP7 PUSH2 0x27F3 JUMP JUMPDEST SWAP5 POP PUSH1 0x1 DUP3 AND PUSH0 DUP2 EQ PUSH2 0x28E2 JUMPI PUSH1 0x1 DUP2 EQ PUSH2 0x28F7 JUMPI PUSH2 0x2929 JUMP JUMPDEST PUSH1 0xFF NOT DUP4 AND DUP7 MSTORE DUP2 ISZERO ISZERO DUP3 MUL DUP7 ADD SWAP4 POP PUSH2 0x2929 JUMP JUMPDEST PUSH2 0x2900 DUP6 PUSH2 0x28A0 JUMP JUMPDEST PUSH0 JUMPDEST DUP4 DUP2 LT ISZERO PUSH2 0x2921 JUMPI DUP2 SLOAD DUP2 DUP10 ADD MSTORE PUSH1 0x1 DUP3 ADD SWAP2 POP PUSH1 0x20 DUP2 ADD SWAP1 POP PUSH2 0x2902 JUMP JUMPDEST DUP4 DUP9 ADD SWAP6 POP POP POP JUMPDEST POP POP POP SWAP3 SWAP2 POP POP JUMP JUMPDEST PUSH0 PUSH2 0x293D DUP3 DUP5 PUSH2 0x28B2 JUMP JUMPDEST SWAP2 POP DUP2 SWAP1 POP SWAP3 SWAP2 POP POP JUMP JUMPDEST PUSH32 0x4F6E6C792063616D706169676E20636F6E74726163742063616C6C2074686973 PUSH0 DUP3 ADD MSTORE PUSH32 0x2066756E6374696F6E0000000000000000000000000000000000000000000000 PUSH1 0x20 DUP3 ADD MSTORE POP JUMP JUMPDEST PUSH0 PUSH2 0x29A2 PUSH1 0x29 DUP4 PUSH2 0x23DB JUMP JUMPDEST SWAP2 POP PUSH2 0x29AD DUP3 PUSH2 0x2948 JUMP JUMPDEST PUSH1 0x40 DUP3 ADD SWAP1 POP SWAP2 SWAP1 POP JUMP JUMPDEST PUSH0 PUSH1 0x20 DUP3 ADD SWAP1 POP DUP2 DUP2 SUB PUSH0 DUP4 ADD MSTORE PUSH2 0x29CF DUP2 PUSH2 0x2996 JUMP JUMPDEST SWAP1 POP SWAP2 SWAP1 POP JUMP JUMPDEST PUSH0 PUSH1 0x20 PUSH1 0x1F DUP4 ADD DIV SWAP1 POP SWAP2 SWAP1 POP JUMP JUMPDEST PUSH0 DUP3 DUP3 SHL SWAP1 POP SWAP3 SWAP2 POP POP JUMP JUMPDEST PUSH0 PUSH1 0x8 DUP4 MUL PUSH2 0x2A20 PUSH32 0xFFFFFFFFFFFFFFFFFFFFFFFFFFFFFFFFFFFFFFFFFFFFFFFFFFFFFFFFFFFFFFFF DUP3 PUSH2 0x29E5 JUMP JUMPDEST PUSH2 0x2A2A DUP7 DUP4 PUSH2 0x29E5 JUMP JUMPDEST SWAP6 POP DUP1 NOT DUP5 AND SWAP4 POP DUP1 DUP7 AND DUP5 OR SWAP3 POP POP POP SWAP4 SWAP3 POP POP POP JUMP JUMPDEST PUSH0 DUP2 SWAP1 POP SWAP2 SWAP1 POP JUMP JUMPDEST PUSH0 PUSH2 0x2A65 PUSH2 0x2A60 PUSH2 0x2A5B DUP5 PUSH2 0x222F JUMP JUMPDEST PUSH2 0x2A42 JUMP JUMPDEST PUSH2 0x222F JUMP JUMPDEST SWAP1 POP SWAP2 SWAP1 POP JUMP JUMPDEST PUSH0 DUP2 SWAP1 POP SWAP2 SWAP1 POP JUMP JUMPDEST PUSH2 0x2A7E DUP4 PUSH2 0x2A4B JUMP JUMPDEST PUSH2 0x2A92 PUSH2 0x2A8A DUP3 PUSH2 0x2A6C JUMP JUMPDEST DUP5 DUP5 SLOAD PUSH2 0x29F1 JUMP JUMPDEST DUP3 SSTORE POP POP POP POP JUMP JUMPDEST PUSH0 SWAP1 JUMP JUMPDEST PUSH2 0x2AA6 PUSH2 0x2A9A JUMP JUMPDEST PUSH2 0x2AB1 DUP2 DUP5 DUP5 PUSH2 0x2A75 JUMP JUMPDEST POP POP POP JUMP JUMPDEST JUMPDEST DUP2 DUP2 LT ISZERO PUSH2 0x2AD4 JUMPI PUSH2 0x2AC9 PUSH0 DUP3 PUSH2 0x2A9E JUMP JUMPDEST PUSH1 0x1 DUP2 ADD SWAP1 POP PUSH2 0x2AB7 JUMP JUMPDEST POP POP JUMP JUMPDEST PUSH1 0x1F DUP3 GT ISZERO PUSH2 0x2B19 JUMPI PUSH2 0x2AEA DUP2 PUSH2 0x28A0 JUMP JUMPDEST PUSH2 0x2AF3 DUP5 PUSH2 0x29D6 JUMP JUMPDEST DUP2 ADD PUSH1 0x20 DUP6 LT ISZERO PUSH2 0x2B02 JUMPI DUP2 SWAP1 POP JUMPDEST PUSH2 0x2B16 PUSH2 0x2B0E DUP6 PUSH2 0x29D6 JUMP JUMPDEST DUP4 ADD DUP3 PUSH2 0x2AB6 JUMP JUMPDEST POP POP JUMPDEST POP POP POP JUMP JUMPDEST PUSH0 DUP3 DUP3 SHR SWAP1 POP SWAP3 SWAP2 POP POP JUMP JUMPDEST PUSH0 PUSH2 0x2B39 PUSH0 NOT DUP5 PUSH1 0x8 MUL PUSH2 0x2B1E JUMP JUMPDEST NOT DUP1 DUP4 AND SWAP2 POP POP SWAP3 SWAP2 POP POP JUMP JUMPDEST PUSH0 PUSH2 0x2B51 DUP4 DUP4 PUSH2 0x2B2A JUMP JUMPDEST SWAP2 POP DUP3 PUSH1 0x2 MUL DUP3 OR SWAP1 POP SWAP3 SWAP2 POP POP JUMP JUMPDEST PUSH2 0x2B6A DUP3 PUSH2 0x23D1 JUMP JUMPDEST PUSH8 0xFFFFFFFFFFFFFFFF DUP2 GT ISZERO PUSH2 0x2B83 JUMPI PUSH2 0x2B82 PUSH2 0x207E JUMP JUMPDEST JUMPDEST PUSH2 0x2B8D DUP3 SLOAD PUSH2 0x2870 JUMP JUMPDEST PUSH2 0x2B98 DUP3 DUP3 DUP6 PUSH2 0x2AD8 JUMP JUMPDEST PUSH0 PUSH1 0x20 SWAP1 POP PUSH1 0x1F DUP4 GT PUSH1 0x1 DUP2 EQ PUSH2 0x2BC9 JUMPI PUSH0 DUP5 ISZERO PUSH2 0x2BB7 JUMPI DUP3 DUP8 ADD MLOAD SWAP1 POP JUMPDEST PUSH2 0x2BC1 DUP6 DUP3 PUSH2 0x2B46 JUMP JUMPDEST DUP7 SSTORE POP PUSH2 0x2C28 JUMP JUMPDEST PUSH1 0x1F NOT DUP5 AND PUSH2 0x2BD7 DUP7 PUSH2 0x28A0 JUMP JUMPDEST PUSH0 JUMPDEST DUP3 DUP2 LT ISZERO PUSH2 0x2BFE JUMPI DUP5 DUP10 ADD MLOAD DUP3 SSTORE PUSH1 0x1 DUP3 ADD SWAP2 POP PUSH1 0x20 DUP6 ADD SWAP5 POP PUSH1 0x20 DUP2 ADD SWAP1 POP PUSH2 0x2BD9 JUMP JUMPDEST DUP7 DUP4 LT ISZERO PUSH2 0x2C1B JUMPI DUP5 DUP10 ADD MLOAD PUSH2 0x2C17 PUSH1 0x1F DUP10 AND DUP3 PUSH2 0x2B2A JUMP JUMPDEST DUP4 SSTORE POP JUMPDEST PUSH1 0x1 PUSH1 0x2 DUP9 MUL ADD DUP9 SSTORE POP POP POP JUMPDEST POP POP POP POP POP POP JUMP JUMPDEST PUSH32 0x4E487B7100000000000000000000000000000000000000000000000000000000 PUSH0 MSTORE PUSH1 0x11 PUSH1 0x4 MSTORE PUSH1 0x24 PUSH0 REVERT JUMPDEST PUSH0 PUSH2 0x2C67 DUP3 PUSH2 0x222F JUMP JUMPDEST SWAP2 POP PUSH32 0xFFFFFFFFFFFFFFFFFFFFFFFFFFFFFFFFFFFFFFFFFFFFFFFFFFFFFFFFFFFFFFFF DUP3 SUB PUSH2 0x2C99 JUMPI PUSH2 0x2C98 PUSH2 0x2C30 JUMP JUMPDEST JUMPDEST PUSH1 0x1 DUP3 ADD SWAP1 POP SWAP2 SWAP1 POP JUMP JUMPDEST PUSH32 0x4F6E6C79206465706C6F7965722063616C6C20746869732066756E6374696F6E PUSH0 DUP3 ADD MSTORE POP JUMP JUMPDEST PUSH0 PUSH2 0x2CD8 PUSH1 0x20 DUP4 PUSH2 0x23DB JUMP JUMPDEST SWAP2 POP PUSH2 0x2CE3 DUP3 PUSH2 0x2CA4 JUMP JUMPDEST PUSH1 0x20 DUP3 ADD SWAP1 POP SWAP2 SWAP1 POP JUMP JUMPDEST PUSH0 PUSH1 0x20 DUP3 ADD SWAP1 POP DUP2 DUP2 SUB PUSH0 DUP4 ADD MSTORE PUSH2 0x2D05 DUP2 PUSH2 0x2CCC JUMP JUMPDEST SWAP1 POP SWAP2 SWAP1 POP JUMP INVALID LOG2 PUSH5 0x6970667358 0x22 SLT KECCAK256 0xD2 DUP11 0xD5 COINBASE PUSH18 0xDF97461EBB83AFA2D5037F7E839D034114D6 DUP12 PUSH11 0x9DEE070E11345E64736F6C PUSH4 0x43000816 STOP CALLER "
				},
				"gasEstimates": {
					"creation": {
						"codeDepositCost": "2317200",
						"executionCost": "26749",
						"totalCost": "2343949"
					},
					"external": {
						"addNewTransactionHistory(uint256,string,string,string,address,uint256,string)": "infinite",
						"campaignContractAddress()": "2553",
						"deployerAddress()": "2615",
						"getAllTransaction()": "infinite",
						"getDonateByOwner(string)": "infinite",
						"getDonateByUser(string)": "infinite",
						"getTransactionHistoryByCampaignId(string)": "infinite",
						"getTransactionHistoryByCampaignIdAndRefund(string)": "infinite",
						"isDonatedtoCampaign(address,string)": "infinite",
						"setCampaignAddress(address)": "26881",
						"transactionInfoArray(uint256)": "infinite"
					},
					"internal": {
						"resizeArray(struct TransactionHistory.TransactionInfo memory[] memory,uint256)": "infinite"
					}
				},
				"methodIdentifiers": {
					"addNewTransactionHistory(uint256,string,string,string,address,uint256,string)": "31d7adf7",
					"campaignContractAddress()": "671f18f7",
					"deployerAddress()": "efdee94f",
					"getAllTransaction()": "add6415d",
					"getDonateByOwner(string)": "b6b52ccd",
					"getDonateByUser(string)": "e3726d66",
					"getTransactionHistoryByCampaignId(string)": "99b3e96a",
					"getTransactionHistoryByCampaignIdAndRefund(string)": "d740bb6c",
					"isDonatedtoCampaign(address,string)": "048fa3a7",
					"setCampaignAddress(address)": "a3306ae3",
					"transactionInfoArray(uint256)": "92ad672f"
				}
			},
			"storageLayout": {
				"storage": [
					{
						"astId": 3,
						"contract": "contracts/TransactionHistory.sol:TransactionHistory",
						"label": "deployerAddress",
						"offset": 0,
						"slot": "0",
						"type": "t_address"
					},
					{
						"astId": 5,
						"contract": "contracts/TransactionHistory.sol:TransactionHistory",
						"label": "campaignContractAddress",
						"offset": 0,
						"slot": "1",
						"type": "t_address"
					},
					{
						"astId": 26,
						"contract": "contracts/TransactionHistory.sol:TransactionHistory",
						"label": "transactionInfoArray",
						"offset": 0,
						"slot": "2",
						"type": "t_array(t_struct(TransactionInfo)22_storage)dyn_storage"
					}
				],
				"types": {
					"t_address": {
						"encoding": "inplace",
						"label": "address",
						"numberOfBytes": "20"
					},
					"t_array(t_struct(TransactionInfo)22_storage)dyn_storage": {
						"base": "t_struct(TransactionInfo)22_storage",
						"encoding": "dynamic_array",
						"label": "struct TransactionHistory.TransactionInfo[]",
						"numberOfBytes": "32"
					},
					"t_bool": {
						"encoding": "inplace",
						"label": "bool",
						"numberOfBytes": "1"
					},
					"t_string_storage": {
						"encoding": "bytes",
						"label": "string",
						"numberOfBytes": "32"
					},
					"t_struct(TransactionInfo)22_storage": {
						"encoding": "inplace",
						"label": "struct TransactionHistory.TransactionInfo",
						"members": [
							{
								"astId": 7,
								"contract": "contracts/TransactionHistory.sol:TransactionHistory",
								"label": "id",
								"offset": 0,
								"slot": "0",
								"type": "t_uint256"
							},
							{
								"astId": 9,
								"contract": "contracts/TransactionHistory.sol:TransactionHistory",
								"label": "campaignId",
								"offset": 0,
								"slot": "1",
								"type": "t_string_storage"
							},
							{
								"astId": 11,
								"contract": "contracts/TransactionHistory.sol:TransactionHistory",
								"label": "ownerId",
								"offset": 0,
								"slot": "2",
								"type": "t_string_storage"
							},
							{
								"astId": 13,
								"contract": "contracts/TransactionHistory.sol:TransactionHistory",
								"label": "donatorId",
								"offset": 0,
								"slot": "3",
								"type": "t_string_storage"
							},
							{
								"astId": 15,
								"contract": "contracts/TransactionHistory.sol:TransactionHistory",
								"label": "donatorAddress",
								"offset": 0,
								"slot": "4",
								"type": "t_address"
							},
							{
								"astId": 17,
								"contract": "contracts/TransactionHistory.sol:TransactionHistory",
								"label": "value",
								"offset": 0,
								"slot": "5",
								"type": "t_uint256"
							},
							{
								"astId": 19,
								"contract": "contracts/TransactionHistory.sol:TransactionHistory",
								"label": "isRefund",
								"offset": 0,
								"slot": "6",
								"type": "t_bool"
							},
							{
								"astId": 21,
								"contract": "contracts/TransactionHistory.sol:TransactionHistory",
								"label": "time",
								"offset": 0,
								"slot": "7",
								"type": "t_string_storage"
							}
						],
						"numberOfBytes": "256"
					},
					"t_uint256": {
						"encoding": "inplace",
						"label": "uint256",
						"numberOfBytes": "32"
					}
				}
			},
			"userdoc": {
				"kind": "user",
				"methods": {},
				"version": 1
			}
		}
	}
}