{
	"contracts/TransactionHistory.sol": {
		"TransactionHistory": {
			"abi": [
				{
					"inputs": [],
					"stateMutability": "nonpayable",
					"type": "constructor"
				},
				{
					"inputs": [
						{
							"internalType": "uint256",
							"name": "id",
							"type": "uint256"
						},
						{
							"internalType": "string",
							"name": "campaignId",
							"type": "string"
						},
						{
							"internalType": "string",
							"name": "ownerId",
							"type": "string"
						},
						{
							"internalType": "string",
							"name": "donatorId",
							"type": "string"
						},
						{
							"internalType": "address",
							"name": "donatorAddress",
							"type": "address"
						},
						{
							"internalType": "uint256",
							"name": "value",
							"type": "uint256"
						},
						{
							"internalType": "string",
							"name": "time",
							"type": "string"
						},
						{
							"internalType": "bool",
							"name": "isAnonymous",
							"type": "bool"
						}
					],
					"name": "addNewTransactionHistory",
					"outputs": [],
					"stateMutability": "nonpayable",
					"type": "function"
				},
				{
					"inputs": [],
					"name": "campaignContractAddress",
					"outputs": [
						{
							"internalType": "address",
							"name": "",
							"type": "address"
						}
					],
					"stateMutability": "view",
					"type": "function"
				},
				{
					"inputs": [],
					"name": "deployerAddress",
					"outputs": [
						{
							"internalType": "address",
							"name": "",
							"type": "address"
						}
					],
					"stateMutability": "view",
					"type": "function"
				},
				{
					"inputs": [],
					"name": "getAllTransaction",
					"outputs": [
						{
							"components": [
								{
									"internalType": "uint256",
									"name": "id",
									"type": "uint256"
								},
								{
									"internalType": "string",
									"name": "campaignId",
									"type": "string"
								},
								{
									"internalType": "string",
									"name": "ownerId",
									"type": "string"
								},
								{
									"internalType": "string",
									"name": "donatorId",
									"type": "string"
								},
								{
									"internalType": "address",
									"name": "donatorAddress",
									"type": "address"
								},
								{
									"internalType": "uint256",
									"name": "value",
									"type": "uint256"
								},
								{
									"internalType": "bool",
									"name": "isRefund",
									"type": "bool"
								},
								{
									"internalType": "string",
									"name": "time",
									"type": "string"
								},
								{
									"internalType": "string",
									"name": "timeRefund",
									"type": "string"
								},
								{
									"internalType": "bool",
									"name": "isAnonymous",
									"type": "bool"
								}
							],
							"internalType": "struct TransactionHistory.TransactionInfo[]",
							"name": "",
							"type": "tuple[]"
						}
					],
					"stateMutability": "view",
					"type": "function"
				},
				{
					"inputs": [
						{
							"internalType": "string",
							"name": "_ownerId",
							"type": "string"
						}
					],
					"name": "getDonateByOwner",
					"outputs": [
						{
							"components": [
								{
									"internalType": "uint256",
									"name": "id",
									"type": "uint256"
								},
								{
									"internalType": "string",
									"name": "campaignId",
									"type": "string"
								},
								{
									"internalType": "string",
									"name": "ownerId",
									"type": "string"
								},
								{
									"internalType": "string",
									"name": "donatorId",
									"type": "string"
								},
								{
									"internalType": "address",
									"name": "donatorAddress",
									"type": "address"
								},
								{
									"internalType": "uint256",
									"name": "value",
									"type": "uint256"
								},
								{
									"internalType": "bool",
									"name": "isRefund",
									"type": "bool"
								},
								{
									"internalType": "string",
									"name": "time",
									"type": "string"
								},
								{
									"internalType": "string",
									"name": "timeRefund",
									"type": "string"
								},
								{
									"internalType": "bool",
									"name": "isAnonymous",
									"type": "bool"
								}
							],
							"internalType": "struct TransactionHistory.TransactionInfo[]",
							"name": "",
							"type": "tuple[]"
						}
					],
					"stateMutability": "view",
					"type": "function"
				},
				{
					"inputs": [
						{
							"internalType": "string",
							"name": "_donatorId",
							"type": "string"
						}
					],
					"name": "getDonateByUser",
					"outputs": [
						{
							"components": [
								{
									"internalType": "uint256",
									"name": "id",
									"type": "uint256"
								},
								{
									"internalType": "string",
									"name": "campaignId",
									"type": "string"
								},
								{
									"internalType": "string",
									"name": "ownerId",
									"type": "string"
								},
								{
									"internalType": "string",
									"name": "donatorId",
									"type": "string"
								},
								{
									"internalType": "address",
									"name": "donatorAddress",
									"type": "address"
								},
								{
									"internalType": "uint256",
									"name": "value",
									"type": "uint256"
								},
								{
									"internalType": "bool",
									"name": "isRefund",
									"type": "bool"
								},
								{
									"internalType": "string",
									"name": "time",
									"type": "string"
								},
								{
									"internalType": "string",
									"name": "timeRefund",
									"type": "string"
								},
								{
									"internalType": "bool",
									"name": "isAnonymous",
									"type": "bool"
								}
							],
							"internalType": "struct TransactionHistory.TransactionInfo[]",
							"name": "",
							"type": "tuple[]"
						}
					],
					"stateMutability": "view",
					"type": "function"
				},
				{
					"inputs": [
						{
							"internalType": "string",
							"name": "_campaignId",
							"type": "string"
						}
					],
					"name": "getTransactionHistoryByCampaignId",
					"outputs": [
						{
							"components": [
								{
									"internalType": "uint256",
									"name": "id",
									"type": "uint256"
								},
								{
									"internalType": "string",
									"name": "campaignId",
									"type": "string"
								},
								{
									"internalType": "string",
									"name": "ownerId",
									"type": "string"
								},
								{
									"internalType": "string",
									"name": "donatorId",
									"type": "string"
								},
								{
									"internalType": "address",
									"name": "donatorAddress",
									"type": "address"
								},
								{
									"internalType": "uint256",
									"name": "value",
									"type": "uint256"
								},
								{
									"internalType": "bool",
									"name": "isRefund",
									"type": "bool"
								},
								{
									"internalType": "string",
									"name": "time",
									"type": "string"
								},
								{
									"internalType": "string",
									"name": "timeRefund",
									"type": "string"
								},
								{
									"internalType": "bool",
									"name": "isAnonymous",
									"type": "bool"
								}
							],
							"internalType": "struct TransactionHistory.TransactionInfo[]",
							"name": "",
							"type": "tuple[]"
						}
					],
					"stateMutability": "view",
					"type": "function"
				},
				{
					"inputs": [
						{
							"internalType": "string",
							"name": "_campaignId",
							"type": "string"
						}
					],
					"name": "getTransactionHistoryByCampaignIdAndRefund",
					"outputs": [
						{
							"components": [
								{
									"internalType": "uint256",
									"name": "id",
									"type": "uint256"
								},
								{
									"internalType": "string",
									"name": "campaignId",
									"type": "string"
								},
								{
									"internalType": "string",
									"name": "ownerId",
									"type": "string"
								},
								{
									"internalType": "string",
									"name": "donatorId",
									"type": "string"
								},
								{
									"internalType": "address",
									"name": "donatorAddress",
									"type": "address"
								},
								{
									"internalType": "uint256",
									"name": "value",
									"type": "uint256"
								},
								{
									"internalType": "bool",
									"name": "isRefund",
									"type": "bool"
								},
								{
									"internalType": "string",
									"name": "time",
									"type": "string"
								},
								{
									"internalType": "string",
									"name": "timeRefund",
									"type": "string"
								},
								{
									"internalType": "bool",
									"name": "isAnonymous",
									"type": "bool"
								}
							],
							"internalType": "struct TransactionHistory.TransactionInfo[]",
							"name": "",
							"type": "tuple[]"
						}
					],
					"stateMutability": "view",
					"type": "function"
				},
				{
					"inputs": [
						{
							"internalType": "address",
							"name": "_donatorAddress",
							"type": "address"
						},
						{
							"internalType": "string",
							"name": "_campaignId",
							"type": "string"
						}
					],
					"name": "isDonatedtoCampaign",
					"outputs": [
						{
							"internalType": "bool",
							"name": "",
							"type": "bool"
						}
					],
					"stateMutability": "view",
					"type": "function"
				},
				{
					"inputs": [
						{
							"internalType": "address",
							"name": "_campaignContractAddress",
							"type": "address"
						}
					],
					"name": "setCampaignAddress",
					"outputs": [],
					"stateMutability": "nonpayable",
					"type": "function"
				},
				{
					"inputs": [
						{
							"internalType": "uint256",
							"name": "",
							"type": "uint256"
						}
					],
					"name": "transactionInfoArray",
					"outputs": [
						{
							"internalType": "uint256",
							"name": "id",
							"type": "uint256"
						},
						{
							"internalType": "string",
							"name": "campaignId",
							"type": "string"
						},
						{
							"internalType": "string",
							"name": "ownerId",
							"type": "string"
						},
						{
							"internalType": "string",
							"name": "donatorId",
							"type": "string"
						},
						{
							"internalType": "address",
							"name": "donatorAddress",
							"type": "address"
						},
						{
							"internalType": "uint256",
							"name": "value",
							"type": "uint256"
						},
						{
							"internalType": "bool",
							"name": "isRefund",
							"type": "bool"
						},
						{
							"internalType": "string",
							"name": "time",
							"type": "string"
						},
						{
							"internalType": "string",
							"name": "timeRefund",
							"type": "string"
						},
						{
							"internalType": "bool",
							"name": "isAnonymous",
							"type": "bool"
						}
					],
					"stateMutability": "view",
					"type": "function"
				},
				{
					"inputs": [
						{
							"internalType": "string",
							"name": "_campaignId",
							"type": "string"
						},
						{
							"internalType": "string",
							"name": "_timeRefund",
							"type": "string"
						}
					],
					"name": "updateRefundStatus",
					"outputs": [],
					"stateMutability": "nonpayable",
					"type": "function"
				}
			],
			"devdoc": {
				"kind": "dev",
				"methods": {},
				"version": 1
			},
			"evm": {
				"assembly": "    /* \"contracts/TransactionHistory.sol\":68:6680  contract TransactionHistory {... */\n  mstore(0x40, 0x80)\n    /* \"contracts/TransactionHistory.sol\":536:597  constructor() {... */\n  callvalue\n  dup1\n  iszero\n  tag_1\n  jumpi\n  0x00\n  dup1\n  revert\ntag_1:\n  pop\n    /* \"contracts/TransactionHistory.sol\":579:589  msg.sender */\n  caller\n    /* \"contracts/TransactionHistory.sol\":561:576  deployerAddress */\n  0x00\n  dup1\n    /* \"contracts/TransactionHistory.sol\":561:589  deployerAddress = msg.sender */\n  0x0100\n  exp\n  dup2\n  sload\n  dup2\n  0xffffffffffffffffffffffffffffffffffffffff\n  mul\n  not\n  and\n  swap1\n  dup4\n  0xffffffffffffffffffffffffffffffffffffffff\n  and\n  mul\n  or\n  swap1\n  sstore\n  pop\n    /* \"contracts/TransactionHistory.sol\":68:6680  contract TransactionHistory {... */\n  dataSize(sub_0)\n  dup1\n  dataOffset(sub_0)\n  0x00\n  codecopy\n  0x00\n  return\nstop\n\nsub_0: assembly {\n        /* \"contracts/TransactionHistory.sol\":68:6680  contract TransactionHistory {... */\n      mstore(0x40, 0x80)\n      callvalue\n      dup1\n      iszero\n      tag_1\n      jumpi\n      0x00\n      dup1\n      revert\n    tag_1:\n      pop\n      jumpi(tag_2, lt(calldatasize, 0x04))\n      shr(0xe0, calldataload(0x00))\n      dup1\n      0xadd6415d\n      gt\n      tag_15\n      jumpi\n      dup1\n      0xadd6415d\n      eq\n      tag_9\n      jumpi\n      dup1\n      0xb6b52ccd\n      eq\n      tag_10\n      jumpi\n      dup1\n      0xb6f1cf93\n      eq\n      tag_11\n      jumpi\n      dup1\n      0xd740bb6c\n      eq\n      tag_12\n      jumpi\n      dup1\n      0xe3726d66\n      eq\n      tag_13\n      jumpi\n      dup1\n      0xefdee94f\n      eq\n      tag_14\n      jumpi\n      jump(tag_2)\n    tag_15:\n      dup1\n      0x048fa3a7\n      eq\n      tag_3\n      jumpi\n      dup1\n      0x147598c5\n      eq\n      tag_4\n      jumpi\n      dup1\n      0x671f18f7\n      eq\n      tag_5\n      jumpi\n      dup1\n      0x92ad672f\n      eq\n      tag_6\n      jumpi\n      dup1\n      0x99b3e96a\n      eq\n      tag_7\n      jumpi\n      dup1\n      0xa3306ae3\n      eq\n      tag_8\n      jumpi\n    tag_2:\n      0x00\n      dup1\n      revert\n        /* \"contracts/TransactionHistory.sol\":2171:2869  function isDonatedtoCampaign(... */\n    tag_3:\n      tag_16\n      0x04\n      dup1\n      calldatasize\n      sub\n      dup2\n      add\n      swap1\n      tag_17\n      swap2\n      swap1\n      tag_18\n      jump\t// in\n    tag_17:\n      tag_19\n      jump\t// in\n    tag_16:\n      mload(0x40)\n      tag_20\n      swap2\n      swap1\n      tag_21\n      jump\t// in\n    tag_20:\n      mload(0x40)\n      dup1\n      swap2\n      sub\n      swap1\n      return\n        /* \"contracts/TransactionHistory.sol\":978:1824  function addNewTransactionHistory(... */\n    tag_4:\n      tag_22\n      0x04\n      dup1\n      calldatasize\n      sub\n      dup2\n      add\n      swap1\n      tag_23\n      swap2\n      swap1\n      tag_24\n      jump\t// in\n    tag_23:\n      tag_25\n      jump\t// in\n    tag_22:\n      stop\n        /* \"contracts/TransactionHistory.sol\":140:178  address public campaignContractAddress */\n    tag_5:\n      tag_26\n      tag_27\n      jump\t// in\n    tag_26:\n      mload(0x40)\n      tag_28\n      swap2\n      swap1\n      tag_29\n      jump\t// in\n    tag_28:\n      mload(0x40)\n      dup1\n      swap2\n      sub\n      swap1\n      return\n        /* \"contracts/TransactionHistory.sol\":482:527  TransactionInfo[] public transactionInfoArray */\n    tag_6:\n      tag_30\n      0x04\n      dup1\n      calldatasize\n      sub\n      dup2\n      add\n      swap1\n      tag_31\n      swap2\n      swap1\n      tag_32\n      jump\t// in\n    tag_31:\n      tag_33\n      jump\t// in\n    tag_30:\n      mload(0x40)\n      tag_34\n      swap11\n      swap10\n      swap9\n      swap8\n      swap7\n      swap6\n      swap5\n      swap4\n      swap3\n      swap2\n      swap1\n      tag_35\n      jump\t// in\n    tag_34:\n      mload(0x40)\n      dup1\n      swap2\n      sub\n      swap1\n      return\n        /* \"contracts/TransactionHistory.sol\":2877:3700  function getTransactionHistoryByCampaignId(string memory _campaignId) external view returns (TransactionInfo[] memory) {... */\n    tag_7:\n      tag_36\n      0x04\n      dup1\n      calldatasize\n      sub\n      dup2\n      add\n      swap1\n      tag_37\n      swap2\n      swap1\n      tag_38\n      jump\t// in\n    tag_37:\n      tag_39\n      jump\t// in\n    tag_36:\n      mload(0x40)\n      tag_40\n      swap2\n      swap1\n      tag_41\n      jump\t// in\n    tag_40:\n      mload(0x40)\n      dup1\n      swap2\n      sub\n      swap1\n      return\n        /* \"contracts/TransactionHistory.sol\":1996:2163  function setCampaignAddress(... */\n    tag_8:\n      tag_42\n      0x04\n      dup1\n      calldatasize\n      sub\n      dup2\n      add\n      swap1\n      tag_43\n      swap2\n      swap1\n      tag_44\n      jump\t// in\n    tag_43:\n      tag_45\n      jump\t// in\n    tag_42:\n      stop\n        /* \"contracts/TransactionHistory.sol\":1832:1988  function getAllTransaction()... */\n    tag_9:\n      tag_46\n      tag_47\n      jump\t// in\n    tag_46:\n      mload(0x40)\n      tag_48\n      swap2\n      swap1\n      tag_41\n      jump\t// in\n    tag_48:\n      mload(0x40)\n      dup1\n      swap2\n      sub\n      swap1\n      return\n        /* \"contracts/TransactionHistory.sol\":5424:6215  function getDonateByOwner(string memory _ownerId) external view returns (TransactionInfo[] memory) {... */\n    tag_10:\n      tag_49\n      0x04\n      dup1\n      calldatasize\n      sub\n      dup2\n      add\n      swap1\n      tag_50\n      swap2\n      swap1\n      tag_38\n      jump\t// in\n    tag_50:\n      tag_51\n      jump\t// in\n    tag_49:\n      mload(0x40)\n      tag_52\n      swap2\n      swap1\n      tag_41\n      jump\t// in\n    tag_52:\n      mload(0x40)\n      dup1\n      swap2\n      sub\n      swap1\n      return\n        /* \"contracts/TransactionHistory.sol\":6222:6677  function updateRefundStatus(string memory _campaignId, string memory _timeRefund) external {... */\n    tag_11:\n      tag_53\n      0x04\n      dup1\n      calldatasize\n      sub\n      dup2\n      add\n      swap1\n      tag_54\n      swap2\n      swap1\n      tag_55\n      jump\t// in\n    tag_54:\n      tag_56\n      jump\t// in\n    tag_53:\n      stop\n        /* \"contracts/TransactionHistory.sol\":3708:4602  function getTransactionHistoryByCampaignIdAndRefund(string memory _campaignId) external view returns (TransactionInfo[] memory) {... */\n    tag_12:\n      tag_57\n      0x04\n      dup1\n      calldatasize\n      sub\n      dup2\n      add\n      swap1\n      tag_58\n      swap2\n      swap1\n      tag_38\n      jump\t// in\n    tag_58:\n      tag_59\n      jump\t// in\n    tag_57:\n      mload(0x40)\n      tag_60\n      swap2\n      swap1\n      tag_41\n      jump\t// in\n    tag_60:\n      mload(0x40)\n      dup1\n      swap2\n      sub\n      swap1\n      return\n        /* \"contracts/TransactionHistory.sol\":4616:5416  function getDonateByUser(string memory _donatorId) external view returns (TransactionInfo[] memory) {... */\n    tag_13:\n      tag_61\n      0x04\n      dup1\n      calldatasize\n      sub\n      dup2\n      add\n      swap1\n      tag_62\n      swap2\n      swap1\n      tag_38\n      jump\t// in\n    tag_62:\n      tag_63\n      jump\t// in\n    tag_61:\n      mload(0x40)\n      tag_64\n      swap2\n      swap1\n      tag_41\n      jump\t// in\n    tag_64:\n      mload(0x40)\n      dup1\n      swap2\n      sub\n      swap1\n      return\n        /* \"contracts/TransactionHistory.sol\":103:133  address public deployerAddress */\n    tag_14:\n      tag_65\n      tag_66\n      jump\t// in\n    tag_65:\n      mload(0x40)\n      tag_67\n      swap2\n      swap1\n      tag_29\n      jump\t// in\n    tag_67:\n      mload(0x40)\n      dup1\n      swap2\n      sub\n      swap1\n      return\n        /* \"contracts/TransactionHistory.sol\":2171:2869  function isDonatedtoCampaign(... */\n    tag_19:\n        /* \"contracts/TransactionHistory.sol\":2298:2302  bool */\n      0x00\n        /* \"contracts/TransactionHistory.sol\":2320:2326  uint i */\n      dup1\n        /* \"contracts/TransactionHistory.sol\":2329:2330  0 */\n      0x00\n        /* \"contracts/TransactionHistory.sol\":2320:2330  uint i = 0 */\n      swap1\n      pop\n        /* \"contracts/TransactionHistory.sol\":2315:2837  for (uint i = 0; i < transactionInfoArray.length; i++) {... */\n    tag_69:\n        /* \"contracts/TransactionHistory.sol\":2336:2356  transactionInfoArray */\n      0x02\n        /* \"contracts/TransactionHistory.sol\":2336:2363  transactionInfoArray.length */\n      dup1\n      sload\n      swap1\n      pop\n        /* \"contracts/TransactionHistory.sol\":2332:2333  i */\n      dup2\n        /* \"contracts/TransactionHistory.sol\":2332:2363  i < transactionInfoArray.length */\n      lt\n        /* \"contracts/TransactionHistory.sol\":2315:2837  for (uint i = 0; i < transactionInfoArray.length; i++) {... */\n      iszero\n      tag_70\n      jumpi\n        /* \"contracts/TransactionHistory.sol\":2562:2577  _donatorAddress */\n      dup4\n        /* \"contracts/TransactionHistory.sol\":2545:2578  abi.encodePacked(_donatorAddress) */\n      add(0x20, mload(0x40))\n      tag_72\n      swap2\n      swap1\n      tag_73\n      jump\t// in\n    tag_72:\n      mload(0x40)\n      0x20\n      dup2\n      dup4\n      sub\n      sub\n      dup2\n      mstore\n      swap1\n      0x40\n      mstore\n        /* \"contracts/TransactionHistory.sol\":2535:2579  keccak256(abi.encodePacked(_donatorAddress)) */\n      dup1\n      mload\n      swap1\n      0x20\n      add\n      keccak256\n        /* \"contracts/TransactionHistory.sol\":2456:2476  transactionInfoArray */\n      0x02\n        /* \"contracts/TransactionHistory.sol\":2477:2478  i */\n      dup3\n        /* \"contracts/TransactionHistory.sol\":2456:2479  transactionInfoArray[i] */\n      dup2\n      sload\n      dup2\n      lt\n      tag_74\n      jumpi\n      tag_75\n      tag_76\n      jump\t// in\n    tag_75:\n    tag_74:\n      swap1\n      0x00\n      mstore\n      keccak256(0x00, 0x20)\n      swap1\n      0x0a\n      mul\n      add\n        /* \"contracts/TransactionHistory.sol\":2456:2494  transactionInfoArray[i].donatorAddress */\n      0x04\n      add\n      0x00\n      swap1\n      sload\n      swap1\n      0x0100\n      exp\n      swap1\n      div\n      0xffffffffffffffffffffffffffffffffffffffff\n      and\n        /* \"contracts/TransactionHistory.sol\":2439:2495  abi.encodePacked(transactionInfoArray[i].donatorAddress) */\n      add(0x20, mload(0x40))\n      tag_78\n      swap2\n      swap1\n      tag_73\n      jump\t// in\n    tag_78:\n      mload(0x40)\n      0x20\n      dup2\n      dup4\n      sub\n      sub\n      dup2\n      mstore\n      swap1\n      0x40\n      mstore\n        /* \"contracts/TransactionHistory.sol\":2407:2514  keccak256(... */\n      dup1\n      mload\n      swap1\n      0x20\n      add\n      keccak256\n        /* \"contracts/TransactionHistory.sol\":2407:2579  keccak256(... */\n      eq\n        /* \"contracts/TransactionHistory.sol\":2407:2764  keccak256(... */\n      dup1\n      iszero\n      tag_79\n      jumpi\n      pop\n        /* \"contracts/TransactionHistory.sol\":2751:2762  _campaignId */\n      dup3\n        /* \"contracts/TransactionHistory.sol\":2734:2763  abi.encodePacked(_campaignId) */\n      add(0x20, mload(0x40))\n      tag_80\n      swap2\n      swap1\n      tag_81\n      jump\t// in\n    tag_80:\n      mload(0x40)\n      0x20\n      dup2\n      dup4\n      sub\n      sub\n      dup2\n      mstore\n      swap1\n      0x40\n      mstore\n        /* \"contracts/TransactionHistory.sol\":2724:2764  keccak256(abi.encodePacked(_campaignId)) */\n      dup1\n      mload\n      swap1\n      0x20\n      add\n      keccak256\n        /* \"contracts/TransactionHistory.sol\":2649:2669  transactionInfoArray */\n      0x02\n        /* \"contracts/TransactionHistory.sol\":2670:2671  i */\n      dup3\n        /* \"contracts/TransactionHistory.sol\":2649:2672  transactionInfoArray[i] */\n      dup2\n      sload\n      dup2\n      lt\n      tag_82\n      jumpi\n      tag_83\n      tag_76\n      jump\t// in\n    tag_83:\n    tag_82:\n      swap1\n      0x00\n      mstore\n      keccak256(0x00, 0x20)\n      swap1\n      0x0a\n      mul\n      add\n        /* \"contracts/TransactionHistory.sol\":2649:2683  transactionInfoArray[i].campaignId */\n      0x01\n      add\n        /* \"contracts/TransactionHistory.sol\":2632:2684  abi.encodePacked(transactionInfoArray[i].campaignId) */\n      add(0x20, mload(0x40))\n      tag_85\n      swap2\n      swap1\n      tag_86\n      jump\t// in\n    tag_85:\n      mload(0x40)\n      0x20\n      dup2\n      dup4\n      sub\n      sub\n      dup2\n      mstore\n      swap1\n      0x40\n      mstore\n        /* \"contracts/TransactionHistory.sol\":2600:2703  keccak256(... */\n      dup1\n      mload\n      swap1\n      0x20\n      add\n      keccak256\n        /* \"contracts/TransactionHistory.sol\":2600:2764  keccak256(... */\n      eq\n        /* \"contracts/TransactionHistory.sol\":2407:2764  keccak256(... */\n    tag_79:\n        /* \"contracts/TransactionHistory.sol\":2385:2826  if (... */\n      iszero\n      tag_87\n      jumpi\n        /* \"contracts/TransactionHistory.sol\":2806:2810  true */\n      0x01\n        /* \"contracts/TransactionHistory.sol\":2799:2810  return true */\n      swap2\n      pop\n      pop\n      jump(tag_68)\n        /* \"contracts/TransactionHistory.sol\":2385:2826  if (... */\n    tag_87:\n        /* \"contracts/TransactionHistory.sol\":2365:2368  i++ */\n      dup1\n      dup1\n      0x01\n      add\n      swap2\n      pop\n      pop\n        /* \"contracts/TransactionHistory.sol\":2315:2837  for (uint i = 0; i < transactionInfoArray.length; i++) {... */\n      jump(tag_69)\n    tag_70:\n      pop\n        /* \"contracts/TransactionHistory.sol\":2856:2861  false */\n      0x00\n        /* \"contracts/TransactionHistory.sol\":2849:2861  return false */\n      swap1\n      pop\n        /* \"contracts/TransactionHistory.sol\":2171:2869  function isDonatedtoCampaign(... */\n    tag_68:\n      swap3\n      swap2\n      pop\n      pop\n      jump\t// out\n        /* \"contracts/TransactionHistory.sol\":978:1824  function addNewTransactionHistory(... */\n    tag_25:\n        /* \"contracts/TransactionHistory.sol\":684:707  campaignContractAddress */\n      0x01\n      0x00\n      swap1\n      sload\n      swap1\n      0x0100\n      exp\n      swap1\n      div\n      0xffffffffffffffffffffffffffffffffffffffff\n      and\n        /* \"contracts/TransactionHistory.sol\":670:707  msg.sender == campaignContractAddress */\n      0xffffffffffffffffffffffffffffffffffffffff\n      and\n        /* \"contracts/TransactionHistory.sol\":670:680  msg.sender */\n      caller\n        /* \"contracts/TransactionHistory.sol\":670:707  msg.sender == campaignContractAddress */\n      0xffffffffffffffffffffffffffffffffffffffff\n      and\n      eq\n        /* \"contracts/TransactionHistory.sol\":648:776  require(... */\n      tag_89\n      jumpi\n      mload(0x40)\n      0x08c379a000000000000000000000000000000000000000000000000000000000\n      dup2\n      mstore\n      0x04\n      add\n      tag_90\n      swap1\n      tag_91\n      jump\t// in\n    tag_90:\n      mload(0x40)\n      dup1\n      swap2\n      sub\n      swap1\n      revert\n    tag_89:\n        /* \"contracts/TransactionHistory.sol\":1292:1329  TransactionInfo memory newTransaction */\n      tag_93\n      tag_94\n      jump\t// in\n    tag_93:\n        /* \"contracts/TransactionHistory.sol\":1360:1362  id */\n      dup9\n        /* \"contracts/TransactionHistory.sol\":1340:1354  newTransaction */\n      dup2\n        /* \"contracts/TransactionHistory.sol\":1340:1357  newTransaction.id */\n      0x00\n      add\n        /* \"contracts/TransactionHistory.sol\":1340:1362  newTransaction.id = id */\n      dup2\n      dup2\n      mstore\n      pop\n      pop\n        /* \"contracts/TransactionHistory.sol\":1401:1411  campaignId */\n      dup8\n        /* \"contracts/TransactionHistory.sol\":1373:1387  newTransaction */\n      dup2\n        /* \"contracts/TransactionHistory.sol\":1373:1398  newTransaction.campaignId */\n      0x20\n      add\n        /* \"contracts/TransactionHistory.sol\":1373:1411  newTransaction.campaignId = campaignId */\n      dup2\n      swap1\n      mstore\n      pop\n        /* \"contracts/TransactionHistory.sol\":1447:1454  ownerId */\n      dup7\n        /* \"contracts/TransactionHistory.sol\":1422:1436  newTransaction */\n      dup2\n        /* \"contracts/TransactionHistory.sol\":1422:1444  newTransaction.ownerId */\n      0x40\n      add\n        /* \"contracts/TransactionHistory.sol\":1422:1454  newTransaction.ownerId = ownerId */\n      dup2\n      swap1\n      mstore\n      pop\n        /* \"contracts/TransactionHistory.sol\":1492:1501  donatorId */\n      dup6\n        /* \"contracts/TransactionHistory.sol\":1465:1479  newTransaction */\n      dup2\n        /* \"contracts/TransactionHistory.sol\":1465:1489  newTransaction.donatorId */\n      0x60\n      add\n        /* \"contracts/TransactionHistory.sol\":1465:1501  newTransaction.donatorId = donatorId */\n      dup2\n      swap1\n      mstore\n      pop\n        /* \"contracts/TransactionHistory.sol\":1544:1558  donatorAddress */\n      dup5\n        /* \"contracts/TransactionHistory.sol\":1512:1526  newTransaction */\n      dup2\n        /* \"contracts/TransactionHistory.sol\":1512:1541  newTransaction.donatorAddress */\n      0x80\n      add\n        /* \"contracts/TransactionHistory.sol\":1512:1558  newTransaction.donatorAddress = donatorAddress */\n      swap1\n      0xffffffffffffffffffffffffffffffffffffffff\n      and\n      swap1\n      dup2\n      0xffffffffffffffffffffffffffffffffffffffff\n      and\n      dup2\n      mstore\n      pop\n      pop\n        /* \"contracts/TransactionHistory.sol\":1592:1597  value */\n      dup4\n        /* \"contracts/TransactionHistory.sol\":1569:1583  newTransaction */\n      dup2\n        /* \"contracts/TransactionHistory.sol\":1569:1589  newTransaction.value */\n      0xa0\n      add\n        /* \"contracts/TransactionHistory.sol\":1569:1597  newTransaction.value = value */\n      dup2\n      dup2\n      mstore\n      pop\n      pop\n        /* \"contracts/TransactionHistory.sol\":1634:1639  false */\n      0x00\n        /* \"contracts/TransactionHistory.sol\":1608:1622  newTransaction */\n      dup2\n        /* \"contracts/TransactionHistory.sol\":1608:1631  newTransaction.isRefund */\n      0xc0\n      add\n        /* \"contracts/TransactionHistory.sol\":1608:1639  newTransaction.isRefund = false */\n      swap1\n      iszero\n      iszero\n      swap1\n      dup2\n      iszero\n      iszero\n      dup2\n      mstore\n      pop\n      pop\n        /* \"contracts/TransactionHistory.sol\":1672:1676  time */\n      dup3\n        /* \"contracts/TransactionHistory.sol\":1650:1664  newTransaction */\n      dup2\n        /* \"contracts/TransactionHistory.sol\":1650:1669  newTransaction.time */\n      0xe0\n      add\n        /* \"contracts/TransactionHistory.sol\":1650:1676  newTransaction.time = time */\n      dup2\n      swap1\n      mstore\n      pop\n        /* \"contracts/TransactionHistory.sol\":1687:1715  newTransaction.timeRefund='' */\n      mload(0x40)\n      dup1\n      0x20\n      add\n      0x40\n      mstore\n      dup1\n      0x00\n      dup2\n      mstore\n      pop\n        /* \"contracts/TransactionHistory.sol\":1687:1701  newTransaction */\n      dup2\n        /* \"contracts/TransactionHistory.sol\":1687:1712  newTransaction.timeRefund */\n      0x0100\n      add\n        /* \"contracts/TransactionHistory.sol\":1687:1715  newTransaction.timeRefund='' */\n      dup2\n      swap1\n      mstore\n      pop\n        /* \"contracts/TransactionHistory.sol\":1753:1764  isAnonymous */\n      dup2\n        /* \"contracts/TransactionHistory.sol\":1726:1740  newTransaction */\n      dup2\n        /* \"contracts/TransactionHistory.sol\":1726:1752  newTransaction.isAnonymous */\n      0x0120\n      add\n        /* \"contracts/TransactionHistory.sol\":1726:1764  newTransaction.isAnonymous=isAnonymous */\n      swap1\n      iszero\n      iszero\n      swap1\n      dup2\n      iszero\n      iszero\n      dup2\n      mstore\n      pop\n      pop\n        /* \"contracts/TransactionHistory.sol\":1775:1795  transactionInfoArray */\n      0x02\n        /* \"contracts/TransactionHistory.sol\":1801:1815  newTransaction */\n      dup2\n        /* \"contracts/TransactionHistory.sol\":1775:1816  transactionInfoArray.push(newTransaction) */\n      swap1\n      dup1\n      0x01\n      dup2\n      sload\n      add\n      dup1\n      dup3\n      sstore\n      dup1\n      swap2\n      pop\n      pop\n      0x01\n      swap1\n      sub\n      swap1\n      0x00\n      mstore\n      keccak256(0x00, 0x20)\n      swap1\n      0x0a\n      mul\n      add\n      0x00\n      swap1\n      swap2\n      swap1\n      swap2\n      swap1\n      swap2\n      pop\n      0x00\n      dup3\n      add\n      mload\n      dup2\n      0x00\n      add\n      sstore\n      0x20\n      dup3\n      add\n      mload\n      dup2\n      0x01\n      add\n      swap1\n      dup2\n      tag_96\n      swap2\n      swap1\n      tag_97\n      jump\t// in\n    tag_96:\n      pop\n      0x40\n      dup3\n      add\n      mload\n      dup2\n      0x02\n      add\n      swap1\n      dup2\n      tag_98\n      swap2\n      swap1\n      tag_97\n      jump\t// in\n    tag_98:\n      pop\n      0x60\n      dup3\n      add\n      mload\n      dup2\n      0x03\n      add\n      swap1\n      dup2\n      tag_99\n      swap2\n      swap1\n      tag_97\n      jump\t// in\n    tag_99:\n      pop\n      0x80\n      dup3\n      add\n      mload\n      dup2\n      0x04\n      add\n      exp(0x0100, 0x00)\n      dup2\n      sload\n      dup2\n      0xffffffffffffffffffffffffffffffffffffffff\n      mul\n      not\n      and\n      swap1\n      dup4\n      0xffffffffffffffffffffffffffffffffffffffff\n      and\n      mul\n      or\n      swap1\n      sstore\n      pop\n      0xa0\n      dup3\n      add\n      mload\n      dup2\n      0x05\n      add\n      sstore\n      0xc0\n      dup3\n      add\n      mload\n      dup2\n      0x06\n      add\n      exp(0x0100, 0x00)\n      dup2\n      sload\n      dup2\n      0xff\n      mul\n      not\n      and\n      swap1\n      dup4\n      iszero\n      iszero\n      mul\n      or\n      swap1\n      sstore\n      pop\n      0xe0\n      dup3\n      add\n      mload\n      dup2\n      0x07\n      add\n      swap1\n      dup2\n      tag_100\n      swap2\n      swap1\n      tag_97\n      jump\t// in\n    tag_100:\n      pop\n      0x0100\n      dup3\n      add\n      mload\n      dup2\n      0x08\n      add\n      swap1\n      dup2\n      tag_101\n      swap2\n      swap1\n      tag_97\n      jump\t// in\n    tag_101:\n      pop\n      0x0120\n      dup3\n      add\n      mload\n      dup2\n      0x09\n      add\n      exp(0x0100, 0x00)\n      dup2\n      sload\n      dup2\n      0xff\n      mul\n      not\n      and\n      swap1\n      dup4\n      iszero\n      iszero\n      mul\n      or\n      swap1\n      sstore\n      pop\n      pop\n      pop\n        /* \"contracts/TransactionHistory.sol\":1281:1824  {... */\n      pop\n        /* \"contracts/TransactionHistory.sol\":978:1824  function addNewTransactionHistory(... */\n      pop\n      pop\n      pop\n      pop\n      pop\n      pop\n      pop\n      pop\n      jump\t// out\n        /* \"contracts/TransactionHistory.sol\":140:178  address public campaignContractAddress */\n    tag_27:\n      0x01\n      0x00\n      swap1\n      sload\n      swap1\n      0x0100\n      exp\n      swap1\n      div\n      0xffffffffffffffffffffffffffffffffffffffff\n      and\n      dup2\n      jump\t// out\n        /* \"contracts/TransactionHistory.sol\":482:527  TransactionInfo[] public transactionInfoArray */\n    tag_33:\n      0x02\n      dup2\n      dup2\n      sload\n      dup2\n      lt\n      tag_102\n      jumpi\n      0x00\n      dup1\n      revert\n    tag_102:\n      swap1\n      0x00\n      mstore\n      keccak256(0x00, 0x20)\n      swap1\n      0x0a\n      mul\n      add\n      0x00\n      swap2\n      pop\n      swap1\n      pop\n      dup1\n      0x00\n      add\n      sload\n      swap1\n      dup1\n      0x01\n      add\n      dup1\n      sload\n      tag_104\n      swap1\n      tag_105\n      jump\t// in\n    tag_104:\n      dup1\n      0x1f\n      add\n      0x20\n      dup1\n      swap2\n      div\n      mul\n      0x20\n      add\n      mload(0x40)\n      swap1\n      dup2\n      add\n      0x40\n      mstore\n      dup1\n      swap3\n      swap2\n      swap1\n      dup2\n      dup2\n      mstore\n      0x20\n      add\n      dup3\n      dup1\n      sload\n      tag_106\n      swap1\n      tag_105\n      jump\t// in\n    tag_106:\n      dup1\n      iszero\n      tag_107\n      jumpi\n      dup1\n      0x1f\n      lt\n      tag_108\n      jumpi\n      0x0100\n      dup1\n      dup4\n      sload\n      div\n      mul\n      dup4\n      mstore\n      swap2\n      0x20\n      add\n      swap2\n      jump(tag_107)\n    tag_108:\n      dup3\n      add\n      swap2\n      swap1\n      0x00\n      mstore\n      keccak256(0x00, 0x20)\n      swap1\n    tag_109:\n      dup2\n      sload\n      dup2\n      mstore\n      swap1\n      0x01\n      add\n      swap1\n      0x20\n      add\n      dup1\n      dup4\n      gt\n      tag_109\n      jumpi\n      dup3\n      swap1\n      sub\n      0x1f\n      and\n      dup3\n      add\n      swap2\n    tag_107:\n      pop\n      pop\n      pop\n      pop\n      pop\n      swap1\n      dup1\n      0x02\n      add\n      dup1\n      sload\n      tag_110\n      swap1\n      tag_105\n      jump\t// in\n    tag_110:\n      dup1\n      0x1f\n      add\n      0x20\n      dup1\n      swap2\n      div\n      mul\n      0x20\n      add\n      mload(0x40)\n      swap1\n      dup2\n      add\n      0x40\n      mstore\n      dup1\n      swap3\n      swap2\n      swap1\n      dup2\n      dup2\n      mstore\n      0x20\n      add\n      dup3\n      dup1\n      sload\n      tag_111\n      swap1\n      tag_105\n      jump\t// in\n    tag_111:\n      dup1\n      iszero\n      tag_112\n      jumpi\n      dup1\n      0x1f\n      lt\n      tag_113\n      jumpi\n      0x0100\n      dup1\n      dup4\n      sload\n      div\n      mul\n      dup4\n      mstore\n      swap2\n      0x20\n      add\n      swap2\n      jump(tag_112)\n    tag_113:\n      dup3\n      add\n      swap2\n      swap1\n      0x00\n      mstore\n      keccak256(0x00, 0x20)\n      swap1\n    tag_114:\n      dup2\n      sload\n      dup2\n      mstore\n      swap1\n      0x01\n      add\n      swap1\n      0x20\n      add\n      dup1\n      dup4\n      gt\n      tag_114\n      jumpi\n      dup3\n      swap1\n      sub\n      0x1f\n      and\n      dup3\n      add\n      swap2\n    tag_112:\n      pop\n      pop\n      pop\n      pop\n      pop\n      swap1\n      dup1\n      0x03\n      add\n      dup1\n      sload\n      tag_115\n      swap1\n      tag_105\n      jump\t// in\n    tag_115:\n      dup1\n      0x1f\n      add\n      0x20\n      dup1\n      swap2\n      div\n      mul\n      0x20\n      add\n      mload(0x40)\n      swap1\n      dup2\n      add\n      0x40\n      mstore\n      dup1\n      swap3\n      swap2\n      swap1\n      dup2\n      dup2\n      mstore\n      0x20\n      add\n      dup3\n      dup1\n      sload\n      tag_116\n      swap1\n      tag_105\n      jump\t// in\n    tag_116:\n      dup1\n      iszero\n      tag_117\n      jumpi\n      dup1\n      0x1f\n      lt\n      tag_118\n      jumpi\n      0x0100\n      dup1\n      dup4\n      sload\n      div\n      mul\n      dup4\n      mstore\n      swap2\n      0x20\n      add\n      swap2\n      jump(tag_117)\n    tag_118:\n      dup3\n      add\n      swap2\n      swap1\n      0x00\n      mstore\n      keccak256(0x00, 0x20)\n      swap1\n    tag_119:\n      dup2\n      sload\n      dup2\n      mstore\n      swap1\n      0x01\n      add\n      swap1\n      0x20\n      add\n      dup1\n      dup4\n      gt\n      tag_119\n      jumpi\n      dup3\n      swap1\n      sub\n      0x1f\n      and\n      dup3\n      add\n      swap2\n    tag_117:\n      pop\n      pop\n      pop\n      pop\n      pop\n      swap1\n      dup1\n      0x04\n      add\n      0x00\n      swap1\n      sload\n      swap1\n      0x0100\n      exp\n      swap1\n      div\n      0xffffffffffffffffffffffffffffffffffffffff\n      and\n      swap1\n      dup1\n      0x05\n      add\n      sload\n      swap1\n      dup1\n      0x06\n      add\n      0x00\n      swap1\n      sload\n      swap1\n      0x0100\n      exp\n      swap1\n      div\n      0xff\n      and\n      swap1\n      dup1\n      0x07\n      add\n      dup1\n      sload\n      tag_120\n      swap1\n      tag_105\n      jump\t// in\n    tag_120:\n      dup1\n      0x1f\n      add\n      0x20\n      dup1\n      swap2\n      div\n      mul\n      0x20\n      add\n      mload(0x40)\n      swap1\n      dup2\n      add\n      0x40\n      mstore\n      dup1\n      swap3\n      swap2\n      swap1\n      dup2\n      dup2\n      mstore\n      0x20\n      add\n      dup3\n      dup1\n      sload\n      tag_121\n      swap1\n      tag_105\n      jump\t// in\n    tag_121:\n      dup1\n      iszero\n      tag_122\n      jumpi\n      dup1\n      0x1f\n      lt\n      tag_123\n      jumpi\n      0x0100\n      dup1\n      dup4\n      sload\n      div\n      mul\n      dup4\n      mstore\n      swap2\n      0x20\n      add\n      swap2\n      jump(tag_122)\n    tag_123:\n      dup3\n      add\n      swap2\n      swap1\n      0x00\n      mstore\n      keccak256(0x00, 0x20)\n      swap1\n    tag_124:\n      dup2\n      sload\n      dup2\n      mstore\n      swap1\n      0x01\n      add\n      swap1\n      0x20\n      add\n      dup1\n      dup4\n      gt\n      tag_124\n      jumpi\n      dup3\n      swap1\n      sub\n      0x1f\n      and\n      dup3\n      add\n      swap2\n    tag_122:\n      pop\n      pop\n      pop\n      pop\n      pop\n      swap1\n      dup1\n      0x08\n      add\n      dup1\n      sload\n      tag_125\n      swap1\n      tag_105\n      jump\t// in\n    tag_125:\n      dup1\n      0x1f\n      add\n      0x20\n      dup1\n      swap2\n      div\n      mul\n      0x20\n      add\n      mload(0x40)\n      swap1\n      dup2\n      add\n      0x40\n      mstore\n      dup1\n      swap3\n      swap2\n      swap1\n      dup2\n      dup2\n      mstore\n      0x20\n      add\n      dup3\n      dup1\n      sload\n      tag_126\n      swap1\n      tag_105\n      jump\t// in\n    tag_126:\n      dup1\n      iszero\n      tag_127\n      jumpi\n      dup1\n      0x1f\n      lt\n      tag_128\n      jumpi\n      0x0100\n      dup1\n      dup4\n      sload\n      div\n      mul\n      dup4\n      mstore\n      swap2\n      0x20\n      add\n      swap2\n      jump(tag_127)\n    tag_128:\n      dup3\n      add\n      swap2\n      swap1\n      0x00\n      mstore\n      keccak256(0x00, 0x20)\n      swap1\n    tag_129:\n      dup2\n      sload\n      dup2\n      mstore\n      swap1\n      0x01\n      add\n      swap1\n      0x20\n      add\n      dup1\n      dup4\n      gt\n      tag_129\n      jumpi\n      dup3\n      swap1\n      sub\n      0x1f\n      and\n      dup3\n      add\n      swap2\n    tag_127:\n      pop\n      pop\n      pop\n      pop\n      pop\n      swap1\n      dup1\n      0x09\n      add\n      0x00\n      swap1\n      sload\n      swap1\n      0x0100\n      exp\n      swap1\n      div\n      0xff\n      and\n      swap1\n      pop\n      dup11\n      jump\t// out\n        /* \"contracts/TransactionHistory.sol\":2877:3700  function getTransactionHistoryByCampaignId(string memory _campaignId) external view returns (TransactionInfo[] memory) {... */\n    tag_39:\n        /* \"contracts/TransactionHistory.sol\":2970:2994  TransactionInfo[] memory */\n      0x60\n        /* \"contracts/TransactionHistory.sol\":3007:3017  uint count */\n      0x00\n        /* \"contracts/TransactionHistory.sol\":3037:3043  uint i */\n      dup1\n        /* \"contracts/TransactionHistory.sol\":3032:3268  for (uint i = 0; i < transactionInfoArray.length; i++) {... */\n    tag_131:\n        /* \"contracts/TransactionHistory.sol\":3053:3073  transactionInfoArray */\n      0x02\n        /* \"contracts/TransactionHistory.sol\":3053:3080  transactionInfoArray.length */\n      dup1\n      sload\n      swap1\n      pop\n        /* \"contracts/TransactionHistory.sol\":3049:3050  i */\n      dup2\n        /* \"contracts/TransactionHistory.sol\":3049:3080  i < transactionInfoArray.length */\n      lt\n        /* \"contracts/TransactionHistory.sol\":3032:3268  for (uint i = 0; i < transactionInfoArray.length; i++) {... */\n      iszero\n      tag_132\n      jumpi\n        /* \"contracts/TransactionHistory.sol\":3200:3211  _campaignId */\n      dup4\n        /* \"contracts/TransactionHistory.sol\":3183:3212  abi.encodePacked(_campaignId) */\n      add(0x20, mload(0x40))\n      tag_134\n      swap2\n      swap1\n      tag_81\n      jump\t// in\n    tag_134:\n      mload(0x40)\n      0x20\n      dup2\n      dup4\n      sub\n      sub\n      dup2\n      mstore\n      swap1\n      0x40\n      mstore\n        /* \"contracts/TransactionHistory.sol\":3173:3213  keccak256(abi.encodePacked(_campaignId)) */\n      dup1\n      mload\n      swap1\n      0x20\n      add\n      keccak256\n        /* \"contracts/TransactionHistory.sol\":3133:3153  transactionInfoArray */\n      0x02\n        /* \"contracts/TransactionHistory.sol\":3154:3155  i */\n      dup3\n        /* \"contracts/TransactionHistory.sol\":3133:3156  transactionInfoArray[i] */\n      dup2\n      sload\n      dup2\n      lt\n      tag_135\n      jumpi\n      tag_136\n      tag_76\n      jump\t// in\n    tag_136:\n    tag_135:\n      swap1\n      0x00\n      mstore\n      keccak256(0x00, 0x20)\n      swap1\n      0x0a\n      mul\n      add\n        /* \"contracts/TransactionHistory.sol\":3133:3167  transactionInfoArray[i].campaignId */\n      0x01\n      add\n        /* \"contracts/TransactionHistory.sol\":3116:3168  abi.encodePacked(transactionInfoArray[i].campaignId) */\n      add(0x20, mload(0x40))\n      tag_138\n      swap2\n      swap1\n      tag_86\n      jump\t// in\n    tag_138:\n      mload(0x40)\n      0x20\n      dup2\n      dup4\n      sub\n      sub\n      dup2\n      mstore\n      swap1\n      0x40\n      mstore\n        /* \"contracts/TransactionHistory.sol\":3106:3169  keccak256(abi.encodePacked(transactionInfoArray[i].campaignId)) */\n      dup1\n      mload\n      swap1\n      0x20\n      add\n      keccak256\n        /* \"contracts/TransactionHistory.sol\":3106:3213  keccak256(abi.encodePacked(transactionInfoArray[i].campaignId)) == keccak256(abi.encodePacked(_campaignId)) */\n      sub\n        /* \"contracts/TransactionHistory.sol\":3102:3257  if (keccak256(abi.encodePacked(transactionInfoArray[i].campaignId)) == keccak256(abi.encodePacked(_campaignId))) {... */\n      tag_139\n      jumpi\n        /* \"contracts/TransactionHistory.sol\":3234:3241  count++ */\n      dup2\n      dup1\n      tag_140\n      swap1\n      tag_141\n      jump\t// in\n    tag_140:\n      swap3\n      pop\n      pop\n        /* \"contracts/TransactionHistory.sol\":3102:3257  if (keccak256(abi.encodePacked(transactionInfoArray[i].campaignId)) == keccak256(abi.encodePacked(_campaignId))) {... */\n    tag_139:\n        /* \"contracts/TransactionHistory.sol\":3082:3085  i++ */\n      dup1\n      dup1\n      0x01\n      add\n      swap2\n      pop\n      pop\n        /* \"contracts/TransactionHistory.sol\":3032:3268  for (uint i = 0; i < transactionInfoArray.length; i++) {... */\n      jump(tag_131)\n    tag_132:\n      pop\n        /* \"contracts/TransactionHistory.sol\":3280:3311  TransactionInfo[] memory result */\n      0x00\n        /* \"contracts/TransactionHistory.sol\":3336:3341  count */\n      dup2\n        /* \"contracts/TransactionHistory.sol\":3314:3342  new TransactionInfo[](count) */\n      0xffffffffffffffff\n      dup2\n      gt\n      iszero\n      tag_142\n      jumpi\n      tag_143\n      tag_144\n      jump\t// in\n    tag_143:\n    tag_142:\n      mload(0x40)\n      swap1\n      dup1\n      dup3\n      mstore\n      dup1\n      0x20\n      mul\n      0x20\n      add\n      dup3\n      add\n      0x40\n      mstore\n      dup1\n      iszero\n      tag_145\n      jumpi\n      dup2\n      0x20\n      add\n    tag_146:\n      tag_147\n      tag_94\n      jump\t// in\n    tag_147:\n      dup2\n      mstore\n      0x20\n      add\n      swap1\n      0x01\n      swap1\n      sub\n      swap1\n      dup2\n      tag_146\n      jumpi\n      swap1\n      pop\n    tag_145:\n      pop\n        /* \"contracts/TransactionHistory.sol\":3280:3342  TransactionInfo[] memory result = new TransactionInfo[](count) */\n      swap1\n      pop\n        /* \"contracts/TransactionHistory.sol\":3361:3362  0 */\n      0x00\n        /* \"contracts/TransactionHistory.sol\":3353:3362  count = 0 */\n      swap2\n      pop\n        /* \"contracts/TransactionHistory.sol\":3378:3384  uint i */\n      0x00\n        /* \"contracts/TransactionHistory.sol\":3373:3667  for (uint i = 0; i < transactionInfoArray.length; i++) {... */\n    tag_148:\n        /* \"contracts/TransactionHistory.sol\":3394:3414  transactionInfoArray */\n      0x02\n        /* \"contracts/TransactionHistory.sol\":3394:3421  transactionInfoArray.length */\n      dup1\n      sload\n      swap1\n      pop\n        /* \"contracts/TransactionHistory.sol\":3390:3391  i */\n      dup2\n        /* \"contracts/TransactionHistory.sol\":3390:3421  i < transactionInfoArray.length */\n      lt\n        /* \"contracts/TransactionHistory.sol\":3373:3667  for (uint i = 0; i < transactionInfoArray.length; i++) {... */\n      iszero\n      tag_149\n      jumpi\n        /* \"contracts/TransactionHistory.sol\":3541:3552  _campaignId */\n      dup5\n        /* \"contracts/TransactionHistory.sol\":3524:3553  abi.encodePacked(_campaignId) */\n      add(0x20, mload(0x40))\n      tag_151\n      swap2\n      swap1\n      tag_81\n      jump\t// in\n    tag_151:\n      mload(0x40)\n      0x20\n      dup2\n      dup4\n      sub\n      sub\n      dup2\n      mstore\n      swap1\n      0x40\n      mstore\n        /* \"contracts/TransactionHistory.sol\":3514:3554  keccak256(abi.encodePacked(_campaignId)) */\n      dup1\n      mload\n      swap1\n      0x20\n      add\n      keccak256\n        /* \"contracts/TransactionHistory.sol\":3474:3494  transactionInfoArray */\n      0x02\n        /* \"contracts/TransactionHistory.sol\":3495:3496  i */\n      dup3\n        /* \"contracts/TransactionHistory.sol\":3474:3497  transactionInfoArray[i] */\n      dup2\n      sload\n      dup2\n      lt\n      tag_152\n      jumpi\n      tag_153\n      tag_76\n      jump\t// in\n    tag_153:\n    tag_152:\n      swap1\n      0x00\n      mstore\n      keccak256(0x00, 0x20)\n      swap1\n      0x0a\n      mul\n      add\n        /* \"contracts/TransactionHistory.sol\":3474:3508  transactionInfoArray[i].campaignId */\n      0x01\n      add\n        /* \"contracts/TransactionHistory.sol\":3457:3509  abi.encodePacked(transactionInfoArray[i].campaignId) */\n      add(0x20, mload(0x40))\n      tag_155\n      swap2\n      swap1\n      tag_86\n      jump\t// in\n    tag_155:\n      mload(0x40)\n      0x20\n      dup2\n      dup4\n      sub\n      sub\n      dup2\n      mstore\n      swap1\n      0x40\n      mstore\n        /* \"contracts/TransactionHistory.sol\":3447:3510  keccak256(abi.encodePacked(transactionInfoArray[i].campaignId)) */\n      dup1\n      mload\n      swap1\n      0x20\n      add\n      keccak256\n        /* \"contracts/TransactionHistory.sol\":3447:3554  keccak256(abi.encodePacked(transactionInfoArray[i].campaignId)) == keccak256(abi.encodePacked(_campaignId)) */\n      sub\n        /* \"contracts/TransactionHistory.sol\":3443:3656  if (keccak256(abi.encodePacked(transactionInfoArray[i].campaignId)) == keccak256(abi.encodePacked(_campaignId))) {... */\n      tag_156\n      jumpi\n        /* \"contracts/TransactionHistory.sol\":3591:3611  transactionInfoArray */\n      0x02\n        /* \"contracts/TransactionHistory.sol\":3612:3613  i */\n      dup2\n        /* \"contracts/TransactionHistory.sol\":3591:3614  transactionInfoArray[i] */\n      dup2\n      sload\n      dup2\n      lt\n      tag_157\n      jumpi\n      tag_158\n      tag_76\n      jump\t// in\n    tag_158:\n    tag_157:\n      swap1\n      0x00\n      mstore\n      keccak256(0x00, 0x20)\n      swap1\n      0x0a\n      mul\n      add\n        /* \"contracts/TransactionHistory.sol\":3575:3614  result[count] = transactionInfoArray[i] */\n      mload(0x40)\n      dup1\n      0x0140\n      add\n      0x40\n      mstore\n      swap1\n      dup2\n      0x00\n      dup3\n      add\n      sload\n      dup2\n      mstore\n      0x20\n      add\n      0x01\n      dup3\n      add\n      dup1\n      sload\n      tag_160\n      swap1\n      tag_105\n      jump\t// in\n    tag_160:\n      dup1\n      0x1f\n      add\n      0x20\n      dup1\n      swap2\n      div\n      mul\n      0x20\n      add\n      mload(0x40)\n      swap1\n      dup2\n      add\n      0x40\n      mstore\n      dup1\n      swap3\n      swap2\n      swap1\n      dup2\n      dup2\n      mstore\n      0x20\n      add\n      dup3\n      dup1\n      sload\n      tag_161\n      swap1\n      tag_105\n      jump\t// in\n    tag_161:\n      dup1\n      iszero\n      tag_162\n      jumpi\n      dup1\n      0x1f\n      lt\n      tag_163\n      jumpi\n      0x0100\n      dup1\n      dup4\n      sload\n      div\n      mul\n      dup4\n      mstore\n      swap2\n      0x20\n      add\n      swap2\n      jump(tag_162)\n    tag_163:\n      dup3\n      add\n      swap2\n      swap1\n      0x00\n      mstore\n      keccak256(0x00, 0x20)\n      swap1\n    tag_164:\n      dup2\n      sload\n      dup2\n      mstore\n      swap1\n      0x01\n      add\n      swap1\n      0x20\n      add\n      dup1\n      dup4\n      gt\n      tag_164\n      jumpi\n      dup3\n      swap1\n      sub\n      0x1f\n      and\n      dup3\n      add\n      swap2\n    tag_162:\n      pop\n      pop\n      pop\n      pop\n      pop\n      dup2\n      mstore\n      0x20\n      add\n      0x02\n      dup3\n      add\n      dup1\n      sload\n      tag_165\n      swap1\n      tag_105\n      jump\t// in\n    tag_165:\n      dup1\n      0x1f\n      add\n      0x20\n      dup1\n      swap2\n      div\n      mul\n      0x20\n      add\n      mload(0x40)\n      swap1\n      dup2\n      add\n      0x40\n      mstore\n      dup1\n      swap3\n      swap2\n      swap1\n      dup2\n      dup2\n      mstore\n      0x20\n      add\n      dup3\n      dup1\n      sload\n      tag_166\n      swap1\n      tag_105\n      jump\t// in\n    tag_166:\n      dup1\n      iszero\n      tag_167\n      jumpi\n      dup1\n      0x1f\n      lt\n      tag_168\n      jumpi\n      0x0100\n      dup1\n      dup4\n      sload\n      div\n      mul\n      dup4\n      mstore\n      swap2\n      0x20\n      add\n      swap2\n      jump(tag_167)\n    tag_168:\n      dup3\n      add\n      swap2\n      swap1\n      0x00\n      mstore\n      keccak256(0x00, 0x20)\n      swap1\n    tag_169:\n      dup2\n      sload\n      dup2\n      mstore\n      swap1\n      0x01\n      add\n      swap1\n      0x20\n      add\n      dup1\n      dup4\n      gt\n      tag_169\n      jumpi\n      dup3\n      swap1\n      sub\n      0x1f\n      and\n      dup3\n      add\n      swap2\n    tag_167:\n      pop\n      pop\n      pop\n      pop\n      pop\n      dup2\n      mstore\n      0x20\n      add\n      0x03\n      dup3\n      add\n      dup1\n      sload\n      tag_170\n      swap1\n      tag_105\n      jump\t// in\n    tag_170:\n      dup1\n      0x1f\n      add\n      0x20\n      dup1\n      swap2\n      div\n      mul\n      0x20\n      add\n      mload(0x40)\n      swap1\n      dup2\n      add\n      0x40\n      mstore\n      dup1\n      swap3\n      swap2\n      swap1\n      dup2\n      dup2\n      mstore\n      0x20\n      add\n      dup3\n      dup1\n      sload\n      tag_171\n      swap1\n      tag_105\n      jump\t// in\n    tag_171:\n      dup1\n      iszero\n      tag_172\n      jumpi\n      dup1\n      0x1f\n      lt\n      tag_173\n      jumpi\n      0x0100\n      dup1\n      dup4\n      sload\n      div\n      mul\n      dup4\n      mstore\n      swap2\n      0x20\n      add\n      swap2\n      jump(tag_172)\n    tag_173:\n      dup3\n      add\n      swap2\n      swap1\n      0x00\n      mstore\n      keccak256(0x00, 0x20)\n      swap1\n    tag_174:\n      dup2\n      sload\n      dup2\n      mstore\n      swap1\n      0x01\n      add\n      swap1\n      0x20\n      add\n      dup1\n      dup4\n      gt\n      tag_174\n      jumpi\n      dup3\n      swap1\n      sub\n      0x1f\n      and\n      dup3\n      add\n      swap2\n    tag_172:\n      pop\n      pop\n      pop\n      pop\n      pop\n      dup2\n      mstore\n      0x20\n      add\n      0x04\n      dup3\n      add\n      0x00\n      swap1\n      sload\n      swap1\n      0x0100\n      exp\n      swap1\n      div\n      0xffffffffffffffffffffffffffffffffffffffff\n      and\n      0xffffffffffffffffffffffffffffffffffffffff\n      and\n      0xffffffffffffffffffffffffffffffffffffffff\n      and\n      dup2\n      mstore\n      0x20\n      add\n      0x05\n      dup3\n      add\n      sload\n      dup2\n      mstore\n      0x20\n      add\n      0x06\n      dup3\n      add\n      0x00\n      swap1\n      sload\n      swap1\n      0x0100\n      exp\n      swap1\n      div\n      0xff\n      and\n      iszero\n      iszero\n      iszero\n      iszero\n      dup2\n      mstore\n      0x20\n      add\n      0x07\n      dup3\n      add\n      dup1\n      sload\n      tag_175\n      swap1\n      tag_105\n      jump\t// in\n    tag_175:\n      dup1\n      0x1f\n      add\n      0x20\n      dup1\n      swap2\n      div\n      mul\n      0x20\n      add\n      mload(0x40)\n      swap1\n      dup2\n      add\n      0x40\n      mstore\n      dup1\n      swap3\n      swap2\n      swap1\n      dup2\n      dup2\n      mstore\n      0x20\n      add\n      dup3\n      dup1\n      sload\n      tag_176\n      swap1\n      tag_105\n      jump\t// in\n    tag_176:\n      dup1\n      iszero\n      tag_177\n      jumpi\n      dup1\n      0x1f\n      lt\n      tag_178\n      jumpi\n      0x0100\n      dup1\n      dup4\n      sload\n      div\n      mul\n      dup4\n      mstore\n      swap2\n      0x20\n      add\n      swap2\n      jump(tag_177)\n    tag_178:\n      dup3\n      add\n      swap2\n      swap1\n      0x00\n      mstore\n      keccak256(0x00, 0x20)\n      swap1\n    tag_179:\n      dup2\n      sload\n      dup2\n      mstore\n      swap1\n      0x01\n      add\n      swap1\n      0x20\n      add\n      dup1\n      dup4\n      gt\n      tag_179\n      jumpi\n      dup3\n      swap1\n      sub\n      0x1f\n      and\n      dup3\n      add\n      swap2\n    tag_177:\n      pop\n      pop\n      pop\n      pop\n      pop\n      dup2\n      mstore\n      0x20\n      add\n      0x08\n      dup3\n      add\n      dup1\n      sload\n      tag_180\n      swap1\n      tag_105\n      jump\t// in\n    tag_180:\n      dup1\n      0x1f\n      add\n      0x20\n      dup1\n      swap2\n      div\n      mul\n      0x20\n      add\n      mload(0x40)\n      swap1\n      dup2\n      add\n      0x40\n      mstore\n      dup1\n      swap3\n      swap2\n      swap1\n      dup2\n      dup2\n      mstore\n      0x20\n      add\n      dup3\n      dup1\n      sload\n      tag_181\n      swap1\n      tag_105\n      jump\t// in\n    tag_181:\n      dup1\n      iszero\n      tag_182\n      jumpi\n      dup1\n      0x1f\n      lt\n      tag_183\n      jumpi\n      0x0100\n      dup1\n      dup4\n      sload\n      div\n      mul\n      dup4\n      mstore\n      swap2\n      0x20\n      add\n      swap2\n      jump(tag_182)\n    tag_183:\n      dup3\n      add\n      swap2\n      swap1\n      0x00\n      mstore\n      keccak256(0x00, 0x20)\n      swap1\n    tag_184:\n      dup2\n      sload\n      dup2\n      mstore\n      swap1\n      0x01\n      add\n      swap1\n      0x20\n      add\n      dup1\n      dup4\n      gt\n      tag_184\n      jumpi\n      dup3\n      swap1\n      sub\n      0x1f\n      and\n      dup3\n      add\n      swap2\n    tag_182:\n      pop\n      pop\n      pop\n      pop\n      pop\n      dup2\n      mstore\n      0x20\n      add\n      0x09\n      dup3\n      add\n      0x00\n      swap1\n      sload\n      swap1\n      0x0100\n      exp\n      swap1\n      div\n      0xff\n      and\n      iszero\n      iszero\n      iszero\n      iszero\n      dup2\n      mstore\n      pop\n      pop\n        /* \"contracts/TransactionHistory.sol\":3575:3581  result */\n      dup3\n        /* \"contracts/TransactionHistory.sol\":3582:3587  count */\n      dup5\n        /* \"contracts/TransactionHistory.sol\":3575:3588  result[count] */\n      dup2\n      mload\n      dup2\n      lt\n      tag_185\n      jumpi\n      tag_186\n      tag_76\n      jump\t// in\n    tag_186:\n    tag_185:\n      0x20\n      mul\n      0x20\n      add\n      add\n        /* \"contracts/TransactionHistory.sol\":3575:3614  result[count] = transactionInfoArray[i] */\n      dup2\n      swap1\n      mstore\n      pop\n        /* \"contracts/TransactionHistory.sol\":3633:3640  count++ */\n      dup3\n      dup1\n      tag_187\n      swap1\n      tag_141\n      jump\t// in\n    tag_187:\n      swap4\n      pop\n      pop\n        /* \"contracts/TransactionHistory.sol\":3443:3656  if (keccak256(abi.encodePacked(transactionInfoArray[i].campaignId)) == keccak256(abi.encodePacked(_campaignId))) {... */\n    tag_156:\n        /* \"contracts/TransactionHistory.sol\":3423:3426  i++ */\n      dup1\n      dup1\n      0x01\n      add\n      swap2\n      pop\n      pop\n        /* \"contracts/TransactionHistory.sol\":3373:3667  for (uint i = 0; i < transactionInfoArray.length; i++) {... */\n      jump(tag_148)\n    tag_149:\n      pop\n        /* \"contracts/TransactionHistory.sol\":3686:3692  result */\n      dup1\n        /* \"contracts/TransactionHistory.sol\":3679:3692  return result */\n      swap3\n      pop\n      pop\n      pop\n        /* \"contracts/TransactionHistory.sol\":2877:3700  function getTransactionHistoryByCampaignId(string memory _campaignId) external view returns (TransactionInfo[] memory) {... */\n      swap2\n      swap1\n      pop\n      jump\t// out\n        /* \"contracts/TransactionHistory.sol\":1996:2163  function setCampaignAddress(... */\n    tag_45:\n        /* \"contracts/TransactionHistory.sol\":875:890  deployerAddress */\n      0x00\n      dup1\n      sload\n      swap1\n      0x0100\n      exp\n      swap1\n      div\n      0xffffffffffffffffffffffffffffffffffffffff\n      and\n        /* \"contracts/TransactionHistory.sol\":861:890  msg.sender == deployerAddress */\n      0xffffffffffffffffffffffffffffffffffffffff\n      and\n        /* \"contracts/TransactionHistory.sol\":861:871  msg.sender */\n      caller\n        /* \"contracts/TransactionHistory.sol\":861:890  msg.sender == deployerAddress */\n      0xffffffffffffffffffffffffffffffffffffffff\n      and\n      eq\n        /* \"contracts/TransactionHistory.sol\":839:950  require(... */\n      tag_189\n      jumpi\n      mload(0x40)\n      0x08c379a000000000000000000000000000000000000000000000000000000000\n      dup2\n      mstore\n      0x04\n      add\n      tag_190\n      swap1\n      tag_191\n      jump\t// in\n    tag_190:\n      mload(0x40)\n      dup1\n      swap2\n      sub\n      swap1\n      revert\n    tag_189:\n        /* \"contracts/TransactionHistory.sol\":2131:2155  _campaignContractAddress */\n      dup1\n        /* \"contracts/TransactionHistory.sol\":2105:2128  campaignContractAddress */\n      0x01\n      0x00\n        /* \"contracts/TransactionHistory.sol\":2105:2155  campaignContractAddress = _campaignContractAddress */\n      0x0100\n      exp\n      dup2\n      sload\n      dup2\n      0xffffffffffffffffffffffffffffffffffffffff\n      mul\n      not\n      and\n      swap1\n      dup4\n      0xffffffffffffffffffffffffffffffffffffffff\n      and\n      mul\n      or\n      swap1\n      sstore\n      pop\n        /* \"contracts/TransactionHistory.sol\":1996:2163  function setCampaignAddress(... */\n      pop\n      jump\t// out\n        /* \"contracts/TransactionHistory.sol\":1832:1988  function getAllTransaction()... */\n    tag_47:\n        /* \"contracts/TransactionHistory.sol\":1911:1935  TransactionInfo[] memory */\n      0x60\n        /* \"contracts/TransactionHistory.sol\":1960:1980  transactionInfoArray */\n      0x02\n        /* \"contracts/TransactionHistory.sol\":1953:1980  return transactionInfoArray */\n      dup1\n      sload\n      dup1\n      0x20\n      mul\n      0x20\n      add\n      mload(0x40)\n      swap1\n      dup2\n      add\n      0x40\n      mstore\n      dup1\n      swap3\n      swap2\n      swap1\n      dup2\n      dup2\n      mstore\n      0x20\n      add\n      0x00\n      swap1\n    tag_194:\n      dup3\n      dup3\n      lt\n      iszero\n      tag_195\n      jumpi\n      dup4\n      dup3\n      swap1\n      0x00\n      mstore\n      keccak256(0x00, 0x20)\n      swap1\n      0x0a\n      mul\n      add\n      mload(0x40)\n      dup1\n      0x0140\n      add\n      0x40\n      mstore\n      swap1\n      dup2\n      0x00\n      dup3\n      add\n      sload\n      dup2\n      mstore\n      0x20\n      add\n      0x01\n      dup3\n      add\n      dup1\n      sload\n      tag_197\n      swap1\n      tag_105\n      jump\t// in\n    tag_197:\n      dup1\n      0x1f\n      add\n      0x20\n      dup1\n      swap2\n      div\n      mul\n      0x20\n      add\n      mload(0x40)\n      swap1\n      dup2\n      add\n      0x40\n      mstore\n      dup1\n      swap3\n      swap2\n      swap1\n      dup2\n      dup2\n      mstore\n      0x20\n      add\n      dup3\n      dup1\n      sload\n      tag_198\n      swap1\n      tag_105\n      jump\t// in\n    tag_198:\n      dup1\n      iszero\n      tag_199\n      jumpi\n      dup1\n      0x1f\n      lt\n      tag_200\n      jumpi\n      0x0100\n      dup1\n      dup4\n      sload\n      div\n      mul\n      dup4\n      mstore\n      swap2\n      0x20\n      add\n      swap2\n      jump(tag_199)\n    tag_200:\n      dup3\n      add\n      swap2\n      swap1\n      0x00\n      mstore\n      keccak256(0x00, 0x20)\n      swap1\n    tag_201:\n      dup2\n      sload\n      dup2\n      mstore\n      swap1\n      0x01\n      add\n      swap1\n      0x20\n      add\n      dup1\n      dup4\n      gt\n      tag_201\n      jumpi\n      dup3\n      swap1\n      sub\n      0x1f\n      and\n      dup3\n      add\n      swap2\n    tag_199:\n      pop\n      pop\n      pop\n      pop\n      pop\n      dup2\n      mstore\n      0x20\n      add\n      0x02\n      dup3\n      add\n      dup1\n      sload\n      tag_202\n      swap1\n      tag_105\n      jump\t// in\n    tag_202:\n      dup1\n      0x1f\n      add\n      0x20\n      dup1\n      swap2\n      div\n      mul\n      0x20\n      add\n      mload(0x40)\n      swap1\n      dup2\n      add\n      0x40\n      mstore\n      dup1\n      swap3\n      swap2\n      swap1\n      dup2\n      dup2\n      mstore\n      0x20\n      add\n      dup3\n      dup1\n      sload\n      tag_203\n      swap1\n      tag_105\n      jump\t// in\n    tag_203:\n      dup1\n      iszero\n      tag_204\n      jumpi\n      dup1\n      0x1f\n      lt\n      tag_205\n      jumpi\n      0x0100\n      dup1\n      dup4\n      sload\n      div\n      mul\n      dup4\n      mstore\n      swap2\n      0x20\n      add\n      swap2\n      jump(tag_204)\n    tag_205:\n      dup3\n      add\n      swap2\n      swap1\n      0x00\n      mstore\n      keccak256(0x00, 0x20)\n      swap1\n    tag_206:\n      dup2\n      sload\n      dup2\n      mstore\n      swap1\n      0x01\n      add\n      swap1\n      0x20\n      add\n      dup1\n      dup4\n      gt\n      tag_206\n      jumpi\n      dup3\n      swap1\n      sub\n      0x1f\n      and\n      dup3\n      add\n      swap2\n    tag_204:\n      pop\n      pop\n      pop\n      pop\n      pop\n      dup2\n      mstore\n      0x20\n      add\n      0x03\n      dup3\n      add\n      dup1\n      sload\n      tag_207\n      swap1\n      tag_105\n      jump\t// in\n    tag_207:\n      dup1\n      0x1f\n      add\n      0x20\n      dup1\n      swap2\n      div\n      mul\n      0x20\n      add\n      mload(0x40)\n      swap1\n      dup2\n      add\n      0x40\n      mstore\n      dup1\n      swap3\n      swap2\n      swap1\n      dup2\n      dup2\n      mstore\n      0x20\n      add\n      dup3\n      dup1\n      sload\n      tag_208\n      swap1\n      tag_105\n      jump\t// in\n    tag_208:\n      dup1\n      iszero\n      tag_209\n      jumpi\n      dup1\n      0x1f\n      lt\n      tag_210\n      jumpi\n      0x0100\n      dup1\n      dup4\n      sload\n      div\n      mul\n      dup4\n      mstore\n      swap2\n      0x20\n      add\n      swap2\n      jump(tag_209)\n    tag_210:\n      dup3\n      add\n      swap2\n      swap1\n      0x00\n      mstore\n      keccak256(0x00, 0x20)\n      swap1\n    tag_211:\n      dup2\n      sload\n      dup2\n      mstore\n      swap1\n      0x01\n      add\n      swap1\n      0x20\n      add\n      dup1\n      dup4\n      gt\n      tag_211\n      jumpi\n      dup3\n      swap1\n      sub\n      0x1f\n      and\n      dup3\n      add\n      swap2\n    tag_209:\n      pop\n      pop\n      pop\n      pop\n      pop\n      dup2\n      mstore\n      0x20\n      add\n      0x04\n      dup3\n      add\n      0x00\n      swap1\n      sload\n      swap1\n      0x0100\n      exp\n      swap1\n      div\n      0xffffffffffffffffffffffffffffffffffffffff\n      and\n      0xffffffffffffffffffffffffffffffffffffffff\n      and\n      0xffffffffffffffffffffffffffffffffffffffff\n      and\n      dup2\n      mstore\n      0x20\n      add\n      0x05\n      dup3\n      add\n      sload\n      dup2\n      mstore\n      0x20\n      add\n      0x06\n      dup3\n      add\n      0x00\n      swap1\n      sload\n      swap1\n      0x0100\n      exp\n      swap1\n      div\n      0xff\n      and\n      iszero\n      iszero\n      iszero\n      iszero\n      dup2\n      mstore\n      0x20\n      add\n      0x07\n      dup3\n      add\n      dup1\n      sload\n      tag_212\n      swap1\n      tag_105\n      jump\t// in\n    tag_212:\n      dup1\n      0x1f\n      add\n      0x20\n      dup1\n      swap2\n      div\n      mul\n      0x20\n      add\n      mload(0x40)\n      swap1\n      dup2\n      add\n      0x40\n      mstore\n      dup1\n      swap3\n      swap2\n      swap1\n      dup2\n      dup2\n      mstore\n      0x20\n      add\n      dup3\n      dup1\n      sload\n      tag_213\n      swap1\n      tag_105\n      jump\t// in\n    tag_213:\n      dup1\n      iszero\n      tag_214\n      jumpi\n      dup1\n      0x1f\n      lt\n      tag_215\n      jumpi\n      0x0100\n      dup1\n      dup4\n      sload\n      div\n      mul\n      dup4\n      mstore\n      swap2\n      0x20\n      add\n      swap2\n      jump(tag_214)\n    tag_215:\n      dup3\n      add\n      swap2\n      swap1\n      0x00\n      mstore\n      keccak256(0x00, 0x20)\n      swap1\n    tag_216:\n      dup2\n      sload\n      dup2\n      mstore\n      swap1\n      0x01\n      add\n      swap1\n      0x20\n      add\n      dup1\n      dup4\n      gt\n      tag_216\n      jumpi\n      dup3\n      swap1\n      sub\n      0x1f\n      and\n      dup3\n      add\n      swap2\n    tag_214:\n      pop\n      pop\n      pop\n      pop\n      pop\n      dup2\n      mstore\n      0x20\n      add\n      0x08\n      dup3\n      add\n      dup1\n      sload\n      tag_217\n      swap1\n      tag_105\n      jump\t// in\n    tag_217:\n      dup1\n      0x1f\n      add\n      0x20\n      dup1\n      swap2\n      div\n      mul\n      0x20\n      add\n      mload(0x40)\n      swap1\n      dup2\n      add\n      0x40\n      mstore\n      dup1\n      swap3\n      swap2\n      swap1\n      dup2\n      dup2\n      mstore\n      0x20\n      add\n      dup3\n      dup1\n      sload\n      tag_218\n      swap1\n      tag_105\n      jump\t// in\n    tag_218:\n      dup1\n      iszero\n      tag_219\n      jumpi\n      dup1\n      0x1f\n      lt\n      tag_220\n      jumpi\n      0x0100\n      dup1\n      dup4\n      sload\n      div\n      mul\n      dup4\n      mstore\n      swap2\n      0x20\n      add\n      swap2\n      jump(tag_219)\n    tag_220:\n      dup3\n      add\n      swap2\n      swap1\n      0x00\n      mstore\n      keccak256(0x00, 0x20)\n      swap1\n    tag_221:\n      dup2\n      sload\n      dup2\n      mstore\n      swap1\n      0x01\n      add\n      swap1\n      0x20\n      add\n      dup1\n      dup4\n      gt\n      tag_221\n      jumpi\n      dup3\n      swap1\n      sub\n      0x1f\n      and\n      dup3\n      add\n      swap2\n    tag_219:\n      pop\n      pop\n      pop\n      pop\n      pop\n      dup2\n      mstore\n      0x20\n      add\n      0x09\n      dup3\n      add\n      0x00\n      swap1\n      sload\n      swap1\n      0x0100\n      exp\n      swap1\n      div\n      0xff\n      and\n      iszero\n      iszero\n      iszero\n      iszero\n      dup2\n      mstore\n      pop\n      pop\n      dup2\n      mstore\n      0x20\n      add\n      swap1\n      0x01\n      add\n      swap1\n      jump(tag_194)\n    tag_195:\n      pop\n      pop\n      pop\n      pop\n      swap1\n      pop\n        /* \"contracts/TransactionHistory.sol\":1832:1988  function getAllTransaction()... */\n      swap1\n      jump\t// out\n        /* \"contracts/TransactionHistory.sol\":5424:6215  function getDonateByOwner(string memory _ownerId) external view returns (TransactionInfo[] memory) {... */\n    tag_51:\n        /* \"contracts/TransactionHistory.sol\":5497:5521  TransactionInfo[] memory */\n      0x60\n        /* \"contracts/TransactionHistory.sol\":5534:5544  uint count */\n      0x00\n        /* \"contracts/TransactionHistory.sol\":5564:5570  uint i */\n      dup1\n        /* \"contracts/TransactionHistory.sol\":5559:5789  for (uint i = 0; i < transactionInfoArray.length; i++) {... */\n    tag_223:\n        /* \"contracts/TransactionHistory.sol\":5580:5600  transactionInfoArray */\n      0x02\n        /* \"contracts/TransactionHistory.sol\":5580:5607  transactionInfoArray.length */\n      dup1\n      sload\n      swap1\n      pop\n        /* \"contracts/TransactionHistory.sol\":5576:5577  i */\n      dup2\n        /* \"contracts/TransactionHistory.sol\":5576:5607  i < transactionInfoArray.length */\n      lt\n        /* \"contracts/TransactionHistory.sol\":5559:5789  for (uint i = 0; i < transactionInfoArray.length; i++) {... */\n      iszero\n      tag_224\n      jumpi\n        /* \"contracts/TransactionHistory.sol\":5724:5732  _ownerId */\n      dup4\n        /* \"contracts/TransactionHistory.sol\":5707:5733  abi.encodePacked(_ownerId) */\n      add(0x20, mload(0x40))\n      tag_226\n      swap2\n      swap1\n      tag_81\n      jump\t// in\n    tag_226:\n      mload(0x40)\n      0x20\n      dup2\n      dup4\n      sub\n      sub\n      dup2\n      mstore\n      swap1\n      0x40\n      mstore\n        /* \"contracts/TransactionHistory.sol\":5697:5734  keccak256(abi.encodePacked(_ownerId)) */\n      dup1\n      mload\n      swap1\n      0x20\n      add\n      keccak256\n        /* \"contracts/TransactionHistory.sol\":5660:5680  transactionInfoArray */\n      0x02\n        /* \"contracts/TransactionHistory.sol\":5681:5682  i */\n      dup3\n        /* \"contracts/TransactionHistory.sol\":5660:5683  transactionInfoArray[i] */\n      dup2\n      sload\n      dup2\n      lt\n      tag_227\n      jumpi\n      tag_228\n      tag_76\n      jump\t// in\n    tag_228:\n    tag_227:\n      swap1\n      0x00\n      mstore\n      keccak256(0x00, 0x20)\n      swap1\n      0x0a\n      mul\n      add\n        /* \"contracts/TransactionHistory.sol\":5660:5691  transactionInfoArray[i].ownerId */\n      0x02\n      add\n        /* \"contracts/TransactionHistory.sol\":5643:5692  abi.encodePacked(transactionInfoArray[i].ownerId) */\n      add(0x20, mload(0x40))\n      tag_230\n      swap2\n      swap1\n      tag_86\n      jump\t// in\n    tag_230:\n      mload(0x40)\n      0x20\n      dup2\n      dup4\n      sub\n      sub\n      dup2\n      mstore\n      swap1\n      0x40\n      mstore\n        /* \"contracts/TransactionHistory.sol\":5633:5693  keccak256(abi.encodePacked(transactionInfoArray[i].ownerId)) */\n      dup1\n      mload\n      swap1\n      0x20\n      add\n      keccak256\n        /* \"contracts/TransactionHistory.sol\":5633:5734  keccak256(abi.encodePacked(transactionInfoArray[i].ownerId)) == keccak256(abi.encodePacked(_ownerId)) */\n      sub\n        /* \"contracts/TransactionHistory.sol\":5629:5778  if (keccak256(abi.encodePacked(transactionInfoArray[i].ownerId)) == keccak256(abi.encodePacked(_ownerId))) {... */\n      tag_231\n      jumpi\n        /* \"contracts/TransactionHistory.sol\":5755:5762  count++ */\n      dup2\n      dup1\n      tag_232\n      swap1\n      tag_141\n      jump\t// in\n    tag_232:\n      swap3\n      pop\n      pop\n        /* \"contracts/TransactionHistory.sol\":5629:5778  if (keccak256(abi.encodePacked(transactionInfoArray[i].ownerId)) == keccak256(abi.encodePacked(_ownerId))) {... */\n    tag_231:\n        /* \"contracts/TransactionHistory.sol\":5609:5612  i++ */\n      dup1\n      dup1\n      0x01\n      add\n      swap2\n      pop\n      pop\n        /* \"contracts/TransactionHistory.sol\":5559:5789  for (uint i = 0; i < transactionInfoArray.length; i++) {... */\n      jump(tag_223)\n    tag_224:\n      pop\n        /* \"contracts/TransactionHistory.sol\":5801:5832  TransactionInfo[] memory result */\n      0x00\n        /* \"contracts/TransactionHistory.sol\":5857:5862  count */\n      dup2\n        /* \"contracts/TransactionHistory.sol\":5835:5863  new TransactionInfo[](count) */\n      0xffffffffffffffff\n      dup2\n      gt\n      iszero\n      tag_233\n      jumpi\n      tag_234\n      tag_144\n      jump\t// in\n    tag_234:\n    tag_233:\n      mload(0x40)\n      swap1\n      dup1\n      dup3\n      mstore\n      dup1\n      0x20\n      mul\n      0x20\n      add\n      dup3\n      add\n      0x40\n      mstore\n      dup1\n      iszero\n      tag_235\n      jumpi\n      dup2\n      0x20\n      add\n    tag_236:\n      tag_237\n      tag_94\n      jump\t// in\n    tag_237:\n      dup2\n      mstore\n      0x20\n      add\n      swap1\n      0x01\n      swap1\n      sub\n      swap1\n      dup2\n      tag_236\n      jumpi\n      swap1\n      pop\n    tag_235:\n      pop\n        /* \"contracts/TransactionHistory.sol\":5801:5863  TransactionInfo[] memory result = new TransactionInfo[](count) */\n      swap1\n      pop\n        /* \"contracts/TransactionHistory.sol\":5882:5883  0 */\n      0x00\n        /* \"contracts/TransactionHistory.sol\":5874:5883  count = 0 */\n      swap2\n      pop\n        /* \"contracts/TransactionHistory.sol\":5899:5905  uint i */\n      0x00\n        /* \"contracts/TransactionHistory.sol\":5894:6182  for (uint i = 0; i < transactionInfoArray.length; i++) {... */\n    tag_238:\n        /* \"contracts/TransactionHistory.sol\":5915:5935  transactionInfoArray */\n      0x02\n        /* \"contracts/TransactionHistory.sol\":5915:5942  transactionInfoArray.length */\n      dup1\n      sload\n      swap1\n      pop\n        /* \"contracts/TransactionHistory.sol\":5911:5912  i */\n      dup2\n        /* \"contracts/TransactionHistory.sol\":5911:5942  i < transactionInfoArray.length */\n      lt\n        /* \"contracts/TransactionHistory.sol\":5894:6182  for (uint i = 0; i < transactionInfoArray.length; i++) {... */\n      iszero\n      tag_239\n      jumpi\n        /* \"contracts/TransactionHistory.sol\":6059:6067  _ownerId */\n      dup5\n        /* \"contracts/TransactionHistory.sol\":6042:6068  abi.encodePacked(_ownerId) */\n      add(0x20, mload(0x40))\n      tag_241\n      swap2\n      swap1\n      tag_81\n      jump\t// in\n    tag_241:\n      mload(0x40)\n      0x20\n      dup2\n      dup4\n      sub\n      sub\n      dup2\n      mstore\n      swap1\n      0x40\n      mstore\n        /* \"contracts/TransactionHistory.sol\":6032:6069  keccak256(abi.encodePacked(_ownerId)) */\n      dup1\n      mload\n      swap1\n      0x20\n      add\n      keccak256\n        /* \"contracts/TransactionHistory.sol\":5995:6015  transactionInfoArray */\n      0x02\n        /* \"contracts/TransactionHistory.sol\":6016:6017  i */\n      dup3\n        /* \"contracts/TransactionHistory.sol\":5995:6018  transactionInfoArray[i] */\n      dup2\n      sload\n      dup2\n      lt\n      tag_242\n      jumpi\n      tag_243\n      tag_76\n      jump\t// in\n    tag_243:\n    tag_242:\n      swap1\n      0x00\n      mstore\n      keccak256(0x00, 0x20)\n      swap1\n      0x0a\n      mul\n      add\n        /* \"contracts/TransactionHistory.sol\":5995:6026  transactionInfoArray[i].ownerId */\n      0x02\n      add\n        /* \"contracts/TransactionHistory.sol\":5978:6027  abi.encodePacked(transactionInfoArray[i].ownerId) */\n      add(0x20, mload(0x40))\n      tag_245\n      swap2\n      swap1\n      tag_86\n      jump\t// in\n    tag_245:\n      mload(0x40)\n      0x20\n      dup2\n      dup4\n      sub\n      sub\n      dup2\n      mstore\n      swap1\n      0x40\n      mstore\n        /* \"contracts/TransactionHistory.sol\":5968:6028  keccak256(abi.encodePacked(transactionInfoArray[i].ownerId)) */\n      dup1\n      mload\n      swap1\n      0x20\n      add\n      keccak256\n        /* \"contracts/TransactionHistory.sol\":5968:6069  keccak256(abi.encodePacked(transactionInfoArray[i].ownerId)) == keccak256(abi.encodePacked(_ownerId)) */\n      sub\n        /* \"contracts/TransactionHistory.sol\":5964:6171  if (keccak256(abi.encodePacked(transactionInfoArray[i].ownerId)) == keccak256(abi.encodePacked(_ownerId))) {... */\n      tag_246\n      jumpi\n        /* \"contracts/TransactionHistory.sol\":6106:6126  transactionInfoArray */\n      0x02\n        /* \"contracts/TransactionHistory.sol\":6127:6128  i */\n      dup2\n        /* \"contracts/TransactionHistory.sol\":6106:6129  transactionInfoArray[i] */\n      dup2\n      sload\n      dup2\n      lt\n      tag_247\n      jumpi\n      tag_248\n      tag_76\n      jump\t// in\n    tag_248:\n    tag_247:\n      swap1\n      0x00\n      mstore\n      keccak256(0x00, 0x20)\n      swap1\n      0x0a\n      mul\n      add\n        /* \"contracts/TransactionHistory.sol\":6090:6129  result[count] = transactionInfoArray[i] */\n      mload(0x40)\n      dup1\n      0x0140\n      add\n      0x40\n      mstore\n      swap1\n      dup2\n      0x00\n      dup3\n      add\n      sload\n      dup2\n      mstore\n      0x20\n      add\n      0x01\n      dup3\n      add\n      dup1\n      sload\n      tag_250\n      swap1\n      tag_105\n      jump\t// in\n    tag_250:\n      dup1\n      0x1f\n      add\n      0x20\n      dup1\n      swap2\n      div\n      mul\n      0x20\n      add\n      mload(0x40)\n      swap1\n      dup2\n      add\n      0x40\n      mstore\n      dup1\n      swap3\n      swap2\n      swap1\n      dup2\n      dup2\n      mstore\n      0x20\n      add\n      dup3\n      dup1\n      sload\n      tag_251\n      swap1\n      tag_105\n      jump\t// in\n    tag_251:\n      dup1\n      iszero\n      tag_252\n      jumpi\n      dup1\n      0x1f\n      lt\n      tag_253\n      jumpi\n      0x0100\n      dup1\n      dup4\n      sload\n      div\n      mul\n      dup4\n      mstore\n      swap2\n      0x20\n      add\n      swap2\n      jump(tag_252)\n    tag_253:\n      dup3\n      add\n      swap2\n      swap1\n      0x00\n      mstore\n      keccak256(0x00, 0x20)\n      swap1\n    tag_254:\n      dup2\n      sload\n      dup2\n      mstore\n      swap1\n      0x01\n      add\n      swap1\n      0x20\n      add\n      dup1\n      dup4\n      gt\n      tag_254\n      jumpi\n      dup3\n      swap1\n      sub\n      0x1f\n      and\n      dup3\n      add\n      swap2\n    tag_252:\n      pop\n      pop\n      pop\n      pop\n      pop\n      dup2\n      mstore\n      0x20\n      add\n      0x02\n      dup3\n      add\n      dup1\n      sload\n      tag_255\n      swap1\n      tag_105\n      jump\t// in\n    tag_255:\n      dup1\n      0x1f\n      add\n      0x20\n      dup1\n      swap2\n      div\n      mul\n      0x20\n      add\n      mload(0x40)\n      swap1\n      dup2\n      add\n      0x40\n      mstore\n      dup1\n      swap3\n      swap2\n      swap1\n      dup2\n      dup2\n      mstore\n      0x20\n      add\n      dup3\n      dup1\n      sload\n      tag_256\n      swap1\n      tag_105\n      jump\t// in\n    tag_256:\n      dup1\n      iszero\n      tag_257\n      jumpi\n      dup1\n      0x1f\n      lt\n      tag_258\n      jumpi\n      0x0100\n      dup1\n      dup4\n      sload\n      div\n      mul\n      dup4\n      mstore\n      swap2\n      0x20\n      add\n      swap2\n      jump(tag_257)\n    tag_258:\n      dup3\n      add\n      swap2\n      swap1\n      0x00\n      mstore\n      keccak256(0x00, 0x20)\n      swap1\n    tag_259:\n      dup2\n      sload\n      dup2\n      mstore\n      swap1\n      0x01\n      add\n      swap1\n      0x20\n      add\n      dup1\n      dup4\n      gt\n      tag_259\n      jumpi\n      dup3\n      swap1\n      sub\n      0x1f\n      and\n      dup3\n      add\n      swap2\n    tag_257:\n      pop\n      pop\n      pop\n      pop\n      pop\n      dup2\n      mstore\n      0x20\n      add\n      0x03\n      dup3\n      add\n      dup1\n      sload\n      tag_260\n      swap1\n      tag_105\n      jump\t// in\n    tag_260:\n      dup1\n      0x1f\n      add\n      0x20\n      dup1\n      swap2\n      div\n      mul\n      0x20\n      add\n      mload(0x40)\n      swap1\n      dup2\n      add\n      0x40\n      mstore\n      dup1\n      swap3\n      swap2\n      swap1\n      dup2\n      dup2\n      mstore\n      0x20\n      add\n      dup3\n      dup1\n      sload\n      tag_261\n      swap1\n      tag_105\n      jump\t// in\n    tag_261:\n      dup1\n      iszero\n      tag_262\n      jumpi\n      dup1\n      0x1f\n      lt\n      tag_263\n      jumpi\n      0x0100\n      dup1\n      dup4\n      sload\n      div\n      mul\n      dup4\n      mstore\n      swap2\n      0x20\n      add\n      swap2\n      jump(tag_262)\n    tag_263:\n      dup3\n      add\n      swap2\n      swap1\n      0x00\n      mstore\n      keccak256(0x00, 0x20)\n      swap1\n    tag_264:\n      dup2\n      sload\n      dup2\n      mstore\n      swap1\n      0x01\n      add\n      swap1\n      0x20\n      add\n      dup1\n      dup4\n      gt\n      tag_264\n      jumpi\n      dup3\n      swap1\n      sub\n      0x1f\n      and\n      dup3\n      add\n      swap2\n    tag_262:\n      pop\n      pop\n      pop\n      pop\n      pop\n      dup2\n      mstore\n      0x20\n      add\n      0x04\n      dup3\n      add\n      0x00\n      swap1\n      sload\n      swap1\n      0x0100\n      exp\n      swap1\n      div\n      0xffffffffffffffffffffffffffffffffffffffff\n      and\n      0xffffffffffffffffffffffffffffffffffffffff\n      and\n      0xffffffffffffffffffffffffffffffffffffffff\n      and\n      dup2\n      mstore\n      0x20\n      add\n      0x05\n      dup3\n      add\n      sload\n      dup2\n      mstore\n      0x20\n      add\n      0x06\n      dup3\n      add\n      0x00\n      swap1\n      sload\n      swap1\n      0x0100\n      exp\n      swap1\n      div\n      0xff\n      and\n      iszero\n      iszero\n      iszero\n      iszero\n      dup2\n      mstore\n      0x20\n      add\n      0x07\n      dup3\n      add\n      dup1\n      sload\n      tag_265\n      swap1\n      tag_105\n      jump\t// in\n    tag_265:\n      dup1\n      0x1f\n      add\n      0x20\n      dup1\n      swap2\n      div\n      mul\n      0x20\n      add\n      mload(0x40)\n      swap1\n      dup2\n      add\n      0x40\n      mstore\n      dup1\n      swap3\n      swap2\n      swap1\n      dup2\n      dup2\n      mstore\n      0x20\n      add\n      dup3\n      dup1\n      sload\n      tag_266\n      swap1\n      tag_105\n      jump\t// in\n    tag_266:\n      dup1\n      iszero\n      tag_267\n      jumpi\n      dup1\n      0x1f\n      lt\n      tag_268\n      jumpi\n      0x0100\n      dup1\n      dup4\n      sload\n      div\n      mul\n      dup4\n      mstore\n      swap2\n      0x20\n      add\n      swap2\n      jump(tag_267)\n    tag_268:\n      dup3\n      add\n      swap2\n      swap1\n      0x00\n      mstore\n      keccak256(0x00, 0x20)\n      swap1\n    tag_269:\n      dup2\n      sload\n      dup2\n      mstore\n      swap1\n      0x01\n      add\n      swap1\n      0x20\n      add\n      dup1\n      dup4\n      gt\n      tag_269\n      jumpi\n      dup3\n      swap1\n      sub\n      0x1f\n      and\n      dup3\n      add\n      swap2\n    tag_267:\n      pop\n      pop\n      pop\n      pop\n      pop\n      dup2\n      mstore\n      0x20\n      add\n      0x08\n      dup3\n      add\n      dup1\n      sload\n      tag_270\n      swap1\n      tag_105\n      jump\t// in\n    tag_270:\n      dup1\n      0x1f\n      add\n      0x20\n      dup1\n      swap2\n      div\n      mul\n      0x20\n      add\n      mload(0x40)\n      swap1\n      dup2\n      add\n      0x40\n      mstore\n      dup1\n      swap3\n      swap2\n      swap1\n      dup2\n      dup2\n      mstore\n      0x20\n      add\n      dup3\n      dup1\n      sload\n      tag_271\n      swap1\n      tag_105\n      jump\t// in\n    tag_271:\n      dup1\n      iszero\n      tag_272\n      jumpi\n      dup1\n      0x1f\n      lt\n      tag_273\n      jumpi\n      0x0100\n      dup1\n      dup4\n      sload\n      div\n      mul\n      dup4\n      mstore\n      swap2\n      0x20\n      add\n      swap2\n      jump(tag_272)\n    tag_273:\n      dup3\n      add\n      swap2\n      swap1\n      0x00\n      mstore\n      keccak256(0x00, 0x20)\n      swap1\n    tag_274:\n      dup2\n      sload\n      dup2\n      mstore\n      swap1\n      0x01\n      add\n      swap1\n      0x20\n      add\n      dup1\n      dup4\n      gt\n      tag_274\n      jumpi\n      dup3\n      swap1\n      sub\n      0x1f\n      and\n      dup3\n      add\n      swap2\n    tag_272:\n      pop\n      pop\n      pop\n      pop\n      pop\n      dup2\n      mstore\n      0x20\n      add\n      0x09\n      dup3\n      add\n      0x00\n      swap1\n      sload\n      swap1\n      0x0100\n      exp\n      swap1\n      div\n      0xff\n      and\n      iszero\n      iszero\n      iszero\n      iszero\n      dup2\n      mstore\n      pop\n      pop\n        /* \"contracts/TransactionHistory.sol\":6090:6096  result */\n      dup3\n        /* \"contracts/TransactionHistory.sol\":6097:6102  count */\n      dup5\n        /* \"contracts/TransactionHistory.sol\":6090:6103  result[count] */\n      dup2\n      mload\n      dup2\n      lt\n      tag_275\n      jumpi\n      tag_276\n      tag_76\n      jump\t// in\n    tag_276:\n    tag_275:\n      0x20\n      mul\n      0x20\n      add\n      add\n        /* \"contracts/TransactionHistory.sol\":6090:6129  result[count] = transactionInfoArray[i] */\n      dup2\n      swap1\n      mstore\n      pop\n        /* \"contracts/TransactionHistory.sol\":6148:6155  count++ */\n      dup3\n      dup1\n      tag_277\n      swap1\n      tag_141\n      jump\t// in\n    tag_277:\n      swap4\n      pop\n      pop\n        /* \"contracts/TransactionHistory.sol\":5964:6171  if (keccak256(abi.encodePacked(transactionInfoArray[i].ownerId)) == keccak256(abi.encodePacked(_ownerId))) {... */\n    tag_246:\n        /* \"contracts/TransactionHistory.sol\":5944:5947  i++ */\n      dup1\n      dup1\n      0x01\n      add\n      swap2\n      pop\n      pop\n        /* \"contracts/TransactionHistory.sol\":5894:6182  for (uint i = 0; i < transactionInfoArray.length; i++) {... */\n      jump(tag_238)\n    tag_239:\n      pop\n        /* \"contracts/TransactionHistory.sol\":6201:6207  result */\n      dup1\n        /* \"contracts/TransactionHistory.sol\":6194:6207  return result */\n      swap3\n      pop\n      pop\n      pop\n        /* \"contracts/TransactionHistory.sol\":5424:6215  function getDonateByOwner(string memory _ownerId) external view returns (TransactionInfo[] memory) {... */\n      swap2\n      swap1\n      pop\n      jump\t// out\n        /* \"contracts/TransactionHistory.sol\":6222:6677  function updateRefundStatus(string memory _campaignId, string memory _timeRefund) external {... */\n    tag_56:\n        /* \"contracts/TransactionHistory.sol\":6329:6335  uint i */\n      0x00\n        /* \"contracts/TransactionHistory.sol\":6324:6670  for (uint i = 0; i < transactionInfoArray.length; i++) {... */\n    tag_279:\n        /* \"contracts/TransactionHistory.sol\":6345:6365  transactionInfoArray */\n      0x02\n        /* \"contracts/TransactionHistory.sol\":6345:6372  transactionInfoArray.length */\n      dup1\n      sload\n      swap1\n      pop\n        /* \"contracts/TransactionHistory.sol\":6341:6342  i */\n      dup2\n        /* \"contracts/TransactionHistory.sol\":6341:6372  i < transactionInfoArray.length */\n      lt\n        /* \"contracts/TransactionHistory.sol\":6324:6670  for (uint i = 0; i < transactionInfoArray.length; i++) {... */\n      iszero\n      tag_280\n      jumpi\n        /* \"contracts/TransactionHistory.sol\":6492:6503  _campaignId */\n      dup3\n        /* \"contracts/TransactionHistory.sol\":6475:6504  abi.encodePacked(_campaignId) */\n      add(0x20, mload(0x40))\n      tag_282\n      swap2\n      swap1\n      tag_81\n      jump\t// in\n    tag_282:\n      mload(0x40)\n      0x20\n      dup2\n      dup4\n      sub\n      sub\n      dup2\n      mstore\n      swap1\n      0x40\n      mstore\n        /* \"contracts/TransactionHistory.sol\":6465:6505  keccak256(abi.encodePacked(_campaignId)) */\n      dup1\n      mload\n      swap1\n      0x20\n      add\n      keccak256\n        /* \"contracts/TransactionHistory.sol\":6425:6445  transactionInfoArray */\n      0x02\n        /* \"contracts/TransactionHistory.sol\":6446:6447  i */\n      dup3\n        /* \"contracts/TransactionHistory.sol\":6425:6448  transactionInfoArray[i] */\n      dup2\n      sload\n      dup2\n      lt\n      tag_283\n      jumpi\n      tag_284\n      tag_76\n      jump\t// in\n    tag_284:\n    tag_283:\n      swap1\n      0x00\n      mstore\n      keccak256(0x00, 0x20)\n      swap1\n      0x0a\n      mul\n      add\n        /* \"contracts/TransactionHistory.sol\":6425:6459  transactionInfoArray[i].campaignId */\n      0x01\n      add\n        /* \"contracts/TransactionHistory.sol\":6408:6460  abi.encodePacked(transactionInfoArray[i].campaignId) */\n      add(0x20, mload(0x40))\n      tag_286\n      swap2\n      swap1\n      tag_86\n      jump\t// in\n    tag_286:\n      mload(0x40)\n      0x20\n      dup2\n      dup4\n      sub\n      sub\n      dup2\n      mstore\n      swap1\n      0x40\n      mstore\n        /* \"contracts/TransactionHistory.sol\":6398:6461  keccak256(abi.encodePacked(transactionInfoArray[i].campaignId)) */\n      dup1\n      mload\n      swap1\n      0x20\n      add\n      keccak256\n        /* \"contracts/TransactionHistory.sol\":6398:6505  keccak256(abi.encodePacked(transactionInfoArray[i].campaignId)) == keccak256(abi.encodePacked(_campaignId)) */\n      sub\n        /* \"contracts/TransactionHistory.sol\":6394:6659  if (keccak256(abi.encodePacked(transactionInfoArray[i].campaignId)) == keccak256(abi.encodePacked(_campaignId))) {... */\n      tag_287\n      jumpi\n        /* \"contracts/TransactionHistory.sol\":6559:6563  true */\n      0x01\n        /* \"contracts/TransactionHistory.sol\":6525:6545  transactionInfoArray */\n      0x02\n        /* \"contracts/TransactionHistory.sol\":6546:6547  i */\n      dup3\n        /* \"contracts/TransactionHistory.sol\":6525:6548  transactionInfoArray[i] */\n      dup2\n      sload\n      dup2\n      lt\n      tag_288\n      jumpi\n      tag_289\n      tag_76\n      jump\t// in\n    tag_289:\n    tag_288:\n      swap1\n      0x00\n      mstore\n      keccak256(0x00, 0x20)\n      swap1\n      0x0a\n      mul\n      add\n        /* \"contracts/TransactionHistory.sol\":6525:6557  transactionInfoArray[i].isRefund */\n      0x06\n      add\n      0x00\n        /* \"contracts/TransactionHistory.sol\":6525:6563  transactionInfoArray[i].isRefund =true */\n      0x0100\n      exp\n      dup2\n      sload\n      dup2\n      0xff\n      mul\n      not\n      and\n      swap1\n      dup4\n      iszero\n      iszero\n      mul\n      or\n      swap1\n      sstore\n      pop\n        /* \"contracts/TransactionHistory.sol\":6616:6627  _timeRefund */\n      dup2\n        /* \"contracts/TransactionHistory.sol\":6581:6601  transactionInfoArray */\n      0x02\n        /* \"contracts/TransactionHistory.sol\":6602:6603  i */\n      dup3\n        /* \"contracts/TransactionHistory.sol\":6581:6604  transactionInfoArray[i] */\n      dup2\n      sload\n      dup2\n      lt\n      tag_291\n      jumpi\n      tag_292\n      tag_76\n      jump\t// in\n    tag_292:\n    tag_291:\n      swap1\n      0x00\n      mstore\n      keccak256(0x00, 0x20)\n      swap1\n      0x0a\n      mul\n      add\n        /* \"contracts/TransactionHistory.sol\":6581:6615  transactionInfoArray[i].timeRefund */\n      0x08\n      add\n        /* \"contracts/TransactionHistory.sol\":6581:6627  transactionInfoArray[i].timeRefund=_timeRefund */\n      swap1\n      dup2\n      tag_294\n      swap2\n      swap1\n      tag_97\n      jump\t// in\n    tag_294:\n      pop\n        /* \"contracts/TransactionHistory.sol\":6394:6659  if (keccak256(abi.encodePacked(transactionInfoArray[i].campaignId)) == keccak256(abi.encodePacked(_campaignId))) {... */\n    tag_287:\n        /* \"contracts/TransactionHistory.sol\":6374:6377  i++ */\n      dup1\n      dup1\n      0x01\n      add\n      swap2\n      pop\n      pop\n        /* \"contracts/TransactionHistory.sol\":6324:6670  for (uint i = 0; i < transactionInfoArray.length; i++) {... */\n      jump(tag_279)\n    tag_280:\n      pop\n        /* \"contracts/TransactionHistory.sol\":6222:6677  function updateRefundStatus(string memory _campaignId, string memory _timeRefund) external {... */\n      pop\n      pop\n      jump\t// out\n        /* \"contracts/TransactionHistory.sol\":3708:4602  function getTransactionHistoryByCampaignIdAndRefund(string memory _campaignId) external view returns (TransactionInfo[] memory) {... */\n    tag_59:\n        /* \"contracts/TransactionHistory.sol\":3810:3834  TransactionInfo[] memory */\n      0x60\n        /* \"contracts/TransactionHistory.sol\":3847:3857  uint count */\n      0x00\n        /* \"contracts/TransactionHistory.sol\":3877:3883  uint i */\n      dup1\n        /* \"contracts/TransactionHistory.sol\":3872:4108  for (uint i = 0; i < transactionInfoArray.length; i++) {... */\n    tag_296:\n        /* \"contracts/TransactionHistory.sol\":3893:3913  transactionInfoArray */\n      0x02\n        /* \"contracts/TransactionHistory.sol\":3893:3920  transactionInfoArray.length */\n      dup1\n      sload\n      swap1\n      pop\n        /* \"contracts/TransactionHistory.sol\":3889:3890  i */\n      dup2\n        /* \"contracts/TransactionHistory.sol\":3889:3920  i < transactionInfoArray.length */\n      lt\n        /* \"contracts/TransactionHistory.sol\":3872:4108  for (uint i = 0; i < transactionInfoArray.length; i++) {... */\n      iszero\n      tag_297\n      jumpi\n        /* \"contracts/TransactionHistory.sol\":4040:4051  _campaignId */\n      dup4\n        /* \"contracts/TransactionHistory.sol\":4023:4052  abi.encodePacked(_campaignId) */\n      add(0x20, mload(0x40))\n      tag_299\n      swap2\n      swap1\n      tag_81\n      jump\t// in\n    tag_299:\n      mload(0x40)\n      0x20\n      dup2\n      dup4\n      sub\n      sub\n      dup2\n      mstore\n      swap1\n      0x40\n      mstore\n        /* \"contracts/TransactionHistory.sol\":4013:4053  keccak256(abi.encodePacked(_campaignId)) */\n      dup1\n      mload\n      swap1\n      0x20\n      add\n      keccak256\n        /* \"contracts/TransactionHistory.sol\":3973:3993  transactionInfoArray */\n      0x02\n        /* \"contracts/TransactionHistory.sol\":3994:3995  i */\n      dup3\n        /* \"contracts/TransactionHistory.sol\":3973:3996  transactionInfoArray[i] */\n      dup2\n      sload\n      dup2\n      lt\n      tag_300\n      jumpi\n      tag_301\n      tag_76\n      jump\t// in\n    tag_301:\n    tag_300:\n      swap1\n      0x00\n      mstore\n      keccak256(0x00, 0x20)\n      swap1\n      0x0a\n      mul\n      add\n        /* \"contracts/TransactionHistory.sol\":3973:4007  transactionInfoArray[i].campaignId */\n      0x01\n      add\n        /* \"contracts/TransactionHistory.sol\":3956:4008  abi.encodePacked(transactionInfoArray[i].campaignId) */\n      add(0x20, mload(0x40))\n      tag_303\n      swap2\n      swap1\n      tag_86\n      jump\t// in\n    tag_303:\n      mload(0x40)\n      0x20\n      dup2\n      dup4\n      sub\n      sub\n      dup2\n      mstore\n      swap1\n      0x40\n      mstore\n        /* \"contracts/TransactionHistory.sol\":3946:4009  keccak256(abi.encodePacked(transactionInfoArray[i].campaignId)) */\n      dup1\n      mload\n      swap1\n      0x20\n      add\n      keccak256\n        /* \"contracts/TransactionHistory.sol\":3946:4053  keccak256(abi.encodePacked(transactionInfoArray[i].campaignId)) == keccak256(abi.encodePacked(_campaignId)) */\n      sub\n        /* \"contracts/TransactionHistory.sol\":3942:4097  if (keccak256(abi.encodePacked(transactionInfoArray[i].campaignId)) == keccak256(abi.encodePacked(_campaignId))) {... */\n      tag_304\n      jumpi\n        /* \"contracts/TransactionHistory.sol\":4074:4081  count++ */\n      dup2\n      dup1\n      tag_305\n      swap1\n      tag_141\n      jump\t// in\n    tag_305:\n      swap3\n      pop\n      pop\n        /* \"contracts/TransactionHistory.sol\":3942:4097  if (keccak256(abi.encodePacked(transactionInfoArray[i].campaignId)) == keccak256(abi.encodePacked(_campaignId))) {... */\n    tag_304:\n        /* \"contracts/TransactionHistory.sol\":3922:3925  i++ */\n      dup1\n      dup1\n      0x01\n      add\n      swap2\n      pop\n      pop\n        /* \"contracts/TransactionHistory.sol\":3872:4108  for (uint i = 0; i < transactionInfoArray.length; i++) {... */\n      jump(tag_296)\n    tag_297:\n      pop\n        /* \"contracts/TransactionHistory.sol\":4120:4151  TransactionInfo[] memory result */\n      0x00\n        /* \"contracts/TransactionHistory.sol\":4176:4181  count */\n      dup2\n        /* \"contracts/TransactionHistory.sol\":4154:4182  new TransactionInfo[](count) */\n      0xffffffffffffffff\n      dup2\n      gt\n      iszero\n      tag_306\n      jumpi\n      tag_307\n      tag_144\n      jump\t// in\n    tag_307:\n    tag_306:\n      mload(0x40)\n      swap1\n      dup1\n      dup3\n      mstore\n      dup1\n      0x20\n      mul\n      0x20\n      add\n      dup3\n      add\n      0x40\n      mstore\n      dup1\n      iszero\n      tag_308\n      jumpi\n      dup2\n      0x20\n      add\n    tag_309:\n      tag_310\n      tag_94\n      jump\t// in\n    tag_310:\n      dup2\n      mstore\n      0x20\n      add\n      swap1\n      0x01\n      swap1\n      sub\n      swap1\n      dup2\n      tag_309\n      jumpi\n      swap1\n      pop\n    tag_308:\n      pop\n        /* \"contracts/TransactionHistory.sol\":4120:4182  TransactionInfo[] memory result = new TransactionInfo[](count) */\n      swap1\n      pop\n        /* \"contracts/TransactionHistory.sol\":4201:4202  0 */\n      0x00\n        /* \"contracts/TransactionHistory.sol\":4193:4202  count = 0 */\n      swap2\n      pop\n        /* \"contracts/TransactionHistory.sol\":4218:4224  uint i */\n      0x00\n        /* \"contracts/TransactionHistory.sol\":4213:4569  for (uint i = 0; i < transactionInfoArray.length; i++) {... */\n    tag_311:\n        /* \"contracts/TransactionHistory.sol\":4234:4254  transactionInfoArray */\n      0x02\n        /* \"contracts/TransactionHistory.sol\":4234:4261  transactionInfoArray.length */\n      dup1\n      sload\n      swap1\n      pop\n        /* \"contracts/TransactionHistory.sol\":4230:4231  i */\n      dup2\n        /* \"contracts/TransactionHistory.sol\":4230:4261  i < transactionInfoArray.length */\n      lt\n        /* \"contracts/TransactionHistory.sol\":4213:4569  for (uint i = 0; i < transactionInfoArray.length; i++) {... */\n      iszero\n      tag_312\n      jumpi\n        /* \"contracts/TransactionHistory.sol\":4381:4392  _campaignId */\n      dup5\n        /* \"contracts/TransactionHistory.sol\":4364:4393  abi.encodePacked(_campaignId) */\n      add(0x20, mload(0x40))\n      tag_314\n      swap2\n      swap1\n      tag_81\n      jump\t// in\n    tag_314:\n      mload(0x40)\n      0x20\n      dup2\n      dup4\n      sub\n      sub\n      dup2\n      mstore\n      swap1\n      0x40\n      mstore\n        /* \"contracts/TransactionHistory.sol\":4354:4394  keccak256(abi.encodePacked(_campaignId)) */\n      dup1\n      mload\n      swap1\n      0x20\n      add\n      keccak256\n        /* \"contracts/TransactionHistory.sol\":4314:4334  transactionInfoArray */\n      0x02\n        /* \"contracts/TransactionHistory.sol\":4335:4336  i */\n      dup3\n        /* \"contracts/TransactionHistory.sol\":4314:4337  transactionInfoArray[i] */\n      dup2\n      sload\n      dup2\n      lt\n      tag_315\n      jumpi\n      tag_316\n      tag_76\n      jump\t// in\n    tag_316:\n    tag_315:\n      swap1\n      0x00\n      mstore\n      keccak256(0x00, 0x20)\n      swap1\n      0x0a\n      mul\n      add\n        /* \"contracts/TransactionHistory.sol\":4314:4348  transactionInfoArray[i].campaignId */\n      0x01\n      add\n        /* \"contracts/TransactionHistory.sol\":4297:4349  abi.encodePacked(transactionInfoArray[i].campaignId) */\n      add(0x20, mload(0x40))\n      tag_318\n      swap2\n      swap1\n      tag_86\n      jump\t// in\n    tag_318:\n      mload(0x40)\n      0x20\n      dup2\n      dup4\n      sub\n      sub\n      dup2\n      mstore\n      swap1\n      0x40\n      mstore\n        /* \"contracts/TransactionHistory.sol\":4287:4350  keccak256(abi.encodePacked(transactionInfoArray[i].campaignId)) */\n      dup1\n      mload\n      swap1\n      0x20\n      add\n      keccak256\n        /* \"contracts/TransactionHistory.sol\":4287:4394  keccak256(abi.encodePacked(transactionInfoArray[i].campaignId)) == keccak256(abi.encodePacked(_campaignId)) */\n      eq\n        /* \"contracts/TransactionHistory.sol\":4287:4456  keccak256(abi.encodePacked(transactionInfoArray[i].campaignId)) == keccak256(abi.encodePacked(_campaignId))... */\n      dup1\n      iszero\n      tag_319\n      jumpi\n      pop\n        /* \"contracts/TransactionHistory.sol\":4451:4456  false */\n      0x00\n        /* \"contracts/TransactionHistory.sol\":4415:4456  transactionInfoArray[i].isRefund == false */\n      iszero\n      iszero\n        /* \"contracts/TransactionHistory.sol\":4415:4435  transactionInfoArray */\n      0x02\n        /* \"contracts/TransactionHistory.sol\":4436:4437  i */\n      dup3\n        /* \"contracts/TransactionHistory.sol\":4415:4438  transactionInfoArray[i] */\n      dup2\n      sload\n      dup2\n      lt\n      tag_320\n      jumpi\n      tag_321\n      tag_76\n      jump\t// in\n    tag_321:\n    tag_320:\n      swap1\n      0x00\n      mstore\n      keccak256(0x00, 0x20)\n      swap1\n      0x0a\n      mul\n      add\n        /* \"contracts/TransactionHistory.sol\":4415:4447  transactionInfoArray[i].isRefund */\n      0x06\n      add\n      0x00\n      swap1\n      sload\n      swap1\n      0x0100\n      exp\n      swap1\n      div\n      0xff\n      and\n        /* \"contracts/TransactionHistory.sol\":4415:4456  transactionInfoArray[i].isRefund == false */\n      iszero\n      iszero\n      eq\n        /* \"contracts/TransactionHistory.sol\":4287:4456  keccak256(abi.encodePacked(transactionInfoArray[i].campaignId)) == keccak256(abi.encodePacked(_campaignId))... */\n    tag_319:\n        /* \"contracts/TransactionHistory.sol\":4283:4558  if (keccak256(abi.encodePacked(transactionInfoArray[i].campaignId)) == keccak256(abi.encodePacked(_campaignId))... */\n      iszero\n      tag_323\n      jumpi\n        /* \"contracts/TransactionHistory.sol\":4493:4513  transactionInfoArray */\n      0x02\n        /* \"contracts/TransactionHistory.sol\":4514:4515  i */\n      dup2\n        /* \"contracts/TransactionHistory.sol\":4493:4516  transactionInfoArray[i] */\n      dup2\n      sload\n      dup2\n      lt\n      tag_324\n      jumpi\n      tag_325\n      tag_76\n      jump\t// in\n    tag_325:\n    tag_324:\n      swap1\n      0x00\n      mstore\n      keccak256(0x00, 0x20)\n      swap1\n      0x0a\n      mul\n      add\n        /* \"contracts/TransactionHistory.sol\":4477:4516  result[count] = transactionInfoArray[i] */\n      mload(0x40)\n      dup1\n      0x0140\n      add\n      0x40\n      mstore\n      swap1\n      dup2\n      0x00\n      dup3\n      add\n      sload\n      dup2\n      mstore\n      0x20\n      add\n      0x01\n      dup3\n      add\n      dup1\n      sload\n      tag_327\n      swap1\n      tag_105\n      jump\t// in\n    tag_327:\n      dup1\n      0x1f\n      add\n      0x20\n      dup1\n      swap2\n      div\n      mul\n      0x20\n      add\n      mload(0x40)\n      swap1\n      dup2\n      add\n      0x40\n      mstore\n      dup1\n      swap3\n      swap2\n      swap1\n      dup2\n      dup2\n      mstore\n      0x20\n      add\n      dup3\n      dup1\n      sload\n      tag_328\n      swap1\n      tag_105\n      jump\t// in\n    tag_328:\n      dup1\n      iszero\n      tag_329\n      jumpi\n      dup1\n      0x1f\n      lt\n      tag_330\n      jumpi\n      0x0100\n      dup1\n      dup4\n      sload\n      div\n      mul\n      dup4\n      mstore\n      swap2\n      0x20\n      add\n      swap2\n      jump(tag_329)\n    tag_330:\n      dup3\n      add\n      swap2\n      swap1\n      0x00\n      mstore\n      keccak256(0x00, 0x20)\n      swap1\n    tag_331:\n      dup2\n      sload\n      dup2\n      mstore\n      swap1\n      0x01\n      add\n      swap1\n      0x20\n      add\n      dup1\n      dup4\n      gt\n      tag_331\n      jumpi\n      dup3\n      swap1\n      sub\n      0x1f\n      and\n      dup3\n      add\n      swap2\n    tag_329:\n      pop\n      pop\n      pop\n      pop\n      pop\n      dup2\n      mstore\n      0x20\n      add\n      0x02\n      dup3\n      add\n      dup1\n      sload\n      tag_332\n      swap1\n      tag_105\n      jump\t// in\n    tag_332:\n      dup1\n      0x1f\n      add\n      0x20\n      dup1\n      swap2\n      div\n      mul\n      0x20\n      add\n      mload(0x40)\n      swap1\n      dup2\n      add\n      0x40\n      mstore\n      dup1\n      swap3\n      swap2\n      swap1\n      dup2\n      dup2\n      mstore\n      0x20\n      add\n      dup3\n      dup1\n      sload\n      tag_333\n      swap1\n      tag_105\n      jump\t// in\n    tag_333:\n      dup1\n      iszero\n      tag_334\n      jumpi\n      dup1\n      0x1f\n      lt\n      tag_335\n      jumpi\n      0x0100\n      dup1\n      dup4\n      sload\n      div\n      mul\n      dup4\n      mstore\n      swap2\n      0x20\n      add\n      swap2\n      jump(tag_334)\n    tag_335:\n      dup3\n      add\n      swap2\n      swap1\n      0x00\n      mstore\n      keccak256(0x00, 0x20)\n      swap1\n    tag_336:\n      dup2\n      sload\n      dup2\n      mstore\n      swap1\n      0x01\n      add\n      swap1\n      0x20\n      add\n      dup1\n      dup4\n      gt\n      tag_336\n      jumpi\n      dup3\n      swap1\n      sub\n      0x1f\n      and\n      dup3\n      add\n      swap2\n    tag_334:\n      pop\n      pop\n      pop\n      pop\n      pop\n      dup2\n      mstore\n      0x20\n      add\n      0x03\n      dup3\n      add\n      dup1\n      sload\n      tag_337\n      swap1\n      tag_105\n      jump\t// in\n    tag_337:\n      dup1\n      0x1f\n      add\n      0x20\n      dup1\n      swap2\n      div\n      mul\n      0x20\n      add\n      mload(0x40)\n      swap1\n      dup2\n      add\n      0x40\n      mstore\n      dup1\n      swap3\n      swap2\n      swap1\n      dup2\n      dup2\n      mstore\n      0x20\n      add\n      dup3\n      dup1\n      sload\n      tag_338\n      swap1\n      tag_105\n      jump\t// in\n    tag_338:\n      dup1\n      iszero\n      tag_339\n      jumpi\n      dup1\n      0x1f\n      lt\n      tag_340\n      jumpi\n      0x0100\n      dup1\n      dup4\n      sload\n      div\n      mul\n      dup4\n      mstore\n      swap2\n      0x20\n      add\n      swap2\n      jump(tag_339)\n    tag_340:\n      dup3\n      add\n      swap2\n      swap1\n      0x00\n      mstore\n      keccak256(0x00, 0x20)\n      swap1\n    tag_341:\n      dup2\n      sload\n      dup2\n      mstore\n      swap1\n      0x01\n      add\n      swap1\n      0x20\n      add\n      dup1\n      dup4\n      gt\n      tag_341\n      jumpi\n      dup3\n      swap1\n      sub\n      0x1f\n      and\n      dup3\n      add\n      swap2\n    tag_339:\n      pop\n      pop\n      pop\n      pop\n      pop\n      dup2\n      mstore\n      0x20\n      add\n      0x04\n      dup3\n      add\n      0x00\n      swap1\n      sload\n      swap1\n      0x0100\n      exp\n      swap1\n      div\n      0xffffffffffffffffffffffffffffffffffffffff\n      and\n      0xffffffffffffffffffffffffffffffffffffffff\n      and\n      0xffffffffffffffffffffffffffffffffffffffff\n      and\n      dup2\n      mstore\n      0x20\n      add\n      0x05\n      dup3\n      add\n      sload\n      dup2\n      mstore\n      0x20\n      add\n      0x06\n      dup3\n      add\n      0x00\n      swap1\n      sload\n      swap1\n      0x0100\n      exp\n      swap1\n      div\n      0xff\n      and\n      iszero\n      iszero\n      iszero\n      iszero\n      dup2\n      mstore\n      0x20\n      add\n      0x07\n      dup3\n      add\n      dup1\n      sload\n      tag_342\n      swap1\n      tag_105\n      jump\t// in\n    tag_342:\n      dup1\n      0x1f\n      add\n      0x20\n      dup1\n      swap2\n      div\n      mul\n      0x20\n      add\n      mload(0x40)\n      swap1\n      dup2\n      add\n      0x40\n      mstore\n      dup1\n      swap3\n      swap2\n      swap1\n      dup2\n      dup2\n      mstore\n      0x20\n      add\n      dup3\n      dup1\n      sload\n      tag_343\n      swap1\n      tag_105\n      jump\t// in\n    tag_343:\n      dup1\n      iszero\n      tag_344\n      jumpi\n      dup1\n      0x1f\n      lt\n      tag_345\n      jumpi\n      0x0100\n      dup1\n      dup4\n      sload\n      div\n      mul\n      dup4\n      mstore\n      swap2\n      0x20\n      add\n      swap2\n      jump(tag_344)\n    tag_345:\n      dup3\n      add\n      swap2\n      swap1\n      0x00\n      mstore\n      keccak256(0x00, 0x20)\n      swap1\n    tag_346:\n      dup2\n      sload\n      dup2\n      mstore\n      swap1\n      0x01\n      add\n      swap1\n      0x20\n      add\n      dup1\n      dup4\n      gt\n      tag_346\n      jumpi\n      dup3\n      swap1\n      sub\n      0x1f\n      and\n      dup3\n      add\n      swap2\n    tag_344:\n      pop\n      pop\n      pop\n      pop\n      pop\n      dup2\n      mstore\n      0x20\n      add\n      0x08\n      dup3\n      add\n      dup1\n      sload\n      tag_347\n      swap1\n      tag_105\n      jump\t// in\n    tag_347:\n      dup1\n      0x1f\n      add\n      0x20\n      dup1\n      swap2\n      div\n      mul\n      0x20\n      add\n      mload(0x40)\n      swap1\n      dup2\n      add\n      0x40\n      mstore\n      dup1\n      swap3\n      swap2\n      swap1\n      dup2\n      dup2\n      mstore\n      0x20\n      add\n      dup3\n      dup1\n      sload\n      tag_348\n      swap1\n      tag_105\n      jump\t// in\n    tag_348:\n      dup1\n      iszero\n      tag_349\n      jumpi\n      dup1\n      0x1f\n      lt\n      tag_350\n      jumpi\n      0x0100\n      dup1\n      dup4\n      sload\n      div\n      mul\n      dup4\n      mstore\n      swap2\n      0x20\n      add\n      swap2\n      jump(tag_349)\n    tag_350:\n      dup3\n      add\n      swap2\n      swap1\n      0x00\n      mstore\n      keccak256(0x00, 0x20)\n      swap1\n    tag_351:\n      dup2\n      sload\n      dup2\n      mstore\n      swap1\n      0x01\n      add\n      swap1\n      0x20\n      add\n      dup1\n      dup4\n      gt\n      tag_351\n      jumpi\n      dup3\n      swap1\n      sub\n      0x1f\n      and\n      dup3\n      add\n      swap2\n    tag_349:\n      pop\n      pop\n      pop\n      pop\n      pop\n      dup2\n      mstore\n      0x20\n      add\n      0x09\n      dup3\n      add\n      0x00\n      swap1\n      sload\n      swap1\n      0x0100\n      exp\n      swap1\n      div\n      0xff\n      and\n      iszero\n      iszero\n      iszero\n      iszero\n      dup2\n      mstore\n      pop\n      pop\n        /* \"contracts/TransactionHistory.sol\":4477:4483  result */\n      dup3\n        /* \"contracts/TransactionHistory.sol\":4484:4489  count */\n      dup5\n        /* \"contracts/TransactionHistory.sol\":4477:4490  result[count] */\n      dup2\n      mload\n      dup2\n      lt\n      tag_352\n      jumpi\n      tag_353\n      tag_76\n      jump\t// in\n    tag_353:\n    tag_352:\n      0x20\n      mul\n      0x20\n      add\n      add\n        /* \"contracts/TransactionHistory.sol\":4477:4516  result[count] = transactionInfoArray[i] */\n      dup2\n      swap1\n      mstore\n      pop\n        /* \"contracts/TransactionHistory.sol\":4535:4542  count++ */\n      dup3\n      dup1\n      tag_354\n      swap1\n      tag_141\n      jump\t// in\n    tag_354:\n      swap4\n      pop\n      pop\n        /* \"contracts/TransactionHistory.sol\":4283:4558  if (keccak256(abi.encodePacked(transactionInfoArray[i].campaignId)) == keccak256(abi.encodePacked(_campaignId))... */\n    tag_323:\n        /* \"contracts/TransactionHistory.sol\":4263:4266  i++ */\n      dup1\n      dup1\n      0x01\n      add\n      swap2\n      pop\n      pop\n        /* \"contracts/TransactionHistory.sol\":4213:4569  for (uint i = 0; i < transactionInfoArray.length; i++) {... */\n      jump(tag_311)\n    tag_312:\n      pop\n        /* \"contracts/TransactionHistory.sol\":4588:4594  result */\n      dup1\n        /* \"contracts/TransactionHistory.sol\":4581:4594  return result */\n      swap3\n      pop\n      pop\n      pop\n        /* \"contracts/TransactionHistory.sol\":3708:4602  function getTransactionHistoryByCampaignIdAndRefund(string memory _campaignId) external view returns (TransactionInfo[] memory) {... */\n      swap2\n      swap1\n      pop\n      jump\t// out\n        /* \"contracts/TransactionHistory.sol\":4616:5416  function getDonateByUser(string memory _donatorId) external view returns (TransactionInfo[] memory) {... */\n    tag_63:\n        /* \"contracts/TransactionHistory.sol\":4690:4714  TransactionInfo[] memory */\n      0x60\n        /* \"contracts/TransactionHistory.sol\":4727:4737  uint count */\n      0x00\n        /* \"contracts/TransactionHistory.sol\":4757:4763  uint i */\n      dup1\n        /* \"contracts/TransactionHistory.sol\":4752:4986  for (uint i = 0; i < transactionInfoArray.length; i++) {... */\n    tag_356:\n        /* \"contracts/TransactionHistory.sol\":4773:4793  transactionInfoArray */\n      0x02\n        /* \"contracts/TransactionHistory.sol\":4773:4800  transactionInfoArray.length */\n      dup1\n      sload\n      swap1\n      pop\n        /* \"contracts/TransactionHistory.sol\":4769:4770  i */\n      dup2\n        /* \"contracts/TransactionHistory.sol\":4769:4800  i < transactionInfoArray.length */\n      lt\n        /* \"contracts/TransactionHistory.sol\":4752:4986  for (uint i = 0; i < transactionInfoArray.length; i++) {... */\n      iszero\n      tag_357\n      jumpi\n        /* \"contracts/TransactionHistory.sol\":4919:4929  _donatorId */\n      dup4\n        /* \"contracts/TransactionHistory.sol\":4902:4930  abi.encodePacked(_donatorId) */\n      add(0x20, mload(0x40))\n      tag_359\n      swap2\n      swap1\n      tag_81\n      jump\t// in\n    tag_359:\n      mload(0x40)\n      0x20\n      dup2\n      dup4\n      sub\n      sub\n      dup2\n      mstore\n      swap1\n      0x40\n      mstore\n        /* \"contracts/TransactionHistory.sol\":4892:4931  keccak256(abi.encodePacked(_donatorId)) */\n      dup1\n      mload\n      swap1\n      0x20\n      add\n      keccak256\n        /* \"contracts/TransactionHistory.sol\":4853:4873  transactionInfoArray */\n      0x02\n        /* \"contracts/TransactionHistory.sol\":4874:4875  i */\n      dup3\n        /* \"contracts/TransactionHistory.sol\":4853:4876  transactionInfoArray[i] */\n      dup2\n      sload\n      dup2\n      lt\n      tag_360\n      jumpi\n      tag_361\n      tag_76\n      jump\t// in\n    tag_361:\n    tag_360:\n      swap1\n      0x00\n      mstore\n      keccak256(0x00, 0x20)\n      swap1\n      0x0a\n      mul\n      add\n        /* \"contracts/TransactionHistory.sol\":4853:4886  transactionInfoArray[i].donatorId */\n      0x03\n      add\n        /* \"contracts/TransactionHistory.sol\":4836:4887  abi.encodePacked(transactionInfoArray[i].donatorId) */\n      add(0x20, mload(0x40))\n      tag_363\n      swap2\n      swap1\n      tag_86\n      jump\t// in\n    tag_363:\n      mload(0x40)\n      0x20\n      dup2\n      dup4\n      sub\n      sub\n      dup2\n      mstore\n      swap1\n      0x40\n      mstore\n        /* \"contracts/TransactionHistory.sol\":4826:4888  keccak256(abi.encodePacked(transactionInfoArray[i].donatorId)) */\n      dup1\n      mload\n      swap1\n      0x20\n      add\n      keccak256\n        /* \"contracts/TransactionHistory.sol\":4826:4931  keccak256(abi.encodePacked(transactionInfoArray[i].donatorId)) == keccak256(abi.encodePacked(_donatorId)) */\n      sub\n        /* \"contracts/TransactionHistory.sol\":4822:4975  if (keccak256(abi.encodePacked(transactionInfoArray[i].donatorId)) == keccak256(abi.encodePacked(_donatorId))) {... */\n      tag_364\n      jumpi\n        /* \"contracts/TransactionHistory.sol\":4952:4959  count++ */\n      dup2\n      dup1\n      tag_365\n      swap1\n      tag_141\n      jump\t// in\n    tag_365:\n      swap3\n      pop\n      pop\n        /* \"contracts/TransactionHistory.sol\":4822:4975  if (keccak256(abi.encodePacked(transactionInfoArray[i].donatorId)) == keccak256(abi.encodePacked(_donatorId))) {... */\n    tag_364:\n        /* \"contracts/TransactionHistory.sol\":4802:4805  i++ */\n      dup1\n      dup1\n      0x01\n      add\n      swap2\n      pop\n      pop\n        /* \"contracts/TransactionHistory.sol\":4752:4986  for (uint i = 0; i < transactionInfoArray.length; i++) {... */\n      jump(tag_356)\n    tag_357:\n      pop\n        /* \"contracts/TransactionHistory.sol\":4998:5029  TransactionInfo[] memory result */\n      0x00\n        /* \"contracts/TransactionHistory.sol\":5054:5059  count */\n      dup2\n        /* \"contracts/TransactionHistory.sol\":5032:5060  new TransactionInfo[](count) */\n      0xffffffffffffffff\n      dup2\n      gt\n      iszero\n      tag_366\n      jumpi\n      tag_367\n      tag_144\n      jump\t// in\n    tag_367:\n    tag_366:\n      mload(0x40)\n      swap1\n      dup1\n      dup3\n      mstore\n      dup1\n      0x20\n      mul\n      0x20\n      add\n      dup3\n      add\n      0x40\n      mstore\n      dup1\n      iszero\n      tag_368\n      jumpi\n      dup2\n      0x20\n      add\n    tag_369:\n      tag_370\n      tag_94\n      jump\t// in\n    tag_370:\n      dup2\n      mstore\n      0x20\n      add\n      swap1\n      0x01\n      swap1\n      sub\n      swap1\n      dup2\n      tag_369\n      jumpi\n      swap1\n      pop\n    tag_368:\n      pop\n        /* \"contracts/TransactionHistory.sol\":4998:5060  TransactionInfo[] memory result = new TransactionInfo[](count) */\n      swap1\n      pop\n        /* \"contracts/TransactionHistory.sol\":5079:5080  0 */\n      0x00\n        /* \"contracts/TransactionHistory.sol\":5071:5080  count = 0 */\n      swap2\n      pop\n        /* \"contracts/TransactionHistory.sol\":5096:5102  uint i */\n      0x00\n        /* \"contracts/TransactionHistory.sol\":5091:5383  for (uint i = 0; i < transactionInfoArray.length; i++) {... */\n    tag_371:\n        /* \"contracts/TransactionHistory.sol\":5112:5132  transactionInfoArray */\n      0x02\n        /* \"contracts/TransactionHistory.sol\":5112:5139  transactionInfoArray.length */\n      dup1\n      sload\n      swap1\n      pop\n        /* \"contracts/TransactionHistory.sol\":5108:5109  i */\n      dup2\n        /* \"contracts/TransactionHistory.sol\":5108:5139  i < transactionInfoArray.length */\n      lt\n        /* \"contracts/TransactionHistory.sol\":5091:5383  for (uint i = 0; i < transactionInfoArray.length; i++) {... */\n      iszero\n      tag_372\n      jumpi\n        /* \"contracts/TransactionHistory.sol\":5258:5268  _donatorId */\n      dup5\n        /* \"contracts/TransactionHistory.sol\":5241:5269  abi.encodePacked(_donatorId) */\n      add(0x20, mload(0x40))\n      tag_374\n      swap2\n      swap1\n      tag_81\n      jump\t// in\n    tag_374:\n      mload(0x40)\n      0x20\n      dup2\n      dup4\n      sub\n      sub\n      dup2\n      mstore\n      swap1\n      0x40\n      mstore\n        /* \"contracts/TransactionHistory.sol\":5231:5270  keccak256(abi.encodePacked(_donatorId)) */\n      dup1\n      mload\n      swap1\n      0x20\n      add\n      keccak256\n        /* \"contracts/TransactionHistory.sol\":5192:5212  transactionInfoArray */\n      0x02\n        /* \"contracts/TransactionHistory.sol\":5213:5214  i */\n      dup3\n        /* \"contracts/TransactionHistory.sol\":5192:5215  transactionInfoArray[i] */\n      dup2\n      sload\n      dup2\n      lt\n      tag_375\n      jumpi\n      tag_376\n      tag_76\n      jump\t// in\n    tag_376:\n    tag_375:\n      swap1\n      0x00\n      mstore\n      keccak256(0x00, 0x20)\n      swap1\n      0x0a\n      mul\n      add\n        /* \"contracts/TransactionHistory.sol\":5192:5225  transactionInfoArray[i].donatorId */\n      0x03\n      add\n        /* \"contracts/TransactionHistory.sol\":5175:5226  abi.encodePacked(transactionInfoArray[i].donatorId) */\n      add(0x20, mload(0x40))\n      tag_378\n      swap2\n      swap1\n      tag_86\n      jump\t// in\n    tag_378:\n      mload(0x40)\n      0x20\n      dup2\n      dup4\n      sub\n      sub\n      dup2\n      mstore\n      swap1\n      0x40\n      mstore\n        /* \"contracts/TransactionHistory.sol\":5165:5227  keccak256(abi.encodePacked(transactionInfoArray[i].donatorId)) */\n      dup1\n      mload\n      swap1\n      0x20\n      add\n      keccak256\n        /* \"contracts/TransactionHistory.sol\":5165:5270  keccak256(abi.encodePacked(transactionInfoArray[i].donatorId)) == keccak256(abi.encodePacked(_donatorId)) */\n      sub\n        /* \"contracts/TransactionHistory.sol\":5161:5372  if (keccak256(abi.encodePacked(transactionInfoArray[i].donatorId)) == keccak256(abi.encodePacked(_donatorId))) {... */\n      tag_379\n      jumpi\n        /* \"contracts/TransactionHistory.sol\":5307:5327  transactionInfoArray */\n      0x02\n        /* \"contracts/TransactionHistory.sol\":5328:5329  i */\n      dup2\n        /* \"contracts/TransactionHistory.sol\":5307:5330  transactionInfoArray[i] */\n      dup2\n      sload\n      dup2\n      lt\n      tag_380\n      jumpi\n      tag_381\n      tag_76\n      jump\t// in\n    tag_381:\n    tag_380:\n      swap1\n      0x00\n      mstore\n      keccak256(0x00, 0x20)\n      swap1\n      0x0a\n      mul\n      add\n        /* \"contracts/TransactionHistory.sol\":5291:5330  result[count] = transactionInfoArray[i] */\n      mload(0x40)\n      dup1\n      0x0140\n      add\n      0x40\n      mstore\n      swap1\n      dup2\n      0x00\n      dup3\n      add\n      sload\n      dup2\n      mstore\n      0x20\n      add\n      0x01\n      dup3\n      add\n      dup1\n      sload\n      tag_383\n      swap1\n      tag_105\n      jump\t// in\n    tag_383:\n      dup1\n      0x1f\n      add\n      0x20\n      dup1\n      swap2\n      div\n      mul\n      0x20\n      add\n      mload(0x40)\n      swap1\n      dup2\n      add\n      0x40\n      mstore\n      dup1\n      swap3\n      swap2\n      swap1\n      dup2\n      dup2\n      mstore\n      0x20\n      add\n      dup3\n      dup1\n      sload\n      tag_384\n      swap1\n      tag_105\n      jump\t// in\n    tag_384:\n      dup1\n      iszero\n      tag_385\n      jumpi\n      dup1\n      0x1f\n      lt\n      tag_386\n      jumpi\n      0x0100\n      dup1\n      dup4\n      sload\n      div\n      mul\n      dup4\n      mstore\n      swap2\n      0x20\n      add\n      swap2\n      jump(tag_385)\n    tag_386:\n      dup3\n      add\n      swap2\n      swap1\n      0x00\n      mstore\n      keccak256(0x00, 0x20)\n      swap1\n    tag_387:\n      dup2\n      sload\n      dup2\n      mstore\n      swap1\n      0x01\n      add\n      swap1\n      0x20\n      add\n      dup1\n      dup4\n      gt\n      tag_387\n      jumpi\n      dup3\n      swap1\n      sub\n      0x1f\n      and\n      dup3\n      add\n      swap2\n    tag_385:\n      pop\n      pop\n      pop\n      pop\n      pop\n      dup2\n      mstore\n      0x20\n      add\n      0x02\n      dup3\n      add\n      dup1\n      sload\n      tag_388\n      swap1\n      tag_105\n      jump\t// in\n    tag_388:\n      dup1\n      0x1f\n      add\n      0x20\n      dup1\n      swap2\n      div\n      mul\n      0x20\n      add\n      mload(0x40)\n      swap1\n      dup2\n      add\n      0x40\n      mstore\n      dup1\n      swap3\n      swap2\n      swap1\n      dup2\n      dup2\n      mstore\n      0x20\n      add\n      dup3\n      dup1\n      sload\n      tag_389\n      swap1\n      tag_105\n      jump\t// in\n    tag_389:\n      dup1\n      iszero\n      tag_390\n      jumpi\n      dup1\n      0x1f\n      lt\n      tag_391\n      jumpi\n      0x0100\n      dup1\n      dup4\n      sload\n      div\n      mul\n      dup4\n      mstore\n      swap2\n      0x20\n      add\n      swap2\n      jump(tag_390)\n    tag_391:\n      dup3\n      add\n      swap2\n      swap1\n      0x00\n      mstore\n      keccak256(0x00, 0x20)\n      swap1\n    tag_392:\n      dup2\n      sload\n      dup2\n      mstore\n      swap1\n      0x01\n      add\n      swap1\n      0x20\n      add\n      dup1\n      dup4\n      gt\n      tag_392\n      jumpi\n      dup3\n      swap1\n      sub\n      0x1f\n      and\n      dup3\n      add\n      swap2\n    tag_390:\n      pop\n      pop\n      pop\n      pop\n      pop\n      dup2\n      mstore\n      0x20\n      add\n      0x03\n      dup3\n      add\n      dup1\n      sload\n      tag_393\n      swap1\n      tag_105\n      jump\t// in\n    tag_393:\n      dup1\n      0x1f\n      add\n      0x20\n      dup1\n      swap2\n      div\n      mul\n      0x20\n      add\n      mload(0x40)\n      swap1\n      dup2\n      add\n      0x40\n      mstore\n      dup1\n      swap3\n      swap2\n      swap1\n      dup2\n      dup2\n      mstore\n      0x20\n      add\n      dup3\n      dup1\n      sload\n      tag_394\n      swap1\n      tag_105\n      jump\t// in\n    tag_394:\n      dup1\n      iszero\n      tag_395\n      jumpi\n      dup1\n      0x1f\n      lt\n      tag_396\n      jumpi\n      0x0100\n      dup1\n      dup4\n      sload\n      div\n      mul\n      dup4\n      mstore\n      swap2\n      0x20\n      add\n      swap2\n      jump(tag_395)\n    tag_396:\n      dup3\n      add\n      swap2\n      swap1\n      0x00\n      mstore\n      keccak256(0x00, 0x20)\n      swap1\n    tag_397:\n      dup2\n      sload\n      dup2\n      mstore\n      swap1\n      0x01\n      add\n      swap1\n      0x20\n      add\n      dup1\n      dup4\n      gt\n      tag_397\n      jumpi\n      dup3\n      swap1\n      sub\n      0x1f\n      and\n      dup3\n      add\n      swap2\n    tag_395:\n      pop\n      pop\n      pop\n      pop\n      pop\n      dup2\n      mstore\n      0x20\n      add\n      0x04\n      dup3\n      add\n      0x00\n      swap1\n      sload\n      swap1\n      0x0100\n      exp\n      swap1\n      div\n      0xffffffffffffffffffffffffffffffffffffffff\n      and\n      0xffffffffffffffffffffffffffffffffffffffff\n      and\n      0xffffffffffffffffffffffffffffffffffffffff\n      and\n      dup2\n      mstore\n      0x20\n      add\n      0x05\n      dup3\n      add\n      sload\n      dup2\n      mstore\n      0x20\n      add\n      0x06\n      dup3\n      add\n      0x00\n      swap1\n      sload\n      swap1\n      0x0100\n      exp\n      swap1\n      div\n      0xff\n      and\n      iszero\n      iszero\n      iszero\n      iszero\n      dup2\n      mstore\n      0x20\n      add\n      0x07\n      dup3\n      add\n      dup1\n      sload\n      tag_398\n      swap1\n      tag_105\n      jump\t// in\n    tag_398:\n      dup1\n      0x1f\n      add\n      0x20\n      dup1\n      swap2\n      div\n      mul\n      0x20\n      add\n      mload(0x40)\n      swap1\n      dup2\n      add\n      0x40\n      mstore\n      dup1\n      swap3\n      swap2\n      swap1\n      dup2\n      dup2\n      mstore\n      0x20\n      add\n      dup3\n      dup1\n      sload\n      tag_399\n      swap1\n      tag_105\n      jump\t// in\n    tag_399:\n      dup1\n      iszero\n      tag_400\n      jumpi\n      dup1\n      0x1f\n      lt\n      tag_401\n      jumpi\n      0x0100\n      dup1\n      dup4\n      sload\n      div\n      mul\n      dup4\n      mstore\n      swap2\n      0x20\n      add\n      swap2\n      jump(tag_400)\n    tag_401:\n      dup3\n      add\n      swap2\n      swap1\n      0x00\n      mstore\n      keccak256(0x00, 0x20)\n      swap1\n    tag_402:\n      dup2\n      sload\n      dup2\n      mstore\n      swap1\n      0x01\n      add\n      swap1\n      0x20\n      add\n      dup1\n      dup4\n      gt\n      tag_402\n      jumpi\n      dup3\n      swap1\n      sub\n      0x1f\n      and\n      dup3\n      add\n      swap2\n    tag_400:\n      pop\n      pop\n      pop\n      pop\n      pop\n      dup2\n      mstore\n      0x20\n      add\n      0x08\n      dup3\n      add\n      dup1\n      sload\n      tag_403\n      swap1\n      tag_105\n      jump\t// in\n    tag_403:\n      dup1\n      0x1f\n      add\n      0x20\n      dup1\n      swap2\n      div\n      mul\n      0x20\n      add\n      mload(0x40)\n      swap1\n      dup2\n      add\n      0x40\n      mstore\n      dup1\n      swap3\n      swap2\n      swap1\n      dup2\n      dup2\n      mstore\n      0x20\n      add\n      dup3\n      dup1\n      sload\n      tag_404\n      swap1\n      tag_105\n      jump\t// in\n    tag_404:\n      dup1\n      iszero\n      tag_405\n      jumpi\n      dup1\n      0x1f\n      lt\n      tag_406\n      jumpi\n      0x0100\n      dup1\n      dup4\n      sload\n      div\n      mul\n      dup4\n      mstore\n      swap2\n      0x20\n      add\n      swap2\n      jump(tag_405)\n    tag_406:\n      dup3\n      add\n      swap2\n      swap1\n      0x00\n      mstore\n      keccak256(0x00, 0x20)\n      swap1\n    tag_407:\n      dup2\n      sload\n      dup2\n      mstore\n      swap1\n      0x01\n      add\n      swap1\n      0x20\n      add\n      dup1\n      dup4\n      gt\n      tag_407\n      jumpi\n      dup3\n      swap1\n      sub\n      0x1f\n      and\n      dup3\n      add\n      swap2\n    tag_405:\n      pop\n      pop\n      pop\n      pop\n      pop\n      dup2\n      mstore\n      0x20\n      add\n      0x09\n      dup3\n      add\n      0x00\n      swap1\n      sload\n      swap1\n      0x0100\n      exp\n      swap1\n      div\n      0xff\n      and\n      iszero\n      iszero\n      iszero\n      iszero\n      dup2\n      mstore\n      pop\n      pop\n        /* \"contracts/TransactionHistory.sol\":5291:5297  result */\n      dup3\n        /* \"contracts/TransactionHistory.sol\":5298:5303  count */\n      dup5\n        /* \"contracts/TransactionHistory.sol\":5291:5304  result[count] */\n      dup2\n      mload\n      dup2\n      lt\n      tag_408\n      jumpi\n      tag_409\n      tag_76\n      jump\t// in\n    tag_409:\n    tag_408:\n      0x20\n      mul\n      0x20\n      add\n      add\n        /* \"contracts/TransactionHistory.sol\":5291:5330  result[count] = transactionInfoArray[i] */\n      dup2\n      swap1\n      mstore\n      pop\n        /* \"contracts/TransactionHistory.sol\":5349:5356  count++ */\n      dup3\n      dup1\n      tag_410\n      swap1\n      tag_141\n      jump\t// in\n    tag_410:\n      swap4\n      pop\n      pop\n        /* \"contracts/TransactionHistory.sol\":5161:5372  if (keccak256(abi.encodePacked(transactionInfoArray[i].donatorId)) == keccak256(abi.encodePacked(_donatorId))) {... */\n    tag_379:\n        /* \"contracts/TransactionHistory.sol\":5141:5144  i++ */\n      dup1\n      dup1\n      0x01\n      add\n      swap2\n      pop\n      pop\n        /* \"contracts/TransactionHistory.sol\":5091:5383  for (uint i = 0; i < transactionInfoArray.length; i++) {... */\n      jump(tag_371)\n    tag_372:\n      pop\n        /* \"contracts/TransactionHistory.sol\":5402:5408  result */\n      dup1\n        /* \"contracts/TransactionHistory.sol\":5395:5408  return result */\n      swap3\n      pop\n      pop\n      pop\n        /* \"contracts/TransactionHistory.sol\":4616:5416  function getDonateByUser(string memory _donatorId) external view returns (TransactionInfo[] memory) {... */\n      swap2\n      swap1\n      pop\n      jump\t// out\n        /* \"contracts/TransactionHistory.sol\":103:133  address public deployerAddress */\n    tag_66:\n      0x00\n      dup1\n      sload\n      swap1\n      0x0100\n      exp\n      swap1\n      div\n      0xffffffffffffffffffffffffffffffffffffffff\n      and\n      dup2\n      jump\t// out\n    tag_94:\n      mload(0x40)\n      dup1\n      0x0140\n      add\n      0x40\n      mstore\n      dup1\n      0x00\n      dup2\n      mstore\n      0x20\n      add\n      0x60\n      dup2\n      mstore\n      0x20\n      add\n      0x60\n      dup2\n      mstore\n      0x20\n      add\n      0x60\n      dup2\n      mstore\n      0x20\n      add\n      and(0xffffffffffffffffffffffffffffffffffffffff, 0x00)\n      dup2\n      mstore\n      0x20\n      add\n      0x00\n      dup2\n      mstore\n      0x20\n      add\n      iszero(iszero(0x00))\n      dup2\n      mstore\n      0x20\n      add\n      0x60\n      dup2\n      mstore\n      0x20\n      add\n      0x60\n      dup2\n      mstore\n      0x20\n      add\n      iszero(iszero(0x00))\n      dup2\n      mstore\n      pop\n      swap1\n      jump\t// out\n        /* \"#utility.yul\":7:82   */\n    tag_411:\n        /* \"#utility.yul\":40:46   */\n      0x00\n        /* \"#utility.yul\":73:75   */\n      0x40\n        /* \"#utility.yul\":67:76   */\n      mload\n        /* \"#utility.yul\":57:76   */\n      swap1\n      pop\n        /* \"#utility.yul\":7:82   */\n      swap1\n      jump\t// out\n        /* \"#utility.yul\":88:205   */\n    tag_412:\n        /* \"#utility.yul\":197:198   */\n      0x00\n        /* \"#utility.yul\":194:195   */\n      dup1\n        /* \"#utility.yul\":187:199   */\n      revert\n        /* \"#utility.yul\":211:328   */\n    tag_413:\n        /* \"#utility.yul\":320:321   */\n      0x00\n        /* \"#utility.yul\":317:318   */\n      dup1\n        /* \"#utility.yul\":310:322   */\n      revert\n        /* \"#utility.yul\":334:460   */\n    tag_414:\n        /* \"#utility.yul\":371:378   */\n      0x00\n        /* \"#utility.yul\":411:453   */\n      0xffffffffffffffffffffffffffffffffffffffff\n        /* \"#utility.yul\":404:409   */\n      dup3\n        /* \"#utility.yul\":400:454   */\n      and\n        /* \"#utility.yul\":389:454   */\n      swap1\n      pop\n        /* \"#utility.yul\":334:460   */\n      swap2\n      swap1\n      pop\n      jump\t// out\n        /* \"#utility.yul\":466:562   */\n    tag_415:\n        /* \"#utility.yul\":503:510   */\n      0x00\n        /* \"#utility.yul\":532:556   */\n      tag_486\n        /* \"#utility.yul\":550:555   */\n      dup3\n        /* \"#utility.yul\":532:556   */\n      tag_414\n      jump\t// in\n    tag_486:\n        /* \"#utility.yul\":521:556   */\n      swap1\n      pop\n        /* \"#utility.yul\":466:562   */\n      swap2\n      swap1\n      pop\n      jump\t// out\n        /* \"#utility.yul\":568:690   */\n    tag_416:\n        /* \"#utility.yul\":641:665   */\n      tag_488\n        /* \"#utility.yul\":659:664   */\n      dup2\n        /* \"#utility.yul\":641:665   */\n      tag_415\n      jump\t// in\n    tag_488:\n        /* \"#utility.yul\":634:639   */\n      dup2\n        /* \"#utility.yul\":631:666   */\n      eq\n        /* \"#utility.yul\":621:684   */\n      tag_489\n      jumpi\n        /* \"#utility.yul\":680:681   */\n      0x00\n        /* \"#utility.yul\":677:678   */\n      dup1\n        /* \"#utility.yul\":670:682   */\n      revert\n        /* \"#utility.yul\":621:684   */\n    tag_489:\n        /* \"#utility.yul\":568:690   */\n      pop\n      jump\t// out\n        /* \"#utility.yul\":696:835   */\n    tag_417:\n        /* \"#utility.yul\":742:747   */\n      0x00\n        /* \"#utility.yul\":780:786   */\n      dup2\n        /* \"#utility.yul\":767:787   */\n      calldataload\n        /* \"#utility.yul\":758:787   */\n      swap1\n      pop\n        /* \"#utility.yul\":796:829   */\n      tag_491\n        /* \"#utility.yul\":823:828   */\n      dup2\n        /* \"#utility.yul\":796:829   */\n      tag_416\n      jump\t// in\n    tag_491:\n        /* \"#utility.yul\":696:835   */\n      swap3\n      swap2\n      pop\n      pop\n      jump\t// out\n        /* \"#utility.yul\":841:958   */\n    tag_418:\n        /* \"#utility.yul\":950:951   */\n      0x00\n        /* \"#utility.yul\":947:948   */\n      dup1\n        /* \"#utility.yul\":940:952   */\n      revert\n        /* \"#utility.yul\":964:1081   */\n    tag_419:\n        /* \"#utility.yul\":1073:1074   */\n      0x00\n        /* \"#utility.yul\":1070:1071   */\n      dup1\n        /* \"#utility.yul\":1063:1075   */\n      revert\n        /* \"#utility.yul\":1087:1189   */\n    tag_420:\n        /* \"#utility.yul\":1128:1134   */\n      0x00\n        /* \"#utility.yul\":1179:1181   */\n      0x1f\n        /* \"#utility.yul\":1175:1182   */\n      not\n        /* \"#utility.yul\":1170:1172   */\n      0x1f\n        /* \"#utility.yul\":1163:1168   */\n      dup4\n        /* \"#utility.yul\":1159:1173   */\n      add\n        /* \"#utility.yul\":1155:1183   */\n      and\n        /* \"#utility.yul\":1145:1183   */\n      swap1\n      pop\n        /* \"#utility.yul\":1087:1189   */\n      swap2\n      swap1\n      pop\n      jump\t// out\n        /* \"#utility.yul\":1195:1375   */\n    tag_144:\n        /* \"#utility.yul\":1243:1320   */\n      0x4e487b7100000000000000000000000000000000000000000000000000000000\n        /* \"#utility.yul\":1240:1241   */\n      0x00\n        /* \"#utility.yul\":1233:1321   */\n      mstore\n        /* \"#utility.yul\":1340:1344   */\n      0x41\n        /* \"#utility.yul\":1337:1338   */\n      0x04\n        /* \"#utility.yul\":1330:1345   */\n      mstore\n        /* \"#utility.yul\":1364:1368   */\n      0x24\n        /* \"#utility.yul\":1361:1362   */\n      0x00\n        /* \"#utility.yul\":1354:1369   */\n      revert\n        /* \"#utility.yul\":1381:1662   */\n    tag_421:\n        /* \"#utility.yul\":1464:1491   */\n      tag_497\n        /* \"#utility.yul\":1486:1490   */\n      dup3\n        /* \"#utility.yul\":1464:1491   */\n      tag_420\n      jump\t// in\n    tag_497:\n        /* \"#utility.yul\":1456:1462   */\n      dup2\n        /* \"#utility.yul\":1452:1492   */\n      add\n        /* \"#utility.yul\":1594:1600   */\n      dup2\n        /* \"#utility.yul\":1582:1592   */\n      dup2\n        /* \"#utility.yul\":1579:1601   */\n      lt\n        /* \"#utility.yul\":1558:1576   */\n      0xffffffffffffffff\n        /* \"#utility.yul\":1546:1556   */\n      dup3\n        /* \"#utility.yul\":1543:1577   */\n      gt\n        /* \"#utility.yul\":1540:1602   */\n      or\n        /* \"#utility.yul\":1537:1625   */\n      iszero\n      tag_498\n      jumpi\n        /* \"#utility.yul\":1605:1623   */\n      tag_499\n      tag_144\n      jump\t// in\n    tag_499:\n        /* \"#utility.yul\":1537:1625   */\n    tag_498:\n        /* \"#utility.yul\":1645:1655   */\n      dup1\n        /* \"#utility.yul\":1641:1643   */\n      0x40\n        /* \"#utility.yul\":1634:1656   */\n      mstore\n        /* \"#utility.yul\":1424:1662   */\n      pop\n        /* \"#utility.yul\":1381:1662   */\n      pop\n      pop\n      jump\t// out\n        /* \"#utility.yul\":1668:1797   */\n    tag_422:\n        /* \"#utility.yul\":1702:1708   */\n      0x00\n        /* \"#utility.yul\":1729:1749   */\n      tag_501\n      tag_411\n      jump\t// in\n    tag_501:\n        /* \"#utility.yul\":1719:1749   */\n      swap1\n      pop\n        /* \"#utility.yul\":1758:1791   */\n      tag_502\n        /* \"#utility.yul\":1786:1790   */\n      dup3\n        /* \"#utility.yul\":1778:1784   */\n      dup3\n        /* \"#utility.yul\":1758:1791   */\n      tag_421\n      jump\t// in\n    tag_502:\n        /* \"#utility.yul\":1668:1797   */\n      swap2\n      swap1\n      pop\n      jump\t// out\n        /* \"#utility.yul\":1803:2111   */\n    tag_423:\n        /* \"#utility.yul\":1865:1869   */\n      0x00\n        /* \"#utility.yul\":1955:1973   */\n      0xffffffffffffffff\n        /* \"#utility.yul\":1947:1953   */\n      dup3\n        /* \"#utility.yul\":1944:1974   */\n      gt\n        /* \"#utility.yul\":1941:1997   */\n      iszero\n      tag_504\n      jumpi\n        /* \"#utility.yul\":1977:1995   */\n      tag_505\n      tag_144\n      jump\t// in\n    tag_505:\n        /* \"#utility.yul\":1941:1997   */\n    tag_504:\n        /* \"#utility.yul\":2015:2044   */\n      tag_506\n        /* \"#utility.yul\":2037:2043   */\n      dup3\n        /* \"#utility.yul\":2015:2044   */\n      tag_420\n      jump\t// in\n    tag_506:\n        /* \"#utility.yul\":2007:2044   */\n      swap1\n      pop\n        /* \"#utility.yul\":2099:2103   */\n      0x20\n        /* \"#utility.yul\":2093:2097   */\n      dup2\n        /* \"#utility.yul\":2089:2104   */\n      add\n        /* \"#utility.yul\":2081:2104   */\n      swap1\n      pop\n        /* \"#utility.yul\":1803:2111   */\n      swap2\n      swap1\n      pop\n      jump\t// out\n        /* \"#utility.yul\":2117:2263   */\n    tag_424:\n        /* \"#utility.yul\":2214:2220   */\n      dup3\n        /* \"#utility.yul\":2209:2212   */\n      dup2\n        /* \"#utility.yul\":2204:2207   */\n      dup4\n        /* \"#utility.yul\":2191:2221   */\n      calldatacopy\n        /* \"#utility.yul\":2255:2256   */\n      0x00\n        /* \"#utility.yul\":2246:2252   */\n      dup4\n        /* \"#utility.yul\":2241:2244   */\n      dup4\n        /* \"#utility.yul\":2237:2253   */\n      add\n        /* \"#utility.yul\":2230:2257   */\n      mstore\n        /* \"#utility.yul\":2117:2263   */\n      pop\n      pop\n      pop\n      jump\t// out\n        /* \"#utility.yul\":2269:2694   */\n    tag_425:\n        /* \"#utility.yul\":2347:2352   */\n      0x00\n        /* \"#utility.yul\":2372:2438   */\n      tag_509\n        /* \"#utility.yul\":2388:2437   */\n      tag_510\n        /* \"#utility.yul\":2430:2436   */\n      dup5\n        /* \"#utility.yul\":2388:2437   */\n      tag_423\n      jump\t// in\n    tag_510:\n        /* \"#utility.yul\":2372:2438   */\n      tag_422\n      jump\t// in\n    tag_509:\n        /* \"#utility.yul\":2363:2438   */\n      swap1\n      pop\n        /* \"#utility.yul\":2461:2467   */\n      dup3\n        /* \"#utility.yul\":2454:2459   */\n      dup2\n        /* \"#utility.yul\":2447:2468   */\n      mstore\n        /* \"#utility.yul\":2499:2503   */\n      0x20\n        /* \"#utility.yul\":2492:2497   */\n      dup2\n        /* \"#utility.yul\":2488:2504   */\n      add\n        /* \"#utility.yul\":2537:2540   */\n      dup5\n        /* \"#utility.yul\":2528:2534   */\n      dup5\n        /* \"#utility.yul\":2523:2526   */\n      dup5\n        /* \"#utility.yul\":2519:2535   */\n      add\n        /* \"#utility.yul\":2516:2541   */\n      gt\n        /* \"#utility.yul\":2513:2625   */\n      iszero\n      tag_511\n      jumpi\n        /* \"#utility.yul\":2544:2623   */\n      tag_512\n      tag_419\n      jump\t// in\n    tag_512:\n        /* \"#utility.yul\":2513:2625   */\n    tag_511:\n        /* \"#utility.yul\":2634:2688   */\n      tag_513\n        /* \"#utility.yul\":2681:2687   */\n      dup5\n        /* \"#utility.yul\":2676:2679   */\n      dup3\n        /* \"#utility.yul\":2671:2674   */\n      dup6\n        /* \"#utility.yul\":2634:2688   */\n      tag_424\n      jump\t// in\n    tag_513:\n        /* \"#utility.yul\":2353:2694   */\n      pop\n        /* \"#utility.yul\":2269:2694   */\n      swap4\n      swap3\n      pop\n      pop\n      pop\n      jump\t// out\n        /* \"#utility.yul\":2714:3054   */\n    tag_426:\n        /* \"#utility.yul\":2770:2775   */\n      0x00\n        /* \"#utility.yul\":2819:2822   */\n      dup3\n        /* \"#utility.yul\":2812:2816   */\n      0x1f\n        /* \"#utility.yul\":2804:2810   */\n      dup4\n        /* \"#utility.yul\":2800:2817   */\n      add\n        /* \"#utility.yul\":2796:2823   */\n      slt\n        /* \"#utility.yul\":2786:2908   */\n      tag_515\n      jumpi\n        /* \"#utility.yul\":2827:2906   */\n      tag_516\n      tag_418\n      jump\t// in\n    tag_516:\n        /* \"#utility.yul\":2786:2908   */\n    tag_515:\n        /* \"#utility.yul\":2944:2950   */\n      dup2\n        /* \"#utility.yul\":2931:2951   */\n      calldataload\n        /* \"#utility.yul\":2969:3048   */\n      tag_517\n        /* \"#utility.yul\":3044:3047   */\n      dup5\n        /* \"#utility.yul\":3036:3042   */\n      dup3\n        /* \"#utility.yul\":3029:3033   */\n      0x20\n        /* \"#utility.yul\":3021:3027   */\n      dup7\n        /* \"#utility.yul\":3017:3034   */\n      add\n        /* \"#utility.yul\":2969:3048   */\n      tag_425\n      jump\t// in\n    tag_517:\n        /* \"#utility.yul\":2960:3048   */\n      swap2\n      pop\n        /* \"#utility.yul\":2776:3054   */\n      pop\n        /* \"#utility.yul\":2714:3054   */\n      swap3\n      swap2\n      pop\n      pop\n      jump\t// out\n        /* \"#utility.yul\":3060:3714   */\n    tag_18:\n        /* \"#utility.yul\":3138:3144   */\n      0x00\n        /* \"#utility.yul\":3146:3152   */\n      dup1\n        /* \"#utility.yul\":3195:3197   */\n      0x40\n        /* \"#utility.yul\":3183:3192   */\n      dup4\n        /* \"#utility.yul\":3174:3181   */\n      dup6\n        /* \"#utility.yul\":3170:3193   */\n      sub\n        /* \"#utility.yul\":3166:3198   */\n      slt\n        /* \"#utility.yul\":3163:3282   */\n      iszero\n      tag_519\n      jumpi\n        /* \"#utility.yul\":3201:3280   */\n      tag_520\n      tag_412\n      jump\t// in\n    tag_520:\n        /* \"#utility.yul\":3163:3282   */\n    tag_519:\n        /* \"#utility.yul\":3321:3322   */\n      0x00\n        /* \"#utility.yul\":3346:3399   */\n      tag_521\n        /* \"#utility.yul\":3391:3398   */\n      dup6\n        /* \"#utility.yul\":3382:3388   */\n      dup3\n        /* \"#utility.yul\":3371:3380   */\n      dup7\n        /* \"#utility.yul\":3367:3389   */\n      add\n        /* \"#utility.yul\":3346:3399   */\n      tag_417\n      jump\t// in\n    tag_521:\n        /* \"#utility.yul\":3336:3399   */\n      swap3\n      pop\n        /* \"#utility.yul\":3292:3409   */\n      pop\n        /* \"#utility.yul\":3476:3478   */\n      0x20\n        /* \"#utility.yul\":3465:3474   */\n      dup4\n        /* \"#utility.yul\":3461:3479   */\n      add\n        /* \"#utility.yul\":3448:3480   */\n      calldataload\n        /* \"#utility.yul\":3507:3525   */\n      0xffffffffffffffff\n        /* \"#utility.yul\":3499:3505   */\n      dup2\n        /* \"#utility.yul\":3496:3526   */\n      gt\n        /* \"#utility.yul\":3493:3610   */\n      iszero\n      tag_522\n      jumpi\n        /* \"#utility.yul\":3529:3608   */\n      tag_523\n      tag_413\n      jump\t// in\n    tag_523:\n        /* \"#utility.yul\":3493:3610   */\n    tag_522:\n        /* \"#utility.yul\":3634:3697   */\n      tag_524\n        /* \"#utility.yul\":3689:3696   */\n      dup6\n        /* \"#utility.yul\":3680:3686   */\n      dup3\n        /* \"#utility.yul\":3669:3678   */\n      dup7\n        /* \"#utility.yul\":3665:3687   */\n      add\n        /* \"#utility.yul\":3634:3697   */\n      tag_426\n      jump\t// in\n    tag_524:\n        /* \"#utility.yul\":3624:3697   */\n      swap2\n      pop\n        /* \"#utility.yul\":3419:3707   */\n      pop\n        /* \"#utility.yul\":3060:3714   */\n      swap3\n      pop\n      swap3\n      swap1\n      pop\n      jump\t// out\n        /* \"#utility.yul\":3720:3810   */\n    tag_427:\n        /* \"#utility.yul\":3754:3761   */\n      0x00\n        /* \"#utility.yul\":3797:3802   */\n      dup2\n        /* \"#utility.yul\":3790:3803   */\n      iszero\n        /* \"#utility.yul\":3783:3804   */\n      iszero\n        /* \"#utility.yul\":3772:3804   */\n      swap1\n      pop\n        /* \"#utility.yul\":3720:3810   */\n      swap2\n      swap1\n      pop\n      jump\t// out\n        /* \"#utility.yul\":3816:3925   */\n    tag_428:\n        /* \"#utility.yul\":3897:3918   */\n      tag_527\n        /* \"#utility.yul\":3912:3917   */\n      dup2\n        /* \"#utility.yul\":3897:3918   */\n      tag_427\n      jump\t// in\n    tag_527:\n        /* \"#utility.yul\":3892:3895   */\n      dup3\n        /* \"#utility.yul\":3885:3919   */\n      mstore\n        /* \"#utility.yul\":3816:3925   */\n      pop\n      pop\n      jump\t// out\n        /* \"#utility.yul\":3931:4141   */\n    tag_21:\n        /* \"#utility.yul\":4018:4022   */\n      0x00\n        /* \"#utility.yul\":4056:4058   */\n      0x20\n        /* \"#utility.yul\":4045:4054   */\n      dup3\n        /* \"#utility.yul\":4041:4059   */\n      add\n        /* \"#utility.yul\":4033:4059   */\n      swap1\n      pop\n        /* \"#utility.yul\":4069:4134   */\n      tag_529\n        /* \"#utility.yul\":4131:4132   */\n      0x00\n        /* \"#utility.yul\":4120:4129   */\n      dup4\n        /* \"#utility.yul\":4116:4133   */\n      add\n        /* \"#utility.yul\":4107:4113   */\n      dup5\n        /* \"#utility.yul\":4069:4134   */\n      tag_428\n      jump\t// in\n    tag_529:\n        /* \"#utility.yul\":3931:4141   */\n      swap3\n      swap2\n      pop\n      pop\n      jump\t// out\n        /* \"#utility.yul\":4147:4224   */\n    tag_429:\n        /* \"#utility.yul\":4184:4191   */\n      0x00\n        /* \"#utility.yul\":4213:4218   */\n      dup2\n        /* \"#utility.yul\":4202:4218   */\n      swap1\n      pop\n        /* \"#utility.yul\":4147:4224   */\n      swap2\n      swap1\n      pop\n      jump\t// out\n        /* \"#utility.yul\":4230:4352   */\n    tag_430:\n        /* \"#utility.yul\":4303:4327   */\n      tag_532\n        /* \"#utility.yul\":4321:4326   */\n      dup2\n        /* \"#utility.yul\":4303:4327   */\n      tag_429\n      jump\t// in\n    tag_532:\n        /* \"#utility.yul\":4296:4301   */\n      dup2\n        /* \"#utility.yul\":4293:4328   */\n      eq\n        /* \"#utility.yul\":4283:4346   */\n      tag_533\n      jumpi\n        /* \"#utility.yul\":4342:4343   */\n      0x00\n        /* \"#utility.yul\":4339:4340   */\n      dup1\n        /* \"#utility.yul\":4332:4344   */\n      revert\n        /* \"#utility.yul\":4283:4346   */\n    tag_533:\n        /* \"#utility.yul\":4230:4352   */\n      pop\n      jump\t// out\n        /* \"#utility.yul\":4358:4497   */\n    tag_431:\n        /* \"#utility.yul\":4404:4409   */\n      0x00\n        /* \"#utility.yul\":4442:4448   */\n      dup2\n        /* \"#utility.yul\":4429:4449   */\n      calldataload\n        /* \"#utility.yul\":4420:4449   */\n      swap1\n      pop\n        /* \"#utility.yul\":4458:4491   */\n      tag_535\n        /* \"#utility.yul\":4485:4490   */\n      dup2\n        /* \"#utility.yul\":4458:4491   */\n      tag_430\n      jump\t// in\n    tag_535:\n        /* \"#utility.yul\":4358:4497   */\n      swap3\n      swap2\n      pop\n      pop\n      jump\t// out\n        /* \"#utility.yul\":4503:4619   */\n    tag_432:\n        /* \"#utility.yul\":4573:4594   */\n      tag_537\n        /* \"#utility.yul\":4588:4593   */\n      dup2\n        /* \"#utility.yul\":4573:4594   */\n      tag_427\n      jump\t// in\n    tag_537:\n        /* \"#utility.yul\":4566:4571   */\n      dup2\n        /* \"#utility.yul\":4563:4595   */\n      eq\n        /* \"#utility.yul\":4553:4613   */\n      tag_538\n      jumpi\n        /* \"#utility.yul\":4609:4610   */\n      0x00\n        /* \"#utility.yul\":4606:4607   */\n      dup1\n        /* \"#utility.yul\":4599:4611   */\n      revert\n        /* \"#utility.yul\":4553:4613   */\n    tag_538:\n        /* \"#utility.yul\":4503:4619   */\n      pop\n      jump\t// out\n        /* \"#utility.yul\":4625:4758   */\n    tag_433:\n        /* \"#utility.yul\":4668:4673   */\n      0x00\n        /* \"#utility.yul\":4706:4712   */\n      dup2\n        /* \"#utility.yul\":4693:4713   */\n      calldataload\n        /* \"#utility.yul\":4684:4713   */\n      swap1\n      pop\n        /* \"#utility.yul\":4722:4752   */\n      tag_540\n        /* \"#utility.yul\":4746:4751   */\n      dup2\n        /* \"#utility.yul\":4722:4752   */\n      tag_432\n      jump\t// in\n    tag_540:\n        /* \"#utility.yul\":4625:4758   */\n      swap3\n      swap2\n      pop\n      pop\n      jump\t// out\n        /* \"#utility.yul\":4764:6827   */\n    tag_24:\n        /* \"#utility.yul\":4923:4929   */\n      0x00\n        /* \"#utility.yul\":4931:4937   */\n      dup1\n        /* \"#utility.yul\":4939:4945   */\n      0x00\n        /* \"#utility.yul\":4947:4953   */\n      dup1\n        /* \"#utility.yul\":4955:4961   */\n      0x00\n        /* \"#utility.yul\":4963:4969   */\n      dup1\n        /* \"#utility.yul\":4971:4977   */\n      0x00\n        /* \"#utility.yul\":4979:4985   */\n      dup1\n        /* \"#utility.yul\":5028:5031   */\n      0x0100\n        /* \"#utility.yul\":5016:5025   */\n      dup10\n        /* \"#utility.yul\":5007:5014   */\n      dup12\n        /* \"#utility.yul\":5003:5026   */\n      sub\n        /* \"#utility.yul\":4999:5032   */\n      slt\n        /* \"#utility.yul\":4996:5116   */\n      iszero\n      tag_542\n      jumpi\n        /* \"#utility.yul\":5035:5114   */\n      tag_543\n      tag_412\n      jump\t// in\n    tag_543:\n        /* \"#utility.yul\":4996:5116   */\n    tag_542:\n        /* \"#utility.yul\":5155:5156   */\n      0x00\n        /* \"#utility.yul\":5180:5233   */\n      tag_544\n        /* \"#utility.yul\":5225:5232   */\n      dup12\n        /* \"#utility.yul\":5216:5222   */\n      dup3\n        /* \"#utility.yul\":5205:5214   */\n      dup13\n        /* \"#utility.yul\":5201:5223   */\n      add\n        /* \"#utility.yul\":5180:5233   */\n      tag_431\n      jump\t// in\n    tag_544:\n        /* \"#utility.yul\":5170:5233   */\n      swap9\n      pop\n        /* \"#utility.yul\":5126:5243   */\n      pop\n        /* \"#utility.yul\":5310:5312   */\n      0x20\n        /* \"#utility.yul\":5299:5308   */\n      dup10\n        /* \"#utility.yul\":5295:5313   */\n      add\n        /* \"#utility.yul\":5282:5314   */\n      calldataload\n        /* \"#utility.yul\":5341:5359   */\n      0xffffffffffffffff\n        /* \"#utility.yul\":5333:5339   */\n      dup2\n        /* \"#utility.yul\":5330:5360   */\n      gt\n        /* \"#utility.yul\":5327:5444   */\n      iszero\n      tag_545\n      jumpi\n        /* \"#utility.yul\":5363:5442   */\n      tag_546\n      tag_413\n      jump\t// in\n    tag_546:\n        /* \"#utility.yul\":5327:5444   */\n    tag_545:\n        /* \"#utility.yul\":5468:5531   */\n      tag_547\n        /* \"#utility.yul\":5523:5530   */\n      dup12\n        /* \"#utility.yul\":5514:5520   */\n      dup3\n        /* \"#utility.yul\":5503:5512   */\n      dup13\n        /* \"#utility.yul\":5499:5521   */\n      add\n        /* \"#utility.yul\":5468:5531   */\n      tag_426\n      jump\t// in\n    tag_547:\n        /* \"#utility.yul\":5458:5531   */\n      swap8\n      pop\n        /* \"#utility.yul\":5253:5541   */\n      pop\n        /* \"#utility.yul\":5608:5610   */\n      0x40\n        /* \"#utility.yul\":5597:5606   */\n      dup10\n        /* \"#utility.yul\":5593:5611   */\n      add\n        /* \"#utility.yul\":5580:5612   */\n      calldataload\n        /* \"#utility.yul\":5639:5657   */\n      0xffffffffffffffff\n        /* \"#utility.yul\":5631:5637   */\n      dup2\n        /* \"#utility.yul\":5628:5658   */\n      gt\n        /* \"#utility.yul\":5625:5742   */\n      iszero\n      tag_548\n      jumpi\n        /* \"#utility.yul\":5661:5740   */\n      tag_549\n      tag_413\n      jump\t// in\n    tag_549:\n        /* \"#utility.yul\":5625:5742   */\n    tag_548:\n        /* \"#utility.yul\":5766:5829   */\n      tag_550\n        /* \"#utility.yul\":5821:5828   */\n      dup12\n        /* \"#utility.yul\":5812:5818   */\n      dup3\n        /* \"#utility.yul\":5801:5810   */\n      dup13\n        /* \"#utility.yul\":5797:5819   */\n      add\n        /* \"#utility.yul\":5766:5829   */\n      tag_426\n      jump\t// in\n    tag_550:\n        /* \"#utility.yul\":5756:5829   */\n      swap7\n      pop\n        /* \"#utility.yul\":5551:5839   */\n      pop\n        /* \"#utility.yul\":5906:5908   */\n      0x60\n        /* \"#utility.yul\":5895:5904   */\n      dup10\n        /* \"#utility.yul\":5891:5909   */\n      add\n        /* \"#utility.yul\":5878:5910   */\n      calldataload\n        /* \"#utility.yul\":5937:5955   */\n      0xffffffffffffffff\n        /* \"#utility.yul\":5929:5935   */\n      dup2\n        /* \"#utility.yul\":5926:5956   */\n      gt\n        /* \"#utility.yul\":5923:6040   */\n      iszero\n      tag_551\n      jumpi\n        /* \"#utility.yul\":5959:6038   */\n      tag_552\n      tag_413\n      jump\t// in\n    tag_552:\n        /* \"#utility.yul\":5923:6040   */\n    tag_551:\n        /* \"#utility.yul\":6064:6127   */\n      tag_553\n        /* \"#utility.yul\":6119:6126   */\n      dup12\n        /* \"#utility.yul\":6110:6116   */\n      dup3\n        /* \"#utility.yul\":6099:6108   */\n      dup13\n        /* \"#utility.yul\":6095:6117   */\n      add\n        /* \"#utility.yul\":6064:6127   */\n      tag_426\n      jump\t// in\n    tag_553:\n        /* \"#utility.yul\":6054:6127   */\n      swap6\n      pop\n        /* \"#utility.yul\":5849:6137   */\n      pop\n        /* \"#utility.yul\":6176:6179   */\n      0x80\n        /* \"#utility.yul\":6203:6256   */\n      tag_554\n        /* \"#utility.yul\":6248:6255   */\n      dup12\n        /* \"#utility.yul\":6239:6245   */\n      dup3\n        /* \"#utility.yul\":6228:6237   */\n      dup13\n        /* \"#utility.yul\":6224:6246   */\n      add\n        /* \"#utility.yul\":6203:6256   */\n      tag_417\n      jump\t// in\n    tag_554:\n        /* \"#utility.yul\":6193:6256   */\n      swap5\n      pop\n        /* \"#utility.yul\":6147:6266   */\n      pop\n        /* \"#utility.yul\":6305:6308   */\n      0xa0\n        /* \"#utility.yul\":6332:6385   */\n      tag_555\n        /* \"#utility.yul\":6377:6384   */\n      dup12\n        /* \"#utility.yul\":6368:6374   */\n      dup3\n        /* \"#utility.yul\":6357:6366   */\n      dup13\n        /* \"#utility.yul\":6353:6375   */\n      add\n        /* \"#utility.yul\":6332:6385   */\n      tag_431\n      jump\t// in\n    tag_555:\n        /* \"#utility.yul\":6322:6385   */\n      swap4\n      pop\n        /* \"#utility.yul\":6276:6395   */\n      pop\n        /* \"#utility.yul\":6462:6465   */\n      0xc0\n        /* \"#utility.yul\":6451:6460   */\n      dup10\n        /* \"#utility.yul\":6447:6466   */\n      add\n        /* \"#utility.yul\":6434:6467   */\n      calldataload\n        /* \"#utility.yul\":6494:6512   */\n      0xffffffffffffffff\n        /* \"#utility.yul\":6486:6492   */\n      dup2\n        /* \"#utility.yul\":6483:6513   */\n      gt\n        /* \"#utility.yul\":6480:6597   */\n      iszero\n      tag_556\n      jumpi\n        /* \"#utility.yul\":6516:6595   */\n      tag_557\n      tag_413\n      jump\t// in\n    tag_557:\n        /* \"#utility.yul\":6480:6597   */\n    tag_556:\n        /* \"#utility.yul\":6621:6684   */\n      tag_558\n        /* \"#utility.yul\":6676:6683   */\n      dup12\n        /* \"#utility.yul\":6667:6673   */\n      dup3\n        /* \"#utility.yul\":6656:6665   */\n      dup13\n        /* \"#utility.yul\":6652:6674   */\n      add\n        /* \"#utility.yul\":6621:6684   */\n      tag_426\n      jump\t// in\n    tag_558:\n        /* \"#utility.yul\":6611:6684   */\n      swap3\n      pop\n        /* \"#utility.yul\":6405:6694   */\n      pop\n        /* \"#utility.yul\":6733:6736   */\n      0xe0\n        /* \"#utility.yul\":6760:6810   */\n      tag_559\n        /* \"#utility.yul\":6802:6809   */\n      dup12\n        /* \"#utility.yul\":6793:6799   */\n      dup3\n        /* \"#utility.yul\":6782:6791   */\n      dup13\n        /* \"#utility.yul\":6778:6800   */\n      add\n        /* \"#utility.yul\":6760:6810   */\n      tag_433\n      jump\t// in\n    tag_559:\n        /* \"#utility.yul\":6750:6810   */\n      swap2\n      pop\n        /* \"#utility.yul\":6704:6820   */\n      pop\n        /* \"#utility.yul\":4764:6827   */\n      swap3\n      swap6\n      swap9\n      pop\n      swap3\n      swap6\n      swap9\n      swap1\n      swap4\n      swap7\n      pop\n      jump\t// out\n        /* \"#utility.yul\":6833:6951   */\n    tag_434:\n        /* \"#utility.yul\":6920:6944   */\n      tag_561\n        /* \"#utility.yul\":6938:6943   */\n      dup2\n        /* \"#utility.yul\":6920:6944   */\n      tag_415\n      jump\t// in\n    tag_561:\n        /* \"#utility.yul\":6915:6918   */\n      dup3\n        /* \"#utility.yul\":6908:6945   */\n      mstore\n        /* \"#utility.yul\":6833:6951   */\n      pop\n      pop\n      jump\t// out\n        /* \"#utility.yul\":6957:7179   */\n    tag_29:\n        /* \"#utility.yul\":7050:7054   */\n      0x00\n        /* \"#utility.yul\":7088:7090   */\n      0x20\n        /* \"#utility.yul\":7077:7086   */\n      dup3\n        /* \"#utility.yul\":7073:7091   */\n      add\n        /* \"#utility.yul\":7065:7091   */\n      swap1\n      pop\n        /* \"#utility.yul\":7101:7172   */\n      tag_563\n        /* \"#utility.yul\":7169:7170   */\n      0x00\n        /* \"#utility.yul\":7158:7167   */\n      dup4\n        /* \"#utility.yul\":7154:7171   */\n      add\n        /* \"#utility.yul\":7145:7151   */\n      dup5\n        /* \"#utility.yul\":7101:7172   */\n      tag_434\n      jump\t// in\n    tag_563:\n        /* \"#utility.yul\":6957:7179   */\n      swap3\n      swap2\n      pop\n      pop\n      jump\t// out\n        /* \"#utility.yul\":7185:7514   */\n    tag_32:\n        /* \"#utility.yul\":7244:7250   */\n      0x00\n        /* \"#utility.yul\":7293:7295   */\n      0x20\n        /* \"#utility.yul\":7281:7290   */\n      dup3\n        /* \"#utility.yul\":7272:7279   */\n      dup5\n        /* \"#utility.yul\":7268:7291   */\n      sub\n        /* \"#utility.yul\":7264:7296   */\n      slt\n        /* \"#utility.yul\":7261:7380   */\n      iszero\n      tag_565\n      jumpi\n        /* \"#utility.yul\":7299:7378   */\n      tag_566\n      tag_412\n      jump\t// in\n    tag_566:\n        /* \"#utility.yul\":7261:7380   */\n    tag_565:\n        /* \"#utility.yul\":7419:7420   */\n      0x00\n        /* \"#utility.yul\":7444:7497   */\n      tag_567\n        /* \"#utility.yul\":7489:7496   */\n      dup5\n        /* \"#utility.yul\":7480:7486   */\n      dup3\n        /* \"#utility.yul\":7469:7478   */\n      dup6\n        /* \"#utility.yul\":7465:7487   */\n      add\n        /* \"#utility.yul\":7444:7497   */\n      tag_431\n      jump\t// in\n    tag_567:\n        /* \"#utility.yul\":7434:7497   */\n      swap2\n      pop\n        /* \"#utility.yul\":7390:7507   */\n      pop\n        /* \"#utility.yul\":7185:7514   */\n      swap3\n      swap2\n      pop\n      pop\n      jump\t// out\n        /* \"#utility.yul\":7520:7638   */\n    tag_435:\n        /* \"#utility.yul\":7607:7631   */\n      tag_569\n        /* \"#utility.yul\":7625:7630   */\n      dup2\n        /* \"#utility.yul\":7607:7631   */\n      tag_429\n      jump\t// in\n    tag_569:\n        /* \"#utility.yul\":7602:7605   */\n      dup3\n        /* \"#utility.yul\":7595:7632   */\n      mstore\n        /* \"#utility.yul\":7520:7638   */\n      pop\n      pop\n      jump\t// out\n        /* \"#utility.yul\":7644:7743   */\n    tag_436:\n        /* \"#utility.yul\":7696:7702   */\n      0x00\n        /* \"#utility.yul\":7730:7735   */\n      dup2\n        /* \"#utility.yul\":7724:7736   */\n      mload\n        /* \"#utility.yul\":7714:7736   */\n      swap1\n      pop\n        /* \"#utility.yul\":7644:7743   */\n      swap2\n      swap1\n      pop\n      jump\t// out\n        /* \"#utility.yul\":7749:7918   */\n    tag_437:\n        /* \"#utility.yul\":7833:7844   */\n      0x00\n        /* \"#utility.yul\":7867:7873   */\n      dup3\n        /* \"#utility.yul\":7862:7865   */\n      dup3\n        /* \"#utility.yul\":7855:7874   */\n      mstore\n        /* \"#utility.yul\":7907:7911   */\n      0x20\n        /* \"#utility.yul\":7902:7905   */\n      dup3\n        /* \"#utility.yul\":7898:7912   */\n      add\n        /* \"#utility.yul\":7883:7912   */\n      swap1\n      pop\n        /* \"#utility.yul\":7749:7918   */\n      swap3\n      swap2\n      pop\n      pop\n      jump\t// out\n        /* \"#utility.yul\":7924:8170   */\n    tag_438:\n        /* \"#utility.yul\":8005:8006   */\n      0x00\n        /* \"#utility.yul\":8015:8128   */\n    tag_573:\n        /* \"#utility.yul\":8029:8035   */\n      dup4\n        /* \"#utility.yul\":8026:8027   */\n      dup2\n        /* \"#utility.yul\":8023:8036   */\n      lt\n        /* \"#utility.yul\":8015:8128   */\n      iszero\n      tag_575\n      jumpi\n        /* \"#utility.yul\":8114:8115   */\n      dup1\n        /* \"#utility.yul\":8109:8112   */\n      dup3\n        /* \"#utility.yul\":8105:8116   */\n      add\n        /* \"#utility.yul\":8099:8117   */\n      mload\n        /* \"#utility.yul\":8095:8096   */\n      dup2\n        /* \"#utility.yul\":8090:8093   */\n      dup5\n        /* \"#utility.yul\":8086:8097   */\n      add\n        /* \"#utility.yul\":8079:8118   */\n      mstore\n        /* \"#utility.yul\":8051:8053   */\n      0x20\n        /* \"#utility.yul\":8048:8049   */\n      dup2\n        /* \"#utility.yul\":8044:8054   */\n      add\n        /* \"#utility.yul\":8039:8054   */\n      swap1\n      pop\n        /* \"#utility.yul\":8015:8128   */\n      jump(tag_573)\n    tag_575:\n        /* \"#utility.yul\":8162:8163   */\n      0x00\n        /* \"#utility.yul\":8153:8159   */\n      dup5\n        /* \"#utility.yul\":8148:8151   */\n      dup5\n        /* \"#utility.yul\":8144:8160   */\n      add\n        /* \"#utility.yul\":8137:8164   */\n      mstore\n        /* \"#utility.yul\":7986:8170   */\n      pop\n        /* \"#utility.yul\":7924:8170   */\n      pop\n      pop\n      pop\n      jump\t// out\n        /* \"#utility.yul\":8176:8553   */\n    tag_439:\n        /* \"#utility.yul\":8264:8267   */\n      0x00\n        /* \"#utility.yul\":8292:8331   */\n      tag_577\n        /* \"#utility.yul\":8325:8330   */\n      dup3\n        /* \"#utility.yul\":8292:8331   */\n      tag_436\n      jump\t// in\n    tag_577:\n        /* \"#utility.yul\":8347:8418   */\n      tag_578\n        /* \"#utility.yul\":8411:8417   */\n      dup2\n        /* \"#utility.yul\":8406:8409   */\n      dup6\n        /* \"#utility.yul\":8347:8418   */\n      tag_437\n      jump\t// in\n    tag_578:\n        /* \"#utility.yul\":8340:8418   */\n      swap4\n      pop\n        /* \"#utility.yul\":8427:8492   */\n      tag_579\n        /* \"#utility.yul\":8485:8491   */\n      dup2\n        /* \"#utility.yul\":8480:8483   */\n      dup6\n        /* \"#utility.yul\":8473:8477   */\n      0x20\n        /* \"#utility.yul\":8466:8471   */\n      dup7\n        /* \"#utility.yul\":8462:8478   */\n      add\n        /* \"#utility.yul\":8427:8492   */\n      tag_438\n      jump\t// in\n    tag_579:\n        /* \"#utility.yul\":8517:8546   */\n      tag_580\n        /* \"#utility.yul\":8539:8545   */\n      dup2\n        /* \"#utility.yul\":8517:8546   */\n      tag_420\n      jump\t// in\n    tag_580:\n        /* \"#utility.yul\":8512:8515   */\n      dup5\n        /* \"#utility.yul\":8508:8547   */\n      add\n        /* \"#utility.yul\":8501:8547   */\n      swap2\n      pop\n        /* \"#utility.yul\":8268:8553   */\n      pop\n        /* \"#utility.yul\":8176:8553   */\n      swap3\n      swap2\n      pop\n      pop\n      jump\t// out\n        /* \"#utility.yul\":8559:10209   */\n    tag_35:\n        /* \"#utility.yul\":8992:8996   */\n      0x00\n        /* \"#utility.yul\":9030:9033   */\n      0x0140\n        /* \"#utility.yul\":9019:9028   */\n      dup3\n        /* \"#utility.yul\":9015:9034   */\n      add\n        /* \"#utility.yul\":9007:9034   */\n      swap1\n      pop\n        /* \"#utility.yul\":9044:9115   */\n      tag_582\n        /* \"#utility.yul\":9112:9113   */\n      0x00\n        /* \"#utility.yul\":9101:9110   */\n      dup4\n        /* \"#utility.yul\":9097:9114   */\n      add\n        /* \"#utility.yul\":9088:9094   */\n      dup14\n        /* \"#utility.yul\":9044:9115   */\n      tag_435\n      jump\t// in\n    tag_582:\n        /* \"#utility.yul\":9162:9171   */\n      dup2\n        /* \"#utility.yul\":9156:9160   */\n      dup2\n        /* \"#utility.yul\":9152:9172   */\n      sub\n        /* \"#utility.yul\":9147:9149   */\n      0x20\n        /* \"#utility.yul\":9136:9145   */\n      dup4\n        /* \"#utility.yul\":9132:9150   */\n      add\n        /* \"#utility.yul\":9125:9173   */\n      mstore\n        /* \"#utility.yul\":9190:9268   */\n      tag_583\n        /* \"#utility.yul\":9263:9267   */\n      dup2\n        /* \"#utility.yul\":9254:9260   */\n      dup13\n        /* \"#utility.yul\":9190:9268   */\n      tag_439\n      jump\t// in\n    tag_583:\n        /* \"#utility.yul\":9182:9268   */\n      swap1\n      pop\n        /* \"#utility.yul\":9315:9324   */\n      dup2\n        /* \"#utility.yul\":9309:9313   */\n      dup2\n        /* \"#utility.yul\":9305:9325   */\n      sub\n        /* \"#utility.yul\":9300:9302   */\n      0x40\n        /* \"#utility.yul\":9289:9298   */\n      dup4\n        /* \"#utility.yul\":9285:9303   */\n      add\n        /* \"#utility.yul\":9278:9326   */\n      mstore\n        /* \"#utility.yul\":9343:9421   */\n      tag_584\n        /* \"#utility.yul\":9416:9420   */\n      dup2\n        /* \"#utility.yul\":9407:9413   */\n      dup12\n        /* \"#utility.yul\":9343:9421   */\n      tag_439\n      jump\t// in\n    tag_584:\n        /* \"#utility.yul\":9335:9421   */\n      swap1\n      pop\n        /* \"#utility.yul\":9468:9477   */\n      dup2\n        /* \"#utility.yul\":9462:9466   */\n      dup2\n        /* \"#utility.yul\":9458:9478   */\n      sub\n        /* \"#utility.yul\":9453:9455   */\n      0x60\n        /* \"#utility.yul\":9442:9451   */\n      dup4\n        /* \"#utility.yul\":9438:9456   */\n      add\n        /* \"#utility.yul\":9431:9479   */\n      mstore\n        /* \"#utility.yul\":9496:9574   */\n      tag_585\n        /* \"#utility.yul\":9569:9573   */\n      dup2\n        /* \"#utility.yul\":9560:9566   */\n      dup11\n        /* \"#utility.yul\":9496:9574   */\n      tag_439\n      jump\t// in\n    tag_585:\n        /* \"#utility.yul\":9488:9574   */\n      swap1\n      pop\n        /* \"#utility.yul\":9584:9657   */\n      tag_586\n        /* \"#utility.yul\":9652:9655   */\n      0x80\n        /* \"#utility.yul\":9641:9650   */\n      dup4\n        /* \"#utility.yul\":9637:9656   */\n      add\n        /* \"#utility.yul\":9628:9634   */\n      dup10\n        /* \"#utility.yul\":9584:9657   */\n      tag_434\n      jump\t// in\n    tag_586:\n        /* \"#utility.yul\":9667:9740   */\n      tag_587\n        /* \"#utility.yul\":9735:9738   */\n      0xa0\n        /* \"#utility.yul\":9724:9733   */\n      dup4\n        /* \"#utility.yul\":9720:9739   */\n      add\n        /* \"#utility.yul\":9711:9717   */\n      dup9\n        /* \"#utility.yul\":9667:9740   */\n      tag_435\n      jump\t// in\n    tag_587:\n        /* \"#utility.yul\":9750:9817   */\n      tag_588\n        /* \"#utility.yul\":9812:9815   */\n      0xc0\n        /* \"#utility.yul\":9801:9810   */\n      dup4\n        /* \"#utility.yul\":9797:9816   */\n      add\n        /* \"#utility.yul\":9788:9794   */\n      dup8\n        /* \"#utility.yul\":9750:9817   */\n      tag_428\n      jump\t// in\n    tag_588:\n        /* \"#utility.yul\":9865:9874   */\n      dup2\n        /* \"#utility.yul\":9859:9863   */\n      dup2\n        /* \"#utility.yul\":9855:9875   */\n      sub\n        /* \"#utility.yul\":9849:9852   */\n      0xe0\n        /* \"#utility.yul\":9838:9847   */\n      dup4\n        /* \"#utility.yul\":9834:9853   */\n      add\n        /* \"#utility.yul\":9827:9876   */\n      mstore\n        /* \"#utility.yul\":9893:9971   */\n      tag_589\n        /* \"#utility.yul\":9966:9970   */\n      dup2\n        /* \"#utility.yul\":9957:9963   */\n      dup7\n        /* \"#utility.yul\":9893:9971   */\n      tag_439\n      jump\t// in\n    tag_589:\n        /* \"#utility.yul\":9885:9971   */\n      swap1\n      pop\n        /* \"#utility.yul\":10019:10028   */\n      dup2\n        /* \"#utility.yul\":10013:10017   */\n      dup2\n        /* \"#utility.yul\":10009:10029   */\n      sub\n        /* \"#utility.yul\":10003:10006   */\n      0x0100\n        /* \"#utility.yul\":9992:10001   */\n      dup4\n        /* \"#utility.yul\":9988:10007   */\n      add\n        /* \"#utility.yul\":9981:10030   */\n      mstore\n        /* \"#utility.yul\":10047:10125   */\n      tag_590\n        /* \"#utility.yul\":10120:10124   */\n      dup2\n        /* \"#utility.yul\":10111:10117   */\n      dup6\n        /* \"#utility.yul\":10047:10125   */\n      tag_439\n      jump\t// in\n    tag_590:\n        /* \"#utility.yul\":10039:10125   */\n      swap1\n      pop\n        /* \"#utility.yul\":10135:10202   */\n      tag_591\n        /* \"#utility.yul\":10197:10200   */\n      0x0120\n        /* \"#utility.yul\":10186:10195   */\n      dup4\n        /* \"#utility.yul\":10182:10201   */\n      add\n        /* \"#utility.yul\":10173:10179   */\n      dup5\n        /* \"#utility.yul\":10135:10202   */\n      tag_428\n      jump\t// in\n    tag_591:\n        /* \"#utility.yul\":8559:10209   */\n      swap12\n      swap11\n      pop\n      pop\n      pop\n      pop\n      pop\n      pop\n      pop\n      pop\n      pop\n      pop\n      pop\n      jump\t// out\n        /* \"#utility.yul\":10215:10724   */\n    tag_38:\n        /* \"#utility.yul\":10284:10290   */\n      0x00\n        /* \"#utility.yul\":10333:10335   */\n      0x20\n        /* \"#utility.yul\":10321:10330   */\n      dup3\n        /* \"#utility.yul\":10312:10319   */\n      dup5\n        /* \"#utility.yul\":10308:10331   */\n      sub\n        /* \"#utility.yul\":10304:10336   */\n      slt\n        /* \"#utility.yul\":10301:10420   */\n      iszero\n      tag_593\n      jumpi\n        /* \"#utility.yul\":10339:10418   */\n      tag_594\n      tag_412\n      jump\t// in\n    tag_594:\n        /* \"#utility.yul\":10301:10420   */\n    tag_593:\n        /* \"#utility.yul\":10487:10488   */\n      0x00\n        /* \"#utility.yul\":10476:10485   */\n      dup3\n        /* \"#utility.yul\":10472:10489   */\n      add\n        /* \"#utility.yul\":10459:10490   */\n      calldataload\n        /* \"#utility.yul\":10517:10535   */\n      0xffffffffffffffff\n        /* \"#utility.yul\":10509:10515   */\n      dup2\n        /* \"#utility.yul\":10506:10536   */\n      gt\n        /* \"#utility.yul\":10503:10620   */\n      iszero\n      tag_595\n      jumpi\n        /* \"#utility.yul\":10539:10618   */\n      tag_596\n      tag_413\n      jump\t// in\n    tag_596:\n        /* \"#utility.yul\":10503:10620   */\n    tag_595:\n        /* \"#utility.yul\":10644:10707   */\n      tag_597\n        /* \"#utility.yul\":10699:10706   */\n      dup5\n        /* \"#utility.yul\":10690:10696   */\n      dup3\n        /* \"#utility.yul\":10679:10688   */\n      dup6\n        /* \"#utility.yul\":10675:10697   */\n      add\n        /* \"#utility.yul\":10644:10707   */\n      tag_426\n      jump\t// in\n    tag_597:\n        /* \"#utility.yul\":10634:10707   */\n      swap2\n      pop\n        /* \"#utility.yul\":10430:10717   */\n      pop\n        /* \"#utility.yul\":10215:10724   */\n      swap3\n      swap2\n      pop\n      pop\n      jump\t// out\n        /* \"#utility.yul\":10730:10875   */\n    tag_440:\n        /* \"#utility.yul\":10828:10834   */\n      0x00\n        /* \"#utility.yul\":10862:10867   */\n      dup2\n        /* \"#utility.yul\":10856:10868   */\n      mload\n        /* \"#utility.yul\":10846:10868   */\n      swap1\n      pop\n        /* \"#utility.yul\":10730:10875   */\n      swap2\n      swap1\n      pop\n      jump\t// out\n        /* \"#utility.yul\":10881:11096   */\n    tag_441:\n        /* \"#utility.yul\":11011:11022   */\n      0x00\n        /* \"#utility.yul\":11045:11051   */\n      dup3\n        /* \"#utility.yul\":11040:11043   */\n      dup3\n        /* \"#utility.yul\":11033:11052   */\n      mstore\n        /* \"#utility.yul\":11085:11089   */\n      0x20\n        /* \"#utility.yul\":11080:11083   */\n      dup3\n        /* \"#utility.yul\":11076:11090   */\n      add\n        /* \"#utility.yul\":11061:11090   */\n      swap1\n      pop\n        /* \"#utility.yul\":10881:11096   */\n      swap3\n      swap2\n      pop\n      pop\n      jump\t// out\n        /* \"#utility.yul\":11102:11265   */\n    tag_442:\n        /* \"#utility.yul\":11200:11204   */\n      0x00\n        /* \"#utility.yul\":11223:11226   */\n      dup2\n        /* \"#utility.yul\":11215:11226   */\n      swap1\n      pop\n        /* \"#utility.yul\":11253:11257   */\n      0x20\n        /* \"#utility.yul\":11248:11251   */\n      dup3\n        /* \"#utility.yul\":11244:11258   */\n      add\n        /* \"#utility.yul\":11236:11258   */\n      swap1\n      pop\n        /* \"#utility.yul\":11102:11265   */\n      swap2\n      swap1\n      pop\n      jump\t// out\n        /* \"#utility.yul\":11271:11379   */\n    tag_443:\n        /* \"#utility.yul\":11348:11372   */\n      tag_602\n        /* \"#utility.yul\":11366:11371   */\n      dup2\n        /* \"#utility.yul\":11348:11372   */\n      tag_429\n      jump\t// in\n    tag_602:\n        /* \"#utility.yul\":11343:11346   */\n      dup3\n        /* \"#utility.yul\":11336:11373   */\n      mstore\n        /* \"#utility.yul\":11271:11379   */\n      pop\n      pop\n      jump\t// out\n        /* \"#utility.yul\":11385:11544   */\n    tag_444:\n        /* \"#utility.yul\":11459:11470   */\n      0x00\n        /* \"#utility.yul\":11493:11499   */\n      dup3\n        /* \"#utility.yul\":11488:11491   */\n      dup3\n        /* \"#utility.yul\":11481:11500   */\n      mstore\n        /* \"#utility.yul\":11533:11537   */\n      0x20\n        /* \"#utility.yul\":11528:11531   */\n      dup3\n        /* \"#utility.yul\":11524:11538   */\n      add\n        /* \"#utility.yul\":11509:11538   */\n      swap1\n      pop\n        /* \"#utility.yul\":11385:11544   */\n      swap3\n      swap2\n      pop\n      pop\n      jump\t// out\n        /* \"#utility.yul\":11550:11907   */\n    tag_445:\n        /* \"#utility.yul\":11628:11631   */\n      0x00\n        /* \"#utility.yul\":11656:11695   */\n      tag_605\n        /* \"#utility.yul\":11689:11694   */\n      dup3\n        /* \"#utility.yul\":11656:11695   */\n      tag_436\n      jump\t// in\n    tag_605:\n        /* \"#utility.yul\":11711:11772   */\n      tag_606\n        /* \"#utility.yul\":11765:11771   */\n      dup2\n        /* \"#utility.yul\":11760:11763   */\n      dup6\n        /* \"#utility.yul\":11711:11772   */\n      tag_444\n      jump\t// in\n    tag_606:\n        /* \"#utility.yul\":11704:11772   */\n      swap4\n      pop\n        /* \"#utility.yul\":11781:11846   */\n      tag_607\n        /* \"#utility.yul\":11839:11845   */\n      dup2\n        /* \"#utility.yul\":11834:11837   */\n      dup6\n        /* \"#utility.yul\":11827:11831   */\n      0x20\n        /* \"#utility.yul\":11820:11825   */\n      dup7\n        /* \"#utility.yul\":11816:11832   */\n      add\n        /* \"#utility.yul\":11781:11846   */\n      tag_438\n      jump\t// in\n    tag_607:\n        /* \"#utility.yul\":11871:11900   */\n      tag_608\n        /* \"#utility.yul\":11893:11899   */\n      dup2\n        /* \"#utility.yul\":11871:11900   */\n      tag_420\n      jump\t// in\n    tag_608:\n        /* \"#utility.yul\":11866:11869   */\n      dup5\n        /* \"#utility.yul\":11862:11901   */\n      add\n        /* \"#utility.yul\":11855:11901   */\n      swap2\n      pop\n        /* \"#utility.yul\":11632:11907   */\n      pop\n        /* \"#utility.yul\":11550:11907   */\n      swap3\n      swap2\n      pop\n      pop\n      jump\t// out\n        /* \"#utility.yul\":11913:12021   */\n    tag_446:\n        /* \"#utility.yul\":11990:12014   */\n      tag_610\n        /* \"#utility.yul\":12008:12013   */\n      dup2\n        /* \"#utility.yul\":11990:12014   */\n      tag_415\n      jump\t// in\n    tag_610:\n        /* \"#utility.yul\":11985:11988   */\n      dup3\n        /* \"#utility.yul\":11978:12015   */\n      mstore\n        /* \"#utility.yul\":11913:12021   */\n      pop\n      pop\n      jump\t// out\n        /* \"#utility.yul\":12027:12126   */\n    tag_447:\n        /* \"#utility.yul\":12098:12119   */\n      tag_612\n        /* \"#utility.yul\":12113:12118   */\n      dup2\n        /* \"#utility.yul\":12098:12119   */\n      tag_427\n      jump\t// in\n    tag_612:\n        /* \"#utility.yul\":12093:12096   */\n      dup3\n        /* \"#utility.yul\":12086:12120   */\n      mstore\n        /* \"#utility.yul\":12027:12126   */\n      pop\n      pop\n      jump\t// out\n        /* \"#utility.yul\":12226:14548   */\n    tag_448:\n        /* \"#utility.yul\":12347:12350   */\n      0x00\n        /* \"#utility.yul\":12383:12389   */\n      0x0140\n        /* \"#utility.yul\":12378:12381   */\n      dup4\n        /* \"#utility.yul\":12374:12390   */\n      add\n        /* \"#utility.yul\":12470:12474   */\n      0x00\n        /* \"#utility.yul\":12463:12468   */\n      dup4\n        /* \"#utility.yul\":12459:12475   */\n      add\n        /* \"#utility.yul\":12453:12476   */\n      mload\n        /* \"#utility.yul\":12489:12552   */\n      tag_614\n        /* \"#utility.yul\":12546:12550   */\n      0x00\n        /* \"#utility.yul\":12541:12544   */\n      dup7\n        /* \"#utility.yul\":12537:12551   */\n      add\n        /* \"#utility.yul\":12523:12535   */\n      dup3\n        /* \"#utility.yul\":12489:12552   */\n      tag_443\n      jump\t// in\n    tag_614:\n        /* \"#utility.yul\":12400:12562   */\n      pop\n        /* \"#utility.yul\":12650:12654   */\n      0x20\n        /* \"#utility.yul\":12643:12648   */\n      dup4\n        /* \"#utility.yul\":12639:12655   */\n      add\n        /* \"#utility.yul\":12633:12656   */\n      mload\n        /* \"#utility.yul\":12703:12706   */\n      dup5\n        /* \"#utility.yul\":12697:12701   */\n      dup3\n        /* \"#utility.yul\":12693:12707   */\n      sub\n        /* \"#utility.yul\":12686:12690   */\n      0x20\n        /* \"#utility.yul\":12681:12684   */\n      dup7\n        /* \"#utility.yul\":12677:12691   */\n      add\n        /* \"#utility.yul\":12670:12708   */\n      mstore\n        /* \"#utility.yul\":12729:12802   */\n      tag_615\n        /* \"#utility.yul\":12797:12801   */\n      dup3\n        /* \"#utility.yul\":12783:12795   */\n      dup3\n        /* \"#utility.yul\":12729:12802   */\n      tag_445\n      jump\t// in\n    tag_615:\n        /* \"#utility.yul\":12721:12802   */\n      swap2\n      pop\n        /* \"#utility.yul\":12572:12813   */\n      pop\n        /* \"#utility.yul\":12898:12902   */\n      0x40\n        /* \"#utility.yul\":12891:12896   */\n      dup4\n        /* \"#utility.yul\":12887:12903   */\n      add\n        /* \"#utility.yul\":12881:12904   */\n      mload\n        /* \"#utility.yul\":12951:12954   */\n      dup5\n        /* \"#utility.yul\":12945:12949   */\n      dup3\n        /* \"#utility.yul\":12941:12955   */\n      sub\n        /* \"#utility.yul\":12934:12938   */\n      0x40\n        /* \"#utility.yul\":12929:12932   */\n      dup7\n        /* \"#utility.yul\":12925:12939   */\n      add\n        /* \"#utility.yul\":12918:12956   */\n      mstore\n        /* \"#utility.yul\":12977:13050   */\n      tag_616\n        /* \"#utility.yul\":13045:13049   */\n      dup3\n        /* \"#utility.yul\":13031:13043   */\n      dup3\n        /* \"#utility.yul\":12977:13050   */\n      tag_445\n      jump\t// in\n    tag_616:\n        /* \"#utility.yul\":12969:13050   */\n      swap2\n      pop\n        /* \"#utility.yul\":12823:13061   */\n      pop\n        /* \"#utility.yul\":13148:13152   */\n      0x60\n        /* \"#utility.yul\":13141:13146   */\n      dup4\n        /* \"#utility.yul\":13137:13153   */\n      add\n        /* \"#utility.yul\":13131:13154   */\n      mload\n        /* \"#utility.yul\":13201:13204   */\n      dup5\n        /* \"#utility.yul\":13195:13199   */\n      dup3\n        /* \"#utility.yul\":13191:13205   */\n      sub\n        /* \"#utility.yul\":13184:13188   */\n      0x60\n        /* \"#utility.yul\":13179:13182   */\n      dup7\n        /* \"#utility.yul\":13175:13189   */\n      add\n        /* \"#utility.yul\":13168:13206   */\n      mstore\n        /* \"#utility.yul\":13227:13300   */\n      tag_617\n        /* \"#utility.yul\":13295:13299   */\n      dup3\n        /* \"#utility.yul\":13281:13293   */\n      dup3\n        /* \"#utility.yul\":13227:13300   */\n      tag_445\n      jump\t// in\n    tag_617:\n        /* \"#utility.yul\":13219:13300   */\n      swap2\n      pop\n        /* \"#utility.yul\":13071:13311   */\n      pop\n        /* \"#utility.yul\":13403:13407   */\n      0x80\n        /* \"#utility.yul\":13396:13401   */\n      dup4\n        /* \"#utility.yul\":13392:13408   */\n      add\n        /* \"#utility.yul\":13386:13409   */\n      mload\n        /* \"#utility.yul\":13422:13485   */\n      tag_618\n        /* \"#utility.yul\":13479:13483   */\n      0x80\n        /* \"#utility.yul\":13474:13477   */\n      dup7\n        /* \"#utility.yul\":13470:13484   */\n      add\n        /* \"#utility.yul\":13456:13468   */\n      dup3\n        /* \"#utility.yul\":13422:13485   */\n      tag_446\n      jump\t// in\n    tag_618:\n        /* \"#utility.yul\":13321:13495   */\n      pop\n        /* \"#utility.yul\":13578:13582   */\n      0xa0\n        /* \"#utility.yul\":13571:13576   */\n      dup4\n        /* \"#utility.yul\":13567:13583   */\n      add\n        /* \"#utility.yul\":13561:13584   */\n      mload\n        /* \"#utility.yul\":13597:13660   */\n      tag_619\n        /* \"#utility.yul\":13654:13658   */\n      0xa0\n        /* \"#utility.yul\":13649:13652   */\n      dup7\n        /* \"#utility.yul\":13645:13659   */\n      add\n        /* \"#utility.yul\":13631:13643   */\n      dup3\n        /* \"#utility.yul\":13597:13660   */\n      tag_443\n      jump\t// in\n    tag_619:\n        /* \"#utility.yul\":13505:13670   */\n      pop\n        /* \"#utility.yul\":13756:13760   */\n      0xc0\n        /* \"#utility.yul\":13749:13754   */\n      dup4\n        /* \"#utility.yul\":13745:13761   */\n      add\n        /* \"#utility.yul\":13739:13762   */\n      mload\n        /* \"#utility.yul\":13775:13832   */\n      tag_620\n        /* \"#utility.yul\":13826:13830   */\n      0xc0\n        /* \"#utility.yul\":13821:13824   */\n      dup7\n        /* \"#utility.yul\":13817:13831   */\n      add\n        /* \"#utility.yul\":13803:13815   */\n      dup3\n        /* \"#utility.yul\":13775:13832   */\n      tag_447\n      jump\t// in\n    tag_620:\n        /* \"#utility.yul\":13680:13842   */\n      pop\n        /* \"#utility.yul\":13924:13928   */\n      0xe0\n        /* \"#utility.yul\":13917:13922   */\n      dup4\n        /* \"#utility.yul\":13913:13929   */\n      add\n        /* \"#utility.yul\":13907:13930   */\n      mload\n        /* \"#utility.yul\":13977:13980   */\n      dup5\n        /* \"#utility.yul\":13971:13975   */\n      dup3\n        /* \"#utility.yul\":13967:13981   */\n      sub\n        /* \"#utility.yul\":13960:13964   */\n      0xe0\n        /* \"#utility.yul\":13955:13958   */\n      dup7\n        /* \"#utility.yul\":13951:13965   */\n      add\n        /* \"#utility.yul\":13944:13982   */\n      mstore\n        /* \"#utility.yul\":14003:14076   */\n      tag_621\n        /* \"#utility.yul\":14071:14075   */\n      dup3\n        /* \"#utility.yul\":14057:14069   */\n      dup3\n        /* \"#utility.yul\":14003:14076   */\n      tag_445\n      jump\t// in\n    tag_621:\n        /* \"#utility.yul\":13995:14076   */\n      swap2\n      pop\n        /* \"#utility.yul\":13852:14087   */\n      pop\n        /* \"#utility.yul\":14175:14181   */\n      0x0100\n        /* \"#utility.yul\":14168:14173   */\n      dup4\n        /* \"#utility.yul\":14164:14182   */\n      add\n        /* \"#utility.yul\":14158:14183   */\n      mload\n        /* \"#utility.yul\":14232:14235   */\n      dup5\n        /* \"#utility.yul\":14226:14230   */\n      dup3\n        /* \"#utility.yul\":14222:14236   */\n      sub\n        /* \"#utility.yul\":14213:14219   */\n      0x0100\n        /* \"#utility.yul\":14208:14211   */\n      dup7\n        /* \"#utility.yul\":14204:14220   */\n      add\n        /* \"#utility.yul\":14197:14237   */\n      mstore\n        /* \"#utility.yul\":14258:14331   */\n      tag_622\n        /* \"#utility.yul\":14326:14330   */\n      dup3\n        /* \"#utility.yul\":14312:14324   */\n      dup3\n        /* \"#utility.yul\":14258:14331   */\n      tag_445\n      jump\t// in\n    tag_622:\n        /* \"#utility.yul\":14250:14331   */\n      swap2\n      pop\n        /* \"#utility.yul\":14097:14342   */\n      pop\n        /* \"#utility.yul\":14431:14437   */\n      0x0120\n        /* \"#utility.yul\":14424:14429   */\n      dup4\n        /* \"#utility.yul\":14420:14438   */\n      add\n        /* \"#utility.yul\":14414:14439   */\n      mload\n        /* \"#utility.yul\":14452:14511   */\n      tag_623\n        /* \"#utility.yul\":14503:14509   */\n      0x0120\n        /* \"#utility.yul\":14498:14501   */\n      dup7\n        /* \"#utility.yul\":14494:14510   */\n      add\n        /* \"#utility.yul\":14480:14492   */\n      dup3\n        /* \"#utility.yul\":14452:14511   */\n      tag_447\n      jump\t// in\n    tag_623:\n        /* \"#utility.yul\":14352:14521   */\n      pop\n        /* \"#utility.yul\":14538:14542   */\n      dup1\n        /* \"#utility.yul\":14531:14542   */\n      swap2\n      pop\n        /* \"#utility.yul\":12352:14548   */\n      pop\n        /* \"#utility.yul\":12226:14548   */\n      swap3\n      swap2\n      pop\n      pop\n      jump\t// out\n        /* \"#utility.yul\":14554:14834   */\n    tag_449:\n        /* \"#utility.yul\":14685:14695   */\n      0x00\n        /* \"#utility.yul\":14720:14828   */\n      tag_625\n        /* \"#utility.yul\":14824:14827   */\n      dup4\n        /* \"#utility.yul\":14816:14822   */\n      dup4\n        /* \"#utility.yul\":14720:14828   */\n      tag_448\n      jump\t// in\n    tag_625:\n        /* \"#utility.yul\":14706:14828   */\n      swap1\n      pop\n        /* \"#utility.yul\":14554:14834   */\n      swap3\n      swap2\n      pop\n      pop\n      jump\t// out\n        /* \"#utility.yul\":14840:14984   */\n    tag_450:\n        /* \"#utility.yul\":14941:14945   */\n      0x00\n        /* \"#utility.yul\":14973:14977   */\n      0x20\n        /* \"#utility.yul\":14968:14971   */\n      dup3\n        /* \"#utility.yul\":14964:14978   */\n      add\n        /* \"#utility.yul\":14956:14978   */\n      swap1\n      pop\n        /* \"#utility.yul\":14840:14984   */\n      swap2\n      swap1\n      pop\n      jump\t// out\n        /* \"#utility.yul\":15088:16247   */\n    tag_451:\n        /* \"#utility.yul\":15269:15272   */\n      0x00\n        /* \"#utility.yul\":15298:15383   */\n      tag_628\n        /* \"#utility.yul\":15377:15382   */\n      dup3\n        /* \"#utility.yul\":15298:15383   */\n      tag_440\n      jump\t// in\n    tag_628:\n        /* \"#utility.yul\":15399:15516   */\n      tag_629\n        /* \"#utility.yul\":15509:15515   */\n      dup2\n        /* \"#utility.yul\":15504:15507   */\n      dup6\n        /* \"#utility.yul\":15399:15516   */\n      tag_441\n      jump\t// in\n    tag_629:\n        /* \"#utility.yul\":15392:15516   */\n      swap4\n      pop\n        /* \"#utility.yul\":15542:15545   */\n      dup4\n        /* \"#utility.yul\":15587:15591   */\n      0x20\n        /* \"#utility.yul\":15579:15585   */\n      dup3\n        /* \"#utility.yul\":15575:15592   */\n      mul\n        /* \"#utility.yul\":15570:15573   */\n      dup6\n        /* \"#utility.yul\":15566:15593   */\n      add\n        /* \"#utility.yul\":15617:15704   */\n      tag_630\n        /* \"#utility.yul\":15698:15703   */\n      dup6\n        /* \"#utility.yul\":15617:15704   */\n      tag_442\n      jump\t// in\n    tag_630:\n        /* \"#utility.yul\":15727:15734   */\n      dup1\n        /* \"#utility.yul\":15758:15759   */\n      0x00\n        /* \"#utility.yul\":15743:16202   */\n    tag_631:\n        /* \"#utility.yul\":15768:15774   */\n      dup6\n        /* \"#utility.yul\":15765:15766   */\n      dup2\n        /* \"#utility.yul\":15762:15775   */\n      lt\n        /* \"#utility.yul\":15743:16202   */\n      iszero\n      tag_633\n      jumpi\n        /* \"#utility.yul\":15839:15848   */\n      dup5\n        /* \"#utility.yul\":15833:15837   */\n      dup5\n        /* \"#utility.yul\":15829:15849   */\n      sub\n        /* \"#utility.yul\":15824:15827   */\n      dup10\n        /* \"#utility.yul\":15817:15850   */\n      mstore\n        /* \"#utility.yul\":15890:15896   */\n      dup2\n        /* \"#utility.yul\":15884:15897   */\n      mload\n        /* \"#utility.yul\":15918:16044   */\n      tag_634\n        /* \"#utility.yul\":16039:16043   */\n      dup6\n        /* \"#utility.yul\":16024:16037   */\n      dup3\n        /* \"#utility.yul\":15918:16044   */\n      tag_449\n      jump\t// in\n    tag_634:\n        /* \"#utility.yul\":15910:16044   */\n      swap5\n      pop\n        /* \"#utility.yul\":16067:16158   */\n      tag_635\n        /* \"#utility.yul\":16151:16157   */\n      dup4\n        /* \"#utility.yul\":16067:16158   */\n      tag_450\n      jump\t// in\n    tag_635:\n        /* \"#utility.yul\":16057:16158   */\n      swap3\n      pop\n        /* \"#utility.yul\":16187:16191   */\n      0x20\n        /* \"#utility.yul\":16182:16185   */\n      dup11\n        /* \"#utility.yul\":16178:16192   */\n      add\n        /* \"#utility.yul\":16171:16192   */\n      swap10\n      pop\n        /* \"#utility.yul\":15803:16202   */\n      pop\n        /* \"#utility.yul\":15790:15791   */\n      0x01\n        /* \"#utility.yul\":15787:15788   */\n      dup2\n        /* \"#utility.yul\":15783:15792   */\n      add\n        /* \"#utility.yul\":15778:15792   */\n      swap1\n      pop\n        /* \"#utility.yul\":15743:16202   */\n      jump(tag_631)\n    tag_633:\n        /* \"#utility.yul\":15747:15761   */\n      pop\n        /* \"#utility.yul\":16218:16222   */\n      dup3\n        /* \"#utility.yul\":16211:16222   */\n      swap8\n      pop\n        /* \"#utility.yul\":16238:16241   */\n      dup8\n        /* \"#utility.yul\":16231:16241   */\n      swap6\n      pop\n        /* \"#utility.yul\":15274:16247   */\n      pop\n      pop\n      pop\n      pop\n      pop\n        /* \"#utility.yul\":15088:16247   */\n      swap3\n      swap2\n      pop\n      pop\n      jump\t// out\n        /* \"#utility.yul\":16253:16750   */\n    tag_41:\n        /* \"#utility.yul\":16458:16462   */\n      0x00\n        /* \"#utility.yul\":16496:16498   */\n      0x20\n        /* \"#utility.yul\":16485:16494   */\n      dup3\n        /* \"#utility.yul\":16481:16499   */\n      add\n        /* \"#utility.yul\":16473:16499   */\n      swap1\n      pop\n        /* \"#utility.yul\":16545:16554   */\n      dup2\n        /* \"#utility.yul\":16539:16543   */\n      dup2\n        /* \"#utility.yul\":16535:16555   */\n      sub\n        /* \"#utility.yul\":16531:16532   */\n      0x00\n        /* \"#utility.yul\":16520:16529   */\n      dup4\n        /* \"#utility.yul\":16516:16533   */\n      add\n        /* \"#utility.yul\":16509:16556   */\n      mstore\n        /* \"#utility.yul\":16573:16743   */\n      tag_637\n        /* \"#utility.yul\":16738:16742   */\n      dup2\n        /* \"#utility.yul\":16729:16735   */\n      dup5\n        /* \"#utility.yul\":16573:16743   */\n      tag_451\n      jump\t// in\n    tag_637:\n        /* \"#utility.yul\":16565:16743   */\n      swap1\n      pop\n        /* \"#utility.yul\":16253:16750   */\n      swap3\n      swap2\n      pop\n      pop\n      jump\t// out\n        /* \"#utility.yul\":16756:17085   */\n    tag_44:\n        /* \"#utility.yul\":16815:16821   */\n      0x00\n        /* \"#utility.yul\":16864:16866   */\n      0x20\n        /* \"#utility.yul\":16852:16861   */\n      dup3\n        /* \"#utility.yul\":16843:16850   */\n      dup5\n        /* \"#utility.yul\":16839:16862   */\n      sub\n        /* \"#utility.yul\":16835:16867   */\n      slt\n        /* \"#utility.yul\":16832:16951   */\n      iszero\n      tag_639\n      jumpi\n        /* \"#utility.yul\":16870:16949   */\n      tag_640\n      tag_412\n      jump\t// in\n    tag_640:\n        /* \"#utility.yul\":16832:16951   */\n    tag_639:\n        /* \"#utility.yul\":16990:16991   */\n      0x00\n        /* \"#utility.yul\":17015:17068   */\n      tag_641\n        /* \"#utility.yul\":17060:17067   */\n      dup5\n        /* \"#utility.yul\":17051:17057   */\n      dup3\n        /* \"#utility.yul\":17040:17049   */\n      dup6\n        /* \"#utility.yul\":17036:17058   */\n      add\n        /* \"#utility.yul\":17015:17068   */\n      tag_417\n      jump\t// in\n    tag_641:\n        /* \"#utility.yul\":17005:17068   */\n      swap2\n      pop\n        /* \"#utility.yul\":16961:17078   */\n      pop\n        /* \"#utility.yul\":16756:17085   */\n      swap3\n      swap2\n      pop\n      pop\n      jump\t// out\n        /* \"#utility.yul\":17091:17925   */\n    tag_55:\n        /* \"#utility.yul\":17179:17185   */\n      0x00\n        /* \"#utility.yul\":17187:17193   */\n      dup1\n        /* \"#utility.yul\":17236:17238   */\n      0x40\n        /* \"#utility.yul\":17224:17233   */\n      dup4\n        /* \"#utility.yul\":17215:17222   */\n      dup6\n        /* \"#utility.yul\":17211:17234   */\n      sub\n        /* \"#utility.yul\":17207:17239   */\n      slt\n        /* \"#utility.yul\":17204:17323   */\n      iszero\n      tag_643\n      jumpi\n        /* \"#utility.yul\":17242:17321   */\n      tag_644\n      tag_412\n      jump\t// in\n    tag_644:\n        /* \"#utility.yul\":17204:17323   */\n    tag_643:\n        /* \"#utility.yul\":17390:17391   */\n      0x00\n        /* \"#utility.yul\":17379:17388   */\n      dup4\n        /* \"#utility.yul\":17375:17392   */\n      add\n        /* \"#utility.yul\":17362:17393   */\n      calldataload\n        /* \"#utility.yul\":17420:17438   */\n      0xffffffffffffffff\n        /* \"#utility.yul\":17412:17418   */\n      dup2\n        /* \"#utility.yul\":17409:17439   */\n      gt\n        /* \"#utility.yul\":17406:17523   */\n      iszero\n      tag_645\n      jumpi\n        /* \"#utility.yul\":17442:17521   */\n      tag_646\n      tag_413\n      jump\t// in\n    tag_646:\n        /* \"#utility.yul\":17406:17523   */\n    tag_645:\n        /* \"#utility.yul\":17547:17610   */\n      tag_647\n        /* \"#utility.yul\":17602:17609   */\n      dup6\n        /* \"#utility.yul\":17593:17599   */\n      dup3\n        /* \"#utility.yul\":17582:17591   */\n      dup7\n        /* \"#utility.yul\":17578:17600   */\n      add\n        /* \"#utility.yul\":17547:17610   */\n      tag_426\n      jump\t// in\n    tag_647:\n        /* \"#utility.yul\":17537:17610   */\n      swap3\n      pop\n        /* \"#utility.yul\":17333:17620   */\n      pop\n        /* \"#utility.yul\":17687:17689   */\n      0x20\n        /* \"#utility.yul\":17676:17685   */\n      dup4\n        /* \"#utility.yul\":17672:17690   */\n      add\n        /* \"#utility.yul\":17659:17691   */\n      calldataload\n        /* \"#utility.yul\":17718:17736   */\n      0xffffffffffffffff\n        /* \"#utility.yul\":17710:17716   */\n      dup2\n        /* \"#utility.yul\":17707:17737   */\n      gt\n        /* \"#utility.yul\":17704:17821   */\n      iszero\n      tag_648\n      jumpi\n        /* \"#utility.yul\":17740:17819   */\n      tag_649\n      tag_413\n      jump\t// in\n    tag_649:\n        /* \"#utility.yul\":17704:17821   */\n    tag_648:\n        /* \"#utility.yul\":17845:17908   */\n      tag_650\n        /* \"#utility.yul\":17900:17907   */\n      dup6\n        /* \"#utility.yul\":17891:17897   */\n      dup3\n        /* \"#utility.yul\":17880:17889   */\n      dup7\n        /* \"#utility.yul\":17876:17898   */\n      add\n        /* \"#utility.yul\":17845:17908   */\n      tag_426\n      jump\t// in\n    tag_650:\n        /* \"#utility.yul\":17835:17908   */\n      swap2\n      pop\n        /* \"#utility.yul\":17630:17918   */\n      pop\n        /* \"#utility.yul\":17091:17925   */\n      swap3\n      pop\n      swap3\n      swap1\n      pop\n      jump\t// out\n        /* \"#utility.yul\":17931:18025   */\n    tag_452:\n        /* \"#utility.yul\":17964:17972   */\n      0x00\n        /* \"#utility.yul\":18012:18017   */\n      dup2\n        /* \"#utility.yul\":18008:18010   */\n      0x60\n        /* \"#utility.yul\":18004:18018   */\n      shl\n        /* \"#utility.yul\":17983:18018   */\n      swap1\n      pop\n        /* \"#utility.yul\":17931:18025   */\n      swap2\n      swap1\n      pop\n      jump\t// out\n        /* \"#utility.yul\":18031:18125   */\n    tag_453:\n        /* \"#utility.yul\":18070:18077   */\n      0x00\n        /* \"#utility.yul\":18099:18119   */\n      tag_653\n        /* \"#utility.yul\":18113:18118   */\n      dup3\n        /* \"#utility.yul\":18099:18119   */\n      tag_452\n      jump\t// in\n    tag_653:\n        /* \"#utility.yul\":18088:18119   */\n      swap1\n      pop\n        /* \"#utility.yul\":18031:18125   */\n      swap2\n      swap1\n      pop\n      jump\t// out\n        /* \"#utility.yul\":18131:18231   */\n    tag_454:\n        /* \"#utility.yul\":18170:18177   */\n      0x00\n        /* \"#utility.yul\":18199:18225   */\n      tag_655\n        /* \"#utility.yul\":18219:18224   */\n      dup3\n        /* \"#utility.yul\":18199:18225   */\n      tag_453\n      jump\t// in\n    tag_655:\n        /* \"#utility.yul\":18188:18225   */\n      swap1\n      pop\n        /* \"#utility.yul\":18131:18231   */\n      swap2\n      swap1\n      pop\n      jump\t// out\n        /* \"#utility.yul\":18237:18394   */\n    tag_455:\n        /* \"#utility.yul\":18342:18387   */\n      tag_657\n        /* \"#utility.yul\":18362:18386   */\n      tag_658\n        /* \"#utility.yul\":18380:18385   */\n      dup3\n        /* \"#utility.yul\":18362:18386   */\n      tag_415\n      jump\t// in\n    tag_658:\n        /* \"#utility.yul\":18342:18387   */\n      tag_454\n      jump\t// in\n    tag_657:\n        /* \"#utility.yul\":18337:18340   */\n      dup3\n        /* \"#utility.yul\":18330:18388   */\n      mstore\n        /* \"#utility.yul\":18237:18394   */\n      pop\n      pop\n      jump\t// out\n        /* \"#utility.yul\":18400:18656   */\n    tag_73:\n        /* \"#utility.yul\":18512:18515   */\n      0x00\n        /* \"#utility.yul\":18527:18602   */\n      tag_660\n        /* \"#utility.yul\":18598:18601   */\n      dup3\n        /* \"#utility.yul\":18589:18595   */\n      dup5\n        /* \"#utility.yul\":18527:18602   */\n      tag_455\n      jump\t// in\n    tag_660:\n        /* \"#utility.yul\":18627:18629   */\n      0x14\n        /* \"#utility.yul\":18622:18625   */\n      dup3\n        /* \"#utility.yul\":18618:18630   */\n      add\n        /* \"#utility.yul\":18611:18630   */\n      swap2\n      pop\n        /* \"#utility.yul\":18647:18650   */\n      dup2\n        /* \"#utility.yul\":18640:18650   */\n      swap1\n      pop\n        /* \"#utility.yul\":18400:18656   */\n      swap3\n      swap2\n      pop\n      pop\n      jump\t// out\n        /* \"#utility.yul\":18662:18842   */\n    tag_76:\n        /* \"#utility.yul\":18710:18787   */\n      0x4e487b7100000000000000000000000000000000000000000000000000000000\n        /* \"#utility.yul\":18707:18708   */\n      0x00\n        /* \"#utility.yul\":18700:18788   */\n      mstore\n        /* \"#utility.yul\":18807:18811   */\n      0x32\n        /* \"#utility.yul\":18804:18805   */\n      0x04\n        /* \"#utility.yul\":18797:18812   */\n      mstore\n        /* \"#utility.yul\":18831:18835   */\n      0x24\n        /* \"#utility.yul\":18828:18829   */\n      0x00\n        /* \"#utility.yul\":18821:18836   */\n      revert\n        /* \"#utility.yul\":18848:18996   */\n    tag_456:\n        /* \"#utility.yul\":18950:18961   */\n      0x00\n        /* \"#utility.yul\":18987:18990   */\n      dup2\n        /* \"#utility.yul\":18972:18990   */\n      swap1\n      pop\n        /* \"#utility.yul\":18848:18996   */\n      swap3\n      swap2\n      pop\n      pop\n      jump\t// out\n        /* \"#utility.yul\":19002:19392   */\n    tag_457:\n        /* \"#utility.yul\":19108:19111   */\n      0x00\n        /* \"#utility.yul\":19136:19175   */\n      tag_664\n        /* \"#utility.yul\":19169:19174   */\n      dup3\n        /* \"#utility.yul\":19136:19175   */\n      tag_436\n      jump\t// in\n    tag_664:\n        /* \"#utility.yul\":19191:19280   */\n      tag_665\n        /* \"#utility.yul\":19273:19279   */\n      dup2\n        /* \"#utility.yul\":19268:19271   */\n      dup6\n        /* \"#utility.yul\":19191:19280   */\n      tag_456\n      jump\t// in\n    tag_665:\n        /* \"#utility.yul\":19184:19280   */\n      swap4\n      pop\n        /* \"#utility.yul\":19289:19354   */\n      tag_666\n        /* \"#utility.yul\":19347:19353   */\n      dup2\n        /* \"#utility.yul\":19342:19345   */\n      dup6\n        /* \"#utility.yul\":19335:19339   */\n      0x20\n        /* \"#utility.yul\":19328:19333   */\n      dup7\n        /* \"#utility.yul\":19324:19340   */\n      add\n        /* \"#utility.yul\":19289:19354   */\n      tag_438\n      jump\t// in\n    tag_666:\n        /* \"#utility.yul\":19379:19385   */\n      dup1\n        /* \"#utility.yul\":19374:19377   */\n      dup5\n        /* \"#utility.yul\":19370:19386   */\n      add\n        /* \"#utility.yul\":19363:19386   */\n      swap2\n      pop\n        /* \"#utility.yul\":19112:19392   */\n      pop\n        /* \"#utility.yul\":19002:19392   */\n      swap3\n      swap2\n      pop\n      pop\n      jump\t// out\n        /* \"#utility.yul\":19398:19673   */\n    tag_81:\n        /* \"#utility.yul\":19530:19533   */\n      0x00\n        /* \"#utility.yul\":19552:19647   */\n      tag_668\n        /* \"#utility.yul\":19643:19646   */\n      dup3\n        /* \"#utility.yul\":19634:19640   */\n      dup5\n        /* \"#utility.yul\":19552:19647   */\n      tag_457\n      jump\t// in\n    tag_668:\n        /* \"#utility.yul\":19545:19647   */\n      swap2\n      pop\n        /* \"#utility.yul\":19664:19667   */\n      dup2\n        /* \"#utility.yul\":19657:19667   */\n      swap1\n      pop\n        /* \"#utility.yul\":19398:19673   */\n      swap3\n      swap2\n      pop\n      pop\n      jump\t// out\n        /* \"#utility.yul\":19679:19859   */\n    tag_458:\n        /* \"#utility.yul\":19727:19804   */\n      0x4e487b7100000000000000000000000000000000000000000000000000000000\n        /* \"#utility.yul\":19724:19725   */\n      0x00\n        /* \"#utility.yul\":19717:19805   */\n      mstore\n        /* \"#utility.yul\":19824:19828   */\n      0x22\n        /* \"#utility.yul\":19821:19822   */\n      0x04\n        /* \"#utility.yul\":19814:19829   */\n      mstore\n        /* \"#utility.yul\":19848:19852   */\n      0x24\n        /* \"#utility.yul\":19845:19846   */\n      0x00\n        /* \"#utility.yul\":19838:19853   */\n      revert\n        /* \"#utility.yul\":19865:20185   */\n    tag_105:\n        /* \"#utility.yul\":19909:19915   */\n      0x00\n        /* \"#utility.yul\":19946:19947   */\n      0x02\n        /* \"#utility.yul\":19940:19944   */\n      dup3\n        /* \"#utility.yul\":19936:19948   */\n      div\n        /* \"#utility.yul\":19926:19948   */\n      swap1\n      pop\n        /* \"#utility.yul\":19993:19994   */\n      0x01\n        /* \"#utility.yul\":19987:19991   */\n      dup3\n        /* \"#utility.yul\":19983:19995   */\n      and\n        /* \"#utility.yul\":20014:20032   */\n      dup1\n        /* \"#utility.yul\":20004:20085   */\n      tag_671\n      jumpi\n        /* \"#utility.yul\":20070:20074   */\n      0x7f\n        /* \"#utility.yul\":20062:20068   */\n      dup3\n        /* \"#utility.yul\":20058:20075   */\n      and\n        /* \"#utility.yul\":20048:20075   */\n      swap2\n      pop\n        /* \"#utility.yul\":20004:20085   */\n    tag_671:\n        /* \"#utility.yul\":20132:20134   */\n      0x20\n        /* \"#utility.yul\":20124:20130   */\n      dup3\n        /* \"#utility.yul\":20121:20135   */\n      lt\n        /* \"#utility.yul\":20101:20119   */\n      dup2\n        /* \"#utility.yul\":20098:20136   */\n      sub\n        /* \"#utility.yul\":20095:20179   */\n      tag_672\n      jumpi\n        /* \"#utility.yul\":20151:20169   */\n      tag_673\n      tag_458\n      jump\t// in\n    tag_673:\n        /* \"#utility.yul\":20095:20179   */\n    tag_672:\n        /* \"#utility.yul\":19916:20185   */\n      pop\n        /* \"#utility.yul\":19865:20185   */\n      swap2\n      swap1\n      pop\n      jump\t// out\n        /* \"#utility.yul\":20191:20332   */\n    tag_459:\n        /* \"#utility.yul\":20240:20244   */\n      0x00\n        /* \"#utility.yul\":20263:20266   */\n      dup2\n        /* \"#utility.yul\":20255:20266   */\n      swap1\n      pop\n        /* \"#utility.yul\":20286:20289   */\n      dup2\n        /* \"#utility.yul\":20283:20284   */\n      0x00\n        /* \"#utility.yul\":20276:20290   */\n      mstore\n        /* \"#utility.yul\":20320:20324   */\n      0x20\n        /* \"#utility.yul\":20317:20318   */\n      0x00\n        /* \"#utility.yul\":20307:20325   */\n      keccak256\n        /* \"#utility.yul\":20299:20325   */\n      swap1\n      pop\n        /* \"#utility.yul\":20191:20332   */\n      swap2\n      swap1\n      pop\n      jump\t// out\n        /* \"#utility.yul\":20362:21236   */\n    tag_460:\n        /* \"#utility.yul\":20465:20468   */\n      0x00\n        /* \"#utility.yul\":20502:20507   */\n      dup2\n        /* \"#utility.yul\":20496:20508   */\n      sload\n        /* \"#utility.yul\":20531:20567   */\n      tag_676\n        /* \"#utility.yul\":20557:20566   */\n      dup2\n        /* \"#utility.yul\":20531:20567   */\n      tag_105\n      jump\t// in\n    tag_676:\n        /* \"#utility.yul\":20583:20672   */\n      tag_677\n        /* \"#utility.yul\":20665:20671   */\n      dup2\n        /* \"#utility.yul\":20660:20663   */\n      dup7\n        /* \"#utility.yul\":20583:20672   */\n      tag_456\n      jump\t// in\n    tag_677:\n        /* \"#utility.yul\":20576:20672   */\n      swap5\n      pop\n        /* \"#utility.yul\":20703:20704   */\n      0x01\n        /* \"#utility.yul\":20692:20701   */\n      dup3\n        /* \"#utility.yul\":20688:20705   */\n      and\n        /* \"#utility.yul\":20719:20720   */\n      0x00\n        /* \"#utility.yul\":20714:20880   */\n      dup2\n      eq\n      tag_679\n      jumpi\n        /* \"#utility.yul\":20894:20895   */\n      0x01\n        /* \"#utility.yul\":20889:21230   */\n      dup2\n      eq\n      tag_680\n      jumpi\n        /* \"#utility.yul\":20681:21230   */\n      jump(tag_678)\n        /* \"#utility.yul\":20714:20880   */\n    tag_679:\n        /* \"#utility.yul\":20798:20802   */\n      0xff\n        /* \"#utility.yul\":20794:20803   */\n      not\n        /* \"#utility.yul\":20783:20792   */\n      dup4\n        /* \"#utility.yul\":20779:20804   */\n      and\n        /* \"#utility.yul\":20774:20777   */\n      dup7\n        /* \"#utility.yul\":20767:20805   */\n      mstore\n        /* \"#utility.yul\":20860:20866   */\n      dup2\n        /* \"#utility.yul\":20853:20867   */\n      iszero\n        /* \"#utility.yul\":20846:20868   */\n      iszero\n        /* \"#utility.yul\":20838:20844   */\n      dup3\n        /* \"#utility.yul\":20834:20869   */\n      mul\n        /* \"#utility.yul\":20829:20832   */\n      dup7\n        /* \"#utility.yul\":20825:20870   */\n      add\n        /* \"#utility.yul\":20818:20870   */\n      swap4\n      pop\n        /* \"#utility.yul\":20714:20880   */\n      jump(tag_678)\n        /* \"#utility.yul\":20889:21230   */\n    tag_680:\n        /* \"#utility.yul\":20956:20994   */\n      tag_681\n        /* \"#utility.yul\":20988:20993   */\n      dup6\n        /* \"#utility.yul\":20956:20994   */\n      tag_459\n      jump\t// in\n    tag_681:\n        /* \"#utility.yul\":21016:21017   */\n      0x00\n        /* \"#utility.yul\":21030:21184   */\n    tag_682:\n        /* \"#utility.yul\":21044:21050   */\n      dup4\n        /* \"#utility.yul\":21041:21042   */\n      dup2\n        /* \"#utility.yul\":21038:21051   */\n      lt\n        /* \"#utility.yul\":21030:21184   */\n      iszero\n      tag_684\n      jumpi\n        /* \"#utility.yul\":21118:21125   */\n      dup2\n        /* \"#utility.yul\":21112:21126   */\n      sload\n        /* \"#utility.yul\":21108:21109   */\n      dup2\n        /* \"#utility.yul\":21103:21106   */\n      dup10\n        /* \"#utility.yul\":21099:21110   */\n      add\n        /* \"#utility.yul\":21092:21127   */\n      mstore\n        /* \"#utility.yul\":21168:21169   */\n      0x01\n        /* \"#utility.yul\":21159:21166   */\n      dup3\n        /* \"#utility.yul\":21155:21170   */\n      add\n        /* \"#utility.yul\":21144:21170   */\n      swap2\n      pop\n        /* \"#utility.yul\":21066:21070   */\n      0x20\n        /* \"#utility.yul\":21063:21064   */\n      dup2\n        /* \"#utility.yul\":21059:21071   */\n      add\n        /* \"#utility.yul\":21054:21071   */\n      swap1\n      pop\n        /* \"#utility.yul\":21030:21184   */\n      jump(tag_682)\n    tag_684:\n        /* \"#utility.yul\":21213:21219   */\n      dup4\n        /* \"#utility.yul\":21208:21211   */\n      dup9\n        /* \"#utility.yul\":21204:21220   */\n      add\n        /* \"#utility.yul\":21197:21220   */\n      swap6\n      pop\n        /* \"#utility.yul\":20896:21230   */\n      pop\n      pop\n        /* \"#utility.yul\":20681:21230   */\n    tag_678:\n      pop\n        /* \"#utility.yul\":20469:21236   */\n      pop\n      pop\n        /* \"#utility.yul\":20362:21236   */\n      swap3\n      swap2\n      pop\n      pop\n      jump\t// out\n        /* \"#utility.yul\":21242:21511   */\n    tag_86:\n        /* \"#utility.yul\":21371:21374   */\n      0x00\n        /* \"#utility.yul\":21393:21485   */\n      tag_686\n        /* \"#utility.yul\":21481:21484   */\n      dup3\n        /* \"#utility.yul\":21472:21478   */\n      dup5\n        /* \"#utility.yul\":21393:21485   */\n      tag_460\n      jump\t// in\n    tag_686:\n        /* \"#utility.yul\":21386:21485   */\n      swap2\n      pop\n        /* \"#utility.yul\":21502:21505   */\n      dup2\n        /* \"#utility.yul\":21495:21505   */\n      swap1\n      pop\n        /* \"#utility.yul\":21242:21511   */\n      swap3\n      swap2\n      pop\n      pop\n      jump\t// out\n        /* \"#utility.yul\":21517:21745   */\n    tag_461:\n        /* \"#utility.yul\":21657:21691   */\n      0x4f6e6c792063616d706169676e20636f6e74726163742063616c6c2074686973\n        /* \"#utility.yul\":21653:21654   */\n      0x00\n        /* \"#utility.yul\":21645:21651   */\n      dup3\n        /* \"#utility.yul\":21641:21655   */\n      add\n        /* \"#utility.yul\":21634:21692   */\n      mstore\n        /* \"#utility.yul\":21726:21737   */\n      0x2066756e6374696f6e0000000000000000000000000000000000000000000000\n        /* \"#utility.yul\":21721:21723   */\n      0x20\n        /* \"#utility.yul\":21713:21719   */\n      dup3\n        /* \"#utility.yul\":21709:21724   */\n      add\n        /* \"#utility.yul\":21702:21738   */\n      mstore\n        /* \"#utility.yul\":21517:21745   */\n      pop\n      jump\t// out\n        /* \"#utility.yul\":21751:22117   */\n    tag_462:\n        /* \"#utility.yul\":21893:21896   */\n      0x00\n        /* \"#utility.yul\":21914:21981   */\n      tag_689\n        /* \"#utility.yul\":21978:21980   */\n      0x29\n        /* \"#utility.yul\":21973:21976   */\n      dup4\n        /* \"#utility.yul\":21914:21981   */\n      tag_437\n      jump\t// in\n    tag_689:\n        /* \"#utility.yul\":21907:21981   */\n      swap2\n      pop\n        /* \"#utility.yul\":21990:22083   */\n      tag_690\n        /* \"#utility.yul\":22079:22082   */\n      dup3\n        /* \"#utility.yul\":21990:22083   */\n      tag_461\n      jump\t// in\n    tag_690:\n        /* \"#utility.yul\":22108:22110   */\n      0x40\n        /* \"#utility.yul\":22103:22106   */\n      dup3\n        /* \"#utility.yul\":22099:22111   */\n      add\n        /* \"#utility.yul\":22092:22111   */\n      swap1\n      pop\n        /* \"#utility.yul\":21751:22117   */\n      swap2\n      swap1\n      pop\n      jump\t// out\n        /* \"#utility.yul\":22123:22542   */\n    tag_91:\n        /* \"#utility.yul\":22289:22293   */\n      0x00\n        /* \"#utility.yul\":22327:22329   */\n      0x20\n        /* \"#utility.yul\":22316:22325   */\n      dup3\n        /* \"#utility.yul\":22312:22330   */\n      add\n        /* \"#utility.yul\":22304:22330   */\n      swap1\n      pop\n        /* \"#utility.yul\":22376:22385   */\n      dup2\n        /* \"#utility.yul\":22370:22374   */\n      dup2\n        /* \"#utility.yul\":22366:22386   */\n      sub\n        /* \"#utility.yul\":22362:22363   */\n      0x00\n        /* \"#utility.yul\":22351:22360   */\n      dup4\n        /* \"#utility.yul\":22347:22364   */\n      add\n        /* \"#utility.yul\":22340:22387   */\n      mstore\n        /* \"#utility.yul\":22404:22535   */\n      tag_692\n        /* \"#utility.yul\":22530:22534   */\n      dup2\n        /* \"#utility.yul\":22404:22535   */\n      tag_462\n      jump\t// in\n    tag_692:\n        /* \"#utility.yul\":22396:22535   */\n      swap1\n      pop\n        /* \"#utility.yul\":22123:22542   */\n      swap2\n      swap1\n      pop\n      jump\t// out\n        /* \"#utility.yul\":22548:22641   */\n    tag_463:\n        /* \"#utility.yul\":22585:22591   */\n      0x00\n        /* \"#utility.yul\":22632:22634   */\n      0x20\n        /* \"#utility.yul\":22627:22629   */\n      0x1f\n        /* \"#utility.yul\":22620:22625   */\n      dup4\n        /* \"#utility.yul\":22616:22630   */\n      add\n        /* \"#utility.yul\":22612:22635   */\n      div\n        /* \"#utility.yul\":22602:22635   */\n      swap1\n      pop\n        /* \"#utility.yul\":22548:22641   */\n      swap2\n      swap1\n      pop\n      jump\t// out\n        /* \"#utility.yul\":22647:22754   */\n    tag_464:\n        /* \"#utility.yul\":22691:22699   */\n      0x00\n        /* \"#utility.yul\":22741:22746   */\n      dup3\n        /* \"#utility.yul\":22735:22739   */\n      dup3\n        /* \"#utility.yul\":22731:22747   */\n      shl\n        /* \"#utility.yul\":22710:22747   */\n      swap1\n      pop\n        /* \"#utility.yul\":22647:22754   */\n      swap3\n      swap2\n      pop\n      pop\n      jump\t// out\n        /* \"#utility.yul\":22760:23153   */\n    tag_465:\n        /* \"#utility.yul\":22829:22835   */\n      0x00\n        /* \"#utility.yul\":22879:22880   */\n      0x08\n        /* \"#utility.yul\":22867:22877   */\n      dup4\n        /* \"#utility.yul\":22863:22881   */\n      mul\n        /* \"#utility.yul\":22902:22999   */\n      tag_696\n        /* \"#utility.yul\":22932:22998   */\n      0xffffffffffffffffffffffffffffffffffffffffffffffffffffffffffffffff\n        /* \"#utility.yul\":22921:22930   */\n      dup3\n        /* \"#utility.yul\":22902:22999   */\n      tag_464\n      jump\t// in\n    tag_696:\n        /* \"#utility.yul\":23020:23059   */\n      tag_697\n        /* \"#utility.yul\":23050:23058   */\n      dup7\n        /* \"#utility.yul\":23039:23048   */\n      dup4\n        /* \"#utility.yul\":23020:23059   */\n      tag_464\n      jump\t// in\n    tag_697:\n        /* \"#utility.yul\":23008:23059   */\n      swap6\n      pop\n        /* \"#utility.yul\":23092:23096   */\n      dup1\n        /* \"#utility.yul\":23088:23097   */\n      not\n        /* \"#utility.yul\":23081:23086   */\n      dup5\n        /* \"#utility.yul\":23077:23098   */\n      and\n        /* \"#utility.yul\":23068:23098   */\n      swap4\n      pop\n        /* \"#utility.yul\":23141:23145   */\n      dup1\n        /* \"#utility.yul\":23131:23139   */\n      dup7\n        /* \"#utility.yul\":23127:23146   */\n      and\n        /* \"#utility.yul\":23120:23125   */\n      dup5\n        /* \"#utility.yul\":23117:23147   */\n      or\n        /* \"#utility.yul\":23107:23147   */\n      swap3\n      pop\n        /* \"#utility.yul\":22836:23153   */\n      pop\n      pop\n        /* \"#utility.yul\":22760:23153   */\n      swap4\n      swap3\n      pop\n      pop\n      pop\n      jump\t// out\n        /* \"#utility.yul\":23159:23219   */\n    tag_466:\n        /* \"#utility.yul\":23187:23190   */\n      0x00\n        /* \"#utility.yul\":23208:23213   */\n      dup2\n        /* \"#utility.yul\":23201:23213   */\n      swap1\n      pop\n        /* \"#utility.yul\":23159:23219   */\n      swap2\n      swap1\n      pop\n      jump\t// out\n        /* \"#utility.yul\":23225:23367   */\n    tag_467:\n        /* \"#utility.yul\":23275:23284   */\n      0x00\n        /* \"#utility.yul\":23308:23361   */\n      tag_700\n        /* \"#utility.yul\":23326:23360   */\n      tag_701\n        /* \"#utility.yul\":23335:23359   */\n      tag_702\n        /* \"#utility.yul\":23353:23358   */\n      dup5\n        /* \"#utility.yul\":23335:23359   */\n      tag_429\n      jump\t// in\n    tag_702:\n        /* \"#utility.yul\":23326:23360   */\n      tag_466\n      jump\t// in\n    tag_701:\n        /* \"#utility.yul\":23308:23361   */\n      tag_429\n      jump\t// in\n    tag_700:\n        /* \"#utility.yul\":23295:23361   */\n      swap1\n      pop\n        /* \"#utility.yul\":23225:23367   */\n      swap2\n      swap1\n      pop\n      jump\t// out\n        /* \"#utility.yul\":23373:23448   */\n    tag_468:\n        /* \"#utility.yul\":23416:23419   */\n      0x00\n        /* \"#utility.yul\":23437:23442   */\n      dup2\n        /* \"#utility.yul\":23430:23442   */\n      swap1\n      pop\n        /* \"#utility.yul\":23373:23448   */\n      swap2\n      swap1\n      pop\n      jump\t// out\n        /* \"#utility.yul\":23454:23723   */\n    tag_469:\n        /* \"#utility.yul\":23564:23603   */\n      tag_705\n        /* \"#utility.yul\":23595:23602   */\n      dup4\n        /* \"#utility.yul\":23564:23603   */\n      tag_467\n      jump\t// in\n    tag_705:\n        /* \"#utility.yul\":23625:23716   */\n      tag_706\n        /* \"#utility.yul\":23674:23715   */\n      tag_707\n        /* \"#utility.yul\":23698:23714   */\n      dup3\n        /* \"#utility.yul\":23674:23715   */\n      tag_468\n      jump\t// in\n    tag_707:\n        /* \"#utility.yul\":23666:23672   */\n      dup5\n        /* \"#utility.yul\":23659:23663   */\n      dup5\n        /* \"#utility.yul\":23653:23664   */\n      sload\n        /* \"#utility.yul\":23625:23716   */\n      tag_465\n      jump\t// in\n    tag_706:\n        /* \"#utility.yul\":23619:23623   */\n      dup3\n        /* \"#utility.yul\":23612:23717   */\n      sstore\n        /* \"#utility.yul\":23530:23723   */\n      pop\n        /* \"#utility.yul\":23454:23723   */\n      pop\n      pop\n      pop\n      jump\t// out\n        /* \"#utility.yul\":23729:23802   */\n    tag_470:\n        /* \"#utility.yul\":23774:23777   */\n      0x00\n        /* \"#utility.yul\":23729:23802   */\n      swap1\n      jump\t// out\n        /* \"#utility.yul\":23808:23997   */\n    tag_471:\n        /* \"#utility.yul\":23885:23917   */\n      tag_710\n      tag_470\n      jump\t// in\n    tag_710:\n        /* \"#utility.yul\":23926:23991   */\n      tag_711\n        /* \"#utility.yul\":23984:23990   */\n      dup2\n        /* \"#utility.yul\":23976:23982   */\n      dup5\n        /* \"#utility.yul\":23970:23974   */\n      dup5\n        /* \"#utility.yul\":23926:23991   */\n      tag_469\n      jump\t// in\n    tag_711:\n        /* \"#utility.yul\":23861:23997   */\n      pop\n        /* \"#utility.yul\":23808:23997   */\n      pop\n      pop\n      jump\t// out\n        /* \"#utility.yul\":24003:24189   */\n    tag_472:\n        /* \"#utility.yul\":24063:24183   */\n    tag_713:\n        /* \"#utility.yul\":24080:24083   */\n      dup2\n        /* \"#utility.yul\":24073:24078   */\n      dup2\n        /* \"#utility.yul\":24070:24084   */\n      lt\n        /* \"#utility.yul\":24063:24183   */\n      iszero\n      tag_715\n      jumpi\n        /* \"#utility.yul\":24134:24173   */\n      tag_716\n        /* \"#utility.yul\":24171:24172   */\n      0x00\n        /* \"#utility.yul\":24164:24169   */\n      dup3\n        /* \"#utility.yul\":24134:24173   */\n      tag_471\n      jump\t// in\n    tag_716:\n        /* \"#utility.yul\":24107:24108   */\n      0x01\n        /* \"#utility.yul\":24100:24105   */\n      dup2\n        /* \"#utility.yul\":24096:24109   */\n      add\n        /* \"#utility.yul\":24087:24109   */\n      swap1\n      pop\n        /* \"#utility.yul\":24063:24183   */\n      jump(tag_713)\n    tag_715:\n        /* \"#utility.yul\":24003:24189   */\n      pop\n      pop\n      jump\t// out\n        /* \"#utility.yul\":24195:24738   */\n    tag_473:\n        /* \"#utility.yul\":24296:24298   */\n      0x1f\n        /* \"#utility.yul\":24291:24294   */\n      dup3\n        /* \"#utility.yul\":24288:24299   */\n      gt\n        /* \"#utility.yul\":24285:24731   */\n      iszero\n      tag_718\n      jumpi\n        /* \"#utility.yul\":24330:24368   */\n      tag_719\n        /* \"#utility.yul\":24362:24367   */\n      dup2\n        /* \"#utility.yul\":24330:24368   */\n      tag_459\n      jump\t// in\n    tag_719:\n        /* \"#utility.yul\":24414:24443   */\n      tag_720\n        /* \"#utility.yul\":24432:24442   */\n      dup5\n        /* \"#utility.yul\":24414:24443   */\n      tag_463\n      jump\t// in\n    tag_720:\n        /* \"#utility.yul\":24404:24412   */\n      dup2\n        /* \"#utility.yul\":24400:24444   */\n      add\n        /* \"#utility.yul\":24597:24599   */\n      0x20\n        /* \"#utility.yul\":24585:24595   */\n      dup6\n        /* \"#utility.yul\":24582:24600   */\n      lt\n        /* \"#utility.yul\":24579:24628   */\n      iszero\n      tag_721\n      jumpi\n        /* \"#utility.yul\":24618:24626   */\n      dup2\n        /* \"#utility.yul\":24603:24626   */\n      swap1\n      pop\n        /* \"#utility.yul\":24579:24628   */\n    tag_721:\n        /* \"#utility.yul\":24641:24721   */\n      tag_722\n        /* \"#utility.yul\":24697:24719   */\n      tag_723\n        /* \"#utility.yul\":24715:24718   */\n      dup6\n        /* \"#utility.yul\":24697:24719   */\n      tag_463\n      jump\t// in\n    tag_723:\n        /* \"#utility.yul\":24687:24695   */\n      dup4\n        /* \"#utility.yul\":24683:24720   */\n      add\n        /* \"#utility.yul\":24670:24681   */\n      dup3\n        /* \"#utility.yul\":24641:24721   */\n      tag_472\n      jump\t// in\n    tag_722:\n        /* \"#utility.yul\":24300:24731   */\n      pop\n      pop\n        /* \"#utility.yul\":24285:24731   */\n    tag_718:\n        /* \"#utility.yul\":24195:24738   */\n      pop\n      pop\n      pop\n      jump\t// out\n        /* \"#utility.yul\":24744:24861   */\n    tag_474:\n        /* \"#utility.yul\":24798:24806   */\n      0x00\n        /* \"#utility.yul\":24848:24853   */\n      dup3\n        /* \"#utility.yul\":24842:24846   */\n      dup3\n        /* \"#utility.yul\":24838:24854   */\n      shr\n        /* \"#utility.yul\":24817:24854   */\n      swap1\n      pop\n        /* \"#utility.yul\":24744:24861   */\n      swap3\n      swap2\n      pop\n      pop\n      jump\t// out\n        /* \"#utility.yul\":24867:25036   */\n    tag_475:\n        /* \"#utility.yul\":24911:24917   */\n      0x00\n        /* \"#utility.yul\":24944:24995   */\n      tag_726\n        /* \"#utility.yul\":24992:24993   */\n      0x00\n        /* \"#utility.yul\":24988:24994   */\n      not\n        /* \"#utility.yul\":24980:24985   */\n      dup5\n        /* \"#utility.yul\":24977:24978   */\n      0x08\n        /* \"#utility.yul\":24973:24986   */\n      mul\n        /* \"#utility.yul\":24944:24995   */\n      tag_474\n      jump\t// in\n    tag_726:\n        /* \"#utility.yul\":24940:24996   */\n      not\n        /* \"#utility.yul\":25025:25029   */\n      dup1\n        /* \"#utility.yul\":25019:25023   */\n      dup4\n        /* \"#utility.yul\":25015:25030   */\n      and\n        /* \"#utility.yul\":25005:25030   */\n      swap2\n      pop\n        /* \"#utility.yul\":24918:25036   */\n      pop\n        /* \"#utility.yul\":24867:25036   */\n      swap3\n      swap2\n      pop\n      pop\n      jump\t// out\n        /* \"#utility.yul\":25041:25336   */\n    tag_476:\n        /* \"#utility.yul\":25117:25121   */\n      0x00\n        /* \"#utility.yul\":25263:25292   */\n      tag_728\n        /* \"#utility.yul\":25288:25291   */\n      dup4\n        /* \"#utility.yul\":25282:25286   */\n      dup4\n        /* \"#utility.yul\":25263:25292   */\n      tag_475\n      jump\t// in\n    tag_728:\n        /* \"#utility.yul\":25255:25292   */\n      swap2\n      pop\n        /* \"#utility.yul\":25325:25328   */\n      dup3\n        /* \"#utility.yul\":25322:25323   */\n      0x02\n        /* \"#utility.yul\":25318:25329   */\n      mul\n        /* \"#utility.yul\":25312:25316   */\n      dup3\n        /* \"#utility.yul\":25309:25330   */\n      or\n        /* \"#utility.yul\":25301:25330   */\n      swap1\n      pop\n        /* \"#utility.yul\":25041:25336   */\n      swap3\n      swap2\n      pop\n      pop\n      jump\t// out\n        /* \"#utility.yul\":25341:26736   */\n    tag_97:\n        /* \"#utility.yul\":25458:25495   */\n      tag_730\n        /* \"#utility.yul\":25491:25494   */\n      dup3\n        /* \"#utility.yul\":25458:25495   */\n      tag_436\n      jump\t// in\n    tag_730:\n        /* \"#utility.yul\":25560:25578   */\n      0xffffffffffffffff\n        /* \"#utility.yul\":25552:25558   */\n      dup2\n        /* \"#utility.yul\":25549:25579   */\n      gt\n        /* \"#utility.yul\":25546:25602   */\n      iszero\n      tag_731\n      jumpi\n        /* \"#utility.yul\":25582:25600   */\n      tag_732\n      tag_144\n      jump\t// in\n    tag_732:\n        /* \"#utility.yul\":25546:25602   */\n    tag_731:\n        /* \"#utility.yul\":25626:25664   */\n      tag_733\n        /* \"#utility.yul\":25658:25662   */\n      dup3\n        /* \"#utility.yul\":25652:25663   */\n      sload\n        /* \"#utility.yul\":25626:25664   */\n      tag_105\n      jump\t// in\n    tag_733:\n        /* \"#utility.yul\":25711:25778   */\n      tag_734\n        /* \"#utility.yul\":25771:25777   */\n      dup3\n        /* \"#utility.yul\":25763:25769   */\n      dup3\n        /* \"#utility.yul\":25757:25761   */\n      dup6\n        /* \"#utility.yul\":25711:25778   */\n      tag_473\n      jump\t// in\n    tag_734:\n        /* \"#utility.yul\":25805:25806   */\n      0x00\n        /* \"#utility.yul\":25829:25833   */\n      0x20\n        /* \"#utility.yul\":25816:25833   */\n      swap1\n      pop\n        /* \"#utility.yul\":25861:25863   */\n      0x1f\n        /* \"#utility.yul\":25853:25859   */\n      dup4\n        /* \"#utility.yul\":25850:25864   */\n      gt\n        /* \"#utility.yul\":25878:25879   */\n      0x01\n        /* \"#utility.yul\":25873:26491   */\n      dup2\n      eq\n      tag_736\n      jumpi\n        /* \"#utility.yul\":26535:26536   */\n      0x00\n        /* \"#utility.yul\":26552:26558   */\n      dup5\n        /* \"#utility.yul\":26549:26626   */\n      iszero\n      tag_737\n      jumpi\n        /* \"#utility.yul\":26601:26610   */\n      dup3\n        /* \"#utility.yul\":26596:26599   */\n      dup8\n        /* \"#utility.yul\":26592:26611   */\n      add\n        /* \"#utility.yul\":26586:26612   */\n      mload\n        /* \"#utility.yul\":26577:26612   */\n      swap1\n      pop\n        /* \"#utility.yul\":26549:26626   */\n    tag_737:\n        /* \"#utility.yul\":26652:26719   */\n      tag_738\n        /* \"#utility.yul\":26712:26718   */\n      dup6\n        /* \"#utility.yul\":26705:26710   */\n      dup3\n        /* \"#utility.yul\":26652:26719   */\n      tag_476\n      jump\t// in\n    tag_738:\n        /* \"#utility.yul\":26646:26650   */\n      dup7\n        /* \"#utility.yul\":26639:26720   */\n      sstore\n        /* \"#utility.yul\":26508:26730   */\n      pop\n        /* \"#utility.yul\":25843:26730   */\n      jump(tag_735)\n        /* \"#utility.yul\":25873:26491   */\n    tag_736:\n        /* \"#utility.yul\":25925:25929   */\n      0x1f\n        /* \"#utility.yul\":25921:25930   */\n      not\n        /* \"#utility.yul\":25913:25919   */\n      dup5\n        /* \"#utility.yul\":25909:25931   */\n      and\n        /* \"#utility.yul\":25959:25996   */\n      tag_739\n        /* \"#utility.yul\":25991:25995   */\n      dup7\n        /* \"#utility.yul\":25959:25996   */\n      tag_459\n      jump\t// in\n    tag_739:\n        /* \"#utility.yul\":26018:26019   */\n      0x00\n        /* \"#utility.yul\":26032:26240   */\n    tag_740:\n        /* \"#utility.yul\":26046:26053   */\n      dup3\n        /* \"#utility.yul\":26043:26044   */\n      dup2\n        /* \"#utility.yul\":26040:26054   */\n      lt\n        /* \"#utility.yul\":26032:26240   */\n      iszero\n      tag_742\n      jumpi\n        /* \"#utility.yul\":26125:26134   */\n      dup5\n        /* \"#utility.yul\":26120:26123   */\n      dup10\n        /* \"#utility.yul\":26116:26135   */\n      add\n        /* \"#utility.yul\":26110:26136   */\n      mload\n        /* \"#utility.yul\":26102:26108   */\n      dup3\n        /* \"#utility.yul\":26095:26137   */\n      sstore\n        /* \"#utility.yul\":26176:26177   */\n      0x01\n        /* \"#utility.yul\":26168:26174   */\n      dup3\n        /* \"#utility.yul\":26164:26178   */\n      add\n        /* \"#utility.yul\":26154:26178   */\n      swap2\n      pop\n        /* \"#utility.yul\":26223:26225   */\n      0x20\n        /* \"#utility.yul\":26212:26221   */\n      dup6\n        /* \"#utility.yul\":26208:26226   */\n      add\n        /* \"#utility.yul\":26195:26226   */\n      swap5\n      pop\n        /* \"#utility.yul\":26069:26073   */\n      0x20\n        /* \"#utility.yul\":26066:26067   */\n      dup2\n        /* \"#utility.yul\":26062:26074   */\n      add\n        /* \"#utility.yul\":26057:26074   */\n      swap1\n      pop\n        /* \"#utility.yul\":26032:26240   */\n      jump(tag_740)\n    tag_742:\n        /* \"#utility.yul\":26268:26274   */\n      dup7\n        /* \"#utility.yul\":26259:26266   */\n      dup4\n        /* \"#utility.yul\":26256:26275   */\n      lt\n        /* \"#utility.yul\":26253:26432   */\n      iszero\n      tag_743\n      jumpi\n        /* \"#utility.yul\":26326:26335   */\n      dup5\n        /* \"#utility.yul\":26321:26324   */\n      dup10\n        /* \"#utility.yul\":26317:26336   */\n      add\n        /* \"#utility.yul\":26311:26337   */\n      mload\n        /* \"#utility.yul\":26369:26417   */\n      tag_744\n        /* \"#utility.yul\":26411:26415   */\n      0x1f\n        /* \"#utility.yul\":26403:26409   */\n      dup10\n        /* \"#utility.yul\":26399:26416   */\n      and\n        /* \"#utility.yul\":26388:26397   */\n      dup3\n        /* \"#utility.yul\":26369:26417   */\n      tag_475\n      jump\t// in\n    tag_744:\n        /* \"#utility.yul\":26361:26367   */\n      dup4\n        /* \"#utility.yul\":26354:26418   */\n      sstore\n        /* \"#utility.yul\":26276:26432   */\n      pop\n        /* \"#utility.yul\":26253:26432   */\n    tag_743:\n        /* \"#utility.yul\":26478:26479   */\n      0x01\n        /* \"#utility.yul\":26474:26475   */\n      0x02\n        /* \"#utility.yul\":26466:26472   */\n      dup9\n        /* \"#utility.yul\":26462:26476   */\n      mul\n        /* \"#utility.yul\":26458:26480   */\n      add\n        /* \"#utility.yul\":26452:26456   */\n      dup9\n        /* \"#utility.yul\":26445:26481   */\n      sstore\n        /* \"#utility.yul\":25880:26491   */\n      pop\n      pop\n      pop\n        /* \"#utility.yul\":25843:26730   */\n    tag_735:\n      pop\n        /* \"#utility.yul\":25433:26736   */\n      pop\n      pop\n      pop\n        /* \"#utility.yul\":25341:26736   */\n      pop\n      pop\n      jump\t// out\n        /* \"#utility.yul\":26742:26922   */\n    tag_477:\n        /* \"#utility.yul\":26790:26867   */\n      0x4e487b7100000000000000000000000000000000000000000000000000000000\n        /* \"#utility.yul\":26787:26788   */\n      0x00\n        /* \"#utility.yul\":26780:26868   */\n      mstore\n        /* \"#utility.yul\":26887:26891   */\n      0x11\n        /* \"#utility.yul\":26884:26885   */\n      0x04\n        /* \"#utility.yul\":26877:26892   */\n      mstore\n        /* \"#utility.yul\":26911:26915   */\n      0x24\n        /* \"#utility.yul\":26908:26909   */\n      0x00\n        /* \"#utility.yul\":26901:26916   */\n      revert\n        /* \"#utility.yul\":26928:27161   */\n    tag_141:\n        /* \"#utility.yul\":26967:26970   */\n      0x00\n        /* \"#utility.yul\":26990:27014   */\n      tag_747\n        /* \"#utility.yul\":27008:27013   */\n      dup3\n        /* \"#utility.yul\":26990:27014   */\n      tag_429\n      jump\t// in\n    tag_747:\n        /* \"#utility.yul\":26981:27014   */\n      swap2\n      pop\n        /* \"#utility.yul\":27036:27102   */\n      0xffffffffffffffffffffffffffffffffffffffffffffffffffffffffffffffff\n        /* \"#utility.yul\":27029:27034   */\n      dup3\n        /* \"#utility.yul\":27026:27103   */\n      sub\n        /* \"#utility.yul\":27023:27126   */\n      tag_748\n      jumpi\n        /* \"#utility.yul\":27106:27124   */\n      tag_749\n      tag_477\n      jump\t// in\n    tag_749:\n        /* \"#utility.yul\":27023:27126   */\n    tag_748:\n        /* \"#utility.yul\":27153:27154   */\n      0x01\n        /* \"#utility.yul\":27146:27151   */\n      dup3\n        /* \"#utility.yul\":27142:27155   */\n      add\n        /* \"#utility.yul\":27135:27155   */\n      swap1\n      pop\n        /* \"#utility.yul\":26928:27161   */\n      swap2\n      swap1\n      pop\n      jump\t// out\n        /* \"#utility.yul\":27167:27349   */\n    tag_478:\n        /* \"#utility.yul\":27307:27341   */\n      0x4f6e6c79206465706c6f7965722063616c6c20746869732066756e6374696f6e\n        /* \"#utility.yul\":27303:27304   */\n      0x00\n        /* \"#utility.yul\":27295:27301   */\n      dup3\n        /* \"#utility.yul\":27291:27305   */\n      add\n        /* \"#utility.yul\":27284:27342   */\n      mstore\n        /* \"#utility.yul\":27167:27349   */\n      pop\n      jump\t// out\n        /* \"#utility.yul\":27355:27721   */\n    tag_479:\n        /* \"#utility.yul\":27497:27500   */\n      0x00\n        /* \"#utility.yul\":27518:27585   */\n      tag_752\n        /* \"#utility.yul\":27582:27584   */\n      0x20\n        /* \"#utility.yul\":27577:27580   */\n      dup4\n        /* \"#utility.yul\":27518:27585   */\n      tag_437\n      jump\t// in\n    tag_752:\n        /* \"#utility.yul\":27511:27585   */\n      swap2\n      pop\n        /* \"#utility.yul\":27594:27687   */\n      tag_753\n        /* \"#utility.yul\":27683:27686   */\n      dup3\n        /* \"#utility.yul\":27594:27687   */\n      tag_478\n      jump\t// in\n    tag_753:\n        /* \"#utility.yul\":27712:27714   */\n      0x20\n        /* \"#utility.yul\":27707:27710   */\n      dup3\n        /* \"#utility.yul\":27703:27715   */\n      add\n        /* \"#utility.yul\":27696:27715   */\n      swap1\n      pop\n        /* \"#utility.yul\":27355:27721   */\n      swap2\n      swap1\n      pop\n      jump\t// out\n        /* \"#utility.yul\":27727:28146   */\n    tag_191:\n        /* \"#utility.yul\":27893:27897   */\n      0x00\n        /* \"#utility.yul\":27931:27933   */\n      0x20\n        /* \"#utility.yul\":27920:27929   */\n      dup3\n        /* \"#utility.yul\":27916:27934   */\n      add\n        /* \"#utility.yul\":27908:27934   */\n      swap1\n      pop\n        /* \"#utility.yul\":27980:27989   */\n      dup2\n        /* \"#utility.yul\":27974:27978   */\n      dup2\n        /* \"#utility.yul\":27970:27990   */\n      sub\n        /* \"#utility.yul\":27966:27967   */\n      0x00\n        /* \"#utility.yul\":27955:27964   */\n      dup4\n        /* \"#utility.yul\":27951:27968   */\n      add\n        /* \"#utility.yul\":27944:27991   */\n      mstore\n        /* \"#utility.yul\":28008:28139   */\n      tag_755\n        /* \"#utility.yul\":28134:28138   */\n      dup2\n        /* \"#utility.yul\":28008:28139   */\n      tag_479\n      jump\t// in\n    tag_755:\n        /* \"#utility.yul\":28000:28139   */\n      swap1\n      pop\n        /* \"#utility.yul\":27727:28146   */\n      swap2\n      swap1\n      pop\n      jump\t// out\n\n    auxdata: 0xa2646970667358221220c5cd926158673d31300d3b6b4cbc0bc119ba613e28ad463d3f7583344ed761e664736f6c63430008160033\n}\n",
				"bytecode": {
					"linkReferences": {},
					"object": "608060405234801561000f575f80fd5b50335f806101000a81548173ffffffffffffffffffffffffffffffffffffffff021916908373ffffffffffffffffffffffffffffffffffffffff1602179055506133d88061005c5f395ff3fe608060405234801561000f575f80fd5b50600436106100b2575f3560e01c8063add6415d1161006f578063add6415d146101a5578063b6b52ccd146101c3578063b6f1cf93146101f3578063d740bb6c1461020f578063e3726d661461023f578063efdee94f1461026f576100b2565b8063048fa3a7146100b6578063147598c5146100e6578063671f18f71461010257806392ad672f1461012057806399b3e96a14610159578063a3306ae314610189575b5f80fd5b6100d060048036038101906100cb919061272e565b61028d565b6040516100dd91906127a2565b60405180910390f35b61010060048036038101906100fb9190612818565b6103d1565b005b61010a61064c565b6040516101179190612948565b60405180910390f35b61013a60048036038101906101359190612961565b610671565b6040516101509a99989796959493929190612a15565b60405180910390f35b610173600480360381019061016e9190612ad2565b6109a5565b6040516101809190612d3c565b60405180910390f35b6101a3600480360381019061019e9190612d5c565b610f04565b005b6101ad610fd4565b6040516101ba9190612d3c565b60405180910390f35b6101dd60048036038101906101d89190612ad2565b61139d565b6040516101ea9190612d3c565b60405180910390f35b61020d60048036038101906102089190612d87565b6118fc565b005b61022960048036038101906102249190612ad2565b6119ff565b6040516102369190612d3c565b60405180910390f35b61025960048036038101906102549190612ad2565b611f9d565b6040516102669190612d3c565b60405180910390f35b6102776124fc565b6040516102849190612948565b60405180910390f35b5f805f90505b6002805490508110156103c657836040516020016102b19190612e42565b60405160208183030381529060405280519060200120600282815481106102db576102da612e5c565b5b905f5260205f2090600a02016004015f9054906101000a900473ffffffffffffffffffffffffffffffffffffffff1660405160200161031a9190612e42565b604051602081830303815290604052805190602001201480156103aa5750826040516020016103499190612ec3565b604051602081830303815290604052805190602001206002828154811061037357610372612e5c565b5b905f5260205f2090600a02016001016040516020016103929190612fc8565b60405160208183030381529060405280519060200120145b156103b95760019150506103cb565b8080600101915050610293565b505f90505b92915050565b60015f9054906101000a900473ffffffffffffffffffffffffffffffffffffffff1673ffffffffffffffffffffffffffffffffffffffff163373ffffffffffffffffffffffffffffffffffffffff1614610460576040517f08c379a00000000000000000000000000000000000000000000000000000000081526004016104579061304e565b60405180910390fd5b61046861251f565b88815f01818152505087816020018190525086816040018190525085816060018190525084816080019073ffffffffffffffffffffffffffffffffffffffff16908173ffffffffffffffffffffffffffffffffffffffff1681525050838160a00181815250505f8160c0019015159081151581525050828160e0018190525060405180602001604052805f8152508161010001819052508181610120019015159081151581525050600281908060018154018082558091505060019003905f5260205f2090600a02015f909190919091505f820151815f0155602082015181600101908161055691906131f7565b50604082015181600201908161056c91906131f7565b50606082015181600301908161058291906131f7565b506080820151816004015f6101000a81548173ffffffffffffffffffffffffffffffffffffffff021916908373ffffffffffffffffffffffffffffffffffffffff16021790555060a0820151816005015560c0820151816006015f6101000a81548160ff02191690831515021790555060e082015181600701908161060791906131f7565b5061010082015181600801908161061e91906131f7565b50610120820151816009015f6101000a81548160ff0219169083151502179055505050505050505050505050565b60015f9054906101000a900473ffffffffffffffffffffffffffffffffffffffff1681565b60028181548110610680575f80fd5b905f5260205f2090600a02015f91509050805f0154908060010180546106a590612f06565b80601f01602080910402602001604051908101604052809291908181526020018280546106d190612f06565b801561071c5780601f106106f35761010080835404028352916020019161071c565b820191905f5260205f20905b8154815290600101906020018083116106ff57829003601f168201915b50505050509080600201805461073190612f06565b80601f016020809104026020016040519081016040528092919081815260200182805461075d90612f06565b80156107a85780601f1061077f576101008083540402835291602001916107a8565b820191905f5260205f20905b81548152906001019060200180831161078b57829003601f168201915b5050505050908060030180546107bd90612f06565b80601f01602080910402602001604051908101604052809291908181526020018280546107e990612f06565b80156108345780601f1061080b57610100808354040283529160200191610834565b820191905f5260205f20905b81548152906001019060200180831161081757829003601f168201915b505050505090806004015f9054906101000a900473ffffffffffffffffffffffffffffffffffffffff1690806005015490806006015f9054906101000a900460ff169080600701805461088690612f06565b80601f01602080910402602001604051908101604052809291908181526020018280546108b290612f06565b80156108fd5780601f106108d4576101008083540402835291602001916108fd565b820191905f5260205f20905b8154815290600101906020018083116108e057829003601f168201915b50505050509080600801805461091290612f06565b80601f016020809104026020016040519081016040528092919081815260200182805461093e90612f06565b80156109895780601f1061096057610100808354040283529160200191610989565b820191905f5260205f20905b81548152906001019060200180831161096c57829003601f168201915b505050505090806009015f9054906101000a900460ff1690508a565b60605f805b600280549050811015610a4857836040516020016109c89190612ec3565b60405160208183030381529060405280519060200120600282815481106109f2576109f1612e5c565b5b905f5260205f2090600a0201600101604051602001610a119190612fc8565b6040516020818303038152906040528051906020012003610a3b578180610a37906132f3565b9250505b80806001019150506109aa565b505f8167ffffffffffffffff811115610a6457610a6361260a565b5b604051908082528060200260200182016040528015610a9d57816020015b610a8a61251f565b815260200190600190039081610a825790505b5090505f91505f5b600280549050811015610ef95784604051602001610ac39190612ec3565b6040516020818303038152906040528051906020012060028281548110610aed57610aec612e5c565b5b905f5260205f2090600a0201600101604051602001610b0c9190612fc8565b6040516020818303038152906040528051906020012003610eec5760028181548110610b3b57610b3a612e5c565b5b905f5260205f2090600a0201604051806101400160405290815f8201548152602001600182018054610b6c90612f06565b80601f0160208091040260200160405190810160405280929190818152602001828054610b9890612f06565b8015610be35780601f10610bba57610100808354040283529160200191610be3565b820191905f5260205f20905b815481529060010190602001808311610bc657829003601f168201915b50505050508152602001600282018054610bfc90612f06565b80601f0160208091040260200160405190810160405280929190818152602001828054610c2890612f06565b8015610c735780601f10610c4a57610100808354040283529160200191610c73565b820191905f5260205f20905b815481529060010190602001808311610c5657829003601f168201915b50505050508152602001600382018054610c8c90612f06565b80601f0160208091040260200160405190810160405280929190818152602001828054610cb890612f06565b8015610d035780601f10610cda57610100808354040283529160200191610d03565b820191905f5260205f20905b815481529060010190602001808311610ce657829003601f168201915b50505050508152602001600482015f9054906101000a900473ffffffffffffffffffffffffffffffffffffffff1673ffffffffffffffffffffffffffffffffffffffff1673ffffffffffffffffffffffffffffffffffffffff16815260200160058201548152602001600682015f9054906101000a900460ff16151515158152602001600782018054610d9590612f06565b80601f0160208091040260200160405190810160405280929190818152602001828054610dc190612f06565b8015610e0c5780601f10610de357610100808354040283529160200191610e0c565b820191905f5260205f20905b815481529060010190602001808311610def57829003601f168201915b50505050508152602001600882018054610e2590612f06565b80601f0160208091040260200160405190810160405280929190818152602001828054610e5190612f06565b8015610e9c5780601f10610e7357610100808354040283529160200191610e9c565b820191905f5260205f20905b815481529060010190602001808311610e7f57829003601f168201915b50505050508152602001600982015f9054906101000a900460ff161515151581525050828481518110610ed257610ed1612e5c565b5b60200260200101819052508280610ee8906132f3565b9350505b8080600101915050610aa5565b508092505050919050565b5f8054906101000a900473ffffffffffffffffffffffffffffffffffffffff1673ffffffffffffffffffffffffffffffffffffffff163373ffffffffffffffffffffffffffffffffffffffff1614610f91576040517f08c379a0000000000000000000000000000000000000000000000000000000008152600401610f8890613384565b60405180910390fd5b8060015f6101000a81548173ffffffffffffffffffffffffffffffffffffffff021916908373ffffffffffffffffffffffffffffffffffffffff16021790555050565b60606002805480602002602001604051908101604052809291908181526020015f905b82821015611394578382905f5260205f2090600a0201604051806101400160405290815f820154815260200160018201805461103290612f06565b80601f016020809104026020016040519081016040528092919081815260200182805461105e90612f06565b80156110a95780601f10611080576101008083540402835291602001916110a9565b820191905f5260205f20905b81548152906001019060200180831161108c57829003601f168201915b505050505081526020016002820180546110c290612f06565b80601f01602080910402602001604051908101604052809291908181526020018280546110ee90612f06565b80156111395780601f1061111057610100808354040283529160200191611139565b820191905f5260205f20905b81548152906001019060200180831161111c57829003601f168201915b5050505050815260200160038201805461115290612f06565b80601f016020809104026020016040519081016040528092919081815260200182805461117e90612f06565b80156111c95780601f106111a0576101008083540402835291602001916111c9565b820191905f5260205f20905b8154815290600101906020018083116111ac57829003601f168201915b50505050508152602001600482015f9054906101000a900473ffffffffffffffffffffffffffffffffffffffff1673ffffffffffffffffffffffffffffffffffffffff1673ffffffffffffffffffffffffffffffffffffffff16815260200160058201548152602001600682015f9054906101000a900460ff1615151515815260200160078201805461125b90612f06565b80601f016020809104026020016040519081016040528092919081815260200182805461128790612f06565b80156112d25780601f106112a9576101008083540402835291602001916112d2565b820191905f5260205f20905b8154815290600101906020018083116112b557829003601f168201915b505050505081526020016008820180546112eb90612f06565b80601f016020809104026020016040519081016040528092919081815260200182805461131790612f06565b80156113625780601f1061133957610100808354040283529160200191611362565b820191905f5260205f20905b81548152906001019060200180831161134557829003601f168201915b50505050508152602001600982015f9054906101000a900460ff16151515158152505081526020019060010190610ff7565b50505050905090565b60605f805b60028054905081101561144057836040516020016113c09190612ec3565b60405160208183030381529060405280519060200120600282815481106113ea576113e9612e5c565b5b905f5260205f2090600a02016002016040516020016114099190612fc8565b604051602081830303815290604052805190602001200361143357818061142f906132f3565b9250505b80806001019150506113a2565b505f8167ffffffffffffffff81111561145c5761145b61260a565b5b60405190808252806020026020018201604052801561149557816020015b61148261251f565b81526020019060019003908161147a5790505b5090505f91505f5b6002805490508110156118f157846040516020016114bb9190612ec3565b60405160208183030381529060405280519060200120600282815481106114e5576114e4612e5c565b5b905f5260205f2090600a02016002016040516020016115049190612fc8565b60405160208183030381529060405280519060200120036118e4576002818154811061153357611532612e5c565b5b905f5260205f2090600a0201604051806101400160405290815f820154815260200160018201805461156490612f06565b80601f016020809104026020016040519081016040528092919081815260200182805461159090612f06565b80156115db5780601f106115b2576101008083540402835291602001916115db565b820191905f5260205f20905b8154815290600101906020018083116115be57829003601f168201915b505050505081526020016002820180546115f490612f06565b80601f016020809104026020016040519081016040528092919081815260200182805461162090612f06565b801561166b5780601f106116425761010080835404028352916020019161166b565b820191905f5260205f20905b81548152906001019060200180831161164e57829003601f168201915b5050505050815260200160038201805461168490612f06565b80601f01602080910402602001604051908101604052809291908181526020018280546116b090612f06565b80156116fb5780601f106116d2576101008083540402835291602001916116fb565b820191905f5260205f20905b8154815290600101906020018083116116de57829003601f168201915b50505050508152602001600482015f9054906101000a900473ffffffffffffffffffffffffffffffffffffffff1673ffffffffffffffffffffffffffffffffffffffff1673ffffffffffffffffffffffffffffffffffffffff16815260200160058201548152602001600682015f9054906101000a900460ff1615151515815260200160078201805461178d90612f06565b80601f01602080910402602001604051908101604052809291908181526020018280546117b990612f06565b80156118045780601f106117db57610100808354040283529160200191611804565b820191905f5260205f20905b8154815290600101906020018083116117e757829003601f168201915b5050505050815260200160088201805461181d90612f06565b80601f016020809104026020016040519081016040528092919081815260200182805461184990612f06565b80156118945780601f1061186b57610100808354040283529160200191611894565b820191905f5260205f20905b81548152906001019060200180831161187757829003601f168201915b50505050508152602001600982015f9054906101000a900460ff1615151515815250508284815181106118ca576118c9612e5c565b5b602002602001018190525082806118e0906132f3565b9350505b808060010191505061149d565b508092505050919050565b5f5b6002805490508110156119fa578260405160200161191c9190612ec3565b604051602081830303815290604052805190602001206002828154811061194657611945612e5c565b5b905f5260205f2090600a02016001016040516020016119659190612fc8565b60405160208183030381529060405280519060200120036119ed5760016002828154811061199657611995612e5c565b5b905f5260205f2090600a02016006015f6101000a81548160ff02191690831515021790555081600282815481106119d0576119cf612e5c565b5b905f5260205f2090600a020160080190816119eb91906131f7565b505b80806001019150506118fe565b505050565b60605f805b600280549050811015611aa25783604051602001611a229190612ec3565b6040516020818303038152906040528051906020012060028281548110611a4c57611a4b612e5c565b5b905f5260205f2090600a0201600101604051602001611a6b9190612fc8565b6040516020818303038152906040528051906020012003611a95578180611a91906132f3565b9250505b8080600101915050611a04565b505f8167ffffffffffffffff811115611abe57611abd61260a565b5b604051908082528060200260200182016040528015611af757816020015b611ae461251f565b815260200190600190039081611adc5790505b5090505f91505f5b600280549050811015611f925784604051602001611b1d9190612ec3565b6040516020818303038152906040528051906020012060028281548110611b4757611b46612e5c565b5b905f5260205f2090600a0201600101604051602001611b669190612fc8565b60405160208183030381529060405280519060200120148015611bbb57505f151560028281548110611b9b57611b9a612e5c565b5b905f5260205f2090600a02016006015f9054906101000a900460ff161515145b15611f855760028181548110611bd457611bd3612e5c565b5b905f5260205f2090600a0201604051806101400160405290815f8201548152602001600182018054611c0590612f06565b80601f0160208091040260200160405190810160405280929190818152602001828054611c3190612f06565b8015611c7c5780601f10611c5357610100808354040283529160200191611c7c565b820191905f5260205f20905b815481529060010190602001808311611c5f57829003601f168201915b50505050508152602001600282018054611c9590612f06565b80601f0160208091040260200160405190810160405280929190818152602001828054611cc190612f06565b8015611d0c5780601f10611ce357610100808354040283529160200191611d0c565b820191905f5260205f20905b815481529060010190602001808311611cef57829003601f168201915b50505050508152602001600382018054611d2590612f06565b80601f0160208091040260200160405190810160405280929190818152602001828054611d5190612f06565b8015611d9c5780601f10611d7357610100808354040283529160200191611d9c565b820191905f5260205f20905b815481529060010190602001808311611d7f57829003601f168201915b50505050508152602001600482015f9054906101000a900473ffffffffffffffffffffffffffffffffffffffff1673ffffffffffffffffffffffffffffffffffffffff1673ffffffffffffffffffffffffffffffffffffffff16815260200160058201548152602001600682015f9054906101000a900460ff16151515158152602001600782018054611e2e90612f06565b80601f0160208091040260200160405190810160405280929190818152602001828054611e5a90612f06565b8015611ea55780601f10611e7c57610100808354040283529160200191611ea5565b820191905f5260205f20905b815481529060010190602001808311611e8857829003601f168201915b50505050508152602001600882018054611ebe90612f06565b80601f0160208091040260200160405190810160405280929190818152602001828054611eea90612f06565b8015611f355780601f10611f0c57610100808354040283529160200191611f35565b820191905f5260205f20905b815481529060010190602001808311611f1857829003601f168201915b50505050508152602001600982015f9054906101000a900460ff161515151581525050828481518110611f6b57611f6a612e5c565b5b60200260200101819052508280611f81906132f3565b9350505b8080600101915050611aff565b508092505050919050565b60605f805b6002805490508110156120405783604051602001611fc09190612ec3565b6040516020818303038152906040528051906020012060028281548110611fea57611fe9612e5c565b5b905f5260205f2090600a02016003016040516020016120099190612fc8565b604051602081830303815290604052805190602001200361203357818061202f906132f3565b9250505b8080600101915050611fa2565b505f8167ffffffffffffffff81111561205c5761205b61260a565b5b60405190808252806020026020018201604052801561209557816020015b61208261251f565b81526020019060019003908161207a5790505b5090505f91505f5b6002805490508110156124f157846040516020016120bb9190612ec3565b60405160208183030381529060405280519060200120600282815481106120e5576120e4612e5c565b5b905f5260205f2090600a02016003016040516020016121049190612fc8565b60405160208183030381529060405280519060200120036124e4576002818154811061213357612132612e5c565b5b905f5260205f2090600a0201604051806101400160405290815f820154815260200160018201805461216490612f06565b80601f016020809104026020016040519081016040528092919081815260200182805461219090612f06565b80156121db5780601f106121b2576101008083540402835291602001916121db565b820191905f5260205f20905b8154815290600101906020018083116121be57829003601f168201915b505050505081526020016002820180546121f490612f06565b80601f016020809104026020016040519081016040528092919081815260200182805461222090612f06565b801561226b5780601f106122425761010080835404028352916020019161226b565b820191905f5260205f20905b81548152906001019060200180831161224e57829003601f168201915b5050505050815260200160038201805461228490612f06565b80601f01602080910402602001604051908101604052809291908181526020018280546122b090612f06565b80156122fb5780601f106122d2576101008083540402835291602001916122fb565b820191905f5260205f20905b8154815290600101906020018083116122de57829003601f168201915b50505050508152602001600482015f9054906101000a900473ffffffffffffffffffffffffffffffffffffffff1673ffffffffffffffffffffffffffffffffffffffff1673ffffffffffffffffffffffffffffffffffffffff16815260200160058201548152602001600682015f9054906101000a900460ff1615151515815260200160078201805461238d90612f06565b80601f01602080910402602001604051908101604052809291908181526020018280546123b990612f06565b80156124045780601f106123db57610100808354040283529160200191612404565b820191905f5260205f20905b8154815290600101906020018083116123e757829003601f168201915b5050505050815260200160088201805461241d90612f06565b80601f016020809104026020016040519081016040528092919081815260200182805461244990612f06565b80156124945780601f1061246b57610100808354040283529160200191612494565b820191905f5260205f20905b81548152906001019060200180831161247757829003601f168201915b50505050508152602001600982015f9054906101000a900460ff1615151515815250508284815181106124ca576124c9612e5c565b5b602002602001018190525082806124e0906132f3565b9350505b808060010191505061209d565b508092505050919050565b5f8054906101000a900473ffffffffffffffffffffffffffffffffffffffff1681565b6040518061014001604052805f81526020016060815260200160608152602001606081526020015f73ffffffffffffffffffffffffffffffffffffffff1681526020015f81526020015f1515815260200160608152602001606081526020015f151581525090565b5f604051905090565b5f80fd5b5f80fd5b5f73ffffffffffffffffffffffffffffffffffffffff82169050919050565b5f6125c182612598565b9050919050565b6125d1816125b7565b81146125db575f80fd5b50565b5f813590506125ec816125c8565b92915050565b5f80fd5b5f80fd5b5f601f19601f8301169050919050565b7f4e487b71000000000000000000000000000000000000000000000000000000005f52604160045260245ffd5b612640826125fa565b810181811067ffffffffffffffff8211171561265f5761265e61260a565b5b80604052505050565b5f612671612587565b905061267d8282612637565b919050565b5f67ffffffffffffffff82111561269c5761269b61260a565b5b6126a5826125fa565b9050602081019050919050565b828183375f83830152505050565b5f6126d26126cd84612682565b612668565b9050828152602081018484840111156126ee576126ed6125f6565b5b6126f98482856126b2565b509392505050565b5f82601f830112612715576127146125f2565b5b81356127258482602086016126c0565b91505092915050565b5f806040838503121561274457612743612590565b5b5f612751858286016125de565b925050602083013567ffffffffffffffff81111561277257612771612594565b5b61277e85828601612701565b9150509250929050565b5f8115159050919050565b61279c81612788565b82525050565b5f6020820190506127b55f830184612793565b92915050565b5f819050919050565b6127cd816127bb565b81146127d7575f80fd5b50565b5f813590506127e8816127c4565b92915050565b6127f781612788565b8114612801575f80fd5b50565b5f81359050612812816127ee565b92915050565b5f805f805f805f80610100898b03121561283557612834612590565b5b5f6128428b828c016127da565b985050602089013567ffffffffffffffff81111561286357612862612594565b5b61286f8b828c01612701565b975050604089013567ffffffffffffffff8111156128905761288f612594565b5b61289c8b828c01612701565b965050606089013567ffffffffffffffff8111156128bd576128bc612594565b5b6128c98b828c01612701565b95505060806128da8b828c016125de565b94505060a06128eb8b828c016127da565b93505060c089013567ffffffffffffffff81111561290c5761290b612594565b5b6129188b828c01612701565b92505060e06129298b828c01612804565b9150509295985092959890939650565b612942816125b7565b82525050565b5f60208201905061295b5f830184612939565b92915050565b5f6020828403121561297657612975612590565b5b5f612983848285016127da565b91505092915050565b612995816127bb565b82525050565b5f81519050919050565b5f82825260208201905092915050565b5f5b838110156129d25780820151818401526020810190506129b7565b5f8484015250505050565b5f6129e78261299b565b6129f181856129a5565b9350612a018185602086016129b5565b612a0a816125fa565b840191505092915050565b5f61014082019050612a295f83018d61298c565b8181036020830152612a3b818c6129dd565b90508181036040830152612a4f818b6129dd565b90508181036060830152612a63818a6129dd565b9050612a726080830189612939565b612a7f60a083018861298c565b612a8c60c0830187612793565b81810360e0830152612a9e81866129dd565b9050818103610100830152612ab381856129dd565b9050612ac3610120830184612793565b9b9a5050505050505050505050565b5f60208284031215612ae757612ae6612590565b5b5f82013567ffffffffffffffff811115612b0457612b03612594565b5b612b1084828501612701565b91505092915050565b5f81519050919050565b5f82825260208201905092915050565b5f819050602082019050919050565b612b4b816127bb565b82525050565b5f82825260208201905092915050565b5f612b6b8261299b565b612b758185612b51565b9350612b858185602086016129b5565b612b8e816125fa565b840191505092915050565b612ba2816125b7565b82525050565b612bb181612788565b82525050565b5f61014083015f830151612bcd5f860182612b42565b5060208301518482036020860152612be58282612b61565b91505060408301518482036040860152612bff8282612b61565b91505060608301518482036060860152612c198282612b61565b9150506080830151612c2e6080860182612b99565b5060a0830151612c4160a0860182612b42565b5060c0830151612c5460c0860182612ba8565b5060e083015184820360e0860152612c6c8282612b61565b915050610100830151848203610100860152612c888282612b61565b915050610120830151612c9f610120860182612ba8565b508091505092915050565b5f612cb58383612bb7565b905092915050565b5f602082019050919050565b5f612cd382612b19565b612cdd8185612b23565b935083602082028501612cef85612b33565b805f5b85811015612d2a5784840389528151612d0b8582612caa565b9450612d1683612cbd565b925060208a01995050600181019050612cf2565b50829750879550505050505092915050565b5f6020820190508181035f830152612d548184612cc9565b905092915050565b5f60208284031215612d7157612d70612590565b5b5f612d7e848285016125de565b91505092915050565b5f8060408385031215612d9d57612d9c612590565b5b5f83013567ffffffffffffffff811115612dba57612db9612594565b5b612dc685828601612701565b925050602083013567ffffffffffffffff811115612de757612de6612594565b5b612df385828601612701565b9150509250929050565b5f8160601b9050919050565b5f612e1382612dfd565b9050919050565b5f612e2482612e09565b9050919050565b612e3c612e37826125b7565b612e1a565b82525050565b5f612e4d8284612e2b565b60148201915081905092915050565b7f4e487b71000000000000000000000000000000000000000000000000000000005f52603260045260245ffd5b5f81905092915050565b5f612e9d8261299b565b612ea78185612e89565b9350612eb78185602086016129b5565b80840191505092915050565b5f612ece8284612e93565b915081905092915050565b7f4e487b71000000000000000000000000000000000000000000000000000000005f52602260045260245ffd5b5f6002820490506001821680612f1d57607f821691505b602082108103612f3057612f2f612ed9565b5b50919050565b5f819050815f5260205f209050919050565b5f8154612f5481612f06565b612f5e8186612e89565b9450600182165f8114612f785760018114612f8d57612fbf565b60ff1983168652811515820286019350612fbf565b612f9685612f36565b5f5b83811015612fb757815481890152600182019150602081019050612f98565b838801955050505b50505092915050565b5f612fd38284612f48565b915081905092915050565b7f4f6e6c792063616d706169676e20636f6e74726163742063616c6c20746869735f8201527f2066756e6374696f6e0000000000000000000000000000000000000000000000602082015250565b5f6130386029836129a5565b915061304382612fde565b604082019050919050565b5f6020820190508181035f8301526130658161302c565b9050919050565b5f6020601f8301049050919050565b5f82821b905092915050565b5f600883026130b67fffffffffffffffffffffffffffffffffffffffffffffffffffffffffffffffff8261307b565b6130c0868361307b565b95508019841693508086168417925050509392505050565b5f819050919050565b5f6130fb6130f66130f1846127bb565b6130d8565b6127bb565b9050919050565b5f819050919050565b613114836130e1565b61312861312082613102565b848454613087565b825550505050565b5f90565b61313c613130565b61314781848461310b565b505050565b5b8181101561316a5761315f5f82613134565b60018101905061314d565b5050565b601f8211156131af5761318081612f36565b6131898461306c565b81016020851015613198578190505b6131ac6131a48561306c565b83018261314c565b50505b505050565b5f82821c905092915050565b5f6131cf5f19846008026131b4565b1980831691505092915050565b5f6131e783836131c0565b9150826002028217905092915050565b6132008261299b565b67ffffffffffffffff8111156132195761321861260a565b5b6132238254612f06565b61322e82828561316e565b5f60209050601f83116001811461325f575f841561324d578287015190505b61325785826131dc565b8655506132be565b601f19841661326d86612f36565b5f5b828110156132945784890151825560018201915060208501945060208101905061326f565b868310156132b157848901516132ad601f8916826131c0565b8355505b6001600288020188555050505b505050505050565b7f4e487b71000000000000000000000000000000000000000000000000000000005f52601160045260245ffd5b5f6132fd826127bb565b91507fffffffffffffffffffffffffffffffffffffffffffffffffffffffffffffffff820361332f5761332e6132c6565b5b600182019050919050565b7f4f6e6c79206465706c6f7965722063616c6c20746869732066756e6374696f6e5f82015250565b5f61336e6020836129a5565b91506133798261333a565b602082019050919050565b5f6020820190508181035f83015261339b81613362565b905091905056fea2646970667358221220c5cd926158673d31300d3b6b4cbc0bc119ba613e28ad463d3f7583344ed761e664736f6c63430008160033",
					"opcodes": "PUSH1 0x80 PUSH1 0x40 MSTORE CALLVALUE DUP1 ISZERO PUSH2 0xF JUMPI PUSH0 DUP1 REVERT JUMPDEST POP CALLER PUSH0 DUP1 PUSH2 0x100 EXP DUP2 SLOAD DUP2 PUSH20 0xFFFFFFFFFFFFFFFFFFFFFFFFFFFFFFFFFFFFFFFF MUL NOT AND SWAP1 DUP4 PUSH20 0xFFFFFFFFFFFFFFFFFFFFFFFFFFFFFFFFFFFFFFFF AND MUL OR SWAP1 SSTORE POP PUSH2 0x33D8 DUP1 PUSH2 0x5C PUSH0 CODECOPY PUSH0 RETURN INVALID PUSH1 0x80 PUSH1 0x40 MSTORE CALLVALUE DUP1 ISZERO PUSH2 0xF JUMPI PUSH0 DUP1 REVERT JUMPDEST POP PUSH1 0x4 CALLDATASIZE LT PUSH2 0xB2 JUMPI PUSH0 CALLDATALOAD PUSH1 0xE0 SHR DUP1 PUSH4 0xADD6415D GT PUSH2 0x6F JUMPI DUP1 PUSH4 0xADD6415D EQ PUSH2 0x1A5 JUMPI DUP1 PUSH4 0xB6B52CCD EQ PUSH2 0x1C3 JUMPI DUP1 PUSH4 0xB6F1CF93 EQ PUSH2 0x1F3 JUMPI DUP1 PUSH4 0xD740BB6C EQ PUSH2 0x20F JUMPI DUP1 PUSH4 0xE3726D66 EQ PUSH2 0x23F JUMPI DUP1 PUSH4 0xEFDEE94F EQ PUSH2 0x26F JUMPI PUSH2 0xB2 JUMP JUMPDEST DUP1 PUSH4 0x48FA3A7 EQ PUSH2 0xB6 JUMPI DUP1 PUSH4 0x147598C5 EQ PUSH2 0xE6 JUMPI DUP1 PUSH4 0x671F18F7 EQ PUSH2 0x102 JUMPI DUP1 PUSH4 0x92AD672F EQ PUSH2 0x120 JUMPI DUP1 PUSH4 0x99B3E96A EQ PUSH2 0x159 JUMPI DUP1 PUSH4 0xA3306AE3 EQ PUSH2 0x189 JUMPI JUMPDEST PUSH0 DUP1 REVERT JUMPDEST PUSH2 0xD0 PUSH1 0x4 DUP1 CALLDATASIZE SUB DUP2 ADD SWAP1 PUSH2 0xCB SWAP2 SWAP1 PUSH2 0x272E JUMP JUMPDEST PUSH2 0x28D JUMP JUMPDEST PUSH1 0x40 MLOAD PUSH2 0xDD SWAP2 SWAP1 PUSH2 0x27A2 JUMP JUMPDEST PUSH1 0x40 MLOAD DUP1 SWAP2 SUB SWAP1 RETURN JUMPDEST PUSH2 0x100 PUSH1 0x4 DUP1 CALLDATASIZE SUB DUP2 ADD SWAP1 PUSH2 0xFB SWAP2 SWAP1 PUSH2 0x2818 JUMP JUMPDEST PUSH2 0x3D1 JUMP JUMPDEST STOP JUMPDEST PUSH2 0x10A PUSH2 0x64C JUMP JUMPDEST PUSH1 0x40 MLOAD PUSH2 0x117 SWAP2 SWAP1 PUSH2 0x2948 JUMP JUMPDEST PUSH1 0x40 MLOAD DUP1 SWAP2 SUB SWAP1 RETURN JUMPDEST PUSH2 0x13A PUSH1 0x4 DUP1 CALLDATASIZE SUB DUP2 ADD SWAP1 PUSH2 0x135 SWAP2 SWAP1 PUSH2 0x2961 JUMP JUMPDEST PUSH2 0x671 JUMP JUMPDEST PUSH1 0x40 MLOAD PUSH2 0x150 SWAP11 SWAP10 SWAP9 SWAP8 SWAP7 SWAP6 SWAP5 SWAP4 SWAP3 SWAP2 SWAP1 PUSH2 0x2A15 JUMP JUMPDEST PUSH1 0x40 MLOAD DUP1 SWAP2 SUB SWAP1 RETURN JUMPDEST PUSH2 0x173 PUSH1 0x4 DUP1 CALLDATASIZE SUB DUP2 ADD SWAP1 PUSH2 0x16E SWAP2 SWAP1 PUSH2 0x2AD2 JUMP JUMPDEST PUSH2 0x9A5 JUMP JUMPDEST PUSH1 0x40 MLOAD PUSH2 0x180 SWAP2 SWAP1 PUSH2 0x2D3C JUMP JUMPDEST PUSH1 0x40 MLOAD DUP1 SWAP2 SUB SWAP1 RETURN JUMPDEST PUSH2 0x1A3 PUSH1 0x4 DUP1 CALLDATASIZE SUB DUP2 ADD SWAP1 PUSH2 0x19E SWAP2 SWAP1 PUSH2 0x2D5C JUMP JUMPDEST PUSH2 0xF04 JUMP JUMPDEST STOP JUMPDEST PUSH2 0x1AD PUSH2 0xFD4 JUMP JUMPDEST PUSH1 0x40 MLOAD PUSH2 0x1BA SWAP2 SWAP1 PUSH2 0x2D3C JUMP JUMPDEST PUSH1 0x40 MLOAD DUP1 SWAP2 SUB SWAP1 RETURN JUMPDEST PUSH2 0x1DD PUSH1 0x4 DUP1 CALLDATASIZE SUB DUP2 ADD SWAP1 PUSH2 0x1D8 SWAP2 SWAP1 PUSH2 0x2AD2 JUMP JUMPDEST PUSH2 0x139D JUMP JUMPDEST PUSH1 0x40 MLOAD PUSH2 0x1EA SWAP2 SWAP1 PUSH2 0x2D3C JUMP JUMPDEST PUSH1 0x40 MLOAD DUP1 SWAP2 SUB SWAP1 RETURN JUMPDEST PUSH2 0x20D PUSH1 0x4 DUP1 CALLDATASIZE SUB DUP2 ADD SWAP1 PUSH2 0x208 SWAP2 SWAP1 PUSH2 0x2D87 JUMP JUMPDEST PUSH2 0x18FC JUMP JUMPDEST STOP JUMPDEST PUSH2 0x229 PUSH1 0x4 DUP1 CALLDATASIZE SUB DUP2 ADD SWAP1 PUSH2 0x224 SWAP2 SWAP1 PUSH2 0x2AD2 JUMP JUMPDEST PUSH2 0x19FF JUMP JUMPDEST PUSH1 0x40 MLOAD PUSH2 0x236 SWAP2 SWAP1 PUSH2 0x2D3C JUMP JUMPDEST PUSH1 0x40 MLOAD DUP1 SWAP2 SUB SWAP1 RETURN JUMPDEST PUSH2 0x259 PUSH1 0x4 DUP1 CALLDATASIZE SUB DUP2 ADD SWAP1 PUSH2 0x254 SWAP2 SWAP1 PUSH2 0x2AD2 JUMP JUMPDEST PUSH2 0x1F9D JUMP JUMPDEST PUSH1 0x40 MLOAD PUSH2 0x266 SWAP2 SWAP1 PUSH2 0x2D3C JUMP JUMPDEST PUSH1 0x40 MLOAD DUP1 SWAP2 SUB SWAP1 RETURN JUMPDEST PUSH2 0x277 PUSH2 0x24FC JUMP JUMPDEST PUSH1 0x40 MLOAD PUSH2 0x284 SWAP2 SWAP1 PUSH2 0x2948 JUMP JUMPDEST PUSH1 0x40 MLOAD DUP1 SWAP2 SUB SWAP1 RETURN JUMPDEST PUSH0 DUP1 PUSH0 SWAP1 POP JUMPDEST PUSH1 0x2 DUP1 SLOAD SWAP1 POP DUP2 LT ISZERO PUSH2 0x3C6 JUMPI DUP4 PUSH1 0x40 MLOAD PUSH1 0x20 ADD PUSH2 0x2B1 SWAP2 SWAP1 PUSH2 0x2E42 JUMP JUMPDEST PUSH1 0x40 MLOAD PUSH1 0x20 DUP2 DUP4 SUB SUB DUP2 MSTORE SWAP1 PUSH1 0x40 MSTORE DUP1 MLOAD SWAP1 PUSH1 0x20 ADD KECCAK256 PUSH1 0x2 DUP3 DUP2 SLOAD DUP2 LT PUSH2 0x2DB JUMPI PUSH2 0x2DA PUSH2 0x2E5C JUMP JUMPDEST JUMPDEST SWAP1 PUSH0 MSTORE PUSH1 0x20 PUSH0 KECCAK256 SWAP1 PUSH1 0xA MUL ADD PUSH1 0x4 ADD PUSH0 SWAP1 SLOAD SWAP1 PUSH2 0x100 EXP SWAP1 DIV PUSH20 0xFFFFFFFFFFFFFFFFFFFFFFFFFFFFFFFFFFFFFFFF AND PUSH1 0x40 MLOAD PUSH1 0x20 ADD PUSH2 0x31A SWAP2 SWAP1 PUSH2 0x2E42 JUMP JUMPDEST PUSH1 0x40 MLOAD PUSH1 0x20 DUP2 DUP4 SUB SUB DUP2 MSTORE SWAP1 PUSH1 0x40 MSTORE DUP1 MLOAD SWAP1 PUSH1 0x20 ADD KECCAK256 EQ DUP1 ISZERO PUSH2 0x3AA JUMPI POP DUP3 PUSH1 0x40 MLOAD PUSH1 0x20 ADD PUSH2 0x349 SWAP2 SWAP1 PUSH2 0x2EC3 JUMP JUMPDEST PUSH1 0x40 MLOAD PUSH1 0x20 DUP2 DUP4 SUB SUB DUP2 MSTORE SWAP1 PUSH1 0x40 MSTORE DUP1 MLOAD SWAP1 PUSH1 0x20 ADD KECCAK256 PUSH1 0x2 DUP3 DUP2 SLOAD DUP2 LT PUSH2 0x373 JUMPI PUSH2 0x372 PUSH2 0x2E5C JUMP JUMPDEST JUMPDEST SWAP1 PUSH0 MSTORE PUSH1 0x20 PUSH0 KECCAK256 SWAP1 PUSH1 0xA MUL ADD PUSH1 0x1 ADD PUSH1 0x40 MLOAD PUSH1 0x20 ADD PUSH2 0x392 SWAP2 SWAP1 PUSH2 0x2FC8 JUMP JUMPDEST PUSH1 0x40 MLOAD PUSH1 0x20 DUP2 DUP4 SUB SUB DUP2 MSTORE SWAP1 PUSH1 0x40 MSTORE DUP1 MLOAD SWAP1 PUSH1 0x20 ADD KECCAK256 EQ JUMPDEST ISZERO PUSH2 0x3B9 JUMPI PUSH1 0x1 SWAP2 POP POP PUSH2 0x3CB JUMP JUMPDEST DUP1 DUP1 PUSH1 0x1 ADD SWAP2 POP POP PUSH2 0x293 JUMP JUMPDEST POP PUSH0 SWAP1 POP JUMPDEST SWAP3 SWAP2 POP POP JUMP JUMPDEST PUSH1 0x1 PUSH0 SWAP1 SLOAD SWAP1 PUSH2 0x100 EXP SWAP1 DIV PUSH20 0xFFFFFFFFFFFFFFFFFFFFFFFFFFFFFFFFFFFFFFFF AND PUSH20 0xFFFFFFFFFFFFFFFFFFFFFFFFFFFFFFFFFFFFFFFF AND CALLER PUSH20 0xFFFFFFFFFFFFFFFFFFFFFFFFFFFFFFFFFFFFFFFF AND EQ PUSH2 0x460 JUMPI PUSH1 0x40 MLOAD PUSH32 0x8C379A000000000000000000000000000000000000000000000000000000000 DUP2 MSTORE PUSH1 0x4 ADD PUSH2 0x457 SWAP1 PUSH2 0x304E JUMP JUMPDEST PUSH1 0x40 MLOAD DUP1 SWAP2 SUB SWAP1 REVERT JUMPDEST PUSH2 0x468 PUSH2 0x251F JUMP JUMPDEST DUP9 DUP2 PUSH0 ADD DUP2 DUP2 MSTORE POP POP DUP8 DUP2 PUSH1 0x20 ADD DUP2 SWAP1 MSTORE POP DUP7 DUP2 PUSH1 0x40 ADD DUP2 SWAP1 MSTORE POP DUP6 DUP2 PUSH1 0x60 ADD DUP2 SWAP1 MSTORE POP DUP5 DUP2 PUSH1 0x80 ADD SWAP1 PUSH20 0xFFFFFFFFFFFFFFFFFFFFFFFFFFFFFFFFFFFFFFFF AND SWAP1 DUP2 PUSH20 0xFFFFFFFFFFFFFFFFFFFFFFFFFFFFFFFFFFFFFFFF AND DUP2 MSTORE POP POP DUP4 DUP2 PUSH1 0xA0 ADD DUP2 DUP2 MSTORE POP POP PUSH0 DUP2 PUSH1 0xC0 ADD SWAP1 ISZERO ISZERO SWAP1 DUP2 ISZERO ISZERO DUP2 MSTORE POP POP DUP3 DUP2 PUSH1 0xE0 ADD DUP2 SWAP1 MSTORE POP PUSH1 0x40 MLOAD DUP1 PUSH1 0x20 ADD PUSH1 0x40 MSTORE DUP1 PUSH0 DUP2 MSTORE POP DUP2 PUSH2 0x100 ADD DUP2 SWAP1 MSTORE POP DUP2 DUP2 PUSH2 0x120 ADD SWAP1 ISZERO ISZERO SWAP1 DUP2 ISZERO ISZERO DUP2 MSTORE POP POP PUSH1 0x2 DUP2 SWAP1 DUP1 PUSH1 0x1 DUP2 SLOAD ADD DUP1 DUP3 SSTORE DUP1 SWAP2 POP POP PUSH1 0x1 SWAP1 SUB SWAP1 PUSH0 MSTORE PUSH1 0x20 PUSH0 KECCAK256 SWAP1 PUSH1 0xA MUL ADD PUSH0 SWAP1 SWAP2 SWAP1 SWAP2 SWAP1 SWAP2 POP PUSH0 DUP3 ADD MLOAD DUP2 PUSH0 ADD SSTORE PUSH1 0x20 DUP3 ADD MLOAD DUP2 PUSH1 0x1 ADD SWAP1 DUP2 PUSH2 0x556 SWAP2 SWAP1 PUSH2 0x31F7 JUMP JUMPDEST POP PUSH1 0x40 DUP3 ADD MLOAD DUP2 PUSH1 0x2 ADD SWAP1 DUP2 PUSH2 0x56C SWAP2 SWAP1 PUSH2 0x31F7 JUMP JUMPDEST POP PUSH1 0x60 DUP3 ADD MLOAD DUP2 PUSH1 0x3 ADD SWAP1 DUP2 PUSH2 0x582 SWAP2 SWAP1 PUSH2 0x31F7 JUMP JUMPDEST POP PUSH1 0x80 DUP3 ADD MLOAD DUP2 PUSH1 0x4 ADD PUSH0 PUSH2 0x100 EXP DUP2 SLOAD DUP2 PUSH20 0xFFFFFFFFFFFFFFFFFFFFFFFFFFFFFFFFFFFFFFFF MUL NOT AND SWAP1 DUP4 PUSH20 0xFFFFFFFFFFFFFFFFFFFFFFFFFFFFFFFFFFFFFFFF AND MUL OR SWAP1 SSTORE POP PUSH1 0xA0 DUP3 ADD MLOAD DUP2 PUSH1 0x5 ADD SSTORE PUSH1 0xC0 DUP3 ADD MLOAD DUP2 PUSH1 0x6 ADD PUSH0 PUSH2 0x100 EXP DUP2 SLOAD DUP2 PUSH1 0xFF MUL NOT AND SWAP1 DUP4 ISZERO ISZERO MUL OR SWAP1 SSTORE POP PUSH1 0xE0 DUP3 ADD MLOAD DUP2 PUSH1 0x7 ADD SWAP1 DUP2 PUSH2 0x607 SWAP2 SWAP1 PUSH2 0x31F7 JUMP JUMPDEST POP PUSH2 0x100 DUP3 ADD MLOAD DUP2 PUSH1 0x8 ADD SWAP1 DUP2 PUSH2 0x61E SWAP2 SWAP1 PUSH2 0x31F7 JUMP JUMPDEST POP PUSH2 0x120 DUP3 ADD MLOAD DUP2 PUSH1 0x9 ADD PUSH0 PUSH2 0x100 EXP DUP2 SLOAD DUP2 PUSH1 0xFF MUL NOT AND SWAP1 DUP4 ISZERO ISZERO MUL OR SWAP1 SSTORE POP POP POP POP POP POP POP POP POP POP POP POP JUMP JUMPDEST PUSH1 0x1 PUSH0 SWAP1 SLOAD SWAP1 PUSH2 0x100 EXP SWAP1 DIV PUSH20 0xFFFFFFFFFFFFFFFFFFFFFFFFFFFFFFFFFFFFFFFF AND DUP2 JUMP JUMPDEST PUSH1 0x2 DUP2 DUP2 SLOAD DUP2 LT PUSH2 0x680 JUMPI PUSH0 DUP1 REVERT JUMPDEST SWAP1 PUSH0 MSTORE PUSH1 0x20 PUSH0 KECCAK256 SWAP1 PUSH1 0xA MUL ADD PUSH0 SWAP2 POP SWAP1 POP DUP1 PUSH0 ADD SLOAD SWAP1 DUP1 PUSH1 0x1 ADD DUP1 SLOAD PUSH2 0x6A5 SWAP1 PUSH2 0x2F06 JUMP JUMPDEST DUP1 PUSH1 0x1F ADD PUSH1 0x20 DUP1 SWAP2 DIV MUL PUSH1 0x20 ADD PUSH1 0x40 MLOAD SWAP1 DUP2 ADD PUSH1 0x40 MSTORE DUP1 SWAP3 SWAP2 SWAP1 DUP2 DUP2 MSTORE PUSH1 0x20 ADD DUP3 DUP1 SLOAD PUSH2 0x6D1 SWAP1 PUSH2 0x2F06 JUMP JUMPDEST DUP1 ISZERO PUSH2 0x71C JUMPI DUP1 PUSH1 0x1F LT PUSH2 0x6F3 JUMPI PUSH2 0x100 DUP1 DUP4 SLOAD DIV MUL DUP4 MSTORE SWAP2 PUSH1 0x20 ADD SWAP2 PUSH2 0x71C JUMP JUMPDEST DUP3 ADD SWAP2 SWAP1 PUSH0 MSTORE PUSH1 0x20 PUSH0 KECCAK256 SWAP1 JUMPDEST DUP2 SLOAD DUP2 MSTORE SWAP1 PUSH1 0x1 ADD SWAP1 PUSH1 0x20 ADD DUP1 DUP4 GT PUSH2 0x6FF JUMPI DUP3 SWAP1 SUB PUSH1 0x1F AND DUP3 ADD SWAP2 JUMPDEST POP POP POP POP POP SWAP1 DUP1 PUSH1 0x2 ADD DUP1 SLOAD PUSH2 0x731 SWAP1 PUSH2 0x2F06 JUMP JUMPDEST DUP1 PUSH1 0x1F ADD PUSH1 0x20 DUP1 SWAP2 DIV MUL PUSH1 0x20 ADD PUSH1 0x40 MLOAD SWAP1 DUP2 ADD PUSH1 0x40 MSTORE DUP1 SWAP3 SWAP2 SWAP1 DUP2 DUP2 MSTORE PUSH1 0x20 ADD DUP3 DUP1 SLOAD PUSH2 0x75D SWAP1 PUSH2 0x2F06 JUMP JUMPDEST DUP1 ISZERO PUSH2 0x7A8 JUMPI DUP1 PUSH1 0x1F LT PUSH2 0x77F JUMPI PUSH2 0x100 DUP1 DUP4 SLOAD DIV MUL DUP4 MSTORE SWAP2 PUSH1 0x20 ADD SWAP2 PUSH2 0x7A8 JUMP JUMPDEST DUP3 ADD SWAP2 SWAP1 PUSH0 MSTORE PUSH1 0x20 PUSH0 KECCAK256 SWAP1 JUMPDEST DUP2 SLOAD DUP2 MSTORE SWAP1 PUSH1 0x1 ADD SWAP1 PUSH1 0x20 ADD DUP1 DUP4 GT PUSH2 0x78B JUMPI DUP3 SWAP1 SUB PUSH1 0x1F AND DUP3 ADD SWAP2 JUMPDEST POP POP POP POP POP SWAP1 DUP1 PUSH1 0x3 ADD DUP1 SLOAD PUSH2 0x7BD SWAP1 PUSH2 0x2F06 JUMP JUMPDEST DUP1 PUSH1 0x1F ADD PUSH1 0x20 DUP1 SWAP2 DIV MUL PUSH1 0x20 ADD PUSH1 0x40 MLOAD SWAP1 DUP2 ADD PUSH1 0x40 MSTORE DUP1 SWAP3 SWAP2 SWAP1 DUP2 DUP2 MSTORE PUSH1 0x20 ADD DUP3 DUP1 SLOAD PUSH2 0x7E9 SWAP1 PUSH2 0x2F06 JUMP JUMPDEST DUP1 ISZERO PUSH2 0x834 JUMPI DUP1 PUSH1 0x1F LT PUSH2 0x80B JUMPI PUSH2 0x100 DUP1 DUP4 SLOAD DIV MUL DUP4 MSTORE SWAP2 PUSH1 0x20 ADD SWAP2 PUSH2 0x834 JUMP JUMPDEST DUP3 ADD SWAP2 SWAP1 PUSH0 MSTORE PUSH1 0x20 PUSH0 KECCAK256 SWAP1 JUMPDEST DUP2 SLOAD DUP2 MSTORE SWAP1 PUSH1 0x1 ADD SWAP1 PUSH1 0x20 ADD DUP1 DUP4 GT PUSH2 0x817 JUMPI DUP3 SWAP1 SUB PUSH1 0x1F AND DUP3 ADD SWAP2 JUMPDEST POP POP POP POP POP SWAP1 DUP1 PUSH1 0x4 ADD PUSH0 SWAP1 SLOAD SWAP1 PUSH2 0x100 EXP SWAP1 DIV PUSH20 0xFFFFFFFFFFFFFFFFFFFFFFFFFFFFFFFFFFFFFFFF AND SWAP1 DUP1 PUSH1 0x5 ADD SLOAD SWAP1 DUP1 PUSH1 0x6 ADD PUSH0 SWAP1 SLOAD SWAP1 PUSH2 0x100 EXP SWAP1 DIV PUSH1 0xFF AND SWAP1 DUP1 PUSH1 0x7 ADD DUP1 SLOAD PUSH2 0x886 SWAP1 PUSH2 0x2F06 JUMP JUMPDEST DUP1 PUSH1 0x1F ADD PUSH1 0x20 DUP1 SWAP2 DIV MUL PUSH1 0x20 ADD PUSH1 0x40 MLOAD SWAP1 DUP2 ADD PUSH1 0x40 MSTORE DUP1 SWAP3 SWAP2 SWAP1 DUP2 DUP2 MSTORE PUSH1 0x20 ADD DUP3 DUP1 SLOAD PUSH2 0x8B2 SWAP1 PUSH2 0x2F06 JUMP JUMPDEST DUP1 ISZERO PUSH2 0x8FD JUMPI DUP1 PUSH1 0x1F LT PUSH2 0x8D4 JUMPI PUSH2 0x100 DUP1 DUP4 SLOAD DIV MUL DUP4 MSTORE SWAP2 PUSH1 0x20 ADD SWAP2 PUSH2 0x8FD JUMP JUMPDEST DUP3 ADD SWAP2 SWAP1 PUSH0 MSTORE PUSH1 0x20 PUSH0 KECCAK256 SWAP1 JUMPDEST DUP2 SLOAD DUP2 MSTORE SWAP1 PUSH1 0x1 ADD SWAP1 PUSH1 0x20 ADD DUP1 DUP4 GT PUSH2 0x8E0 JUMPI DUP3 SWAP1 SUB PUSH1 0x1F AND DUP3 ADD SWAP2 JUMPDEST POP POP POP POP POP SWAP1 DUP1 PUSH1 0x8 ADD DUP1 SLOAD PUSH2 0x912 SWAP1 PUSH2 0x2F06 JUMP JUMPDEST DUP1 PUSH1 0x1F ADD PUSH1 0x20 DUP1 SWAP2 DIV MUL PUSH1 0x20 ADD PUSH1 0x40 MLOAD SWAP1 DUP2 ADD PUSH1 0x40 MSTORE DUP1 SWAP3 SWAP2 SWAP1 DUP2 DUP2 MSTORE PUSH1 0x20 ADD DUP3 DUP1 SLOAD PUSH2 0x93E SWAP1 PUSH2 0x2F06 JUMP JUMPDEST DUP1 ISZERO PUSH2 0x989 JUMPI DUP1 PUSH1 0x1F LT PUSH2 0x960 JUMPI PUSH2 0x100 DUP1 DUP4 SLOAD DIV MUL DUP4 MSTORE SWAP2 PUSH1 0x20 ADD SWAP2 PUSH2 0x989 JUMP JUMPDEST DUP3 ADD SWAP2 SWAP1 PUSH0 MSTORE PUSH1 0x20 PUSH0 KECCAK256 SWAP1 JUMPDEST DUP2 SLOAD DUP2 MSTORE SWAP1 PUSH1 0x1 ADD SWAP1 PUSH1 0x20 ADD DUP1 DUP4 GT PUSH2 0x96C JUMPI DUP3 SWAP1 SUB PUSH1 0x1F AND DUP3 ADD SWAP2 JUMPDEST POP POP POP POP POP SWAP1 DUP1 PUSH1 0x9 ADD PUSH0 SWAP1 SLOAD SWAP1 PUSH2 0x100 EXP SWAP1 DIV PUSH1 0xFF AND SWAP1 POP DUP11 JUMP JUMPDEST PUSH1 0x60 PUSH0 DUP1 JUMPDEST PUSH1 0x2 DUP1 SLOAD SWAP1 POP DUP2 LT ISZERO PUSH2 0xA48 JUMPI DUP4 PUSH1 0x40 MLOAD PUSH1 0x20 ADD PUSH2 0x9C8 SWAP2 SWAP1 PUSH2 0x2EC3 JUMP JUMPDEST PUSH1 0x40 MLOAD PUSH1 0x20 DUP2 DUP4 SUB SUB DUP2 MSTORE SWAP1 PUSH1 0x40 MSTORE DUP1 MLOAD SWAP1 PUSH1 0x20 ADD KECCAK256 PUSH1 0x2 DUP3 DUP2 SLOAD DUP2 LT PUSH2 0x9F2 JUMPI PUSH2 0x9F1 PUSH2 0x2E5C JUMP JUMPDEST JUMPDEST SWAP1 PUSH0 MSTORE PUSH1 0x20 PUSH0 KECCAK256 SWAP1 PUSH1 0xA MUL ADD PUSH1 0x1 ADD PUSH1 0x40 MLOAD PUSH1 0x20 ADD PUSH2 0xA11 SWAP2 SWAP1 PUSH2 0x2FC8 JUMP JUMPDEST PUSH1 0x40 MLOAD PUSH1 0x20 DUP2 DUP4 SUB SUB DUP2 MSTORE SWAP1 PUSH1 0x40 MSTORE DUP1 MLOAD SWAP1 PUSH1 0x20 ADD KECCAK256 SUB PUSH2 0xA3B JUMPI DUP2 DUP1 PUSH2 0xA37 SWAP1 PUSH2 0x32F3 JUMP JUMPDEST SWAP3 POP POP JUMPDEST DUP1 DUP1 PUSH1 0x1 ADD SWAP2 POP POP PUSH2 0x9AA JUMP JUMPDEST POP PUSH0 DUP2 PUSH8 0xFFFFFFFFFFFFFFFF DUP2 GT ISZERO PUSH2 0xA64 JUMPI PUSH2 0xA63 PUSH2 0x260A JUMP JUMPDEST JUMPDEST PUSH1 0x40 MLOAD SWAP1 DUP1 DUP3 MSTORE DUP1 PUSH1 0x20 MUL PUSH1 0x20 ADD DUP3 ADD PUSH1 0x40 MSTORE DUP1 ISZERO PUSH2 0xA9D JUMPI DUP2 PUSH1 0x20 ADD JUMPDEST PUSH2 0xA8A PUSH2 0x251F JUMP JUMPDEST DUP2 MSTORE PUSH1 0x20 ADD SWAP1 PUSH1 0x1 SWAP1 SUB SWAP1 DUP2 PUSH2 0xA82 JUMPI SWAP1 POP JUMPDEST POP SWAP1 POP PUSH0 SWAP2 POP PUSH0 JUMPDEST PUSH1 0x2 DUP1 SLOAD SWAP1 POP DUP2 LT ISZERO PUSH2 0xEF9 JUMPI DUP5 PUSH1 0x40 MLOAD PUSH1 0x20 ADD PUSH2 0xAC3 SWAP2 SWAP1 PUSH2 0x2EC3 JUMP JUMPDEST PUSH1 0x40 MLOAD PUSH1 0x20 DUP2 DUP4 SUB SUB DUP2 MSTORE SWAP1 PUSH1 0x40 MSTORE DUP1 MLOAD SWAP1 PUSH1 0x20 ADD KECCAK256 PUSH1 0x2 DUP3 DUP2 SLOAD DUP2 LT PUSH2 0xAED JUMPI PUSH2 0xAEC PUSH2 0x2E5C JUMP JUMPDEST JUMPDEST SWAP1 PUSH0 MSTORE PUSH1 0x20 PUSH0 KECCAK256 SWAP1 PUSH1 0xA MUL ADD PUSH1 0x1 ADD PUSH1 0x40 MLOAD PUSH1 0x20 ADD PUSH2 0xB0C SWAP2 SWAP1 PUSH2 0x2FC8 JUMP JUMPDEST PUSH1 0x40 MLOAD PUSH1 0x20 DUP2 DUP4 SUB SUB DUP2 MSTORE SWAP1 PUSH1 0x40 MSTORE DUP1 MLOAD SWAP1 PUSH1 0x20 ADD KECCAK256 SUB PUSH2 0xEEC JUMPI PUSH1 0x2 DUP2 DUP2 SLOAD DUP2 LT PUSH2 0xB3B JUMPI PUSH2 0xB3A PUSH2 0x2E5C JUMP JUMPDEST JUMPDEST SWAP1 PUSH0 MSTORE PUSH1 0x20 PUSH0 KECCAK256 SWAP1 PUSH1 0xA MUL ADD PUSH1 0x40 MLOAD DUP1 PUSH2 0x140 ADD PUSH1 0x40 MSTORE SWAP1 DUP2 PUSH0 DUP3 ADD SLOAD DUP2 MSTORE PUSH1 0x20 ADD PUSH1 0x1 DUP3 ADD DUP1 SLOAD PUSH2 0xB6C SWAP1 PUSH2 0x2F06 JUMP JUMPDEST DUP1 PUSH1 0x1F ADD PUSH1 0x20 DUP1 SWAP2 DIV MUL PUSH1 0x20 ADD PUSH1 0x40 MLOAD SWAP1 DUP2 ADD PUSH1 0x40 MSTORE DUP1 SWAP3 SWAP2 SWAP1 DUP2 DUP2 MSTORE PUSH1 0x20 ADD DUP3 DUP1 SLOAD PUSH2 0xB98 SWAP1 PUSH2 0x2F06 JUMP JUMPDEST DUP1 ISZERO PUSH2 0xBE3 JUMPI DUP1 PUSH1 0x1F LT PUSH2 0xBBA JUMPI PUSH2 0x100 DUP1 DUP4 SLOAD DIV MUL DUP4 MSTORE SWAP2 PUSH1 0x20 ADD SWAP2 PUSH2 0xBE3 JUMP JUMPDEST DUP3 ADD SWAP2 SWAP1 PUSH0 MSTORE PUSH1 0x20 PUSH0 KECCAK256 SWAP1 JUMPDEST DUP2 SLOAD DUP2 MSTORE SWAP1 PUSH1 0x1 ADD SWAP1 PUSH1 0x20 ADD DUP1 DUP4 GT PUSH2 0xBC6 JUMPI DUP3 SWAP1 SUB PUSH1 0x1F AND DUP3 ADD SWAP2 JUMPDEST POP POP POP POP POP DUP2 MSTORE PUSH1 0x20 ADD PUSH1 0x2 DUP3 ADD DUP1 SLOAD PUSH2 0xBFC SWAP1 PUSH2 0x2F06 JUMP JUMPDEST DUP1 PUSH1 0x1F ADD PUSH1 0x20 DUP1 SWAP2 DIV MUL PUSH1 0x20 ADD PUSH1 0x40 MLOAD SWAP1 DUP2 ADD PUSH1 0x40 MSTORE DUP1 SWAP3 SWAP2 SWAP1 DUP2 DUP2 MSTORE PUSH1 0x20 ADD DUP3 DUP1 SLOAD PUSH2 0xC28 SWAP1 PUSH2 0x2F06 JUMP JUMPDEST DUP1 ISZERO PUSH2 0xC73 JUMPI DUP1 PUSH1 0x1F LT PUSH2 0xC4A JUMPI PUSH2 0x100 DUP1 DUP4 SLOAD DIV MUL DUP4 MSTORE SWAP2 PUSH1 0x20 ADD SWAP2 PUSH2 0xC73 JUMP JUMPDEST DUP3 ADD SWAP2 SWAP1 PUSH0 MSTORE PUSH1 0x20 PUSH0 KECCAK256 SWAP1 JUMPDEST DUP2 SLOAD DUP2 MSTORE SWAP1 PUSH1 0x1 ADD SWAP1 PUSH1 0x20 ADD DUP1 DUP4 GT PUSH2 0xC56 JUMPI DUP3 SWAP1 SUB PUSH1 0x1F AND DUP3 ADD SWAP2 JUMPDEST POP POP POP POP POP DUP2 MSTORE PUSH1 0x20 ADD PUSH1 0x3 DUP3 ADD DUP1 SLOAD PUSH2 0xC8C SWAP1 PUSH2 0x2F06 JUMP JUMPDEST DUP1 PUSH1 0x1F ADD PUSH1 0x20 DUP1 SWAP2 DIV MUL PUSH1 0x20 ADD PUSH1 0x40 MLOAD SWAP1 DUP2 ADD PUSH1 0x40 MSTORE DUP1 SWAP3 SWAP2 SWAP1 DUP2 DUP2 MSTORE PUSH1 0x20 ADD DUP3 DUP1 SLOAD PUSH2 0xCB8 SWAP1 PUSH2 0x2F06 JUMP JUMPDEST DUP1 ISZERO PUSH2 0xD03 JUMPI DUP1 PUSH1 0x1F LT PUSH2 0xCDA JUMPI PUSH2 0x100 DUP1 DUP4 SLOAD DIV MUL DUP4 MSTORE SWAP2 PUSH1 0x20 ADD SWAP2 PUSH2 0xD03 JUMP JUMPDEST DUP3 ADD SWAP2 SWAP1 PUSH0 MSTORE PUSH1 0x20 PUSH0 KECCAK256 SWAP1 JUMPDEST DUP2 SLOAD DUP2 MSTORE SWAP1 PUSH1 0x1 ADD SWAP1 PUSH1 0x20 ADD DUP1 DUP4 GT PUSH2 0xCE6 JUMPI DUP3 SWAP1 SUB PUSH1 0x1F AND DUP3 ADD SWAP2 JUMPDEST POP POP POP POP POP DUP2 MSTORE PUSH1 0x20 ADD PUSH1 0x4 DUP3 ADD PUSH0 SWAP1 SLOAD SWAP1 PUSH2 0x100 EXP SWAP1 DIV PUSH20 0xFFFFFFFFFFFFFFFFFFFFFFFFFFFFFFFFFFFFFFFF AND PUSH20 0xFFFFFFFFFFFFFFFFFFFFFFFFFFFFFFFFFFFFFFFF AND PUSH20 0xFFFFFFFFFFFFFFFFFFFFFFFFFFFFFFFFFFFFFFFF AND DUP2 MSTORE PUSH1 0x20 ADD PUSH1 0x5 DUP3 ADD SLOAD DUP2 MSTORE PUSH1 0x20 ADD PUSH1 0x6 DUP3 ADD PUSH0 SWAP1 SLOAD SWAP1 PUSH2 0x100 EXP SWAP1 DIV PUSH1 0xFF AND ISZERO ISZERO ISZERO ISZERO DUP2 MSTORE PUSH1 0x20 ADD PUSH1 0x7 DUP3 ADD DUP1 SLOAD PUSH2 0xD95 SWAP1 PUSH2 0x2F06 JUMP JUMPDEST DUP1 PUSH1 0x1F ADD PUSH1 0x20 DUP1 SWAP2 DIV MUL PUSH1 0x20 ADD PUSH1 0x40 MLOAD SWAP1 DUP2 ADD PUSH1 0x40 MSTORE DUP1 SWAP3 SWAP2 SWAP1 DUP2 DUP2 MSTORE PUSH1 0x20 ADD DUP3 DUP1 SLOAD PUSH2 0xDC1 SWAP1 PUSH2 0x2F06 JUMP JUMPDEST DUP1 ISZERO PUSH2 0xE0C JUMPI DUP1 PUSH1 0x1F LT PUSH2 0xDE3 JUMPI PUSH2 0x100 DUP1 DUP4 SLOAD DIV MUL DUP4 MSTORE SWAP2 PUSH1 0x20 ADD SWAP2 PUSH2 0xE0C JUMP JUMPDEST DUP3 ADD SWAP2 SWAP1 PUSH0 MSTORE PUSH1 0x20 PUSH0 KECCAK256 SWAP1 JUMPDEST DUP2 SLOAD DUP2 MSTORE SWAP1 PUSH1 0x1 ADD SWAP1 PUSH1 0x20 ADD DUP1 DUP4 GT PUSH2 0xDEF JUMPI DUP3 SWAP1 SUB PUSH1 0x1F AND DUP3 ADD SWAP2 JUMPDEST POP POP POP POP POP DUP2 MSTORE PUSH1 0x20 ADD PUSH1 0x8 DUP3 ADD DUP1 SLOAD PUSH2 0xE25 SWAP1 PUSH2 0x2F06 JUMP JUMPDEST DUP1 PUSH1 0x1F ADD PUSH1 0x20 DUP1 SWAP2 DIV MUL PUSH1 0x20 ADD PUSH1 0x40 MLOAD SWAP1 DUP2 ADD PUSH1 0x40 MSTORE DUP1 SWAP3 SWAP2 SWAP1 DUP2 DUP2 MSTORE PUSH1 0x20 ADD DUP3 DUP1 SLOAD PUSH2 0xE51 SWAP1 PUSH2 0x2F06 JUMP JUMPDEST DUP1 ISZERO PUSH2 0xE9C JUMPI DUP1 PUSH1 0x1F LT PUSH2 0xE73 JUMPI PUSH2 0x100 DUP1 DUP4 SLOAD DIV MUL DUP4 MSTORE SWAP2 PUSH1 0x20 ADD SWAP2 PUSH2 0xE9C JUMP JUMPDEST DUP3 ADD SWAP2 SWAP1 PUSH0 MSTORE PUSH1 0x20 PUSH0 KECCAK256 SWAP1 JUMPDEST DUP2 SLOAD DUP2 MSTORE SWAP1 PUSH1 0x1 ADD SWAP1 PUSH1 0x20 ADD DUP1 DUP4 GT PUSH2 0xE7F JUMPI DUP3 SWAP1 SUB PUSH1 0x1F AND DUP3 ADD SWAP2 JUMPDEST POP POP POP POP POP DUP2 MSTORE PUSH1 0x20 ADD PUSH1 0x9 DUP3 ADD PUSH0 SWAP1 SLOAD SWAP1 PUSH2 0x100 EXP SWAP1 DIV PUSH1 0xFF AND ISZERO ISZERO ISZERO ISZERO DUP2 MSTORE POP POP DUP3 DUP5 DUP2 MLOAD DUP2 LT PUSH2 0xED2 JUMPI PUSH2 0xED1 PUSH2 0x2E5C JUMP JUMPDEST JUMPDEST PUSH1 0x20 MUL PUSH1 0x20 ADD ADD DUP2 SWAP1 MSTORE POP DUP3 DUP1 PUSH2 0xEE8 SWAP1 PUSH2 0x32F3 JUMP JUMPDEST SWAP4 POP POP JUMPDEST DUP1 DUP1 PUSH1 0x1 ADD SWAP2 POP POP PUSH2 0xAA5 JUMP JUMPDEST POP DUP1 SWAP3 POP POP POP SWAP2 SWAP1 POP JUMP JUMPDEST PUSH0 DUP1 SLOAD SWAP1 PUSH2 0x100 EXP SWAP1 DIV PUSH20 0xFFFFFFFFFFFFFFFFFFFFFFFFFFFFFFFFFFFFFFFF AND PUSH20 0xFFFFFFFFFFFFFFFFFFFFFFFFFFFFFFFFFFFFFFFF AND CALLER PUSH20 0xFFFFFFFFFFFFFFFFFFFFFFFFFFFFFFFFFFFFFFFF AND EQ PUSH2 0xF91 JUMPI PUSH1 0x40 MLOAD PUSH32 0x8C379A000000000000000000000000000000000000000000000000000000000 DUP2 MSTORE PUSH1 0x4 ADD PUSH2 0xF88 SWAP1 PUSH2 0x3384 JUMP JUMPDEST PUSH1 0x40 MLOAD DUP1 SWAP2 SUB SWAP1 REVERT JUMPDEST DUP1 PUSH1 0x1 PUSH0 PUSH2 0x100 EXP DUP2 SLOAD DUP2 PUSH20 0xFFFFFFFFFFFFFFFFFFFFFFFFFFFFFFFFFFFFFFFF MUL NOT AND SWAP1 DUP4 PUSH20 0xFFFFFFFFFFFFFFFFFFFFFFFFFFFFFFFFFFFFFFFF AND MUL OR SWAP1 SSTORE POP POP JUMP JUMPDEST PUSH1 0x60 PUSH1 0x2 DUP1 SLOAD DUP1 PUSH1 0x20 MUL PUSH1 0x20 ADD PUSH1 0x40 MLOAD SWAP1 DUP2 ADD PUSH1 0x40 MSTORE DUP1 SWAP3 SWAP2 SWAP1 DUP2 DUP2 MSTORE PUSH1 0x20 ADD PUSH0 SWAP1 JUMPDEST DUP3 DUP3 LT ISZERO PUSH2 0x1394 JUMPI DUP4 DUP3 SWAP1 PUSH0 MSTORE PUSH1 0x20 PUSH0 KECCAK256 SWAP1 PUSH1 0xA MUL ADD PUSH1 0x40 MLOAD DUP1 PUSH2 0x140 ADD PUSH1 0x40 MSTORE SWAP1 DUP2 PUSH0 DUP3 ADD SLOAD DUP2 MSTORE PUSH1 0x20 ADD PUSH1 0x1 DUP3 ADD DUP1 SLOAD PUSH2 0x1032 SWAP1 PUSH2 0x2F06 JUMP JUMPDEST DUP1 PUSH1 0x1F ADD PUSH1 0x20 DUP1 SWAP2 DIV MUL PUSH1 0x20 ADD PUSH1 0x40 MLOAD SWAP1 DUP2 ADD PUSH1 0x40 MSTORE DUP1 SWAP3 SWAP2 SWAP1 DUP2 DUP2 MSTORE PUSH1 0x20 ADD DUP3 DUP1 SLOAD PUSH2 0x105E SWAP1 PUSH2 0x2F06 JUMP JUMPDEST DUP1 ISZERO PUSH2 0x10A9 JUMPI DUP1 PUSH1 0x1F LT PUSH2 0x1080 JUMPI PUSH2 0x100 DUP1 DUP4 SLOAD DIV MUL DUP4 MSTORE SWAP2 PUSH1 0x20 ADD SWAP2 PUSH2 0x10A9 JUMP JUMPDEST DUP3 ADD SWAP2 SWAP1 PUSH0 MSTORE PUSH1 0x20 PUSH0 KECCAK256 SWAP1 JUMPDEST DUP2 SLOAD DUP2 MSTORE SWAP1 PUSH1 0x1 ADD SWAP1 PUSH1 0x20 ADD DUP1 DUP4 GT PUSH2 0x108C JUMPI DUP3 SWAP1 SUB PUSH1 0x1F AND DUP3 ADD SWAP2 JUMPDEST POP POP POP POP POP DUP2 MSTORE PUSH1 0x20 ADD PUSH1 0x2 DUP3 ADD DUP1 SLOAD PUSH2 0x10C2 SWAP1 PUSH2 0x2F06 JUMP JUMPDEST DUP1 PUSH1 0x1F ADD PUSH1 0x20 DUP1 SWAP2 DIV MUL PUSH1 0x20 ADD PUSH1 0x40 MLOAD SWAP1 DUP2 ADD PUSH1 0x40 MSTORE DUP1 SWAP3 SWAP2 SWAP1 DUP2 DUP2 MSTORE PUSH1 0x20 ADD DUP3 DUP1 SLOAD PUSH2 0x10EE SWAP1 PUSH2 0x2F06 JUMP JUMPDEST DUP1 ISZERO PUSH2 0x1139 JUMPI DUP1 PUSH1 0x1F LT PUSH2 0x1110 JUMPI PUSH2 0x100 DUP1 DUP4 SLOAD DIV MUL DUP4 MSTORE SWAP2 PUSH1 0x20 ADD SWAP2 PUSH2 0x1139 JUMP JUMPDEST DUP3 ADD SWAP2 SWAP1 PUSH0 MSTORE PUSH1 0x20 PUSH0 KECCAK256 SWAP1 JUMPDEST DUP2 SLOAD DUP2 MSTORE SWAP1 PUSH1 0x1 ADD SWAP1 PUSH1 0x20 ADD DUP1 DUP4 GT PUSH2 0x111C JUMPI DUP3 SWAP1 SUB PUSH1 0x1F AND DUP3 ADD SWAP2 JUMPDEST POP POP POP POP POP DUP2 MSTORE PUSH1 0x20 ADD PUSH1 0x3 DUP3 ADD DUP1 SLOAD PUSH2 0x1152 SWAP1 PUSH2 0x2F06 JUMP JUMPDEST DUP1 PUSH1 0x1F ADD PUSH1 0x20 DUP1 SWAP2 DIV MUL PUSH1 0x20 ADD PUSH1 0x40 MLOAD SWAP1 DUP2 ADD PUSH1 0x40 MSTORE DUP1 SWAP3 SWAP2 SWAP1 DUP2 DUP2 MSTORE PUSH1 0x20 ADD DUP3 DUP1 SLOAD PUSH2 0x117E SWAP1 PUSH2 0x2F06 JUMP JUMPDEST DUP1 ISZERO PUSH2 0x11C9 JUMPI DUP1 PUSH1 0x1F LT PUSH2 0x11A0 JUMPI PUSH2 0x100 DUP1 DUP4 SLOAD DIV MUL DUP4 MSTORE SWAP2 PUSH1 0x20 ADD SWAP2 PUSH2 0x11C9 JUMP JUMPDEST DUP3 ADD SWAP2 SWAP1 PUSH0 MSTORE PUSH1 0x20 PUSH0 KECCAK256 SWAP1 JUMPDEST DUP2 SLOAD DUP2 MSTORE SWAP1 PUSH1 0x1 ADD SWAP1 PUSH1 0x20 ADD DUP1 DUP4 GT PUSH2 0x11AC JUMPI DUP3 SWAP1 SUB PUSH1 0x1F AND DUP3 ADD SWAP2 JUMPDEST POP POP POP POP POP DUP2 MSTORE PUSH1 0x20 ADD PUSH1 0x4 DUP3 ADD PUSH0 SWAP1 SLOAD SWAP1 PUSH2 0x100 EXP SWAP1 DIV PUSH20 0xFFFFFFFFFFFFFFFFFFFFFFFFFFFFFFFFFFFFFFFF AND PUSH20 0xFFFFFFFFFFFFFFFFFFFFFFFFFFFFFFFFFFFFFFFF AND PUSH20 0xFFFFFFFFFFFFFFFFFFFFFFFFFFFFFFFFFFFFFFFF AND DUP2 MSTORE PUSH1 0x20 ADD PUSH1 0x5 DUP3 ADD SLOAD DUP2 MSTORE PUSH1 0x20 ADD PUSH1 0x6 DUP3 ADD PUSH0 SWAP1 SLOAD SWAP1 PUSH2 0x100 EXP SWAP1 DIV PUSH1 0xFF AND ISZERO ISZERO ISZERO ISZERO DUP2 MSTORE PUSH1 0x20 ADD PUSH1 0x7 DUP3 ADD DUP1 SLOAD PUSH2 0x125B SWAP1 PUSH2 0x2F06 JUMP JUMPDEST DUP1 PUSH1 0x1F ADD PUSH1 0x20 DUP1 SWAP2 DIV MUL PUSH1 0x20 ADD PUSH1 0x40 MLOAD SWAP1 DUP2 ADD PUSH1 0x40 MSTORE DUP1 SWAP3 SWAP2 SWAP1 DUP2 DUP2 MSTORE PUSH1 0x20 ADD DUP3 DUP1 SLOAD PUSH2 0x1287 SWAP1 PUSH2 0x2F06 JUMP JUMPDEST DUP1 ISZERO PUSH2 0x12D2 JUMPI DUP1 PUSH1 0x1F LT PUSH2 0x12A9 JUMPI PUSH2 0x100 DUP1 DUP4 SLOAD DIV MUL DUP4 MSTORE SWAP2 PUSH1 0x20 ADD SWAP2 PUSH2 0x12D2 JUMP JUMPDEST DUP3 ADD SWAP2 SWAP1 PUSH0 MSTORE PUSH1 0x20 PUSH0 KECCAK256 SWAP1 JUMPDEST DUP2 SLOAD DUP2 MSTORE SWAP1 PUSH1 0x1 ADD SWAP1 PUSH1 0x20 ADD DUP1 DUP4 GT PUSH2 0x12B5 JUMPI DUP3 SWAP1 SUB PUSH1 0x1F AND DUP3 ADD SWAP2 JUMPDEST POP POP POP POP POP DUP2 MSTORE PUSH1 0x20 ADD PUSH1 0x8 DUP3 ADD DUP1 SLOAD PUSH2 0x12EB SWAP1 PUSH2 0x2F06 JUMP JUMPDEST DUP1 PUSH1 0x1F ADD PUSH1 0x20 DUP1 SWAP2 DIV MUL PUSH1 0x20 ADD PUSH1 0x40 MLOAD SWAP1 DUP2 ADD PUSH1 0x40 MSTORE DUP1 SWAP3 SWAP2 SWAP1 DUP2 DUP2 MSTORE PUSH1 0x20 ADD DUP3 DUP1 SLOAD PUSH2 0x1317 SWAP1 PUSH2 0x2F06 JUMP JUMPDEST DUP1 ISZERO PUSH2 0x1362 JUMPI DUP1 PUSH1 0x1F LT PUSH2 0x1339 JUMPI PUSH2 0x100 DUP1 DUP4 SLOAD DIV MUL DUP4 MSTORE SWAP2 PUSH1 0x20 ADD SWAP2 PUSH2 0x1362 JUMP JUMPDEST DUP3 ADD SWAP2 SWAP1 PUSH0 MSTORE PUSH1 0x20 PUSH0 KECCAK256 SWAP1 JUMPDEST DUP2 SLOAD DUP2 MSTORE SWAP1 PUSH1 0x1 ADD SWAP1 PUSH1 0x20 ADD DUP1 DUP4 GT PUSH2 0x1345 JUMPI DUP3 SWAP1 SUB PUSH1 0x1F AND DUP3 ADD SWAP2 JUMPDEST POP POP POP POP POP DUP2 MSTORE PUSH1 0x20 ADD PUSH1 0x9 DUP3 ADD PUSH0 SWAP1 SLOAD SWAP1 PUSH2 0x100 EXP SWAP1 DIV PUSH1 0xFF AND ISZERO ISZERO ISZERO ISZERO DUP2 MSTORE POP POP DUP2 MSTORE PUSH1 0x20 ADD SWAP1 PUSH1 0x1 ADD SWAP1 PUSH2 0xFF7 JUMP JUMPDEST POP POP POP POP SWAP1 POP SWAP1 JUMP JUMPDEST PUSH1 0x60 PUSH0 DUP1 JUMPDEST PUSH1 0x2 DUP1 SLOAD SWAP1 POP DUP2 LT ISZERO PUSH2 0x1440 JUMPI DUP4 PUSH1 0x40 MLOAD PUSH1 0x20 ADD PUSH2 0x13C0 SWAP2 SWAP1 PUSH2 0x2EC3 JUMP JUMPDEST PUSH1 0x40 MLOAD PUSH1 0x20 DUP2 DUP4 SUB SUB DUP2 MSTORE SWAP1 PUSH1 0x40 MSTORE DUP1 MLOAD SWAP1 PUSH1 0x20 ADD KECCAK256 PUSH1 0x2 DUP3 DUP2 SLOAD DUP2 LT PUSH2 0x13EA JUMPI PUSH2 0x13E9 PUSH2 0x2E5C JUMP JUMPDEST JUMPDEST SWAP1 PUSH0 MSTORE PUSH1 0x20 PUSH0 KECCAK256 SWAP1 PUSH1 0xA MUL ADD PUSH1 0x2 ADD PUSH1 0x40 MLOAD PUSH1 0x20 ADD PUSH2 0x1409 SWAP2 SWAP1 PUSH2 0x2FC8 JUMP JUMPDEST PUSH1 0x40 MLOAD PUSH1 0x20 DUP2 DUP4 SUB SUB DUP2 MSTORE SWAP1 PUSH1 0x40 MSTORE DUP1 MLOAD SWAP1 PUSH1 0x20 ADD KECCAK256 SUB PUSH2 0x1433 JUMPI DUP2 DUP1 PUSH2 0x142F SWAP1 PUSH2 0x32F3 JUMP JUMPDEST SWAP3 POP POP JUMPDEST DUP1 DUP1 PUSH1 0x1 ADD SWAP2 POP POP PUSH2 0x13A2 JUMP JUMPDEST POP PUSH0 DUP2 PUSH8 0xFFFFFFFFFFFFFFFF DUP2 GT ISZERO PUSH2 0x145C JUMPI PUSH2 0x145B PUSH2 0x260A JUMP JUMPDEST JUMPDEST PUSH1 0x40 MLOAD SWAP1 DUP1 DUP3 MSTORE DUP1 PUSH1 0x20 MUL PUSH1 0x20 ADD DUP3 ADD PUSH1 0x40 MSTORE DUP1 ISZERO PUSH2 0x1495 JUMPI DUP2 PUSH1 0x20 ADD JUMPDEST PUSH2 0x1482 PUSH2 0x251F JUMP JUMPDEST DUP2 MSTORE PUSH1 0x20 ADD SWAP1 PUSH1 0x1 SWAP1 SUB SWAP1 DUP2 PUSH2 0x147A JUMPI SWAP1 POP JUMPDEST POP SWAP1 POP PUSH0 SWAP2 POP PUSH0 JUMPDEST PUSH1 0x2 DUP1 SLOAD SWAP1 POP DUP2 LT ISZERO PUSH2 0x18F1 JUMPI DUP5 PUSH1 0x40 MLOAD PUSH1 0x20 ADD PUSH2 0x14BB SWAP2 SWAP1 PUSH2 0x2EC3 JUMP JUMPDEST PUSH1 0x40 MLOAD PUSH1 0x20 DUP2 DUP4 SUB SUB DUP2 MSTORE SWAP1 PUSH1 0x40 MSTORE DUP1 MLOAD SWAP1 PUSH1 0x20 ADD KECCAK256 PUSH1 0x2 DUP3 DUP2 SLOAD DUP2 LT PUSH2 0x14E5 JUMPI PUSH2 0x14E4 PUSH2 0x2E5C JUMP JUMPDEST JUMPDEST SWAP1 PUSH0 MSTORE PUSH1 0x20 PUSH0 KECCAK256 SWAP1 PUSH1 0xA MUL ADD PUSH1 0x2 ADD PUSH1 0x40 MLOAD PUSH1 0x20 ADD PUSH2 0x1504 SWAP2 SWAP1 PUSH2 0x2FC8 JUMP JUMPDEST PUSH1 0x40 MLOAD PUSH1 0x20 DUP2 DUP4 SUB SUB DUP2 MSTORE SWAP1 PUSH1 0x40 MSTORE DUP1 MLOAD SWAP1 PUSH1 0x20 ADD KECCAK256 SUB PUSH2 0x18E4 JUMPI PUSH1 0x2 DUP2 DUP2 SLOAD DUP2 LT PUSH2 0x1533 JUMPI PUSH2 0x1532 PUSH2 0x2E5C JUMP JUMPDEST JUMPDEST SWAP1 PUSH0 MSTORE PUSH1 0x20 PUSH0 KECCAK256 SWAP1 PUSH1 0xA MUL ADD PUSH1 0x40 MLOAD DUP1 PUSH2 0x140 ADD PUSH1 0x40 MSTORE SWAP1 DUP2 PUSH0 DUP3 ADD SLOAD DUP2 MSTORE PUSH1 0x20 ADD PUSH1 0x1 DUP3 ADD DUP1 SLOAD PUSH2 0x1564 SWAP1 PUSH2 0x2F06 JUMP JUMPDEST DUP1 PUSH1 0x1F ADD PUSH1 0x20 DUP1 SWAP2 DIV MUL PUSH1 0x20 ADD PUSH1 0x40 MLOAD SWAP1 DUP2 ADD PUSH1 0x40 MSTORE DUP1 SWAP3 SWAP2 SWAP1 DUP2 DUP2 MSTORE PUSH1 0x20 ADD DUP3 DUP1 SLOAD PUSH2 0x1590 SWAP1 PUSH2 0x2F06 JUMP JUMPDEST DUP1 ISZERO PUSH2 0x15DB JUMPI DUP1 PUSH1 0x1F LT PUSH2 0x15B2 JUMPI PUSH2 0x100 DUP1 DUP4 SLOAD DIV MUL DUP4 MSTORE SWAP2 PUSH1 0x20 ADD SWAP2 PUSH2 0x15DB JUMP JUMPDEST DUP3 ADD SWAP2 SWAP1 PUSH0 MSTORE PUSH1 0x20 PUSH0 KECCAK256 SWAP1 JUMPDEST DUP2 SLOAD DUP2 MSTORE SWAP1 PUSH1 0x1 ADD SWAP1 PUSH1 0x20 ADD DUP1 DUP4 GT PUSH2 0x15BE JUMPI DUP3 SWAP1 SUB PUSH1 0x1F AND DUP3 ADD SWAP2 JUMPDEST POP POP POP POP POP DUP2 MSTORE PUSH1 0x20 ADD PUSH1 0x2 DUP3 ADD DUP1 SLOAD PUSH2 0x15F4 SWAP1 PUSH2 0x2F06 JUMP JUMPDEST DUP1 PUSH1 0x1F ADD PUSH1 0x20 DUP1 SWAP2 DIV MUL PUSH1 0x20 ADD PUSH1 0x40 MLOAD SWAP1 DUP2 ADD PUSH1 0x40 MSTORE DUP1 SWAP3 SWAP2 SWAP1 DUP2 DUP2 MSTORE PUSH1 0x20 ADD DUP3 DUP1 SLOAD PUSH2 0x1620 SWAP1 PUSH2 0x2F06 JUMP JUMPDEST DUP1 ISZERO PUSH2 0x166B JUMPI DUP1 PUSH1 0x1F LT PUSH2 0x1642 JUMPI PUSH2 0x100 DUP1 DUP4 SLOAD DIV MUL DUP4 MSTORE SWAP2 PUSH1 0x20 ADD SWAP2 PUSH2 0x166B JUMP JUMPDEST DUP3 ADD SWAP2 SWAP1 PUSH0 MSTORE PUSH1 0x20 PUSH0 KECCAK256 SWAP1 JUMPDEST DUP2 SLOAD DUP2 MSTORE SWAP1 PUSH1 0x1 ADD SWAP1 PUSH1 0x20 ADD DUP1 DUP4 GT PUSH2 0x164E JUMPI DUP3 SWAP1 SUB PUSH1 0x1F AND DUP3 ADD SWAP2 JUMPDEST POP POP POP POP POP DUP2 MSTORE PUSH1 0x20 ADD PUSH1 0x3 DUP3 ADD DUP1 SLOAD PUSH2 0x1684 SWAP1 PUSH2 0x2F06 JUMP JUMPDEST DUP1 PUSH1 0x1F ADD PUSH1 0x20 DUP1 SWAP2 DIV MUL PUSH1 0x20 ADD PUSH1 0x40 MLOAD SWAP1 DUP2 ADD PUSH1 0x40 MSTORE DUP1 SWAP3 SWAP2 SWAP1 DUP2 DUP2 MSTORE PUSH1 0x20 ADD DUP3 DUP1 SLOAD PUSH2 0x16B0 SWAP1 PUSH2 0x2F06 JUMP JUMPDEST DUP1 ISZERO PUSH2 0x16FB JUMPI DUP1 PUSH1 0x1F LT PUSH2 0x16D2 JUMPI PUSH2 0x100 DUP1 DUP4 SLOAD DIV MUL DUP4 MSTORE SWAP2 PUSH1 0x20 ADD SWAP2 PUSH2 0x16FB JUMP JUMPDEST DUP3 ADD SWAP2 SWAP1 PUSH0 MSTORE PUSH1 0x20 PUSH0 KECCAK256 SWAP1 JUMPDEST DUP2 SLOAD DUP2 MSTORE SWAP1 PUSH1 0x1 ADD SWAP1 PUSH1 0x20 ADD DUP1 DUP4 GT PUSH2 0x16DE JUMPI DUP3 SWAP1 SUB PUSH1 0x1F AND DUP3 ADD SWAP2 JUMPDEST POP POP POP POP POP DUP2 MSTORE PUSH1 0x20 ADD PUSH1 0x4 DUP3 ADD PUSH0 SWAP1 SLOAD SWAP1 PUSH2 0x100 EXP SWAP1 DIV PUSH20 0xFFFFFFFFFFFFFFFFFFFFFFFFFFFFFFFFFFFFFFFF AND PUSH20 0xFFFFFFFFFFFFFFFFFFFFFFFFFFFFFFFFFFFFFFFF AND PUSH20 0xFFFFFFFFFFFFFFFFFFFFFFFFFFFFFFFFFFFFFFFF AND DUP2 MSTORE PUSH1 0x20 ADD PUSH1 0x5 DUP3 ADD SLOAD DUP2 MSTORE PUSH1 0x20 ADD PUSH1 0x6 DUP3 ADD PUSH0 SWAP1 SLOAD SWAP1 PUSH2 0x100 EXP SWAP1 DIV PUSH1 0xFF AND ISZERO ISZERO ISZERO ISZERO DUP2 MSTORE PUSH1 0x20 ADD PUSH1 0x7 DUP3 ADD DUP1 SLOAD PUSH2 0x178D SWAP1 PUSH2 0x2F06 JUMP JUMPDEST DUP1 PUSH1 0x1F ADD PUSH1 0x20 DUP1 SWAP2 DIV MUL PUSH1 0x20 ADD PUSH1 0x40 MLOAD SWAP1 DUP2 ADD PUSH1 0x40 MSTORE DUP1 SWAP3 SWAP2 SWAP1 DUP2 DUP2 MSTORE PUSH1 0x20 ADD DUP3 DUP1 SLOAD PUSH2 0x17B9 SWAP1 PUSH2 0x2F06 JUMP JUMPDEST DUP1 ISZERO PUSH2 0x1804 JUMPI DUP1 PUSH1 0x1F LT PUSH2 0x17DB JUMPI PUSH2 0x100 DUP1 DUP4 SLOAD DIV MUL DUP4 MSTORE SWAP2 PUSH1 0x20 ADD SWAP2 PUSH2 0x1804 JUMP JUMPDEST DUP3 ADD SWAP2 SWAP1 PUSH0 MSTORE PUSH1 0x20 PUSH0 KECCAK256 SWAP1 JUMPDEST DUP2 SLOAD DUP2 MSTORE SWAP1 PUSH1 0x1 ADD SWAP1 PUSH1 0x20 ADD DUP1 DUP4 GT PUSH2 0x17E7 JUMPI DUP3 SWAP1 SUB PUSH1 0x1F AND DUP3 ADD SWAP2 JUMPDEST POP POP POP POP POP DUP2 MSTORE PUSH1 0x20 ADD PUSH1 0x8 DUP3 ADD DUP1 SLOAD PUSH2 0x181D SWAP1 PUSH2 0x2F06 JUMP JUMPDEST DUP1 PUSH1 0x1F ADD PUSH1 0x20 DUP1 SWAP2 DIV MUL PUSH1 0x20 ADD PUSH1 0x40 MLOAD SWAP1 DUP2 ADD PUSH1 0x40 MSTORE DUP1 SWAP3 SWAP2 SWAP1 DUP2 DUP2 MSTORE PUSH1 0x20 ADD DUP3 DUP1 SLOAD PUSH2 0x1849 SWAP1 PUSH2 0x2F06 JUMP JUMPDEST DUP1 ISZERO PUSH2 0x1894 JUMPI DUP1 PUSH1 0x1F LT PUSH2 0x186B JUMPI PUSH2 0x100 DUP1 DUP4 SLOAD DIV MUL DUP4 MSTORE SWAP2 PUSH1 0x20 ADD SWAP2 PUSH2 0x1894 JUMP JUMPDEST DUP3 ADD SWAP2 SWAP1 PUSH0 MSTORE PUSH1 0x20 PUSH0 KECCAK256 SWAP1 JUMPDEST DUP2 SLOAD DUP2 MSTORE SWAP1 PUSH1 0x1 ADD SWAP1 PUSH1 0x20 ADD DUP1 DUP4 GT PUSH2 0x1877 JUMPI DUP3 SWAP1 SUB PUSH1 0x1F AND DUP3 ADD SWAP2 JUMPDEST POP POP POP POP POP DUP2 MSTORE PUSH1 0x20 ADD PUSH1 0x9 DUP3 ADD PUSH0 SWAP1 SLOAD SWAP1 PUSH2 0x100 EXP SWAP1 DIV PUSH1 0xFF AND ISZERO ISZERO ISZERO ISZERO DUP2 MSTORE POP POP DUP3 DUP5 DUP2 MLOAD DUP2 LT PUSH2 0x18CA JUMPI PUSH2 0x18C9 PUSH2 0x2E5C JUMP JUMPDEST JUMPDEST PUSH1 0x20 MUL PUSH1 0x20 ADD ADD DUP2 SWAP1 MSTORE POP DUP3 DUP1 PUSH2 0x18E0 SWAP1 PUSH2 0x32F3 JUMP JUMPDEST SWAP4 POP POP JUMPDEST DUP1 DUP1 PUSH1 0x1 ADD SWAP2 POP POP PUSH2 0x149D JUMP JUMPDEST POP DUP1 SWAP3 POP POP POP SWAP2 SWAP1 POP JUMP JUMPDEST PUSH0 JUMPDEST PUSH1 0x2 DUP1 SLOAD SWAP1 POP DUP2 LT ISZERO PUSH2 0x19FA JUMPI DUP3 PUSH1 0x40 MLOAD PUSH1 0x20 ADD PUSH2 0x191C SWAP2 SWAP1 PUSH2 0x2EC3 JUMP JUMPDEST PUSH1 0x40 MLOAD PUSH1 0x20 DUP2 DUP4 SUB SUB DUP2 MSTORE SWAP1 PUSH1 0x40 MSTORE DUP1 MLOAD SWAP1 PUSH1 0x20 ADD KECCAK256 PUSH1 0x2 DUP3 DUP2 SLOAD DUP2 LT PUSH2 0x1946 JUMPI PUSH2 0x1945 PUSH2 0x2E5C JUMP JUMPDEST JUMPDEST SWAP1 PUSH0 MSTORE PUSH1 0x20 PUSH0 KECCAK256 SWAP1 PUSH1 0xA MUL ADD PUSH1 0x1 ADD PUSH1 0x40 MLOAD PUSH1 0x20 ADD PUSH2 0x1965 SWAP2 SWAP1 PUSH2 0x2FC8 JUMP JUMPDEST PUSH1 0x40 MLOAD PUSH1 0x20 DUP2 DUP4 SUB SUB DUP2 MSTORE SWAP1 PUSH1 0x40 MSTORE DUP1 MLOAD SWAP1 PUSH1 0x20 ADD KECCAK256 SUB PUSH2 0x19ED JUMPI PUSH1 0x1 PUSH1 0x2 DUP3 DUP2 SLOAD DUP2 LT PUSH2 0x1996 JUMPI PUSH2 0x1995 PUSH2 0x2E5C JUMP JUMPDEST JUMPDEST SWAP1 PUSH0 MSTORE PUSH1 0x20 PUSH0 KECCAK256 SWAP1 PUSH1 0xA MUL ADD PUSH1 0x6 ADD PUSH0 PUSH2 0x100 EXP DUP2 SLOAD DUP2 PUSH1 0xFF MUL NOT AND SWAP1 DUP4 ISZERO ISZERO MUL OR SWAP1 SSTORE POP DUP2 PUSH1 0x2 DUP3 DUP2 SLOAD DUP2 LT PUSH2 0x19D0 JUMPI PUSH2 0x19CF PUSH2 0x2E5C JUMP JUMPDEST JUMPDEST SWAP1 PUSH0 MSTORE PUSH1 0x20 PUSH0 KECCAK256 SWAP1 PUSH1 0xA MUL ADD PUSH1 0x8 ADD SWAP1 DUP2 PUSH2 0x19EB SWAP2 SWAP1 PUSH2 0x31F7 JUMP JUMPDEST POP JUMPDEST DUP1 DUP1 PUSH1 0x1 ADD SWAP2 POP POP PUSH2 0x18FE JUMP JUMPDEST POP POP POP JUMP JUMPDEST PUSH1 0x60 PUSH0 DUP1 JUMPDEST PUSH1 0x2 DUP1 SLOAD SWAP1 POP DUP2 LT ISZERO PUSH2 0x1AA2 JUMPI DUP4 PUSH1 0x40 MLOAD PUSH1 0x20 ADD PUSH2 0x1A22 SWAP2 SWAP1 PUSH2 0x2EC3 JUMP JUMPDEST PUSH1 0x40 MLOAD PUSH1 0x20 DUP2 DUP4 SUB SUB DUP2 MSTORE SWAP1 PUSH1 0x40 MSTORE DUP1 MLOAD SWAP1 PUSH1 0x20 ADD KECCAK256 PUSH1 0x2 DUP3 DUP2 SLOAD DUP2 LT PUSH2 0x1A4C JUMPI PUSH2 0x1A4B PUSH2 0x2E5C JUMP JUMPDEST JUMPDEST SWAP1 PUSH0 MSTORE PUSH1 0x20 PUSH0 KECCAK256 SWAP1 PUSH1 0xA MUL ADD PUSH1 0x1 ADD PUSH1 0x40 MLOAD PUSH1 0x20 ADD PUSH2 0x1A6B SWAP2 SWAP1 PUSH2 0x2FC8 JUMP JUMPDEST PUSH1 0x40 MLOAD PUSH1 0x20 DUP2 DUP4 SUB SUB DUP2 MSTORE SWAP1 PUSH1 0x40 MSTORE DUP1 MLOAD SWAP1 PUSH1 0x20 ADD KECCAK256 SUB PUSH2 0x1A95 JUMPI DUP2 DUP1 PUSH2 0x1A91 SWAP1 PUSH2 0x32F3 JUMP JUMPDEST SWAP3 POP POP JUMPDEST DUP1 DUP1 PUSH1 0x1 ADD SWAP2 POP POP PUSH2 0x1A04 JUMP JUMPDEST POP PUSH0 DUP2 PUSH8 0xFFFFFFFFFFFFFFFF DUP2 GT ISZERO PUSH2 0x1ABE JUMPI PUSH2 0x1ABD PUSH2 0x260A JUMP JUMPDEST JUMPDEST PUSH1 0x40 MLOAD SWAP1 DUP1 DUP3 MSTORE DUP1 PUSH1 0x20 MUL PUSH1 0x20 ADD DUP3 ADD PUSH1 0x40 MSTORE DUP1 ISZERO PUSH2 0x1AF7 JUMPI DUP2 PUSH1 0x20 ADD JUMPDEST PUSH2 0x1AE4 PUSH2 0x251F JUMP JUMPDEST DUP2 MSTORE PUSH1 0x20 ADD SWAP1 PUSH1 0x1 SWAP1 SUB SWAP1 DUP2 PUSH2 0x1ADC JUMPI SWAP1 POP JUMPDEST POP SWAP1 POP PUSH0 SWAP2 POP PUSH0 JUMPDEST PUSH1 0x2 DUP1 SLOAD SWAP1 POP DUP2 LT ISZERO PUSH2 0x1F92 JUMPI DUP5 PUSH1 0x40 MLOAD PUSH1 0x20 ADD PUSH2 0x1B1D SWAP2 SWAP1 PUSH2 0x2EC3 JUMP JUMPDEST PUSH1 0x40 MLOAD PUSH1 0x20 DUP2 DUP4 SUB SUB DUP2 MSTORE SWAP1 PUSH1 0x40 MSTORE DUP1 MLOAD SWAP1 PUSH1 0x20 ADD KECCAK256 PUSH1 0x2 DUP3 DUP2 SLOAD DUP2 LT PUSH2 0x1B47 JUMPI PUSH2 0x1B46 PUSH2 0x2E5C JUMP JUMPDEST JUMPDEST SWAP1 PUSH0 MSTORE PUSH1 0x20 PUSH0 KECCAK256 SWAP1 PUSH1 0xA MUL ADD PUSH1 0x1 ADD PUSH1 0x40 MLOAD PUSH1 0x20 ADD PUSH2 0x1B66 SWAP2 SWAP1 PUSH2 0x2FC8 JUMP JUMPDEST PUSH1 0x40 MLOAD PUSH1 0x20 DUP2 DUP4 SUB SUB DUP2 MSTORE SWAP1 PUSH1 0x40 MSTORE DUP1 MLOAD SWAP1 PUSH1 0x20 ADD KECCAK256 EQ DUP1 ISZERO PUSH2 0x1BBB JUMPI POP PUSH0 ISZERO ISZERO PUSH1 0x2 DUP3 DUP2 SLOAD DUP2 LT PUSH2 0x1B9B JUMPI PUSH2 0x1B9A PUSH2 0x2E5C JUMP JUMPDEST JUMPDEST SWAP1 PUSH0 MSTORE PUSH1 0x20 PUSH0 KECCAK256 SWAP1 PUSH1 0xA MUL ADD PUSH1 0x6 ADD PUSH0 SWAP1 SLOAD SWAP1 PUSH2 0x100 EXP SWAP1 DIV PUSH1 0xFF AND ISZERO ISZERO EQ JUMPDEST ISZERO PUSH2 0x1F85 JUMPI PUSH1 0x2 DUP2 DUP2 SLOAD DUP2 LT PUSH2 0x1BD4 JUMPI PUSH2 0x1BD3 PUSH2 0x2E5C JUMP JUMPDEST JUMPDEST SWAP1 PUSH0 MSTORE PUSH1 0x20 PUSH0 KECCAK256 SWAP1 PUSH1 0xA MUL ADD PUSH1 0x40 MLOAD DUP1 PUSH2 0x140 ADD PUSH1 0x40 MSTORE SWAP1 DUP2 PUSH0 DUP3 ADD SLOAD DUP2 MSTORE PUSH1 0x20 ADD PUSH1 0x1 DUP3 ADD DUP1 SLOAD PUSH2 0x1C05 SWAP1 PUSH2 0x2F06 JUMP JUMPDEST DUP1 PUSH1 0x1F ADD PUSH1 0x20 DUP1 SWAP2 DIV MUL PUSH1 0x20 ADD PUSH1 0x40 MLOAD SWAP1 DUP2 ADD PUSH1 0x40 MSTORE DUP1 SWAP3 SWAP2 SWAP1 DUP2 DUP2 MSTORE PUSH1 0x20 ADD DUP3 DUP1 SLOAD PUSH2 0x1C31 SWAP1 PUSH2 0x2F06 JUMP JUMPDEST DUP1 ISZERO PUSH2 0x1C7C JUMPI DUP1 PUSH1 0x1F LT PUSH2 0x1C53 JUMPI PUSH2 0x100 DUP1 DUP4 SLOAD DIV MUL DUP4 MSTORE SWAP2 PUSH1 0x20 ADD SWAP2 PUSH2 0x1C7C JUMP JUMPDEST DUP3 ADD SWAP2 SWAP1 PUSH0 MSTORE PUSH1 0x20 PUSH0 KECCAK256 SWAP1 JUMPDEST DUP2 SLOAD DUP2 MSTORE SWAP1 PUSH1 0x1 ADD SWAP1 PUSH1 0x20 ADD DUP1 DUP4 GT PUSH2 0x1C5F JUMPI DUP3 SWAP1 SUB PUSH1 0x1F AND DUP3 ADD SWAP2 JUMPDEST POP POP POP POP POP DUP2 MSTORE PUSH1 0x20 ADD PUSH1 0x2 DUP3 ADD DUP1 SLOAD PUSH2 0x1C95 SWAP1 PUSH2 0x2F06 JUMP JUMPDEST DUP1 PUSH1 0x1F ADD PUSH1 0x20 DUP1 SWAP2 DIV MUL PUSH1 0x20 ADD PUSH1 0x40 MLOAD SWAP1 DUP2 ADD PUSH1 0x40 MSTORE DUP1 SWAP3 SWAP2 SWAP1 DUP2 DUP2 MSTORE PUSH1 0x20 ADD DUP3 DUP1 SLOAD PUSH2 0x1CC1 SWAP1 PUSH2 0x2F06 JUMP JUMPDEST DUP1 ISZERO PUSH2 0x1D0C JUMPI DUP1 PUSH1 0x1F LT PUSH2 0x1CE3 JUMPI PUSH2 0x100 DUP1 DUP4 SLOAD DIV MUL DUP4 MSTORE SWAP2 PUSH1 0x20 ADD SWAP2 PUSH2 0x1D0C JUMP JUMPDEST DUP3 ADD SWAP2 SWAP1 PUSH0 MSTORE PUSH1 0x20 PUSH0 KECCAK256 SWAP1 JUMPDEST DUP2 SLOAD DUP2 MSTORE SWAP1 PUSH1 0x1 ADD SWAP1 PUSH1 0x20 ADD DUP1 DUP4 GT PUSH2 0x1CEF JUMPI DUP3 SWAP1 SUB PUSH1 0x1F AND DUP3 ADD SWAP2 JUMPDEST POP POP POP POP POP DUP2 MSTORE PUSH1 0x20 ADD PUSH1 0x3 DUP3 ADD DUP1 SLOAD PUSH2 0x1D25 SWAP1 PUSH2 0x2F06 JUMP JUMPDEST DUP1 PUSH1 0x1F ADD PUSH1 0x20 DUP1 SWAP2 DIV MUL PUSH1 0x20 ADD PUSH1 0x40 MLOAD SWAP1 DUP2 ADD PUSH1 0x40 MSTORE DUP1 SWAP3 SWAP2 SWAP1 DUP2 DUP2 MSTORE PUSH1 0x20 ADD DUP3 DUP1 SLOAD PUSH2 0x1D51 SWAP1 PUSH2 0x2F06 JUMP JUMPDEST DUP1 ISZERO PUSH2 0x1D9C JUMPI DUP1 PUSH1 0x1F LT PUSH2 0x1D73 JUMPI PUSH2 0x100 DUP1 DUP4 SLOAD DIV MUL DUP4 MSTORE SWAP2 PUSH1 0x20 ADD SWAP2 PUSH2 0x1D9C JUMP JUMPDEST DUP3 ADD SWAP2 SWAP1 PUSH0 MSTORE PUSH1 0x20 PUSH0 KECCAK256 SWAP1 JUMPDEST DUP2 SLOAD DUP2 MSTORE SWAP1 PUSH1 0x1 ADD SWAP1 PUSH1 0x20 ADD DUP1 DUP4 GT PUSH2 0x1D7F JUMPI DUP3 SWAP1 SUB PUSH1 0x1F AND DUP3 ADD SWAP2 JUMPDEST POP POP POP POP POP DUP2 MSTORE PUSH1 0x20 ADD PUSH1 0x4 DUP3 ADD PUSH0 SWAP1 SLOAD SWAP1 PUSH2 0x100 EXP SWAP1 DIV PUSH20 0xFFFFFFFFFFFFFFFFFFFFFFFFFFFFFFFFFFFFFFFF AND PUSH20 0xFFFFFFFFFFFFFFFFFFFFFFFFFFFFFFFFFFFFFFFF AND PUSH20 0xFFFFFFFFFFFFFFFFFFFFFFFFFFFFFFFFFFFFFFFF AND DUP2 MSTORE PUSH1 0x20 ADD PUSH1 0x5 DUP3 ADD SLOAD DUP2 MSTORE PUSH1 0x20 ADD PUSH1 0x6 DUP3 ADD PUSH0 SWAP1 SLOAD SWAP1 PUSH2 0x100 EXP SWAP1 DIV PUSH1 0xFF AND ISZERO ISZERO ISZERO ISZERO DUP2 MSTORE PUSH1 0x20 ADD PUSH1 0x7 DUP3 ADD DUP1 SLOAD PUSH2 0x1E2E SWAP1 PUSH2 0x2F06 JUMP JUMPDEST DUP1 PUSH1 0x1F ADD PUSH1 0x20 DUP1 SWAP2 DIV MUL PUSH1 0x20 ADD PUSH1 0x40 MLOAD SWAP1 DUP2 ADD PUSH1 0x40 MSTORE DUP1 SWAP3 SWAP2 SWAP1 DUP2 DUP2 MSTORE PUSH1 0x20 ADD DUP3 DUP1 SLOAD PUSH2 0x1E5A SWAP1 PUSH2 0x2F06 JUMP JUMPDEST DUP1 ISZERO PUSH2 0x1EA5 JUMPI DUP1 PUSH1 0x1F LT PUSH2 0x1E7C JUMPI PUSH2 0x100 DUP1 DUP4 SLOAD DIV MUL DUP4 MSTORE SWAP2 PUSH1 0x20 ADD SWAP2 PUSH2 0x1EA5 JUMP JUMPDEST DUP3 ADD SWAP2 SWAP1 PUSH0 MSTORE PUSH1 0x20 PUSH0 KECCAK256 SWAP1 JUMPDEST DUP2 SLOAD DUP2 MSTORE SWAP1 PUSH1 0x1 ADD SWAP1 PUSH1 0x20 ADD DUP1 DUP4 GT PUSH2 0x1E88 JUMPI DUP3 SWAP1 SUB PUSH1 0x1F AND DUP3 ADD SWAP2 JUMPDEST POP POP POP POP POP DUP2 MSTORE PUSH1 0x20 ADD PUSH1 0x8 DUP3 ADD DUP1 SLOAD PUSH2 0x1EBE SWAP1 PUSH2 0x2F06 JUMP JUMPDEST DUP1 PUSH1 0x1F ADD PUSH1 0x20 DUP1 SWAP2 DIV MUL PUSH1 0x20 ADD PUSH1 0x40 MLOAD SWAP1 DUP2 ADD PUSH1 0x40 MSTORE DUP1 SWAP3 SWAP2 SWAP1 DUP2 DUP2 MSTORE PUSH1 0x20 ADD DUP3 DUP1 SLOAD PUSH2 0x1EEA SWAP1 PUSH2 0x2F06 JUMP JUMPDEST DUP1 ISZERO PUSH2 0x1F35 JUMPI DUP1 PUSH1 0x1F LT PUSH2 0x1F0C JUMPI PUSH2 0x100 DUP1 DUP4 SLOAD DIV MUL DUP4 MSTORE SWAP2 PUSH1 0x20 ADD SWAP2 PUSH2 0x1F35 JUMP JUMPDEST DUP3 ADD SWAP2 SWAP1 PUSH0 MSTORE PUSH1 0x20 PUSH0 KECCAK256 SWAP1 JUMPDEST DUP2 SLOAD DUP2 MSTORE SWAP1 PUSH1 0x1 ADD SWAP1 PUSH1 0x20 ADD DUP1 DUP4 GT PUSH2 0x1F18 JUMPI DUP3 SWAP1 SUB PUSH1 0x1F AND DUP3 ADD SWAP2 JUMPDEST POP POP POP POP POP DUP2 MSTORE PUSH1 0x20 ADD PUSH1 0x9 DUP3 ADD PUSH0 SWAP1 SLOAD SWAP1 PUSH2 0x100 EXP SWAP1 DIV PUSH1 0xFF AND ISZERO ISZERO ISZERO ISZERO DUP2 MSTORE POP POP DUP3 DUP5 DUP2 MLOAD DUP2 LT PUSH2 0x1F6B JUMPI PUSH2 0x1F6A PUSH2 0x2E5C JUMP JUMPDEST JUMPDEST PUSH1 0x20 MUL PUSH1 0x20 ADD ADD DUP2 SWAP1 MSTORE POP DUP3 DUP1 PUSH2 0x1F81 SWAP1 PUSH2 0x32F3 JUMP JUMPDEST SWAP4 POP POP JUMPDEST DUP1 DUP1 PUSH1 0x1 ADD SWAP2 POP POP PUSH2 0x1AFF JUMP JUMPDEST POP DUP1 SWAP3 POP POP POP SWAP2 SWAP1 POP JUMP JUMPDEST PUSH1 0x60 PUSH0 DUP1 JUMPDEST PUSH1 0x2 DUP1 SLOAD SWAP1 POP DUP2 LT ISZERO PUSH2 0x2040 JUMPI DUP4 PUSH1 0x40 MLOAD PUSH1 0x20 ADD PUSH2 0x1FC0 SWAP2 SWAP1 PUSH2 0x2EC3 JUMP JUMPDEST PUSH1 0x40 MLOAD PUSH1 0x20 DUP2 DUP4 SUB SUB DUP2 MSTORE SWAP1 PUSH1 0x40 MSTORE DUP1 MLOAD SWAP1 PUSH1 0x20 ADD KECCAK256 PUSH1 0x2 DUP3 DUP2 SLOAD DUP2 LT PUSH2 0x1FEA JUMPI PUSH2 0x1FE9 PUSH2 0x2E5C JUMP JUMPDEST JUMPDEST SWAP1 PUSH0 MSTORE PUSH1 0x20 PUSH0 KECCAK256 SWAP1 PUSH1 0xA MUL ADD PUSH1 0x3 ADD PUSH1 0x40 MLOAD PUSH1 0x20 ADD PUSH2 0x2009 SWAP2 SWAP1 PUSH2 0x2FC8 JUMP JUMPDEST PUSH1 0x40 MLOAD PUSH1 0x20 DUP2 DUP4 SUB SUB DUP2 MSTORE SWAP1 PUSH1 0x40 MSTORE DUP1 MLOAD SWAP1 PUSH1 0x20 ADD KECCAK256 SUB PUSH2 0x2033 JUMPI DUP2 DUP1 PUSH2 0x202F SWAP1 PUSH2 0x32F3 JUMP JUMPDEST SWAP3 POP POP JUMPDEST DUP1 DUP1 PUSH1 0x1 ADD SWAP2 POP POP PUSH2 0x1FA2 JUMP JUMPDEST POP PUSH0 DUP2 PUSH8 0xFFFFFFFFFFFFFFFF DUP2 GT ISZERO PUSH2 0x205C JUMPI PUSH2 0x205B PUSH2 0x260A JUMP JUMPDEST JUMPDEST PUSH1 0x40 MLOAD SWAP1 DUP1 DUP3 MSTORE DUP1 PUSH1 0x20 MUL PUSH1 0x20 ADD DUP3 ADD PUSH1 0x40 MSTORE DUP1 ISZERO PUSH2 0x2095 JUMPI DUP2 PUSH1 0x20 ADD JUMPDEST PUSH2 0x2082 PUSH2 0x251F JUMP JUMPDEST DUP2 MSTORE PUSH1 0x20 ADD SWAP1 PUSH1 0x1 SWAP1 SUB SWAP1 DUP2 PUSH2 0x207A JUMPI SWAP1 POP JUMPDEST POP SWAP1 POP PUSH0 SWAP2 POP PUSH0 JUMPDEST PUSH1 0x2 DUP1 SLOAD SWAP1 POP DUP2 LT ISZERO PUSH2 0x24F1 JUMPI DUP5 PUSH1 0x40 MLOAD PUSH1 0x20 ADD PUSH2 0x20BB SWAP2 SWAP1 PUSH2 0x2EC3 JUMP JUMPDEST PUSH1 0x40 MLOAD PUSH1 0x20 DUP2 DUP4 SUB SUB DUP2 MSTORE SWAP1 PUSH1 0x40 MSTORE DUP1 MLOAD SWAP1 PUSH1 0x20 ADD KECCAK256 PUSH1 0x2 DUP3 DUP2 SLOAD DUP2 LT PUSH2 0x20E5 JUMPI PUSH2 0x20E4 PUSH2 0x2E5C JUMP JUMPDEST JUMPDEST SWAP1 PUSH0 MSTORE PUSH1 0x20 PUSH0 KECCAK256 SWAP1 PUSH1 0xA MUL ADD PUSH1 0x3 ADD PUSH1 0x40 MLOAD PUSH1 0x20 ADD PUSH2 0x2104 SWAP2 SWAP1 PUSH2 0x2FC8 JUMP JUMPDEST PUSH1 0x40 MLOAD PUSH1 0x20 DUP2 DUP4 SUB SUB DUP2 MSTORE SWAP1 PUSH1 0x40 MSTORE DUP1 MLOAD SWAP1 PUSH1 0x20 ADD KECCAK256 SUB PUSH2 0x24E4 JUMPI PUSH1 0x2 DUP2 DUP2 SLOAD DUP2 LT PUSH2 0x2133 JUMPI PUSH2 0x2132 PUSH2 0x2E5C JUMP JUMPDEST JUMPDEST SWAP1 PUSH0 MSTORE PUSH1 0x20 PUSH0 KECCAK256 SWAP1 PUSH1 0xA MUL ADD PUSH1 0x40 MLOAD DUP1 PUSH2 0x140 ADD PUSH1 0x40 MSTORE SWAP1 DUP2 PUSH0 DUP3 ADD SLOAD DUP2 MSTORE PUSH1 0x20 ADD PUSH1 0x1 DUP3 ADD DUP1 SLOAD PUSH2 0x2164 SWAP1 PUSH2 0x2F06 JUMP JUMPDEST DUP1 PUSH1 0x1F ADD PUSH1 0x20 DUP1 SWAP2 DIV MUL PUSH1 0x20 ADD PUSH1 0x40 MLOAD SWAP1 DUP2 ADD PUSH1 0x40 MSTORE DUP1 SWAP3 SWAP2 SWAP1 DUP2 DUP2 MSTORE PUSH1 0x20 ADD DUP3 DUP1 SLOAD PUSH2 0x2190 SWAP1 PUSH2 0x2F06 JUMP JUMPDEST DUP1 ISZERO PUSH2 0x21DB JUMPI DUP1 PUSH1 0x1F LT PUSH2 0x21B2 JUMPI PUSH2 0x100 DUP1 DUP4 SLOAD DIV MUL DUP4 MSTORE SWAP2 PUSH1 0x20 ADD SWAP2 PUSH2 0x21DB JUMP JUMPDEST DUP3 ADD SWAP2 SWAP1 PUSH0 MSTORE PUSH1 0x20 PUSH0 KECCAK256 SWAP1 JUMPDEST DUP2 SLOAD DUP2 MSTORE SWAP1 PUSH1 0x1 ADD SWAP1 PUSH1 0x20 ADD DUP1 DUP4 GT PUSH2 0x21BE JUMPI DUP3 SWAP1 SUB PUSH1 0x1F AND DUP3 ADD SWAP2 JUMPDEST POP POP POP POP POP DUP2 MSTORE PUSH1 0x20 ADD PUSH1 0x2 DUP3 ADD DUP1 SLOAD PUSH2 0x21F4 SWAP1 PUSH2 0x2F06 JUMP JUMPDEST DUP1 PUSH1 0x1F ADD PUSH1 0x20 DUP1 SWAP2 DIV MUL PUSH1 0x20 ADD PUSH1 0x40 MLOAD SWAP1 DUP2 ADD PUSH1 0x40 MSTORE DUP1 SWAP3 SWAP2 SWAP1 DUP2 DUP2 MSTORE PUSH1 0x20 ADD DUP3 DUP1 SLOAD PUSH2 0x2220 SWAP1 PUSH2 0x2F06 JUMP JUMPDEST DUP1 ISZERO PUSH2 0x226B JUMPI DUP1 PUSH1 0x1F LT PUSH2 0x2242 JUMPI PUSH2 0x100 DUP1 DUP4 SLOAD DIV MUL DUP4 MSTORE SWAP2 PUSH1 0x20 ADD SWAP2 PUSH2 0x226B JUMP JUMPDEST DUP3 ADD SWAP2 SWAP1 PUSH0 MSTORE PUSH1 0x20 PUSH0 KECCAK256 SWAP1 JUMPDEST DUP2 SLOAD DUP2 MSTORE SWAP1 PUSH1 0x1 ADD SWAP1 PUSH1 0x20 ADD DUP1 DUP4 GT PUSH2 0x224E JUMPI DUP3 SWAP1 SUB PUSH1 0x1F AND DUP3 ADD SWAP2 JUMPDEST POP POP POP POP POP DUP2 MSTORE PUSH1 0x20 ADD PUSH1 0x3 DUP3 ADD DUP1 SLOAD PUSH2 0x2284 SWAP1 PUSH2 0x2F06 JUMP JUMPDEST DUP1 PUSH1 0x1F ADD PUSH1 0x20 DUP1 SWAP2 DIV MUL PUSH1 0x20 ADD PUSH1 0x40 MLOAD SWAP1 DUP2 ADD PUSH1 0x40 MSTORE DUP1 SWAP3 SWAP2 SWAP1 DUP2 DUP2 MSTORE PUSH1 0x20 ADD DUP3 DUP1 SLOAD PUSH2 0x22B0 SWAP1 PUSH2 0x2F06 JUMP JUMPDEST DUP1 ISZERO PUSH2 0x22FB JUMPI DUP1 PUSH1 0x1F LT PUSH2 0x22D2 JUMPI PUSH2 0x100 DUP1 DUP4 SLOAD DIV MUL DUP4 MSTORE SWAP2 PUSH1 0x20 ADD SWAP2 PUSH2 0x22FB JUMP JUMPDEST DUP3 ADD SWAP2 SWAP1 PUSH0 MSTORE PUSH1 0x20 PUSH0 KECCAK256 SWAP1 JUMPDEST DUP2 SLOAD DUP2 MSTORE SWAP1 PUSH1 0x1 ADD SWAP1 PUSH1 0x20 ADD DUP1 DUP4 GT PUSH2 0x22DE JUMPI DUP3 SWAP1 SUB PUSH1 0x1F AND DUP3 ADD SWAP2 JUMPDEST POP POP POP POP POP DUP2 MSTORE PUSH1 0x20 ADD PUSH1 0x4 DUP3 ADD PUSH0 SWAP1 SLOAD SWAP1 PUSH2 0x100 EXP SWAP1 DIV PUSH20 0xFFFFFFFFFFFFFFFFFFFFFFFFFFFFFFFFFFFFFFFF AND PUSH20 0xFFFFFFFFFFFFFFFFFFFFFFFFFFFFFFFFFFFFFFFF AND PUSH20 0xFFFFFFFFFFFFFFFFFFFFFFFFFFFFFFFFFFFFFFFF AND DUP2 MSTORE PUSH1 0x20 ADD PUSH1 0x5 DUP3 ADD SLOAD DUP2 MSTORE PUSH1 0x20 ADD PUSH1 0x6 DUP3 ADD PUSH0 SWAP1 SLOAD SWAP1 PUSH2 0x100 EXP SWAP1 DIV PUSH1 0xFF AND ISZERO ISZERO ISZERO ISZERO DUP2 MSTORE PUSH1 0x20 ADD PUSH1 0x7 DUP3 ADD DUP1 SLOAD PUSH2 0x238D SWAP1 PUSH2 0x2F06 JUMP JUMPDEST DUP1 PUSH1 0x1F ADD PUSH1 0x20 DUP1 SWAP2 DIV MUL PUSH1 0x20 ADD PUSH1 0x40 MLOAD SWAP1 DUP2 ADD PUSH1 0x40 MSTORE DUP1 SWAP3 SWAP2 SWAP1 DUP2 DUP2 MSTORE PUSH1 0x20 ADD DUP3 DUP1 SLOAD PUSH2 0x23B9 SWAP1 PUSH2 0x2F06 JUMP JUMPDEST DUP1 ISZERO PUSH2 0x2404 JUMPI DUP1 PUSH1 0x1F LT PUSH2 0x23DB JUMPI PUSH2 0x100 DUP1 DUP4 SLOAD DIV MUL DUP4 MSTORE SWAP2 PUSH1 0x20 ADD SWAP2 PUSH2 0x2404 JUMP JUMPDEST DUP3 ADD SWAP2 SWAP1 PUSH0 MSTORE PUSH1 0x20 PUSH0 KECCAK256 SWAP1 JUMPDEST DUP2 SLOAD DUP2 MSTORE SWAP1 PUSH1 0x1 ADD SWAP1 PUSH1 0x20 ADD DUP1 DUP4 GT PUSH2 0x23E7 JUMPI DUP3 SWAP1 SUB PUSH1 0x1F AND DUP3 ADD SWAP2 JUMPDEST POP POP POP POP POP DUP2 MSTORE PUSH1 0x20 ADD PUSH1 0x8 DUP3 ADD DUP1 SLOAD PUSH2 0x241D SWAP1 PUSH2 0x2F06 JUMP JUMPDEST DUP1 PUSH1 0x1F ADD PUSH1 0x20 DUP1 SWAP2 DIV MUL PUSH1 0x20 ADD PUSH1 0x40 MLOAD SWAP1 DUP2 ADD PUSH1 0x40 MSTORE DUP1 SWAP3 SWAP2 SWAP1 DUP2 DUP2 MSTORE PUSH1 0x20 ADD DUP3 DUP1 SLOAD PUSH2 0x2449 SWAP1 PUSH2 0x2F06 JUMP JUMPDEST DUP1 ISZERO PUSH2 0x2494 JUMPI DUP1 PUSH1 0x1F LT PUSH2 0x246B JUMPI PUSH2 0x100 DUP1 DUP4 SLOAD DIV MUL DUP4 MSTORE SWAP2 PUSH1 0x20 ADD SWAP2 PUSH2 0x2494 JUMP JUMPDEST DUP3 ADD SWAP2 SWAP1 PUSH0 MSTORE PUSH1 0x20 PUSH0 KECCAK256 SWAP1 JUMPDEST DUP2 SLOAD DUP2 MSTORE SWAP1 PUSH1 0x1 ADD SWAP1 PUSH1 0x20 ADD DUP1 DUP4 GT PUSH2 0x2477 JUMPI DUP3 SWAP1 SUB PUSH1 0x1F AND DUP3 ADD SWAP2 JUMPDEST POP POP POP POP POP DUP2 MSTORE PUSH1 0x20 ADD PUSH1 0x9 DUP3 ADD PUSH0 SWAP1 SLOAD SWAP1 PUSH2 0x100 EXP SWAP1 DIV PUSH1 0xFF AND ISZERO ISZERO ISZERO ISZERO DUP2 MSTORE POP POP DUP3 DUP5 DUP2 MLOAD DUP2 LT PUSH2 0x24CA JUMPI PUSH2 0x24C9 PUSH2 0x2E5C JUMP JUMPDEST JUMPDEST PUSH1 0x20 MUL PUSH1 0x20 ADD ADD DUP2 SWAP1 MSTORE POP DUP3 DUP1 PUSH2 0x24E0 SWAP1 PUSH2 0x32F3 JUMP JUMPDEST SWAP4 POP POP JUMPDEST DUP1 DUP1 PUSH1 0x1 ADD SWAP2 POP POP PUSH2 0x209D JUMP JUMPDEST POP DUP1 SWAP3 POP POP POP SWAP2 SWAP1 POP JUMP JUMPDEST PUSH0 DUP1 SLOAD SWAP1 PUSH2 0x100 EXP SWAP1 DIV PUSH20 0xFFFFFFFFFFFFFFFFFFFFFFFFFFFFFFFFFFFFFFFF AND DUP2 JUMP JUMPDEST PUSH1 0x40 MLOAD DUP1 PUSH2 0x140 ADD PUSH1 0x40 MSTORE DUP1 PUSH0 DUP2 MSTORE PUSH1 0x20 ADD PUSH1 0x60 DUP2 MSTORE PUSH1 0x20 ADD PUSH1 0x60 DUP2 MSTORE PUSH1 0x20 ADD PUSH1 0x60 DUP2 MSTORE PUSH1 0x20 ADD PUSH0 PUSH20 0xFFFFFFFFFFFFFFFFFFFFFFFFFFFFFFFFFFFFFFFF AND DUP2 MSTORE PUSH1 0x20 ADD PUSH0 DUP2 MSTORE PUSH1 0x20 ADD PUSH0 ISZERO ISZERO DUP2 MSTORE PUSH1 0x20 ADD PUSH1 0x60 DUP2 MSTORE PUSH1 0x20 ADD PUSH1 0x60 DUP2 MSTORE PUSH1 0x20 ADD PUSH0 ISZERO ISZERO DUP2 MSTORE POP SWAP1 JUMP JUMPDEST PUSH0 PUSH1 0x40 MLOAD SWAP1 POP SWAP1 JUMP JUMPDEST PUSH0 DUP1 REVERT JUMPDEST PUSH0 DUP1 REVERT JUMPDEST PUSH0 PUSH20 0xFFFFFFFFFFFFFFFFFFFFFFFFFFFFFFFFFFFFFFFF DUP3 AND SWAP1 POP SWAP2 SWAP1 POP JUMP JUMPDEST PUSH0 PUSH2 0x25C1 DUP3 PUSH2 0x2598 JUMP JUMPDEST SWAP1 POP SWAP2 SWAP1 POP JUMP JUMPDEST PUSH2 0x25D1 DUP2 PUSH2 0x25B7 JUMP JUMPDEST DUP2 EQ PUSH2 0x25DB JUMPI PUSH0 DUP1 REVERT JUMPDEST POP JUMP JUMPDEST PUSH0 DUP2 CALLDATALOAD SWAP1 POP PUSH2 0x25EC DUP2 PUSH2 0x25C8 JUMP JUMPDEST SWAP3 SWAP2 POP POP JUMP JUMPDEST PUSH0 DUP1 REVERT JUMPDEST PUSH0 DUP1 REVERT JUMPDEST PUSH0 PUSH1 0x1F NOT PUSH1 0x1F DUP4 ADD AND SWAP1 POP SWAP2 SWAP1 POP JUMP JUMPDEST PUSH32 0x4E487B7100000000000000000000000000000000000000000000000000000000 PUSH0 MSTORE PUSH1 0x41 PUSH1 0x4 MSTORE PUSH1 0x24 PUSH0 REVERT JUMPDEST PUSH2 0x2640 DUP3 PUSH2 0x25FA JUMP JUMPDEST DUP2 ADD DUP2 DUP2 LT PUSH8 0xFFFFFFFFFFFFFFFF DUP3 GT OR ISZERO PUSH2 0x265F JUMPI PUSH2 0x265E PUSH2 0x260A JUMP JUMPDEST JUMPDEST DUP1 PUSH1 0x40 MSTORE POP POP POP JUMP JUMPDEST PUSH0 PUSH2 0x2671 PUSH2 0x2587 JUMP JUMPDEST SWAP1 POP PUSH2 0x267D DUP3 DUP3 PUSH2 0x2637 JUMP JUMPDEST SWAP2 SWAP1 POP JUMP JUMPDEST PUSH0 PUSH8 0xFFFFFFFFFFFFFFFF DUP3 GT ISZERO PUSH2 0x269C JUMPI PUSH2 0x269B PUSH2 0x260A JUMP JUMPDEST JUMPDEST PUSH2 0x26A5 DUP3 PUSH2 0x25FA JUMP JUMPDEST SWAP1 POP PUSH1 0x20 DUP2 ADD SWAP1 POP SWAP2 SWAP1 POP JUMP JUMPDEST DUP3 DUP2 DUP4 CALLDATACOPY PUSH0 DUP4 DUP4 ADD MSTORE POP POP POP JUMP JUMPDEST PUSH0 PUSH2 0x26D2 PUSH2 0x26CD DUP5 PUSH2 0x2682 JUMP JUMPDEST PUSH2 0x2668 JUMP JUMPDEST SWAP1 POP DUP3 DUP2 MSTORE PUSH1 0x20 DUP2 ADD DUP5 DUP5 DUP5 ADD GT ISZERO PUSH2 0x26EE JUMPI PUSH2 0x26ED PUSH2 0x25F6 JUMP JUMPDEST JUMPDEST PUSH2 0x26F9 DUP5 DUP3 DUP6 PUSH2 0x26B2 JUMP JUMPDEST POP SWAP4 SWAP3 POP POP POP JUMP JUMPDEST PUSH0 DUP3 PUSH1 0x1F DUP4 ADD SLT PUSH2 0x2715 JUMPI PUSH2 0x2714 PUSH2 0x25F2 JUMP JUMPDEST JUMPDEST DUP2 CALLDATALOAD PUSH2 0x2725 DUP5 DUP3 PUSH1 0x20 DUP7 ADD PUSH2 0x26C0 JUMP JUMPDEST SWAP2 POP POP SWAP3 SWAP2 POP POP JUMP JUMPDEST PUSH0 DUP1 PUSH1 0x40 DUP4 DUP6 SUB SLT ISZERO PUSH2 0x2744 JUMPI PUSH2 0x2743 PUSH2 0x2590 JUMP JUMPDEST JUMPDEST PUSH0 PUSH2 0x2751 DUP6 DUP3 DUP7 ADD PUSH2 0x25DE JUMP JUMPDEST SWAP3 POP POP PUSH1 0x20 DUP4 ADD CALLDATALOAD PUSH8 0xFFFFFFFFFFFFFFFF DUP2 GT ISZERO PUSH2 0x2772 JUMPI PUSH2 0x2771 PUSH2 0x2594 JUMP JUMPDEST JUMPDEST PUSH2 0x277E DUP6 DUP3 DUP7 ADD PUSH2 0x2701 JUMP JUMPDEST SWAP2 POP POP SWAP3 POP SWAP3 SWAP1 POP JUMP JUMPDEST PUSH0 DUP2 ISZERO ISZERO SWAP1 POP SWAP2 SWAP1 POP JUMP JUMPDEST PUSH2 0x279C DUP2 PUSH2 0x2788 JUMP JUMPDEST DUP3 MSTORE POP POP JUMP JUMPDEST PUSH0 PUSH1 0x20 DUP3 ADD SWAP1 POP PUSH2 0x27B5 PUSH0 DUP4 ADD DUP5 PUSH2 0x2793 JUMP JUMPDEST SWAP3 SWAP2 POP POP JUMP JUMPDEST PUSH0 DUP2 SWAP1 POP SWAP2 SWAP1 POP JUMP JUMPDEST PUSH2 0x27CD DUP2 PUSH2 0x27BB JUMP JUMPDEST DUP2 EQ PUSH2 0x27D7 JUMPI PUSH0 DUP1 REVERT JUMPDEST POP JUMP JUMPDEST PUSH0 DUP2 CALLDATALOAD SWAP1 POP PUSH2 0x27E8 DUP2 PUSH2 0x27C4 JUMP JUMPDEST SWAP3 SWAP2 POP POP JUMP JUMPDEST PUSH2 0x27F7 DUP2 PUSH2 0x2788 JUMP JUMPDEST DUP2 EQ PUSH2 0x2801 JUMPI PUSH0 DUP1 REVERT JUMPDEST POP JUMP JUMPDEST PUSH0 DUP2 CALLDATALOAD SWAP1 POP PUSH2 0x2812 DUP2 PUSH2 0x27EE JUMP JUMPDEST SWAP3 SWAP2 POP POP JUMP JUMPDEST PUSH0 DUP1 PUSH0 DUP1 PUSH0 DUP1 PUSH0 DUP1 PUSH2 0x100 DUP10 DUP12 SUB SLT ISZERO PUSH2 0x2835 JUMPI PUSH2 0x2834 PUSH2 0x2590 JUMP JUMPDEST JUMPDEST PUSH0 PUSH2 0x2842 DUP12 DUP3 DUP13 ADD PUSH2 0x27DA JUMP JUMPDEST SWAP9 POP POP PUSH1 0x20 DUP10 ADD CALLDATALOAD PUSH8 0xFFFFFFFFFFFFFFFF DUP2 GT ISZERO PUSH2 0x2863 JUMPI PUSH2 0x2862 PUSH2 0x2594 JUMP JUMPDEST JUMPDEST PUSH2 0x286F DUP12 DUP3 DUP13 ADD PUSH2 0x2701 JUMP JUMPDEST SWAP8 POP POP PUSH1 0x40 DUP10 ADD CALLDATALOAD PUSH8 0xFFFFFFFFFFFFFFFF DUP2 GT ISZERO PUSH2 0x2890 JUMPI PUSH2 0x288F PUSH2 0x2594 JUMP JUMPDEST JUMPDEST PUSH2 0x289C DUP12 DUP3 DUP13 ADD PUSH2 0x2701 JUMP JUMPDEST SWAP7 POP POP PUSH1 0x60 DUP10 ADD CALLDATALOAD PUSH8 0xFFFFFFFFFFFFFFFF DUP2 GT ISZERO PUSH2 0x28BD JUMPI PUSH2 0x28BC PUSH2 0x2594 JUMP JUMPDEST JUMPDEST PUSH2 0x28C9 DUP12 DUP3 DUP13 ADD PUSH2 0x2701 JUMP JUMPDEST SWAP6 POP POP PUSH1 0x80 PUSH2 0x28DA DUP12 DUP3 DUP13 ADD PUSH2 0x25DE JUMP JUMPDEST SWAP5 POP POP PUSH1 0xA0 PUSH2 0x28EB DUP12 DUP3 DUP13 ADD PUSH2 0x27DA JUMP JUMPDEST SWAP4 POP POP PUSH1 0xC0 DUP10 ADD CALLDATALOAD PUSH8 0xFFFFFFFFFFFFFFFF DUP2 GT ISZERO PUSH2 0x290C JUMPI PUSH2 0x290B PUSH2 0x2594 JUMP JUMPDEST JUMPDEST PUSH2 0x2918 DUP12 DUP3 DUP13 ADD PUSH2 0x2701 JUMP JUMPDEST SWAP3 POP POP PUSH1 0xE0 PUSH2 0x2929 DUP12 DUP3 DUP13 ADD PUSH2 0x2804 JUMP JUMPDEST SWAP2 POP POP SWAP3 SWAP6 SWAP9 POP SWAP3 SWAP6 SWAP9 SWAP1 SWAP4 SWAP7 POP JUMP JUMPDEST PUSH2 0x2942 DUP2 PUSH2 0x25B7 JUMP JUMPDEST DUP3 MSTORE POP POP JUMP JUMPDEST PUSH0 PUSH1 0x20 DUP3 ADD SWAP1 POP PUSH2 0x295B PUSH0 DUP4 ADD DUP5 PUSH2 0x2939 JUMP JUMPDEST SWAP3 SWAP2 POP POP JUMP JUMPDEST PUSH0 PUSH1 0x20 DUP3 DUP5 SUB SLT ISZERO PUSH2 0x2976 JUMPI PUSH2 0x2975 PUSH2 0x2590 JUMP JUMPDEST JUMPDEST PUSH0 PUSH2 0x2983 DUP5 DUP3 DUP6 ADD PUSH2 0x27DA JUMP JUMPDEST SWAP2 POP POP SWAP3 SWAP2 POP POP JUMP JUMPDEST PUSH2 0x2995 DUP2 PUSH2 0x27BB JUMP JUMPDEST DUP3 MSTORE POP POP JUMP JUMPDEST PUSH0 DUP2 MLOAD SWAP1 POP SWAP2 SWAP1 POP JUMP JUMPDEST PUSH0 DUP3 DUP3 MSTORE PUSH1 0x20 DUP3 ADD SWAP1 POP SWAP3 SWAP2 POP POP JUMP JUMPDEST PUSH0 JUMPDEST DUP4 DUP2 LT ISZERO PUSH2 0x29D2 JUMPI DUP1 DUP3 ADD MLOAD DUP2 DUP5 ADD MSTORE PUSH1 0x20 DUP2 ADD SWAP1 POP PUSH2 0x29B7 JUMP JUMPDEST PUSH0 DUP5 DUP5 ADD MSTORE POP POP POP POP JUMP JUMPDEST PUSH0 PUSH2 0x29E7 DUP3 PUSH2 0x299B JUMP JUMPDEST PUSH2 0x29F1 DUP2 DUP6 PUSH2 0x29A5 JUMP JUMPDEST SWAP4 POP PUSH2 0x2A01 DUP2 DUP6 PUSH1 0x20 DUP7 ADD PUSH2 0x29B5 JUMP JUMPDEST PUSH2 0x2A0A DUP2 PUSH2 0x25FA JUMP JUMPDEST DUP5 ADD SWAP2 POP POP SWAP3 SWAP2 POP POP JUMP JUMPDEST PUSH0 PUSH2 0x140 DUP3 ADD SWAP1 POP PUSH2 0x2A29 PUSH0 DUP4 ADD DUP14 PUSH2 0x298C JUMP JUMPDEST DUP2 DUP2 SUB PUSH1 0x20 DUP4 ADD MSTORE PUSH2 0x2A3B DUP2 DUP13 PUSH2 0x29DD JUMP JUMPDEST SWAP1 POP DUP2 DUP2 SUB PUSH1 0x40 DUP4 ADD MSTORE PUSH2 0x2A4F DUP2 DUP12 PUSH2 0x29DD JUMP JUMPDEST SWAP1 POP DUP2 DUP2 SUB PUSH1 0x60 DUP4 ADD MSTORE PUSH2 0x2A63 DUP2 DUP11 PUSH2 0x29DD JUMP JUMPDEST SWAP1 POP PUSH2 0x2A72 PUSH1 0x80 DUP4 ADD DUP10 PUSH2 0x2939 JUMP JUMPDEST PUSH2 0x2A7F PUSH1 0xA0 DUP4 ADD DUP9 PUSH2 0x298C JUMP JUMPDEST PUSH2 0x2A8C PUSH1 0xC0 DUP4 ADD DUP8 PUSH2 0x2793 JUMP JUMPDEST DUP2 DUP2 SUB PUSH1 0xE0 DUP4 ADD MSTORE PUSH2 0x2A9E DUP2 DUP7 PUSH2 0x29DD JUMP JUMPDEST SWAP1 POP DUP2 DUP2 SUB PUSH2 0x100 DUP4 ADD MSTORE PUSH2 0x2AB3 DUP2 DUP6 PUSH2 0x29DD JUMP JUMPDEST SWAP1 POP PUSH2 0x2AC3 PUSH2 0x120 DUP4 ADD DUP5 PUSH2 0x2793 JUMP JUMPDEST SWAP12 SWAP11 POP POP POP POP POP POP POP POP POP POP POP JUMP JUMPDEST PUSH0 PUSH1 0x20 DUP3 DUP5 SUB SLT ISZERO PUSH2 0x2AE7 JUMPI PUSH2 0x2AE6 PUSH2 0x2590 JUMP JUMPDEST JUMPDEST PUSH0 DUP3 ADD CALLDATALOAD PUSH8 0xFFFFFFFFFFFFFFFF DUP2 GT ISZERO PUSH2 0x2B04 JUMPI PUSH2 0x2B03 PUSH2 0x2594 JUMP JUMPDEST JUMPDEST PUSH2 0x2B10 DUP5 DUP3 DUP6 ADD PUSH2 0x2701 JUMP JUMPDEST SWAP2 POP POP SWAP3 SWAP2 POP POP JUMP JUMPDEST PUSH0 DUP2 MLOAD SWAP1 POP SWAP2 SWAP1 POP JUMP JUMPDEST PUSH0 DUP3 DUP3 MSTORE PUSH1 0x20 DUP3 ADD SWAP1 POP SWAP3 SWAP2 POP POP JUMP JUMPDEST PUSH0 DUP2 SWAP1 POP PUSH1 0x20 DUP3 ADD SWAP1 POP SWAP2 SWAP1 POP JUMP JUMPDEST PUSH2 0x2B4B DUP2 PUSH2 0x27BB JUMP JUMPDEST DUP3 MSTORE POP POP JUMP JUMPDEST PUSH0 DUP3 DUP3 MSTORE PUSH1 0x20 DUP3 ADD SWAP1 POP SWAP3 SWAP2 POP POP JUMP JUMPDEST PUSH0 PUSH2 0x2B6B DUP3 PUSH2 0x299B JUMP JUMPDEST PUSH2 0x2B75 DUP2 DUP6 PUSH2 0x2B51 JUMP JUMPDEST SWAP4 POP PUSH2 0x2B85 DUP2 DUP6 PUSH1 0x20 DUP7 ADD PUSH2 0x29B5 JUMP JUMPDEST PUSH2 0x2B8E DUP2 PUSH2 0x25FA JUMP JUMPDEST DUP5 ADD SWAP2 POP POP SWAP3 SWAP2 POP POP JUMP JUMPDEST PUSH2 0x2BA2 DUP2 PUSH2 0x25B7 JUMP JUMPDEST DUP3 MSTORE POP POP JUMP JUMPDEST PUSH2 0x2BB1 DUP2 PUSH2 0x2788 JUMP JUMPDEST DUP3 MSTORE POP POP JUMP JUMPDEST PUSH0 PUSH2 0x140 DUP4 ADD PUSH0 DUP4 ADD MLOAD PUSH2 0x2BCD PUSH0 DUP7 ADD DUP3 PUSH2 0x2B42 JUMP JUMPDEST POP PUSH1 0x20 DUP4 ADD MLOAD DUP5 DUP3 SUB PUSH1 0x20 DUP7 ADD MSTORE PUSH2 0x2BE5 DUP3 DUP3 PUSH2 0x2B61 JUMP JUMPDEST SWAP2 POP POP PUSH1 0x40 DUP4 ADD MLOAD DUP5 DUP3 SUB PUSH1 0x40 DUP7 ADD MSTORE PUSH2 0x2BFF DUP3 DUP3 PUSH2 0x2B61 JUMP JUMPDEST SWAP2 POP POP PUSH1 0x60 DUP4 ADD MLOAD DUP5 DUP3 SUB PUSH1 0x60 DUP7 ADD MSTORE PUSH2 0x2C19 DUP3 DUP3 PUSH2 0x2B61 JUMP JUMPDEST SWAP2 POP POP PUSH1 0x80 DUP4 ADD MLOAD PUSH2 0x2C2E PUSH1 0x80 DUP7 ADD DUP3 PUSH2 0x2B99 JUMP JUMPDEST POP PUSH1 0xA0 DUP4 ADD MLOAD PUSH2 0x2C41 PUSH1 0xA0 DUP7 ADD DUP3 PUSH2 0x2B42 JUMP JUMPDEST POP PUSH1 0xC0 DUP4 ADD MLOAD PUSH2 0x2C54 PUSH1 0xC0 DUP7 ADD DUP3 PUSH2 0x2BA8 JUMP JUMPDEST POP PUSH1 0xE0 DUP4 ADD MLOAD DUP5 DUP3 SUB PUSH1 0xE0 DUP7 ADD MSTORE PUSH2 0x2C6C DUP3 DUP3 PUSH2 0x2B61 JUMP JUMPDEST SWAP2 POP POP PUSH2 0x100 DUP4 ADD MLOAD DUP5 DUP3 SUB PUSH2 0x100 DUP7 ADD MSTORE PUSH2 0x2C88 DUP3 DUP3 PUSH2 0x2B61 JUMP JUMPDEST SWAP2 POP POP PUSH2 0x120 DUP4 ADD MLOAD PUSH2 0x2C9F PUSH2 0x120 DUP7 ADD DUP3 PUSH2 0x2BA8 JUMP JUMPDEST POP DUP1 SWAP2 POP POP SWAP3 SWAP2 POP POP JUMP JUMPDEST PUSH0 PUSH2 0x2CB5 DUP4 DUP4 PUSH2 0x2BB7 JUMP JUMPDEST SWAP1 POP SWAP3 SWAP2 POP POP JUMP JUMPDEST PUSH0 PUSH1 0x20 DUP3 ADD SWAP1 POP SWAP2 SWAP1 POP JUMP JUMPDEST PUSH0 PUSH2 0x2CD3 DUP3 PUSH2 0x2B19 JUMP JUMPDEST PUSH2 0x2CDD DUP2 DUP6 PUSH2 0x2B23 JUMP JUMPDEST SWAP4 POP DUP4 PUSH1 0x20 DUP3 MUL DUP6 ADD PUSH2 0x2CEF DUP6 PUSH2 0x2B33 JUMP JUMPDEST DUP1 PUSH0 JUMPDEST DUP6 DUP2 LT ISZERO PUSH2 0x2D2A JUMPI DUP5 DUP5 SUB DUP10 MSTORE DUP2 MLOAD PUSH2 0x2D0B DUP6 DUP3 PUSH2 0x2CAA JUMP JUMPDEST SWAP5 POP PUSH2 0x2D16 DUP4 PUSH2 0x2CBD JUMP JUMPDEST SWAP3 POP PUSH1 0x20 DUP11 ADD SWAP10 POP POP PUSH1 0x1 DUP2 ADD SWAP1 POP PUSH2 0x2CF2 JUMP JUMPDEST POP DUP3 SWAP8 POP DUP8 SWAP6 POP POP POP POP POP POP SWAP3 SWAP2 POP POP JUMP JUMPDEST PUSH0 PUSH1 0x20 DUP3 ADD SWAP1 POP DUP2 DUP2 SUB PUSH0 DUP4 ADD MSTORE PUSH2 0x2D54 DUP2 DUP5 PUSH2 0x2CC9 JUMP JUMPDEST SWAP1 POP SWAP3 SWAP2 POP POP JUMP JUMPDEST PUSH0 PUSH1 0x20 DUP3 DUP5 SUB SLT ISZERO PUSH2 0x2D71 JUMPI PUSH2 0x2D70 PUSH2 0x2590 JUMP JUMPDEST JUMPDEST PUSH0 PUSH2 0x2D7E DUP5 DUP3 DUP6 ADD PUSH2 0x25DE JUMP JUMPDEST SWAP2 POP POP SWAP3 SWAP2 POP POP JUMP JUMPDEST PUSH0 DUP1 PUSH1 0x40 DUP4 DUP6 SUB SLT ISZERO PUSH2 0x2D9D JUMPI PUSH2 0x2D9C PUSH2 0x2590 JUMP JUMPDEST JUMPDEST PUSH0 DUP4 ADD CALLDATALOAD PUSH8 0xFFFFFFFFFFFFFFFF DUP2 GT ISZERO PUSH2 0x2DBA JUMPI PUSH2 0x2DB9 PUSH2 0x2594 JUMP JUMPDEST JUMPDEST PUSH2 0x2DC6 DUP6 DUP3 DUP7 ADD PUSH2 0x2701 JUMP JUMPDEST SWAP3 POP POP PUSH1 0x20 DUP4 ADD CALLDATALOAD PUSH8 0xFFFFFFFFFFFFFFFF DUP2 GT ISZERO PUSH2 0x2DE7 JUMPI PUSH2 0x2DE6 PUSH2 0x2594 JUMP JUMPDEST JUMPDEST PUSH2 0x2DF3 DUP6 DUP3 DUP7 ADD PUSH2 0x2701 JUMP JUMPDEST SWAP2 POP POP SWAP3 POP SWAP3 SWAP1 POP JUMP JUMPDEST PUSH0 DUP2 PUSH1 0x60 SHL SWAP1 POP SWAP2 SWAP1 POP JUMP JUMPDEST PUSH0 PUSH2 0x2E13 DUP3 PUSH2 0x2DFD JUMP JUMPDEST SWAP1 POP SWAP2 SWAP1 POP JUMP JUMPDEST PUSH0 PUSH2 0x2E24 DUP3 PUSH2 0x2E09 JUMP JUMPDEST SWAP1 POP SWAP2 SWAP1 POP JUMP JUMPDEST PUSH2 0x2E3C PUSH2 0x2E37 DUP3 PUSH2 0x25B7 JUMP JUMPDEST PUSH2 0x2E1A JUMP JUMPDEST DUP3 MSTORE POP POP JUMP JUMPDEST PUSH0 PUSH2 0x2E4D DUP3 DUP5 PUSH2 0x2E2B JUMP JUMPDEST PUSH1 0x14 DUP3 ADD SWAP2 POP DUP2 SWAP1 POP SWAP3 SWAP2 POP POP JUMP JUMPDEST PUSH32 0x4E487B7100000000000000000000000000000000000000000000000000000000 PUSH0 MSTORE PUSH1 0x32 PUSH1 0x4 MSTORE PUSH1 0x24 PUSH0 REVERT JUMPDEST PUSH0 DUP2 SWAP1 POP SWAP3 SWAP2 POP POP JUMP JUMPDEST PUSH0 PUSH2 0x2E9D DUP3 PUSH2 0x299B JUMP JUMPDEST PUSH2 0x2EA7 DUP2 DUP6 PUSH2 0x2E89 JUMP JUMPDEST SWAP4 POP PUSH2 0x2EB7 DUP2 DUP6 PUSH1 0x20 DUP7 ADD PUSH2 0x29B5 JUMP JUMPDEST DUP1 DUP5 ADD SWAP2 POP POP SWAP3 SWAP2 POP POP JUMP JUMPDEST PUSH0 PUSH2 0x2ECE DUP3 DUP5 PUSH2 0x2E93 JUMP JUMPDEST SWAP2 POP DUP2 SWAP1 POP SWAP3 SWAP2 POP POP JUMP JUMPDEST PUSH32 0x4E487B7100000000000000000000000000000000000000000000000000000000 PUSH0 MSTORE PUSH1 0x22 PUSH1 0x4 MSTORE PUSH1 0x24 PUSH0 REVERT JUMPDEST PUSH0 PUSH1 0x2 DUP3 DIV SWAP1 POP PUSH1 0x1 DUP3 AND DUP1 PUSH2 0x2F1D JUMPI PUSH1 0x7F DUP3 AND SWAP2 POP JUMPDEST PUSH1 0x20 DUP3 LT DUP2 SUB PUSH2 0x2F30 JUMPI PUSH2 0x2F2F PUSH2 0x2ED9 JUMP JUMPDEST JUMPDEST POP SWAP2 SWAP1 POP JUMP JUMPDEST PUSH0 DUP2 SWAP1 POP DUP2 PUSH0 MSTORE PUSH1 0x20 PUSH0 KECCAK256 SWAP1 POP SWAP2 SWAP1 POP JUMP JUMPDEST PUSH0 DUP2 SLOAD PUSH2 0x2F54 DUP2 PUSH2 0x2F06 JUMP JUMPDEST PUSH2 0x2F5E DUP2 DUP7 PUSH2 0x2E89 JUMP JUMPDEST SWAP5 POP PUSH1 0x1 DUP3 AND PUSH0 DUP2 EQ PUSH2 0x2F78 JUMPI PUSH1 0x1 DUP2 EQ PUSH2 0x2F8D JUMPI PUSH2 0x2FBF JUMP JUMPDEST PUSH1 0xFF NOT DUP4 AND DUP7 MSTORE DUP2 ISZERO ISZERO DUP3 MUL DUP7 ADD SWAP4 POP PUSH2 0x2FBF JUMP JUMPDEST PUSH2 0x2F96 DUP6 PUSH2 0x2F36 JUMP JUMPDEST PUSH0 JUMPDEST DUP4 DUP2 LT ISZERO PUSH2 0x2FB7 JUMPI DUP2 SLOAD DUP2 DUP10 ADD MSTORE PUSH1 0x1 DUP3 ADD SWAP2 POP PUSH1 0x20 DUP2 ADD SWAP1 POP PUSH2 0x2F98 JUMP JUMPDEST DUP4 DUP9 ADD SWAP6 POP POP POP JUMPDEST POP POP POP SWAP3 SWAP2 POP POP JUMP JUMPDEST PUSH0 PUSH2 0x2FD3 DUP3 DUP5 PUSH2 0x2F48 JUMP JUMPDEST SWAP2 POP DUP2 SWAP1 POP SWAP3 SWAP2 POP POP JUMP JUMPDEST PUSH32 0x4F6E6C792063616D706169676E20636F6E74726163742063616C6C2074686973 PUSH0 DUP3 ADD MSTORE PUSH32 0x2066756E6374696F6E0000000000000000000000000000000000000000000000 PUSH1 0x20 DUP3 ADD MSTORE POP JUMP JUMPDEST PUSH0 PUSH2 0x3038 PUSH1 0x29 DUP4 PUSH2 0x29A5 JUMP JUMPDEST SWAP2 POP PUSH2 0x3043 DUP3 PUSH2 0x2FDE JUMP JUMPDEST PUSH1 0x40 DUP3 ADD SWAP1 POP SWAP2 SWAP1 POP JUMP JUMPDEST PUSH0 PUSH1 0x20 DUP3 ADD SWAP1 POP DUP2 DUP2 SUB PUSH0 DUP4 ADD MSTORE PUSH2 0x3065 DUP2 PUSH2 0x302C JUMP JUMPDEST SWAP1 POP SWAP2 SWAP1 POP JUMP JUMPDEST PUSH0 PUSH1 0x20 PUSH1 0x1F DUP4 ADD DIV SWAP1 POP SWAP2 SWAP1 POP JUMP JUMPDEST PUSH0 DUP3 DUP3 SHL SWAP1 POP SWAP3 SWAP2 POP POP JUMP JUMPDEST PUSH0 PUSH1 0x8 DUP4 MUL PUSH2 0x30B6 PUSH32 0xFFFFFFFFFFFFFFFFFFFFFFFFFFFFFFFFFFFFFFFFFFFFFFFFFFFFFFFFFFFFFFFF DUP3 PUSH2 0x307B JUMP JUMPDEST PUSH2 0x30C0 DUP7 DUP4 PUSH2 0x307B JUMP JUMPDEST SWAP6 POP DUP1 NOT DUP5 AND SWAP4 POP DUP1 DUP7 AND DUP5 OR SWAP3 POP POP POP SWAP4 SWAP3 POP POP POP JUMP JUMPDEST PUSH0 DUP2 SWAP1 POP SWAP2 SWAP1 POP JUMP JUMPDEST PUSH0 PUSH2 0x30FB PUSH2 0x30F6 PUSH2 0x30F1 DUP5 PUSH2 0x27BB JUMP JUMPDEST PUSH2 0x30D8 JUMP JUMPDEST PUSH2 0x27BB JUMP JUMPDEST SWAP1 POP SWAP2 SWAP1 POP JUMP JUMPDEST PUSH0 DUP2 SWAP1 POP SWAP2 SWAP1 POP JUMP JUMPDEST PUSH2 0x3114 DUP4 PUSH2 0x30E1 JUMP JUMPDEST PUSH2 0x3128 PUSH2 0x3120 DUP3 PUSH2 0x3102 JUMP JUMPDEST DUP5 DUP5 SLOAD PUSH2 0x3087 JUMP JUMPDEST DUP3 SSTORE POP POP POP POP JUMP JUMPDEST PUSH0 SWAP1 JUMP JUMPDEST PUSH2 0x313C PUSH2 0x3130 JUMP JUMPDEST PUSH2 0x3147 DUP2 DUP5 DUP5 PUSH2 0x310B JUMP JUMPDEST POP POP POP JUMP JUMPDEST JUMPDEST DUP2 DUP2 LT ISZERO PUSH2 0x316A JUMPI PUSH2 0x315F PUSH0 DUP3 PUSH2 0x3134 JUMP JUMPDEST PUSH1 0x1 DUP2 ADD SWAP1 POP PUSH2 0x314D JUMP JUMPDEST POP POP JUMP JUMPDEST PUSH1 0x1F DUP3 GT ISZERO PUSH2 0x31AF JUMPI PUSH2 0x3180 DUP2 PUSH2 0x2F36 JUMP JUMPDEST PUSH2 0x3189 DUP5 PUSH2 0x306C JUMP JUMPDEST DUP2 ADD PUSH1 0x20 DUP6 LT ISZERO PUSH2 0x3198 JUMPI DUP2 SWAP1 POP JUMPDEST PUSH2 0x31AC PUSH2 0x31A4 DUP6 PUSH2 0x306C JUMP JUMPDEST DUP4 ADD DUP3 PUSH2 0x314C JUMP JUMPDEST POP POP JUMPDEST POP POP POP JUMP JUMPDEST PUSH0 DUP3 DUP3 SHR SWAP1 POP SWAP3 SWAP2 POP POP JUMP JUMPDEST PUSH0 PUSH2 0x31CF PUSH0 NOT DUP5 PUSH1 0x8 MUL PUSH2 0x31B4 JUMP JUMPDEST NOT DUP1 DUP4 AND SWAP2 POP POP SWAP3 SWAP2 POP POP JUMP JUMPDEST PUSH0 PUSH2 0x31E7 DUP4 DUP4 PUSH2 0x31C0 JUMP JUMPDEST SWAP2 POP DUP3 PUSH1 0x2 MUL DUP3 OR SWAP1 POP SWAP3 SWAP2 POP POP JUMP JUMPDEST PUSH2 0x3200 DUP3 PUSH2 0x299B JUMP JUMPDEST PUSH8 0xFFFFFFFFFFFFFFFF DUP2 GT ISZERO PUSH2 0x3219 JUMPI PUSH2 0x3218 PUSH2 0x260A JUMP JUMPDEST JUMPDEST PUSH2 0x3223 DUP3 SLOAD PUSH2 0x2F06 JUMP JUMPDEST PUSH2 0x322E DUP3 DUP3 DUP6 PUSH2 0x316E JUMP JUMPDEST PUSH0 PUSH1 0x20 SWAP1 POP PUSH1 0x1F DUP4 GT PUSH1 0x1 DUP2 EQ PUSH2 0x325F JUMPI PUSH0 DUP5 ISZERO PUSH2 0x324D JUMPI DUP3 DUP8 ADD MLOAD SWAP1 POP JUMPDEST PUSH2 0x3257 DUP6 DUP3 PUSH2 0x31DC JUMP JUMPDEST DUP7 SSTORE POP PUSH2 0x32BE JUMP JUMPDEST PUSH1 0x1F NOT DUP5 AND PUSH2 0x326D DUP7 PUSH2 0x2F36 JUMP JUMPDEST PUSH0 JUMPDEST DUP3 DUP2 LT ISZERO PUSH2 0x3294 JUMPI DUP5 DUP10 ADD MLOAD DUP3 SSTORE PUSH1 0x1 DUP3 ADD SWAP2 POP PUSH1 0x20 DUP6 ADD SWAP5 POP PUSH1 0x20 DUP2 ADD SWAP1 POP PUSH2 0x326F JUMP JUMPDEST DUP7 DUP4 LT ISZERO PUSH2 0x32B1 JUMPI DUP5 DUP10 ADD MLOAD PUSH2 0x32AD PUSH1 0x1F DUP10 AND DUP3 PUSH2 0x31C0 JUMP JUMPDEST DUP4 SSTORE POP JUMPDEST PUSH1 0x1 PUSH1 0x2 DUP9 MUL ADD DUP9 SSTORE POP POP POP JUMPDEST POP POP POP POP POP POP JUMP JUMPDEST PUSH32 0x4E487B7100000000000000000000000000000000000000000000000000000000 PUSH0 MSTORE PUSH1 0x11 PUSH1 0x4 MSTORE PUSH1 0x24 PUSH0 REVERT JUMPDEST PUSH0 PUSH2 0x32FD DUP3 PUSH2 0x27BB JUMP JUMPDEST SWAP2 POP PUSH32 0xFFFFFFFFFFFFFFFFFFFFFFFFFFFFFFFFFFFFFFFFFFFFFFFFFFFFFFFFFFFFFFFF DUP3 SUB PUSH2 0x332F JUMPI PUSH2 0x332E PUSH2 0x32C6 JUMP JUMPDEST JUMPDEST PUSH1 0x1 DUP3 ADD SWAP1 POP SWAP2 SWAP1 POP JUMP JUMPDEST PUSH32 0x4F6E6C79206465706C6F7965722063616C6C20746869732066756E6374696F6E PUSH0 DUP3 ADD MSTORE POP JUMP JUMPDEST PUSH0 PUSH2 0x336E PUSH1 0x20 DUP4 PUSH2 0x29A5 JUMP JUMPDEST SWAP2 POP PUSH2 0x3379 DUP3 PUSH2 0x333A JUMP JUMPDEST PUSH1 0x20 DUP3 ADD SWAP1 POP SWAP2 SWAP1 POP JUMP JUMPDEST PUSH0 PUSH1 0x20 DUP3 ADD SWAP1 POP DUP2 DUP2 SUB PUSH0 DUP4 ADD MSTORE PUSH2 0x339B DUP2 PUSH2 0x3362 JUMP JUMPDEST SWAP1 POP SWAP2 SWAP1 POP JUMP INVALID LOG2 PUSH5 0x6970667358 0x22 SLT KECCAK256 0xC5 0xCD SWAP3 PUSH2 0x5867 RETURNDATASIZE BALANCE ADDRESS 0xD EXTCODESIZE PUSH12 0x4CBC0BC119BA613E28AD463D EXTCODEHASH PUSH22 0x83344ED761E664736F6C634300081600330000000000 "
				},
				"gasEstimates": {
					"creation": {
						"codeDepositCost": "2654400",
						"executionCost": "27140",
						"totalCost": "2681540"
					},
					"external": {
						"addNewTransactionHistory(uint256,string,string,string,address,uint256,string,bool)": "infinite",
						"campaignContractAddress()": "2553",
						"deployerAddress()": "2615",
						"getAllTransaction()": "infinite",
						"getDonateByOwner(string)": "infinite",
						"getDonateByUser(string)": "infinite",
						"getTransactionHistoryByCampaignId(string)": "infinite",
						"getTransactionHistoryByCampaignIdAndRefund(string)": "infinite",
						"isDonatedtoCampaign(address,string)": "infinite",
						"setCampaignAddress(address)": "26992",
						"transactionInfoArray(uint256)": "infinite",
						"updateRefundStatus(string,string)": "infinite"
					}
				},
				"methodIdentifiers": {
					"addNewTransactionHistory(uint256,string,string,string,address,uint256,string,bool)": "147598c5",
					"campaignContractAddress()": "671f18f7",
					"deployerAddress()": "efdee94f",
					"getAllTransaction()": "add6415d",
					"getDonateByOwner(string)": "b6b52ccd",
					"getDonateByUser(string)": "e3726d66",
					"getTransactionHistoryByCampaignId(string)": "99b3e96a",
					"getTransactionHistoryByCampaignIdAndRefund(string)": "d740bb6c",
					"isDonatedtoCampaign(address,string)": "048fa3a7",
					"setCampaignAddress(address)": "a3306ae3",
					"transactionInfoArray(uint256)": "92ad672f",
					"updateRefundStatus(string,string)": "b6f1cf93"
				}
			},
			"storageLayout": {
				"storage": [
					{
						"astId": 3,
						"contract": "contracts/TransactionHistory.sol:TransactionHistory",
						"label": "deployerAddress",
						"offset": 0,
						"slot": "0",
						"type": "t_address"
					},
					{
						"astId": 5,
						"contract": "contracts/TransactionHistory.sol:TransactionHistory",
						"label": "campaignContractAddress",
						"offset": 0,
						"slot": "1",
						"type": "t_address"
					},
					{
						"astId": 30,
						"contract": "contracts/TransactionHistory.sol:TransactionHistory",
						"label": "transactionInfoArray",
						"offset": 0,
						"slot": "2",
						"type": "t_array(t_struct(TransactionInfo)26_storage)dyn_storage"
					}
				],
				"types": {
					"t_address": {
						"encoding": "inplace",
						"label": "address",
						"numberOfBytes": "20"
					},
					"t_array(t_struct(TransactionInfo)26_storage)dyn_storage": {
						"base": "t_struct(TransactionInfo)26_storage",
						"encoding": "dynamic_array",
						"label": "struct TransactionHistory.TransactionInfo[]",
						"numberOfBytes": "32"
					},
					"t_bool": {
						"encoding": "inplace",
						"label": "bool",
						"numberOfBytes": "1"
					},
					"t_string_storage": {
						"encoding": "bytes",
						"label": "string",
						"numberOfBytes": "32"
					},
					"t_struct(TransactionInfo)26_storage": {
						"encoding": "inplace",
						"label": "struct TransactionHistory.TransactionInfo",
						"members": [
							{
								"astId": 7,
								"contract": "contracts/TransactionHistory.sol:TransactionHistory",
								"label": "id",
								"offset": 0,
								"slot": "0",
								"type": "t_uint256"
							},
							{
								"astId": 9,
								"contract": "contracts/TransactionHistory.sol:TransactionHistory",
								"label": "campaignId",
								"offset": 0,
								"slot": "1",
								"type": "t_string_storage"
							},
							{
								"astId": 11,
								"contract": "contracts/TransactionHistory.sol:TransactionHistory",
								"label": "ownerId",
								"offset": 0,
								"slot": "2",
								"type": "t_string_storage"
							},
							{
								"astId": 13,
								"contract": "contracts/TransactionHistory.sol:TransactionHistory",
								"label": "donatorId",
								"offset": 0,
								"slot": "3",
								"type": "t_string_storage"
							},
							{
								"astId": 15,
								"contract": "contracts/TransactionHistory.sol:TransactionHistory",
								"label": "donatorAddress",
								"offset": 0,
								"slot": "4",
								"type": "t_address"
							},
							{
								"astId": 17,
								"contract": "contracts/TransactionHistory.sol:TransactionHistory",
								"label": "value",
								"offset": 0,
								"slot": "5",
								"type": "t_uint256"
							},
							{
								"astId": 19,
								"contract": "contracts/TransactionHistory.sol:TransactionHistory",
								"label": "isRefund",
								"offset": 0,
								"slot": "6",
								"type": "t_bool"
							},
							{
								"astId": 21,
								"contract": "contracts/TransactionHistory.sol:TransactionHistory",
								"label": "time",
								"offset": 0,
								"slot": "7",
								"type": "t_string_storage"
							},
							{
								"astId": 23,
								"contract": "contracts/TransactionHistory.sol:TransactionHistory",
								"label": "timeRefund",
								"offset": 0,
								"slot": "8",
								"type": "t_string_storage"
							},
							{
								"astId": 25,
								"contract": "contracts/TransactionHistory.sol:TransactionHistory",
								"label": "isAnonymous",
								"offset": 0,
								"slot": "9",
								"type": "t_bool"
							}
						],
						"numberOfBytes": "320"
					},
					"t_uint256": {
						"encoding": "inplace",
						"label": "uint256",
						"numberOfBytes": "32"
					}
				}
			},
			"userdoc": {
				"kind": "user",
				"methods": {},
				"version": 1
			}
		}
	}
}