{
	"contracts/Campaign.sol": {
		"Campaign": {
			"abi": [
				{
					"inputs": [
						{
							"internalType": "string",
							"name": "id",
							"type": "string"
						},
						{
							"internalType": "string",
							"name": "creatorUserName",
							"type": "string"
						},
						{
							"internalType": "string",
							"name": "title",
							"type": "string"
						},
						{
							"internalType": "uint256",
							"name": "currentValue",
							"type": "uint256"
						},
						{
							"internalType": "uint256",
							"name": "targetValue",
							"type": "uint256"
						},
						{
							"internalType": "uint256",
							"name": "endDate",
							"type": "uint256"
						}
					],
					"name": "addNewCampaign",
					"outputs": [],
					"stateMutability": "nonpayable",
					"type": "function"
				},
				{
					"inputs": [
						{
							"internalType": "uint256",
							"name": "",
							"type": "uint256"
						}
					],
					"name": "campaignInfoArray",
					"outputs": [
						{
							"internalType": "string",
							"name": "id",
							"type": "string"
						},
						{
							"internalType": "string",
							"name": "creatorUserName",
							"type": "string"
						},
						{
							"internalType": "string",
							"name": "title",
							"type": "string"
						},
						{
							"internalType": "uint256",
							"name": "currentValue",
							"type": "uint256"
						},
						{
							"internalType": "uint256",
							"name": "targetValue",
							"type": "uint256"
						},
						{
							"internalType": "uint256",
							"name": "endDate",
							"type": "uint256"
						}
					],
					"stateMutability": "view",
					"type": "function"
				},
				{
					"inputs": [
						{
							"internalType": "string",
							"name": "campaignId",
							"type": "string"
						},
						{
							"internalType": "string",
							"name": "donatorId",
							"type": "string"
						}
					],
					"name": "donate",
					"outputs": [],
					"stateMutability": "payable",
					"type": "function"
				},
				{
					"inputs": [],
					"name": "getAllCampaign",
					"outputs": [
						{
							"components": [
								{
									"internalType": "string",
									"name": "id",
									"type": "string"
								},
								{
									"internalType": "string",
									"name": "creatorUserName",
									"type": "string"
								},
								{
									"internalType": "string",
									"name": "title",
									"type": "string"
								},
								{
									"internalType": "uint256",
									"name": "currentValue",
									"type": "uint256"
								},
								{
									"internalType": "uint256",
									"name": "targetValue",
									"type": "uint256"
								},
								{
									"internalType": "uint256",
									"name": "endDate",
									"type": "uint256"
								}
							],
							"internalType": "struct Campaign.CampaignInfo[]",
							"name": "",
							"type": "tuple[]"
						}
					],
					"stateMutability": "view",
					"type": "function"
				},
				{
					"inputs": [
						{
							"internalType": "string",
							"name": "id",
							"type": "string"
						}
					],
					"name": "getCampaignById",
					"outputs": [
						{
							"components": [
								{
									"internalType": "string",
									"name": "id",
									"type": "string"
								},
								{
									"internalType": "string",
									"name": "creatorUserName",
									"type": "string"
								},
								{
									"internalType": "string",
									"name": "title",
									"type": "string"
								},
								{
									"internalType": "uint256",
									"name": "currentValue",
									"type": "uint256"
								},
								{
									"internalType": "uint256",
									"name": "targetValue",
									"type": "uint256"
								},
								{
									"internalType": "uint256",
									"name": "endDate",
									"type": "uint256"
								}
							],
							"internalType": "struct Campaign.CampaignInfo",
							"name": "",
							"type": "tuple"
						}
					],
					"stateMutability": "view",
					"type": "function"
				}
			],
			"devdoc": {
				"kind": "dev",
				"methods": {},
				"version": 1
			},
			"evm": {
				"assembly": "    /* \"contracts/Campaign.sol\":106:2326  contract Campaign... */\n  mstore(0x40, 0x80)\n    /* \"contracts/Campaign.sol\":358:400  0x5B38Da6a701c568545dCfcB03FcB875f56beddC4 */\n  0x5b38da6a701c568545dcfcb03fcb875f56beddc4\n    /* \"contracts/Campaign.sol\":335:400  address adminAddress = 0x5B38Da6a701c568545dCfcB03FcB875f56beddC4 */\n  0x00\n  dup1\n  0x0100\n  exp\n  dup2\n  sload\n  dup2\n  0xffffffffffffffffffffffffffffffffffffffff\n  mul\n  not\n  and\n  swap1\n  dup4\n  0xffffffffffffffffffffffffffffffffffffffff\n  and\n  mul\n  or\n  swap1\n  sstore\n  pop\n    /* \"contracts/Campaign.sol\":106:2326  contract Campaign... */\n  callvalue\n  dup1\n  iszero\n  tag_1\n  jumpi\n  0x00\n  dup1\n  revert\ntag_1:\n  pop\n  dataSize(sub_0)\n  dup1\n  dataOffset(sub_0)\n  0x00\n  codecopy\n  0x00\n  return\nstop\n\nsub_0: assembly {\n        /* \"contracts/Campaign.sol\":106:2326  contract Campaign... */\n      mstore(0x40, 0x80)\n      jumpi(tag_1, lt(calldatasize, 0x04))\n      shr(0xe0, calldataload(0x00))\n      dup1\n      0x057902be\n      eq\n      tag_2\n      jumpi\n      dup1\n      0x1653441c\n      eq\n      tag_3\n      jumpi\n      dup1\n      0x4ca079f2\n      eq\n      tag_4\n      jumpi\n      dup1\n      0x8c3ecab5\n      eq\n      tag_5\n      jumpi\n      dup1\n      0xe26034cd\n      eq\n      tag_6\n      jumpi\n    tag_1:\n      0x00\n      dup1\n      revert\n        /* \"contracts/Campaign.sol\":414:453  CampaignInfo[] public campaignInfoArray */\n    tag_2:\n      callvalue\n      dup1\n      iszero\n      tag_7\n      jumpi\n      0x00\n      dup1\n      revert\n    tag_7:\n      pop\n      tag_8\n      0x04\n      dup1\n      calldatasize\n      sub\n      dup2\n      add\n      swap1\n      tag_9\n      swap2\n      swap1\n      tag_10\n      jump\t// in\n    tag_9:\n      tag_11\n      jump\t// in\n    tag_8:\n      mload(0x40)\n      tag_12\n      swap7\n      swap6\n      swap5\n      swap4\n      swap3\n      swap2\n      swap1\n      tag_13\n      jump\t// in\n    tag_12:\n      mload(0x40)\n      dup1\n      swap2\n      sub\n      swap1\n      return\n        /* \"contracts/Campaign.sol\":1635:2323  function donate(string memory campaignId, string memory donatorId ) public payable {... */\n    tag_3:\n      tag_14\n      0x04\n      dup1\n      calldatasize\n      sub\n      dup2\n      add\n      swap1\n      tag_15\n      swap2\n      swap1\n      tag_16\n      jump\t// in\n    tag_15:\n      tag_17\n      jump\t// in\n    tag_14:\n      stop\n        /* \"contracts/Campaign.sol\":1515:1627  function getAllCampaign() public view returns(CampaignInfo[] memory) {... */\n    tag_4:\n      callvalue\n      dup1\n      iszero\n      tag_18\n      jumpi\n      0x00\n      dup1\n      revert\n    tag_18:\n      pop\n      tag_19\n      tag_20\n      jump\t// in\n    tag_19:\n      mload(0x40)\n      tag_21\n      swap2\n      swap1\n      tag_22\n      jump\t// in\n    tag_21:\n      mload(0x40)\n      dup1\n      swap2\n      sub\n      swap1\n      return\n        /* \"contracts/Campaign.sol\":595:1118  function addNewCampaign(string memory id, string memory creatorUserName, string memory title, uint currentValue, uint targetValue, uint256 endDate) public onlyAdmin {... */\n    tag_5:\n      callvalue\n      dup1\n      iszero\n      tag_23\n      jumpi\n      0x00\n      dup1\n      revert\n    tag_23:\n      pop\n      tag_24\n      0x04\n      dup1\n      calldatasize\n      sub\n      dup2\n      add\n      swap1\n      tag_25\n      swap2\n      swap1\n      tag_26\n      jump\t// in\n    tag_25:\n      tag_27\n      jump\t// in\n    tag_24:\n      stop\n        /* \"contracts/Campaign.sol\":1130:1507  function getCampaignById(string memory id) public view returns(CampaignInfo memory){... */\n    tag_6:\n      callvalue\n      dup1\n      iszero\n      tag_28\n      jumpi\n      0x00\n      dup1\n      revert\n    tag_28:\n      pop\n      tag_29\n      0x04\n      dup1\n      calldatasize\n      sub\n      dup2\n      add\n      swap1\n      tag_30\n      swap2\n      swap1\n      tag_31\n      jump\t// in\n    tag_30:\n      tag_32\n      jump\t// in\n    tag_29:\n      mload(0x40)\n      tag_33\n      swap2\n      swap1\n      tag_34\n      jump\t// in\n    tag_33:\n      mload(0x40)\n      dup1\n      swap2\n      sub\n      swap1\n      return\n        /* \"contracts/Campaign.sol\":414:453  CampaignInfo[] public campaignInfoArray */\n    tag_11:\n      0x01\n      dup2\n      dup2\n      sload\n      dup2\n      lt\n      tag_35\n      jumpi\n      0x00\n      dup1\n      revert\n    tag_35:\n      swap1\n      0x00\n      mstore\n      keccak256(0x00, 0x20)\n      swap1\n      0x06\n      mul\n      add\n      0x00\n      swap2\n      pop\n      swap1\n      pop\n      dup1\n      0x00\n      add\n      dup1\n      sload\n      tag_37\n      swap1\n      tag_38\n      jump\t// in\n    tag_37:\n      dup1\n      0x1f\n      add\n      0x20\n      dup1\n      swap2\n      div\n      mul\n      0x20\n      add\n      mload(0x40)\n      swap1\n      dup2\n      add\n      0x40\n      mstore\n      dup1\n      swap3\n      swap2\n      swap1\n      dup2\n      dup2\n      mstore\n      0x20\n      add\n      dup3\n      dup1\n      sload\n      tag_39\n      swap1\n      tag_38\n      jump\t// in\n    tag_39:\n      dup1\n      iszero\n      tag_40\n      jumpi\n      dup1\n      0x1f\n      lt\n      tag_41\n      jumpi\n      0x0100\n      dup1\n      dup4\n      sload\n      div\n      mul\n      dup4\n      mstore\n      swap2\n      0x20\n      add\n      swap2\n      jump(tag_40)\n    tag_41:\n      dup3\n      add\n      swap2\n      swap1\n      0x00\n      mstore\n      keccak256(0x00, 0x20)\n      swap1\n    tag_42:\n      dup2\n      sload\n      dup2\n      mstore\n      swap1\n      0x01\n      add\n      swap1\n      0x20\n      add\n      dup1\n      dup4\n      gt\n      tag_42\n      jumpi\n      dup3\n      swap1\n      sub\n      0x1f\n      and\n      dup3\n      add\n      swap2\n    tag_40:\n      pop\n      pop\n      pop\n      pop\n      pop\n      swap1\n      dup1\n      0x01\n      add\n      dup1\n      sload\n      tag_43\n      swap1\n      tag_38\n      jump\t// in\n    tag_43:\n      dup1\n      0x1f\n      add\n      0x20\n      dup1\n      swap2\n      div\n      mul\n      0x20\n      add\n      mload(0x40)\n      swap1\n      dup2\n      add\n      0x40\n      mstore\n      dup1\n      swap3\n      swap2\n      swap1\n      dup2\n      dup2\n      mstore\n      0x20\n      add\n      dup3\n      dup1\n      sload\n      tag_44\n      swap1\n      tag_38\n      jump\t// in\n    tag_44:\n      dup1\n      iszero\n      tag_45\n      jumpi\n      dup1\n      0x1f\n      lt\n      tag_46\n      jumpi\n      0x0100\n      dup1\n      dup4\n      sload\n      div\n      mul\n      dup4\n      mstore\n      swap2\n      0x20\n      add\n      swap2\n      jump(tag_45)\n    tag_46:\n      dup3\n      add\n      swap2\n      swap1\n      0x00\n      mstore\n      keccak256(0x00, 0x20)\n      swap1\n    tag_47:\n      dup2\n      sload\n      dup2\n      mstore\n      swap1\n      0x01\n      add\n      swap1\n      0x20\n      add\n      dup1\n      dup4\n      gt\n      tag_47\n      jumpi\n      dup3\n      swap1\n      sub\n      0x1f\n      and\n      dup3\n      add\n      swap2\n    tag_45:\n      pop\n      pop\n      pop\n      pop\n      pop\n      swap1\n      dup1\n      0x02\n      add\n      dup1\n      sload\n      tag_48\n      swap1\n      tag_38\n      jump\t// in\n    tag_48:\n      dup1\n      0x1f\n      add\n      0x20\n      dup1\n      swap2\n      div\n      mul\n      0x20\n      add\n      mload(0x40)\n      swap1\n      dup2\n      add\n      0x40\n      mstore\n      dup1\n      swap3\n      swap2\n      swap1\n      dup2\n      dup2\n      mstore\n      0x20\n      add\n      dup3\n      dup1\n      sload\n      tag_49\n      swap1\n      tag_38\n      jump\t// in\n    tag_49:\n      dup1\n      iszero\n      tag_50\n      jumpi\n      dup1\n      0x1f\n      lt\n      tag_51\n      jumpi\n      0x0100\n      dup1\n      dup4\n      sload\n      div\n      mul\n      dup4\n      mstore\n      swap2\n      0x20\n      add\n      swap2\n      jump(tag_50)\n    tag_51:\n      dup3\n      add\n      swap2\n      swap1\n      0x00\n      mstore\n      keccak256(0x00, 0x20)\n      swap1\n    tag_52:\n      dup2\n      sload\n      dup2\n      mstore\n      swap1\n      0x01\n      add\n      swap1\n      0x20\n      add\n      dup1\n      dup4\n      gt\n      tag_52\n      jumpi\n      dup3\n      swap1\n      sub\n      0x1f\n      and\n      dup3\n      add\n      swap2\n    tag_50:\n      pop\n      pop\n      pop\n      pop\n      pop\n      swap1\n      dup1\n      0x03\n      add\n      sload\n      swap1\n      dup1\n      0x04\n      add\n      sload\n      swap1\n      dup1\n      0x05\n      add\n      sload\n      swap1\n      pop\n      dup7\n      jump\t// out\n        /* \"contracts/Campaign.sol\":1635:2323  function donate(string memory campaignId, string memory donatorId ) public payable {... */\n    tag_17:\n        /* \"contracts/Campaign.sol\":1750:1765  200000000000000 */\n      0xb5e620f48000\n        /* \"contracts/Campaign.sol\":1737:1746  msg.value */\n      callvalue\n        /* \"contracts/Campaign.sol\":1737:1765  msg.value >= 200000000000000 */\n      lt\n      iszero\n        /* \"contracts/Campaign.sol\":1729:1803  require(msg.value >= 200000000000000, \"Value must be 0.0002 ETH or above\") */\n      tag_54\n      jumpi\n      mload(0x40)\n      0x08c379a000000000000000000000000000000000000000000000000000000000\n      dup2\n      mstore\n      0x04\n      add\n      tag_55\n      swap1\n      tag_56\n      jump\t// in\n    tag_55:\n      mload(0x40)\n      dup1\n      swap2\n      sub\n      swap1\n      revert\n    tag_54:\n        /* \"contracts/Campaign.sol\":1820:1826  uint i */\n      0x00\n        /* \"contracts/Campaign.sol\":1815:2284  for (uint i = 0; i < campaignInfoArray.length; i++) {... */\n    tag_57:\n        /* \"contracts/Campaign.sol\":1836:1853  campaignInfoArray */\n      0x01\n        /* \"contracts/Campaign.sol\":1836:1860  campaignInfoArray.length */\n      dup1\n      sload\n      swap1\n      pop\n        /* \"contracts/Campaign.sol\":1832:1833  i */\n      dup2\n        /* \"contracts/Campaign.sol\":1832:1860  i < campaignInfoArray.length */\n      lt\n        /* \"contracts/Campaign.sol\":1815:2284  for (uint i = 0; i < campaignInfoArray.length; i++) {... */\n      iszero\n      tag_58\n      jumpi\n        /* \"contracts/Campaign.sol\":1971:1981  campaignId */\n      dup3\n        /* \"contracts/Campaign.sol\":1954:1983  abi.encodePacked(campaignId ) */\n      add(0x20, mload(0x40))\n      tag_60\n      swap2\n      swap1\n      tag_61\n      jump\t// in\n    tag_60:\n      mload(0x40)\n      0x20\n      dup2\n      dup4\n      sub\n      sub\n      dup2\n      mstore\n      swap1\n      0x40\n      mstore\n        /* \"contracts/Campaign.sol\":1944:1984  keccak256(abi.encodePacked(campaignId )) */\n      dup1\n      mload\n      swap1\n      0x20\n      add\n      keccak256\n        /* \"contracts/Campaign.sol\":1914:1931  campaignInfoArray */\n      0x01\n        /* \"contracts/Campaign.sol\":1932:1933  i */\n      dup3\n        /* \"contracts/Campaign.sol\":1914:1934  campaignInfoArray[i] */\n      dup2\n      sload\n      dup2\n      lt\n      tag_62\n      jumpi\n      tag_63\n      tag_64\n      jump\t// in\n    tag_63:\n    tag_62:\n      swap1\n      0x00\n      mstore\n      keccak256(0x00, 0x20)\n      swap1\n      0x06\n      mul\n      add\n        /* \"contracts/Campaign.sol\":1914:1937  campaignInfoArray[i].id */\n      0x00\n      add\n        /* \"contracts/Campaign.sol\":1897:1939  abi.encodePacked(campaignInfoArray[i].id ) */\n      add(0x20, mload(0x40))\n      tag_66\n      swap2\n      swap1\n      tag_67\n      jump\t// in\n    tag_66:\n      mload(0x40)\n      0x20\n      dup2\n      dup4\n      sub\n      sub\n      dup2\n      mstore\n      swap1\n      0x40\n      mstore\n        /* \"contracts/Campaign.sol\":1887:1940  keccak256(abi.encodePacked(campaignInfoArray[i].id )) */\n      dup1\n      mload\n      swap1\n      0x20\n      add\n      keccak256\n        /* \"contracts/Campaign.sol\":1887:1984  keccak256(abi.encodePacked(campaignInfoArray[i].id )) == keccak256(abi.encodePacked(campaignId )) */\n      sub\n        /* \"contracts/Campaign.sol\":1882:2273  if ( keccak256(abi.encodePacked(campaignInfoArray[i].id )) == keccak256(abi.encodePacked(campaignId ))) {... */\n      tag_68\n      jumpi\n        /* \"contracts/Campaign.sol\":2042:2051  msg.value */\n      callvalue\n        /* \"contracts/Campaign.sol\":2005:2022  campaignInfoArray */\n      0x01\n        /* \"contracts/Campaign.sol\":2023:2024  i */\n      dup3\n        /* \"contracts/Campaign.sol\":2005:2025  campaignInfoArray[i] */\n      dup2\n      sload\n      dup2\n      lt\n      tag_69\n      jumpi\n      tag_70\n      tag_64\n      jump\t// in\n    tag_70:\n    tag_69:\n      swap1\n      0x00\n      mstore\n      keccak256(0x00, 0x20)\n      swap1\n      0x06\n      mul\n      add\n        /* \"contracts/Campaign.sol\":2005:2038  campaignInfoArray[i].currentValue */\n      0x03\n      add\n      0x00\n        /* \"contracts/Campaign.sol\":2005:2051  campaignInfoArray[i].currentValue += msg.value */\n      dup3\n      dup3\n      sload\n      tag_72\n      swap2\n      swap1\n      tag_73\n      jump\t// in\n    tag_72:\n      swap3\n      pop\n      pop\n      dup2\n      swap1\n      sstore\n      pop\n        /* \"contracts/Campaign.sol\":2089:2131  0x3328358128832A260C76A4141e19E2A943CD4B6D */\n      0x3328358128832a260c76a4141e19e2a943cd4b6d\n        /* \"contracts/Campaign.sol\":2070:2157  TransactionHistory(0x3328358128832A260C76A4141e19E2A943CD4B6D).addNewTransactionHistory */\n      0xffffffffffffffffffffffffffffffffffffffff\n      and\n      0xa7113c50\n        /* \"contracts/Campaign.sol\":2172:2182  campaignId */\n      dup5\n        /* \"contracts/Campaign.sol\":2184:2193  donatorId */\n      dup5\n        /* \"contracts/Campaign.sol\":2195:2204  msg.value */\n      callvalue\n        /* \"contracts/Campaign.sol\":2206:2221  block.timestamp */\n      timestamp\n        /* \"contracts/Campaign.sol\":2070:2232  TransactionHistory(0x3328358128832A260C76A4141e19E2A943CD4B6D).addNewTransactionHistory(... */\n      mload(0x40)\n      dup6\n      0xffffffff\n      and\n      0xe0\n      shl\n      dup2\n      mstore\n      0x04\n      add\n      tag_74\n      swap5\n      swap4\n      swap3\n      swap2\n      swap1\n      tag_75\n      jump\t// in\n    tag_74:\n      0x00\n      mload(0x40)\n      dup1\n      dup4\n      sub\n      dup2\n      0x00\n      dup8\n      dup1\n      extcodesize\n      iszero\n      dup1\n      iszero\n      tag_76\n      jumpi\n      0x00\n      dup1\n      revert\n    tag_76:\n      pop\n      gas\n      call\n      iszero\n      dup1\n      iszero\n      tag_78\n      jumpi\n      returndatasize\n      0x00\n      dup1\n      returndatacopy\n      revert(0x00, returndatasize)\n    tag_78:\n      pop\n      pop\n      pop\n      pop\n        /* \"contracts/Campaign.sol\":2251:2258  return; */\n      pop\n      jump(tag_53)\n        /* \"contracts/Campaign.sol\":1882:2273  if ( keccak256(abi.encodePacked(campaignInfoArray[i].id )) == keccak256(abi.encodePacked(campaignId ))) {... */\n    tag_68:\n        /* \"contracts/Campaign.sol\":1862:1865  i++ */\n      dup1\n      dup1\n      0x01\n      add\n      swap2\n      pop\n      pop\n        /* \"contracts/Campaign.sol\":1815:2284  for (uint i = 0; i < campaignInfoArray.length; i++) {... */\n      jump(tag_57)\n    tag_58:\n      pop\n        /* \"contracts/Campaign.sol\":2296:2315  revert('Not found') */\n      mload(0x40)\n      0x08c379a000000000000000000000000000000000000000000000000000000000\n      dup2\n      mstore\n      0x04\n      add\n      tag_79\n      swap1\n      tag_80\n      jump\t// in\n    tag_79:\n      mload(0x40)\n      dup1\n      swap2\n      sub\n      swap1\n      revert\n        /* \"contracts/Campaign.sol\":1635:2323  function donate(string memory campaignId, string memory donatorId ) public payable {... */\n    tag_53:\n      pop\n      pop\n      jump\t// out\n        /* \"contracts/Campaign.sol\":1515:1627  function getAllCampaign() public view returns(CampaignInfo[] memory) {... */\n    tag_20:\n        /* \"contracts/Campaign.sol\":1561:1582  CampaignInfo[] memory */\n      0x60\n        /* \"contracts/Campaign.sol\":1602:1619  campaignInfoArray */\n      0x01\n        /* \"contracts/Campaign.sol\":1595:1619  return campaignInfoArray */\n      dup1\n      sload\n      dup1\n      0x20\n      mul\n      0x20\n      add\n      mload(0x40)\n      swap1\n      dup2\n      add\n      0x40\n      mstore\n      dup1\n      swap3\n      swap2\n      swap1\n      dup2\n      dup2\n      mstore\n      0x20\n      add\n      0x00\n      swap1\n    tag_82:\n      dup3\n      dup3\n      lt\n      iszero\n      tag_83\n      jumpi\n      dup4\n      dup3\n      swap1\n      0x00\n      mstore\n      keccak256(0x00, 0x20)\n      swap1\n      0x06\n      mul\n      add\n      mload(0x40)\n      dup1\n      0xc0\n      add\n      0x40\n      mstore\n      swap1\n      dup2\n      0x00\n      dup3\n      add\n      dup1\n      sload\n      tag_85\n      swap1\n      tag_38\n      jump\t// in\n    tag_85:\n      dup1\n      0x1f\n      add\n      0x20\n      dup1\n      swap2\n      div\n      mul\n      0x20\n      add\n      mload(0x40)\n      swap1\n      dup2\n      add\n      0x40\n      mstore\n      dup1\n      swap3\n      swap2\n      swap1\n      dup2\n      dup2\n      mstore\n      0x20\n      add\n      dup3\n      dup1\n      sload\n      tag_86\n      swap1\n      tag_38\n      jump\t// in\n    tag_86:\n      dup1\n      iszero\n      tag_87\n      jumpi\n      dup1\n      0x1f\n      lt\n      tag_88\n      jumpi\n      0x0100\n      dup1\n      dup4\n      sload\n      div\n      mul\n      dup4\n      mstore\n      swap2\n      0x20\n      add\n      swap2\n      jump(tag_87)\n    tag_88:\n      dup3\n      add\n      swap2\n      swap1\n      0x00\n      mstore\n      keccak256(0x00, 0x20)\n      swap1\n    tag_89:\n      dup2\n      sload\n      dup2\n      mstore\n      swap1\n      0x01\n      add\n      swap1\n      0x20\n      add\n      dup1\n      dup4\n      gt\n      tag_89\n      jumpi\n      dup3\n      swap1\n      sub\n      0x1f\n      and\n      dup3\n      add\n      swap2\n    tag_87:\n      pop\n      pop\n      pop\n      pop\n      pop\n      dup2\n      mstore\n      0x20\n      add\n      0x01\n      dup3\n      add\n      dup1\n      sload\n      tag_90\n      swap1\n      tag_38\n      jump\t// in\n    tag_90:\n      dup1\n      0x1f\n      add\n      0x20\n      dup1\n      swap2\n      div\n      mul\n      0x20\n      add\n      mload(0x40)\n      swap1\n      dup2\n      add\n      0x40\n      mstore\n      dup1\n      swap3\n      swap2\n      swap1\n      dup2\n      dup2\n      mstore\n      0x20\n      add\n      dup3\n      dup1\n      sload\n      tag_91\n      swap1\n      tag_38\n      jump\t// in\n    tag_91:\n      dup1\n      iszero\n      tag_92\n      jumpi\n      dup1\n      0x1f\n      lt\n      tag_93\n      jumpi\n      0x0100\n      dup1\n      dup4\n      sload\n      div\n      mul\n      dup4\n      mstore\n      swap2\n      0x20\n      add\n      swap2\n      jump(tag_92)\n    tag_93:\n      dup3\n      add\n      swap2\n      swap1\n      0x00\n      mstore\n      keccak256(0x00, 0x20)\n      swap1\n    tag_94:\n      dup2\n      sload\n      dup2\n      mstore\n      swap1\n      0x01\n      add\n      swap1\n      0x20\n      add\n      dup1\n      dup4\n      gt\n      tag_94\n      jumpi\n      dup3\n      swap1\n      sub\n      0x1f\n      and\n      dup3\n      add\n      swap2\n    tag_92:\n      pop\n      pop\n      pop\n      pop\n      pop\n      dup2\n      mstore\n      0x20\n      add\n      0x02\n      dup3\n      add\n      dup1\n      sload\n      tag_95\n      swap1\n      tag_38\n      jump\t// in\n    tag_95:\n      dup1\n      0x1f\n      add\n      0x20\n      dup1\n      swap2\n      div\n      mul\n      0x20\n      add\n      mload(0x40)\n      swap1\n      dup2\n      add\n      0x40\n      mstore\n      dup1\n      swap3\n      swap2\n      swap1\n      dup2\n      dup2\n      mstore\n      0x20\n      add\n      dup3\n      dup1\n      sload\n      tag_96\n      swap1\n      tag_38\n      jump\t// in\n    tag_96:\n      dup1\n      iszero\n      tag_97\n      jumpi\n      dup1\n      0x1f\n      lt\n      tag_98\n      jumpi\n      0x0100\n      dup1\n      dup4\n      sload\n      div\n      mul\n      dup4\n      mstore\n      swap2\n      0x20\n      add\n      swap2\n      jump(tag_97)\n    tag_98:\n      dup3\n      add\n      swap2\n      swap1\n      0x00\n      mstore\n      keccak256(0x00, 0x20)\n      swap1\n    tag_99:\n      dup2\n      sload\n      dup2\n      mstore\n      swap1\n      0x01\n      add\n      swap1\n      0x20\n      add\n      dup1\n      dup4\n      gt\n      tag_99\n      jumpi\n      dup3\n      swap1\n      sub\n      0x1f\n      and\n      dup3\n      add\n      swap2\n    tag_97:\n      pop\n      pop\n      pop\n      pop\n      pop\n      dup2\n      mstore\n      0x20\n      add\n      0x03\n      dup3\n      add\n      sload\n      dup2\n      mstore\n      0x20\n      add\n      0x04\n      dup3\n      add\n      sload\n      dup2\n      mstore\n      0x20\n      add\n      0x05\n      dup3\n      add\n      sload\n      dup2\n      mstore\n      pop\n      pop\n      dup2\n      mstore\n      0x20\n      add\n      swap1\n      0x01\n      add\n      swap1\n      jump(tag_82)\n    tag_83:\n      pop\n      pop\n      pop\n      pop\n      swap1\n      pop\n        /* \"contracts/Campaign.sol\":1515:1627  function getAllCampaign() public view returns(CampaignInfo[] memory) {... */\n      swap1\n      jump\t// out\n        /* \"contracts/Campaign.sol\":595:1118  function addNewCampaign(string memory id, string memory creatorUserName, string memory title, uint currentValue, uint targetValue, uint256 endDate) public onlyAdmin {... */\n    tag_27:\n        /* \"contracts/Campaign.sol\":516:528  adminAddress */\n      0x00\n      dup1\n      sload\n      swap1\n      0x0100\n      exp\n      swap1\n      div\n      0xffffffffffffffffffffffffffffffffffffffff\n      and\n        /* \"contracts/Campaign.sol\":502:528  msg.sender == adminAddress */\n      0xffffffffffffffffffffffffffffffffffffffff\n      and\n        /* \"contracts/Campaign.sol\":502:512  msg.sender */\n      caller\n        /* \"contracts/Campaign.sol\":502:528  msg.sender == adminAddress */\n      0xffffffffffffffffffffffffffffffffffffffff\n      and\n      eq\n        /* \"contracts/Campaign.sol\":494:566  require(msg.sender == adminAddress, \"Only admin can call this function\") */\n      tag_101\n      jumpi\n      mload(0x40)\n      0x08c379a000000000000000000000000000000000000000000000000000000000\n      dup2\n      mstore\n      0x04\n      add\n      tag_102\n      swap1\n      tag_103\n      jump\t// in\n    tag_102:\n      mload(0x40)\n      dup1\n      swap2\n      sub\n      swap1\n      revert\n    tag_101:\n        /* \"contracts/Campaign.sol\":771:802  CampaignInfo memory newCampaign */\n      tag_105\n      tag_106\n      jump\t// in\n    tag_105:\n        /* \"contracts/Campaign.sol\":830:832  id */\n      dup7\n        /* \"contracts/Campaign.sol\":813:824  newCampaign */\n      dup2\n        /* \"contracts/Campaign.sol\":813:827  newCampaign.id */\n      0x00\n      add\n        /* \"contracts/Campaign.sol\":813:832  newCampaign.id = id */\n      dup2\n      swap1\n      mstore\n      pop\n        /* \"contracts/Campaign.sol\":873:888  creatorUserName */\n      dup6\n        /* \"contracts/Campaign.sol\":843:854  newCampaign */\n      dup2\n        /* \"contracts/Campaign.sol\":843:870  newCampaign.creatorUserName */\n      0x20\n      add\n        /* \"contracts/Campaign.sol\":843:888  newCampaign.creatorUserName = creatorUserName */\n      dup2\n      swap1\n      mstore\n      pop\n        /* \"contracts/Campaign.sol\":919:924  title */\n      dup5\n        /* \"contracts/Campaign.sol\":899:910  newCampaign */\n      dup2\n        /* \"contracts/Campaign.sol\":899:916  newCampaign.title */\n      0x40\n      add\n        /* \"contracts/Campaign.sol\":899:924  newCampaign.title = title */\n      dup2\n      swap1\n      mstore\n      pop\n        /* \"contracts/Campaign.sol\":961:972  targetValue */\n      dup3\n        /* \"contracts/Campaign.sol\":935:946  newCampaign */\n      dup2\n        /* \"contracts/Campaign.sol\":935:958  newCampaign.targetValue */\n      0x80\n      add\n        /* \"contracts/Campaign.sol\":935:972  newCampaign.targetValue = targetValue */\n      dup2\n      dup2\n      mstore\n      pop\n      pop\n        /* \"contracts/Campaign.sol\":1010:1022  currentValue */\n      dup4\n        /* \"contracts/Campaign.sol\":983:994  newCampaign */\n      dup2\n        /* \"contracts/Campaign.sol\":983:1007  newCampaign.currentValue */\n      0x60\n      add\n        /* \"contracts/Campaign.sol\":983:1022  newCampaign.currentValue = currentValue */\n      dup2\n      dup2\n      mstore\n      pop\n      pop\n        /* \"contracts/Campaign.sol\":1055:1062  endDate */\n      dup2\n        /* \"contracts/Campaign.sol\":1033:1044  newCampaign */\n      dup2\n        /* \"contracts/Campaign.sol\":1033:1052  newCampaign.endDate */\n      0xa0\n      add\n        /* \"contracts/Campaign.sol\":1033:1062  newCampaign.endDate = endDate */\n      dup2\n      dup2\n      mstore\n      pop\n      pop\n        /* \"contracts/Campaign.sol\":1075:1092  campaignInfoArray */\n      0x01\n        /* \"contracts/Campaign.sol\":1098:1109  newCampaign */\n      dup2\n        /* \"contracts/Campaign.sol\":1075:1110  campaignInfoArray.push(newCampaign) */\n      swap1\n      dup1\n      0x01\n      dup2\n      sload\n      add\n      dup1\n      dup3\n      sstore\n      dup1\n      swap2\n      pop\n      pop\n      0x01\n      swap1\n      sub\n      swap1\n      0x00\n      mstore\n      keccak256(0x00, 0x20)\n      swap1\n      0x06\n      mul\n      add\n      0x00\n      swap1\n      swap2\n      swap1\n      swap2\n      swap1\n      swap2\n      pop\n      0x00\n      dup3\n      add\n      mload\n      dup2\n      0x00\n      add\n      swap1\n      dup2\n      tag_108\n      swap2\n      swap1\n      tag_109\n      jump\t// in\n    tag_108:\n      pop\n      0x20\n      dup3\n      add\n      mload\n      dup2\n      0x01\n      add\n      swap1\n      dup2\n      tag_110\n      swap2\n      swap1\n      tag_109\n      jump\t// in\n    tag_110:\n      pop\n      0x40\n      dup3\n      add\n      mload\n      dup2\n      0x02\n      add\n      swap1\n      dup2\n      tag_111\n      swap2\n      swap1\n      tag_109\n      jump\t// in\n    tag_111:\n      pop\n      0x60\n      dup3\n      add\n      mload\n      dup2\n      0x03\n      add\n      sstore\n      0x80\n      dup3\n      add\n      mload\n      dup2\n      0x04\n      add\n      sstore\n      0xa0\n      dup3\n      add\n      mload\n      dup2\n      0x05\n      add\n      sstore\n      pop\n      pop\n        /* \"contracts/Campaign.sol\":760:1118  {... */\n      pop\n        /* \"contracts/Campaign.sol\":595:1118  function addNewCampaign(string memory id, string memory creatorUserName, string memory title, uint currentValue, uint targetValue, uint256 endDate) public onlyAdmin {... */\n      pop\n      pop\n      pop\n      pop\n      pop\n      pop\n      jump\t// out\n        /* \"contracts/Campaign.sol\":1130:1507  function getCampaignById(string memory id) public view returns(CampaignInfo memory){... */\n    tag_32:\n        /* \"contracts/Campaign.sol\":1193:1212  CampaignInfo memory */\n      tag_112\n      tag_106\n      jump\t// in\n    tag_112:\n        /* \"contracts/Campaign.sol\":1229:1235  uint i */\n      0x00\n        /* \"contracts/Campaign.sol\":1224:1460  for (uint i = 0; i < campaignInfoArray.length; i++) {... */\n    tag_114:\n        /* \"contracts/Campaign.sol\":1245:1262  campaignInfoArray */\n      0x01\n        /* \"contracts/Campaign.sol\":1245:1269  campaignInfoArray.length */\n      dup1\n      sload\n      swap1\n      pop\n        /* \"contracts/Campaign.sol\":1241:1242  i */\n      dup2\n        /* \"contracts/Campaign.sol\":1241:1269  i < campaignInfoArray.length */\n      lt\n        /* \"contracts/Campaign.sol\":1224:1460  for (uint i = 0; i < campaignInfoArray.length; i++) {... */\n      iszero\n      tag_115\n      jumpi\n        /* \"contracts/Campaign.sol\":1380:1382  id */\n      dup3\n        /* \"contracts/Campaign.sol\":1363:1384  abi.encodePacked(id ) */\n      add(0x20, mload(0x40))\n      tag_117\n      swap2\n      swap1\n      tag_61\n      jump\t// in\n    tag_117:\n      mload(0x40)\n      0x20\n      dup2\n      dup4\n      sub\n      sub\n      dup2\n      mstore\n      swap1\n      0x40\n      mstore\n        /* \"contracts/Campaign.sol\":1353:1385  keccak256(abi.encodePacked(id )) */\n      dup1\n      mload\n      swap1\n      0x20\n      add\n      keccak256\n        /* \"contracts/Campaign.sol\":1323:1340  campaignInfoArray */\n      0x01\n        /* \"contracts/Campaign.sol\":1341:1342  i */\n      dup3\n        /* \"contracts/Campaign.sol\":1323:1343  campaignInfoArray[i] */\n      dup2\n      sload\n      dup2\n      lt\n      tag_118\n      jumpi\n      tag_119\n      tag_64\n      jump\t// in\n    tag_119:\n    tag_118:\n      swap1\n      0x00\n      mstore\n      keccak256(0x00, 0x20)\n      swap1\n      0x06\n      mul\n      add\n        /* \"contracts/Campaign.sol\":1323:1346  campaignInfoArray[i].id */\n      0x00\n      add\n        /* \"contracts/Campaign.sol\":1306:1348  abi.encodePacked(campaignInfoArray[i].id ) */\n      add(0x20, mload(0x40))\n      tag_121\n      swap2\n      swap1\n      tag_67\n      jump\t// in\n    tag_121:\n      mload(0x40)\n      0x20\n      dup2\n      dup4\n      sub\n      sub\n      dup2\n      mstore\n      swap1\n      0x40\n      mstore\n        /* \"contracts/Campaign.sol\":1296:1349  keccak256(abi.encodePacked(campaignInfoArray[i].id )) */\n      dup1\n      mload\n      swap1\n      0x20\n      add\n      keccak256\n        /* \"contracts/Campaign.sol\":1296:1385  keccak256(abi.encodePacked(campaignInfoArray[i].id )) == keccak256(abi.encodePacked(id )) */\n      sub\n        /* \"contracts/Campaign.sol\":1291:1449  if ( keccak256(abi.encodePacked(campaignInfoArray[i].id )) == keccak256(abi.encodePacked(id ))) {... */\n      tag_122\n      jumpi\n        /* \"contracts/Campaign.sol\":1413:1430  campaignInfoArray */\n      0x01\n        /* \"contracts/Campaign.sol\":1431:1432  i */\n      dup2\n        /* \"contracts/Campaign.sol\":1413:1433  campaignInfoArray[i] */\n      dup2\n      sload\n      dup2\n      lt\n      tag_123\n      jumpi\n      tag_124\n      tag_64\n      jump\t// in\n    tag_124:\n    tag_123:\n      swap1\n      0x00\n      mstore\n      keccak256(0x00, 0x20)\n      swap1\n      0x06\n      mul\n      add\n        /* \"contracts/Campaign.sol\":1406:1433  return campaignInfoArray[i] */\n      mload(0x40)\n      dup1\n      0xc0\n      add\n      0x40\n      mstore\n      swap1\n      dup2\n      0x00\n      dup3\n      add\n      dup1\n      sload\n      tag_126\n      swap1\n      tag_38\n      jump\t// in\n    tag_126:\n      dup1\n      0x1f\n      add\n      0x20\n      dup1\n      swap2\n      div\n      mul\n      0x20\n      add\n      mload(0x40)\n      swap1\n      dup2\n      add\n      0x40\n      mstore\n      dup1\n      swap3\n      swap2\n      swap1\n      dup2\n      dup2\n      mstore\n      0x20\n      add\n      dup3\n      dup1\n      sload\n      tag_127\n      swap1\n      tag_38\n      jump\t// in\n    tag_127:\n      dup1\n      iszero\n      tag_128\n      jumpi\n      dup1\n      0x1f\n      lt\n      tag_129\n      jumpi\n      0x0100\n      dup1\n      dup4\n      sload\n      div\n      mul\n      dup4\n      mstore\n      swap2\n      0x20\n      add\n      swap2\n      jump(tag_128)\n    tag_129:\n      dup3\n      add\n      swap2\n      swap1\n      0x00\n      mstore\n      keccak256(0x00, 0x20)\n      swap1\n    tag_130:\n      dup2\n      sload\n      dup2\n      mstore\n      swap1\n      0x01\n      add\n      swap1\n      0x20\n      add\n      dup1\n      dup4\n      gt\n      tag_130\n      jumpi\n      dup3\n      swap1\n      sub\n      0x1f\n      and\n      dup3\n      add\n      swap2\n    tag_128:\n      pop\n      pop\n      pop\n      pop\n      pop\n      dup2\n      mstore\n      0x20\n      add\n      0x01\n      dup3\n      add\n      dup1\n      sload\n      tag_131\n      swap1\n      tag_38\n      jump\t// in\n    tag_131:\n      dup1\n      0x1f\n      add\n      0x20\n      dup1\n      swap2\n      div\n      mul\n      0x20\n      add\n      mload(0x40)\n      swap1\n      dup2\n      add\n      0x40\n      mstore\n      dup1\n      swap3\n      swap2\n      swap1\n      dup2\n      dup2\n      mstore\n      0x20\n      add\n      dup3\n      dup1\n      sload\n      tag_132\n      swap1\n      tag_38\n      jump\t// in\n    tag_132:\n      dup1\n      iszero\n      tag_133\n      jumpi\n      dup1\n      0x1f\n      lt\n      tag_134\n      jumpi\n      0x0100\n      dup1\n      dup4\n      sload\n      div\n      mul\n      dup4\n      mstore\n      swap2\n      0x20\n      add\n      swap2\n      jump(tag_133)\n    tag_134:\n      dup3\n      add\n      swap2\n      swap1\n      0x00\n      mstore\n      keccak256(0x00, 0x20)\n      swap1\n    tag_135:\n      dup2\n      sload\n      dup2\n      mstore\n      swap1\n      0x01\n      add\n      swap1\n      0x20\n      add\n      dup1\n      dup4\n      gt\n      tag_135\n      jumpi\n      dup3\n      swap1\n      sub\n      0x1f\n      and\n      dup3\n      add\n      swap2\n    tag_133:\n      pop\n      pop\n      pop\n      pop\n      pop\n      dup2\n      mstore\n      0x20\n      add\n      0x02\n      dup3\n      add\n      dup1\n      sload\n      tag_136\n      swap1\n      tag_38\n      jump\t// in\n    tag_136:\n      dup1\n      0x1f\n      add\n      0x20\n      dup1\n      swap2\n      div\n      mul\n      0x20\n      add\n      mload(0x40)\n      swap1\n      dup2\n      add\n      0x40\n      mstore\n      dup1\n      swap3\n      swap2\n      swap1\n      dup2\n      dup2\n      mstore\n      0x20\n      add\n      dup3\n      dup1\n      sload\n      tag_137\n      swap1\n      tag_38\n      jump\t// in\n    tag_137:\n      dup1\n      iszero\n      tag_138\n      jumpi\n      dup1\n      0x1f\n      lt\n      tag_139\n      jumpi\n      0x0100\n      dup1\n      dup4\n      sload\n      div\n      mul\n      dup4\n      mstore\n      swap2\n      0x20\n      add\n      swap2\n      jump(tag_138)\n    tag_139:\n      dup3\n      add\n      swap2\n      swap1\n      0x00\n      mstore\n      keccak256(0x00, 0x20)\n      swap1\n    tag_140:\n      dup2\n      sload\n      dup2\n      mstore\n      swap1\n      0x01\n      add\n      swap1\n      0x20\n      add\n      dup1\n      dup4\n      gt\n      tag_140\n      jumpi\n      dup3\n      swap1\n      sub\n      0x1f\n      and\n      dup3\n      add\n      swap2\n    tag_138:\n      pop\n      pop\n      pop\n      pop\n      pop\n      dup2\n      mstore\n      0x20\n      add\n      0x03\n      dup3\n      add\n      sload\n      dup2\n      mstore\n      0x20\n      add\n      0x04\n      dup3\n      add\n      sload\n      dup2\n      mstore\n      0x20\n      add\n      0x05\n      dup3\n      add\n      sload\n      dup2\n      mstore\n      pop\n      pop\n      swap2\n      pop\n      pop\n      jump(tag_113)\n        /* \"contracts/Campaign.sol\":1291:1449  if ( keccak256(abi.encodePacked(campaignInfoArray[i].id )) == keccak256(abi.encodePacked(id ))) {... */\n    tag_122:\n        /* \"contracts/Campaign.sol\":1271:1274  i++ */\n      dup1\n      dup1\n      0x01\n      add\n      swap2\n      pop\n      pop\n        /* \"contracts/Campaign.sol\":1224:1460  for (uint i = 0; i < campaignInfoArray.length; i++) {... */\n      jump(tag_114)\n    tag_115:\n      pop\n        /* \"contracts/Campaign.sol\":1480:1499  revert('Not found') */\n      mload(0x40)\n      0x08c379a000000000000000000000000000000000000000000000000000000000\n      dup2\n      mstore\n      0x04\n      add\n      tag_141\n      swap1\n      tag_80\n      jump\t// in\n    tag_141:\n      mload(0x40)\n      dup1\n      swap2\n      sub\n      swap1\n      revert\n        /* \"contracts/Campaign.sol\":1130:1507  function getCampaignById(string memory id) public view returns(CampaignInfo memory){... */\n    tag_113:\n      swap2\n      swap1\n      pop\n      jump\t// out\n    tag_106:\n      mload(0x40)\n      dup1\n      0xc0\n      add\n      0x40\n      mstore\n      dup1\n      0x60\n      dup2\n      mstore\n      0x20\n      add\n      0x60\n      dup2\n      mstore\n      0x20\n      add\n      0x60\n      dup2\n      mstore\n      0x20\n      add\n      0x00\n      dup2\n      mstore\n      0x20\n      add\n      0x00\n      dup2\n      mstore\n      0x20\n      add\n      0x00\n      dup2\n      mstore\n      pop\n      swap1\n      jump\t// out\n        /* \"#utility.yul\":7:82   */\n    tag_142:\n        /* \"#utility.yul\":40:46   */\n      0x00\n        /* \"#utility.yul\":73:75   */\n      0x40\n        /* \"#utility.yul\":67:76   */\n      mload\n        /* \"#utility.yul\":57:76   */\n      swap1\n      pop\n        /* \"#utility.yul\":7:82   */\n      swap1\n      jump\t// out\n        /* \"#utility.yul\":88:205   */\n    tag_143:\n        /* \"#utility.yul\":197:198   */\n      0x00\n        /* \"#utility.yul\":194:195   */\n      dup1\n        /* \"#utility.yul\":187:199   */\n      revert\n        /* \"#utility.yul\":211:328   */\n    tag_144:\n        /* \"#utility.yul\":320:321   */\n      0x00\n        /* \"#utility.yul\":317:318   */\n      dup1\n        /* \"#utility.yul\":310:322   */\n      revert\n        /* \"#utility.yul\":334:411   */\n    tag_145:\n        /* \"#utility.yul\":371:378   */\n      0x00\n        /* \"#utility.yul\":400:405   */\n      dup2\n        /* \"#utility.yul\":389:405   */\n      swap1\n      pop\n        /* \"#utility.yul\":334:411   */\n      swap2\n      swap1\n      pop\n      jump\t// out\n        /* \"#utility.yul\":417:539   */\n    tag_146:\n        /* \"#utility.yul\":490:514   */\n      tag_206\n        /* \"#utility.yul\":508:513   */\n      dup2\n        /* \"#utility.yul\":490:514   */\n      tag_145\n      jump\t// in\n    tag_206:\n        /* \"#utility.yul\":483:488   */\n      dup2\n        /* \"#utility.yul\":480:515   */\n      eq\n        /* \"#utility.yul\":470:533   */\n      tag_207\n      jumpi\n        /* \"#utility.yul\":529:530   */\n      0x00\n        /* \"#utility.yul\":526:527   */\n      dup1\n        /* \"#utility.yul\":519:531   */\n      revert\n        /* \"#utility.yul\":470:533   */\n    tag_207:\n        /* \"#utility.yul\":417:539   */\n      pop\n      jump\t// out\n        /* \"#utility.yul\":545:684   */\n    tag_147:\n        /* \"#utility.yul\":591:596   */\n      0x00\n        /* \"#utility.yul\":629:635   */\n      dup2\n        /* \"#utility.yul\":616:636   */\n      calldataload\n        /* \"#utility.yul\":607:636   */\n      swap1\n      pop\n        /* \"#utility.yul\":645:678   */\n      tag_209\n        /* \"#utility.yul\":672:677   */\n      dup2\n        /* \"#utility.yul\":645:678   */\n      tag_146\n      jump\t// in\n    tag_209:\n        /* \"#utility.yul\":545:684   */\n      swap3\n      swap2\n      pop\n      pop\n      jump\t// out\n        /* \"#utility.yul\":690:1019   */\n    tag_10:\n        /* \"#utility.yul\":749:755   */\n      0x00\n        /* \"#utility.yul\":798:800   */\n      0x20\n        /* \"#utility.yul\":786:795   */\n      dup3\n        /* \"#utility.yul\":777:784   */\n      dup5\n        /* \"#utility.yul\":773:796   */\n      sub\n        /* \"#utility.yul\":769:801   */\n      slt\n        /* \"#utility.yul\":766:885   */\n      iszero\n      tag_211\n      jumpi\n        /* \"#utility.yul\":804:883   */\n      tag_212\n      tag_143\n      jump\t// in\n    tag_212:\n        /* \"#utility.yul\":766:885   */\n    tag_211:\n        /* \"#utility.yul\":924:925   */\n      0x00\n        /* \"#utility.yul\":949:1002   */\n      tag_213\n        /* \"#utility.yul\":994:1001   */\n      dup5\n        /* \"#utility.yul\":985:991   */\n      dup3\n        /* \"#utility.yul\":974:983   */\n      dup6\n        /* \"#utility.yul\":970:992   */\n      add\n        /* \"#utility.yul\":949:1002   */\n      tag_147\n      jump\t// in\n    tag_213:\n        /* \"#utility.yul\":939:1002   */\n      swap2\n      pop\n        /* \"#utility.yul\":895:1012   */\n      pop\n        /* \"#utility.yul\":690:1019   */\n      swap3\n      swap2\n      pop\n      pop\n      jump\t// out\n        /* \"#utility.yul\":1025:1124   */\n    tag_148:\n        /* \"#utility.yul\":1077:1083   */\n      0x00\n        /* \"#utility.yul\":1111:1116   */\n      dup2\n        /* \"#utility.yul\":1105:1117   */\n      mload\n        /* \"#utility.yul\":1095:1117   */\n      swap1\n      pop\n        /* \"#utility.yul\":1025:1124   */\n      swap2\n      swap1\n      pop\n      jump\t// out\n        /* \"#utility.yul\":1130:1299   */\n    tag_149:\n        /* \"#utility.yul\":1214:1225   */\n      0x00\n        /* \"#utility.yul\":1248:1254   */\n      dup3\n        /* \"#utility.yul\":1243:1246   */\n      dup3\n        /* \"#utility.yul\":1236:1255   */\n      mstore\n        /* \"#utility.yul\":1288:1292   */\n      0x20\n        /* \"#utility.yul\":1283:1286   */\n      dup3\n        /* \"#utility.yul\":1279:1293   */\n      add\n        /* \"#utility.yul\":1264:1293   */\n      swap1\n      pop\n        /* \"#utility.yul\":1130:1299   */\n      swap3\n      swap2\n      pop\n      pop\n      jump\t// out\n        /* \"#utility.yul\":1305:1551   */\n    tag_150:\n        /* \"#utility.yul\":1386:1387   */\n      0x00\n        /* \"#utility.yul\":1396:1509   */\n    tag_217:\n        /* \"#utility.yul\":1410:1416   */\n      dup4\n        /* \"#utility.yul\":1407:1408   */\n      dup2\n        /* \"#utility.yul\":1404:1417   */\n      lt\n        /* \"#utility.yul\":1396:1509   */\n      iszero\n      tag_219\n      jumpi\n        /* \"#utility.yul\":1495:1496   */\n      dup1\n        /* \"#utility.yul\":1490:1493   */\n      dup3\n        /* \"#utility.yul\":1486:1497   */\n      add\n        /* \"#utility.yul\":1480:1498   */\n      mload\n        /* \"#utility.yul\":1476:1477   */\n      dup2\n        /* \"#utility.yul\":1471:1474   */\n      dup5\n        /* \"#utility.yul\":1467:1478   */\n      add\n        /* \"#utility.yul\":1460:1499   */\n      mstore\n        /* \"#utility.yul\":1432:1434   */\n      0x20\n        /* \"#utility.yul\":1429:1430   */\n      dup2\n        /* \"#utility.yul\":1425:1435   */\n      add\n        /* \"#utility.yul\":1420:1435   */\n      swap1\n      pop\n        /* \"#utility.yul\":1396:1509   */\n      jump(tag_217)\n    tag_219:\n        /* \"#utility.yul\":1543:1544   */\n      0x00\n        /* \"#utility.yul\":1534:1540   */\n      dup5\n        /* \"#utility.yul\":1529:1532   */\n      dup5\n        /* \"#utility.yul\":1525:1541   */\n      add\n        /* \"#utility.yul\":1518:1545   */\n      mstore\n        /* \"#utility.yul\":1367:1551   */\n      pop\n        /* \"#utility.yul\":1305:1551   */\n      pop\n      pop\n      pop\n      jump\t// out\n        /* \"#utility.yul\":1557:1659   */\n    tag_151:\n        /* \"#utility.yul\":1598:1604   */\n      0x00\n        /* \"#utility.yul\":1649:1651   */\n      0x1f\n        /* \"#utility.yul\":1645:1652   */\n      not\n        /* \"#utility.yul\":1640:1642   */\n      0x1f\n        /* \"#utility.yul\":1633:1638   */\n      dup4\n        /* \"#utility.yul\":1629:1643   */\n      add\n        /* \"#utility.yul\":1625:1653   */\n      and\n        /* \"#utility.yul\":1615:1653   */\n      swap1\n      pop\n        /* \"#utility.yul\":1557:1659   */\n      swap2\n      swap1\n      pop\n      jump\t// out\n        /* \"#utility.yul\":1665:2042   */\n    tag_152:\n        /* \"#utility.yul\":1753:1756   */\n      0x00\n        /* \"#utility.yul\":1781:1820   */\n      tag_222\n        /* \"#utility.yul\":1814:1819   */\n      dup3\n        /* \"#utility.yul\":1781:1820   */\n      tag_148\n      jump\t// in\n    tag_222:\n        /* \"#utility.yul\":1836:1907   */\n      tag_223\n        /* \"#utility.yul\":1900:1906   */\n      dup2\n        /* \"#utility.yul\":1895:1898   */\n      dup6\n        /* \"#utility.yul\":1836:1907   */\n      tag_149\n      jump\t// in\n    tag_223:\n        /* \"#utility.yul\":1829:1907   */\n      swap4\n      pop\n        /* \"#utility.yul\":1916:1981   */\n      tag_224\n        /* \"#utility.yul\":1974:1980   */\n      dup2\n        /* \"#utility.yul\":1969:1972   */\n      dup6\n        /* \"#utility.yul\":1962:1966   */\n      0x20\n        /* \"#utility.yul\":1955:1960   */\n      dup7\n        /* \"#utility.yul\":1951:1967   */\n      add\n        /* \"#utility.yul\":1916:1981   */\n      tag_150\n      jump\t// in\n    tag_224:\n        /* \"#utility.yul\":2006:2035   */\n      tag_225\n        /* \"#utility.yul\":2028:2034   */\n      dup2\n        /* \"#utility.yul\":2006:2035   */\n      tag_151\n      jump\t// in\n    tag_225:\n        /* \"#utility.yul\":2001:2004   */\n      dup5\n        /* \"#utility.yul\":1997:2036   */\n      add\n        /* \"#utility.yul\":1990:2036   */\n      swap2\n      pop\n        /* \"#utility.yul\":1757:2042   */\n      pop\n        /* \"#utility.yul\":1665:2042   */\n      swap3\n      swap2\n      pop\n      pop\n      jump\t// out\n        /* \"#utility.yul\":2048:2166   */\n    tag_153:\n        /* \"#utility.yul\":2135:2159   */\n      tag_227\n        /* \"#utility.yul\":2153:2158   */\n      dup2\n        /* \"#utility.yul\":2135:2159   */\n      tag_145\n      jump\t// in\n    tag_227:\n        /* \"#utility.yul\":2130:2133   */\n      dup3\n        /* \"#utility.yul\":2123:2160   */\n      mstore\n        /* \"#utility.yul\":2048:2166   */\n      pop\n      pop\n      jump\t// out\n        /* \"#utility.yul\":2172:3220   */\n    tag_13:\n        /* \"#utility.yul\":2465:2469   */\n      0x00\n        /* \"#utility.yul\":2503:2506   */\n      0xc0\n        /* \"#utility.yul\":2492:2501   */\n      dup3\n        /* \"#utility.yul\":2488:2507   */\n      add\n        /* \"#utility.yul\":2480:2507   */\n      swap1\n      pop\n        /* \"#utility.yul\":2553:2562   */\n      dup2\n        /* \"#utility.yul\":2547:2551   */\n      dup2\n        /* \"#utility.yul\":2543:2563   */\n      sub\n        /* \"#utility.yul\":2539:2540   */\n      0x00\n        /* \"#utility.yul\":2528:2537   */\n      dup4\n        /* \"#utility.yul\":2524:2541   */\n      add\n        /* \"#utility.yul\":2517:2564   */\n      mstore\n        /* \"#utility.yul\":2581:2659   */\n      tag_229\n        /* \"#utility.yul\":2654:2658   */\n      dup2\n        /* \"#utility.yul\":2645:2651   */\n      dup10\n        /* \"#utility.yul\":2581:2659   */\n      tag_152\n      jump\t// in\n    tag_229:\n        /* \"#utility.yul\":2573:2659   */\n      swap1\n      pop\n        /* \"#utility.yul\":2706:2715   */\n      dup2\n        /* \"#utility.yul\":2700:2704   */\n      dup2\n        /* \"#utility.yul\":2696:2716   */\n      sub\n        /* \"#utility.yul\":2691:2693   */\n      0x20\n        /* \"#utility.yul\":2680:2689   */\n      dup4\n        /* \"#utility.yul\":2676:2694   */\n      add\n        /* \"#utility.yul\":2669:2717   */\n      mstore\n        /* \"#utility.yul\":2734:2812   */\n      tag_230\n        /* \"#utility.yul\":2807:2811   */\n      dup2\n        /* \"#utility.yul\":2798:2804   */\n      dup9\n        /* \"#utility.yul\":2734:2812   */\n      tag_152\n      jump\t// in\n    tag_230:\n        /* \"#utility.yul\":2726:2812   */\n      swap1\n      pop\n        /* \"#utility.yul\":2859:2868   */\n      dup2\n        /* \"#utility.yul\":2853:2857   */\n      dup2\n        /* \"#utility.yul\":2849:2869   */\n      sub\n        /* \"#utility.yul\":2844:2846   */\n      0x40\n        /* \"#utility.yul\":2833:2842   */\n      dup4\n        /* \"#utility.yul\":2829:2847   */\n      add\n        /* \"#utility.yul\":2822:2870   */\n      mstore\n        /* \"#utility.yul\":2887:2965   */\n      tag_231\n        /* \"#utility.yul\":2960:2964   */\n      dup2\n        /* \"#utility.yul\":2951:2957   */\n      dup8\n        /* \"#utility.yul\":2887:2965   */\n      tag_152\n      jump\t// in\n    tag_231:\n        /* \"#utility.yul\":2879:2965   */\n      swap1\n      pop\n        /* \"#utility.yul\":2975:3047   */\n      tag_232\n        /* \"#utility.yul\":3043:3045   */\n      0x60\n        /* \"#utility.yul\":3032:3041   */\n      dup4\n        /* \"#utility.yul\":3028:3046   */\n      add\n        /* \"#utility.yul\":3019:3025   */\n      dup7\n        /* \"#utility.yul\":2975:3047   */\n      tag_153\n      jump\t// in\n    tag_232:\n        /* \"#utility.yul\":3057:3130   */\n      tag_233\n        /* \"#utility.yul\":3125:3128   */\n      0x80\n        /* \"#utility.yul\":3114:3123   */\n      dup4\n        /* \"#utility.yul\":3110:3129   */\n      add\n        /* \"#utility.yul\":3101:3107   */\n      dup6\n        /* \"#utility.yul\":3057:3130   */\n      tag_153\n      jump\t// in\n    tag_233:\n        /* \"#utility.yul\":3140:3213   */\n      tag_234\n        /* \"#utility.yul\":3208:3211   */\n      0xa0\n        /* \"#utility.yul\":3197:3206   */\n      dup4\n        /* \"#utility.yul\":3193:3212   */\n      add\n        /* \"#utility.yul\":3184:3190   */\n      dup5\n        /* \"#utility.yul\":3140:3213   */\n      tag_153\n      jump\t// in\n    tag_234:\n        /* \"#utility.yul\":2172:3220   */\n      swap8\n      swap7\n      pop\n      pop\n      pop\n      pop\n      pop\n      pop\n      pop\n      jump\t// out\n        /* \"#utility.yul\":3226:3343   */\n    tag_154:\n        /* \"#utility.yul\":3335:3336   */\n      0x00\n        /* \"#utility.yul\":3332:3333   */\n      dup1\n        /* \"#utility.yul\":3325:3337   */\n      revert\n        /* \"#utility.yul\":3349:3466   */\n    tag_155:\n        /* \"#utility.yul\":3458:3459   */\n      0x00\n        /* \"#utility.yul\":3455:3456   */\n      dup1\n        /* \"#utility.yul\":3448:3460   */\n      revert\n        /* \"#utility.yul\":3472:3652   */\n    tag_156:\n        /* \"#utility.yul\":3520:3597   */\n      0x4e487b7100000000000000000000000000000000000000000000000000000000\n        /* \"#utility.yul\":3517:3518   */\n      0x00\n        /* \"#utility.yul\":3510:3598   */\n      mstore\n        /* \"#utility.yul\":3617:3621   */\n      0x41\n        /* \"#utility.yul\":3614:3615   */\n      0x04\n        /* \"#utility.yul\":3607:3622   */\n      mstore\n        /* \"#utility.yul\":3641:3645   */\n      0x24\n        /* \"#utility.yul\":3638:3639   */\n      0x00\n        /* \"#utility.yul\":3631:3646   */\n      revert\n        /* \"#utility.yul\":3658:3939   */\n    tag_157:\n        /* \"#utility.yul\":3741:3768   */\n      tag_239\n        /* \"#utility.yul\":3763:3767   */\n      dup3\n        /* \"#utility.yul\":3741:3768   */\n      tag_151\n      jump\t// in\n    tag_239:\n        /* \"#utility.yul\":3733:3739   */\n      dup2\n        /* \"#utility.yul\":3729:3769   */\n      add\n        /* \"#utility.yul\":3871:3877   */\n      dup2\n        /* \"#utility.yul\":3859:3869   */\n      dup2\n        /* \"#utility.yul\":3856:3878   */\n      lt\n        /* \"#utility.yul\":3835:3853   */\n      0xffffffffffffffff\n        /* \"#utility.yul\":3823:3833   */\n      dup3\n        /* \"#utility.yul\":3820:3854   */\n      gt\n        /* \"#utility.yul\":3817:3879   */\n      or\n        /* \"#utility.yul\":3814:3902   */\n      iszero\n      tag_240\n      jumpi\n        /* \"#utility.yul\":3882:3900   */\n      tag_241\n      tag_156\n      jump\t// in\n    tag_241:\n        /* \"#utility.yul\":3814:3902   */\n    tag_240:\n        /* \"#utility.yul\":3922:3932   */\n      dup1\n        /* \"#utility.yul\":3918:3920   */\n      0x40\n        /* \"#utility.yul\":3911:3933   */\n      mstore\n        /* \"#utility.yul\":3701:3939   */\n      pop\n        /* \"#utility.yul\":3658:3939   */\n      pop\n      pop\n      jump\t// out\n        /* \"#utility.yul\":3945:4074   */\n    tag_158:\n        /* \"#utility.yul\":3979:3985   */\n      0x00\n        /* \"#utility.yul\":4006:4026   */\n      tag_243\n      tag_142\n      jump\t// in\n    tag_243:\n        /* \"#utility.yul\":3996:4026   */\n      swap1\n      pop\n        /* \"#utility.yul\":4035:4068   */\n      tag_244\n        /* \"#utility.yul\":4063:4067   */\n      dup3\n        /* \"#utility.yul\":4055:4061   */\n      dup3\n        /* \"#utility.yul\":4035:4068   */\n      tag_157\n      jump\t// in\n    tag_244:\n        /* \"#utility.yul\":3945:4074   */\n      swap2\n      swap1\n      pop\n      jump\t// out\n        /* \"#utility.yul\":4080:4388   */\n    tag_159:\n        /* \"#utility.yul\":4142:4146   */\n      0x00\n        /* \"#utility.yul\":4232:4250   */\n      0xffffffffffffffff\n        /* \"#utility.yul\":4224:4230   */\n      dup3\n        /* \"#utility.yul\":4221:4251   */\n      gt\n        /* \"#utility.yul\":4218:4274   */\n      iszero\n      tag_246\n      jumpi\n        /* \"#utility.yul\":4254:4272   */\n      tag_247\n      tag_156\n      jump\t// in\n    tag_247:\n        /* \"#utility.yul\":4218:4274   */\n    tag_246:\n        /* \"#utility.yul\":4292:4321   */\n      tag_248\n        /* \"#utility.yul\":4314:4320   */\n      dup3\n        /* \"#utility.yul\":4292:4321   */\n      tag_151\n      jump\t// in\n    tag_248:\n        /* \"#utility.yul\":4284:4321   */\n      swap1\n      pop\n        /* \"#utility.yul\":4376:4380   */\n      0x20\n        /* \"#utility.yul\":4370:4374   */\n      dup2\n        /* \"#utility.yul\":4366:4381   */\n      add\n        /* \"#utility.yul\":4358:4381   */\n      swap1\n      pop\n        /* \"#utility.yul\":4080:4388   */\n      swap2\n      swap1\n      pop\n      jump\t// out\n        /* \"#utility.yul\":4394:4540   */\n    tag_160:\n        /* \"#utility.yul\":4491:4497   */\n      dup3\n        /* \"#utility.yul\":4486:4489   */\n      dup2\n        /* \"#utility.yul\":4481:4484   */\n      dup4\n        /* \"#utility.yul\":4468:4498   */\n      calldatacopy\n        /* \"#utility.yul\":4532:4533   */\n      0x00\n        /* \"#utility.yul\":4523:4529   */\n      dup4\n        /* \"#utility.yul\":4518:4521   */\n      dup4\n        /* \"#utility.yul\":4514:4530   */\n      add\n        /* \"#utility.yul\":4507:4534   */\n      mstore\n        /* \"#utility.yul\":4394:4540   */\n      pop\n      pop\n      pop\n      jump\t// out\n        /* \"#utility.yul\":4546:4971   */\n    tag_161:\n        /* \"#utility.yul\":4624:4629   */\n      0x00\n        /* \"#utility.yul\":4649:4715   */\n      tag_251\n        /* \"#utility.yul\":4665:4714   */\n      tag_252\n        /* \"#utility.yul\":4707:4713   */\n      dup5\n        /* \"#utility.yul\":4665:4714   */\n      tag_159\n      jump\t// in\n    tag_252:\n        /* \"#utility.yul\":4649:4715   */\n      tag_158\n      jump\t// in\n    tag_251:\n        /* \"#utility.yul\":4640:4715   */\n      swap1\n      pop\n        /* \"#utility.yul\":4738:4744   */\n      dup3\n        /* \"#utility.yul\":4731:4736   */\n      dup2\n        /* \"#utility.yul\":4724:4745   */\n      mstore\n        /* \"#utility.yul\":4776:4780   */\n      0x20\n        /* \"#utility.yul\":4769:4774   */\n      dup2\n        /* \"#utility.yul\":4765:4781   */\n      add\n        /* \"#utility.yul\":4814:4817   */\n      dup5\n        /* \"#utility.yul\":4805:4811   */\n      dup5\n        /* \"#utility.yul\":4800:4803   */\n      dup5\n        /* \"#utility.yul\":4796:4812   */\n      add\n        /* \"#utility.yul\":4793:4818   */\n      gt\n        /* \"#utility.yul\":4790:4902   */\n      iszero\n      tag_253\n      jumpi\n        /* \"#utility.yul\":4821:4900   */\n      tag_254\n      tag_155\n      jump\t// in\n    tag_254:\n        /* \"#utility.yul\":4790:4902   */\n    tag_253:\n        /* \"#utility.yul\":4911:4965   */\n      tag_255\n        /* \"#utility.yul\":4958:4964   */\n      dup5\n        /* \"#utility.yul\":4953:4956   */\n      dup3\n        /* \"#utility.yul\":4948:4951   */\n      dup6\n        /* \"#utility.yul\":4911:4965   */\n      tag_160\n      jump\t// in\n    tag_255:\n        /* \"#utility.yul\":4630:4971   */\n      pop\n        /* \"#utility.yul\":4546:4971   */\n      swap4\n      swap3\n      pop\n      pop\n      pop\n      jump\t// out\n        /* \"#utility.yul\":4991:5331   */\n    tag_162:\n        /* \"#utility.yul\":5047:5052   */\n      0x00\n        /* \"#utility.yul\":5096:5099   */\n      dup3\n        /* \"#utility.yul\":5089:5093   */\n      0x1f\n        /* \"#utility.yul\":5081:5087   */\n      dup4\n        /* \"#utility.yul\":5077:5094   */\n      add\n        /* \"#utility.yul\":5073:5100   */\n      slt\n        /* \"#utility.yul\":5063:5185   */\n      tag_257\n      jumpi\n        /* \"#utility.yul\":5104:5183   */\n      tag_258\n      tag_154\n      jump\t// in\n    tag_258:\n        /* \"#utility.yul\":5063:5185   */\n    tag_257:\n        /* \"#utility.yul\":5221:5227   */\n      dup2\n        /* \"#utility.yul\":5208:5228   */\n      calldataload\n        /* \"#utility.yul\":5246:5325   */\n      tag_259\n        /* \"#utility.yul\":5321:5324   */\n      dup5\n        /* \"#utility.yul\":5313:5319   */\n      dup3\n        /* \"#utility.yul\":5306:5310   */\n      0x20\n        /* \"#utility.yul\":5298:5304   */\n      dup7\n        /* \"#utility.yul\":5294:5311   */\n      add\n        /* \"#utility.yul\":5246:5325   */\n      tag_161\n      jump\t// in\n    tag_259:\n        /* \"#utility.yul\":5237:5325   */\n      swap2\n      pop\n        /* \"#utility.yul\":5053:5331   */\n      pop\n        /* \"#utility.yul\":4991:5331   */\n      swap3\n      swap2\n      pop\n      pop\n      jump\t// out\n        /* \"#utility.yul\":5337:6171   */\n    tag_16:\n        /* \"#utility.yul\":5425:5431   */\n      0x00\n        /* \"#utility.yul\":5433:5439   */\n      dup1\n        /* \"#utility.yul\":5482:5484   */\n      0x40\n        /* \"#utility.yul\":5470:5479   */\n      dup4\n        /* \"#utility.yul\":5461:5468   */\n      dup6\n        /* \"#utility.yul\":5457:5480   */\n      sub\n        /* \"#utility.yul\":5453:5485   */\n      slt\n        /* \"#utility.yul\":5450:5569   */\n      iszero\n      tag_261\n      jumpi\n        /* \"#utility.yul\":5488:5567   */\n      tag_262\n      tag_143\n      jump\t// in\n    tag_262:\n        /* \"#utility.yul\":5450:5569   */\n    tag_261:\n        /* \"#utility.yul\":5636:5637   */\n      0x00\n        /* \"#utility.yul\":5625:5634   */\n      dup4\n        /* \"#utility.yul\":5621:5638   */\n      add\n        /* \"#utility.yul\":5608:5639   */\n      calldataload\n        /* \"#utility.yul\":5666:5684   */\n      0xffffffffffffffff\n        /* \"#utility.yul\":5658:5664   */\n      dup2\n        /* \"#utility.yul\":5655:5685   */\n      gt\n        /* \"#utility.yul\":5652:5769   */\n      iszero\n      tag_263\n      jumpi\n        /* \"#utility.yul\":5688:5767   */\n      tag_264\n      tag_144\n      jump\t// in\n    tag_264:\n        /* \"#utility.yul\":5652:5769   */\n    tag_263:\n        /* \"#utility.yul\":5793:5856   */\n      tag_265\n        /* \"#utility.yul\":5848:5855   */\n      dup6\n        /* \"#utility.yul\":5839:5845   */\n      dup3\n        /* \"#utility.yul\":5828:5837   */\n      dup7\n        /* \"#utility.yul\":5824:5846   */\n      add\n        /* \"#utility.yul\":5793:5856   */\n      tag_162\n      jump\t// in\n    tag_265:\n        /* \"#utility.yul\":5783:5856   */\n      swap3\n      pop\n        /* \"#utility.yul\":5579:5866   */\n      pop\n        /* \"#utility.yul\":5933:5935   */\n      0x20\n        /* \"#utility.yul\":5922:5931   */\n      dup4\n        /* \"#utility.yul\":5918:5936   */\n      add\n        /* \"#utility.yul\":5905:5937   */\n      calldataload\n        /* \"#utility.yul\":5964:5982   */\n      0xffffffffffffffff\n        /* \"#utility.yul\":5956:5962   */\n      dup2\n        /* \"#utility.yul\":5953:5983   */\n      gt\n        /* \"#utility.yul\":5950:6067   */\n      iszero\n      tag_266\n      jumpi\n        /* \"#utility.yul\":5986:6065   */\n      tag_267\n      tag_144\n      jump\t// in\n    tag_267:\n        /* \"#utility.yul\":5950:6067   */\n    tag_266:\n        /* \"#utility.yul\":6091:6154   */\n      tag_268\n        /* \"#utility.yul\":6146:6153   */\n      dup6\n        /* \"#utility.yul\":6137:6143   */\n      dup3\n        /* \"#utility.yul\":6126:6135   */\n      dup7\n        /* \"#utility.yul\":6122:6144   */\n      add\n        /* \"#utility.yul\":6091:6154   */\n      tag_162\n      jump\t// in\n    tag_268:\n        /* \"#utility.yul\":6081:6154   */\n      swap2\n      pop\n        /* \"#utility.yul\":5876:6164   */\n      pop\n        /* \"#utility.yul\":5337:6171   */\n      swap3\n      pop\n      swap3\n      swap1\n      pop\n      jump\t// out\n        /* \"#utility.yul\":6177:6319   */\n    tag_163:\n        /* \"#utility.yul\":6272:6278   */\n      0x00\n        /* \"#utility.yul\":6306:6311   */\n      dup2\n        /* \"#utility.yul\":6300:6312   */\n      mload\n        /* \"#utility.yul\":6290:6312   */\n      swap1\n      pop\n        /* \"#utility.yul\":6177:6319   */\n      swap2\n      swap1\n      pop\n      jump\t// out\n        /* \"#utility.yul\":6325:6537   */\n    tag_164:\n        /* \"#utility.yul\":6452:6463   */\n      0x00\n        /* \"#utility.yul\":6486:6492   */\n      dup3\n        /* \"#utility.yul\":6481:6484   */\n      dup3\n        /* \"#utility.yul\":6474:6493   */\n      mstore\n        /* \"#utility.yul\":6526:6530   */\n      0x20\n        /* \"#utility.yul\":6521:6524   */\n      dup3\n        /* \"#utility.yul\":6517:6531   */\n      add\n        /* \"#utility.yul\":6502:6531   */\n      swap1\n      pop\n        /* \"#utility.yul\":6325:6537   */\n      swap3\n      swap2\n      pop\n      pop\n      jump\t// out\n        /* \"#utility.yul\":6543:6703   */\n    tag_165:\n        /* \"#utility.yul\":6638:6642   */\n      0x00\n        /* \"#utility.yul\":6661:6664   */\n      dup2\n        /* \"#utility.yul\":6653:6664   */\n      swap1\n      pop\n        /* \"#utility.yul\":6691:6695   */\n      0x20\n        /* \"#utility.yul\":6686:6689   */\n      dup3\n        /* \"#utility.yul\":6682:6696   */\n      add\n        /* \"#utility.yul\":6674:6696   */\n      swap1\n      pop\n        /* \"#utility.yul\":6543:6703   */\n      swap2\n      swap1\n      pop\n      jump\t// out\n        /* \"#utility.yul\":6709:6868   */\n    tag_166:\n        /* \"#utility.yul\":6783:6794   */\n      0x00\n        /* \"#utility.yul\":6817:6823   */\n      dup3\n        /* \"#utility.yul\":6812:6815   */\n      dup3\n        /* \"#utility.yul\":6805:6824   */\n      mstore\n        /* \"#utility.yul\":6857:6861   */\n      0x20\n        /* \"#utility.yul\":6852:6855   */\n      dup3\n        /* \"#utility.yul\":6848:6862   */\n      add\n        /* \"#utility.yul\":6833:6862   */\n      swap1\n      pop\n        /* \"#utility.yul\":6709:6868   */\n      swap3\n      swap2\n      pop\n      pop\n      jump\t// out\n        /* \"#utility.yul\":6874:7231   */\n    tag_167:\n        /* \"#utility.yul\":6952:6955   */\n      0x00\n        /* \"#utility.yul\":6980:7019   */\n      tag_274\n        /* \"#utility.yul\":7013:7018   */\n      dup3\n        /* \"#utility.yul\":6980:7019   */\n      tag_148\n      jump\t// in\n    tag_274:\n        /* \"#utility.yul\":7035:7096   */\n      tag_275\n        /* \"#utility.yul\":7089:7095   */\n      dup2\n        /* \"#utility.yul\":7084:7087   */\n      dup6\n        /* \"#utility.yul\":7035:7096   */\n      tag_166\n      jump\t// in\n    tag_275:\n        /* \"#utility.yul\":7028:7096   */\n      swap4\n      pop\n        /* \"#utility.yul\":7105:7170   */\n      tag_276\n        /* \"#utility.yul\":7163:7169   */\n      dup2\n        /* \"#utility.yul\":7158:7161   */\n      dup6\n        /* \"#utility.yul\":7151:7155   */\n      0x20\n        /* \"#utility.yul\":7144:7149   */\n      dup7\n        /* \"#utility.yul\":7140:7156   */\n      add\n        /* \"#utility.yul\":7105:7170   */\n      tag_150\n      jump\t// in\n    tag_276:\n        /* \"#utility.yul\":7195:7224   */\n      tag_277\n        /* \"#utility.yul\":7217:7223   */\n      dup2\n        /* \"#utility.yul\":7195:7224   */\n      tag_151\n      jump\t// in\n    tag_277:\n        /* \"#utility.yul\":7190:7193   */\n      dup5\n        /* \"#utility.yul\":7186:7225   */\n      add\n        /* \"#utility.yul\":7179:7225   */\n      swap2\n      pop\n        /* \"#utility.yul\":6956:7231   */\n      pop\n        /* \"#utility.yul\":6874:7231   */\n      swap3\n      swap2\n      pop\n      pop\n      jump\t// out\n        /* \"#utility.yul\":7237:7345   */\n    tag_168:\n        /* \"#utility.yul\":7314:7338   */\n      tag_279\n        /* \"#utility.yul\":7332:7337   */\n      dup2\n        /* \"#utility.yul\":7314:7338   */\n      tag_145\n      jump\t// in\n    tag_279:\n        /* \"#utility.yul\":7309:7312   */\n      dup3\n        /* \"#utility.yul\":7302:7339   */\n      mstore\n        /* \"#utility.yul\":7237:7345   */\n      pop\n      pop\n      jump\t// out\n        /* \"#utility.yul\":7419:8887   */\n    tag_169:\n        /* \"#utility.yul\":7534:7537   */\n      0x00\n        /* \"#utility.yul\":7570:7574   */\n      0xc0\n        /* \"#utility.yul\":7565:7568   */\n      dup4\n        /* \"#utility.yul\":7561:7575   */\n      add\n        /* \"#utility.yul\":7655:7659   */\n      0x00\n        /* \"#utility.yul\":7648:7653   */\n      dup4\n        /* \"#utility.yul\":7644:7660   */\n      add\n        /* \"#utility.yul\":7638:7661   */\n      mload\n        /* \"#utility.yul\":7708:7711   */\n      dup5\n        /* \"#utility.yul\":7702:7706   */\n      dup3\n        /* \"#utility.yul\":7698:7712   */\n      sub\n        /* \"#utility.yul\":7691:7695   */\n      0x00\n        /* \"#utility.yul\":7686:7689   */\n      dup7\n        /* \"#utility.yul\":7682:7696   */\n      add\n        /* \"#utility.yul\":7675:7713   */\n      mstore\n        /* \"#utility.yul\":7734:7807   */\n      tag_281\n        /* \"#utility.yul\":7802:7806   */\n      dup3\n        /* \"#utility.yul\":7788:7800   */\n      dup3\n        /* \"#utility.yul\":7734:7807   */\n      tag_167\n      jump\t// in\n    tag_281:\n        /* \"#utility.yul\":7726:7807   */\n      swap2\n      pop\n        /* \"#utility.yul\":7585:7818   */\n      pop\n        /* \"#utility.yul\":7911:7915   */\n      0x20\n        /* \"#utility.yul\":7904:7909   */\n      dup4\n        /* \"#utility.yul\":7900:7916   */\n      add\n        /* \"#utility.yul\":7894:7917   */\n      mload\n        /* \"#utility.yul\":7964:7967   */\n      dup5\n        /* \"#utility.yul\":7958:7962   */\n      dup3\n        /* \"#utility.yul\":7954:7968   */\n      sub\n        /* \"#utility.yul\":7947:7951   */\n      0x20\n        /* \"#utility.yul\":7942:7945   */\n      dup7\n        /* \"#utility.yul\":7938:7952   */\n      add\n        /* \"#utility.yul\":7931:7969   */\n      mstore\n        /* \"#utility.yul\":7990:8063   */\n      tag_282\n        /* \"#utility.yul\":8058:8062   */\n      dup3\n        /* \"#utility.yul\":8044:8056   */\n      dup3\n        /* \"#utility.yul\":7990:8063   */\n      tag_167\n      jump\t// in\n    tag_282:\n        /* \"#utility.yul\":7982:8063   */\n      swap2\n      pop\n        /* \"#utility.yul\":7828:8074   */\n      pop\n        /* \"#utility.yul\":8157:8161   */\n      0x40\n        /* \"#utility.yul\":8150:8155   */\n      dup4\n        /* \"#utility.yul\":8146:8162   */\n      add\n        /* \"#utility.yul\":8140:8163   */\n      mload\n        /* \"#utility.yul\":8210:8213   */\n      dup5\n        /* \"#utility.yul\":8204:8208   */\n      dup3\n        /* \"#utility.yul\":8200:8214   */\n      sub\n        /* \"#utility.yul\":8193:8197   */\n      0x40\n        /* \"#utility.yul\":8188:8191   */\n      dup7\n        /* \"#utility.yul\":8184:8198   */\n      add\n        /* \"#utility.yul\":8177:8215   */\n      mstore\n        /* \"#utility.yul\":8236:8309   */\n      tag_283\n        /* \"#utility.yul\":8304:8308   */\n      dup3\n        /* \"#utility.yul\":8290:8302   */\n      dup3\n        /* \"#utility.yul\":8236:8309   */\n      tag_167\n      jump\t// in\n    tag_283:\n        /* \"#utility.yul\":8228:8309   */\n      swap2\n      pop\n        /* \"#utility.yul\":8084:8320   */\n      pop\n        /* \"#utility.yul\":8410:8414   */\n      0x60\n        /* \"#utility.yul\":8403:8408   */\n      dup4\n        /* \"#utility.yul\":8399:8415   */\n      add\n        /* \"#utility.yul\":8393:8416   */\n      mload\n        /* \"#utility.yul\":8429:8492   */\n      tag_284\n        /* \"#utility.yul\":8486:8490   */\n      0x60\n        /* \"#utility.yul\":8481:8484   */\n      dup7\n        /* \"#utility.yul\":8477:8491   */\n      add\n        /* \"#utility.yul\":8463:8475   */\n      dup3\n        /* \"#utility.yul\":8429:8492   */\n      tag_168\n      jump\t// in\n    tag_284:\n        /* \"#utility.yul\":8330:8502   */\n      pop\n        /* \"#utility.yul\":8591:8595   */\n      0x80\n        /* \"#utility.yul\":8584:8589   */\n      dup4\n        /* \"#utility.yul\":8580:8596   */\n      add\n        /* \"#utility.yul\":8574:8597   */\n      mload\n        /* \"#utility.yul\":8610:8673   */\n      tag_285\n        /* \"#utility.yul\":8667:8671   */\n      0x80\n        /* \"#utility.yul\":8662:8665   */\n      dup7\n        /* \"#utility.yul\":8658:8672   */\n      add\n        /* \"#utility.yul\":8644:8656   */\n      dup3\n        /* \"#utility.yul\":8610:8673   */\n      tag_168\n      jump\t// in\n    tag_285:\n        /* \"#utility.yul\":8512:8683   */\n      pop\n        /* \"#utility.yul\":8768:8772   */\n      0xa0\n        /* \"#utility.yul\":8761:8766   */\n      dup4\n        /* \"#utility.yul\":8757:8773   */\n      add\n        /* \"#utility.yul\":8751:8774   */\n      mload\n        /* \"#utility.yul\":8787:8850   */\n      tag_286\n        /* \"#utility.yul\":8844:8848   */\n      0xa0\n        /* \"#utility.yul\":8839:8842   */\n      dup7\n        /* \"#utility.yul\":8835:8849   */\n      add\n        /* \"#utility.yul\":8821:8833   */\n      dup3\n        /* \"#utility.yul\":8787:8850   */\n      tag_168\n      jump\t// in\n    tag_286:\n        /* \"#utility.yul\":8693:8860   */\n      pop\n        /* \"#utility.yul\":8877:8881   */\n      dup1\n        /* \"#utility.yul\":8870:8881   */\n      swap2\n      pop\n        /* \"#utility.yul\":7539:8887   */\n      pop\n        /* \"#utility.yul\":7419:8887   */\n      swap3\n      swap2\n      pop\n      pop\n      jump\t// out\n        /* \"#utility.yul\":8893:9161   */\n    tag_170:\n        /* \"#utility.yul\":9018:9028   */\n      0x00\n        /* \"#utility.yul\":9053:9155   */\n      tag_288\n        /* \"#utility.yul\":9151:9154   */\n      dup4\n        /* \"#utility.yul\":9143:9149   */\n      dup4\n        /* \"#utility.yul\":9053:9155   */\n      tag_169\n      jump\t// in\n    tag_288:\n        /* \"#utility.yul\":9039:9155   */\n      swap1\n      pop\n        /* \"#utility.yul\":8893:9161   */\n      swap3\n      swap2\n      pop\n      pop\n      jump\t// out\n        /* \"#utility.yul\":9167:9308   */\n    tag_171:\n        /* \"#utility.yul\":9265:9269   */\n      0x00\n        /* \"#utility.yul\":9297:9301   */\n      0x20\n        /* \"#utility.yul\":9292:9295   */\n      dup3\n        /* \"#utility.yul\":9288:9302   */\n      add\n        /* \"#utility.yul\":9280:9302   */\n      swap1\n      pop\n        /* \"#utility.yul\":9167:9308   */\n      swap2\n      swap1\n      pop\n      jump\t// out\n        /* \"#utility.yul\":9386:10521   */\n    tag_172:\n        /* \"#utility.yul\":9561:9564   */\n      0x00\n        /* \"#utility.yul\":9590:9672   */\n      tag_291\n        /* \"#utility.yul\":9666:9671   */\n      dup3\n        /* \"#utility.yul\":9590:9672   */\n      tag_163\n      jump\t// in\n    tag_291:\n        /* \"#utility.yul\":9688:9802   */\n      tag_292\n        /* \"#utility.yul\":9795:9801   */\n      dup2\n        /* \"#utility.yul\":9790:9793   */\n      dup6\n        /* \"#utility.yul\":9688:9802   */\n      tag_164\n      jump\t// in\n    tag_292:\n        /* \"#utility.yul\":9681:9802   */\n      swap4\n      pop\n        /* \"#utility.yul\":9828:9831   */\n      dup4\n        /* \"#utility.yul\":9873:9877   */\n      0x20\n        /* \"#utility.yul\":9865:9871   */\n      dup3\n        /* \"#utility.yul\":9861:9878   */\n      mul\n        /* \"#utility.yul\":9856:9859   */\n      dup6\n        /* \"#utility.yul\":9852:9879   */\n      add\n        /* \"#utility.yul\":9903:9987   */\n      tag_293\n        /* \"#utility.yul\":9981:9986   */\n      dup6\n        /* \"#utility.yul\":9903:9987   */\n      tag_165\n      jump\t// in\n    tag_293:\n        /* \"#utility.yul\":10010:10017   */\n      dup1\n        /* \"#utility.yul\":10041:10042   */\n      0x00\n        /* \"#utility.yul\":10026:10476   */\n    tag_294:\n        /* \"#utility.yul\":10051:10057   */\n      dup6\n        /* \"#utility.yul\":10048:10049   */\n      dup2\n        /* \"#utility.yul\":10045:10058   */\n      lt\n        /* \"#utility.yul\":10026:10476   */\n      iszero\n      tag_296\n      jumpi\n        /* \"#utility.yul\":10122:10131   */\n      dup5\n        /* \"#utility.yul\":10116:10120   */\n      dup5\n        /* \"#utility.yul\":10112:10132   */\n      sub\n        /* \"#utility.yul\":10107:10110   */\n      dup10\n        /* \"#utility.yul\":10100:10133   */\n      mstore\n        /* \"#utility.yul\":10173:10179   */\n      dup2\n        /* \"#utility.yul\":10167:10180   */\n      mload\n        /* \"#utility.yul\":10201:10321   */\n      tag_297\n        /* \"#utility.yul\":10316:10320   */\n      dup6\n        /* \"#utility.yul\":10301:10314   */\n      dup3\n        /* \"#utility.yul\":10201:10321   */\n      tag_170\n      jump\t// in\n    tag_297:\n        /* \"#utility.yul\":10193:10321   */\n      swap5\n      pop\n        /* \"#utility.yul\":10344:10432   */\n      tag_298\n        /* \"#utility.yul\":10425:10431   */\n      dup4\n        /* \"#utility.yul\":10344:10432   */\n      tag_171\n      jump\t// in\n    tag_298:\n        /* \"#utility.yul\":10334:10432   */\n      swap3\n      pop\n        /* \"#utility.yul\":10461:10465   */\n      0x20\n        /* \"#utility.yul\":10456:10459   */\n      dup11\n        /* \"#utility.yul\":10452:10466   */\n      add\n        /* \"#utility.yul\":10445:10466   */\n      swap10\n      pop\n        /* \"#utility.yul\":10086:10476   */\n      pop\n        /* \"#utility.yul\":10073:10074   */\n      0x01\n        /* \"#utility.yul\":10070:10071   */\n      dup2\n        /* \"#utility.yul\":10066:10075   */\n      add\n        /* \"#utility.yul\":10061:10075   */\n      swap1\n      pop\n        /* \"#utility.yul\":10026:10476   */\n      jump(tag_294)\n    tag_296:\n        /* \"#utility.yul\":10030:10044   */\n      pop\n        /* \"#utility.yul\":10492:10496   */\n      dup3\n        /* \"#utility.yul\":10485:10496   */\n      swap8\n      pop\n        /* \"#utility.yul\":10512:10515   */\n      dup8\n        /* \"#utility.yul\":10505:10515   */\n      swap6\n      pop\n        /* \"#utility.yul\":9566:10521   */\n      pop\n      pop\n      pop\n      pop\n      pop\n        /* \"#utility.yul\":9386:10521   */\n      swap3\n      swap2\n      pop\n      pop\n      jump\t// out\n        /* \"#utility.yul\":10527:11012   */\n    tag_22:\n        /* \"#utility.yul\":10726:10730   */\n      0x00\n        /* \"#utility.yul\":10764:10766   */\n      0x20\n        /* \"#utility.yul\":10753:10762   */\n      dup3\n        /* \"#utility.yul\":10749:10767   */\n      add\n        /* \"#utility.yul\":10741:10767   */\n      swap1\n      pop\n        /* \"#utility.yul\":10813:10822   */\n      dup2\n        /* \"#utility.yul\":10807:10811   */\n      dup2\n        /* \"#utility.yul\":10803:10823   */\n      sub\n        /* \"#utility.yul\":10799:10800   */\n      0x00\n        /* \"#utility.yul\":10788:10797   */\n      dup4\n        /* \"#utility.yul\":10784:10801   */\n      add\n        /* \"#utility.yul\":10777:10824   */\n      mstore\n        /* \"#utility.yul\":10841:11005   */\n      tag_300\n        /* \"#utility.yul\":11000:11004   */\n      dup2\n        /* \"#utility.yul\":10991:10997   */\n      dup5\n        /* \"#utility.yul\":10841:11005   */\n      tag_172\n      jump\t// in\n    tag_300:\n        /* \"#utility.yul\":10833:11005   */\n      swap1\n      pop\n        /* \"#utility.yul\":10527:11012   */\n      swap3\n      swap2\n      pop\n      pop\n      jump\t// out\n        /* \"#utility.yul\":11018:12615   */\n    tag_26:\n        /* \"#utility.yul\":11152:11158   */\n      0x00\n        /* \"#utility.yul\":11160:11166   */\n      dup1\n        /* \"#utility.yul\":11168:11174   */\n      0x00\n        /* \"#utility.yul\":11176:11182   */\n      dup1\n        /* \"#utility.yul\":11184:11190   */\n      0x00\n        /* \"#utility.yul\":11192:11198   */\n      dup1\n        /* \"#utility.yul\":11241:11244   */\n      0xc0\n        /* \"#utility.yul\":11229:11238   */\n      dup8\n        /* \"#utility.yul\":11220:11227   */\n      dup10\n        /* \"#utility.yul\":11216:11239   */\n      sub\n        /* \"#utility.yul\":11212:11245   */\n      slt\n        /* \"#utility.yul\":11209:11329   */\n      iszero\n      tag_302\n      jumpi\n        /* \"#utility.yul\":11248:11327   */\n      tag_303\n      tag_143\n      jump\t// in\n    tag_303:\n        /* \"#utility.yul\":11209:11329   */\n    tag_302:\n        /* \"#utility.yul\":11396:11397   */\n      0x00\n        /* \"#utility.yul\":11385:11394   */\n      dup8\n        /* \"#utility.yul\":11381:11398   */\n      add\n        /* \"#utility.yul\":11368:11399   */\n      calldataload\n        /* \"#utility.yul\":11426:11444   */\n      0xffffffffffffffff\n        /* \"#utility.yul\":11418:11424   */\n      dup2\n        /* \"#utility.yul\":11415:11445   */\n      gt\n        /* \"#utility.yul\":11412:11529   */\n      iszero\n      tag_304\n      jumpi\n        /* \"#utility.yul\":11448:11527   */\n      tag_305\n      tag_144\n      jump\t// in\n    tag_305:\n        /* \"#utility.yul\":11412:11529   */\n    tag_304:\n        /* \"#utility.yul\":11553:11616   */\n      tag_306\n        /* \"#utility.yul\":11608:11615   */\n      dup10\n        /* \"#utility.yul\":11599:11605   */\n      dup3\n        /* \"#utility.yul\":11588:11597   */\n      dup11\n        /* \"#utility.yul\":11584:11606   */\n      add\n        /* \"#utility.yul\":11553:11616   */\n      tag_162\n      jump\t// in\n    tag_306:\n        /* \"#utility.yul\":11543:11616   */\n      swap7\n      pop\n        /* \"#utility.yul\":11339:11626   */\n      pop\n        /* \"#utility.yul\":11693:11695   */\n      0x20\n        /* \"#utility.yul\":11682:11691   */\n      dup8\n        /* \"#utility.yul\":11678:11696   */\n      add\n        /* \"#utility.yul\":11665:11697   */\n      calldataload\n        /* \"#utility.yul\":11724:11742   */\n      0xffffffffffffffff\n        /* \"#utility.yul\":11716:11722   */\n      dup2\n        /* \"#utility.yul\":11713:11743   */\n      gt\n        /* \"#utility.yul\":11710:11827   */\n      iszero\n      tag_307\n      jumpi\n        /* \"#utility.yul\":11746:11825   */\n      tag_308\n      tag_144\n      jump\t// in\n    tag_308:\n        /* \"#utility.yul\":11710:11827   */\n    tag_307:\n        /* \"#utility.yul\":11851:11914   */\n      tag_309\n        /* \"#utility.yul\":11906:11913   */\n      dup10\n        /* \"#utility.yul\":11897:11903   */\n      dup3\n        /* \"#utility.yul\":11886:11895   */\n      dup11\n        /* \"#utility.yul\":11882:11904   */\n      add\n        /* \"#utility.yul\":11851:11914   */\n      tag_162\n      jump\t// in\n    tag_309:\n        /* \"#utility.yul\":11841:11914   */\n      swap6\n      pop\n        /* \"#utility.yul\":11636:11924   */\n      pop\n        /* \"#utility.yul\":11991:11993   */\n      0x40\n        /* \"#utility.yul\":11980:11989   */\n      dup8\n        /* \"#utility.yul\":11976:11994   */\n      add\n        /* \"#utility.yul\":11963:11995   */\n      calldataload\n        /* \"#utility.yul\":12022:12040   */\n      0xffffffffffffffff\n        /* \"#utility.yul\":12014:12020   */\n      dup2\n        /* \"#utility.yul\":12011:12041   */\n      gt\n        /* \"#utility.yul\":12008:12125   */\n      iszero\n      tag_310\n      jumpi\n        /* \"#utility.yul\":12044:12123   */\n      tag_311\n      tag_144\n      jump\t// in\n    tag_311:\n        /* \"#utility.yul\":12008:12125   */\n    tag_310:\n        /* \"#utility.yul\":12149:12212   */\n      tag_312\n        /* \"#utility.yul\":12204:12211   */\n      dup10\n        /* \"#utility.yul\":12195:12201   */\n      dup3\n        /* \"#utility.yul\":12184:12193   */\n      dup11\n        /* \"#utility.yul\":12180:12202   */\n      add\n        /* \"#utility.yul\":12149:12212   */\n      tag_162\n      jump\t// in\n    tag_312:\n        /* \"#utility.yul\":12139:12212   */\n      swap5\n      pop\n        /* \"#utility.yul\":11934:12222   */\n      pop\n        /* \"#utility.yul\":12261:12263   */\n      0x60\n        /* \"#utility.yul\":12287:12340   */\n      tag_313\n        /* \"#utility.yul\":12332:12339   */\n      dup10\n        /* \"#utility.yul\":12323:12329   */\n      dup3\n        /* \"#utility.yul\":12312:12321   */\n      dup11\n        /* \"#utility.yul\":12308:12330   */\n      add\n        /* \"#utility.yul\":12287:12340   */\n      tag_147\n      jump\t// in\n    tag_313:\n        /* \"#utility.yul\":12277:12340   */\n      swap4\n      pop\n        /* \"#utility.yul\":12232:12350   */\n      pop\n        /* \"#utility.yul\":12389:12392   */\n      0x80\n        /* \"#utility.yul\":12416:12469   */\n      tag_314\n        /* \"#utility.yul\":12461:12468   */\n      dup10\n        /* \"#utility.yul\":12452:12458   */\n      dup3\n        /* \"#utility.yul\":12441:12450   */\n      dup11\n        /* \"#utility.yul\":12437:12459   */\n      add\n        /* \"#utility.yul\":12416:12469   */\n      tag_147\n      jump\t// in\n    tag_314:\n        /* \"#utility.yul\":12406:12469   */\n      swap3\n      pop\n        /* \"#utility.yul\":12360:12479   */\n      pop\n        /* \"#utility.yul\":12518:12521   */\n      0xa0\n        /* \"#utility.yul\":12545:12598   */\n      tag_315\n        /* \"#utility.yul\":12590:12597   */\n      dup10\n        /* \"#utility.yul\":12581:12587   */\n      dup3\n        /* \"#utility.yul\":12570:12579   */\n      dup11\n        /* \"#utility.yul\":12566:12588   */\n      add\n        /* \"#utility.yul\":12545:12598   */\n      tag_147\n      jump\t// in\n    tag_315:\n        /* \"#utility.yul\":12535:12598   */\n      swap2\n      pop\n        /* \"#utility.yul\":12489:12608   */\n      pop\n        /* \"#utility.yul\":11018:12615   */\n      swap3\n      swap6\n      pop\n      swap3\n      swap6\n      pop\n      swap3\n      swap6\n      jump\t// out\n        /* \"#utility.yul\":12621:13130   */\n    tag_31:\n        /* \"#utility.yul\":12690:12696   */\n      0x00\n        /* \"#utility.yul\":12739:12741   */\n      0x20\n        /* \"#utility.yul\":12727:12736   */\n      dup3\n        /* \"#utility.yul\":12718:12725   */\n      dup5\n        /* \"#utility.yul\":12714:12737   */\n      sub\n        /* \"#utility.yul\":12710:12742   */\n      slt\n        /* \"#utility.yul\":12707:12826   */\n      iszero\n      tag_317\n      jumpi\n        /* \"#utility.yul\":12745:12824   */\n      tag_318\n      tag_143\n      jump\t// in\n    tag_318:\n        /* \"#utility.yul\":12707:12826   */\n    tag_317:\n        /* \"#utility.yul\":12893:12894   */\n      0x00\n        /* \"#utility.yul\":12882:12891   */\n      dup3\n        /* \"#utility.yul\":12878:12895   */\n      add\n        /* \"#utility.yul\":12865:12896   */\n      calldataload\n        /* \"#utility.yul\":12923:12941   */\n      0xffffffffffffffff\n        /* \"#utility.yul\":12915:12921   */\n      dup2\n        /* \"#utility.yul\":12912:12942   */\n      gt\n        /* \"#utility.yul\":12909:13026   */\n      iszero\n      tag_319\n      jumpi\n        /* \"#utility.yul\":12945:13024   */\n      tag_320\n      tag_144\n      jump\t// in\n    tag_320:\n        /* \"#utility.yul\":12909:13026   */\n    tag_319:\n        /* \"#utility.yul\":13050:13113   */\n      tag_321\n        /* \"#utility.yul\":13105:13112   */\n      dup5\n        /* \"#utility.yul\":13096:13102   */\n      dup3\n        /* \"#utility.yul\":13085:13094   */\n      dup6\n        /* \"#utility.yul\":13081:13103   */\n      add\n        /* \"#utility.yul\":13050:13113   */\n      tag_162\n      jump\t// in\n    tag_321:\n        /* \"#utility.yul\":13040:13113   */\n      swap2\n      pop\n        /* \"#utility.yul\":12836:13123   */\n      pop\n        /* \"#utility.yul\":12621:13130   */\n      swap3\n      swap2\n      pop\n      pop\n      jump\t// out\n        /* \"#utility.yul\":13204:14682   */\n    tag_173:\n        /* \"#utility.yul\":13329:13332   */\n      0x00\n        /* \"#utility.yul\":13365:13369   */\n      0xc0\n        /* \"#utility.yul\":13360:13363   */\n      dup4\n        /* \"#utility.yul\":13356:13370   */\n      add\n        /* \"#utility.yul\":13450:13454   */\n      0x00\n        /* \"#utility.yul\":13443:13448   */\n      dup4\n        /* \"#utility.yul\":13439:13455   */\n      add\n        /* \"#utility.yul\":13433:13456   */\n      mload\n        /* \"#utility.yul\":13503:13506   */\n      dup5\n        /* \"#utility.yul\":13497:13501   */\n      dup3\n        /* \"#utility.yul\":13493:13507   */\n      sub\n        /* \"#utility.yul\":13486:13490   */\n      0x00\n        /* \"#utility.yul\":13481:13484   */\n      dup7\n        /* \"#utility.yul\":13477:13491   */\n      add\n        /* \"#utility.yul\":13470:13508   */\n      mstore\n        /* \"#utility.yul\":13529:13602   */\n      tag_323\n        /* \"#utility.yul\":13597:13601   */\n      dup3\n        /* \"#utility.yul\":13583:13595   */\n      dup3\n        /* \"#utility.yul\":13529:13602   */\n      tag_167\n      jump\t// in\n    tag_323:\n        /* \"#utility.yul\":13521:13602   */\n      swap2\n      pop\n        /* \"#utility.yul\":13380:13613   */\n      pop\n        /* \"#utility.yul\":13706:13710   */\n      0x20\n        /* \"#utility.yul\":13699:13704   */\n      dup4\n        /* \"#utility.yul\":13695:13711   */\n      add\n        /* \"#utility.yul\":13689:13712   */\n      mload\n        /* \"#utility.yul\":13759:13762   */\n      dup5\n        /* \"#utility.yul\":13753:13757   */\n      dup3\n        /* \"#utility.yul\":13749:13763   */\n      sub\n        /* \"#utility.yul\":13742:13746   */\n      0x20\n        /* \"#utility.yul\":13737:13740   */\n      dup7\n        /* \"#utility.yul\":13733:13747   */\n      add\n        /* \"#utility.yul\":13726:13764   */\n      mstore\n        /* \"#utility.yul\":13785:13858   */\n      tag_324\n        /* \"#utility.yul\":13853:13857   */\n      dup3\n        /* \"#utility.yul\":13839:13851   */\n      dup3\n        /* \"#utility.yul\":13785:13858   */\n      tag_167\n      jump\t// in\n    tag_324:\n        /* \"#utility.yul\":13777:13858   */\n      swap2\n      pop\n        /* \"#utility.yul\":13623:13869   */\n      pop\n        /* \"#utility.yul\":13952:13956   */\n      0x40\n        /* \"#utility.yul\":13945:13950   */\n      dup4\n        /* \"#utility.yul\":13941:13957   */\n      add\n        /* \"#utility.yul\":13935:13958   */\n      mload\n        /* \"#utility.yul\":14005:14008   */\n      dup5\n        /* \"#utility.yul\":13999:14003   */\n      dup3\n        /* \"#utility.yul\":13995:14009   */\n      sub\n        /* \"#utility.yul\":13988:13992   */\n      0x40\n        /* \"#utility.yul\":13983:13986   */\n      dup7\n        /* \"#utility.yul\":13979:13993   */\n      add\n        /* \"#utility.yul\":13972:14010   */\n      mstore\n        /* \"#utility.yul\":14031:14104   */\n      tag_325\n        /* \"#utility.yul\":14099:14103   */\n      dup3\n        /* \"#utility.yul\":14085:14097   */\n      dup3\n        /* \"#utility.yul\":14031:14104   */\n      tag_167\n      jump\t// in\n    tag_325:\n        /* \"#utility.yul\":14023:14104   */\n      swap2\n      pop\n        /* \"#utility.yul\":13879:14115   */\n      pop\n        /* \"#utility.yul\":14205:14209   */\n      0x60\n        /* \"#utility.yul\":14198:14203   */\n      dup4\n        /* \"#utility.yul\":14194:14210   */\n      add\n        /* \"#utility.yul\":14188:14211   */\n      mload\n        /* \"#utility.yul\":14224:14287   */\n      tag_326\n        /* \"#utility.yul\":14281:14285   */\n      0x60\n        /* \"#utility.yul\":14276:14279   */\n      dup7\n        /* \"#utility.yul\":14272:14286   */\n      add\n        /* \"#utility.yul\":14258:14270   */\n      dup3\n        /* \"#utility.yul\":14224:14287   */\n      tag_168\n      jump\t// in\n    tag_326:\n        /* \"#utility.yul\":14125:14297   */\n      pop\n        /* \"#utility.yul\":14386:14390   */\n      0x80\n        /* \"#utility.yul\":14379:14384   */\n      dup4\n        /* \"#utility.yul\":14375:14391   */\n      add\n        /* \"#utility.yul\":14369:14392   */\n      mload\n        /* \"#utility.yul\":14405:14468   */\n      tag_327\n        /* \"#utility.yul\":14462:14466   */\n      0x80\n        /* \"#utility.yul\":14457:14460   */\n      dup7\n        /* \"#utility.yul\":14453:14467   */\n      add\n        /* \"#utility.yul\":14439:14451   */\n      dup3\n        /* \"#utility.yul\":14405:14468   */\n      tag_168\n      jump\t// in\n    tag_327:\n        /* \"#utility.yul\":14307:14478   */\n      pop\n        /* \"#utility.yul\":14563:14567   */\n      0xa0\n        /* \"#utility.yul\":14556:14561   */\n      dup4\n        /* \"#utility.yul\":14552:14568   */\n      add\n        /* \"#utility.yul\":14546:14569   */\n      mload\n        /* \"#utility.yul\":14582:14645   */\n      tag_328\n        /* \"#utility.yul\":14639:14643   */\n      0xa0\n        /* \"#utility.yul\":14634:14637   */\n      dup7\n        /* \"#utility.yul\":14630:14644   */\n      add\n        /* \"#utility.yul\":14616:14628   */\n      dup3\n        /* \"#utility.yul\":14582:14645   */\n      tag_168\n      jump\t// in\n    tag_328:\n        /* \"#utility.yul\":14488:14655   */\n      pop\n        /* \"#utility.yul\":14672:14676   */\n      dup1\n        /* \"#utility.yul\":14665:14676   */\n      swap2\n      pop\n        /* \"#utility.yul\":13334:14682   */\n      pop\n        /* \"#utility.yul\":13204:14682   */\n      swap3\n      swap2\n      pop\n      pop\n      jump\t// out\n        /* \"#utility.yul\":14688:15073   */\n    tag_34:\n        /* \"#utility.yul\":14837:14841   */\n      0x00\n        /* \"#utility.yul\":14875:14877   */\n      0x20\n        /* \"#utility.yul\":14864:14873   */\n      dup3\n        /* \"#utility.yul\":14860:14878   */\n      add\n        /* \"#utility.yul\":14852:14878   */\n      swap1\n      pop\n        /* \"#utility.yul\":14924:14933   */\n      dup2\n        /* \"#utility.yul\":14918:14922   */\n      dup2\n        /* \"#utility.yul\":14914:14934   */\n      sub\n        /* \"#utility.yul\":14910:14911   */\n      0x00\n        /* \"#utility.yul\":14899:14908   */\n      dup4\n        /* \"#utility.yul\":14895:14912   */\n      add\n        /* \"#utility.yul\":14888:14935   */\n      mstore\n        /* \"#utility.yul\":14952:15066   */\n      tag_330\n        /* \"#utility.yul\":15061:15065   */\n      dup2\n        /* \"#utility.yul\":15052:15058   */\n      dup5\n        /* \"#utility.yul\":14952:15066   */\n      tag_173\n      jump\t// in\n    tag_330:\n        /* \"#utility.yul\":14944:15066   */\n      swap1\n      pop\n        /* \"#utility.yul\":14688:15073   */\n      swap3\n      swap2\n      pop\n      pop\n      jump\t// out\n        /* \"#utility.yul\":15079:15259   */\n    tag_174:\n        /* \"#utility.yul\":15127:15204   */\n      0x4e487b7100000000000000000000000000000000000000000000000000000000\n        /* \"#utility.yul\":15124:15125   */\n      0x00\n        /* \"#utility.yul\":15117:15205   */\n      mstore\n        /* \"#utility.yul\":15224:15228   */\n      0x22\n        /* \"#utility.yul\":15221:15222   */\n      0x04\n        /* \"#utility.yul\":15214:15229   */\n      mstore\n        /* \"#utility.yul\":15248:15252   */\n      0x24\n        /* \"#utility.yul\":15245:15246   */\n      0x00\n        /* \"#utility.yul\":15238:15253   */\n      revert\n        /* \"#utility.yul\":15265:15585   */\n    tag_38:\n        /* \"#utility.yul\":15309:15315   */\n      0x00\n        /* \"#utility.yul\":15346:15347   */\n      0x02\n        /* \"#utility.yul\":15340:15344   */\n      dup3\n        /* \"#utility.yul\":15336:15348   */\n      div\n        /* \"#utility.yul\":15326:15348   */\n      swap1\n      pop\n        /* \"#utility.yul\":15393:15394   */\n      0x01\n        /* \"#utility.yul\":15387:15391   */\n      dup3\n        /* \"#utility.yul\":15383:15395   */\n      and\n        /* \"#utility.yul\":15414:15432   */\n      dup1\n        /* \"#utility.yul\":15404:15485   */\n      tag_333\n      jumpi\n        /* \"#utility.yul\":15470:15474   */\n      0x7f\n        /* \"#utility.yul\":15462:15468   */\n      dup3\n        /* \"#utility.yul\":15458:15475   */\n      and\n        /* \"#utility.yul\":15448:15475   */\n      swap2\n      pop\n        /* \"#utility.yul\":15404:15485   */\n    tag_333:\n        /* \"#utility.yul\":15532:15534   */\n      0x20\n        /* \"#utility.yul\":15524:15530   */\n      dup3\n        /* \"#utility.yul\":15521:15535   */\n      lt\n        /* \"#utility.yul\":15501:15519   */\n      dup2\n        /* \"#utility.yul\":15498:15536   */\n      sub\n        /* \"#utility.yul\":15495:15579   */\n      tag_334\n      jumpi\n        /* \"#utility.yul\":15551:15569   */\n      tag_335\n      tag_174\n      jump\t// in\n    tag_335:\n        /* \"#utility.yul\":15495:15579   */\n    tag_334:\n        /* \"#utility.yul\":15316:15585   */\n      pop\n        /* \"#utility.yul\":15265:15585   */\n      swap2\n      swap1\n      pop\n      jump\t// out\n        /* \"#utility.yul\":15591:15811   */\n    tag_175:\n        /* \"#utility.yul\":15731:15765   */\n      0x56616c7565206d75737420626520302e3030303220455448206f722061626f76\n        /* \"#utility.yul\":15727:15728   */\n      0x00\n        /* \"#utility.yul\":15719:15725   */\n      dup3\n        /* \"#utility.yul\":15715:15729   */\n      add\n        /* \"#utility.yul\":15708:15766   */\n      mstore\n        /* \"#utility.yul\":15800:15803   */\n      0x6500000000000000000000000000000000000000000000000000000000000000\n        /* \"#utility.yul\":15795:15797   */\n      0x20\n        /* \"#utility.yul\":15787:15793   */\n      dup3\n        /* \"#utility.yul\":15783:15798   */\n      add\n        /* \"#utility.yul\":15776:15804   */\n      mstore\n        /* \"#utility.yul\":15591:15811   */\n      pop\n      jump\t// out\n        /* \"#utility.yul\":15817:16183   */\n    tag_176:\n        /* \"#utility.yul\":15959:15962   */\n      0x00\n        /* \"#utility.yul\":15980:16047   */\n      tag_338\n        /* \"#utility.yul\":16044:16046   */\n      0x21\n        /* \"#utility.yul\":16039:16042   */\n      dup4\n        /* \"#utility.yul\":15980:16047   */\n      tag_149\n      jump\t// in\n    tag_338:\n        /* \"#utility.yul\":15973:16047   */\n      swap2\n      pop\n        /* \"#utility.yul\":16056:16149   */\n      tag_339\n        /* \"#utility.yul\":16145:16148   */\n      dup3\n        /* \"#utility.yul\":16056:16149   */\n      tag_175\n      jump\t// in\n    tag_339:\n        /* \"#utility.yul\":16174:16176   */\n      0x40\n        /* \"#utility.yul\":16169:16172   */\n      dup3\n        /* \"#utility.yul\":16165:16177   */\n      add\n        /* \"#utility.yul\":16158:16177   */\n      swap1\n      pop\n        /* \"#utility.yul\":15817:16183   */\n      swap2\n      swap1\n      pop\n      jump\t// out\n        /* \"#utility.yul\":16189:16608   */\n    tag_56:\n        /* \"#utility.yul\":16355:16359   */\n      0x00\n        /* \"#utility.yul\":16393:16395   */\n      0x20\n        /* \"#utility.yul\":16382:16391   */\n      dup3\n        /* \"#utility.yul\":16378:16396   */\n      add\n        /* \"#utility.yul\":16370:16396   */\n      swap1\n      pop\n        /* \"#utility.yul\":16442:16451   */\n      dup2\n        /* \"#utility.yul\":16436:16440   */\n      dup2\n        /* \"#utility.yul\":16432:16452   */\n      sub\n        /* \"#utility.yul\":16428:16429   */\n      0x00\n        /* \"#utility.yul\":16417:16426   */\n      dup4\n        /* \"#utility.yul\":16413:16430   */\n      add\n        /* \"#utility.yul\":16406:16453   */\n      mstore\n        /* \"#utility.yul\":16470:16601   */\n      tag_341\n        /* \"#utility.yul\":16596:16600   */\n      dup2\n        /* \"#utility.yul\":16470:16601   */\n      tag_176\n      jump\t// in\n    tag_341:\n        /* \"#utility.yul\":16462:16601   */\n      swap1\n      pop\n        /* \"#utility.yul\":16189:16608   */\n      swap2\n      swap1\n      pop\n      jump\t// out\n        /* \"#utility.yul\":16614:16762   */\n    tag_177:\n        /* \"#utility.yul\":16716:16727   */\n      0x00\n        /* \"#utility.yul\":16753:16756   */\n      dup2\n        /* \"#utility.yul\":16738:16756   */\n      swap1\n      pop\n        /* \"#utility.yul\":16614:16762   */\n      swap3\n      swap2\n      pop\n      pop\n      jump\t// out\n        /* \"#utility.yul\":16768:17158   */\n    tag_178:\n        /* \"#utility.yul\":16874:16877   */\n      0x00\n        /* \"#utility.yul\":16902:16941   */\n      tag_344\n        /* \"#utility.yul\":16935:16940   */\n      dup3\n        /* \"#utility.yul\":16902:16941   */\n      tag_148\n      jump\t// in\n    tag_344:\n        /* \"#utility.yul\":16957:17046   */\n      tag_345\n        /* \"#utility.yul\":17039:17045   */\n      dup2\n        /* \"#utility.yul\":17034:17037   */\n      dup6\n        /* \"#utility.yul\":16957:17046   */\n      tag_177\n      jump\t// in\n    tag_345:\n        /* \"#utility.yul\":16950:17046   */\n      swap4\n      pop\n        /* \"#utility.yul\":17055:17120   */\n      tag_346\n        /* \"#utility.yul\":17113:17119   */\n      dup2\n        /* \"#utility.yul\":17108:17111   */\n      dup6\n        /* \"#utility.yul\":17101:17105   */\n      0x20\n        /* \"#utility.yul\":17094:17099   */\n      dup7\n        /* \"#utility.yul\":17090:17106   */\n      add\n        /* \"#utility.yul\":17055:17120   */\n      tag_150\n      jump\t// in\n    tag_346:\n        /* \"#utility.yul\":17145:17151   */\n      dup1\n        /* \"#utility.yul\":17140:17143   */\n      dup5\n        /* \"#utility.yul\":17136:17152   */\n      add\n        /* \"#utility.yul\":17129:17152   */\n      swap2\n      pop\n        /* \"#utility.yul\":16878:17158   */\n      pop\n        /* \"#utility.yul\":16768:17158   */\n      swap3\n      swap2\n      pop\n      pop\n      jump\t// out\n        /* \"#utility.yul\":17164:17439   */\n    tag_61:\n        /* \"#utility.yul\":17296:17299   */\n      0x00\n        /* \"#utility.yul\":17318:17413   */\n      tag_348\n        /* \"#utility.yul\":17409:17412   */\n      dup3\n        /* \"#utility.yul\":17400:17406   */\n      dup5\n        /* \"#utility.yul\":17318:17413   */\n      tag_178\n      jump\t// in\n    tag_348:\n        /* \"#utility.yul\":17311:17413   */\n      swap2\n      pop\n        /* \"#utility.yul\":17430:17433   */\n      dup2\n        /* \"#utility.yul\":17423:17433   */\n      swap1\n      pop\n        /* \"#utility.yul\":17164:17439   */\n      swap3\n      swap2\n      pop\n      pop\n      jump\t// out\n        /* \"#utility.yul\":17445:17625   */\n    tag_64:\n        /* \"#utility.yul\":17493:17570   */\n      0x4e487b7100000000000000000000000000000000000000000000000000000000\n        /* \"#utility.yul\":17490:17491   */\n      0x00\n        /* \"#utility.yul\":17483:17571   */\n      mstore\n        /* \"#utility.yul\":17590:17594   */\n      0x32\n        /* \"#utility.yul\":17587:17588   */\n      0x04\n        /* \"#utility.yul\":17580:17595   */\n      mstore\n        /* \"#utility.yul\":17614:17618   */\n      0x24\n        /* \"#utility.yul\":17611:17612   */\n      0x00\n        /* \"#utility.yul\":17604:17619   */\n      revert\n        /* \"#utility.yul\":17631:17772   */\n    tag_179:\n        /* \"#utility.yul\":17680:17684   */\n      0x00\n        /* \"#utility.yul\":17703:17706   */\n      dup2\n        /* \"#utility.yul\":17695:17706   */\n      swap1\n      pop\n        /* \"#utility.yul\":17726:17729   */\n      dup2\n        /* \"#utility.yul\":17723:17724   */\n      0x00\n        /* \"#utility.yul\":17716:17730   */\n      mstore\n        /* \"#utility.yul\":17760:17764   */\n      0x20\n        /* \"#utility.yul\":17757:17758   */\n      0x00\n        /* \"#utility.yul\":17747:17765   */\n      keccak256\n        /* \"#utility.yul\":17739:17765   */\n      swap1\n      pop\n        /* \"#utility.yul\":17631:17772   */\n      swap2\n      swap1\n      pop\n      jump\t// out\n        /* \"#utility.yul\":17802:18676   */\n    tag_180:\n        /* \"#utility.yul\":17905:17908   */\n      0x00\n        /* \"#utility.yul\":17942:17947   */\n      dup2\n        /* \"#utility.yul\":17936:17948   */\n      sload\n        /* \"#utility.yul\":17971:18007   */\n      tag_352\n        /* \"#utility.yul\":17997:18006   */\n      dup2\n        /* \"#utility.yul\":17971:18007   */\n      tag_38\n      jump\t// in\n    tag_352:\n        /* \"#utility.yul\":18023:18112   */\n      tag_353\n        /* \"#utility.yul\":18105:18111   */\n      dup2\n        /* \"#utility.yul\":18100:18103   */\n      dup7\n        /* \"#utility.yul\":18023:18112   */\n      tag_177\n      jump\t// in\n    tag_353:\n        /* \"#utility.yul\":18016:18112   */\n      swap5\n      pop\n        /* \"#utility.yul\":18143:18144   */\n      0x01\n        /* \"#utility.yul\":18132:18141   */\n      dup3\n        /* \"#utility.yul\":18128:18145   */\n      and\n        /* \"#utility.yul\":18159:18160   */\n      0x00\n        /* \"#utility.yul\":18154:18320   */\n      dup2\n      eq\n      tag_355\n      jumpi\n        /* \"#utility.yul\":18334:18335   */\n      0x01\n        /* \"#utility.yul\":18329:18670   */\n      dup2\n      eq\n      tag_356\n      jumpi\n        /* \"#utility.yul\":18121:18670   */\n      jump(tag_354)\n        /* \"#utility.yul\":18154:18320   */\n    tag_355:\n        /* \"#utility.yul\":18238:18242   */\n      0xff\n        /* \"#utility.yul\":18234:18243   */\n      not\n        /* \"#utility.yul\":18223:18232   */\n      dup4\n        /* \"#utility.yul\":18219:18244   */\n      and\n        /* \"#utility.yul\":18214:18217   */\n      dup7\n        /* \"#utility.yul\":18207:18245   */\n      mstore\n        /* \"#utility.yul\":18300:18306   */\n      dup2\n        /* \"#utility.yul\":18293:18307   */\n      iszero\n        /* \"#utility.yul\":18286:18308   */\n      iszero\n        /* \"#utility.yul\":18278:18284   */\n      dup3\n        /* \"#utility.yul\":18274:18309   */\n      mul\n        /* \"#utility.yul\":18269:18272   */\n      dup7\n        /* \"#utility.yul\":18265:18310   */\n      add\n        /* \"#utility.yul\":18258:18310   */\n      swap4\n      pop\n        /* \"#utility.yul\":18154:18320   */\n      jump(tag_354)\n        /* \"#utility.yul\":18329:18670   */\n    tag_356:\n        /* \"#utility.yul\":18396:18434   */\n      tag_357\n        /* \"#utility.yul\":18428:18433   */\n      dup6\n        /* \"#utility.yul\":18396:18434   */\n      tag_179\n      jump\t// in\n    tag_357:\n        /* \"#utility.yul\":18456:18457   */\n      0x00\n        /* \"#utility.yul\":18470:18624   */\n    tag_358:\n        /* \"#utility.yul\":18484:18490   */\n      dup4\n        /* \"#utility.yul\":18481:18482   */\n      dup2\n        /* \"#utility.yul\":18478:18491   */\n      lt\n        /* \"#utility.yul\":18470:18624   */\n      iszero\n      tag_360\n      jumpi\n        /* \"#utility.yul\":18558:18565   */\n      dup2\n        /* \"#utility.yul\":18552:18566   */\n      sload\n        /* \"#utility.yul\":18548:18549   */\n      dup2\n        /* \"#utility.yul\":18543:18546   */\n      dup10\n        /* \"#utility.yul\":18539:18550   */\n      add\n        /* \"#utility.yul\":18532:18567   */\n      mstore\n        /* \"#utility.yul\":18608:18609   */\n      0x01\n        /* \"#utility.yul\":18599:18606   */\n      dup3\n        /* \"#utility.yul\":18595:18610   */\n      add\n        /* \"#utility.yul\":18584:18610   */\n      swap2\n      pop\n        /* \"#utility.yul\":18506:18510   */\n      0x20\n        /* \"#utility.yul\":18503:18504   */\n      dup2\n        /* \"#utility.yul\":18499:18511   */\n      add\n        /* \"#utility.yul\":18494:18511   */\n      swap1\n      pop\n        /* \"#utility.yul\":18470:18624   */\n      jump(tag_358)\n    tag_360:\n        /* \"#utility.yul\":18653:18659   */\n      dup4\n        /* \"#utility.yul\":18648:18651   */\n      dup9\n        /* \"#utility.yul\":18644:18660   */\n      add\n        /* \"#utility.yul\":18637:18660   */\n      swap6\n      pop\n        /* \"#utility.yul\":18336:18670   */\n      pop\n      pop\n        /* \"#utility.yul\":18121:18670   */\n    tag_354:\n      pop\n        /* \"#utility.yul\":17909:18676   */\n      pop\n      pop\n        /* \"#utility.yul\":17802:18676   */\n      swap3\n      swap2\n      pop\n      pop\n      jump\t// out\n        /* \"#utility.yul\":18682:18951   */\n    tag_67:\n        /* \"#utility.yul\":18811:18814   */\n      0x00\n        /* \"#utility.yul\":18833:18925   */\n      tag_362\n        /* \"#utility.yul\":18921:18924   */\n      dup3\n        /* \"#utility.yul\":18912:18918   */\n      dup5\n        /* \"#utility.yul\":18833:18925   */\n      tag_180\n      jump\t// in\n    tag_362:\n        /* \"#utility.yul\":18826:18925   */\n      swap2\n      pop\n        /* \"#utility.yul\":18942:18945   */\n      dup2\n        /* \"#utility.yul\":18935:18945   */\n      swap1\n      pop\n        /* \"#utility.yul\":18682:18951   */\n      swap3\n      swap2\n      pop\n      pop\n      jump\t// out\n        /* \"#utility.yul\":18957:19137   */\n    tag_181:\n        /* \"#utility.yul\":19005:19082   */\n      0x4e487b7100000000000000000000000000000000000000000000000000000000\n        /* \"#utility.yul\":19002:19003   */\n      0x00\n        /* \"#utility.yul\":18995:19083   */\n      mstore\n        /* \"#utility.yul\":19102:19106   */\n      0x11\n        /* \"#utility.yul\":19099:19100   */\n      0x04\n        /* \"#utility.yul\":19092:19107   */\n      mstore\n        /* \"#utility.yul\":19126:19130   */\n      0x24\n        /* \"#utility.yul\":19123:19124   */\n      0x00\n        /* \"#utility.yul\":19116:19131   */\n      revert\n        /* \"#utility.yul\":19143:19334   */\n    tag_73:\n        /* \"#utility.yul\":19183:19186   */\n      0x00\n        /* \"#utility.yul\":19202:19222   */\n      tag_365\n        /* \"#utility.yul\":19220:19221   */\n      dup3\n        /* \"#utility.yul\":19202:19222   */\n      tag_145\n      jump\t// in\n    tag_365:\n        /* \"#utility.yul\":19197:19222   */\n      swap2\n      pop\n        /* \"#utility.yul\":19236:19256   */\n      tag_366\n        /* \"#utility.yul\":19254:19255   */\n      dup4\n        /* \"#utility.yul\":19236:19256   */\n      tag_145\n      jump\t// in\n    tag_366:\n        /* \"#utility.yul\":19231:19256   */\n      swap3\n      pop\n        /* \"#utility.yul\":19279:19280   */\n      dup3\n        /* \"#utility.yul\":19276:19277   */\n      dup3\n        /* \"#utility.yul\":19272:19281   */\n      add\n        /* \"#utility.yul\":19265:19281   */\n      swap1\n      pop\n        /* \"#utility.yul\":19300:19303   */\n      dup1\n        /* \"#utility.yul\":19297:19298   */\n      dup3\n        /* \"#utility.yul\":19294:19304   */\n      gt\n        /* \"#utility.yul\":19291:19327   */\n      iszero\n      tag_367\n      jumpi\n        /* \"#utility.yul\":19307:19325   */\n      tag_368\n      tag_181\n      jump\t// in\n    tag_368:\n        /* \"#utility.yul\":19291:19327   */\n    tag_367:\n        /* \"#utility.yul\":19143:19334   */\n      swap3\n      swap2\n      pop\n      pop\n      jump\t// out\n        /* \"#utility.yul\":19340:20075   */\n    tag_75:\n        /* \"#utility.yul\":19557:19561   */\n      0x00\n        /* \"#utility.yul\":19595:19598   */\n      0x80\n        /* \"#utility.yul\":19584:19593   */\n      dup3\n        /* \"#utility.yul\":19580:19599   */\n      add\n        /* \"#utility.yul\":19572:19599   */\n      swap1\n      pop\n        /* \"#utility.yul\":19645:19654   */\n      dup2\n        /* \"#utility.yul\":19639:19643   */\n      dup2\n        /* \"#utility.yul\":19635:19655   */\n      sub\n        /* \"#utility.yul\":19631:19632   */\n      0x00\n        /* \"#utility.yul\":19620:19629   */\n      dup4\n        /* \"#utility.yul\":19616:19633   */\n      add\n        /* \"#utility.yul\":19609:19656   */\n      mstore\n        /* \"#utility.yul\":19673:19751   */\n      tag_370\n        /* \"#utility.yul\":19746:19750   */\n      dup2\n        /* \"#utility.yul\":19737:19743   */\n      dup8\n        /* \"#utility.yul\":19673:19751   */\n      tag_152\n      jump\t// in\n    tag_370:\n        /* \"#utility.yul\":19665:19751   */\n      swap1\n      pop\n        /* \"#utility.yul\":19798:19807   */\n      dup2\n        /* \"#utility.yul\":19792:19796   */\n      dup2\n        /* \"#utility.yul\":19788:19808   */\n      sub\n        /* \"#utility.yul\":19783:19785   */\n      0x20\n        /* \"#utility.yul\":19772:19781   */\n      dup4\n        /* \"#utility.yul\":19768:19786   */\n      add\n        /* \"#utility.yul\":19761:19809   */\n      mstore\n        /* \"#utility.yul\":19826:19904   */\n      tag_371\n        /* \"#utility.yul\":19899:19903   */\n      dup2\n        /* \"#utility.yul\":19890:19896   */\n      dup7\n        /* \"#utility.yul\":19826:19904   */\n      tag_152\n      jump\t// in\n    tag_371:\n        /* \"#utility.yul\":19818:19904   */\n      swap1\n      pop\n        /* \"#utility.yul\":19914:19986   */\n      tag_372\n        /* \"#utility.yul\":19982:19984   */\n      0x40\n        /* \"#utility.yul\":19971:19980   */\n      dup4\n        /* \"#utility.yul\":19967:19985   */\n      add\n        /* \"#utility.yul\":19958:19964   */\n      dup6\n        /* \"#utility.yul\":19914:19986   */\n      tag_153\n      jump\t// in\n    tag_372:\n        /* \"#utility.yul\":19996:20068   */\n      tag_373\n        /* \"#utility.yul\":20064:20066   */\n      0x60\n        /* \"#utility.yul\":20053:20062   */\n      dup4\n        /* \"#utility.yul\":20049:20067   */\n      add\n        /* \"#utility.yul\":20040:20046   */\n      dup5\n        /* \"#utility.yul\":19996:20068   */\n      tag_153\n      jump\t// in\n    tag_373:\n        /* \"#utility.yul\":19340:20075   */\n      swap6\n      swap5\n      pop\n      pop\n      pop\n      pop\n      pop\n      jump\t// out\n        /* \"#utility.yul\":20081:20240   */\n    tag_182:\n        /* \"#utility.yul\":20221:20232   */\n      0x4e6f7420666f756e640000000000000000000000000000000000000000000000\n        /* \"#utility.yul\":20217:20218   */\n      0x00\n        /* \"#utility.yul\":20209:20215   */\n      dup3\n        /* \"#utility.yul\":20205:20219   */\n      add\n        /* \"#utility.yul\":20198:20233   */\n      mstore\n        /* \"#utility.yul\":20081:20240   */\n      pop\n      jump\t// out\n        /* \"#utility.yul\":20246:20611   */\n    tag_183:\n        /* \"#utility.yul\":20388:20391   */\n      0x00\n        /* \"#utility.yul\":20409:20475   */\n      tag_376\n        /* \"#utility.yul\":20473:20474   */\n      0x09\n        /* \"#utility.yul\":20468:20471   */\n      dup4\n        /* \"#utility.yul\":20409:20475   */\n      tag_149\n      jump\t// in\n    tag_376:\n        /* \"#utility.yul\":20402:20475   */\n      swap2\n      pop\n        /* \"#utility.yul\":20484:20577   */\n      tag_377\n        /* \"#utility.yul\":20573:20576   */\n      dup3\n        /* \"#utility.yul\":20484:20577   */\n      tag_182\n      jump\t// in\n    tag_377:\n        /* \"#utility.yul\":20602:20604   */\n      0x20\n        /* \"#utility.yul\":20597:20600   */\n      dup3\n        /* \"#utility.yul\":20593:20605   */\n      add\n        /* \"#utility.yul\":20586:20605   */\n      swap1\n      pop\n        /* \"#utility.yul\":20246:20611   */\n      swap2\n      swap1\n      pop\n      jump\t// out\n        /* \"#utility.yul\":20617:21036   */\n    tag_80:\n        /* \"#utility.yul\":20783:20787   */\n      0x00\n        /* \"#utility.yul\":20821:20823   */\n      0x20\n        /* \"#utility.yul\":20810:20819   */\n      dup3\n        /* \"#utility.yul\":20806:20824   */\n      add\n        /* \"#utility.yul\":20798:20824   */\n      swap1\n      pop\n        /* \"#utility.yul\":20870:20879   */\n      dup2\n        /* \"#utility.yul\":20864:20868   */\n      dup2\n        /* \"#utility.yul\":20860:20880   */\n      sub\n        /* \"#utility.yul\":20856:20857   */\n      0x00\n        /* \"#utility.yul\":20845:20854   */\n      dup4\n        /* \"#utility.yul\":20841:20858   */\n      add\n        /* \"#utility.yul\":20834:20881   */\n      mstore\n        /* \"#utility.yul\":20898:21029   */\n      tag_379\n        /* \"#utility.yul\":21024:21028   */\n      dup2\n        /* \"#utility.yul\":20898:21029   */\n      tag_183\n      jump\t// in\n    tag_379:\n        /* \"#utility.yul\":20890:21029   */\n      swap1\n      pop\n        /* \"#utility.yul\":20617:21036   */\n      swap2\n      swap1\n      pop\n      jump\t// out\n        /* \"#utility.yul\":21042:21262   */\n    tag_184:\n        /* \"#utility.yul\":21182:21216   */\n      0x4f6e6c792061646d696e2063616e2063616c6c20746869732066756e6374696f\n        /* \"#utility.yul\":21178:21179   */\n      0x00\n        /* \"#utility.yul\":21170:21176   */\n      dup3\n        /* \"#utility.yul\":21166:21180   */\n      add\n        /* \"#utility.yul\":21159:21217   */\n      mstore\n        /* \"#utility.yul\":21251:21254   */\n      0x6e00000000000000000000000000000000000000000000000000000000000000\n        /* \"#utility.yul\":21246:21248   */\n      0x20\n        /* \"#utility.yul\":21238:21244   */\n      dup3\n        /* \"#utility.yul\":21234:21249   */\n      add\n        /* \"#utility.yul\":21227:21255   */\n      mstore\n        /* \"#utility.yul\":21042:21262   */\n      pop\n      jump\t// out\n        /* \"#utility.yul\":21268:21634   */\n    tag_185:\n        /* \"#utility.yul\":21410:21413   */\n      0x00\n        /* \"#utility.yul\":21431:21498   */\n      tag_382\n        /* \"#utility.yul\":21495:21497   */\n      0x21\n        /* \"#utility.yul\":21490:21493   */\n      dup4\n        /* \"#utility.yul\":21431:21498   */\n      tag_149\n      jump\t// in\n    tag_382:\n        /* \"#utility.yul\":21424:21498   */\n      swap2\n      pop\n        /* \"#utility.yul\":21507:21600   */\n      tag_383\n        /* \"#utility.yul\":21596:21599   */\n      dup3\n        /* \"#utility.yul\":21507:21600   */\n      tag_184\n      jump\t// in\n    tag_383:\n        /* \"#utility.yul\":21625:21627   */\n      0x40\n        /* \"#utility.yul\":21620:21623   */\n      dup3\n        /* \"#utility.yul\":21616:21628   */\n      add\n        /* \"#utility.yul\":21609:21628   */\n      swap1\n      pop\n        /* \"#utility.yul\":21268:21634   */\n      swap2\n      swap1\n      pop\n      jump\t// out\n        /* \"#utility.yul\":21640:22059   */\n    tag_103:\n        /* \"#utility.yul\":21806:21810   */\n      0x00\n        /* \"#utility.yul\":21844:21846   */\n      0x20\n        /* \"#utility.yul\":21833:21842   */\n      dup3\n        /* \"#utility.yul\":21829:21847   */\n      add\n        /* \"#utility.yul\":21821:21847   */\n      swap1\n      pop\n        /* \"#utility.yul\":21893:21902   */\n      dup2\n        /* \"#utility.yul\":21887:21891   */\n      dup2\n        /* \"#utility.yul\":21883:21903   */\n      sub\n        /* \"#utility.yul\":21879:21880   */\n      0x00\n        /* \"#utility.yul\":21868:21877   */\n      dup4\n        /* \"#utility.yul\":21864:21881   */\n      add\n        /* \"#utility.yul\":21857:21904   */\n      mstore\n        /* \"#utility.yul\":21921:22052   */\n      tag_385\n        /* \"#utility.yul\":22047:22051   */\n      dup2\n        /* \"#utility.yul\":21921:22052   */\n      tag_185\n      jump\t// in\n    tag_385:\n        /* \"#utility.yul\":21913:22052   */\n      swap1\n      pop\n        /* \"#utility.yul\":21640:22059   */\n      swap2\n      swap1\n      pop\n      jump\t// out\n        /* \"#utility.yul\":22065:22158   */\n    tag_186:\n        /* \"#utility.yul\":22102:22108   */\n      0x00\n        /* \"#utility.yul\":22149:22151   */\n      0x20\n        /* \"#utility.yul\":22144:22146   */\n      0x1f\n        /* \"#utility.yul\":22137:22142   */\n      dup4\n        /* \"#utility.yul\":22133:22147   */\n      add\n        /* \"#utility.yul\":22129:22152   */\n      div\n        /* \"#utility.yul\":22119:22152   */\n      swap1\n      pop\n        /* \"#utility.yul\":22065:22158   */\n      swap2\n      swap1\n      pop\n      jump\t// out\n        /* \"#utility.yul\":22164:22271   */\n    tag_187:\n        /* \"#utility.yul\":22208:22216   */\n      0x00\n        /* \"#utility.yul\":22258:22263   */\n      dup3\n        /* \"#utility.yul\":22252:22256   */\n      dup3\n        /* \"#utility.yul\":22248:22264   */\n      shl\n        /* \"#utility.yul\":22227:22264   */\n      swap1\n      pop\n        /* \"#utility.yul\":22164:22271   */\n      swap3\n      swap2\n      pop\n      pop\n      jump\t// out\n        /* \"#utility.yul\":22277:22670   */\n    tag_188:\n        /* \"#utility.yul\":22346:22352   */\n      0x00\n        /* \"#utility.yul\":22396:22397   */\n      0x08\n        /* \"#utility.yul\":22384:22394   */\n      dup4\n        /* \"#utility.yul\":22380:22398   */\n      mul\n        /* \"#utility.yul\":22419:22516   */\n      tag_389\n        /* \"#utility.yul\":22449:22515   */\n      0xffffffffffffffffffffffffffffffffffffffffffffffffffffffffffffffff\n        /* \"#utility.yul\":22438:22447   */\n      dup3\n        /* \"#utility.yul\":22419:22516   */\n      tag_187\n      jump\t// in\n    tag_389:\n        /* \"#utility.yul\":22537:22576   */\n      tag_390\n        /* \"#utility.yul\":22567:22575   */\n      dup7\n        /* \"#utility.yul\":22556:22565   */\n      dup4\n        /* \"#utility.yul\":22537:22576   */\n      tag_187\n      jump\t// in\n    tag_390:\n        /* \"#utility.yul\":22525:22576   */\n      swap6\n      pop\n        /* \"#utility.yul\":22609:22613   */\n      dup1\n        /* \"#utility.yul\":22605:22614   */\n      not\n        /* \"#utility.yul\":22598:22603   */\n      dup5\n        /* \"#utility.yul\":22594:22615   */\n      and\n        /* \"#utility.yul\":22585:22615   */\n      swap4\n      pop\n        /* \"#utility.yul\":22658:22662   */\n      dup1\n        /* \"#utility.yul\":22648:22656   */\n      dup7\n        /* \"#utility.yul\":22644:22663   */\n      and\n        /* \"#utility.yul\":22637:22642   */\n      dup5\n        /* \"#utility.yul\":22634:22664   */\n      or\n        /* \"#utility.yul\":22624:22664   */\n      swap3\n      pop\n        /* \"#utility.yul\":22353:22670   */\n      pop\n      pop\n        /* \"#utility.yul\":22277:22670   */\n      swap4\n      swap3\n      pop\n      pop\n      pop\n      jump\t// out\n        /* \"#utility.yul\":22676:22736   */\n    tag_189:\n        /* \"#utility.yul\":22704:22707   */\n      0x00\n        /* \"#utility.yul\":22725:22730   */\n      dup2\n        /* \"#utility.yul\":22718:22730   */\n      swap1\n      pop\n        /* \"#utility.yul\":22676:22736   */\n      swap2\n      swap1\n      pop\n      jump\t// out\n        /* \"#utility.yul\":22742:22884   */\n    tag_190:\n        /* \"#utility.yul\":22792:22801   */\n      0x00\n        /* \"#utility.yul\":22825:22878   */\n      tag_393\n        /* \"#utility.yul\":22843:22877   */\n      tag_394\n        /* \"#utility.yul\":22852:22876   */\n      tag_395\n        /* \"#utility.yul\":22870:22875   */\n      dup5\n        /* \"#utility.yul\":22852:22876   */\n      tag_145\n      jump\t// in\n    tag_395:\n        /* \"#utility.yul\":22843:22877   */\n      tag_189\n      jump\t// in\n    tag_394:\n        /* \"#utility.yul\":22825:22878   */\n      tag_145\n      jump\t// in\n    tag_393:\n        /* \"#utility.yul\":22812:22878   */\n      swap1\n      pop\n        /* \"#utility.yul\":22742:22884   */\n      swap2\n      swap1\n      pop\n      jump\t// out\n        /* \"#utility.yul\":22890:22965   */\n    tag_191:\n        /* \"#utility.yul\":22933:22936   */\n      0x00\n        /* \"#utility.yul\":22954:22959   */\n      dup2\n        /* \"#utility.yul\":22947:22959   */\n      swap1\n      pop\n        /* \"#utility.yul\":22890:22965   */\n      swap2\n      swap1\n      pop\n      jump\t// out\n        /* \"#utility.yul\":22971:23240   */\n    tag_192:\n        /* \"#utility.yul\":23081:23120   */\n      tag_398\n        /* \"#utility.yul\":23112:23119   */\n      dup4\n        /* \"#utility.yul\":23081:23120   */\n      tag_190\n      jump\t// in\n    tag_398:\n        /* \"#utility.yul\":23142:23233   */\n      tag_399\n        /* \"#utility.yul\":23191:23232   */\n      tag_400\n        /* \"#utility.yul\":23215:23231   */\n      dup3\n        /* \"#utility.yul\":23191:23232   */\n      tag_191\n      jump\t// in\n    tag_400:\n        /* \"#utility.yul\":23183:23189   */\n      dup5\n        /* \"#utility.yul\":23176:23180   */\n      dup5\n        /* \"#utility.yul\":23170:23181   */\n      sload\n        /* \"#utility.yul\":23142:23233   */\n      tag_188\n      jump\t// in\n    tag_399:\n        /* \"#utility.yul\":23136:23140   */\n      dup3\n        /* \"#utility.yul\":23129:23234   */\n      sstore\n        /* \"#utility.yul\":23047:23240   */\n      pop\n        /* \"#utility.yul\":22971:23240   */\n      pop\n      pop\n      pop\n      jump\t// out\n        /* \"#utility.yul\":23246:23319   */\n    tag_193:\n        /* \"#utility.yul\":23291:23294   */\n      0x00\n        /* \"#utility.yul\":23246:23319   */\n      swap1\n      jump\t// out\n        /* \"#utility.yul\":23325:23514   */\n    tag_194:\n        /* \"#utility.yul\":23402:23434   */\n      tag_403\n      tag_193\n      jump\t// in\n    tag_403:\n        /* \"#utility.yul\":23443:23508   */\n      tag_404\n        /* \"#utility.yul\":23501:23507   */\n      dup2\n        /* \"#utility.yul\":23493:23499   */\n      dup5\n        /* \"#utility.yul\":23487:23491   */\n      dup5\n        /* \"#utility.yul\":23443:23508   */\n      tag_192\n      jump\t// in\n    tag_404:\n        /* \"#utility.yul\":23378:23514   */\n      pop\n        /* \"#utility.yul\":23325:23514   */\n      pop\n      pop\n      jump\t// out\n        /* \"#utility.yul\":23520:23706   */\n    tag_195:\n        /* \"#utility.yul\":23580:23700   */\n    tag_406:\n        /* \"#utility.yul\":23597:23600   */\n      dup2\n        /* \"#utility.yul\":23590:23595   */\n      dup2\n        /* \"#utility.yul\":23587:23601   */\n      lt\n        /* \"#utility.yul\":23580:23700   */\n      iszero\n      tag_408\n      jumpi\n        /* \"#utility.yul\":23651:23690   */\n      tag_409\n        /* \"#utility.yul\":23688:23689   */\n      0x00\n        /* \"#utility.yul\":23681:23686   */\n      dup3\n        /* \"#utility.yul\":23651:23690   */\n      tag_194\n      jump\t// in\n    tag_409:\n        /* \"#utility.yul\":23624:23625   */\n      0x01\n        /* \"#utility.yul\":23617:23622   */\n      dup2\n        /* \"#utility.yul\":23613:23626   */\n      add\n        /* \"#utility.yul\":23604:23626   */\n      swap1\n      pop\n        /* \"#utility.yul\":23580:23700   */\n      jump(tag_406)\n    tag_408:\n        /* \"#utility.yul\":23520:23706   */\n      pop\n      pop\n      jump\t// out\n        /* \"#utility.yul\":23712:24255   */\n    tag_196:\n        /* \"#utility.yul\":23813:23815   */\n      0x1f\n        /* \"#utility.yul\":23808:23811   */\n      dup3\n        /* \"#utility.yul\":23805:23816   */\n      gt\n        /* \"#utility.yul\":23802:24248   */\n      iszero\n      tag_411\n      jumpi\n        /* \"#utility.yul\":23847:23885   */\n      tag_412\n        /* \"#utility.yul\":23879:23884   */\n      dup2\n        /* \"#utility.yul\":23847:23885   */\n      tag_179\n      jump\t// in\n    tag_412:\n        /* \"#utility.yul\":23931:23960   */\n      tag_413\n        /* \"#utility.yul\":23949:23959   */\n      dup5\n        /* \"#utility.yul\":23931:23960   */\n      tag_186\n      jump\t// in\n    tag_413:\n        /* \"#utility.yul\":23921:23929   */\n      dup2\n        /* \"#utility.yul\":23917:23961   */\n      add\n        /* \"#utility.yul\":24114:24116   */\n      0x20\n        /* \"#utility.yul\":24102:24112   */\n      dup6\n        /* \"#utility.yul\":24099:24117   */\n      lt\n        /* \"#utility.yul\":24096:24145   */\n      iszero\n      tag_414\n      jumpi\n        /* \"#utility.yul\":24135:24143   */\n      dup2\n        /* \"#utility.yul\":24120:24143   */\n      swap1\n      pop\n        /* \"#utility.yul\":24096:24145   */\n    tag_414:\n        /* \"#utility.yul\":24158:24238   */\n      tag_415\n        /* \"#utility.yul\":24214:24236   */\n      tag_416\n        /* \"#utility.yul\":24232:24235   */\n      dup6\n        /* \"#utility.yul\":24214:24236   */\n      tag_186\n      jump\t// in\n    tag_416:\n        /* \"#utility.yul\":24204:24212   */\n      dup4\n        /* \"#utility.yul\":24200:24237   */\n      add\n        /* \"#utility.yul\":24187:24198   */\n      dup3\n        /* \"#utility.yul\":24158:24238   */\n      tag_195\n      jump\t// in\n    tag_415:\n        /* \"#utility.yul\":23817:24248   */\n      pop\n      pop\n        /* \"#utility.yul\":23802:24248   */\n    tag_411:\n        /* \"#utility.yul\":23712:24255   */\n      pop\n      pop\n      pop\n      jump\t// out\n        /* \"#utility.yul\":24261:24378   */\n    tag_197:\n        /* \"#utility.yul\":24315:24323   */\n      0x00\n        /* \"#utility.yul\":24365:24370   */\n      dup3\n        /* \"#utility.yul\":24359:24363   */\n      dup3\n        /* \"#utility.yul\":24355:24371   */\n      shr\n        /* \"#utility.yul\":24334:24371   */\n      swap1\n      pop\n        /* \"#utility.yul\":24261:24378   */\n      swap3\n      swap2\n      pop\n      pop\n      jump\t// out\n        /* \"#utility.yul\":24384:24553   */\n    tag_198:\n        /* \"#utility.yul\":24428:24434   */\n      0x00\n        /* \"#utility.yul\":24461:24512   */\n      tag_419\n        /* \"#utility.yul\":24509:24510   */\n      0x00\n        /* \"#utility.yul\":24505:24511   */\n      not\n        /* \"#utility.yul\":24497:24502   */\n      dup5\n        /* \"#utility.yul\":24494:24495   */\n      0x08\n        /* \"#utility.yul\":24490:24503   */\n      mul\n        /* \"#utility.yul\":24461:24512   */\n      tag_197\n      jump\t// in\n    tag_419:\n        /* \"#utility.yul\":24457:24513   */\n      not\n        /* \"#utility.yul\":24542:24546   */\n      dup1\n        /* \"#utility.yul\":24536:24540   */\n      dup4\n        /* \"#utility.yul\":24532:24547   */\n      and\n        /* \"#utility.yul\":24522:24547   */\n      swap2\n      pop\n        /* \"#utility.yul\":24435:24553   */\n      pop\n        /* \"#utility.yul\":24384:24553   */\n      swap3\n      swap2\n      pop\n      pop\n      jump\t// out\n        /* \"#utility.yul\":24558:24853   */\n    tag_199:\n        /* \"#utility.yul\":24634:24638   */\n      0x00\n        /* \"#utility.yul\":24780:24809   */\n      tag_421\n        /* \"#utility.yul\":24805:24808   */\n      dup4\n        /* \"#utility.yul\":24799:24803   */\n      dup4\n        /* \"#utility.yul\":24780:24809   */\n      tag_198\n      jump\t// in\n    tag_421:\n        /* \"#utility.yul\":24772:24809   */\n      swap2\n      pop\n        /* \"#utility.yul\":24842:24845   */\n      dup3\n        /* \"#utility.yul\":24839:24840   */\n      0x02\n        /* \"#utility.yul\":24835:24846   */\n      mul\n        /* \"#utility.yul\":24829:24833   */\n      dup3\n        /* \"#utility.yul\":24826:24847   */\n      or\n        /* \"#utility.yul\":24818:24847   */\n      swap1\n      pop\n        /* \"#utility.yul\":24558:24853   */\n      swap3\n      swap2\n      pop\n      pop\n      jump\t// out\n        /* \"#utility.yul\":24858:26253   */\n    tag_109:\n        /* \"#utility.yul\":24975:25012   */\n      tag_423\n        /* \"#utility.yul\":25008:25011   */\n      dup3\n        /* \"#utility.yul\":24975:25012   */\n      tag_148\n      jump\t// in\n    tag_423:\n        /* \"#utility.yul\":25077:25095   */\n      0xffffffffffffffff\n        /* \"#utility.yul\":25069:25075   */\n      dup2\n        /* \"#utility.yul\":25066:25096   */\n      gt\n        /* \"#utility.yul\":25063:25119   */\n      iszero\n      tag_424\n      jumpi\n        /* \"#utility.yul\":25099:25117   */\n      tag_425\n      tag_156\n      jump\t// in\n    tag_425:\n        /* \"#utility.yul\":25063:25119   */\n    tag_424:\n        /* \"#utility.yul\":25143:25181   */\n      tag_426\n        /* \"#utility.yul\":25175:25179   */\n      dup3\n        /* \"#utility.yul\":25169:25180   */\n      sload\n        /* \"#utility.yul\":25143:25181   */\n      tag_38\n      jump\t// in\n    tag_426:\n        /* \"#utility.yul\":25228:25295   */\n      tag_427\n        /* \"#utility.yul\":25288:25294   */\n      dup3\n        /* \"#utility.yul\":25280:25286   */\n      dup3\n        /* \"#utility.yul\":25274:25278   */\n      dup6\n        /* \"#utility.yul\":25228:25295   */\n      tag_196\n      jump\t// in\n    tag_427:\n        /* \"#utility.yul\":25322:25323   */\n      0x00\n        /* \"#utility.yul\":25346:25350   */\n      0x20\n        /* \"#utility.yul\":25333:25350   */\n      swap1\n      pop\n        /* \"#utility.yul\":25378:25380   */\n      0x1f\n        /* \"#utility.yul\":25370:25376   */\n      dup4\n        /* \"#utility.yul\":25367:25381   */\n      gt\n        /* \"#utility.yul\":25395:25396   */\n      0x01\n        /* \"#utility.yul\":25390:26008   */\n      dup2\n      eq\n      tag_429\n      jumpi\n        /* \"#utility.yul\":26052:26053   */\n      0x00\n        /* \"#utility.yul\":26069:26075   */\n      dup5\n        /* \"#utility.yul\":26066:26143   */\n      iszero\n      tag_430\n      jumpi\n        /* \"#utility.yul\":26118:26127   */\n      dup3\n        /* \"#utility.yul\":26113:26116   */\n      dup8\n        /* \"#utility.yul\":26109:26128   */\n      add\n        /* \"#utility.yul\":26103:26129   */\n      mload\n        /* \"#utility.yul\":26094:26129   */\n      swap1\n      pop\n        /* \"#utility.yul\":26066:26143   */\n    tag_430:\n        /* \"#utility.yul\":26169:26236   */\n      tag_431\n        /* \"#utility.yul\":26229:26235   */\n      dup6\n        /* \"#utility.yul\":26222:26227   */\n      dup3\n        /* \"#utility.yul\":26169:26236   */\n      tag_199\n      jump\t// in\n    tag_431:\n        /* \"#utility.yul\":26163:26167   */\n      dup7\n        /* \"#utility.yul\":26156:26237   */\n      sstore\n        /* \"#utility.yul\":26025:26247   */\n      pop\n        /* \"#utility.yul\":25360:26247   */\n      jump(tag_428)\n        /* \"#utility.yul\":25390:26008   */\n    tag_429:\n        /* \"#utility.yul\":25442:25446   */\n      0x1f\n        /* \"#utility.yul\":25438:25447   */\n      not\n        /* \"#utility.yul\":25430:25436   */\n      dup5\n        /* \"#utility.yul\":25426:25448   */\n      and\n        /* \"#utility.yul\":25476:25513   */\n      tag_432\n        /* \"#utility.yul\":25508:25512   */\n      dup7\n        /* \"#utility.yul\":25476:25513   */\n      tag_179\n      jump\t// in\n    tag_432:\n        /* \"#utility.yul\":25535:25536   */\n      0x00\n        /* \"#utility.yul\":25549:25757   */\n    tag_433:\n        /* \"#utility.yul\":25563:25570   */\n      dup3\n        /* \"#utility.yul\":25560:25561   */\n      dup2\n        /* \"#utility.yul\":25557:25571   */\n      lt\n        /* \"#utility.yul\":25549:25757   */\n      iszero\n      tag_435\n      jumpi\n        /* \"#utility.yul\":25642:25651   */\n      dup5\n        /* \"#utility.yul\":25637:25640   */\n      dup10\n        /* \"#utility.yul\":25633:25652   */\n      add\n        /* \"#utility.yul\":25627:25653   */\n      mload\n        /* \"#utility.yul\":25619:25625   */\n      dup3\n        /* \"#utility.yul\":25612:25654   */\n      sstore\n        /* \"#utility.yul\":25693:25694   */\n      0x01\n        /* \"#utility.yul\":25685:25691   */\n      dup3\n        /* \"#utility.yul\":25681:25695   */\n      add\n        /* \"#utility.yul\":25671:25695   */\n      swap2\n      pop\n        /* \"#utility.yul\":25740:25742   */\n      0x20\n        /* \"#utility.yul\":25729:25738   */\n      dup6\n        /* \"#utility.yul\":25725:25743   */\n      add\n        /* \"#utility.yul\":25712:25743   */\n      swap5\n      pop\n        /* \"#utility.yul\":25586:25590   */\n      0x20\n        /* \"#utility.yul\":25583:25584   */\n      dup2\n        /* \"#utility.yul\":25579:25591   */\n      add\n        /* \"#utility.yul\":25574:25591   */\n      swap1\n      pop\n        /* \"#utility.yul\":25549:25757   */\n      jump(tag_433)\n    tag_435:\n        /* \"#utility.yul\":25785:25791   */\n      dup7\n        /* \"#utility.yul\":25776:25783   */\n      dup4\n        /* \"#utility.yul\":25773:25792   */\n      lt\n        /* \"#utility.yul\":25770:25949   */\n      iszero\n      tag_436\n      jumpi\n        /* \"#utility.yul\":25843:25852   */\n      dup5\n        /* \"#utility.yul\":25838:25841   */\n      dup10\n        /* \"#utility.yul\":25834:25853   */\n      add\n        /* \"#utility.yul\":25828:25854   */\n      mload\n        /* \"#utility.yul\":25886:25934   */\n      tag_437\n        /* \"#utility.yul\":25928:25932   */\n      0x1f\n        /* \"#utility.yul\":25920:25926   */\n      dup10\n        /* \"#utility.yul\":25916:25933   */\n      and\n        /* \"#utility.yul\":25905:25914   */\n      dup3\n        /* \"#utility.yul\":25886:25934   */\n      tag_198\n      jump\t// in\n    tag_437:\n        /* \"#utility.yul\":25878:25884   */\n      dup4\n        /* \"#utility.yul\":25871:25935   */\n      sstore\n        /* \"#utility.yul\":25793:25949   */\n      pop\n        /* \"#utility.yul\":25770:25949   */\n    tag_436:\n        /* \"#utility.yul\":25995:25996   */\n      0x01\n        /* \"#utility.yul\":25991:25992   */\n      0x02\n        /* \"#utility.yul\":25983:25989   */\n      dup9\n        /* \"#utility.yul\":25979:25993   */\n      mul\n        /* \"#utility.yul\":25975:25997   */\n      add\n        /* \"#utility.yul\":25969:25973   */\n      dup9\n        /* \"#utility.yul\":25962:25998   */\n      sstore\n        /* \"#utility.yul\":25397:26008   */\n      pop\n      pop\n      pop\n        /* \"#utility.yul\":25360:26247   */\n    tag_428:\n      pop\n        /* \"#utility.yul\":24950:26253   */\n      pop\n      pop\n      pop\n        /* \"#utility.yul\":24858:26253   */\n      pop\n      pop\n      jump\t// out\n\n    auxdata: 0xa2646970667358221220b868fe833f6dc6b161c7e86a6d8034ca4d7af355d97f85000b35799a239626c364736f6c63430008160033\n}\n",
				"bytecode": {
					"linkReferences": {},
					"object": "6080604052735b38da6a701c568545dcfcb03fcb875f56beddc45f806101000a81548173ffffffffffffffffffffffffffffffffffffffff021916908373ffffffffffffffffffffffffffffffffffffffff160217905550348015610062575f80fd5b50611880806100705f395ff3fe608060405260043610610049575f3560e01c8063057902be1461004d5780631653441c1461008e5780634ca079f2146100aa5780638c3ecab5146100d4578063e26034cd146100fc575b5f80fd5b348015610058575f80fd5b50610073600480360381019061006e9190610bc1565b610138565b60405161008596959493929190610c85565b60405180910390f35b6100a860048036038101906100a39190610e25565b610311565b005b3480156100b5575f80fd5b506100be6104e9565b6040516100cb9190611041565b60405180910390f35b3480156100df575f80fd5b506100fa60048036038101906100f59190611061565b610712565b005b348015610107575f80fd5b50610122600480360381019061011d919061113e565b610871565b60405161012f9190611219565b60405180910390f35b60018181548110610147575f80fd5b905f5260205f2090600602015f91509050805f01805461016690611266565b80601f016020809104026020016040519081016040528092919081815260200182805461019290611266565b80156101dd5780601f106101b4576101008083540402835291602001916101dd565b820191905f5260205f20905b8154815290600101906020018083116101c057829003601f168201915b5050505050908060010180546101f290611266565b80601f016020809104026020016040519081016040528092919081815260200182805461021e90611266565b80156102695780601f1061024057610100808354040283529160200191610269565b820191905f5260205f20905b81548152906001019060200180831161024c57829003601f168201915b50505050509080600201805461027e90611266565b80601f01602080910402602001604051908101604052809291908181526020018280546102aa90611266565b80156102f55780601f106102cc576101008083540402835291602001916102f5565b820191905f5260205f20905b8154815290600101906020018083116102d857829003601f168201915b5050505050908060030154908060040154908060050154905086565b65b5e620f4800034101561035a576040517f08c379a000000000000000000000000000000000000000000000000000000000815260040161035190611306565b60405180910390fd5b5f5b6001805490508110156104a9578260405160200161037a919061135e565b60405160208183030381529060405280519060200120600182815481106103a4576103a3611374565b5b905f5260205f2090600602015f016040516020016103c29190611433565b604051602081830303815290604052805190602001200361049c5734600182815481106103f2576103f1611374565b5b905f5260205f2090600602016003015f82825461040f9190611476565b92505081905550733328358128832a260c76a4141e19e2a943cd4b6d73ffffffffffffffffffffffffffffffffffffffff1663a7113c50848434426040518563ffffffff1660e01b815260040161046994939291906114a9565b5f604051808303815f87803b158015610480575f80fd5b505af1158015610492573d5f803e3d5ffd5b50505050506104e5565b808060010191505061035c565b506040517f08c379a00000000000000000000000000000000000000000000000000000000081526004016104dc90611544565b60405180910390fd5b5050565b60606001805480602002602001604051908101604052809291908181526020015f905b82821015610709578382905f5260205f2090600602016040518060c00160405290815f8201805461053c90611266565b80601f016020809104026020016040519081016040528092919081815260200182805461056890611266565b80156105b35780601f1061058a576101008083540402835291602001916105b3565b820191905f5260205f20905b81548152906001019060200180831161059657829003601f168201915b505050505081526020016001820180546105cc90611266565b80601f01602080910402602001604051908101604052809291908181526020018280546105f890611266565b80156106435780601f1061061a57610100808354040283529160200191610643565b820191905f5260205f20905b81548152906001019060200180831161062657829003601f168201915b5050505050815260200160028201805461065c90611266565b80601f016020809104026020016040519081016040528092919081815260200182805461068890611266565b80156106d35780601f106106aa576101008083540402835291602001916106d3565b820191905f5260205f20905b8154815290600101906020018083116106b657829003601f168201915b5050505050815260200160038201548152602001600482015481526020016005820154815250508152602001906001019061050c565b50505050905090565b5f8054906101000a900473ffffffffffffffffffffffffffffffffffffffff1673ffffffffffffffffffffffffffffffffffffffff163373ffffffffffffffffffffffffffffffffffffffff161461079f576040517f08c379a0000000000000000000000000000000000000000000000000000000008152600401610796906115d2565b60405180910390fd5b6107a7610b4a565b86815f01819052508581602001819052508481604001819052508281608001818152505083816060018181525050818160a0018181525050600181908060018154018082558091505060019003905f5260205f2090600602015f909190919091505f820151815f01908161081b919061177b565b506020820151816001019081610831919061177b565b506040820151816002019081610847919061177b565b50606082015181600301556080820151816004015560a08201518160050155505050505050505050565b610879610b4a565b5f5b600180549050811015610b095782604051602001610899919061135e565b60405160208183030381529060405280519060200120600182815481106108c3576108c2611374565b5b905f5260205f2090600602015f016040516020016108e19190611433565b6040516020818303038152906040528051906020012003610afc57600181815481106109105761090f611374565b5b905f5260205f2090600602016040518060c00160405290815f8201805461093690611266565b80601f016020809104026020016040519081016040528092919081815260200182805461096290611266565b80156109ad5780601f10610984576101008083540402835291602001916109ad565b820191905f5260205f20905b81548152906001019060200180831161099057829003601f168201915b505050505081526020016001820180546109c690611266565b80601f01602080910402602001604051908101604052809291908181526020018280546109f290611266565b8015610a3d5780601f10610a1457610100808354040283529160200191610a3d565b820191905f5260205f20905b815481529060010190602001808311610a2057829003601f168201915b50505050508152602001600282018054610a5690611266565b80601f0160208091040260200160405190810160405280929190818152602001828054610a8290611266565b8015610acd5780601f10610aa457610100808354040283529160200191610acd565b820191905f5260205f20905b815481529060010190602001808311610ab057829003601f168201915b505050505081526020016003820154815260200160048201548152602001600582015481525050915050610b45565b808060010191505061087b565b506040517f08c379a0000000000000000000000000000000000000000000000000000000008152600401610b3c90611544565b60405180910390fd5b919050565b6040518060c001604052806060815260200160608152602001606081526020015f81526020015f81526020015f81525090565b5f604051905090565b5f80fd5b5f80fd5b5f819050919050565b610ba081610b8e565b8114610baa575f80fd5b50565b5f81359050610bbb81610b97565b92915050565b5f60208284031215610bd657610bd5610b86565b5b5f610be384828501610bad565b91505092915050565b5f81519050919050565b5f82825260208201905092915050565b5f5b83811015610c23578082015181840152602081019050610c08565b5f8484015250505050565b5f601f19601f8301169050919050565b5f610c4882610bec565b610c528185610bf6565b9350610c62818560208601610c06565b610c6b81610c2e565b840191505092915050565b610c7f81610b8e565b82525050565b5f60c0820190508181035f830152610c9d8189610c3e565b90508181036020830152610cb18188610c3e565b90508181036040830152610cc58187610c3e565b9050610cd46060830186610c76565b610ce16080830185610c76565b610cee60a0830184610c76565b979650505050505050565b5f80fd5b5f80fd5b7f4e487b71000000000000000000000000000000000000000000000000000000005f52604160045260245ffd5b610d3782610c2e565b810181811067ffffffffffffffff82111715610d5657610d55610d01565b5b80604052505050565b5f610d68610b7d565b9050610d748282610d2e565b919050565b5f67ffffffffffffffff821115610d9357610d92610d01565b5b610d9c82610c2e565b9050602081019050919050565b828183375f83830152505050565b5f610dc9610dc484610d79565b610d5f565b905082815260208101848484011115610de557610de4610cfd565b5b610df0848285610da9565b509392505050565b5f82601f830112610e0c57610e0b610cf9565b5b8135610e1c848260208601610db7565b91505092915050565b5f8060408385031215610e3b57610e3a610b86565b5b5f83013567ffffffffffffffff811115610e5857610e57610b8a565b5b610e6485828601610df8565b925050602083013567ffffffffffffffff811115610e8557610e84610b8a565b5b610e9185828601610df8565b9150509250929050565b5f81519050919050565b5f82825260208201905092915050565b5f819050602082019050919050565b5f82825260208201905092915050565b5f610ede82610bec565b610ee88185610ec4565b9350610ef8818560208601610c06565b610f0181610c2e565b840191505092915050565b610f1581610b8e565b82525050565b5f60c083015f8301518482035f860152610f358282610ed4565b91505060208301518482036020860152610f4f8282610ed4565b91505060408301518482036040860152610f698282610ed4565b9150506060830151610f7e6060860182610f0c565b506080830151610f916080860182610f0c565b5060a0830151610fa460a0860182610f0c565b508091505092915050565b5f610fba8383610f1b565b905092915050565b5f602082019050919050565b5f610fd882610e9b565b610fe28185610ea5565b935083602082028501610ff485610eb5565b805f5b8581101561102f57848403895281516110108582610faf565b945061101b83610fc2565b925060208a01995050600181019050610ff7565b50829750879550505050505092915050565b5f6020820190508181035f8301526110598184610fce565b905092915050565b5f805f805f8060c0878903121561107b5761107a610b86565b5b5f87013567ffffffffffffffff81111561109857611097610b8a565b5b6110a489828a01610df8565b965050602087013567ffffffffffffffff8111156110c5576110c4610b8a565b5b6110d189828a01610df8565b955050604087013567ffffffffffffffff8111156110f2576110f1610b8a565b5b6110fe89828a01610df8565b945050606061110f89828a01610bad565b935050608061112089828a01610bad565b92505060a061113189828a01610bad565b9150509295509295509295565b5f6020828403121561115357611152610b86565b5b5f82013567ffffffffffffffff8111156111705761116f610b8a565b5b61117c84828501610df8565b91505092915050565b5f60c083015f8301518482035f86015261119f8282610ed4565b915050602083015184820360208601526111b98282610ed4565b915050604083015184820360408601526111d38282610ed4565b91505060608301516111e86060860182610f0c565b5060808301516111fb6080860182610f0c565b5060a083015161120e60a0860182610f0c565b508091505092915050565b5f6020820190508181035f8301526112318184611185565b905092915050565b7f4e487b71000000000000000000000000000000000000000000000000000000005f52602260045260245ffd5b5f600282049050600182168061127d57607f821691505b6020821081036112905761128f611239565b5b50919050565b7f56616c7565206d75737420626520302e3030303220455448206f722061626f765f8201527f6500000000000000000000000000000000000000000000000000000000000000602082015250565b5f6112f0602183610bf6565b91506112fb82611296565b604082019050919050565b5f6020820190508181035f83015261131d816112e4565b9050919050565b5f81905092915050565b5f61133882610bec565b6113428185611324565b9350611352818560208601610c06565b80840191505092915050565b5f611369828461132e565b915081905092915050565b7f4e487b71000000000000000000000000000000000000000000000000000000005f52603260045260245ffd5b5f819050815f5260205f209050919050565b5f81546113bf81611266565b6113c98186611324565b9450600182165f81146113e357600181146113f85761142a565b60ff198316865281151582028601935061142a565b611401856113a1565b5f5b8381101561142257815481890152600182019150602081019050611403565b838801955050505b50505092915050565b5f61143e82846113b3565b915081905092915050565b7f4e487b71000000000000000000000000000000000000000000000000000000005f52601160045260245ffd5b5f61148082610b8e565b915061148b83610b8e565b92508282019050808211156114a3576114a2611449565b5b92915050565b5f6080820190508181035f8301526114c18187610c3e565b905081810360208301526114d58186610c3e565b90506114e46040830185610c76565b6114f16060830184610c76565b95945050505050565b7f4e6f7420666f756e6400000000000000000000000000000000000000000000005f82015250565b5f61152e600983610bf6565b9150611539826114fa565b602082019050919050565b5f6020820190508181035f83015261155b81611522565b9050919050565b7f4f6e6c792061646d696e2063616e2063616c6c20746869732066756e6374696f5f8201527f6e00000000000000000000000000000000000000000000000000000000000000602082015250565b5f6115bc602183610bf6565b91506115c782611562565b604082019050919050565b5f6020820190508181035f8301526115e9816115b0565b9050919050565b5f6020601f8301049050919050565b5f82821b905092915050565b5f6008830261163a7fffffffffffffffffffffffffffffffffffffffffffffffffffffffffffffffff826115ff565b61164486836115ff565b95508019841693508086168417925050509392505050565b5f819050919050565b5f61167f61167a61167584610b8e565b61165c565b610b8e565b9050919050565b5f819050919050565b61169883611665565b6116ac6116a482611686565b84845461160b565b825550505050565b5f90565b6116c06116b4565b6116cb81848461168f565b505050565b5b818110156116ee576116e35f826116b8565b6001810190506116d1565b5050565b601f82111561173357611704816113a1565b61170d846115f0565b8101602085101561171c578190505b611730611728856115f0565b8301826116d0565b50505b505050565b5f82821c905092915050565b5f6117535f1984600802611738565b1980831691505092915050565b5f61176b8383611744565b9150826002028217905092915050565b61178482610bec565b67ffffffffffffffff81111561179d5761179c610d01565b5b6117a78254611266565b6117b28282856116f2565b5f60209050601f8311600181146117e3575f84156117d1578287015190505b6117db8582611760565b865550611842565b601f1984166117f1866113a1565b5f5b82811015611818578489015182556001820191506020850194506020810190506117f3565b868310156118355784890151611831601f891682611744565b8355505b6001600288020188555050505b50505050505056fea2646970667358221220b868fe833f6dc6b161c7e86a6d8034ca4d7af355d97f85000b35799a239626c364736f6c63430008160033",
					"opcodes": "PUSH1 0x80 PUSH1 0x40 MSTORE PUSH20 0x5B38DA6A701C568545DCFCB03FCB875F56BEDDC4 PUSH0 DUP1 PUSH2 0x100 EXP DUP2 SLOAD DUP2 PUSH20 0xFFFFFFFFFFFFFFFFFFFFFFFFFFFFFFFFFFFFFFFF MUL NOT AND SWAP1 DUP4 PUSH20 0xFFFFFFFFFFFFFFFFFFFFFFFFFFFFFFFFFFFFFFFF AND MUL OR SWAP1 SSTORE POP CALLVALUE DUP1 ISZERO PUSH2 0x62 JUMPI PUSH0 DUP1 REVERT JUMPDEST POP PUSH2 0x1880 DUP1 PUSH2 0x70 PUSH0 CODECOPY PUSH0 RETURN INVALID PUSH1 0x80 PUSH1 0x40 MSTORE PUSH1 0x4 CALLDATASIZE LT PUSH2 0x49 JUMPI PUSH0 CALLDATALOAD PUSH1 0xE0 SHR DUP1 PUSH4 0x57902BE EQ PUSH2 0x4D JUMPI DUP1 PUSH4 0x1653441C EQ PUSH2 0x8E JUMPI DUP1 PUSH4 0x4CA079F2 EQ PUSH2 0xAA JUMPI DUP1 PUSH4 0x8C3ECAB5 EQ PUSH2 0xD4 JUMPI DUP1 PUSH4 0xE26034CD EQ PUSH2 0xFC JUMPI JUMPDEST PUSH0 DUP1 REVERT JUMPDEST CALLVALUE DUP1 ISZERO PUSH2 0x58 JUMPI PUSH0 DUP1 REVERT JUMPDEST POP PUSH2 0x73 PUSH1 0x4 DUP1 CALLDATASIZE SUB DUP2 ADD SWAP1 PUSH2 0x6E SWAP2 SWAP1 PUSH2 0xBC1 JUMP JUMPDEST PUSH2 0x138 JUMP JUMPDEST PUSH1 0x40 MLOAD PUSH2 0x85 SWAP7 SWAP6 SWAP5 SWAP4 SWAP3 SWAP2 SWAP1 PUSH2 0xC85 JUMP JUMPDEST PUSH1 0x40 MLOAD DUP1 SWAP2 SUB SWAP1 RETURN JUMPDEST PUSH2 0xA8 PUSH1 0x4 DUP1 CALLDATASIZE SUB DUP2 ADD SWAP1 PUSH2 0xA3 SWAP2 SWAP1 PUSH2 0xE25 JUMP JUMPDEST PUSH2 0x311 JUMP JUMPDEST STOP JUMPDEST CALLVALUE DUP1 ISZERO PUSH2 0xB5 JUMPI PUSH0 DUP1 REVERT JUMPDEST POP PUSH2 0xBE PUSH2 0x4E9 JUMP JUMPDEST PUSH1 0x40 MLOAD PUSH2 0xCB SWAP2 SWAP1 PUSH2 0x1041 JUMP JUMPDEST PUSH1 0x40 MLOAD DUP1 SWAP2 SUB SWAP1 RETURN JUMPDEST CALLVALUE DUP1 ISZERO PUSH2 0xDF JUMPI PUSH0 DUP1 REVERT JUMPDEST POP PUSH2 0xFA PUSH1 0x4 DUP1 CALLDATASIZE SUB DUP2 ADD SWAP1 PUSH2 0xF5 SWAP2 SWAP1 PUSH2 0x1061 JUMP JUMPDEST PUSH2 0x712 JUMP JUMPDEST STOP JUMPDEST CALLVALUE DUP1 ISZERO PUSH2 0x107 JUMPI PUSH0 DUP1 REVERT JUMPDEST POP PUSH2 0x122 PUSH1 0x4 DUP1 CALLDATASIZE SUB DUP2 ADD SWAP1 PUSH2 0x11D SWAP2 SWAP1 PUSH2 0x113E JUMP JUMPDEST PUSH2 0x871 JUMP JUMPDEST PUSH1 0x40 MLOAD PUSH2 0x12F SWAP2 SWAP1 PUSH2 0x1219 JUMP JUMPDEST PUSH1 0x40 MLOAD DUP1 SWAP2 SUB SWAP1 RETURN JUMPDEST PUSH1 0x1 DUP2 DUP2 SLOAD DUP2 LT PUSH2 0x147 JUMPI PUSH0 DUP1 REVERT JUMPDEST SWAP1 PUSH0 MSTORE PUSH1 0x20 PUSH0 KECCAK256 SWAP1 PUSH1 0x6 MUL ADD PUSH0 SWAP2 POP SWAP1 POP DUP1 PUSH0 ADD DUP1 SLOAD PUSH2 0x166 SWAP1 PUSH2 0x1266 JUMP JUMPDEST DUP1 PUSH1 0x1F ADD PUSH1 0x20 DUP1 SWAP2 DIV MUL PUSH1 0x20 ADD PUSH1 0x40 MLOAD SWAP1 DUP2 ADD PUSH1 0x40 MSTORE DUP1 SWAP3 SWAP2 SWAP1 DUP2 DUP2 MSTORE PUSH1 0x20 ADD DUP3 DUP1 SLOAD PUSH2 0x192 SWAP1 PUSH2 0x1266 JUMP JUMPDEST DUP1 ISZERO PUSH2 0x1DD JUMPI DUP1 PUSH1 0x1F LT PUSH2 0x1B4 JUMPI PUSH2 0x100 DUP1 DUP4 SLOAD DIV MUL DUP4 MSTORE SWAP2 PUSH1 0x20 ADD SWAP2 PUSH2 0x1DD JUMP JUMPDEST DUP3 ADD SWAP2 SWAP1 PUSH0 MSTORE PUSH1 0x20 PUSH0 KECCAK256 SWAP1 JUMPDEST DUP2 SLOAD DUP2 MSTORE SWAP1 PUSH1 0x1 ADD SWAP1 PUSH1 0x20 ADD DUP1 DUP4 GT PUSH2 0x1C0 JUMPI DUP3 SWAP1 SUB PUSH1 0x1F AND DUP3 ADD SWAP2 JUMPDEST POP POP POP POP POP SWAP1 DUP1 PUSH1 0x1 ADD DUP1 SLOAD PUSH2 0x1F2 SWAP1 PUSH2 0x1266 JUMP JUMPDEST DUP1 PUSH1 0x1F ADD PUSH1 0x20 DUP1 SWAP2 DIV MUL PUSH1 0x20 ADD PUSH1 0x40 MLOAD SWAP1 DUP2 ADD PUSH1 0x40 MSTORE DUP1 SWAP3 SWAP2 SWAP1 DUP2 DUP2 MSTORE PUSH1 0x20 ADD DUP3 DUP1 SLOAD PUSH2 0x21E SWAP1 PUSH2 0x1266 JUMP JUMPDEST DUP1 ISZERO PUSH2 0x269 JUMPI DUP1 PUSH1 0x1F LT PUSH2 0x240 JUMPI PUSH2 0x100 DUP1 DUP4 SLOAD DIV MUL DUP4 MSTORE SWAP2 PUSH1 0x20 ADD SWAP2 PUSH2 0x269 JUMP JUMPDEST DUP3 ADD SWAP2 SWAP1 PUSH0 MSTORE PUSH1 0x20 PUSH0 KECCAK256 SWAP1 JUMPDEST DUP2 SLOAD DUP2 MSTORE SWAP1 PUSH1 0x1 ADD SWAP1 PUSH1 0x20 ADD DUP1 DUP4 GT PUSH2 0x24C JUMPI DUP3 SWAP1 SUB PUSH1 0x1F AND DUP3 ADD SWAP2 JUMPDEST POP POP POP POP POP SWAP1 DUP1 PUSH1 0x2 ADD DUP1 SLOAD PUSH2 0x27E SWAP1 PUSH2 0x1266 JUMP JUMPDEST DUP1 PUSH1 0x1F ADD PUSH1 0x20 DUP1 SWAP2 DIV MUL PUSH1 0x20 ADD PUSH1 0x40 MLOAD SWAP1 DUP2 ADD PUSH1 0x40 MSTORE DUP1 SWAP3 SWAP2 SWAP1 DUP2 DUP2 MSTORE PUSH1 0x20 ADD DUP3 DUP1 SLOAD PUSH2 0x2AA SWAP1 PUSH2 0x1266 JUMP JUMPDEST DUP1 ISZERO PUSH2 0x2F5 JUMPI DUP1 PUSH1 0x1F LT PUSH2 0x2CC JUMPI PUSH2 0x100 DUP1 DUP4 SLOAD DIV MUL DUP4 MSTORE SWAP2 PUSH1 0x20 ADD SWAP2 PUSH2 0x2F5 JUMP JUMPDEST DUP3 ADD SWAP2 SWAP1 PUSH0 MSTORE PUSH1 0x20 PUSH0 KECCAK256 SWAP1 JUMPDEST DUP2 SLOAD DUP2 MSTORE SWAP1 PUSH1 0x1 ADD SWAP1 PUSH1 0x20 ADD DUP1 DUP4 GT PUSH2 0x2D8 JUMPI DUP3 SWAP1 SUB PUSH1 0x1F AND DUP3 ADD SWAP2 JUMPDEST POP POP POP POP POP SWAP1 DUP1 PUSH1 0x3 ADD SLOAD SWAP1 DUP1 PUSH1 0x4 ADD SLOAD SWAP1 DUP1 PUSH1 0x5 ADD SLOAD SWAP1 POP DUP7 JUMP JUMPDEST PUSH6 0xB5E620F48000 CALLVALUE LT ISZERO PUSH2 0x35A JUMPI PUSH1 0x40 MLOAD PUSH32 0x8C379A000000000000000000000000000000000000000000000000000000000 DUP2 MSTORE PUSH1 0x4 ADD PUSH2 0x351 SWAP1 PUSH2 0x1306 JUMP JUMPDEST PUSH1 0x40 MLOAD DUP1 SWAP2 SUB SWAP1 REVERT JUMPDEST PUSH0 JUMPDEST PUSH1 0x1 DUP1 SLOAD SWAP1 POP DUP2 LT ISZERO PUSH2 0x4A9 JUMPI DUP3 PUSH1 0x40 MLOAD PUSH1 0x20 ADD PUSH2 0x37A SWAP2 SWAP1 PUSH2 0x135E JUMP JUMPDEST PUSH1 0x40 MLOAD PUSH1 0x20 DUP2 DUP4 SUB SUB DUP2 MSTORE SWAP1 PUSH1 0x40 MSTORE DUP1 MLOAD SWAP1 PUSH1 0x20 ADD KECCAK256 PUSH1 0x1 DUP3 DUP2 SLOAD DUP2 LT PUSH2 0x3A4 JUMPI PUSH2 0x3A3 PUSH2 0x1374 JUMP JUMPDEST JUMPDEST SWAP1 PUSH0 MSTORE PUSH1 0x20 PUSH0 KECCAK256 SWAP1 PUSH1 0x6 MUL ADD PUSH0 ADD PUSH1 0x40 MLOAD PUSH1 0x20 ADD PUSH2 0x3C2 SWAP2 SWAP1 PUSH2 0x1433 JUMP JUMPDEST PUSH1 0x40 MLOAD PUSH1 0x20 DUP2 DUP4 SUB SUB DUP2 MSTORE SWAP1 PUSH1 0x40 MSTORE DUP1 MLOAD SWAP1 PUSH1 0x20 ADD KECCAK256 SUB PUSH2 0x49C JUMPI CALLVALUE PUSH1 0x1 DUP3 DUP2 SLOAD DUP2 LT PUSH2 0x3F2 JUMPI PUSH2 0x3F1 PUSH2 0x1374 JUMP JUMPDEST JUMPDEST SWAP1 PUSH0 MSTORE PUSH1 0x20 PUSH0 KECCAK256 SWAP1 PUSH1 0x6 MUL ADD PUSH1 0x3 ADD PUSH0 DUP3 DUP3 SLOAD PUSH2 0x40F SWAP2 SWAP1 PUSH2 0x1476 JUMP JUMPDEST SWAP3 POP POP DUP2 SWAP1 SSTORE POP PUSH20 0x3328358128832A260C76A4141E19E2A943CD4B6D PUSH20 0xFFFFFFFFFFFFFFFFFFFFFFFFFFFFFFFFFFFFFFFF AND PUSH4 0xA7113C50 DUP5 DUP5 CALLVALUE TIMESTAMP PUSH1 0x40 MLOAD DUP6 PUSH4 0xFFFFFFFF AND PUSH1 0xE0 SHL DUP2 MSTORE PUSH1 0x4 ADD PUSH2 0x469 SWAP5 SWAP4 SWAP3 SWAP2 SWAP1 PUSH2 0x14A9 JUMP JUMPDEST PUSH0 PUSH1 0x40 MLOAD DUP1 DUP4 SUB DUP2 PUSH0 DUP8 DUP1 EXTCODESIZE ISZERO DUP1 ISZERO PUSH2 0x480 JUMPI PUSH0 DUP1 REVERT JUMPDEST POP GAS CALL ISZERO DUP1 ISZERO PUSH2 0x492 JUMPI RETURNDATASIZE PUSH0 DUP1 RETURNDATACOPY RETURNDATASIZE PUSH0 REVERT JUMPDEST POP POP POP POP POP PUSH2 0x4E5 JUMP JUMPDEST DUP1 DUP1 PUSH1 0x1 ADD SWAP2 POP POP PUSH2 0x35C JUMP JUMPDEST POP PUSH1 0x40 MLOAD PUSH32 0x8C379A000000000000000000000000000000000000000000000000000000000 DUP2 MSTORE PUSH1 0x4 ADD PUSH2 0x4DC SWAP1 PUSH2 0x1544 JUMP JUMPDEST PUSH1 0x40 MLOAD DUP1 SWAP2 SUB SWAP1 REVERT JUMPDEST POP POP JUMP JUMPDEST PUSH1 0x60 PUSH1 0x1 DUP1 SLOAD DUP1 PUSH1 0x20 MUL PUSH1 0x20 ADD PUSH1 0x40 MLOAD SWAP1 DUP2 ADD PUSH1 0x40 MSTORE DUP1 SWAP3 SWAP2 SWAP1 DUP2 DUP2 MSTORE PUSH1 0x20 ADD PUSH0 SWAP1 JUMPDEST DUP3 DUP3 LT ISZERO PUSH2 0x709 JUMPI DUP4 DUP3 SWAP1 PUSH0 MSTORE PUSH1 0x20 PUSH0 KECCAK256 SWAP1 PUSH1 0x6 MUL ADD PUSH1 0x40 MLOAD DUP1 PUSH1 0xC0 ADD PUSH1 0x40 MSTORE SWAP1 DUP2 PUSH0 DUP3 ADD DUP1 SLOAD PUSH2 0x53C SWAP1 PUSH2 0x1266 JUMP JUMPDEST DUP1 PUSH1 0x1F ADD PUSH1 0x20 DUP1 SWAP2 DIV MUL PUSH1 0x20 ADD PUSH1 0x40 MLOAD SWAP1 DUP2 ADD PUSH1 0x40 MSTORE DUP1 SWAP3 SWAP2 SWAP1 DUP2 DUP2 MSTORE PUSH1 0x20 ADD DUP3 DUP1 SLOAD PUSH2 0x568 SWAP1 PUSH2 0x1266 JUMP JUMPDEST DUP1 ISZERO PUSH2 0x5B3 JUMPI DUP1 PUSH1 0x1F LT PUSH2 0x58A JUMPI PUSH2 0x100 DUP1 DUP4 SLOAD DIV MUL DUP4 MSTORE SWAP2 PUSH1 0x20 ADD SWAP2 PUSH2 0x5B3 JUMP JUMPDEST DUP3 ADD SWAP2 SWAP1 PUSH0 MSTORE PUSH1 0x20 PUSH0 KECCAK256 SWAP1 JUMPDEST DUP2 SLOAD DUP2 MSTORE SWAP1 PUSH1 0x1 ADD SWAP1 PUSH1 0x20 ADD DUP1 DUP4 GT PUSH2 0x596 JUMPI DUP3 SWAP1 SUB PUSH1 0x1F AND DUP3 ADD SWAP2 JUMPDEST POP POP POP POP POP DUP2 MSTORE PUSH1 0x20 ADD PUSH1 0x1 DUP3 ADD DUP1 SLOAD PUSH2 0x5CC SWAP1 PUSH2 0x1266 JUMP JUMPDEST DUP1 PUSH1 0x1F ADD PUSH1 0x20 DUP1 SWAP2 DIV MUL PUSH1 0x20 ADD PUSH1 0x40 MLOAD SWAP1 DUP2 ADD PUSH1 0x40 MSTORE DUP1 SWAP3 SWAP2 SWAP1 DUP2 DUP2 MSTORE PUSH1 0x20 ADD DUP3 DUP1 SLOAD PUSH2 0x5F8 SWAP1 PUSH2 0x1266 JUMP JUMPDEST DUP1 ISZERO PUSH2 0x643 JUMPI DUP1 PUSH1 0x1F LT PUSH2 0x61A JUMPI PUSH2 0x100 DUP1 DUP4 SLOAD DIV MUL DUP4 MSTORE SWAP2 PUSH1 0x20 ADD SWAP2 PUSH2 0x643 JUMP JUMPDEST DUP3 ADD SWAP2 SWAP1 PUSH0 MSTORE PUSH1 0x20 PUSH0 KECCAK256 SWAP1 JUMPDEST DUP2 SLOAD DUP2 MSTORE SWAP1 PUSH1 0x1 ADD SWAP1 PUSH1 0x20 ADD DUP1 DUP4 GT PUSH2 0x626 JUMPI DUP3 SWAP1 SUB PUSH1 0x1F AND DUP3 ADD SWAP2 JUMPDEST POP POP POP POP POP DUP2 MSTORE PUSH1 0x20 ADD PUSH1 0x2 DUP3 ADD DUP1 SLOAD PUSH2 0x65C SWAP1 PUSH2 0x1266 JUMP JUMPDEST DUP1 PUSH1 0x1F ADD PUSH1 0x20 DUP1 SWAP2 DIV MUL PUSH1 0x20 ADD PUSH1 0x40 MLOAD SWAP1 DUP2 ADD PUSH1 0x40 MSTORE DUP1 SWAP3 SWAP2 SWAP1 DUP2 DUP2 MSTORE PUSH1 0x20 ADD DUP3 DUP1 SLOAD PUSH2 0x688 SWAP1 PUSH2 0x1266 JUMP JUMPDEST DUP1 ISZERO PUSH2 0x6D3 JUMPI DUP1 PUSH1 0x1F LT PUSH2 0x6AA JUMPI PUSH2 0x100 DUP1 DUP4 SLOAD DIV MUL DUP4 MSTORE SWAP2 PUSH1 0x20 ADD SWAP2 PUSH2 0x6D3 JUMP JUMPDEST DUP3 ADD SWAP2 SWAP1 PUSH0 MSTORE PUSH1 0x20 PUSH0 KECCAK256 SWAP1 JUMPDEST DUP2 SLOAD DUP2 MSTORE SWAP1 PUSH1 0x1 ADD SWAP1 PUSH1 0x20 ADD DUP1 DUP4 GT PUSH2 0x6B6 JUMPI DUP3 SWAP1 SUB PUSH1 0x1F AND DUP3 ADD SWAP2 JUMPDEST POP POP POP POP POP DUP2 MSTORE PUSH1 0x20 ADD PUSH1 0x3 DUP3 ADD SLOAD DUP2 MSTORE PUSH1 0x20 ADD PUSH1 0x4 DUP3 ADD SLOAD DUP2 MSTORE PUSH1 0x20 ADD PUSH1 0x5 DUP3 ADD SLOAD DUP2 MSTORE POP POP DUP2 MSTORE PUSH1 0x20 ADD SWAP1 PUSH1 0x1 ADD SWAP1 PUSH2 0x50C JUMP JUMPDEST POP POP POP POP SWAP1 POP SWAP1 JUMP JUMPDEST PUSH0 DUP1 SLOAD SWAP1 PUSH2 0x100 EXP SWAP1 DIV PUSH20 0xFFFFFFFFFFFFFFFFFFFFFFFFFFFFFFFFFFFFFFFF AND PUSH20 0xFFFFFFFFFFFFFFFFFFFFFFFFFFFFFFFFFFFFFFFF AND CALLER PUSH20 0xFFFFFFFFFFFFFFFFFFFFFFFFFFFFFFFFFFFFFFFF AND EQ PUSH2 0x79F JUMPI PUSH1 0x40 MLOAD PUSH32 0x8C379A000000000000000000000000000000000000000000000000000000000 DUP2 MSTORE PUSH1 0x4 ADD PUSH2 0x796 SWAP1 PUSH2 0x15D2 JUMP JUMPDEST PUSH1 0x40 MLOAD DUP1 SWAP2 SUB SWAP1 REVERT JUMPDEST PUSH2 0x7A7 PUSH2 0xB4A JUMP JUMPDEST DUP7 DUP2 PUSH0 ADD DUP2 SWAP1 MSTORE POP DUP6 DUP2 PUSH1 0x20 ADD DUP2 SWAP1 MSTORE POP DUP5 DUP2 PUSH1 0x40 ADD DUP2 SWAP1 MSTORE POP DUP3 DUP2 PUSH1 0x80 ADD DUP2 DUP2 MSTORE POP POP DUP4 DUP2 PUSH1 0x60 ADD DUP2 DUP2 MSTORE POP POP DUP2 DUP2 PUSH1 0xA0 ADD DUP2 DUP2 MSTORE POP POP PUSH1 0x1 DUP2 SWAP1 DUP1 PUSH1 0x1 DUP2 SLOAD ADD DUP1 DUP3 SSTORE DUP1 SWAP2 POP POP PUSH1 0x1 SWAP1 SUB SWAP1 PUSH0 MSTORE PUSH1 0x20 PUSH0 KECCAK256 SWAP1 PUSH1 0x6 MUL ADD PUSH0 SWAP1 SWAP2 SWAP1 SWAP2 SWAP1 SWAP2 POP PUSH0 DUP3 ADD MLOAD DUP2 PUSH0 ADD SWAP1 DUP2 PUSH2 0x81B SWAP2 SWAP1 PUSH2 0x177B JUMP JUMPDEST POP PUSH1 0x20 DUP3 ADD MLOAD DUP2 PUSH1 0x1 ADD SWAP1 DUP2 PUSH2 0x831 SWAP2 SWAP1 PUSH2 0x177B JUMP JUMPDEST POP PUSH1 0x40 DUP3 ADD MLOAD DUP2 PUSH1 0x2 ADD SWAP1 DUP2 PUSH2 0x847 SWAP2 SWAP1 PUSH2 0x177B JUMP JUMPDEST POP PUSH1 0x60 DUP3 ADD MLOAD DUP2 PUSH1 0x3 ADD SSTORE PUSH1 0x80 DUP3 ADD MLOAD DUP2 PUSH1 0x4 ADD SSTORE PUSH1 0xA0 DUP3 ADD MLOAD DUP2 PUSH1 0x5 ADD SSTORE POP POP POP POP POP POP POP POP POP JUMP JUMPDEST PUSH2 0x879 PUSH2 0xB4A JUMP JUMPDEST PUSH0 JUMPDEST PUSH1 0x1 DUP1 SLOAD SWAP1 POP DUP2 LT ISZERO PUSH2 0xB09 JUMPI DUP3 PUSH1 0x40 MLOAD PUSH1 0x20 ADD PUSH2 0x899 SWAP2 SWAP1 PUSH2 0x135E JUMP JUMPDEST PUSH1 0x40 MLOAD PUSH1 0x20 DUP2 DUP4 SUB SUB DUP2 MSTORE SWAP1 PUSH1 0x40 MSTORE DUP1 MLOAD SWAP1 PUSH1 0x20 ADD KECCAK256 PUSH1 0x1 DUP3 DUP2 SLOAD DUP2 LT PUSH2 0x8C3 JUMPI PUSH2 0x8C2 PUSH2 0x1374 JUMP JUMPDEST JUMPDEST SWAP1 PUSH0 MSTORE PUSH1 0x20 PUSH0 KECCAK256 SWAP1 PUSH1 0x6 MUL ADD PUSH0 ADD PUSH1 0x40 MLOAD PUSH1 0x20 ADD PUSH2 0x8E1 SWAP2 SWAP1 PUSH2 0x1433 JUMP JUMPDEST PUSH1 0x40 MLOAD PUSH1 0x20 DUP2 DUP4 SUB SUB DUP2 MSTORE SWAP1 PUSH1 0x40 MSTORE DUP1 MLOAD SWAP1 PUSH1 0x20 ADD KECCAK256 SUB PUSH2 0xAFC JUMPI PUSH1 0x1 DUP2 DUP2 SLOAD DUP2 LT PUSH2 0x910 JUMPI PUSH2 0x90F PUSH2 0x1374 JUMP JUMPDEST JUMPDEST SWAP1 PUSH0 MSTORE PUSH1 0x20 PUSH0 KECCAK256 SWAP1 PUSH1 0x6 MUL ADD PUSH1 0x40 MLOAD DUP1 PUSH1 0xC0 ADD PUSH1 0x40 MSTORE SWAP1 DUP2 PUSH0 DUP3 ADD DUP1 SLOAD PUSH2 0x936 SWAP1 PUSH2 0x1266 JUMP JUMPDEST DUP1 PUSH1 0x1F ADD PUSH1 0x20 DUP1 SWAP2 DIV MUL PUSH1 0x20 ADD PUSH1 0x40 MLOAD SWAP1 DUP2 ADD PUSH1 0x40 MSTORE DUP1 SWAP3 SWAP2 SWAP1 DUP2 DUP2 MSTORE PUSH1 0x20 ADD DUP3 DUP1 SLOAD PUSH2 0x962 SWAP1 PUSH2 0x1266 JUMP JUMPDEST DUP1 ISZERO PUSH2 0x9AD JUMPI DUP1 PUSH1 0x1F LT PUSH2 0x984 JUMPI PUSH2 0x100 DUP1 DUP4 SLOAD DIV MUL DUP4 MSTORE SWAP2 PUSH1 0x20 ADD SWAP2 PUSH2 0x9AD JUMP JUMPDEST DUP3 ADD SWAP2 SWAP1 PUSH0 MSTORE PUSH1 0x20 PUSH0 KECCAK256 SWAP1 JUMPDEST DUP2 SLOAD DUP2 MSTORE SWAP1 PUSH1 0x1 ADD SWAP1 PUSH1 0x20 ADD DUP1 DUP4 GT PUSH2 0x990 JUMPI DUP3 SWAP1 SUB PUSH1 0x1F AND DUP3 ADD SWAP2 JUMPDEST POP POP POP POP POP DUP2 MSTORE PUSH1 0x20 ADD PUSH1 0x1 DUP3 ADD DUP1 SLOAD PUSH2 0x9C6 SWAP1 PUSH2 0x1266 JUMP JUMPDEST DUP1 PUSH1 0x1F ADD PUSH1 0x20 DUP1 SWAP2 DIV MUL PUSH1 0x20 ADD PUSH1 0x40 MLOAD SWAP1 DUP2 ADD PUSH1 0x40 MSTORE DUP1 SWAP3 SWAP2 SWAP1 DUP2 DUP2 MSTORE PUSH1 0x20 ADD DUP3 DUP1 SLOAD PUSH2 0x9F2 SWAP1 PUSH2 0x1266 JUMP JUMPDEST DUP1 ISZERO PUSH2 0xA3D JUMPI DUP1 PUSH1 0x1F LT PUSH2 0xA14 JUMPI PUSH2 0x100 DUP1 DUP4 SLOAD DIV MUL DUP4 MSTORE SWAP2 PUSH1 0x20 ADD SWAP2 PUSH2 0xA3D JUMP JUMPDEST DUP3 ADD SWAP2 SWAP1 PUSH0 MSTORE PUSH1 0x20 PUSH0 KECCAK256 SWAP1 JUMPDEST DUP2 SLOAD DUP2 MSTORE SWAP1 PUSH1 0x1 ADD SWAP1 PUSH1 0x20 ADD DUP1 DUP4 GT PUSH2 0xA20 JUMPI DUP3 SWAP1 SUB PUSH1 0x1F AND DUP3 ADD SWAP2 JUMPDEST POP POP POP POP POP DUP2 MSTORE PUSH1 0x20 ADD PUSH1 0x2 DUP3 ADD DUP1 SLOAD PUSH2 0xA56 SWAP1 PUSH2 0x1266 JUMP JUMPDEST DUP1 PUSH1 0x1F ADD PUSH1 0x20 DUP1 SWAP2 DIV MUL PUSH1 0x20 ADD PUSH1 0x40 MLOAD SWAP1 DUP2 ADD PUSH1 0x40 MSTORE DUP1 SWAP3 SWAP2 SWAP1 DUP2 DUP2 MSTORE PUSH1 0x20 ADD DUP3 DUP1 SLOAD PUSH2 0xA82 SWAP1 PUSH2 0x1266 JUMP JUMPDEST DUP1 ISZERO PUSH2 0xACD JUMPI DUP1 PUSH1 0x1F LT PUSH2 0xAA4 JUMPI PUSH2 0x100 DUP1 DUP4 SLOAD DIV MUL DUP4 MSTORE SWAP2 PUSH1 0x20 ADD SWAP2 PUSH2 0xACD JUMP JUMPDEST DUP3 ADD SWAP2 SWAP1 PUSH0 MSTORE PUSH1 0x20 PUSH0 KECCAK256 SWAP1 JUMPDEST DUP2 SLOAD DUP2 MSTORE SWAP1 PUSH1 0x1 ADD SWAP1 PUSH1 0x20 ADD DUP1 DUP4 GT PUSH2 0xAB0 JUMPI DUP3 SWAP1 SUB PUSH1 0x1F AND DUP3 ADD SWAP2 JUMPDEST POP POP POP POP POP DUP2 MSTORE PUSH1 0x20 ADD PUSH1 0x3 DUP3 ADD SLOAD DUP2 MSTORE PUSH1 0x20 ADD PUSH1 0x4 DUP3 ADD SLOAD DUP2 MSTORE PUSH1 0x20 ADD PUSH1 0x5 DUP3 ADD SLOAD DUP2 MSTORE POP POP SWAP2 POP POP PUSH2 0xB45 JUMP JUMPDEST DUP1 DUP1 PUSH1 0x1 ADD SWAP2 POP POP PUSH2 0x87B JUMP JUMPDEST POP PUSH1 0x40 MLOAD PUSH32 0x8C379A000000000000000000000000000000000000000000000000000000000 DUP2 MSTORE PUSH1 0x4 ADD PUSH2 0xB3C SWAP1 PUSH2 0x1544 JUMP JUMPDEST PUSH1 0x40 MLOAD DUP1 SWAP2 SUB SWAP1 REVERT JUMPDEST SWAP2 SWAP1 POP JUMP JUMPDEST PUSH1 0x40 MLOAD DUP1 PUSH1 0xC0 ADD PUSH1 0x40 MSTORE DUP1 PUSH1 0x60 DUP2 MSTORE PUSH1 0x20 ADD PUSH1 0x60 DUP2 MSTORE PUSH1 0x20 ADD PUSH1 0x60 DUP2 MSTORE PUSH1 0x20 ADD PUSH0 DUP2 MSTORE PUSH1 0x20 ADD PUSH0 DUP2 MSTORE PUSH1 0x20 ADD PUSH0 DUP2 MSTORE POP SWAP1 JUMP JUMPDEST PUSH0 PUSH1 0x40 MLOAD SWAP1 POP SWAP1 JUMP JUMPDEST PUSH0 DUP1 REVERT JUMPDEST PUSH0 DUP1 REVERT JUMPDEST PUSH0 DUP2 SWAP1 POP SWAP2 SWAP1 POP JUMP JUMPDEST PUSH2 0xBA0 DUP2 PUSH2 0xB8E JUMP JUMPDEST DUP2 EQ PUSH2 0xBAA JUMPI PUSH0 DUP1 REVERT JUMPDEST POP JUMP JUMPDEST PUSH0 DUP2 CALLDATALOAD SWAP1 POP PUSH2 0xBBB DUP2 PUSH2 0xB97 JUMP JUMPDEST SWAP3 SWAP2 POP POP JUMP JUMPDEST PUSH0 PUSH1 0x20 DUP3 DUP5 SUB SLT ISZERO PUSH2 0xBD6 JUMPI PUSH2 0xBD5 PUSH2 0xB86 JUMP JUMPDEST JUMPDEST PUSH0 PUSH2 0xBE3 DUP5 DUP3 DUP6 ADD PUSH2 0xBAD JUMP JUMPDEST SWAP2 POP POP SWAP3 SWAP2 POP POP JUMP JUMPDEST PUSH0 DUP2 MLOAD SWAP1 POP SWAP2 SWAP1 POP JUMP JUMPDEST PUSH0 DUP3 DUP3 MSTORE PUSH1 0x20 DUP3 ADD SWAP1 POP SWAP3 SWAP2 POP POP JUMP JUMPDEST PUSH0 JUMPDEST DUP4 DUP2 LT ISZERO PUSH2 0xC23 JUMPI DUP1 DUP3 ADD MLOAD DUP2 DUP5 ADD MSTORE PUSH1 0x20 DUP2 ADD SWAP1 POP PUSH2 0xC08 JUMP JUMPDEST PUSH0 DUP5 DUP5 ADD MSTORE POP POP POP POP JUMP JUMPDEST PUSH0 PUSH1 0x1F NOT PUSH1 0x1F DUP4 ADD AND SWAP1 POP SWAP2 SWAP1 POP JUMP JUMPDEST PUSH0 PUSH2 0xC48 DUP3 PUSH2 0xBEC JUMP JUMPDEST PUSH2 0xC52 DUP2 DUP6 PUSH2 0xBF6 JUMP JUMPDEST SWAP4 POP PUSH2 0xC62 DUP2 DUP6 PUSH1 0x20 DUP7 ADD PUSH2 0xC06 JUMP JUMPDEST PUSH2 0xC6B DUP2 PUSH2 0xC2E JUMP JUMPDEST DUP5 ADD SWAP2 POP POP SWAP3 SWAP2 POP POP JUMP JUMPDEST PUSH2 0xC7F DUP2 PUSH2 0xB8E JUMP JUMPDEST DUP3 MSTORE POP POP JUMP JUMPDEST PUSH0 PUSH1 0xC0 DUP3 ADD SWAP1 POP DUP2 DUP2 SUB PUSH0 DUP4 ADD MSTORE PUSH2 0xC9D DUP2 DUP10 PUSH2 0xC3E JUMP JUMPDEST SWAP1 POP DUP2 DUP2 SUB PUSH1 0x20 DUP4 ADD MSTORE PUSH2 0xCB1 DUP2 DUP9 PUSH2 0xC3E JUMP JUMPDEST SWAP1 POP DUP2 DUP2 SUB PUSH1 0x40 DUP4 ADD MSTORE PUSH2 0xCC5 DUP2 DUP8 PUSH2 0xC3E JUMP JUMPDEST SWAP1 POP PUSH2 0xCD4 PUSH1 0x60 DUP4 ADD DUP7 PUSH2 0xC76 JUMP JUMPDEST PUSH2 0xCE1 PUSH1 0x80 DUP4 ADD DUP6 PUSH2 0xC76 JUMP JUMPDEST PUSH2 0xCEE PUSH1 0xA0 DUP4 ADD DUP5 PUSH2 0xC76 JUMP JUMPDEST SWAP8 SWAP7 POP POP POP POP POP POP POP JUMP JUMPDEST PUSH0 DUP1 REVERT JUMPDEST PUSH0 DUP1 REVERT JUMPDEST PUSH32 0x4E487B7100000000000000000000000000000000000000000000000000000000 PUSH0 MSTORE PUSH1 0x41 PUSH1 0x4 MSTORE PUSH1 0x24 PUSH0 REVERT JUMPDEST PUSH2 0xD37 DUP3 PUSH2 0xC2E JUMP JUMPDEST DUP2 ADD DUP2 DUP2 LT PUSH8 0xFFFFFFFFFFFFFFFF DUP3 GT OR ISZERO PUSH2 0xD56 JUMPI PUSH2 0xD55 PUSH2 0xD01 JUMP JUMPDEST JUMPDEST DUP1 PUSH1 0x40 MSTORE POP POP POP JUMP JUMPDEST PUSH0 PUSH2 0xD68 PUSH2 0xB7D JUMP JUMPDEST SWAP1 POP PUSH2 0xD74 DUP3 DUP3 PUSH2 0xD2E JUMP JUMPDEST SWAP2 SWAP1 POP JUMP JUMPDEST PUSH0 PUSH8 0xFFFFFFFFFFFFFFFF DUP3 GT ISZERO PUSH2 0xD93 JUMPI PUSH2 0xD92 PUSH2 0xD01 JUMP JUMPDEST JUMPDEST PUSH2 0xD9C DUP3 PUSH2 0xC2E JUMP JUMPDEST SWAP1 POP PUSH1 0x20 DUP2 ADD SWAP1 POP SWAP2 SWAP1 POP JUMP JUMPDEST DUP3 DUP2 DUP4 CALLDATACOPY PUSH0 DUP4 DUP4 ADD MSTORE POP POP POP JUMP JUMPDEST PUSH0 PUSH2 0xDC9 PUSH2 0xDC4 DUP5 PUSH2 0xD79 JUMP JUMPDEST PUSH2 0xD5F JUMP JUMPDEST SWAP1 POP DUP3 DUP2 MSTORE PUSH1 0x20 DUP2 ADD DUP5 DUP5 DUP5 ADD GT ISZERO PUSH2 0xDE5 JUMPI PUSH2 0xDE4 PUSH2 0xCFD JUMP JUMPDEST JUMPDEST PUSH2 0xDF0 DUP5 DUP3 DUP6 PUSH2 0xDA9 JUMP JUMPDEST POP SWAP4 SWAP3 POP POP POP JUMP JUMPDEST PUSH0 DUP3 PUSH1 0x1F DUP4 ADD SLT PUSH2 0xE0C JUMPI PUSH2 0xE0B PUSH2 0xCF9 JUMP JUMPDEST JUMPDEST DUP2 CALLDATALOAD PUSH2 0xE1C DUP5 DUP3 PUSH1 0x20 DUP7 ADD PUSH2 0xDB7 JUMP JUMPDEST SWAP2 POP POP SWAP3 SWAP2 POP POP JUMP JUMPDEST PUSH0 DUP1 PUSH1 0x40 DUP4 DUP6 SUB SLT ISZERO PUSH2 0xE3B JUMPI PUSH2 0xE3A PUSH2 0xB86 JUMP JUMPDEST JUMPDEST PUSH0 DUP4 ADD CALLDATALOAD PUSH8 0xFFFFFFFFFFFFFFFF DUP2 GT ISZERO PUSH2 0xE58 JUMPI PUSH2 0xE57 PUSH2 0xB8A JUMP JUMPDEST JUMPDEST PUSH2 0xE64 DUP6 DUP3 DUP7 ADD PUSH2 0xDF8 JUMP JUMPDEST SWAP3 POP POP PUSH1 0x20 DUP4 ADD CALLDATALOAD PUSH8 0xFFFFFFFFFFFFFFFF DUP2 GT ISZERO PUSH2 0xE85 JUMPI PUSH2 0xE84 PUSH2 0xB8A JUMP JUMPDEST JUMPDEST PUSH2 0xE91 DUP6 DUP3 DUP7 ADD PUSH2 0xDF8 JUMP JUMPDEST SWAP2 POP POP SWAP3 POP SWAP3 SWAP1 POP JUMP JUMPDEST PUSH0 DUP2 MLOAD SWAP1 POP SWAP2 SWAP1 POP JUMP JUMPDEST PUSH0 DUP3 DUP3 MSTORE PUSH1 0x20 DUP3 ADD SWAP1 POP SWAP3 SWAP2 POP POP JUMP JUMPDEST PUSH0 DUP2 SWAP1 POP PUSH1 0x20 DUP3 ADD SWAP1 POP SWAP2 SWAP1 POP JUMP JUMPDEST PUSH0 DUP3 DUP3 MSTORE PUSH1 0x20 DUP3 ADD SWAP1 POP SWAP3 SWAP2 POP POP JUMP JUMPDEST PUSH0 PUSH2 0xEDE DUP3 PUSH2 0xBEC JUMP JUMPDEST PUSH2 0xEE8 DUP2 DUP6 PUSH2 0xEC4 JUMP JUMPDEST SWAP4 POP PUSH2 0xEF8 DUP2 DUP6 PUSH1 0x20 DUP7 ADD PUSH2 0xC06 JUMP JUMPDEST PUSH2 0xF01 DUP2 PUSH2 0xC2E JUMP JUMPDEST DUP5 ADD SWAP2 POP POP SWAP3 SWAP2 POP POP JUMP JUMPDEST PUSH2 0xF15 DUP2 PUSH2 0xB8E JUMP JUMPDEST DUP3 MSTORE POP POP JUMP JUMPDEST PUSH0 PUSH1 0xC0 DUP4 ADD PUSH0 DUP4 ADD MLOAD DUP5 DUP3 SUB PUSH0 DUP7 ADD MSTORE PUSH2 0xF35 DUP3 DUP3 PUSH2 0xED4 JUMP JUMPDEST SWAP2 POP POP PUSH1 0x20 DUP4 ADD MLOAD DUP5 DUP3 SUB PUSH1 0x20 DUP7 ADD MSTORE PUSH2 0xF4F DUP3 DUP3 PUSH2 0xED4 JUMP JUMPDEST SWAP2 POP POP PUSH1 0x40 DUP4 ADD MLOAD DUP5 DUP3 SUB PUSH1 0x40 DUP7 ADD MSTORE PUSH2 0xF69 DUP3 DUP3 PUSH2 0xED4 JUMP JUMPDEST SWAP2 POP POP PUSH1 0x60 DUP4 ADD MLOAD PUSH2 0xF7E PUSH1 0x60 DUP7 ADD DUP3 PUSH2 0xF0C JUMP JUMPDEST POP PUSH1 0x80 DUP4 ADD MLOAD PUSH2 0xF91 PUSH1 0x80 DUP7 ADD DUP3 PUSH2 0xF0C JUMP JUMPDEST POP PUSH1 0xA0 DUP4 ADD MLOAD PUSH2 0xFA4 PUSH1 0xA0 DUP7 ADD DUP3 PUSH2 0xF0C JUMP JUMPDEST POP DUP1 SWAP2 POP POP SWAP3 SWAP2 POP POP JUMP JUMPDEST PUSH0 PUSH2 0xFBA DUP4 DUP4 PUSH2 0xF1B JUMP JUMPDEST SWAP1 POP SWAP3 SWAP2 POP POP JUMP JUMPDEST PUSH0 PUSH1 0x20 DUP3 ADD SWAP1 POP SWAP2 SWAP1 POP JUMP JUMPDEST PUSH0 PUSH2 0xFD8 DUP3 PUSH2 0xE9B JUMP JUMPDEST PUSH2 0xFE2 DUP2 DUP6 PUSH2 0xEA5 JUMP JUMPDEST SWAP4 POP DUP4 PUSH1 0x20 DUP3 MUL DUP6 ADD PUSH2 0xFF4 DUP6 PUSH2 0xEB5 JUMP JUMPDEST DUP1 PUSH0 JUMPDEST DUP6 DUP2 LT ISZERO PUSH2 0x102F JUMPI DUP5 DUP5 SUB DUP10 MSTORE DUP2 MLOAD PUSH2 0x1010 DUP6 DUP3 PUSH2 0xFAF JUMP JUMPDEST SWAP5 POP PUSH2 0x101B DUP4 PUSH2 0xFC2 JUMP JUMPDEST SWAP3 POP PUSH1 0x20 DUP11 ADD SWAP10 POP POP PUSH1 0x1 DUP2 ADD SWAP1 POP PUSH2 0xFF7 JUMP JUMPDEST POP DUP3 SWAP8 POP DUP8 SWAP6 POP POP POP POP POP POP SWAP3 SWAP2 POP POP JUMP JUMPDEST PUSH0 PUSH1 0x20 DUP3 ADD SWAP1 POP DUP2 DUP2 SUB PUSH0 DUP4 ADD MSTORE PUSH2 0x1059 DUP2 DUP5 PUSH2 0xFCE JUMP JUMPDEST SWAP1 POP SWAP3 SWAP2 POP POP JUMP JUMPDEST PUSH0 DUP1 PUSH0 DUP1 PUSH0 DUP1 PUSH1 0xC0 DUP8 DUP10 SUB SLT ISZERO PUSH2 0x107B JUMPI PUSH2 0x107A PUSH2 0xB86 JUMP JUMPDEST JUMPDEST PUSH0 DUP8 ADD CALLDATALOAD PUSH8 0xFFFFFFFFFFFFFFFF DUP2 GT ISZERO PUSH2 0x1098 JUMPI PUSH2 0x1097 PUSH2 0xB8A JUMP JUMPDEST JUMPDEST PUSH2 0x10A4 DUP10 DUP3 DUP11 ADD PUSH2 0xDF8 JUMP JUMPDEST SWAP7 POP POP PUSH1 0x20 DUP8 ADD CALLDATALOAD PUSH8 0xFFFFFFFFFFFFFFFF DUP2 GT ISZERO PUSH2 0x10C5 JUMPI PUSH2 0x10C4 PUSH2 0xB8A JUMP JUMPDEST JUMPDEST PUSH2 0x10D1 DUP10 DUP3 DUP11 ADD PUSH2 0xDF8 JUMP JUMPDEST SWAP6 POP POP PUSH1 0x40 DUP8 ADD CALLDATALOAD PUSH8 0xFFFFFFFFFFFFFFFF DUP2 GT ISZERO PUSH2 0x10F2 JUMPI PUSH2 0x10F1 PUSH2 0xB8A JUMP JUMPDEST JUMPDEST PUSH2 0x10FE DUP10 DUP3 DUP11 ADD PUSH2 0xDF8 JUMP JUMPDEST SWAP5 POP POP PUSH1 0x60 PUSH2 0x110F DUP10 DUP3 DUP11 ADD PUSH2 0xBAD JUMP JUMPDEST SWAP4 POP POP PUSH1 0x80 PUSH2 0x1120 DUP10 DUP3 DUP11 ADD PUSH2 0xBAD JUMP JUMPDEST SWAP3 POP POP PUSH1 0xA0 PUSH2 0x1131 DUP10 DUP3 DUP11 ADD PUSH2 0xBAD JUMP JUMPDEST SWAP2 POP POP SWAP3 SWAP6 POP SWAP3 SWAP6 POP SWAP3 SWAP6 JUMP JUMPDEST PUSH0 PUSH1 0x20 DUP3 DUP5 SUB SLT ISZERO PUSH2 0x1153 JUMPI PUSH2 0x1152 PUSH2 0xB86 JUMP JUMPDEST JUMPDEST PUSH0 DUP3 ADD CALLDATALOAD PUSH8 0xFFFFFFFFFFFFFFFF DUP2 GT ISZERO PUSH2 0x1170 JUMPI PUSH2 0x116F PUSH2 0xB8A JUMP JUMPDEST JUMPDEST PUSH2 0x117C DUP5 DUP3 DUP6 ADD PUSH2 0xDF8 JUMP JUMPDEST SWAP2 POP POP SWAP3 SWAP2 POP POP JUMP JUMPDEST PUSH0 PUSH1 0xC0 DUP4 ADD PUSH0 DUP4 ADD MLOAD DUP5 DUP3 SUB PUSH0 DUP7 ADD MSTORE PUSH2 0x119F DUP3 DUP3 PUSH2 0xED4 JUMP JUMPDEST SWAP2 POP POP PUSH1 0x20 DUP4 ADD MLOAD DUP5 DUP3 SUB PUSH1 0x20 DUP7 ADD MSTORE PUSH2 0x11B9 DUP3 DUP3 PUSH2 0xED4 JUMP JUMPDEST SWAP2 POP POP PUSH1 0x40 DUP4 ADD MLOAD DUP5 DUP3 SUB PUSH1 0x40 DUP7 ADD MSTORE PUSH2 0x11D3 DUP3 DUP3 PUSH2 0xED4 JUMP JUMPDEST SWAP2 POP POP PUSH1 0x60 DUP4 ADD MLOAD PUSH2 0x11E8 PUSH1 0x60 DUP7 ADD DUP3 PUSH2 0xF0C JUMP JUMPDEST POP PUSH1 0x80 DUP4 ADD MLOAD PUSH2 0x11FB PUSH1 0x80 DUP7 ADD DUP3 PUSH2 0xF0C JUMP JUMPDEST POP PUSH1 0xA0 DUP4 ADD MLOAD PUSH2 0x120E PUSH1 0xA0 DUP7 ADD DUP3 PUSH2 0xF0C JUMP JUMPDEST POP DUP1 SWAP2 POP POP SWAP3 SWAP2 POP POP JUMP JUMPDEST PUSH0 PUSH1 0x20 DUP3 ADD SWAP1 POP DUP2 DUP2 SUB PUSH0 DUP4 ADD MSTORE PUSH2 0x1231 DUP2 DUP5 PUSH2 0x1185 JUMP JUMPDEST SWAP1 POP SWAP3 SWAP2 POP POP JUMP JUMPDEST PUSH32 0x4E487B7100000000000000000000000000000000000000000000000000000000 PUSH0 MSTORE PUSH1 0x22 PUSH1 0x4 MSTORE PUSH1 0x24 PUSH0 REVERT JUMPDEST PUSH0 PUSH1 0x2 DUP3 DIV SWAP1 POP PUSH1 0x1 DUP3 AND DUP1 PUSH2 0x127D JUMPI PUSH1 0x7F DUP3 AND SWAP2 POP JUMPDEST PUSH1 0x20 DUP3 LT DUP2 SUB PUSH2 0x1290 JUMPI PUSH2 0x128F PUSH2 0x1239 JUMP JUMPDEST JUMPDEST POP SWAP2 SWAP1 POP JUMP JUMPDEST PUSH32 0x56616C7565206D75737420626520302E3030303220455448206F722061626F76 PUSH0 DUP3 ADD MSTORE PUSH32 0x6500000000000000000000000000000000000000000000000000000000000000 PUSH1 0x20 DUP3 ADD MSTORE POP JUMP JUMPDEST PUSH0 PUSH2 0x12F0 PUSH1 0x21 DUP4 PUSH2 0xBF6 JUMP JUMPDEST SWAP2 POP PUSH2 0x12FB DUP3 PUSH2 0x1296 JUMP JUMPDEST PUSH1 0x40 DUP3 ADD SWAP1 POP SWAP2 SWAP1 POP JUMP JUMPDEST PUSH0 PUSH1 0x20 DUP3 ADD SWAP1 POP DUP2 DUP2 SUB PUSH0 DUP4 ADD MSTORE PUSH2 0x131D DUP2 PUSH2 0x12E4 JUMP JUMPDEST SWAP1 POP SWAP2 SWAP1 POP JUMP JUMPDEST PUSH0 DUP2 SWAP1 POP SWAP3 SWAP2 POP POP JUMP JUMPDEST PUSH0 PUSH2 0x1338 DUP3 PUSH2 0xBEC JUMP JUMPDEST PUSH2 0x1342 DUP2 DUP6 PUSH2 0x1324 JUMP JUMPDEST SWAP4 POP PUSH2 0x1352 DUP2 DUP6 PUSH1 0x20 DUP7 ADD PUSH2 0xC06 JUMP JUMPDEST DUP1 DUP5 ADD SWAP2 POP POP SWAP3 SWAP2 POP POP JUMP JUMPDEST PUSH0 PUSH2 0x1369 DUP3 DUP5 PUSH2 0x132E JUMP JUMPDEST SWAP2 POP DUP2 SWAP1 POP SWAP3 SWAP2 POP POP JUMP JUMPDEST PUSH32 0x4E487B7100000000000000000000000000000000000000000000000000000000 PUSH0 MSTORE PUSH1 0x32 PUSH1 0x4 MSTORE PUSH1 0x24 PUSH0 REVERT JUMPDEST PUSH0 DUP2 SWAP1 POP DUP2 PUSH0 MSTORE PUSH1 0x20 PUSH0 KECCAK256 SWAP1 POP SWAP2 SWAP1 POP JUMP JUMPDEST PUSH0 DUP2 SLOAD PUSH2 0x13BF DUP2 PUSH2 0x1266 JUMP JUMPDEST PUSH2 0x13C9 DUP2 DUP7 PUSH2 0x1324 JUMP JUMPDEST SWAP5 POP PUSH1 0x1 DUP3 AND PUSH0 DUP2 EQ PUSH2 0x13E3 JUMPI PUSH1 0x1 DUP2 EQ PUSH2 0x13F8 JUMPI PUSH2 0x142A JUMP JUMPDEST PUSH1 0xFF NOT DUP4 AND DUP7 MSTORE DUP2 ISZERO ISZERO DUP3 MUL DUP7 ADD SWAP4 POP PUSH2 0x142A JUMP JUMPDEST PUSH2 0x1401 DUP6 PUSH2 0x13A1 JUMP JUMPDEST PUSH0 JUMPDEST DUP4 DUP2 LT ISZERO PUSH2 0x1422 JUMPI DUP2 SLOAD DUP2 DUP10 ADD MSTORE PUSH1 0x1 DUP3 ADD SWAP2 POP PUSH1 0x20 DUP2 ADD SWAP1 POP PUSH2 0x1403 JUMP JUMPDEST DUP4 DUP9 ADD SWAP6 POP POP POP JUMPDEST POP POP POP SWAP3 SWAP2 POP POP JUMP JUMPDEST PUSH0 PUSH2 0x143E DUP3 DUP5 PUSH2 0x13B3 JUMP JUMPDEST SWAP2 POP DUP2 SWAP1 POP SWAP3 SWAP2 POP POP JUMP JUMPDEST PUSH32 0x4E487B7100000000000000000000000000000000000000000000000000000000 PUSH0 MSTORE PUSH1 0x11 PUSH1 0x4 MSTORE PUSH1 0x24 PUSH0 REVERT JUMPDEST PUSH0 PUSH2 0x1480 DUP3 PUSH2 0xB8E JUMP JUMPDEST SWAP2 POP PUSH2 0x148B DUP4 PUSH2 0xB8E JUMP JUMPDEST SWAP3 POP DUP3 DUP3 ADD SWAP1 POP DUP1 DUP3 GT ISZERO PUSH2 0x14A3 JUMPI PUSH2 0x14A2 PUSH2 0x1449 JUMP JUMPDEST JUMPDEST SWAP3 SWAP2 POP POP JUMP JUMPDEST PUSH0 PUSH1 0x80 DUP3 ADD SWAP1 POP DUP2 DUP2 SUB PUSH0 DUP4 ADD MSTORE PUSH2 0x14C1 DUP2 DUP8 PUSH2 0xC3E JUMP JUMPDEST SWAP1 POP DUP2 DUP2 SUB PUSH1 0x20 DUP4 ADD MSTORE PUSH2 0x14D5 DUP2 DUP7 PUSH2 0xC3E JUMP JUMPDEST SWAP1 POP PUSH2 0x14E4 PUSH1 0x40 DUP4 ADD DUP6 PUSH2 0xC76 JUMP JUMPDEST PUSH2 0x14F1 PUSH1 0x60 DUP4 ADD DUP5 PUSH2 0xC76 JUMP JUMPDEST SWAP6 SWAP5 POP POP POP POP POP JUMP JUMPDEST PUSH32 0x4E6F7420666F756E640000000000000000000000000000000000000000000000 PUSH0 DUP3 ADD MSTORE POP JUMP JUMPDEST PUSH0 PUSH2 0x152E PUSH1 0x9 DUP4 PUSH2 0xBF6 JUMP JUMPDEST SWAP2 POP PUSH2 0x1539 DUP3 PUSH2 0x14FA JUMP JUMPDEST PUSH1 0x20 DUP3 ADD SWAP1 POP SWAP2 SWAP1 POP JUMP JUMPDEST PUSH0 PUSH1 0x20 DUP3 ADD SWAP1 POP DUP2 DUP2 SUB PUSH0 DUP4 ADD MSTORE PUSH2 0x155B DUP2 PUSH2 0x1522 JUMP JUMPDEST SWAP1 POP SWAP2 SWAP1 POP JUMP JUMPDEST PUSH32 0x4F6E6C792061646D696E2063616E2063616C6C20746869732066756E6374696F PUSH0 DUP3 ADD MSTORE PUSH32 0x6E00000000000000000000000000000000000000000000000000000000000000 PUSH1 0x20 DUP3 ADD MSTORE POP JUMP JUMPDEST PUSH0 PUSH2 0x15BC PUSH1 0x21 DUP4 PUSH2 0xBF6 JUMP JUMPDEST SWAP2 POP PUSH2 0x15C7 DUP3 PUSH2 0x1562 JUMP JUMPDEST PUSH1 0x40 DUP3 ADD SWAP1 POP SWAP2 SWAP1 POP JUMP JUMPDEST PUSH0 PUSH1 0x20 DUP3 ADD SWAP1 POP DUP2 DUP2 SUB PUSH0 DUP4 ADD MSTORE PUSH2 0x15E9 DUP2 PUSH2 0x15B0 JUMP JUMPDEST SWAP1 POP SWAP2 SWAP1 POP JUMP JUMPDEST PUSH0 PUSH1 0x20 PUSH1 0x1F DUP4 ADD DIV SWAP1 POP SWAP2 SWAP1 POP JUMP JUMPDEST PUSH0 DUP3 DUP3 SHL SWAP1 POP SWAP3 SWAP2 POP POP JUMP JUMPDEST PUSH0 PUSH1 0x8 DUP4 MUL PUSH2 0x163A PUSH32 0xFFFFFFFFFFFFFFFFFFFFFFFFFFFFFFFFFFFFFFFFFFFFFFFFFFFFFFFFFFFFFFFF DUP3 PUSH2 0x15FF JUMP JUMPDEST PUSH2 0x1644 DUP7 DUP4 PUSH2 0x15FF JUMP JUMPDEST SWAP6 POP DUP1 NOT DUP5 AND SWAP4 POP DUP1 DUP7 AND DUP5 OR SWAP3 POP POP POP SWAP4 SWAP3 POP POP POP JUMP JUMPDEST PUSH0 DUP2 SWAP1 POP SWAP2 SWAP1 POP JUMP JUMPDEST PUSH0 PUSH2 0x167F PUSH2 0x167A PUSH2 0x1675 DUP5 PUSH2 0xB8E JUMP JUMPDEST PUSH2 0x165C JUMP JUMPDEST PUSH2 0xB8E JUMP JUMPDEST SWAP1 POP SWAP2 SWAP1 POP JUMP JUMPDEST PUSH0 DUP2 SWAP1 POP SWAP2 SWAP1 POP JUMP JUMPDEST PUSH2 0x1698 DUP4 PUSH2 0x1665 JUMP JUMPDEST PUSH2 0x16AC PUSH2 0x16A4 DUP3 PUSH2 0x1686 JUMP JUMPDEST DUP5 DUP5 SLOAD PUSH2 0x160B JUMP JUMPDEST DUP3 SSTORE POP POP POP POP JUMP JUMPDEST PUSH0 SWAP1 JUMP JUMPDEST PUSH2 0x16C0 PUSH2 0x16B4 JUMP JUMPDEST PUSH2 0x16CB DUP2 DUP5 DUP5 PUSH2 0x168F JUMP JUMPDEST POP POP POP JUMP JUMPDEST JUMPDEST DUP2 DUP2 LT ISZERO PUSH2 0x16EE JUMPI PUSH2 0x16E3 PUSH0 DUP3 PUSH2 0x16B8 JUMP JUMPDEST PUSH1 0x1 DUP2 ADD SWAP1 POP PUSH2 0x16D1 JUMP JUMPDEST POP POP JUMP JUMPDEST PUSH1 0x1F DUP3 GT ISZERO PUSH2 0x1733 JUMPI PUSH2 0x1704 DUP2 PUSH2 0x13A1 JUMP JUMPDEST PUSH2 0x170D DUP5 PUSH2 0x15F0 JUMP JUMPDEST DUP2 ADD PUSH1 0x20 DUP6 LT ISZERO PUSH2 0x171C JUMPI DUP2 SWAP1 POP JUMPDEST PUSH2 0x1730 PUSH2 0x1728 DUP6 PUSH2 0x15F0 JUMP JUMPDEST DUP4 ADD DUP3 PUSH2 0x16D0 JUMP JUMPDEST POP POP JUMPDEST POP POP POP JUMP JUMPDEST PUSH0 DUP3 DUP3 SHR SWAP1 POP SWAP3 SWAP2 POP POP JUMP JUMPDEST PUSH0 PUSH2 0x1753 PUSH0 NOT DUP5 PUSH1 0x8 MUL PUSH2 0x1738 JUMP JUMPDEST NOT DUP1 DUP4 AND SWAP2 POP POP SWAP3 SWAP2 POP POP JUMP JUMPDEST PUSH0 PUSH2 0x176B DUP4 DUP4 PUSH2 0x1744 JUMP JUMPDEST SWAP2 POP DUP3 PUSH1 0x2 MUL DUP3 OR SWAP1 POP SWAP3 SWAP2 POP POP JUMP JUMPDEST PUSH2 0x1784 DUP3 PUSH2 0xBEC JUMP JUMPDEST PUSH8 0xFFFFFFFFFFFFFFFF DUP2 GT ISZERO PUSH2 0x179D JUMPI PUSH2 0x179C PUSH2 0xD01 JUMP JUMPDEST JUMPDEST PUSH2 0x17A7 DUP3 SLOAD PUSH2 0x1266 JUMP JUMPDEST PUSH2 0x17B2 DUP3 DUP3 DUP6 PUSH2 0x16F2 JUMP JUMPDEST PUSH0 PUSH1 0x20 SWAP1 POP PUSH1 0x1F DUP4 GT PUSH1 0x1 DUP2 EQ PUSH2 0x17E3 JUMPI PUSH0 DUP5 ISZERO PUSH2 0x17D1 JUMPI DUP3 DUP8 ADD MLOAD SWAP1 POP JUMPDEST PUSH2 0x17DB DUP6 DUP3 PUSH2 0x1760 JUMP JUMPDEST DUP7 SSTORE POP PUSH2 0x1842 JUMP JUMPDEST PUSH1 0x1F NOT DUP5 AND PUSH2 0x17F1 DUP7 PUSH2 0x13A1 JUMP JUMPDEST PUSH0 JUMPDEST DUP3 DUP2 LT ISZERO PUSH2 0x1818 JUMPI DUP5 DUP10 ADD MLOAD DUP3 SSTORE PUSH1 0x1 DUP3 ADD SWAP2 POP PUSH1 0x20 DUP6 ADD SWAP5 POP PUSH1 0x20 DUP2 ADD SWAP1 POP PUSH2 0x17F3 JUMP JUMPDEST DUP7 DUP4 LT ISZERO PUSH2 0x1835 JUMPI DUP5 DUP10 ADD MLOAD PUSH2 0x1831 PUSH1 0x1F DUP10 AND DUP3 PUSH2 0x1744 JUMP JUMPDEST DUP4 SSTORE POP JUMPDEST PUSH1 0x1 PUSH1 0x2 DUP9 MUL ADD DUP9 SSTORE POP POP POP JUMPDEST POP POP POP POP POP POP JUMP INVALID LOG2 PUSH5 0x6970667358 0x22 SLT KECCAK256 0xB8 PUSH9 0xFE833F6DC6B161C7E8 PUSH11 0x6D8034CA4D7AF355D97F85 STOP SIGNEXTEND CALLDATALOAD PUSH26 0x9A239626C364736F6C6343000816003300000000000000000000 "
				},
				"gasEstimates": {
					"creation": {
						"codeDepositCost": "1254400",
						"executionCost": "25566",
						"totalCost": "1279966"
					},
					"external": {
						"addNewCampaign(string,string,string,uint256,uint256,uint256)": "infinite",
						"campaignInfoArray(uint256)": "infinite",
						"donate(string,string)": "infinite",
						"getAllCampaign()": "infinite",
						"getCampaignById(string)": "infinite"
					}
				},
				"methodIdentifiers": {
					"addNewCampaign(string,string,string,uint256,uint256,uint256)": "8c3ecab5",
					"campaignInfoArray(uint256)": "057902be",
					"donate(string,string)": "1653441c",
					"getAllCampaign()": "4ca079f2",
					"getCampaignById(string)": "e26034cd"
				}
			},
			"storageLayout": {
				"storage": [
					{
						"astId": 18,
						"contract": "contracts/Campaign.sol:Campaign",
						"label": "adminAddress",
						"offset": 0,
						"slot": "0",
						"type": "t_address"
					},
					{
						"astId": 22,
						"contract": "contracts/Campaign.sol:Campaign",
						"label": "campaignInfoArray",
						"offset": 0,
						"slot": "1",
						"type": "t_array(t_struct(CampaignInfo)15_storage)dyn_storage"
					}
				],
				"types": {
					"t_address": {
						"encoding": "inplace",
						"label": "address",
						"numberOfBytes": "20"
					},
					"t_array(t_struct(CampaignInfo)15_storage)dyn_storage": {
						"base": "t_struct(CampaignInfo)15_storage",
						"encoding": "dynamic_array",
						"label": "struct Campaign.CampaignInfo[]",
						"numberOfBytes": "32"
					},
					"t_string_storage": {
						"encoding": "bytes",
						"label": "string",
						"numberOfBytes": "32"
					},
					"t_struct(CampaignInfo)15_storage": {
						"encoding": "inplace",
						"label": "struct Campaign.CampaignInfo",
						"members": [
							{
								"astId": 4,
								"contract": "contracts/Campaign.sol:Campaign",
								"label": "id",
								"offset": 0,
								"slot": "0",
								"type": "t_string_storage"
							},
							{
								"astId": 6,
								"contract": "contracts/Campaign.sol:Campaign",
								"label": "creatorUserName",
								"offset": 0,
								"slot": "1",
								"type": "t_string_storage"
							},
							{
								"astId": 8,
								"contract": "contracts/Campaign.sol:Campaign",
								"label": "title",
								"offset": 0,
								"slot": "2",
								"type": "t_string_storage"
							},
							{
								"astId": 10,
								"contract": "contracts/Campaign.sol:Campaign",
								"label": "currentValue",
								"offset": 0,
								"slot": "3",
								"type": "t_uint256"
							},
							{
								"astId": 12,
								"contract": "contracts/Campaign.sol:Campaign",
								"label": "targetValue",
								"offset": 0,
								"slot": "4",
								"type": "t_uint256"
							},
							{
								"astId": 14,
								"contract": "contracts/Campaign.sol:Campaign",
								"label": "endDate",
								"offset": 0,
								"slot": "5",
								"type": "t_uint256"
							}
						],
						"numberOfBytes": "192"
					},
					"t_uint256": {
						"encoding": "inplace",
						"label": "uint256",
						"numberOfBytes": "32"
					}
				}
			},
			"userdoc": {
				"kind": "user",
				"methods": {},
				"version": 1
			}
		}
	}
}