{
	"contracts/TransactionHistory.sol": {
		"TransactionHistory": {
			"abi": [
				{
					"inputs": [
						{
							"internalType": "string",
							"name": "campaignId",
							"type": "string"
						},
						{
							"internalType": "string",
							"name": "donatorId",
							"type": "string"
						},
						{
							"internalType": "uint256",
							"name": "value",
							"type": "uint256"
						},
						{
							"internalType": "uint256",
							"name": "time",
							"type": "uint256"
						}
					],
					"name": "addNewTransactionHistory",
					"outputs": [],
					"stateMutability": "nonpayable",
					"type": "function"
				},
				{
					"inputs": [],
					"name": "adminAddress",
					"outputs": [
						{
							"internalType": "address",
							"name": "",
							"type": "address"
						}
					],
					"stateMutability": "view",
					"type": "function"
				},
				{
					"inputs": [],
					"name": "campaignAddress",
					"outputs": [
						{
							"internalType": "address",
							"name": "",
							"type": "address"
						}
					],
					"stateMutability": "view",
					"type": "function"
				},
				{
					"inputs": [],
					"name": "getAllTransaction",
					"outputs": [
						{
							"components": [
								{
									"internalType": "string",
									"name": "campaignId",
									"type": "string"
								},
								{
									"internalType": "string",
									"name": "donatorId",
									"type": "string"
								},
								{
									"internalType": "uint256",
									"name": "value",
									"type": "uint256"
								},
								{
									"internalType": "uint256",
									"name": "time",
									"type": "uint256"
								}
							],
							"internalType": "struct TransactionHistory.TransactionInfo[]",
							"name": "",
							"type": "tuple[]"
						}
					],
					"stateMutability": "view",
					"type": "function"
				},
				{
					"inputs": [
						{
							"internalType": "address",
							"name": "_campaignAddress",
							"type": "address"
						}
					],
					"name": "setCampaignAddress",
					"outputs": [],
					"stateMutability": "nonpayable",
					"type": "function"
				},
				{
					"inputs": [
						{
							"internalType": "uint256",
							"name": "",
							"type": "uint256"
						}
					],
					"name": "transactionInfoArray",
					"outputs": [
						{
							"internalType": "string",
							"name": "campaignId",
							"type": "string"
						},
						{
							"internalType": "string",
							"name": "donatorId",
							"type": "string"
						},
						{
							"internalType": "uint256",
							"name": "value",
							"type": "uint256"
						},
						{
							"internalType": "uint256",
							"name": "time",
							"type": "uint256"
						}
					],
					"stateMutability": "view",
					"type": "function"
				}
			],
			"devdoc": {
				"kind": "dev",
				"methods": {},
				"version": 1
			},
			"evm": {
				"assembly": "    /* \"contracts/TransactionHistory.sol\":68:1421  contract TransactionHistory... */\n  mstore(0x40, 0x80)\n    /* \"contracts/TransactionHistory.sol\":134:176  0x5B38Da6a701c568545dCfcB03FcB875f56beddC4 */\n  0x5b38da6a701c568545dcfcb03fcb875f56beddc4\n    /* \"contracts/TransactionHistory.sol\":104:176  address public adminAddress = 0x5B38Da6a701c568545dCfcB03FcB875f56beddC4 */\n  0x00\n  dup1\n  0x0100\n  exp\n  dup2\n  sload\n  dup2\n  0xffffffffffffffffffffffffffffffffffffffff\n  mul\n  not\n  and\n  swap1\n  dup4\n  0xffffffffffffffffffffffffffffffffffffffff\n  and\n  mul\n  or\n  swap1\n  sstore\n  pop\n    /* \"contracts/TransactionHistory.sol\":68:1421  contract TransactionHistory... */\n  callvalue\n  dup1\n  iszero\n  tag_1\n  jumpi\n  0x00\n  dup1\n  revert\ntag_1:\n  pop\n  dataSize(sub_0)\n  dup1\n  dataOffset(sub_0)\n  0x00\n  codecopy\n  0x00\n  return\nstop\n\nsub_0: assembly {\n        /* \"contracts/TransactionHistory.sol\":68:1421  contract TransactionHistory... */\n      mstore(0x40, 0x80)\n      callvalue\n      dup1\n      iszero\n      tag_1\n      jumpi\n      0x00\n      dup1\n      revert\n    tag_1:\n      pop\n      jumpi(tag_2, lt(calldatasize, 0x04))\n      shr(0xe0, calldataload(0x00))\n      dup1\n      0x11765b27\n      eq\n      tag_3\n      jumpi\n      dup1\n      0x92ad672f\n      eq\n      tag_4\n      jumpi\n      dup1\n      0xa3306ae3\n      eq\n      tag_5\n      jumpi\n      dup1\n      0xa7113c50\n      eq\n      tag_6\n      jumpi\n      dup1\n      0xadd6415d\n      eq\n      tag_7\n      jumpi\n      dup1\n      0xfc6f9468\n      eq\n      tag_8\n      jumpi\n    tag_2:\n      0x00\n      dup1\n      revert\n        /* \"contracts/TransactionHistory.sol\":183:213  address public campaignAddress */\n    tag_3:\n      tag_9\n      tag_10\n      jump\t// in\n    tag_9:\n      mload(0x40)\n      tag_11\n      swap2\n      swap1\n      tag_12\n      jump\t// in\n    tag_11:\n      mload(0x40)\n      dup1\n      swap2\n      sub\n      swap1\n      return\n        /* \"contracts/TransactionHistory.sol\":362:407  TransactionInfo[] public transactionInfoArray */\n    tag_4:\n      tag_13\n      0x04\n      dup1\n      calldatasize\n      sub\n      dup2\n      add\n      swap1\n      tag_14\n      swap2\n      swap1\n      tag_15\n      jump\t// in\n    tag_14:\n      tag_16\n      jump\t// in\n    tag_13:\n      mload(0x40)\n      tag_17\n      swap5\n      swap4\n      swap3\n      swap2\n      swap1\n      tag_18\n      jump\t// in\n    tag_17:\n      mload(0x40)\n      dup1\n      swap2\n      sub\n      swap1\n      return\n        /* \"contracts/TransactionHistory.sol\":1288:1418  function setCampaignAddress(address _campaignAddress) public onlyAdminAddress{... */\n    tag_5:\n      tag_19\n      0x04\n      dup1\n      calldatasize\n      sub\n      dup2\n      add\n      swap1\n      tag_20\n      swap2\n      swap1\n      tag_21\n      jump\t// in\n    tag_20:\n      tag_22\n      jump\t// in\n    tag_19:\n      stop\n        /* \"contracts/TransactionHistory.sol\":723:1145  function addNewTransactionHistory(string memory campaignId, string memory donatorId, uint value, uint256 time) external onlyCampaignContract{... */\n    tag_6:\n      tag_23\n      0x04\n      dup1\n      calldatasize\n      sub\n      dup2\n      add\n      swap1\n      tag_24\n      swap2\n      swap1\n      tag_25\n      jump\t// in\n    tag_24:\n      tag_26\n      jump\t// in\n    tag_23:\n      stop\n        /* \"contracts/TransactionHistory.sol\":1157:1280  function getAllTransaction() external view returns (TransactionInfo[] memory){... */\n    tag_7:\n      tag_27\n      tag_28\n      jump\t// in\n    tag_27:\n      mload(0x40)\n      tag_29\n      swap2\n      swap1\n      tag_30\n      jump\t// in\n    tag_29:\n      mload(0x40)\n      dup1\n      swap2\n      sub\n      swap1\n      return\n        /* \"contracts/TransactionHistory.sol\":104:176  address public adminAddress = 0x5B38Da6a701c568545dCfcB03FcB875f56beddC4 */\n    tag_8:\n      tag_31\n      tag_32\n      jump\t// in\n    tag_31:\n      mload(0x40)\n      tag_33\n      swap2\n      swap1\n      tag_12\n      jump\t// in\n    tag_33:\n      mload(0x40)\n      dup1\n      swap2\n      sub\n      swap1\n      return\n        /* \"contracts/TransactionHistory.sol\":183:213  address public campaignAddress */\n    tag_10:\n      0x01\n      0x00\n      swap1\n      sload\n      swap1\n      0x0100\n      exp\n      swap1\n      div\n      0xffffffffffffffffffffffffffffffffffffffff\n      and\n      dup2\n      jump\t// out\n        /* \"contracts/TransactionHistory.sol\":362:407  TransactionInfo[] public transactionInfoArray */\n    tag_16:\n      0x02\n      dup2\n      dup2\n      sload\n      dup2\n      lt\n      tag_34\n      jumpi\n      0x00\n      dup1\n      revert\n    tag_34:\n      swap1\n      0x00\n      mstore\n      keccak256(0x00, 0x20)\n      swap1\n      0x04\n      mul\n      add\n      0x00\n      swap2\n      pop\n      swap1\n      pop\n      dup1\n      0x00\n      add\n      dup1\n      sload\n      tag_36\n      swap1\n      tag_37\n      jump\t// in\n    tag_36:\n      dup1\n      0x1f\n      add\n      0x20\n      dup1\n      swap2\n      div\n      mul\n      0x20\n      add\n      mload(0x40)\n      swap1\n      dup2\n      add\n      0x40\n      mstore\n      dup1\n      swap3\n      swap2\n      swap1\n      dup2\n      dup2\n      mstore\n      0x20\n      add\n      dup3\n      dup1\n      sload\n      tag_38\n      swap1\n      tag_37\n      jump\t// in\n    tag_38:\n      dup1\n      iszero\n      tag_39\n      jumpi\n      dup1\n      0x1f\n      lt\n      tag_40\n      jumpi\n      0x0100\n      dup1\n      dup4\n      sload\n      div\n      mul\n      dup4\n      mstore\n      swap2\n      0x20\n      add\n      swap2\n      jump(tag_39)\n    tag_40:\n      dup3\n      add\n      swap2\n      swap1\n      0x00\n      mstore\n      keccak256(0x00, 0x20)\n      swap1\n    tag_41:\n      dup2\n      sload\n      dup2\n      mstore\n      swap1\n      0x01\n      add\n      swap1\n      0x20\n      add\n      dup1\n      dup4\n      gt\n      tag_41\n      jumpi\n      dup3\n      swap1\n      sub\n      0x1f\n      and\n      dup3\n      add\n      swap2\n    tag_39:\n      pop\n      pop\n      pop\n      pop\n      pop\n      swap1\n      dup1\n      0x01\n      add\n      dup1\n      sload\n      tag_42\n      swap1\n      tag_37\n      jump\t// in\n    tag_42:\n      dup1\n      0x1f\n      add\n      0x20\n      dup1\n      swap2\n      div\n      mul\n      0x20\n      add\n      mload(0x40)\n      swap1\n      dup2\n      add\n      0x40\n      mstore\n      dup1\n      swap3\n      swap2\n      swap1\n      dup2\n      dup2\n      mstore\n      0x20\n      add\n      dup3\n      dup1\n      sload\n      tag_43\n      swap1\n      tag_37\n      jump\t// in\n    tag_43:\n      dup1\n      iszero\n      tag_44\n      jumpi\n      dup1\n      0x1f\n      lt\n      tag_45\n      jumpi\n      0x0100\n      dup1\n      dup4\n      sload\n      div\n      mul\n      dup4\n      mstore\n      swap2\n      0x20\n      add\n      swap2\n      jump(tag_44)\n    tag_45:\n      dup3\n      add\n      swap2\n      swap1\n      0x00\n      mstore\n      keccak256(0x00, 0x20)\n      swap1\n    tag_46:\n      dup2\n      sload\n      dup2\n      mstore\n      swap1\n      0x01\n      add\n      swap1\n      0x20\n      add\n      dup1\n      dup4\n      gt\n      tag_46\n      jumpi\n      dup3\n      swap1\n      sub\n      0x1f\n      and\n      dup3\n      add\n      swap2\n    tag_44:\n      pop\n      pop\n      pop\n      pop\n      pop\n      swap1\n      dup1\n      0x02\n      add\n      sload\n      swap1\n      dup1\n      0x03\n      add\n      sload\n      swap1\n      pop\n      dup5\n      jump\t// out\n        /* \"contracts/TransactionHistory.sol\":1288:1418  function setCampaignAddress(address _campaignAddress) public onlyAdminAddress{... */\n    tag_22:\n        /* \"contracts/TransactionHistory.sol\":636:648  adminAddress */\n      0x00\n      dup1\n      sload\n      swap1\n      0x0100\n      exp\n      swap1\n      div\n      0xffffffffffffffffffffffffffffffffffffffff\n      and\n        /* \"contracts/TransactionHistory.sol\":622:648  msg.sender == adminAddress */\n      0xffffffffffffffffffffffffffffffffffffffff\n      and\n        /* \"contracts/TransactionHistory.sol\":622:632  msg.sender */\n      caller\n        /* \"contracts/TransactionHistory.sol\":622:648  msg.sender == adminAddress */\n      0xffffffffffffffffffffffffffffffffffffffff\n      and\n      eq\n        /* \"contracts/TransactionHistory.sol\":614:694  require(msg.sender == adminAddress, \"Only campaign contract call this function\") */\n      tag_48\n      jumpi\n      mload(0x40)\n      0x08c379a000000000000000000000000000000000000000000000000000000000\n      dup2\n      mstore\n      0x04\n      add\n      tag_49\n      swap1\n      tag_50\n      jump\t// in\n    tag_49:\n      mload(0x40)\n      dup1\n      swap2\n      sub\n      swap1\n      revert\n    tag_48:\n        /* \"contracts/TransactionHistory.sol\":1394:1410  _campaignAddress */\n      dup1\n        /* \"contracts/TransactionHistory.sol\":1376:1391  campaignAddress */\n      0x01\n      0x00\n        /* \"contracts/TransactionHistory.sol\":1376:1410  campaignAddress = _campaignAddress */\n      0x0100\n      exp\n      dup2\n      sload\n      dup2\n      0xffffffffffffffffffffffffffffffffffffffff\n      mul\n      not\n      and\n      swap1\n      dup4\n      0xffffffffffffffffffffffffffffffffffffffff\n      and\n      mul\n      or\n      swap1\n      sstore\n      pop\n        /* \"contracts/TransactionHistory.sol\":1288:1418  function setCampaignAddress(address _campaignAddress) public onlyAdminAddress{... */\n      pop\n      jump\t// out\n        /* \"contracts/TransactionHistory.sol\":723:1145  function addNewTransactionHistory(string memory campaignId, string memory donatorId, uint value, uint256 time) external onlyCampaignContract{... */\n    tag_26:\n        /* \"contracts/TransactionHistory.sol\":485:500  campaignAddress */\n      0x01\n      0x00\n      swap1\n      sload\n      swap1\n      0x0100\n      exp\n      swap1\n      div\n      0xffffffffffffffffffffffffffffffffffffffff\n      and\n        /* \"contracts/TransactionHistory.sol\":471:500  msg.sender == campaignAddress */\n      0xffffffffffffffffffffffffffffffffffffffff\n      and\n        /* \"contracts/TransactionHistory.sol\":471:481  msg.sender */\n      caller\n        /* \"contracts/TransactionHistory.sol\":471:500  msg.sender == campaignAddress */\n      0xffffffffffffffffffffffffffffffffffffffff\n      and\n      eq\n        /* \"contracts/TransactionHistory.sol\":463:546  require(msg.sender == campaignAddress, \"Only campaign contract call this function\") */\n      tag_53\n      jumpi\n      mload(0x40)\n      0x08c379a000000000000000000000000000000000000000000000000000000000\n      dup2\n      mstore\n      0x04\n      add\n      tag_54\n      swap1\n      tag_50\n      jump\t// in\n    tag_54:\n      mload(0x40)\n      dup1\n      swap2\n      sub\n      swap1\n      revert\n    tag_53:\n        /* \"contracts/TransactionHistory.sol\":874:911  TransactionInfo memory newTransaction */\n      tag_56\n      tag_57\n      jump\t// in\n    tag_56:\n        /* \"contracts/TransactionHistory.sol\":950:960  campaignId */\n      dup5\n        /* \"contracts/TransactionHistory.sol\":922:936  newTransaction */\n      dup2\n        /* \"contracts/TransactionHistory.sol\":922:947  newTransaction.campaignId */\n      0x00\n      add\n        /* \"contracts/TransactionHistory.sol\":922:960  newTransaction.campaignId = campaignId */\n      dup2\n      swap1\n      mstore\n      pop\n        /* \"contracts/TransactionHistory.sol\":998:1007  donatorId */\n      dup4\n        /* \"contracts/TransactionHistory.sol\":971:985  newTransaction */\n      dup2\n        /* \"contracts/TransactionHistory.sol\":971:995  newTransaction.donatorId */\n      0x20\n      add\n        /* \"contracts/TransactionHistory.sol\":971:1007  newTransaction.donatorId = donatorId */\n      dup2\n      swap1\n      mstore\n      pop\n        /* \"contracts/TransactionHistory.sol\":1041:1046  value */\n      dup3\n        /* \"contracts/TransactionHistory.sol\":1018:1032  newTransaction */\n      dup2\n        /* \"contracts/TransactionHistory.sol\":1018:1038  newTransaction.value */\n      0x40\n      add\n        /* \"contracts/TransactionHistory.sol\":1018:1046  newTransaction.value = value */\n      dup2\n      dup2\n      mstore\n      pop\n      pop\n        /* \"contracts/TransactionHistory.sol\":1079:1083  time */\n      dup2\n        /* \"contracts/TransactionHistory.sol\":1057:1071  newTransaction */\n      dup2\n        /* \"contracts/TransactionHistory.sol\":1057:1076  newTransaction.time */\n      0x60\n      add\n        /* \"contracts/TransactionHistory.sol\":1057:1083  newTransaction.time = time */\n      dup2\n      dup2\n      mstore\n      pop\n      pop\n        /* \"contracts/TransactionHistory.sol\":1096:1116  transactionInfoArray */\n      0x02\n        /* \"contracts/TransactionHistory.sol\":1122:1136  newTransaction */\n      dup2\n        /* \"contracts/TransactionHistory.sol\":1096:1137  transactionInfoArray.push(newTransaction) */\n      swap1\n      dup1\n      0x01\n      dup2\n      sload\n      add\n      dup1\n      dup3\n      sstore\n      dup1\n      swap2\n      pop\n      pop\n      0x01\n      swap1\n      sub\n      swap1\n      0x00\n      mstore\n      keccak256(0x00, 0x20)\n      swap1\n      0x04\n      mul\n      add\n      0x00\n      swap1\n      swap2\n      swap1\n      swap2\n      swap1\n      swap2\n      pop\n      0x00\n      dup3\n      add\n      mload\n      dup2\n      0x00\n      add\n      swap1\n      dup2\n      tag_59\n      swap2\n      swap1\n      tag_60\n      jump\t// in\n    tag_59:\n      pop\n      0x20\n      dup3\n      add\n      mload\n      dup2\n      0x01\n      add\n      swap1\n      dup2\n      tag_61\n      swap2\n      swap1\n      tag_60\n      jump\t// in\n    tag_61:\n      pop\n      0x40\n      dup3\n      add\n      mload\n      dup2\n      0x02\n      add\n      sstore\n      0x60\n      dup3\n      add\n      mload\n      dup2\n      0x03\n      add\n      sstore\n      pop\n      pop\n        /* \"contracts/TransactionHistory.sol\":863:1145  {... */\n      pop\n        /* \"contracts/TransactionHistory.sol\":723:1145  function addNewTransactionHistory(string memory campaignId, string memory donatorId, uint value, uint256 time) external onlyCampaignContract{... */\n      pop\n      pop\n      pop\n      pop\n      jump\t// out\n        /* \"contracts/TransactionHistory.sol\":1157:1280  function getAllTransaction() external view returns (TransactionInfo[] memory){... */\n    tag_28:\n        /* \"contracts/TransactionHistory.sol\":1209:1233  TransactionInfo[] memory */\n      0x60\n        /* \"contracts/TransactionHistory.sol\":1252:1272  transactionInfoArray */\n      0x02\n        /* \"contracts/TransactionHistory.sol\":1245:1272  return transactionInfoArray */\n      dup1\n      sload\n      dup1\n      0x20\n      mul\n      0x20\n      add\n      mload(0x40)\n      swap1\n      dup2\n      add\n      0x40\n      mstore\n      dup1\n      swap3\n      swap2\n      swap1\n      dup2\n      dup2\n      mstore\n      0x20\n      add\n      0x00\n      swap1\n    tag_63:\n      dup3\n      dup3\n      lt\n      iszero\n      tag_64\n      jumpi\n      dup4\n      dup3\n      swap1\n      0x00\n      mstore\n      keccak256(0x00, 0x20)\n      swap1\n      0x04\n      mul\n      add\n      mload(0x40)\n      dup1\n      0x80\n      add\n      0x40\n      mstore\n      swap1\n      dup2\n      0x00\n      dup3\n      add\n      dup1\n      sload\n      tag_66\n      swap1\n      tag_37\n      jump\t// in\n    tag_66:\n      dup1\n      0x1f\n      add\n      0x20\n      dup1\n      swap2\n      div\n      mul\n      0x20\n      add\n      mload(0x40)\n      swap1\n      dup2\n      add\n      0x40\n      mstore\n      dup1\n      swap3\n      swap2\n      swap1\n      dup2\n      dup2\n      mstore\n      0x20\n      add\n      dup3\n      dup1\n      sload\n      tag_67\n      swap1\n      tag_37\n      jump\t// in\n    tag_67:\n      dup1\n      iszero\n      tag_68\n      jumpi\n      dup1\n      0x1f\n      lt\n      tag_69\n      jumpi\n      0x0100\n      dup1\n      dup4\n      sload\n      div\n      mul\n      dup4\n      mstore\n      swap2\n      0x20\n      add\n      swap2\n      jump(tag_68)\n    tag_69:\n      dup3\n      add\n      swap2\n      swap1\n      0x00\n      mstore\n      keccak256(0x00, 0x20)\n      swap1\n    tag_70:\n      dup2\n      sload\n      dup2\n      mstore\n      swap1\n      0x01\n      add\n      swap1\n      0x20\n      add\n      dup1\n      dup4\n      gt\n      tag_70\n      jumpi\n      dup3\n      swap1\n      sub\n      0x1f\n      and\n      dup3\n      add\n      swap2\n    tag_68:\n      pop\n      pop\n      pop\n      pop\n      pop\n      dup2\n      mstore\n      0x20\n      add\n      0x01\n      dup3\n      add\n      dup1\n      sload\n      tag_71\n      swap1\n      tag_37\n      jump\t// in\n    tag_71:\n      dup1\n      0x1f\n      add\n      0x20\n      dup1\n      swap2\n      div\n      mul\n      0x20\n      add\n      mload(0x40)\n      swap1\n      dup2\n      add\n      0x40\n      mstore\n      dup1\n      swap3\n      swap2\n      swap1\n      dup2\n      dup2\n      mstore\n      0x20\n      add\n      dup3\n      dup1\n      sload\n      tag_72\n      swap1\n      tag_37\n      jump\t// in\n    tag_72:\n      dup1\n      iszero\n      tag_73\n      jumpi\n      dup1\n      0x1f\n      lt\n      tag_74\n      jumpi\n      0x0100\n      dup1\n      dup4\n      sload\n      div\n      mul\n      dup4\n      mstore\n      swap2\n      0x20\n      add\n      swap2\n      jump(tag_73)\n    tag_74:\n      dup3\n      add\n      swap2\n      swap1\n      0x00\n      mstore\n      keccak256(0x00, 0x20)\n      swap1\n    tag_75:\n      dup2\n      sload\n      dup2\n      mstore\n      swap1\n      0x01\n      add\n      swap1\n      0x20\n      add\n      dup1\n      dup4\n      gt\n      tag_75\n      jumpi\n      dup3\n      swap1\n      sub\n      0x1f\n      and\n      dup3\n      add\n      swap2\n    tag_73:\n      pop\n      pop\n      pop\n      pop\n      pop\n      dup2\n      mstore\n      0x20\n      add\n      0x02\n      dup3\n      add\n      sload\n      dup2\n      mstore\n      0x20\n      add\n      0x03\n      dup3\n      add\n      sload\n      dup2\n      mstore\n      pop\n      pop\n      dup2\n      mstore\n      0x20\n      add\n      swap1\n      0x01\n      add\n      swap1\n      jump(tag_63)\n    tag_64:\n      pop\n      pop\n      pop\n      pop\n      swap1\n      pop\n        /* \"contracts/TransactionHistory.sol\":1157:1280  function getAllTransaction() external view returns (TransactionInfo[] memory){... */\n      swap1\n      jump\t// out\n        /* \"contracts/TransactionHistory.sol\":104:176  address public adminAddress = 0x5B38Da6a701c568545dCfcB03FcB875f56beddC4 */\n    tag_32:\n      0x00\n      dup1\n      sload\n      swap1\n      0x0100\n      exp\n      swap1\n      div\n      0xffffffffffffffffffffffffffffffffffffffff\n      and\n      dup2\n      jump\t// out\n    tag_57:\n      mload(0x40)\n      dup1\n      0x80\n      add\n      0x40\n      mstore\n      dup1\n      0x60\n      dup2\n      mstore\n      0x20\n      add\n      0x60\n      dup2\n      mstore\n      0x20\n      add\n      0x00\n      dup2\n      mstore\n      0x20\n      add\n      0x00\n      dup2\n      mstore\n      pop\n      swap1\n      jump\t// out\n        /* \"#utility.yul\":7:133   */\n    tag_76:\n        /* \"#utility.yul\":44:51   */\n      0x00\n        /* \"#utility.yul\":84:126   */\n      0xffffffffffffffffffffffffffffffffffffffff\n        /* \"#utility.yul\":77:82   */\n      dup3\n        /* \"#utility.yul\":73:127   */\n      and\n        /* \"#utility.yul\":62:127   */\n      swap1\n      pop\n        /* \"#utility.yul\":7:133   */\n      swap2\n      swap1\n      pop\n      jump\t// out\n        /* \"#utility.yul\":139:235   */\n    tag_77:\n        /* \"#utility.yul\":176:183   */\n      0x00\n        /* \"#utility.yul\":205:229   */\n      tag_133\n        /* \"#utility.yul\":223:228   */\n      dup3\n        /* \"#utility.yul\":205:229   */\n      tag_76\n      jump\t// in\n    tag_133:\n        /* \"#utility.yul\":194:229   */\n      swap1\n      pop\n        /* \"#utility.yul\":139:235   */\n      swap2\n      swap1\n      pop\n      jump\t// out\n        /* \"#utility.yul\":241:359   */\n    tag_78:\n        /* \"#utility.yul\":328:352   */\n      tag_135\n        /* \"#utility.yul\":346:351   */\n      dup2\n        /* \"#utility.yul\":328:352   */\n      tag_77\n      jump\t// in\n    tag_135:\n        /* \"#utility.yul\":323:326   */\n      dup3\n        /* \"#utility.yul\":316:353   */\n      mstore\n        /* \"#utility.yul\":241:359   */\n      pop\n      pop\n      jump\t// out\n        /* \"#utility.yul\":365:587   */\n    tag_12:\n        /* \"#utility.yul\":458:462   */\n      0x00\n        /* \"#utility.yul\":496:498   */\n      0x20\n        /* \"#utility.yul\":485:494   */\n      dup3\n        /* \"#utility.yul\":481:499   */\n      add\n        /* \"#utility.yul\":473:499   */\n      swap1\n      pop\n        /* \"#utility.yul\":509:580   */\n      tag_137\n        /* \"#utility.yul\":577:578   */\n      0x00\n        /* \"#utility.yul\":566:575   */\n      dup4\n        /* \"#utility.yul\":562:579   */\n      add\n        /* \"#utility.yul\":553:559   */\n      dup5\n        /* \"#utility.yul\":509:580   */\n      tag_78\n      jump\t// in\n    tag_137:\n        /* \"#utility.yul\":365:587   */\n      swap3\n      swap2\n      pop\n      pop\n      jump\t// out\n        /* \"#utility.yul\":593:668   */\n    tag_79:\n        /* \"#utility.yul\":626:632   */\n      0x00\n        /* \"#utility.yul\":659:661   */\n      0x40\n        /* \"#utility.yul\":653:662   */\n      mload\n        /* \"#utility.yul\":643:662   */\n      swap1\n      pop\n        /* \"#utility.yul\":593:668   */\n      swap1\n      jump\t// out\n        /* \"#utility.yul\":674:791   */\n    tag_80:\n        /* \"#utility.yul\":783:784   */\n      0x00\n        /* \"#utility.yul\":780:781   */\n      dup1\n        /* \"#utility.yul\":773:785   */\n      revert\n        /* \"#utility.yul\":797:914   */\n    tag_81:\n        /* \"#utility.yul\":906:907   */\n      0x00\n        /* \"#utility.yul\":903:904   */\n      dup1\n        /* \"#utility.yul\":896:908   */\n      revert\n        /* \"#utility.yul\":920:997   */\n    tag_82:\n        /* \"#utility.yul\":957:964   */\n      0x00\n        /* \"#utility.yul\":986:991   */\n      dup2\n        /* \"#utility.yul\":975:991   */\n      swap1\n      pop\n        /* \"#utility.yul\":920:997   */\n      swap2\n      swap1\n      pop\n      jump\t// out\n        /* \"#utility.yul\":1003:1125   */\n    tag_83:\n        /* \"#utility.yul\":1076:1100   */\n      tag_143\n        /* \"#utility.yul\":1094:1099   */\n      dup2\n        /* \"#utility.yul\":1076:1100   */\n      tag_82\n      jump\t// in\n    tag_143:\n        /* \"#utility.yul\":1069:1074   */\n      dup2\n        /* \"#utility.yul\":1066:1101   */\n      eq\n        /* \"#utility.yul\":1056:1119   */\n      tag_144\n      jumpi\n        /* \"#utility.yul\":1115:1116   */\n      0x00\n        /* \"#utility.yul\":1112:1113   */\n      dup1\n        /* \"#utility.yul\":1105:1117   */\n      revert\n        /* \"#utility.yul\":1056:1119   */\n    tag_144:\n        /* \"#utility.yul\":1003:1125   */\n      pop\n      jump\t// out\n        /* \"#utility.yul\":1131:1270   */\n    tag_84:\n        /* \"#utility.yul\":1177:1182   */\n      0x00\n        /* \"#utility.yul\":1215:1221   */\n      dup2\n        /* \"#utility.yul\":1202:1222   */\n      calldataload\n        /* \"#utility.yul\":1193:1222   */\n      swap1\n      pop\n        /* \"#utility.yul\":1231:1264   */\n      tag_146\n        /* \"#utility.yul\":1258:1263   */\n      dup2\n        /* \"#utility.yul\":1231:1264   */\n      tag_83\n      jump\t// in\n    tag_146:\n        /* \"#utility.yul\":1131:1270   */\n      swap3\n      swap2\n      pop\n      pop\n      jump\t// out\n        /* \"#utility.yul\":1276:1605   */\n    tag_15:\n        /* \"#utility.yul\":1335:1341   */\n      0x00\n        /* \"#utility.yul\":1384:1386   */\n      0x20\n        /* \"#utility.yul\":1372:1381   */\n      dup3\n        /* \"#utility.yul\":1363:1370   */\n      dup5\n        /* \"#utility.yul\":1359:1382   */\n      sub\n        /* \"#utility.yul\":1355:1387   */\n      slt\n        /* \"#utility.yul\":1352:1471   */\n      iszero\n      tag_148\n      jumpi\n        /* \"#utility.yul\":1390:1469   */\n      tag_149\n      tag_80\n      jump\t// in\n    tag_149:\n        /* \"#utility.yul\":1352:1471   */\n    tag_148:\n        /* \"#utility.yul\":1510:1511   */\n      0x00\n        /* \"#utility.yul\":1535:1588   */\n      tag_150\n        /* \"#utility.yul\":1580:1587   */\n      dup5\n        /* \"#utility.yul\":1571:1577   */\n      dup3\n        /* \"#utility.yul\":1560:1569   */\n      dup6\n        /* \"#utility.yul\":1556:1578   */\n      add\n        /* \"#utility.yul\":1535:1588   */\n      tag_84\n      jump\t// in\n    tag_150:\n        /* \"#utility.yul\":1525:1588   */\n      swap2\n      pop\n        /* \"#utility.yul\":1481:1598   */\n      pop\n        /* \"#utility.yul\":1276:1605   */\n      swap3\n      swap2\n      pop\n      pop\n      jump\t// out\n        /* \"#utility.yul\":1611:1710   */\n    tag_85:\n        /* \"#utility.yul\":1663:1669   */\n      0x00\n        /* \"#utility.yul\":1697:1702   */\n      dup2\n        /* \"#utility.yul\":1691:1703   */\n      mload\n        /* \"#utility.yul\":1681:1703   */\n      swap1\n      pop\n        /* \"#utility.yul\":1611:1710   */\n      swap2\n      swap1\n      pop\n      jump\t// out\n        /* \"#utility.yul\":1716:1885   */\n    tag_86:\n        /* \"#utility.yul\":1800:1811   */\n      0x00\n        /* \"#utility.yul\":1834:1840   */\n      dup3\n        /* \"#utility.yul\":1829:1832   */\n      dup3\n        /* \"#utility.yul\":1822:1841   */\n      mstore\n        /* \"#utility.yul\":1874:1878   */\n      0x20\n        /* \"#utility.yul\":1869:1872   */\n      dup3\n        /* \"#utility.yul\":1865:1879   */\n      add\n        /* \"#utility.yul\":1850:1879   */\n      swap1\n      pop\n        /* \"#utility.yul\":1716:1885   */\n      swap3\n      swap2\n      pop\n      pop\n      jump\t// out\n        /* \"#utility.yul\":1891:2137   */\n    tag_87:\n        /* \"#utility.yul\":1972:1973   */\n      0x00\n        /* \"#utility.yul\":1982:2095   */\n    tag_154:\n        /* \"#utility.yul\":1996:2002   */\n      dup4\n        /* \"#utility.yul\":1993:1994   */\n      dup2\n        /* \"#utility.yul\":1990:2003   */\n      lt\n        /* \"#utility.yul\":1982:2095   */\n      iszero\n      tag_156\n      jumpi\n        /* \"#utility.yul\":2081:2082   */\n      dup1\n        /* \"#utility.yul\":2076:2079   */\n      dup3\n        /* \"#utility.yul\":2072:2083   */\n      add\n        /* \"#utility.yul\":2066:2084   */\n      mload\n        /* \"#utility.yul\":2062:2063   */\n      dup2\n        /* \"#utility.yul\":2057:2060   */\n      dup5\n        /* \"#utility.yul\":2053:2064   */\n      add\n        /* \"#utility.yul\":2046:2085   */\n      mstore\n        /* \"#utility.yul\":2018:2020   */\n      0x20\n        /* \"#utility.yul\":2015:2016   */\n      dup2\n        /* \"#utility.yul\":2011:2021   */\n      add\n        /* \"#utility.yul\":2006:2021   */\n      swap1\n      pop\n        /* \"#utility.yul\":1982:2095   */\n      jump(tag_154)\n    tag_156:\n        /* \"#utility.yul\":2129:2130   */\n      0x00\n        /* \"#utility.yul\":2120:2126   */\n      dup5\n        /* \"#utility.yul\":2115:2118   */\n      dup5\n        /* \"#utility.yul\":2111:2127   */\n      add\n        /* \"#utility.yul\":2104:2131   */\n      mstore\n        /* \"#utility.yul\":1953:2137   */\n      pop\n        /* \"#utility.yul\":1891:2137   */\n      pop\n      pop\n      pop\n      jump\t// out\n        /* \"#utility.yul\":2143:2245   */\n    tag_88:\n        /* \"#utility.yul\":2184:2190   */\n      0x00\n        /* \"#utility.yul\":2235:2237   */\n      0x1f\n        /* \"#utility.yul\":2231:2238   */\n      not\n        /* \"#utility.yul\":2226:2228   */\n      0x1f\n        /* \"#utility.yul\":2219:2224   */\n      dup4\n        /* \"#utility.yul\":2215:2229   */\n      add\n        /* \"#utility.yul\":2211:2239   */\n      and\n        /* \"#utility.yul\":2201:2239   */\n      swap1\n      pop\n        /* \"#utility.yul\":2143:2245   */\n      swap2\n      swap1\n      pop\n      jump\t// out\n        /* \"#utility.yul\":2251:2628   */\n    tag_89:\n        /* \"#utility.yul\":2339:2342   */\n      0x00\n        /* \"#utility.yul\":2367:2406   */\n      tag_159\n        /* \"#utility.yul\":2400:2405   */\n      dup3\n        /* \"#utility.yul\":2367:2406   */\n      tag_85\n      jump\t// in\n    tag_159:\n        /* \"#utility.yul\":2422:2493   */\n      tag_160\n        /* \"#utility.yul\":2486:2492   */\n      dup2\n        /* \"#utility.yul\":2481:2484   */\n      dup6\n        /* \"#utility.yul\":2422:2493   */\n      tag_86\n      jump\t// in\n    tag_160:\n        /* \"#utility.yul\":2415:2493   */\n      swap4\n      pop\n        /* \"#utility.yul\":2502:2567   */\n      tag_161\n        /* \"#utility.yul\":2560:2566   */\n      dup2\n        /* \"#utility.yul\":2555:2558   */\n      dup6\n        /* \"#utility.yul\":2548:2552   */\n      0x20\n        /* \"#utility.yul\":2541:2546   */\n      dup7\n        /* \"#utility.yul\":2537:2553   */\n      add\n        /* \"#utility.yul\":2502:2567   */\n      tag_87\n      jump\t// in\n    tag_161:\n        /* \"#utility.yul\":2592:2621   */\n      tag_162\n        /* \"#utility.yul\":2614:2620   */\n      dup2\n        /* \"#utility.yul\":2592:2621   */\n      tag_88\n      jump\t// in\n    tag_162:\n        /* \"#utility.yul\":2587:2590   */\n      dup5\n        /* \"#utility.yul\":2583:2622   */\n      add\n        /* \"#utility.yul\":2576:2622   */\n      swap2\n      pop\n        /* \"#utility.yul\":2343:2628   */\n      pop\n        /* \"#utility.yul\":2251:2628   */\n      swap3\n      swap2\n      pop\n      pop\n      jump\t// out\n        /* \"#utility.yul\":2634:2752   */\n    tag_90:\n        /* \"#utility.yul\":2721:2745   */\n      tag_164\n        /* \"#utility.yul\":2739:2744   */\n      dup2\n        /* \"#utility.yul\":2721:2745   */\n      tag_82\n      jump\t// in\n    tag_164:\n        /* \"#utility.yul\":2716:2719   */\n      dup3\n        /* \"#utility.yul\":2709:2746   */\n      mstore\n        /* \"#utility.yul\":2634:2752   */\n      pop\n      pop\n      jump\t// out\n        /* \"#utility.yul\":2758:3493   */\n    tag_18:\n        /* \"#utility.yul\":2975:2979   */\n      0x00\n        /* \"#utility.yul\":3013:3016   */\n      0x80\n        /* \"#utility.yul\":3002:3011   */\n      dup3\n        /* \"#utility.yul\":2998:3017   */\n      add\n        /* \"#utility.yul\":2990:3017   */\n      swap1\n      pop\n        /* \"#utility.yul\":3063:3072   */\n      dup2\n        /* \"#utility.yul\":3057:3061   */\n      dup2\n        /* \"#utility.yul\":3053:3073   */\n      sub\n        /* \"#utility.yul\":3049:3050   */\n      0x00\n        /* \"#utility.yul\":3038:3047   */\n      dup4\n        /* \"#utility.yul\":3034:3051   */\n      add\n        /* \"#utility.yul\":3027:3074   */\n      mstore\n        /* \"#utility.yul\":3091:3169   */\n      tag_166\n        /* \"#utility.yul\":3164:3168   */\n      dup2\n        /* \"#utility.yul\":3155:3161   */\n      dup8\n        /* \"#utility.yul\":3091:3169   */\n      tag_89\n      jump\t// in\n    tag_166:\n        /* \"#utility.yul\":3083:3169   */\n      swap1\n      pop\n        /* \"#utility.yul\":3216:3225   */\n      dup2\n        /* \"#utility.yul\":3210:3214   */\n      dup2\n        /* \"#utility.yul\":3206:3226   */\n      sub\n        /* \"#utility.yul\":3201:3203   */\n      0x20\n        /* \"#utility.yul\":3190:3199   */\n      dup4\n        /* \"#utility.yul\":3186:3204   */\n      add\n        /* \"#utility.yul\":3179:3227   */\n      mstore\n        /* \"#utility.yul\":3244:3322   */\n      tag_167\n        /* \"#utility.yul\":3317:3321   */\n      dup2\n        /* \"#utility.yul\":3308:3314   */\n      dup7\n        /* \"#utility.yul\":3244:3322   */\n      tag_89\n      jump\t// in\n    tag_167:\n        /* \"#utility.yul\":3236:3322   */\n      swap1\n      pop\n        /* \"#utility.yul\":3332:3404   */\n      tag_168\n        /* \"#utility.yul\":3400:3402   */\n      0x40\n        /* \"#utility.yul\":3389:3398   */\n      dup4\n        /* \"#utility.yul\":3385:3403   */\n      add\n        /* \"#utility.yul\":3376:3382   */\n      dup6\n        /* \"#utility.yul\":3332:3404   */\n      tag_90\n      jump\t// in\n    tag_168:\n        /* \"#utility.yul\":3414:3486   */\n      tag_169\n        /* \"#utility.yul\":3482:3484   */\n      0x60\n        /* \"#utility.yul\":3471:3480   */\n      dup4\n        /* \"#utility.yul\":3467:3485   */\n      add\n        /* \"#utility.yul\":3458:3464   */\n      dup5\n        /* \"#utility.yul\":3414:3486   */\n      tag_90\n      jump\t// in\n    tag_169:\n        /* \"#utility.yul\":2758:3493   */\n      swap6\n      swap5\n      pop\n      pop\n      pop\n      pop\n      pop\n      jump\t// out\n        /* \"#utility.yul\":3499:3621   */\n    tag_91:\n        /* \"#utility.yul\":3572:3596   */\n      tag_171\n        /* \"#utility.yul\":3590:3595   */\n      dup2\n        /* \"#utility.yul\":3572:3596   */\n      tag_77\n      jump\t// in\n    tag_171:\n        /* \"#utility.yul\":3565:3570   */\n      dup2\n        /* \"#utility.yul\":3562:3597   */\n      eq\n        /* \"#utility.yul\":3552:3615   */\n      tag_172\n      jumpi\n        /* \"#utility.yul\":3611:3612   */\n      0x00\n        /* \"#utility.yul\":3608:3609   */\n      dup1\n        /* \"#utility.yul\":3601:3613   */\n      revert\n        /* \"#utility.yul\":3552:3615   */\n    tag_172:\n        /* \"#utility.yul\":3499:3621   */\n      pop\n      jump\t// out\n        /* \"#utility.yul\":3627:3766   */\n    tag_92:\n        /* \"#utility.yul\":3673:3678   */\n      0x00\n        /* \"#utility.yul\":3711:3717   */\n      dup2\n        /* \"#utility.yul\":3698:3718   */\n      calldataload\n        /* \"#utility.yul\":3689:3718   */\n      swap1\n      pop\n        /* \"#utility.yul\":3727:3760   */\n      tag_174\n        /* \"#utility.yul\":3754:3759   */\n      dup2\n        /* \"#utility.yul\":3727:3760   */\n      tag_91\n      jump\t// in\n    tag_174:\n        /* \"#utility.yul\":3627:3766   */\n      swap3\n      swap2\n      pop\n      pop\n      jump\t// out\n        /* \"#utility.yul\":3772:4101   */\n    tag_21:\n        /* \"#utility.yul\":3831:3837   */\n      0x00\n        /* \"#utility.yul\":3880:3882   */\n      0x20\n        /* \"#utility.yul\":3868:3877   */\n      dup3\n        /* \"#utility.yul\":3859:3866   */\n      dup5\n        /* \"#utility.yul\":3855:3878   */\n      sub\n        /* \"#utility.yul\":3851:3883   */\n      slt\n        /* \"#utility.yul\":3848:3967   */\n      iszero\n      tag_176\n      jumpi\n        /* \"#utility.yul\":3886:3965   */\n      tag_177\n      tag_80\n      jump\t// in\n    tag_177:\n        /* \"#utility.yul\":3848:3967   */\n    tag_176:\n        /* \"#utility.yul\":4006:4007   */\n      0x00\n        /* \"#utility.yul\":4031:4084   */\n      tag_178\n        /* \"#utility.yul\":4076:4083   */\n      dup5\n        /* \"#utility.yul\":4067:4073   */\n      dup3\n        /* \"#utility.yul\":4056:4065   */\n      dup6\n        /* \"#utility.yul\":4052:4074   */\n      add\n        /* \"#utility.yul\":4031:4084   */\n      tag_92\n      jump\t// in\n    tag_178:\n        /* \"#utility.yul\":4021:4084   */\n      swap2\n      pop\n        /* \"#utility.yul\":3977:4094   */\n      pop\n        /* \"#utility.yul\":3772:4101   */\n      swap3\n      swap2\n      pop\n      pop\n      jump\t// out\n        /* \"#utility.yul\":4107:4224   */\n    tag_93:\n        /* \"#utility.yul\":4216:4217   */\n      0x00\n        /* \"#utility.yul\":4213:4214   */\n      dup1\n        /* \"#utility.yul\":4206:4218   */\n      revert\n        /* \"#utility.yul\":4230:4347   */\n    tag_94:\n        /* \"#utility.yul\":4339:4340   */\n      0x00\n        /* \"#utility.yul\":4336:4337   */\n      dup1\n        /* \"#utility.yul\":4329:4341   */\n      revert\n        /* \"#utility.yul\":4353:4533   */\n    tag_95:\n        /* \"#utility.yul\":4401:4478   */\n      0x4e487b7100000000000000000000000000000000000000000000000000000000\n        /* \"#utility.yul\":4398:4399   */\n      0x00\n        /* \"#utility.yul\":4391:4479   */\n      mstore\n        /* \"#utility.yul\":4498:4502   */\n      0x41\n        /* \"#utility.yul\":4495:4496   */\n      0x04\n        /* \"#utility.yul\":4488:4503   */\n      mstore\n        /* \"#utility.yul\":4522:4526   */\n      0x24\n        /* \"#utility.yul\":4519:4520   */\n      0x00\n        /* \"#utility.yul\":4512:4527   */\n      revert\n        /* \"#utility.yul\":4539:4820   */\n    tag_96:\n        /* \"#utility.yul\":4622:4649   */\n      tag_183\n        /* \"#utility.yul\":4644:4648   */\n      dup3\n        /* \"#utility.yul\":4622:4649   */\n      tag_88\n      jump\t// in\n    tag_183:\n        /* \"#utility.yul\":4614:4620   */\n      dup2\n        /* \"#utility.yul\":4610:4650   */\n      add\n        /* \"#utility.yul\":4752:4758   */\n      dup2\n        /* \"#utility.yul\":4740:4750   */\n      dup2\n        /* \"#utility.yul\":4737:4759   */\n      lt\n        /* \"#utility.yul\":4716:4734   */\n      0xffffffffffffffff\n        /* \"#utility.yul\":4704:4714   */\n      dup3\n        /* \"#utility.yul\":4701:4735   */\n      gt\n        /* \"#utility.yul\":4698:4760   */\n      or\n        /* \"#utility.yul\":4695:4783   */\n      iszero\n      tag_184\n      jumpi\n        /* \"#utility.yul\":4763:4781   */\n      tag_185\n      tag_95\n      jump\t// in\n    tag_185:\n        /* \"#utility.yul\":4695:4783   */\n    tag_184:\n        /* \"#utility.yul\":4803:4813   */\n      dup1\n        /* \"#utility.yul\":4799:4801   */\n      0x40\n        /* \"#utility.yul\":4792:4814   */\n      mstore\n        /* \"#utility.yul\":4582:4820   */\n      pop\n        /* \"#utility.yul\":4539:4820   */\n      pop\n      pop\n      jump\t// out\n        /* \"#utility.yul\":4826:4955   */\n    tag_97:\n        /* \"#utility.yul\":4860:4866   */\n      0x00\n        /* \"#utility.yul\":4887:4907   */\n      tag_187\n      tag_79\n      jump\t// in\n    tag_187:\n        /* \"#utility.yul\":4877:4907   */\n      swap1\n      pop\n        /* \"#utility.yul\":4916:4949   */\n      tag_188\n        /* \"#utility.yul\":4944:4948   */\n      dup3\n        /* \"#utility.yul\":4936:4942   */\n      dup3\n        /* \"#utility.yul\":4916:4949   */\n      tag_96\n      jump\t// in\n    tag_188:\n        /* \"#utility.yul\":4826:4955   */\n      swap2\n      swap1\n      pop\n      jump\t// out\n        /* \"#utility.yul\":4961:5269   */\n    tag_98:\n        /* \"#utility.yul\":5023:5027   */\n      0x00\n        /* \"#utility.yul\":5113:5131   */\n      0xffffffffffffffff\n        /* \"#utility.yul\":5105:5111   */\n      dup3\n        /* \"#utility.yul\":5102:5132   */\n      gt\n        /* \"#utility.yul\":5099:5155   */\n      iszero\n      tag_190\n      jumpi\n        /* \"#utility.yul\":5135:5153   */\n      tag_191\n      tag_95\n      jump\t// in\n    tag_191:\n        /* \"#utility.yul\":5099:5155   */\n    tag_190:\n        /* \"#utility.yul\":5173:5202   */\n      tag_192\n        /* \"#utility.yul\":5195:5201   */\n      dup3\n        /* \"#utility.yul\":5173:5202   */\n      tag_88\n      jump\t// in\n    tag_192:\n        /* \"#utility.yul\":5165:5202   */\n      swap1\n      pop\n        /* \"#utility.yul\":5257:5261   */\n      0x20\n        /* \"#utility.yul\":5251:5255   */\n      dup2\n        /* \"#utility.yul\":5247:5262   */\n      add\n        /* \"#utility.yul\":5239:5262   */\n      swap1\n      pop\n        /* \"#utility.yul\":4961:5269   */\n      swap2\n      swap1\n      pop\n      jump\t// out\n        /* \"#utility.yul\":5275:5421   */\n    tag_99:\n        /* \"#utility.yul\":5372:5378   */\n      dup3\n        /* \"#utility.yul\":5367:5370   */\n      dup2\n        /* \"#utility.yul\":5362:5365   */\n      dup4\n        /* \"#utility.yul\":5349:5379   */\n      calldatacopy\n        /* \"#utility.yul\":5413:5414   */\n      0x00\n        /* \"#utility.yul\":5404:5410   */\n      dup4\n        /* \"#utility.yul\":5399:5402   */\n      dup4\n        /* \"#utility.yul\":5395:5411   */\n      add\n        /* \"#utility.yul\":5388:5415   */\n      mstore\n        /* \"#utility.yul\":5275:5421   */\n      pop\n      pop\n      pop\n      jump\t// out\n        /* \"#utility.yul\":5427:5852   */\n    tag_100:\n        /* \"#utility.yul\":5505:5510   */\n      0x00\n        /* \"#utility.yul\":5530:5596   */\n      tag_195\n        /* \"#utility.yul\":5546:5595   */\n      tag_196\n        /* \"#utility.yul\":5588:5594   */\n      dup5\n        /* \"#utility.yul\":5546:5595   */\n      tag_98\n      jump\t// in\n    tag_196:\n        /* \"#utility.yul\":5530:5596   */\n      tag_97\n      jump\t// in\n    tag_195:\n        /* \"#utility.yul\":5521:5596   */\n      swap1\n      pop\n        /* \"#utility.yul\":5619:5625   */\n      dup3\n        /* \"#utility.yul\":5612:5617   */\n      dup2\n        /* \"#utility.yul\":5605:5626   */\n      mstore\n        /* \"#utility.yul\":5657:5661   */\n      0x20\n        /* \"#utility.yul\":5650:5655   */\n      dup2\n        /* \"#utility.yul\":5646:5662   */\n      add\n        /* \"#utility.yul\":5695:5698   */\n      dup5\n        /* \"#utility.yul\":5686:5692   */\n      dup5\n        /* \"#utility.yul\":5681:5684   */\n      dup5\n        /* \"#utility.yul\":5677:5693   */\n      add\n        /* \"#utility.yul\":5674:5699   */\n      gt\n        /* \"#utility.yul\":5671:5783   */\n      iszero\n      tag_197\n      jumpi\n        /* \"#utility.yul\":5702:5781   */\n      tag_198\n      tag_94\n      jump\t// in\n    tag_198:\n        /* \"#utility.yul\":5671:5783   */\n    tag_197:\n        /* \"#utility.yul\":5792:5846   */\n      tag_199\n        /* \"#utility.yul\":5839:5845   */\n      dup5\n        /* \"#utility.yul\":5834:5837   */\n      dup3\n        /* \"#utility.yul\":5829:5832   */\n      dup6\n        /* \"#utility.yul\":5792:5846   */\n      tag_99\n      jump\t// in\n    tag_199:\n        /* \"#utility.yul\":5511:5852   */\n      pop\n        /* \"#utility.yul\":5427:5852   */\n      swap4\n      swap3\n      pop\n      pop\n      pop\n      jump\t// out\n        /* \"#utility.yul\":5872:6212   */\n    tag_101:\n        /* \"#utility.yul\":5928:5933   */\n      0x00\n        /* \"#utility.yul\":5977:5980   */\n      dup3\n        /* \"#utility.yul\":5970:5974   */\n      0x1f\n        /* \"#utility.yul\":5962:5968   */\n      dup4\n        /* \"#utility.yul\":5958:5975   */\n      add\n        /* \"#utility.yul\":5954:5981   */\n      slt\n        /* \"#utility.yul\":5944:6066   */\n      tag_201\n      jumpi\n        /* \"#utility.yul\":5985:6064   */\n      tag_202\n      tag_93\n      jump\t// in\n    tag_202:\n        /* \"#utility.yul\":5944:6066   */\n    tag_201:\n        /* \"#utility.yul\":6102:6108   */\n      dup2\n        /* \"#utility.yul\":6089:6109   */\n      calldataload\n        /* \"#utility.yul\":6127:6206   */\n      tag_203\n        /* \"#utility.yul\":6202:6205   */\n      dup5\n        /* \"#utility.yul\":6194:6200   */\n      dup3\n        /* \"#utility.yul\":6187:6191   */\n      0x20\n        /* \"#utility.yul\":6179:6185   */\n      dup7\n        /* \"#utility.yul\":6175:6192   */\n      add\n        /* \"#utility.yul\":6127:6206   */\n      tag_100\n      jump\t// in\n    tag_203:\n        /* \"#utility.yul\":6118:6206   */\n      swap2\n      pop\n        /* \"#utility.yul\":5934:6212   */\n      pop\n        /* \"#utility.yul\":5872:6212   */\n      swap3\n      swap2\n      pop\n      pop\n      jump\t// out\n        /* \"#utility.yul\":6218:7343   */\n    tag_25:\n        /* \"#utility.yul\":6324:6330   */\n      0x00\n        /* \"#utility.yul\":6332:6338   */\n      dup1\n        /* \"#utility.yul\":6340:6346   */\n      0x00\n        /* \"#utility.yul\":6348:6354   */\n      dup1\n        /* \"#utility.yul\":6397:6400   */\n      0x80\n        /* \"#utility.yul\":6385:6394   */\n      dup6\n        /* \"#utility.yul\":6376:6383   */\n      dup8\n        /* \"#utility.yul\":6372:6395   */\n      sub\n        /* \"#utility.yul\":6368:6401   */\n      slt\n        /* \"#utility.yul\":6365:6485   */\n      iszero\n      tag_205\n      jumpi\n        /* \"#utility.yul\":6404:6483   */\n      tag_206\n      tag_80\n      jump\t// in\n    tag_206:\n        /* \"#utility.yul\":6365:6485   */\n    tag_205:\n        /* \"#utility.yul\":6552:6553   */\n      0x00\n        /* \"#utility.yul\":6541:6550   */\n      dup6\n        /* \"#utility.yul\":6537:6554   */\n      add\n        /* \"#utility.yul\":6524:6555   */\n      calldataload\n        /* \"#utility.yul\":6582:6600   */\n      0xffffffffffffffff\n        /* \"#utility.yul\":6574:6580   */\n      dup2\n        /* \"#utility.yul\":6571:6601   */\n      gt\n        /* \"#utility.yul\":6568:6685   */\n      iszero\n      tag_207\n      jumpi\n        /* \"#utility.yul\":6604:6683   */\n      tag_208\n      tag_81\n      jump\t// in\n    tag_208:\n        /* \"#utility.yul\":6568:6685   */\n    tag_207:\n        /* \"#utility.yul\":6709:6772   */\n      tag_209\n        /* \"#utility.yul\":6764:6771   */\n      dup8\n        /* \"#utility.yul\":6755:6761   */\n      dup3\n        /* \"#utility.yul\":6744:6753   */\n      dup9\n        /* \"#utility.yul\":6740:6762   */\n      add\n        /* \"#utility.yul\":6709:6772   */\n      tag_101\n      jump\t// in\n    tag_209:\n        /* \"#utility.yul\":6699:6772   */\n      swap5\n      pop\n        /* \"#utility.yul\":6495:6782   */\n      pop\n        /* \"#utility.yul\":6849:6851   */\n      0x20\n        /* \"#utility.yul\":6838:6847   */\n      dup6\n        /* \"#utility.yul\":6834:6852   */\n      add\n        /* \"#utility.yul\":6821:6853   */\n      calldataload\n        /* \"#utility.yul\":6880:6898   */\n      0xffffffffffffffff\n        /* \"#utility.yul\":6872:6878   */\n      dup2\n        /* \"#utility.yul\":6869:6899   */\n      gt\n        /* \"#utility.yul\":6866:6983   */\n      iszero\n      tag_210\n      jumpi\n        /* \"#utility.yul\":6902:6981   */\n      tag_211\n      tag_81\n      jump\t// in\n    tag_211:\n        /* \"#utility.yul\":6866:6983   */\n    tag_210:\n        /* \"#utility.yul\":7007:7070   */\n      tag_212\n        /* \"#utility.yul\":7062:7069   */\n      dup8\n        /* \"#utility.yul\":7053:7059   */\n      dup3\n        /* \"#utility.yul\":7042:7051   */\n      dup9\n        /* \"#utility.yul\":7038:7060   */\n      add\n        /* \"#utility.yul\":7007:7070   */\n      tag_101\n      jump\t// in\n    tag_212:\n        /* \"#utility.yul\":6997:7070   */\n      swap4\n      pop\n        /* \"#utility.yul\":6792:7080   */\n      pop\n        /* \"#utility.yul\":7119:7121   */\n      0x40\n        /* \"#utility.yul\":7145:7198   */\n      tag_213\n        /* \"#utility.yul\":7190:7197   */\n      dup8\n        /* \"#utility.yul\":7181:7187   */\n      dup3\n        /* \"#utility.yul\":7170:7179   */\n      dup9\n        /* \"#utility.yul\":7166:7188   */\n      add\n        /* \"#utility.yul\":7145:7198   */\n      tag_84\n      jump\t// in\n    tag_213:\n        /* \"#utility.yul\":7135:7198   */\n      swap3\n      pop\n        /* \"#utility.yul\":7090:7208   */\n      pop\n        /* \"#utility.yul\":7247:7249   */\n      0x60\n        /* \"#utility.yul\":7273:7326   */\n      tag_214\n        /* \"#utility.yul\":7318:7325   */\n      dup8\n        /* \"#utility.yul\":7309:7315   */\n      dup3\n        /* \"#utility.yul\":7298:7307   */\n      dup9\n        /* \"#utility.yul\":7294:7316   */\n      add\n        /* \"#utility.yul\":7273:7326   */\n      tag_84\n      jump\t// in\n    tag_214:\n        /* \"#utility.yul\":7263:7326   */\n      swap2\n      pop\n        /* \"#utility.yul\":7218:7336   */\n      pop\n        /* \"#utility.yul\":6218:7343   */\n      swap3\n      swap6\n      swap2\n      swap5\n      pop\n      swap3\n      pop\n      jump\t// out\n        /* \"#utility.yul\":7349:7495   */\n    tag_102:\n        /* \"#utility.yul\":7448:7454   */\n      0x00\n        /* \"#utility.yul\":7482:7487   */\n      dup2\n        /* \"#utility.yul\":7476:7488   */\n      mload\n        /* \"#utility.yul\":7466:7488   */\n      swap1\n      pop\n        /* \"#utility.yul\":7349:7495   */\n      swap2\n      swap1\n      pop\n      jump\t// out\n        /* \"#utility.yul\":7501:7717   */\n    tag_103:\n        /* \"#utility.yul\":7632:7643   */\n      0x00\n        /* \"#utility.yul\":7666:7672   */\n      dup3\n        /* \"#utility.yul\":7661:7664   */\n      dup3\n        /* \"#utility.yul\":7654:7673   */\n      mstore\n        /* \"#utility.yul\":7706:7710   */\n      0x20\n        /* \"#utility.yul\":7701:7704   */\n      dup3\n        /* \"#utility.yul\":7697:7711   */\n      add\n        /* \"#utility.yul\":7682:7711   */\n      swap1\n      pop\n        /* \"#utility.yul\":7501:7717   */\n      swap3\n      swap2\n      pop\n      pop\n      jump\t// out\n        /* \"#utility.yul\":7723:7887   */\n    tag_104:\n        /* \"#utility.yul\":7822:7826   */\n      0x00\n        /* \"#utility.yul\":7845:7848   */\n      dup2\n        /* \"#utility.yul\":7837:7848   */\n      swap1\n      pop\n        /* \"#utility.yul\":7875:7879   */\n      0x20\n        /* \"#utility.yul\":7870:7873   */\n      dup3\n        /* \"#utility.yul\":7866:7880   */\n      add\n        /* \"#utility.yul\":7858:7880   */\n      swap1\n      pop\n        /* \"#utility.yul\":7723:7887   */\n      swap2\n      swap1\n      pop\n      jump\t// out\n        /* \"#utility.yul\":7893:8052   */\n    tag_105:\n        /* \"#utility.yul\":7967:7978   */\n      0x00\n        /* \"#utility.yul\":8001:8007   */\n      dup3\n        /* \"#utility.yul\":7996:7999   */\n      dup3\n        /* \"#utility.yul\":7989:8008   */\n      mstore\n        /* \"#utility.yul\":8041:8045   */\n      0x20\n        /* \"#utility.yul\":8036:8039   */\n      dup3\n        /* \"#utility.yul\":8032:8046   */\n      add\n        /* \"#utility.yul\":8017:8046   */\n      swap1\n      pop\n        /* \"#utility.yul\":7893:8052   */\n      swap3\n      swap2\n      pop\n      pop\n      jump\t// out\n        /* \"#utility.yul\":8058:8415   */\n    tag_106:\n        /* \"#utility.yul\":8136:8139   */\n      0x00\n        /* \"#utility.yul\":8164:8203   */\n      tag_220\n        /* \"#utility.yul\":8197:8202   */\n      dup3\n        /* \"#utility.yul\":8164:8203   */\n      tag_85\n      jump\t// in\n    tag_220:\n        /* \"#utility.yul\":8219:8280   */\n      tag_221\n        /* \"#utility.yul\":8273:8279   */\n      dup2\n        /* \"#utility.yul\":8268:8271   */\n      dup6\n        /* \"#utility.yul\":8219:8280   */\n      tag_105\n      jump\t// in\n    tag_221:\n        /* \"#utility.yul\":8212:8280   */\n      swap4\n      pop\n        /* \"#utility.yul\":8289:8354   */\n      tag_222\n        /* \"#utility.yul\":8347:8353   */\n      dup2\n        /* \"#utility.yul\":8342:8345   */\n      dup6\n        /* \"#utility.yul\":8335:8339   */\n      0x20\n        /* \"#utility.yul\":8328:8333   */\n      dup7\n        /* \"#utility.yul\":8324:8340   */\n      add\n        /* \"#utility.yul\":8289:8354   */\n      tag_87\n      jump\t// in\n    tag_222:\n        /* \"#utility.yul\":8379:8408   */\n      tag_223\n        /* \"#utility.yul\":8401:8407   */\n      dup2\n        /* \"#utility.yul\":8379:8408   */\n      tag_88\n      jump\t// in\n    tag_223:\n        /* \"#utility.yul\":8374:8377   */\n      dup5\n        /* \"#utility.yul\":8370:8409   */\n      add\n        /* \"#utility.yul\":8363:8409   */\n      swap2\n      pop\n        /* \"#utility.yul\":8140:8415   */\n      pop\n        /* \"#utility.yul\":8058:8415   */\n      swap3\n      swap2\n      pop\n      pop\n      jump\t// out\n        /* \"#utility.yul\":8421:8529   */\n    tag_107:\n        /* \"#utility.yul\":8498:8522   */\n      tag_225\n        /* \"#utility.yul\":8516:8521   */\n      dup2\n        /* \"#utility.yul\":8498:8522   */\n      tag_82\n      jump\t// in\n    tag_225:\n        /* \"#utility.yul\":8493:8496   */\n      dup3\n        /* \"#utility.yul\":8486:8523   */\n      mstore\n        /* \"#utility.yul\":8421:8529   */\n      pop\n      pop\n      jump\t// out\n        /* \"#utility.yul\":8629:9670   */\n    tag_108:\n        /* \"#utility.yul\":8752:8755   */\n      0x00\n        /* \"#utility.yul\":8788:8792   */\n      0x80\n        /* \"#utility.yul\":8783:8786   */\n      dup4\n        /* \"#utility.yul\":8779:8793   */\n      add\n        /* \"#utility.yul\":8881:8885   */\n      0x00\n        /* \"#utility.yul\":8874:8879   */\n      dup4\n        /* \"#utility.yul\":8870:8886   */\n      add\n        /* \"#utility.yul\":8864:8887   */\n      mload\n        /* \"#utility.yul\":8934:8937   */\n      dup5\n        /* \"#utility.yul\":8928:8932   */\n      dup3\n        /* \"#utility.yul\":8924:8938   */\n      sub\n        /* \"#utility.yul\":8917:8921   */\n      0x00\n        /* \"#utility.yul\":8912:8915   */\n      dup7\n        /* \"#utility.yul\":8908:8922   */\n      add\n        /* \"#utility.yul\":8901:8939   */\n      mstore\n        /* \"#utility.yul\":8960:9033   */\n      tag_227\n        /* \"#utility.yul\":9028:9032   */\n      dup3\n        /* \"#utility.yul\":9014:9026   */\n      dup3\n        /* \"#utility.yul\":8960:9033   */\n      tag_106\n      jump\t// in\n    tag_227:\n        /* \"#utility.yul\":8952:9033   */\n      swap2\n      pop\n        /* \"#utility.yul\":8803:9044   */\n      pop\n        /* \"#utility.yul\":9131:9135   */\n      0x20\n        /* \"#utility.yul\":9124:9129   */\n      dup4\n        /* \"#utility.yul\":9120:9136   */\n      add\n        /* \"#utility.yul\":9114:9137   */\n      mload\n        /* \"#utility.yul\":9184:9187   */\n      dup5\n        /* \"#utility.yul\":9178:9182   */\n      dup3\n        /* \"#utility.yul\":9174:9188   */\n      sub\n        /* \"#utility.yul\":9167:9171   */\n      0x20\n        /* \"#utility.yul\":9162:9165   */\n      dup7\n        /* \"#utility.yul\":9158:9172   */\n      add\n        /* \"#utility.yul\":9151:9189   */\n      mstore\n        /* \"#utility.yul\":9210:9283   */\n      tag_228\n        /* \"#utility.yul\":9278:9282   */\n      dup3\n        /* \"#utility.yul\":9264:9276   */\n      dup3\n        /* \"#utility.yul\":9210:9283   */\n      tag_106\n      jump\t// in\n    tag_228:\n        /* \"#utility.yul\":9202:9283   */\n      swap2\n      pop\n        /* \"#utility.yul\":9054:9294   */\n      pop\n        /* \"#utility.yul\":9377:9381   */\n      0x40\n        /* \"#utility.yul\":9370:9375   */\n      dup4\n        /* \"#utility.yul\":9366:9382   */\n      add\n        /* \"#utility.yul\":9360:9383   */\n      mload\n        /* \"#utility.yul\":9396:9459   */\n      tag_229\n        /* \"#utility.yul\":9453:9457   */\n      0x40\n        /* \"#utility.yul\":9448:9451   */\n      dup7\n        /* \"#utility.yul\":9444:9458   */\n      add\n        /* \"#utility.yul\":9430:9442   */\n      dup3\n        /* \"#utility.yul\":9396:9459   */\n      tag_107\n      jump\t// in\n    tag_229:\n        /* \"#utility.yul\":9304:9469   */\n      pop\n        /* \"#utility.yul\":9551:9555   */\n      0x60\n        /* \"#utility.yul\":9544:9549   */\n      dup4\n        /* \"#utility.yul\":9540:9556   */\n      add\n        /* \"#utility.yul\":9534:9557   */\n      mload\n        /* \"#utility.yul\":9570:9633   */\n      tag_230\n        /* \"#utility.yul\":9627:9631   */\n      0x60\n        /* \"#utility.yul\":9622:9625   */\n      dup7\n        /* \"#utility.yul\":9618:9632   */\n      add\n        /* \"#utility.yul\":9604:9616   */\n      dup3\n        /* \"#utility.yul\":9570:9633   */\n      tag_107\n      jump\t// in\n    tag_230:\n        /* \"#utility.yul\":9479:9643   */\n      pop\n        /* \"#utility.yul\":9660:9664   */\n      dup1\n        /* \"#utility.yul\":9653:9664   */\n      swap2\n      pop\n        /* \"#utility.yul\":8757:9670   */\n      pop\n        /* \"#utility.yul\":8629:9670   */\n      swap3\n      swap2\n      pop\n      pop\n      jump\t// out\n        /* \"#utility.yul\":9676:9960   */\n    tag_109:\n        /* \"#utility.yul\":9809:9819   */\n      0x00\n        /* \"#utility.yul\":9844:9954   */\n      tag_232\n        /* \"#utility.yul\":9950:9953   */\n      dup4\n        /* \"#utility.yul\":9942:9948   */\n      dup4\n        /* \"#utility.yul\":9844:9954   */\n      tag_108\n      jump\t// in\n    tag_232:\n        /* \"#utility.yul\":9830:9954   */\n      swap1\n      pop\n        /* \"#utility.yul\":9676:9960   */\n      swap3\n      swap2\n      pop\n      pop\n      jump\t// out\n        /* \"#utility.yul\":9966:10111   */\n    tag_110:\n        /* \"#utility.yul\":10068:10072   */\n      0x00\n        /* \"#utility.yul\":10100:10104   */\n      0x20\n        /* \"#utility.yul\":10095:10098   */\n      dup3\n        /* \"#utility.yul\":10091:10105   */\n      add\n        /* \"#utility.yul\":10083:10105   */\n      swap1\n      pop\n        /* \"#utility.yul\":9966:10111   */\n      swap2\n      swap1\n      pop\n      jump\t// out\n        /* \"#utility.yul\":10215:11382   */\n    tag_111:\n        /* \"#utility.yul\":10398:10401   */\n      0x00\n        /* \"#utility.yul\":10427:10513   */\n      tag_235\n        /* \"#utility.yul\":10507:10512   */\n      dup3\n        /* \"#utility.yul\":10427:10513   */\n      tag_102\n      jump\t// in\n    tag_235:\n        /* \"#utility.yul\":10529:10647   */\n      tag_236\n        /* \"#utility.yul\":10640:10646   */\n      dup2\n        /* \"#utility.yul\":10635:10638   */\n      dup6\n        /* \"#utility.yul\":10529:10647   */\n      tag_103\n      jump\t// in\n    tag_236:\n        /* \"#utility.yul\":10522:10647   */\n      swap4\n      pop\n        /* \"#utility.yul\":10673:10676   */\n      dup4\n        /* \"#utility.yul\":10718:10722   */\n      0x20\n        /* \"#utility.yul\":10710:10716   */\n      dup3\n        /* \"#utility.yul\":10706:10723   */\n      mul\n        /* \"#utility.yul\":10701:10704   */\n      dup6\n        /* \"#utility.yul\":10697:10724   */\n      add\n        /* \"#utility.yul\":10748:10836   */\n      tag_237\n        /* \"#utility.yul\":10830:10835   */\n      dup6\n        /* \"#utility.yul\":10748:10836   */\n      tag_104\n      jump\t// in\n    tag_237:\n        /* \"#utility.yul\":10859:10866   */\n      dup1\n        /* \"#utility.yul\":10890:10891   */\n      0x00\n        /* \"#utility.yul\":10875:11337   */\n    tag_238:\n        /* \"#utility.yul\":10900:10906   */\n      dup6\n        /* \"#utility.yul\":10897:10898   */\n      dup2\n        /* \"#utility.yul\":10894:10907   */\n      lt\n        /* \"#utility.yul\":10875:11337   */\n      iszero\n      tag_240\n      jumpi\n        /* \"#utility.yul\":10971:10980   */\n      dup5\n        /* \"#utility.yul\":10965:10969   */\n      dup5\n        /* \"#utility.yul\":10961:10981   */\n      sub\n        /* \"#utility.yul\":10956:10959   */\n      dup10\n        /* \"#utility.yul\":10949:10982   */\n      mstore\n        /* \"#utility.yul\":11022:11028   */\n      dup2\n        /* \"#utility.yul\":11016:11029   */\n      mload\n        /* \"#utility.yul\":11050:11178   */\n      tag_241\n        /* \"#utility.yul\":11173:11177   */\n      dup6\n        /* \"#utility.yul\":11158:11171   */\n      dup3\n        /* \"#utility.yul\":11050:11178   */\n      tag_109\n      jump\t// in\n    tag_241:\n        /* \"#utility.yul\":11042:11178   */\n      swap5\n      pop\n        /* \"#utility.yul\":11201:11293   */\n      tag_242\n        /* \"#utility.yul\":11286:11292   */\n      dup4\n        /* \"#utility.yul\":11201:11293   */\n      tag_110\n      jump\t// in\n    tag_242:\n        /* \"#utility.yul\":11191:11293   */\n      swap3\n      pop\n        /* \"#utility.yul\":11322:11326   */\n      0x20\n        /* \"#utility.yul\":11317:11320   */\n      dup11\n        /* \"#utility.yul\":11313:11327   */\n      add\n        /* \"#utility.yul\":11306:11327   */\n      swap10\n      pop\n        /* \"#utility.yul\":10935:11337   */\n      pop\n        /* \"#utility.yul\":10922:10923   */\n      0x01\n        /* \"#utility.yul\":10919:10920   */\n      dup2\n        /* \"#utility.yul\":10915:10924   */\n      add\n        /* \"#utility.yul\":10910:10924   */\n      swap1\n      pop\n        /* \"#utility.yul\":10875:11337   */\n      jump(tag_238)\n    tag_240:\n        /* \"#utility.yul\":10879:10893   */\n      pop\n        /* \"#utility.yul\":11353:11357   */\n      dup3\n        /* \"#utility.yul\":11346:11357   */\n      swap8\n      pop\n        /* \"#utility.yul\":11373:11376   */\n      dup8\n        /* \"#utility.yul\":11366:11376   */\n      swap6\n      pop\n        /* \"#utility.yul\":10403:11382   */\n      pop\n      pop\n      pop\n      pop\n      pop\n        /* \"#utility.yul\":10215:11382   */\n      swap3\n      swap2\n      pop\n      pop\n      jump\t// out\n        /* \"#utility.yul\":11388:11889   */\n    tag_30:\n        /* \"#utility.yul\":11595:11599   */\n      0x00\n        /* \"#utility.yul\":11633:11635   */\n      0x20\n        /* \"#utility.yul\":11622:11631   */\n      dup3\n        /* \"#utility.yul\":11618:11636   */\n      add\n        /* \"#utility.yul\":11610:11636   */\n      swap1\n      pop\n        /* \"#utility.yul\":11682:11691   */\n      dup2\n        /* \"#utility.yul\":11676:11680   */\n      dup2\n        /* \"#utility.yul\":11672:11692   */\n      sub\n        /* \"#utility.yul\":11668:11669   */\n      0x00\n        /* \"#utility.yul\":11657:11666   */\n      dup4\n        /* \"#utility.yul\":11653:11670   */\n      add\n        /* \"#utility.yul\":11646:11693   */\n      mstore\n        /* \"#utility.yul\":11710:11882   */\n      tag_244\n        /* \"#utility.yul\":11877:11881   */\n      dup2\n        /* \"#utility.yul\":11868:11874   */\n      dup5\n        /* \"#utility.yul\":11710:11882   */\n      tag_111\n      jump\t// in\n    tag_244:\n        /* \"#utility.yul\":11702:11882   */\n      swap1\n      pop\n        /* \"#utility.yul\":11388:11889   */\n      swap3\n      swap2\n      pop\n      pop\n      jump\t// out\n        /* \"#utility.yul\":11895:12075   */\n    tag_112:\n        /* \"#utility.yul\":11943:12020   */\n      0x4e487b7100000000000000000000000000000000000000000000000000000000\n        /* \"#utility.yul\":11940:11941   */\n      0x00\n        /* \"#utility.yul\":11933:12021   */\n      mstore\n        /* \"#utility.yul\":12040:12044   */\n      0x22\n        /* \"#utility.yul\":12037:12038   */\n      0x04\n        /* \"#utility.yul\":12030:12045   */\n      mstore\n        /* \"#utility.yul\":12064:12068   */\n      0x24\n        /* \"#utility.yul\":12061:12062   */\n      0x00\n        /* \"#utility.yul\":12054:12069   */\n      revert\n        /* \"#utility.yul\":12081:12401   */\n    tag_37:\n        /* \"#utility.yul\":12125:12131   */\n      0x00\n        /* \"#utility.yul\":12162:12163   */\n      0x02\n        /* \"#utility.yul\":12156:12160   */\n      dup3\n        /* \"#utility.yul\":12152:12164   */\n      div\n        /* \"#utility.yul\":12142:12164   */\n      swap1\n      pop\n        /* \"#utility.yul\":12209:12210   */\n      0x01\n        /* \"#utility.yul\":12203:12207   */\n      dup3\n        /* \"#utility.yul\":12199:12211   */\n      and\n        /* \"#utility.yul\":12230:12248   */\n      dup1\n        /* \"#utility.yul\":12220:12301   */\n      tag_247\n      jumpi\n        /* \"#utility.yul\":12286:12290   */\n      0x7f\n        /* \"#utility.yul\":12278:12284   */\n      dup3\n        /* \"#utility.yul\":12274:12291   */\n      and\n        /* \"#utility.yul\":12264:12291   */\n      swap2\n      pop\n        /* \"#utility.yul\":12220:12301   */\n    tag_247:\n        /* \"#utility.yul\":12348:12350   */\n      0x20\n        /* \"#utility.yul\":12340:12346   */\n      dup3\n        /* \"#utility.yul\":12337:12351   */\n      lt\n        /* \"#utility.yul\":12317:12335   */\n      dup2\n        /* \"#utility.yul\":12314:12352   */\n      sub\n        /* \"#utility.yul\":12311:12395   */\n      tag_248\n      jumpi\n        /* \"#utility.yul\":12367:12385   */\n      tag_249\n      tag_112\n      jump\t// in\n    tag_249:\n        /* \"#utility.yul\":12311:12395   */\n    tag_248:\n        /* \"#utility.yul\":12132:12401   */\n      pop\n        /* \"#utility.yul\":12081:12401   */\n      swap2\n      swap1\n      pop\n      jump\t// out\n        /* \"#utility.yul\":12407:12635   */\n    tag_113:\n        /* \"#utility.yul\":12547:12581   */\n      0x4f6e6c792063616d706169676e20636f6e74726163742063616c6c2074686973\n        /* \"#utility.yul\":12543:12544   */\n      0x00\n        /* \"#utility.yul\":12535:12541   */\n      dup3\n        /* \"#utility.yul\":12531:12545   */\n      add\n        /* \"#utility.yul\":12524:12582   */\n      mstore\n        /* \"#utility.yul\":12616:12627   */\n      0x2066756e6374696f6e0000000000000000000000000000000000000000000000\n        /* \"#utility.yul\":12611:12613   */\n      0x20\n        /* \"#utility.yul\":12603:12609   */\n      dup3\n        /* \"#utility.yul\":12599:12614   */\n      add\n        /* \"#utility.yul\":12592:12628   */\n      mstore\n        /* \"#utility.yul\":12407:12635   */\n      pop\n      jump\t// out\n        /* \"#utility.yul\":12641:13007   */\n    tag_114:\n        /* \"#utility.yul\":12783:12786   */\n      0x00\n        /* \"#utility.yul\":12804:12871   */\n      tag_252\n        /* \"#utility.yul\":12868:12870   */\n      0x29\n        /* \"#utility.yul\":12863:12866   */\n      dup4\n        /* \"#utility.yul\":12804:12871   */\n      tag_86\n      jump\t// in\n    tag_252:\n        /* \"#utility.yul\":12797:12871   */\n      swap2\n      pop\n        /* \"#utility.yul\":12880:12973   */\n      tag_253\n        /* \"#utility.yul\":12969:12972   */\n      dup3\n        /* \"#utility.yul\":12880:12973   */\n      tag_113\n      jump\t// in\n    tag_253:\n        /* \"#utility.yul\":12998:13000   */\n      0x40\n        /* \"#utility.yul\":12993:12996   */\n      dup3\n        /* \"#utility.yul\":12989:13001   */\n      add\n        /* \"#utility.yul\":12982:13001   */\n      swap1\n      pop\n        /* \"#utility.yul\":12641:13007   */\n      swap2\n      swap1\n      pop\n      jump\t// out\n        /* \"#utility.yul\":13013:13432   */\n    tag_50:\n        /* \"#utility.yul\":13179:13183   */\n      0x00\n        /* \"#utility.yul\":13217:13219   */\n      0x20\n        /* \"#utility.yul\":13206:13215   */\n      dup3\n        /* \"#utility.yul\":13202:13220   */\n      add\n        /* \"#utility.yul\":13194:13220   */\n      swap1\n      pop\n        /* \"#utility.yul\":13266:13275   */\n      dup2\n        /* \"#utility.yul\":13260:13264   */\n      dup2\n        /* \"#utility.yul\":13256:13276   */\n      sub\n        /* \"#utility.yul\":13252:13253   */\n      0x00\n        /* \"#utility.yul\":13241:13250   */\n      dup4\n        /* \"#utility.yul\":13237:13254   */\n      add\n        /* \"#utility.yul\":13230:13277   */\n      mstore\n        /* \"#utility.yul\":13294:13425   */\n      tag_255\n        /* \"#utility.yul\":13420:13424   */\n      dup2\n        /* \"#utility.yul\":13294:13425   */\n      tag_114\n      jump\t// in\n    tag_255:\n        /* \"#utility.yul\":13286:13425   */\n      swap1\n      pop\n        /* \"#utility.yul\":13013:13432   */\n      swap2\n      swap1\n      pop\n      jump\t// out\n        /* \"#utility.yul\":13438:13579   */\n    tag_115:\n        /* \"#utility.yul\":13487:13491   */\n      0x00\n        /* \"#utility.yul\":13510:13513   */\n      dup2\n        /* \"#utility.yul\":13502:13513   */\n      swap1\n      pop\n        /* \"#utility.yul\":13533:13536   */\n      dup2\n        /* \"#utility.yul\":13530:13531   */\n      0x00\n        /* \"#utility.yul\":13523:13537   */\n      mstore\n        /* \"#utility.yul\":13567:13571   */\n      0x20\n        /* \"#utility.yul\":13564:13565   */\n      0x00\n        /* \"#utility.yul\":13554:13572   */\n      keccak256\n        /* \"#utility.yul\":13546:13572   */\n      swap1\n      pop\n        /* \"#utility.yul\":13438:13579   */\n      swap2\n      swap1\n      pop\n      jump\t// out\n        /* \"#utility.yul\":13585:13678   */\n    tag_116:\n        /* \"#utility.yul\":13622:13628   */\n      0x00\n        /* \"#utility.yul\":13669:13671   */\n      0x20\n        /* \"#utility.yul\":13664:13666   */\n      0x1f\n        /* \"#utility.yul\":13657:13662   */\n      dup4\n        /* \"#utility.yul\":13653:13667   */\n      add\n        /* \"#utility.yul\":13649:13672   */\n      div\n        /* \"#utility.yul\":13639:13672   */\n      swap1\n      pop\n        /* \"#utility.yul\":13585:13678   */\n      swap2\n      swap1\n      pop\n      jump\t// out\n        /* \"#utility.yul\":13684:13791   */\n    tag_117:\n        /* \"#utility.yul\":13728:13736   */\n      0x00\n        /* \"#utility.yul\":13778:13783   */\n      dup3\n        /* \"#utility.yul\":13772:13776   */\n      dup3\n        /* \"#utility.yul\":13768:13784   */\n      shl\n        /* \"#utility.yul\":13747:13784   */\n      swap1\n      pop\n        /* \"#utility.yul\":13684:13791   */\n      swap3\n      swap2\n      pop\n      pop\n      jump\t// out\n        /* \"#utility.yul\":13797:14190   */\n    tag_118:\n        /* \"#utility.yul\":13866:13872   */\n      0x00\n        /* \"#utility.yul\":13916:13917   */\n      0x08\n        /* \"#utility.yul\":13904:13914   */\n      dup4\n        /* \"#utility.yul\":13900:13918   */\n      mul\n        /* \"#utility.yul\":13939:14036   */\n      tag_260\n        /* \"#utility.yul\":13969:14035   */\n      0xffffffffffffffffffffffffffffffffffffffffffffffffffffffffffffffff\n        /* \"#utility.yul\":13958:13967   */\n      dup3\n        /* \"#utility.yul\":13939:14036   */\n      tag_117\n      jump\t// in\n    tag_260:\n        /* \"#utility.yul\":14057:14096   */\n      tag_261\n        /* \"#utility.yul\":14087:14095   */\n      dup7\n        /* \"#utility.yul\":14076:14085   */\n      dup4\n        /* \"#utility.yul\":14057:14096   */\n      tag_117\n      jump\t// in\n    tag_261:\n        /* \"#utility.yul\":14045:14096   */\n      swap6\n      pop\n        /* \"#utility.yul\":14129:14133   */\n      dup1\n        /* \"#utility.yul\":14125:14134   */\n      not\n        /* \"#utility.yul\":14118:14123   */\n      dup5\n        /* \"#utility.yul\":14114:14135   */\n      and\n        /* \"#utility.yul\":14105:14135   */\n      swap4\n      pop\n        /* \"#utility.yul\":14178:14182   */\n      dup1\n        /* \"#utility.yul\":14168:14176   */\n      dup7\n        /* \"#utility.yul\":14164:14183   */\n      and\n        /* \"#utility.yul\":14157:14162   */\n      dup5\n        /* \"#utility.yul\":14154:14184   */\n      or\n        /* \"#utility.yul\":14144:14184   */\n      swap3\n      pop\n        /* \"#utility.yul\":13873:14190   */\n      pop\n      pop\n        /* \"#utility.yul\":13797:14190   */\n      swap4\n      swap3\n      pop\n      pop\n      pop\n      jump\t// out\n        /* \"#utility.yul\":14196:14256   */\n    tag_119:\n        /* \"#utility.yul\":14224:14227   */\n      0x00\n        /* \"#utility.yul\":14245:14250   */\n      dup2\n        /* \"#utility.yul\":14238:14250   */\n      swap1\n      pop\n        /* \"#utility.yul\":14196:14256   */\n      swap2\n      swap1\n      pop\n      jump\t// out\n        /* \"#utility.yul\":14262:14404   */\n    tag_120:\n        /* \"#utility.yul\":14312:14321   */\n      0x00\n        /* \"#utility.yul\":14345:14398   */\n      tag_264\n        /* \"#utility.yul\":14363:14397   */\n      tag_265\n        /* \"#utility.yul\":14372:14396   */\n      tag_266\n        /* \"#utility.yul\":14390:14395   */\n      dup5\n        /* \"#utility.yul\":14372:14396   */\n      tag_82\n      jump\t// in\n    tag_266:\n        /* \"#utility.yul\":14363:14397   */\n      tag_119\n      jump\t// in\n    tag_265:\n        /* \"#utility.yul\":14345:14398   */\n      tag_82\n      jump\t// in\n    tag_264:\n        /* \"#utility.yul\":14332:14398   */\n      swap1\n      pop\n        /* \"#utility.yul\":14262:14404   */\n      swap2\n      swap1\n      pop\n      jump\t// out\n        /* \"#utility.yul\":14410:14485   */\n    tag_121:\n        /* \"#utility.yul\":14453:14456   */\n      0x00\n        /* \"#utility.yul\":14474:14479   */\n      dup2\n        /* \"#utility.yul\":14467:14479   */\n      swap1\n      pop\n        /* \"#utility.yul\":14410:14485   */\n      swap2\n      swap1\n      pop\n      jump\t// out\n        /* \"#utility.yul\":14491:14760   */\n    tag_122:\n        /* \"#utility.yul\":14601:14640   */\n      tag_269\n        /* \"#utility.yul\":14632:14639   */\n      dup4\n        /* \"#utility.yul\":14601:14640   */\n      tag_120\n      jump\t// in\n    tag_269:\n        /* \"#utility.yul\":14662:14753   */\n      tag_270\n        /* \"#utility.yul\":14711:14752   */\n      tag_271\n        /* \"#utility.yul\":14735:14751   */\n      dup3\n        /* \"#utility.yul\":14711:14752   */\n      tag_121\n      jump\t// in\n    tag_271:\n        /* \"#utility.yul\":14703:14709   */\n      dup5\n        /* \"#utility.yul\":14696:14700   */\n      dup5\n        /* \"#utility.yul\":14690:14701   */\n      sload\n        /* \"#utility.yul\":14662:14753   */\n      tag_118\n      jump\t// in\n    tag_270:\n        /* \"#utility.yul\":14656:14660   */\n      dup3\n        /* \"#utility.yul\":14649:14754   */\n      sstore\n        /* \"#utility.yul\":14567:14760   */\n      pop\n        /* \"#utility.yul\":14491:14760   */\n      pop\n      pop\n      pop\n      jump\t// out\n        /* \"#utility.yul\":14766:14839   */\n    tag_123:\n        /* \"#utility.yul\":14811:14814   */\n      0x00\n        /* \"#utility.yul\":14766:14839   */\n      swap1\n      jump\t// out\n        /* \"#utility.yul\":14845:15034   */\n    tag_124:\n        /* \"#utility.yul\":14922:14954   */\n      tag_274\n      tag_123\n      jump\t// in\n    tag_274:\n        /* \"#utility.yul\":14963:15028   */\n      tag_275\n        /* \"#utility.yul\":15021:15027   */\n      dup2\n        /* \"#utility.yul\":15013:15019   */\n      dup5\n        /* \"#utility.yul\":15007:15011   */\n      dup5\n        /* \"#utility.yul\":14963:15028   */\n      tag_122\n      jump\t// in\n    tag_275:\n        /* \"#utility.yul\":14898:15034   */\n      pop\n        /* \"#utility.yul\":14845:15034   */\n      pop\n      pop\n      jump\t// out\n        /* \"#utility.yul\":15040:15226   */\n    tag_125:\n        /* \"#utility.yul\":15100:15220   */\n    tag_277:\n        /* \"#utility.yul\":15117:15120   */\n      dup2\n        /* \"#utility.yul\":15110:15115   */\n      dup2\n        /* \"#utility.yul\":15107:15121   */\n      lt\n        /* \"#utility.yul\":15100:15220   */\n      iszero\n      tag_279\n      jumpi\n        /* \"#utility.yul\":15171:15210   */\n      tag_280\n        /* \"#utility.yul\":15208:15209   */\n      0x00\n        /* \"#utility.yul\":15201:15206   */\n      dup3\n        /* \"#utility.yul\":15171:15210   */\n      tag_124\n      jump\t// in\n    tag_280:\n        /* \"#utility.yul\":15144:15145   */\n      0x01\n        /* \"#utility.yul\":15137:15142   */\n      dup2\n        /* \"#utility.yul\":15133:15146   */\n      add\n        /* \"#utility.yul\":15124:15146   */\n      swap1\n      pop\n        /* \"#utility.yul\":15100:15220   */\n      jump(tag_277)\n    tag_279:\n        /* \"#utility.yul\":15040:15226   */\n      pop\n      pop\n      jump\t// out\n        /* \"#utility.yul\":15232:15775   */\n    tag_126:\n        /* \"#utility.yul\":15333:15335   */\n      0x1f\n        /* \"#utility.yul\":15328:15331   */\n      dup3\n        /* \"#utility.yul\":15325:15336   */\n      gt\n        /* \"#utility.yul\":15322:15768   */\n      iszero\n      tag_282\n      jumpi\n        /* \"#utility.yul\":15367:15405   */\n      tag_283\n        /* \"#utility.yul\":15399:15404   */\n      dup2\n        /* \"#utility.yul\":15367:15405   */\n      tag_115\n      jump\t// in\n    tag_283:\n        /* \"#utility.yul\":15451:15480   */\n      tag_284\n        /* \"#utility.yul\":15469:15479   */\n      dup5\n        /* \"#utility.yul\":15451:15480   */\n      tag_116\n      jump\t// in\n    tag_284:\n        /* \"#utility.yul\":15441:15449   */\n      dup2\n        /* \"#utility.yul\":15437:15481   */\n      add\n        /* \"#utility.yul\":15634:15636   */\n      0x20\n        /* \"#utility.yul\":15622:15632   */\n      dup6\n        /* \"#utility.yul\":15619:15637   */\n      lt\n        /* \"#utility.yul\":15616:15665   */\n      iszero\n      tag_285\n      jumpi\n        /* \"#utility.yul\":15655:15663   */\n      dup2\n        /* \"#utility.yul\":15640:15663   */\n      swap1\n      pop\n        /* \"#utility.yul\":15616:15665   */\n    tag_285:\n        /* \"#utility.yul\":15678:15758   */\n      tag_286\n        /* \"#utility.yul\":15734:15756   */\n      tag_287\n        /* \"#utility.yul\":15752:15755   */\n      dup6\n        /* \"#utility.yul\":15734:15756   */\n      tag_116\n      jump\t// in\n    tag_287:\n        /* \"#utility.yul\":15724:15732   */\n      dup4\n        /* \"#utility.yul\":15720:15757   */\n      add\n        /* \"#utility.yul\":15707:15718   */\n      dup3\n        /* \"#utility.yul\":15678:15758   */\n      tag_125\n      jump\t// in\n    tag_286:\n        /* \"#utility.yul\":15337:15768   */\n      pop\n      pop\n        /* \"#utility.yul\":15322:15768   */\n    tag_282:\n        /* \"#utility.yul\":15232:15775   */\n      pop\n      pop\n      pop\n      jump\t// out\n        /* \"#utility.yul\":15781:15898   */\n    tag_127:\n        /* \"#utility.yul\":15835:15843   */\n      0x00\n        /* \"#utility.yul\":15885:15890   */\n      dup3\n        /* \"#utility.yul\":15879:15883   */\n      dup3\n        /* \"#utility.yul\":15875:15891   */\n      shr\n        /* \"#utility.yul\":15854:15891   */\n      swap1\n      pop\n        /* \"#utility.yul\":15781:15898   */\n      swap3\n      swap2\n      pop\n      pop\n      jump\t// out\n        /* \"#utility.yul\":15904:16073   */\n    tag_128:\n        /* \"#utility.yul\":15948:15954   */\n      0x00\n        /* \"#utility.yul\":15981:16032   */\n      tag_290\n        /* \"#utility.yul\":16029:16030   */\n      0x00\n        /* \"#utility.yul\":16025:16031   */\n      not\n        /* \"#utility.yul\":16017:16022   */\n      dup5\n        /* \"#utility.yul\":16014:16015   */\n      0x08\n        /* \"#utility.yul\":16010:16023   */\n      mul\n        /* \"#utility.yul\":15981:16032   */\n      tag_127\n      jump\t// in\n    tag_290:\n        /* \"#utility.yul\":15977:16033   */\n      not\n        /* \"#utility.yul\":16062:16066   */\n      dup1\n        /* \"#utility.yul\":16056:16060   */\n      dup4\n        /* \"#utility.yul\":16052:16067   */\n      and\n        /* \"#utility.yul\":16042:16067   */\n      swap2\n      pop\n        /* \"#utility.yul\":15955:16073   */\n      pop\n        /* \"#utility.yul\":15904:16073   */\n      swap3\n      swap2\n      pop\n      pop\n      jump\t// out\n        /* \"#utility.yul\":16078:16373   */\n    tag_129:\n        /* \"#utility.yul\":16154:16158   */\n      0x00\n        /* \"#utility.yul\":16300:16329   */\n      tag_292\n        /* \"#utility.yul\":16325:16328   */\n      dup4\n        /* \"#utility.yul\":16319:16323   */\n      dup4\n        /* \"#utility.yul\":16300:16329   */\n      tag_128\n      jump\t// in\n    tag_292:\n        /* \"#utility.yul\":16292:16329   */\n      swap2\n      pop\n        /* \"#utility.yul\":16362:16365   */\n      dup3\n        /* \"#utility.yul\":16359:16360   */\n      0x02\n        /* \"#utility.yul\":16355:16366   */\n      mul\n        /* \"#utility.yul\":16349:16353   */\n      dup3\n        /* \"#utility.yul\":16346:16367   */\n      or\n        /* \"#utility.yul\":16338:16367   */\n      swap1\n      pop\n        /* \"#utility.yul\":16078:16373   */\n      swap3\n      swap2\n      pop\n      pop\n      jump\t// out\n        /* \"#utility.yul\":16378:17773   */\n    tag_60:\n        /* \"#utility.yul\":16495:16532   */\n      tag_294\n        /* \"#utility.yul\":16528:16531   */\n      dup3\n        /* \"#utility.yul\":16495:16532   */\n      tag_85\n      jump\t// in\n    tag_294:\n        /* \"#utility.yul\":16597:16615   */\n      0xffffffffffffffff\n        /* \"#utility.yul\":16589:16595   */\n      dup2\n        /* \"#utility.yul\":16586:16616   */\n      gt\n        /* \"#utility.yul\":16583:16639   */\n      iszero\n      tag_295\n      jumpi\n        /* \"#utility.yul\":16619:16637   */\n      tag_296\n      tag_95\n      jump\t// in\n    tag_296:\n        /* \"#utility.yul\":16583:16639   */\n    tag_295:\n        /* \"#utility.yul\":16663:16701   */\n      tag_297\n        /* \"#utility.yul\":16695:16699   */\n      dup3\n        /* \"#utility.yul\":16689:16700   */\n      sload\n        /* \"#utility.yul\":16663:16701   */\n      tag_37\n      jump\t// in\n    tag_297:\n        /* \"#utility.yul\":16748:16815   */\n      tag_298\n        /* \"#utility.yul\":16808:16814   */\n      dup3\n        /* \"#utility.yul\":16800:16806   */\n      dup3\n        /* \"#utility.yul\":16794:16798   */\n      dup6\n        /* \"#utility.yul\":16748:16815   */\n      tag_126\n      jump\t// in\n    tag_298:\n        /* \"#utility.yul\":16842:16843   */\n      0x00\n        /* \"#utility.yul\":16866:16870   */\n      0x20\n        /* \"#utility.yul\":16853:16870   */\n      swap1\n      pop\n        /* \"#utility.yul\":16898:16900   */\n      0x1f\n        /* \"#utility.yul\":16890:16896   */\n      dup4\n        /* \"#utility.yul\":16887:16901   */\n      gt\n        /* \"#utility.yul\":16915:16916   */\n      0x01\n        /* \"#utility.yul\":16910:17528   */\n      dup2\n      eq\n      tag_300\n      jumpi\n        /* \"#utility.yul\":17572:17573   */\n      0x00\n        /* \"#utility.yul\":17589:17595   */\n      dup5\n        /* \"#utility.yul\":17586:17663   */\n      iszero\n      tag_301\n      jumpi\n        /* \"#utility.yul\":17638:17647   */\n      dup3\n        /* \"#utility.yul\":17633:17636   */\n      dup8\n        /* \"#utility.yul\":17629:17648   */\n      add\n        /* \"#utility.yul\":17623:17649   */\n      mload\n        /* \"#utility.yul\":17614:17649   */\n      swap1\n      pop\n        /* \"#utility.yul\":17586:17663   */\n    tag_301:\n        /* \"#utility.yul\":17689:17756   */\n      tag_302\n        /* \"#utility.yul\":17749:17755   */\n      dup6\n        /* \"#utility.yul\":17742:17747   */\n      dup3\n        /* \"#utility.yul\":17689:17756   */\n      tag_129\n      jump\t// in\n    tag_302:\n        /* \"#utility.yul\":17683:17687   */\n      dup7\n        /* \"#utility.yul\":17676:17757   */\n      sstore\n        /* \"#utility.yul\":17545:17767   */\n      pop\n        /* \"#utility.yul\":16880:17767   */\n      jump(tag_299)\n        /* \"#utility.yul\":16910:17528   */\n    tag_300:\n        /* \"#utility.yul\":16962:16966   */\n      0x1f\n        /* \"#utility.yul\":16958:16967   */\n      not\n        /* \"#utility.yul\":16950:16956   */\n      dup5\n        /* \"#utility.yul\":16946:16968   */\n      and\n        /* \"#utility.yul\":16996:17033   */\n      tag_303\n        /* \"#utility.yul\":17028:17032   */\n      dup7\n        /* \"#utility.yul\":16996:17033   */\n      tag_115\n      jump\t// in\n    tag_303:\n        /* \"#utility.yul\":17055:17056   */\n      0x00\n        /* \"#utility.yul\":17069:17277   */\n    tag_304:\n        /* \"#utility.yul\":17083:17090   */\n      dup3\n        /* \"#utility.yul\":17080:17081   */\n      dup2\n        /* \"#utility.yul\":17077:17091   */\n      lt\n        /* \"#utility.yul\":17069:17277   */\n      iszero\n      tag_306\n      jumpi\n        /* \"#utility.yul\":17162:17171   */\n      dup5\n        /* \"#utility.yul\":17157:17160   */\n      dup10\n        /* \"#utility.yul\":17153:17172   */\n      add\n        /* \"#utility.yul\":17147:17173   */\n      mload\n        /* \"#utility.yul\":17139:17145   */\n      dup3\n        /* \"#utility.yul\":17132:17174   */\n      sstore\n        /* \"#utility.yul\":17213:17214   */\n      0x01\n        /* \"#utility.yul\":17205:17211   */\n      dup3\n        /* \"#utility.yul\":17201:17215   */\n      add\n        /* \"#utility.yul\":17191:17215   */\n      swap2\n      pop\n        /* \"#utility.yul\":17260:17262   */\n      0x20\n        /* \"#utility.yul\":17249:17258   */\n      dup6\n        /* \"#utility.yul\":17245:17263   */\n      add\n        /* \"#utility.yul\":17232:17263   */\n      swap5\n      pop\n        /* \"#utility.yul\":17106:17110   */\n      0x20\n        /* \"#utility.yul\":17103:17104   */\n      dup2\n        /* \"#utility.yul\":17099:17111   */\n      add\n        /* \"#utility.yul\":17094:17111   */\n      swap1\n      pop\n        /* \"#utility.yul\":17069:17277   */\n      jump(tag_304)\n    tag_306:\n        /* \"#utility.yul\":17305:17311   */\n      dup7\n        /* \"#utility.yul\":17296:17303   */\n      dup4\n        /* \"#utility.yul\":17293:17312   */\n      lt\n        /* \"#utility.yul\":17290:17469   */\n      iszero\n      tag_307\n      jumpi\n        /* \"#utility.yul\":17363:17372   */\n      dup5\n        /* \"#utility.yul\":17358:17361   */\n      dup10\n        /* \"#utility.yul\":17354:17373   */\n      add\n        /* \"#utility.yul\":17348:17374   */\n      mload\n        /* \"#utility.yul\":17406:17454   */\n      tag_308\n        /* \"#utility.yul\":17448:17452   */\n      0x1f\n        /* \"#utility.yul\":17440:17446   */\n      dup10\n        /* \"#utility.yul\":17436:17453   */\n      and\n        /* \"#utility.yul\":17425:17434   */\n      dup3\n        /* \"#utility.yul\":17406:17454   */\n      tag_128\n      jump\t// in\n    tag_308:\n        /* \"#utility.yul\":17398:17404   */\n      dup4\n        /* \"#utility.yul\":17391:17455   */\n      sstore\n        /* \"#utility.yul\":17313:17469   */\n      pop\n        /* \"#utility.yul\":17290:17469   */\n    tag_307:\n        /* \"#utility.yul\":17515:17516   */\n      0x01\n        /* \"#utility.yul\":17511:17512   */\n      0x02\n        /* \"#utility.yul\":17503:17509   */\n      dup9\n        /* \"#utility.yul\":17499:17513   */\n      mul\n        /* \"#utility.yul\":17495:17517   */\n      add\n        /* \"#utility.yul\":17489:17493   */\n      dup9\n        /* \"#utility.yul\":17482:17518   */\n      sstore\n        /* \"#utility.yul\":16917:17528   */\n      pop\n      pop\n      pop\n        /* \"#utility.yul\":16880:17767   */\n    tag_299:\n      pop\n        /* \"#utility.yul\":16470:17773   */\n      pop\n      pop\n      pop\n        /* \"#utility.yul\":16378:17773   */\n      pop\n      pop\n      jump\t// out\n\n    auxdata: 0xa2646970667358221220b5f566866f795969e55d9890cc5b55ae8adb071f2a123c5cf58e0263c66ea59c64736f6c63430008160033\n}\n",
				"bytecode": {
					"linkReferences": {},
					"object": "6080604052735b38da6a701c568545dcfcb03fcb875f56beddc45f806101000a81548173ffffffffffffffffffffffffffffffffffffffff021916908373ffffffffffffffffffffffffffffffffffffffff160217905550348015610062575f80fd5b50610f5d806100705f395ff3fe608060405234801561000f575f80fd5b5060043610610060575f3560e01c806311765b271461006457806392ad672f14610082578063a3306ae3146100b5578063a7113c50146100d1578063add6415d146100ed578063fc6f94681461010b575b5f80fd5b61006c610129565b60405161007991906106a8565b60405180910390f35b61009c60048036038101906100979190610705565b61014e565b6040516100ac94939291906107c9565b60405180910390f35b6100cf60048036038101906100ca9190610844565b610295565b005b6100eb60048036038101906100e6919061099b565b610365565b005b6100f5610491565b6040516101029190610bb0565b60405180910390f35b610113610620565b60405161012091906106a8565b60405180910390f35b60015f9054906101000a900473ffffffffffffffffffffffffffffffffffffffff1681565b6002818154811061015d575f80fd5b905f5260205f2090600402015f91509050805f01805461017c90610bfd565b80601f01602080910402602001604051908101604052809291908181526020018280546101a890610bfd565b80156101f35780601f106101ca576101008083540402835291602001916101f3565b820191905f5260205f20905b8154815290600101906020018083116101d657829003601f168201915b50505050509080600101805461020890610bfd565b80601f016020809104026020016040519081016040528092919081815260200182805461023490610bfd565b801561027f5780601f106102565761010080835404028352916020019161027f565b820191905f5260205f20905b81548152906001019060200180831161026257829003601f168201915b5050505050908060020154908060030154905084565b5f8054906101000a900473ffffffffffffffffffffffffffffffffffffffff1673ffffffffffffffffffffffffffffffffffffffff163373ffffffffffffffffffffffffffffffffffffffff1614610322576040517f08c379a000000000000000000000000000000000000000000000000000000000815260040161031990610c9d565b60405180910390fd5b8060015f6101000a81548173ffffffffffffffffffffffffffffffffffffffff021916908373ffffffffffffffffffffffffffffffffffffffff16021790555050565b60015f9054906101000a900473ffffffffffffffffffffffffffffffffffffffff1673ffffffffffffffffffffffffffffffffffffffff163373ffffffffffffffffffffffffffffffffffffffff16146103f4576040517f08c379a00000000000000000000000000000000000000000000000000000000081526004016103eb90610c9d565b60405180910390fd5b6103fc610643565b84815f01819052508381602001819052508281604001818152505081816060018181525050600281908060018154018082558091505060019003905f5260205f2090600402015f909190919091505f820151815f01908161045d9190610e58565b5060208201518160010190816104739190610e58565b50604082015181600201556060820151816003015550505050505050565b60606002805480602002602001604051908101604052809291908181526020015f905b82821015610617578382905f5260205f2090600402016040518060800160405290815f820180546104e490610bfd565b80601f016020809104026020016040519081016040528092919081815260200182805461051090610bfd565b801561055b5780601f106105325761010080835404028352916020019161055b565b820191905f5260205f20905b81548152906001019060200180831161053e57829003601f168201915b5050505050815260200160018201805461057490610bfd565b80601f01602080910402602001604051908101604052809291908181526020018280546105a090610bfd565b80156105eb5780601f106105c2576101008083540402835291602001916105eb565b820191905f5260205f20905b8154815290600101906020018083116105ce57829003601f168201915b5050505050815260200160028201548152602001600382015481525050815260200190600101906104b4565b50505050905090565b5f8054906101000a900473ffffffffffffffffffffffffffffffffffffffff1681565b604051806080016040528060608152602001606081526020015f81526020015f81525090565b5f73ffffffffffffffffffffffffffffffffffffffff82169050919050565b5f61069282610669565b9050919050565b6106a281610688565b82525050565b5f6020820190506106bb5f830184610699565b92915050565b5f604051905090565b5f80fd5b5f80fd5b5f819050919050565b6106e4816106d2565b81146106ee575f80fd5b50565b5f813590506106ff816106db565b92915050565b5f6020828403121561071a576107196106ca565b5b5f610727848285016106f1565b91505092915050565b5f81519050919050565b5f82825260208201905092915050565b5f5b8381101561076757808201518184015260208101905061074c565b5f8484015250505050565b5f601f19601f8301169050919050565b5f61078c82610730565b610796818561073a565b93506107a681856020860161074a565b6107af81610772565b840191505092915050565b6107c3816106d2565b82525050565b5f6080820190508181035f8301526107e18187610782565b905081810360208301526107f58186610782565b905061080460408301856107ba565b61081160608301846107ba565b95945050505050565b61082381610688565b811461082d575f80fd5b50565b5f8135905061083e8161081a565b92915050565b5f60208284031215610859576108586106ca565b5b5f61086684828501610830565b91505092915050565b5f80fd5b5f80fd5b7f4e487b71000000000000000000000000000000000000000000000000000000005f52604160045260245ffd5b6108ad82610772565b810181811067ffffffffffffffff821117156108cc576108cb610877565b5b80604052505050565b5f6108de6106c1565b90506108ea82826108a4565b919050565b5f67ffffffffffffffff82111561090957610908610877565b5b61091282610772565b9050602081019050919050565b828183375f83830152505050565b5f61093f61093a846108ef565b6108d5565b90508281526020810184848401111561095b5761095a610873565b5b61096684828561091f565b509392505050565b5f82601f8301126109825761098161086f565b5b813561099284826020860161092d565b91505092915050565b5f805f80608085870312156109b3576109b26106ca565b5b5f85013567ffffffffffffffff8111156109d0576109cf6106ce565b5b6109dc8782880161096e565b945050602085013567ffffffffffffffff8111156109fd576109fc6106ce565b5b610a098782880161096e565b9350506040610a1a878288016106f1565b9250506060610a2b878288016106f1565b91505092959194509250565b5f81519050919050565b5f82825260208201905092915050565b5f819050602082019050919050565b5f82825260208201905092915050565b5f610a7a82610730565b610a848185610a60565b9350610a9481856020860161074a565b610a9d81610772565b840191505092915050565b610ab1816106d2565b82525050565b5f608083015f8301518482035f860152610ad18282610a70565b91505060208301518482036020860152610aeb8282610a70565b9150506040830151610b006040860182610aa8565b506060830151610b136060860182610aa8565b508091505092915050565b5f610b298383610ab7565b905092915050565b5f602082019050919050565b5f610b4782610a37565b610b518185610a41565b935083602082028501610b6385610a51565b805f5b85811015610b9e5784840389528151610b7f8582610b1e565b9450610b8a83610b31565b925060208a01995050600181019050610b66565b50829750879550505050505092915050565b5f6020820190508181035f830152610bc88184610b3d565b905092915050565b7f4e487b71000000000000000000000000000000000000000000000000000000005f52602260045260245ffd5b5f6002820490506001821680610c1457607f821691505b602082108103610c2757610c26610bd0565b5b50919050565b7f4f6e6c792063616d706169676e20636f6e74726163742063616c6c20746869735f8201527f2066756e6374696f6e0000000000000000000000000000000000000000000000602082015250565b5f610c8760298361073a565b9150610c9282610c2d565b604082019050919050565b5f6020820190508181035f830152610cb481610c7b565b9050919050565b5f819050815f5260205f209050919050565b5f6020601f8301049050919050565b5f82821b905092915050565b5f60088302610d177fffffffffffffffffffffffffffffffffffffffffffffffffffffffffffffffff82610cdc565b610d218683610cdc565b95508019841693508086168417925050509392505050565b5f819050919050565b5f610d5c610d57610d52846106d2565b610d39565b6106d2565b9050919050565b5f819050919050565b610d7583610d42565b610d89610d8182610d63565b848454610ce8565b825550505050565b5f90565b610d9d610d91565b610da8818484610d6c565b505050565b5b81811015610dcb57610dc05f82610d95565b600181019050610dae565b5050565b601f821115610e1057610de181610cbb565b610dea84610ccd565b81016020851015610df9578190505b610e0d610e0585610ccd565b830182610dad565b50505b505050565b5f82821c905092915050565b5f610e305f1984600802610e15565b1980831691505092915050565b5f610e488383610e21565b9150826002028217905092915050565b610e6182610730565b67ffffffffffffffff811115610e7a57610e79610877565b5b610e848254610bfd565b610e8f828285610dcf565b5f60209050601f831160018114610ec0575f8415610eae578287015190505b610eb88582610e3d565b865550610f1f565b601f198416610ece86610cbb565b5f5b82811015610ef557848901518255600182019150602085019450602081019050610ed0565b86831015610f125784890151610f0e601f891682610e21565b8355505b6001600288020188555050505b50505050505056fea2646970667358221220b5f566866f795969e55d9890cc5b55ae8adb071f2a123c5cf58e0263c66ea59c64736f6c63430008160033",
					"opcodes": "PUSH1 0x80 PUSH1 0x40 MSTORE PUSH20 0x5B38DA6A701C568545DCFCB03FCB875F56BEDDC4 PUSH0 DUP1 PUSH2 0x100 EXP DUP2 SLOAD DUP2 PUSH20 0xFFFFFFFFFFFFFFFFFFFFFFFFFFFFFFFFFFFFFFFF MUL NOT AND SWAP1 DUP4 PUSH20 0xFFFFFFFFFFFFFFFFFFFFFFFFFFFFFFFFFFFFFFFF AND MUL OR SWAP1 SSTORE POP CALLVALUE DUP1 ISZERO PUSH2 0x62 JUMPI PUSH0 DUP1 REVERT JUMPDEST POP PUSH2 0xF5D DUP1 PUSH2 0x70 PUSH0 CODECOPY PUSH0 RETURN INVALID PUSH1 0x80 PUSH1 0x40 MSTORE CALLVALUE DUP1 ISZERO PUSH2 0xF JUMPI PUSH0 DUP1 REVERT JUMPDEST POP PUSH1 0x4 CALLDATASIZE LT PUSH2 0x60 JUMPI PUSH0 CALLDATALOAD PUSH1 0xE0 SHR DUP1 PUSH4 0x11765B27 EQ PUSH2 0x64 JUMPI DUP1 PUSH4 0x92AD672F EQ PUSH2 0x82 JUMPI DUP1 PUSH4 0xA3306AE3 EQ PUSH2 0xB5 JUMPI DUP1 PUSH4 0xA7113C50 EQ PUSH2 0xD1 JUMPI DUP1 PUSH4 0xADD6415D EQ PUSH2 0xED JUMPI DUP1 PUSH4 0xFC6F9468 EQ PUSH2 0x10B JUMPI JUMPDEST PUSH0 DUP1 REVERT JUMPDEST PUSH2 0x6C PUSH2 0x129 JUMP JUMPDEST PUSH1 0x40 MLOAD PUSH2 0x79 SWAP2 SWAP1 PUSH2 0x6A8 JUMP JUMPDEST PUSH1 0x40 MLOAD DUP1 SWAP2 SUB SWAP1 RETURN JUMPDEST PUSH2 0x9C PUSH1 0x4 DUP1 CALLDATASIZE SUB DUP2 ADD SWAP1 PUSH2 0x97 SWAP2 SWAP1 PUSH2 0x705 JUMP JUMPDEST PUSH2 0x14E JUMP JUMPDEST PUSH1 0x40 MLOAD PUSH2 0xAC SWAP5 SWAP4 SWAP3 SWAP2 SWAP1 PUSH2 0x7C9 JUMP JUMPDEST PUSH1 0x40 MLOAD DUP1 SWAP2 SUB SWAP1 RETURN JUMPDEST PUSH2 0xCF PUSH1 0x4 DUP1 CALLDATASIZE SUB DUP2 ADD SWAP1 PUSH2 0xCA SWAP2 SWAP1 PUSH2 0x844 JUMP JUMPDEST PUSH2 0x295 JUMP JUMPDEST STOP JUMPDEST PUSH2 0xEB PUSH1 0x4 DUP1 CALLDATASIZE SUB DUP2 ADD SWAP1 PUSH2 0xE6 SWAP2 SWAP1 PUSH2 0x99B JUMP JUMPDEST PUSH2 0x365 JUMP JUMPDEST STOP JUMPDEST PUSH2 0xF5 PUSH2 0x491 JUMP JUMPDEST PUSH1 0x40 MLOAD PUSH2 0x102 SWAP2 SWAP1 PUSH2 0xBB0 JUMP JUMPDEST PUSH1 0x40 MLOAD DUP1 SWAP2 SUB SWAP1 RETURN JUMPDEST PUSH2 0x113 PUSH2 0x620 JUMP JUMPDEST PUSH1 0x40 MLOAD PUSH2 0x120 SWAP2 SWAP1 PUSH2 0x6A8 JUMP JUMPDEST PUSH1 0x40 MLOAD DUP1 SWAP2 SUB SWAP1 RETURN JUMPDEST PUSH1 0x1 PUSH0 SWAP1 SLOAD SWAP1 PUSH2 0x100 EXP SWAP1 DIV PUSH20 0xFFFFFFFFFFFFFFFFFFFFFFFFFFFFFFFFFFFFFFFF AND DUP2 JUMP JUMPDEST PUSH1 0x2 DUP2 DUP2 SLOAD DUP2 LT PUSH2 0x15D JUMPI PUSH0 DUP1 REVERT JUMPDEST SWAP1 PUSH0 MSTORE PUSH1 0x20 PUSH0 KECCAK256 SWAP1 PUSH1 0x4 MUL ADD PUSH0 SWAP2 POP SWAP1 POP DUP1 PUSH0 ADD DUP1 SLOAD PUSH2 0x17C SWAP1 PUSH2 0xBFD JUMP JUMPDEST DUP1 PUSH1 0x1F ADD PUSH1 0x20 DUP1 SWAP2 DIV MUL PUSH1 0x20 ADD PUSH1 0x40 MLOAD SWAP1 DUP2 ADD PUSH1 0x40 MSTORE DUP1 SWAP3 SWAP2 SWAP1 DUP2 DUP2 MSTORE PUSH1 0x20 ADD DUP3 DUP1 SLOAD PUSH2 0x1A8 SWAP1 PUSH2 0xBFD JUMP JUMPDEST DUP1 ISZERO PUSH2 0x1F3 JUMPI DUP1 PUSH1 0x1F LT PUSH2 0x1CA JUMPI PUSH2 0x100 DUP1 DUP4 SLOAD DIV MUL DUP4 MSTORE SWAP2 PUSH1 0x20 ADD SWAP2 PUSH2 0x1F3 JUMP JUMPDEST DUP3 ADD SWAP2 SWAP1 PUSH0 MSTORE PUSH1 0x20 PUSH0 KECCAK256 SWAP1 JUMPDEST DUP2 SLOAD DUP2 MSTORE SWAP1 PUSH1 0x1 ADD SWAP1 PUSH1 0x20 ADD DUP1 DUP4 GT PUSH2 0x1D6 JUMPI DUP3 SWAP1 SUB PUSH1 0x1F AND DUP3 ADD SWAP2 JUMPDEST POP POP POP POP POP SWAP1 DUP1 PUSH1 0x1 ADD DUP1 SLOAD PUSH2 0x208 SWAP1 PUSH2 0xBFD JUMP JUMPDEST DUP1 PUSH1 0x1F ADD PUSH1 0x20 DUP1 SWAP2 DIV MUL PUSH1 0x20 ADD PUSH1 0x40 MLOAD SWAP1 DUP2 ADD PUSH1 0x40 MSTORE DUP1 SWAP3 SWAP2 SWAP1 DUP2 DUP2 MSTORE PUSH1 0x20 ADD DUP3 DUP1 SLOAD PUSH2 0x234 SWAP1 PUSH2 0xBFD JUMP JUMPDEST DUP1 ISZERO PUSH2 0x27F JUMPI DUP1 PUSH1 0x1F LT PUSH2 0x256 JUMPI PUSH2 0x100 DUP1 DUP4 SLOAD DIV MUL DUP4 MSTORE SWAP2 PUSH1 0x20 ADD SWAP2 PUSH2 0x27F JUMP JUMPDEST DUP3 ADD SWAP2 SWAP1 PUSH0 MSTORE PUSH1 0x20 PUSH0 KECCAK256 SWAP1 JUMPDEST DUP2 SLOAD DUP2 MSTORE SWAP1 PUSH1 0x1 ADD SWAP1 PUSH1 0x20 ADD DUP1 DUP4 GT PUSH2 0x262 JUMPI DUP3 SWAP1 SUB PUSH1 0x1F AND DUP3 ADD SWAP2 JUMPDEST POP POP POP POP POP SWAP1 DUP1 PUSH1 0x2 ADD SLOAD SWAP1 DUP1 PUSH1 0x3 ADD SLOAD SWAP1 POP DUP5 JUMP JUMPDEST PUSH0 DUP1 SLOAD SWAP1 PUSH2 0x100 EXP SWAP1 DIV PUSH20 0xFFFFFFFFFFFFFFFFFFFFFFFFFFFFFFFFFFFFFFFF AND PUSH20 0xFFFFFFFFFFFFFFFFFFFFFFFFFFFFFFFFFFFFFFFF AND CALLER PUSH20 0xFFFFFFFFFFFFFFFFFFFFFFFFFFFFFFFFFFFFFFFF AND EQ PUSH2 0x322 JUMPI PUSH1 0x40 MLOAD PUSH32 0x8C379A000000000000000000000000000000000000000000000000000000000 DUP2 MSTORE PUSH1 0x4 ADD PUSH2 0x319 SWAP1 PUSH2 0xC9D JUMP JUMPDEST PUSH1 0x40 MLOAD DUP1 SWAP2 SUB SWAP1 REVERT JUMPDEST DUP1 PUSH1 0x1 PUSH0 PUSH2 0x100 EXP DUP2 SLOAD DUP2 PUSH20 0xFFFFFFFFFFFFFFFFFFFFFFFFFFFFFFFFFFFFFFFF MUL NOT AND SWAP1 DUP4 PUSH20 0xFFFFFFFFFFFFFFFFFFFFFFFFFFFFFFFFFFFFFFFF AND MUL OR SWAP1 SSTORE POP POP JUMP JUMPDEST PUSH1 0x1 PUSH0 SWAP1 SLOAD SWAP1 PUSH2 0x100 EXP SWAP1 DIV PUSH20 0xFFFFFFFFFFFFFFFFFFFFFFFFFFFFFFFFFFFFFFFF AND PUSH20 0xFFFFFFFFFFFFFFFFFFFFFFFFFFFFFFFFFFFFFFFF AND CALLER PUSH20 0xFFFFFFFFFFFFFFFFFFFFFFFFFFFFFFFFFFFFFFFF AND EQ PUSH2 0x3F4 JUMPI PUSH1 0x40 MLOAD PUSH32 0x8C379A000000000000000000000000000000000000000000000000000000000 DUP2 MSTORE PUSH1 0x4 ADD PUSH2 0x3EB SWAP1 PUSH2 0xC9D JUMP JUMPDEST PUSH1 0x40 MLOAD DUP1 SWAP2 SUB SWAP1 REVERT JUMPDEST PUSH2 0x3FC PUSH2 0x643 JUMP JUMPDEST DUP5 DUP2 PUSH0 ADD DUP2 SWAP1 MSTORE POP DUP4 DUP2 PUSH1 0x20 ADD DUP2 SWAP1 MSTORE POP DUP3 DUP2 PUSH1 0x40 ADD DUP2 DUP2 MSTORE POP POP DUP2 DUP2 PUSH1 0x60 ADD DUP2 DUP2 MSTORE POP POP PUSH1 0x2 DUP2 SWAP1 DUP1 PUSH1 0x1 DUP2 SLOAD ADD DUP1 DUP3 SSTORE DUP1 SWAP2 POP POP PUSH1 0x1 SWAP1 SUB SWAP1 PUSH0 MSTORE PUSH1 0x20 PUSH0 KECCAK256 SWAP1 PUSH1 0x4 MUL ADD PUSH0 SWAP1 SWAP2 SWAP1 SWAP2 SWAP1 SWAP2 POP PUSH0 DUP3 ADD MLOAD DUP2 PUSH0 ADD SWAP1 DUP2 PUSH2 0x45D SWAP2 SWAP1 PUSH2 0xE58 JUMP JUMPDEST POP PUSH1 0x20 DUP3 ADD MLOAD DUP2 PUSH1 0x1 ADD SWAP1 DUP2 PUSH2 0x473 SWAP2 SWAP1 PUSH2 0xE58 JUMP JUMPDEST POP PUSH1 0x40 DUP3 ADD MLOAD DUP2 PUSH1 0x2 ADD SSTORE PUSH1 0x60 DUP3 ADD MLOAD DUP2 PUSH1 0x3 ADD SSTORE POP POP POP POP POP POP POP JUMP JUMPDEST PUSH1 0x60 PUSH1 0x2 DUP1 SLOAD DUP1 PUSH1 0x20 MUL PUSH1 0x20 ADD PUSH1 0x40 MLOAD SWAP1 DUP2 ADD PUSH1 0x40 MSTORE DUP1 SWAP3 SWAP2 SWAP1 DUP2 DUP2 MSTORE PUSH1 0x20 ADD PUSH0 SWAP1 JUMPDEST DUP3 DUP3 LT ISZERO PUSH2 0x617 JUMPI DUP4 DUP3 SWAP1 PUSH0 MSTORE PUSH1 0x20 PUSH0 KECCAK256 SWAP1 PUSH1 0x4 MUL ADD PUSH1 0x40 MLOAD DUP1 PUSH1 0x80 ADD PUSH1 0x40 MSTORE SWAP1 DUP2 PUSH0 DUP3 ADD DUP1 SLOAD PUSH2 0x4E4 SWAP1 PUSH2 0xBFD JUMP JUMPDEST DUP1 PUSH1 0x1F ADD PUSH1 0x20 DUP1 SWAP2 DIV MUL PUSH1 0x20 ADD PUSH1 0x40 MLOAD SWAP1 DUP2 ADD PUSH1 0x40 MSTORE DUP1 SWAP3 SWAP2 SWAP1 DUP2 DUP2 MSTORE PUSH1 0x20 ADD DUP3 DUP1 SLOAD PUSH2 0x510 SWAP1 PUSH2 0xBFD JUMP JUMPDEST DUP1 ISZERO PUSH2 0x55B JUMPI DUP1 PUSH1 0x1F LT PUSH2 0x532 JUMPI PUSH2 0x100 DUP1 DUP4 SLOAD DIV MUL DUP4 MSTORE SWAP2 PUSH1 0x20 ADD SWAP2 PUSH2 0x55B JUMP JUMPDEST DUP3 ADD SWAP2 SWAP1 PUSH0 MSTORE PUSH1 0x20 PUSH0 KECCAK256 SWAP1 JUMPDEST DUP2 SLOAD DUP2 MSTORE SWAP1 PUSH1 0x1 ADD SWAP1 PUSH1 0x20 ADD DUP1 DUP4 GT PUSH2 0x53E JUMPI DUP3 SWAP1 SUB PUSH1 0x1F AND DUP3 ADD SWAP2 JUMPDEST POP POP POP POP POP DUP2 MSTORE PUSH1 0x20 ADD PUSH1 0x1 DUP3 ADD DUP1 SLOAD PUSH2 0x574 SWAP1 PUSH2 0xBFD JUMP JUMPDEST DUP1 PUSH1 0x1F ADD PUSH1 0x20 DUP1 SWAP2 DIV MUL PUSH1 0x20 ADD PUSH1 0x40 MLOAD SWAP1 DUP2 ADD PUSH1 0x40 MSTORE DUP1 SWAP3 SWAP2 SWAP1 DUP2 DUP2 MSTORE PUSH1 0x20 ADD DUP3 DUP1 SLOAD PUSH2 0x5A0 SWAP1 PUSH2 0xBFD JUMP JUMPDEST DUP1 ISZERO PUSH2 0x5EB JUMPI DUP1 PUSH1 0x1F LT PUSH2 0x5C2 JUMPI PUSH2 0x100 DUP1 DUP4 SLOAD DIV MUL DUP4 MSTORE SWAP2 PUSH1 0x20 ADD SWAP2 PUSH2 0x5EB JUMP JUMPDEST DUP3 ADD SWAP2 SWAP1 PUSH0 MSTORE PUSH1 0x20 PUSH0 KECCAK256 SWAP1 JUMPDEST DUP2 SLOAD DUP2 MSTORE SWAP1 PUSH1 0x1 ADD SWAP1 PUSH1 0x20 ADD DUP1 DUP4 GT PUSH2 0x5CE JUMPI DUP3 SWAP1 SUB PUSH1 0x1F AND DUP3 ADD SWAP2 JUMPDEST POP POP POP POP POP DUP2 MSTORE PUSH1 0x20 ADD PUSH1 0x2 DUP3 ADD SLOAD DUP2 MSTORE PUSH1 0x20 ADD PUSH1 0x3 DUP3 ADD SLOAD DUP2 MSTORE POP POP DUP2 MSTORE PUSH1 0x20 ADD SWAP1 PUSH1 0x1 ADD SWAP1 PUSH2 0x4B4 JUMP JUMPDEST POP POP POP POP SWAP1 POP SWAP1 JUMP JUMPDEST PUSH0 DUP1 SLOAD SWAP1 PUSH2 0x100 EXP SWAP1 DIV PUSH20 0xFFFFFFFFFFFFFFFFFFFFFFFFFFFFFFFFFFFFFFFF AND DUP2 JUMP JUMPDEST PUSH1 0x40 MLOAD DUP1 PUSH1 0x80 ADD PUSH1 0x40 MSTORE DUP1 PUSH1 0x60 DUP2 MSTORE PUSH1 0x20 ADD PUSH1 0x60 DUP2 MSTORE PUSH1 0x20 ADD PUSH0 DUP2 MSTORE PUSH1 0x20 ADD PUSH0 DUP2 MSTORE POP SWAP1 JUMP JUMPDEST PUSH0 PUSH20 0xFFFFFFFFFFFFFFFFFFFFFFFFFFFFFFFFFFFFFFFF DUP3 AND SWAP1 POP SWAP2 SWAP1 POP JUMP JUMPDEST PUSH0 PUSH2 0x692 DUP3 PUSH2 0x669 JUMP JUMPDEST SWAP1 POP SWAP2 SWAP1 POP JUMP JUMPDEST PUSH2 0x6A2 DUP2 PUSH2 0x688 JUMP JUMPDEST DUP3 MSTORE POP POP JUMP JUMPDEST PUSH0 PUSH1 0x20 DUP3 ADD SWAP1 POP PUSH2 0x6BB PUSH0 DUP4 ADD DUP5 PUSH2 0x699 JUMP JUMPDEST SWAP3 SWAP2 POP POP JUMP JUMPDEST PUSH0 PUSH1 0x40 MLOAD SWAP1 POP SWAP1 JUMP JUMPDEST PUSH0 DUP1 REVERT JUMPDEST PUSH0 DUP1 REVERT JUMPDEST PUSH0 DUP2 SWAP1 POP SWAP2 SWAP1 POP JUMP JUMPDEST PUSH2 0x6E4 DUP2 PUSH2 0x6D2 JUMP JUMPDEST DUP2 EQ PUSH2 0x6EE JUMPI PUSH0 DUP1 REVERT JUMPDEST POP JUMP JUMPDEST PUSH0 DUP2 CALLDATALOAD SWAP1 POP PUSH2 0x6FF DUP2 PUSH2 0x6DB JUMP JUMPDEST SWAP3 SWAP2 POP POP JUMP JUMPDEST PUSH0 PUSH1 0x20 DUP3 DUP5 SUB SLT ISZERO PUSH2 0x71A JUMPI PUSH2 0x719 PUSH2 0x6CA JUMP JUMPDEST JUMPDEST PUSH0 PUSH2 0x727 DUP5 DUP3 DUP6 ADD PUSH2 0x6F1 JUMP JUMPDEST SWAP2 POP POP SWAP3 SWAP2 POP POP JUMP JUMPDEST PUSH0 DUP2 MLOAD SWAP1 POP SWAP2 SWAP1 POP JUMP JUMPDEST PUSH0 DUP3 DUP3 MSTORE PUSH1 0x20 DUP3 ADD SWAP1 POP SWAP3 SWAP2 POP POP JUMP JUMPDEST PUSH0 JUMPDEST DUP4 DUP2 LT ISZERO PUSH2 0x767 JUMPI DUP1 DUP3 ADD MLOAD DUP2 DUP5 ADD MSTORE PUSH1 0x20 DUP2 ADD SWAP1 POP PUSH2 0x74C JUMP JUMPDEST PUSH0 DUP5 DUP5 ADD MSTORE POP POP POP POP JUMP JUMPDEST PUSH0 PUSH1 0x1F NOT PUSH1 0x1F DUP4 ADD AND SWAP1 POP SWAP2 SWAP1 POP JUMP JUMPDEST PUSH0 PUSH2 0x78C DUP3 PUSH2 0x730 JUMP JUMPDEST PUSH2 0x796 DUP2 DUP6 PUSH2 0x73A JUMP JUMPDEST SWAP4 POP PUSH2 0x7A6 DUP2 DUP6 PUSH1 0x20 DUP7 ADD PUSH2 0x74A JUMP JUMPDEST PUSH2 0x7AF DUP2 PUSH2 0x772 JUMP JUMPDEST DUP5 ADD SWAP2 POP POP SWAP3 SWAP2 POP POP JUMP JUMPDEST PUSH2 0x7C3 DUP2 PUSH2 0x6D2 JUMP JUMPDEST DUP3 MSTORE POP POP JUMP JUMPDEST PUSH0 PUSH1 0x80 DUP3 ADD SWAP1 POP DUP2 DUP2 SUB PUSH0 DUP4 ADD MSTORE PUSH2 0x7E1 DUP2 DUP8 PUSH2 0x782 JUMP JUMPDEST SWAP1 POP DUP2 DUP2 SUB PUSH1 0x20 DUP4 ADD MSTORE PUSH2 0x7F5 DUP2 DUP7 PUSH2 0x782 JUMP JUMPDEST SWAP1 POP PUSH2 0x804 PUSH1 0x40 DUP4 ADD DUP6 PUSH2 0x7BA JUMP JUMPDEST PUSH2 0x811 PUSH1 0x60 DUP4 ADD DUP5 PUSH2 0x7BA JUMP JUMPDEST SWAP6 SWAP5 POP POP POP POP POP JUMP JUMPDEST PUSH2 0x823 DUP2 PUSH2 0x688 JUMP JUMPDEST DUP2 EQ PUSH2 0x82D JUMPI PUSH0 DUP1 REVERT JUMPDEST POP JUMP JUMPDEST PUSH0 DUP2 CALLDATALOAD SWAP1 POP PUSH2 0x83E DUP2 PUSH2 0x81A JUMP JUMPDEST SWAP3 SWAP2 POP POP JUMP JUMPDEST PUSH0 PUSH1 0x20 DUP3 DUP5 SUB SLT ISZERO PUSH2 0x859 JUMPI PUSH2 0x858 PUSH2 0x6CA JUMP JUMPDEST JUMPDEST PUSH0 PUSH2 0x866 DUP5 DUP3 DUP6 ADD PUSH2 0x830 JUMP JUMPDEST SWAP2 POP POP SWAP3 SWAP2 POP POP JUMP JUMPDEST PUSH0 DUP1 REVERT JUMPDEST PUSH0 DUP1 REVERT JUMPDEST PUSH32 0x4E487B7100000000000000000000000000000000000000000000000000000000 PUSH0 MSTORE PUSH1 0x41 PUSH1 0x4 MSTORE PUSH1 0x24 PUSH0 REVERT JUMPDEST PUSH2 0x8AD DUP3 PUSH2 0x772 JUMP JUMPDEST DUP2 ADD DUP2 DUP2 LT PUSH8 0xFFFFFFFFFFFFFFFF DUP3 GT OR ISZERO PUSH2 0x8CC JUMPI PUSH2 0x8CB PUSH2 0x877 JUMP JUMPDEST JUMPDEST DUP1 PUSH1 0x40 MSTORE POP POP POP JUMP JUMPDEST PUSH0 PUSH2 0x8DE PUSH2 0x6C1 JUMP JUMPDEST SWAP1 POP PUSH2 0x8EA DUP3 DUP3 PUSH2 0x8A4 JUMP JUMPDEST SWAP2 SWAP1 POP JUMP JUMPDEST PUSH0 PUSH8 0xFFFFFFFFFFFFFFFF DUP3 GT ISZERO PUSH2 0x909 JUMPI PUSH2 0x908 PUSH2 0x877 JUMP JUMPDEST JUMPDEST PUSH2 0x912 DUP3 PUSH2 0x772 JUMP JUMPDEST SWAP1 POP PUSH1 0x20 DUP2 ADD SWAP1 POP SWAP2 SWAP1 POP JUMP JUMPDEST DUP3 DUP2 DUP4 CALLDATACOPY PUSH0 DUP4 DUP4 ADD MSTORE POP POP POP JUMP JUMPDEST PUSH0 PUSH2 0x93F PUSH2 0x93A DUP5 PUSH2 0x8EF JUMP JUMPDEST PUSH2 0x8D5 JUMP JUMPDEST SWAP1 POP DUP3 DUP2 MSTORE PUSH1 0x20 DUP2 ADD DUP5 DUP5 DUP5 ADD GT ISZERO PUSH2 0x95B JUMPI PUSH2 0x95A PUSH2 0x873 JUMP JUMPDEST JUMPDEST PUSH2 0x966 DUP5 DUP3 DUP6 PUSH2 0x91F JUMP JUMPDEST POP SWAP4 SWAP3 POP POP POP JUMP JUMPDEST PUSH0 DUP3 PUSH1 0x1F DUP4 ADD SLT PUSH2 0x982 JUMPI PUSH2 0x981 PUSH2 0x86F JUMP JUMPDEST JUMPDEST DUP2 CALLDATALOAD PUSH2 0x992 DUP5 DUP3 PUSH1 0x20 DUP7 ADD PUSH2 0x92D JUMP JUMPDEST SWAP2 POP POP SWAP3 SWAP2 POP POP JUMP JUMPDEST PUSH0 DUP1 PUSH0 DUP1 PUSH1 0x80 DUP6 DUP8 SUB SLT ISZERO PUSH2 0x9B3 JUMPI PUSH2 0x9B2 PUSH2 0x6CA JUMP JUMPDEST JUMPDEST PUSH0 DUP6 ADD CALLDATALOAD PUSH8 0xFFFFFFFFFFFFFFFF DUP2 GT ISZERO PUSH2 0x9D0 JUMPI PUSH2 0x9CF PUSH2 0x6CE JUMP JUMPDEST JUMPDEST PUSH2 0x9DC DUP8 DUP3 DUP9 ADD PUSH2 0x96E JUMP JUMPDEST SWAP5 POP POP PUSH1 0x20 DUP6 ADD CALLDATALOAD PUSH8 0xFFFFFFFFFFFFFFFF DUP2 GT ISZERO PUSH2 0x9FD JUMPI PUSH2 0x9FC PUSH2 0x6CE JUMP JUMPDEST JUMPDEST PUSH2 0xA09 DUP8 DUP3 DUP9 ADD PUSH2 0x96E JUMP JUMPDEST SWAP4 POP POP PUSH1 0x40 PUSH2 0xA1A DUP8 DUP3 DUP9 ADD PUSH2 0x6F1 JUMP JUMPDEST SWAP3 POP POP PUSH1 0x60 PUSH2 0xA2B DUP8 DUP3 DUP9 ADD PUSH2 0x6F1 JUMP JUMPDEST SWAP2 POP POP SWAP3 SWAP6 SWAP2 SWAP5 POP SWAP3 POP JUMP JUMPDEST PUSH0 DUP2 MLOAD SWAP1 POP SWAP2 SWAP1 POP JUMP JUMPDEST PUSH0 DUP3 DUP3 MSTORE PUSH1 0x20 DUP3 ADD SWAP1 POP SWAP3 SWAP2 POP POP JUMP JUMPDEST PUSH0 DUP2 SWAP1 POP PUSH1 0x20 DUP3 ADD SWAP1 POP SWAP2 SWAP1 POP JUMP JUMPDEST PUSH0 DUP3 DUP3 MSTORE PUSH1 0x20 DUP3 ADD SWAP1 POP SWAP3 SWAP2 POP POP JUMP JUMPDEST PUSH0 PUSH2 0xA7A DUP3 PUSH2 0x730 JUMP JUMPDEST PUSH2 0xA84 DUP2 DUP6 PUSH2 0xA60 JUMP JUMPDEST SWAP4 POP PUSH2 0xA94 DUP2 DUP6 PUSH1 0x20 DUP7 ADD PUSH2 0x74A JUMP JUMPDEST PUSH2 0xA9D DUP2 PUSH2 0x772 JUMP JUMPDEST DUP5 ADD SWAP2 POP POP SWAP3 SWAP2 POP POP JUMP JUMPDEST PUSH2 0xAB1 DUP2 PUSH2 0x6D2 JUMP JUMPDEST DUP3 MSTORE POP POP JUMP JUMPDEST PUSH0 PUSH1 0x80 DUP4 ADD PUSH0 DUP4 ADD MLOAD DUP5 DUP3 SUB PUSH0 DUP7 ADD MSTORE PUSH2 0xAD1 DUP3 DUP3 PUSH2 0xA70 JUMP JUMPDEST SWAP2 POP POP PUSH1 0x20 DUP4 ADD MLOAD DUP5 DUP3 SUB PUSH1 0x20 DUP7 ADD MSTORE PUSH2 0xAEB DUP3 DUP3 PUSH2 0xA70 JUMP JUMPDEST SWAP2 POP POP PUSH1 0x40 DUP4 ADD MLOAD PUSH2 0xB00 PUSH1 0x40 DUP7 ADD DUP3 PUSH2 0xAA8 JUMP JUMPDEST POP PUSH1 0x60 DUP4 ADD MLOAD PUSH2 0xB13 PUSH1 0x60 DUP7 ADD DUP3 PUSH2 0xAA8 JUMP JUMPDEST POP DUP1 SWAP2 POP POP SWAP3 SWAP2 POP POP JUMP JUMPDEST PUSH0 PUSH2 0xB29 DUP4 DUP4 PUSH2 0xAB7 JUMP JUMPDEST SWAP1 POP SWAP3 SWAP2 POP POP JUMP JUMPDEST PUSH0 PUSH1 0x20 DUP3 ADD SWAP1 POP SWAP2 SWAP1 POP JUMP JUMPDEST PUSH0 PUSH2 0xB47 DUP3 PUSH2 0xA37 JUMP JUMPDEST PUSH2 0xB51 DUP2 DUP6 PUSH2 0xA41 JUMP JUMPDEST SWAP4 POP DUP4 PUSH1 0x20 DUP3 MUL DUP6 ADD PUSH2 0xB63 DUP6 PUSH2 0xA51 JUMP JUMPDEST DUP1 PUSH0 JUMPDEST DUP6 DUP2 LT ISZERO PUSH2 0xB9E JUMPI DUP5 DUP5 SUB DUP10 MSTORE DUP2 MLOAD PUSH2 0xB7F DUP6 DUP3 PUSH2 0xB1E JUMP JUMPDEST SWAP5 POP PUSH2 0xB8A DUP4 PUSH2 0xB31 JUMP JUMPDEST SWAP3 POP PUSH1 0x20 DUP11 ADD SWAP10 POP POP PUSH1 0x1 DUP2 ADD SWAP1 POP PUSH2 0xB66 JUMP JUMPDEST POP DUP3 SWAP8 POP DUP8 SWAP6 POP POP POP POP POP POP SWAP3 SWAP2 POP POP JUMP JUMPDEST PUSH0 PUSH1 0x20 DUP3 ADD SWAP1 POP DUP2 DUP2 SUB PUSH0 DUP4 ADD MSTORE PUSH2 0xBC8 DUP2 DUP5 PUSH2 0xB3D JUMP JUMPDEST SWAP1 POP SWAP3 SWAP2 POP POP JUMP JUMPDEST PUSH32 0x4E487B7100000000000000000000000000000000000000000000000000000000 PUSH0 MSTORE PUSH1 0x22 PUSH1 0x4 MSTORE PUSH1 0x24 PUSH0 REVERT JUMPDEST PUSH0 PUSH1 0x2 DUP3 DIV SWAP1 POP PUSH1 0x1 DUP3 AND DUP1 PUSH2 0xC14 JUMPI PUSH1 0x7F DUP3 AND SWAP2 POP JUMPDEST PUSH1 0x20 DUP3 LT DUP2 SUB PUSH2 0xC27 JUMPI PUSH2 0xC26 PUSH2 0xBD0 JUMP JUMPDEST JUMPDEST POP SWAP2 SWAP1 POP JUMP JUMPDEST PUSH32 0x4F6E6C792063616D706169676E20636F6E74726163742063616C6C2074686973 PUSH0 DUP3 ADD MSTORE PUSH32 0x2066756E6374696F6E0000000000000000000000000000000000000000000000 PUSH1 0x20 DUP3 ADD MSTORE POP JUMP JUMPDEST PUSH0 PUSH2 0xC87 PUSH1 0x29 DUP4 PUSH2 0x73A JUMP JUMPDEST SWAP2 POP PUSH2 0xC92 DUP3 PUSH2 0xC2D JUMP JUMPDEST PUSH1 0x40 DUP3 ADD SWAP1 POP SWAP2 SWAP1 POP JUMP JUMPDEST PUSH0 PUSH1 0x20 DUP3 ADD SWAP1 POP DUP2 DUP2 SUB PUSH0 DUP4 ADD MSTORE PUSH2 0xCB4 DUP2 PUSH2 0xC7B JUMP JUMPDEST SWAP1 POP SWAP2 SWAP1 POP JUMP JUMPDEST PUSH0 DUP2 SWAP1 POP DUP2 PUSH0 MSTORE PUSH1 0x20 PUSH0 KECCAK256 SWAP1 POP SWAP2 SWAP1 POP JUMP JUMPDEST PUSH0 PUSH1 0x20 PUSH1 0x1F DUP4 ADD DIV SWAP1 POP SWAP2 SWAP1 POP JUMP JUMPDEST PUSH0 DUP3 DUP3 SHL SWAP1 POP SWAP3 SWAP2 POP POP JUMP JUMPDEST PUSH0 PUSH1 0x8 DUP4 MUL PUSH2 0xD17 PUSH32 0xFFFFFFFFFFFFFFFFFFFFFFFFFFFFFFFFFFFFFFFFFFFFFFFFFFFFFFFFFFFFFFFF DUP3 PUSH2 0xCDC JUMP JUMPDEST PUSH2 0xD21 DUP7 DUP4 PUSH2 0xCDC JUMP JUMPDEST SWAP6 POP DUP1 NOT DUP5 AND SWAP4 POP DUP1 DUP7 AND DUP5 OR SWAP3 POP POP POP SWAP4 SWAP3 POP POP POP JUMP JUMPDEST PUSH0 DUP2 SWAP1 POP SWAP2 SWAP1 POP JUMP JUMPDEST PUSH0 PUSH2 0xD5C PUSH2 0xD57 PUSH2 0xD52 DUP5 PUSH2 0x6D2 JUMP JUMPDEST PUSH2 0xD39 JUMP JUMPDEST PUSH2 0x6D2 JUMP JUMPDEST SWAP1 POP SWAP2 SWAP1 POP JUMP JUMPDEST PUSH0 DUP2 SWAP1 POP SWAP2 SWAP1 POP JUMP JUMPDEST PUSH2 0xD75 DUP4 PUSH2 0xD42 JUMP JUMPDEST PUSH2 0xD89 PUSH2 0xD81 DUP3 PUSH2 0xD63 JUMP JUMPDEST DUP5 DUP5 SLOAD PUSH2 0xCE8 JUMP JUMPDEST DUP3 SSTORE POP POP POP POP JUMP JUMPDEST PUSH0 SWAP1 JUMP JUMPDEST PUSH2 0xD9D PUSH2 0xD91 JUMP JUMPDEST PUSH2 0xDA8 DUP2 DUP5 DUP5 PUSH2 0xD6C JUMP JUMPDEST POP POP POP JUMP JUMPDEST JUMPDEST DUP2 DUP2 LT ISZERO PUSH2 0xDCB JUMPI PUSH2 0xDC0 PUSH0 DUP3 PUSH2 0xD95 JUMP JUMPDEST PUSH1 0x1 DUP2 ADD SWAP1 POP PUSH2 0xDAE JUMP JUMPDEST POP POP JUMP JUMPDEST PUSH1 0x1F DUP3 GT ISZERO PUSH2 0xE10 JUMPI PUSH2 0xDE1 DUP2 PUSH2 0xCBB JUMP JUMPDEST PUSH2 0xDEA DUP5 PUSH2 0xCCD JUMP JUMPDEST DUP2 ADD PUSH1 0x20 DUP6 LT ISZERO PUSH2 0xDF9 JUMPI DUP2 SWAP1 POP JUMPDEST PUSH2 0xE0D PUSH2 0xE05 DUP6 PUSH2 0xCCD JUMP JUMPDEST DUP4 ADD DUP3 PUSH2 0xDAD JUMP JUMPDEST POP POP JUMPDEST POP POP POP JUMP JUMPDEST PUSH0 DUP3 DUP3 SHR SWAP1 POP SWAP3 SWAP2 POP POP JUMP JUMPDEST PUSH0 PUSH2 0xE30 PUSH0 NOT DUP5 PUSH1 0x8 MUL PUSH2 0xE15 JUMP JUMPDEST NOT DUP1 DUP4 AND SWAP2 POP POP SWAP3 SWAP2 POP POP JUMP JUMPDEST PUSH0 PUSH2 0xE48 DUP4 DUP4 PUSH2 0xE21 JUMP JUMPDEST SWAP2 POP DUP3 PUSH1 0x2 MUL DUP3 OR SWAP1 POP SWAP3 SWAP2 POP POP JUMP JUMPDEST PUSH2 0xE61 DUP3 PUSH2 0x730 JUMP JUMPDEST PUSH8 0xFFFFFFFFFFFFFFFF DUP2 GT ISZERO PUSH2 0xE7A JUMPI PUSH2 0xE79 PUSH2 0x877 JUMP JUMPDEST JUMPDEST PUSH2 0xE84 DUP3 SLOAD PUSH2 0xBFD JUMP JUMPDEST PUSH2 0xE8F DUP3 DUP3 DUP6 PUSH2 0xDCF JUMP JUMPDEST PUSH0 PUSH1 0x20 SWAP1 POP PUSH1 0x1F DUP4 GT PUSH1 0x1 DUP2 EQ PUSH2 0xEC0 JUMPI PUSH0 DUP5 ISZERO PUSH2 0xEAE JUMPI DUP3 DUP8 ADD MLOAD SWAP1 POP JUMPDEST PUSH2 0xEB8 DUP6 DUP3 PUSH2 0xE3D JUMP JUMPDEST DUP7 SSTORE POP PUSH2 0xF1F JUMP JUMPDEST PUSH1 0x1F NOT DUP5 AND PUSH2 0xECE DUP7 PUSH2 0xCBB JUMP JUMPDEST PUSH0 JUMPDEST DUP3 DUP2 LT ISZERO PUSH2 0xEF5 JUMPI DUP5 DUP10 ADD MLOAD DUP3 SSTORE PUSH1 0x1 DUP3 ADD SWAP2 POP PUSH1 0x20 DUP6 ADD SWAP5 POP PUSH1 0x20 DUP2 ADD SWAP1 POP PUSH2 0xED0 JUMP JUMPDEST DUP7 DUP4 LT ISZERO PUSH2 0xF12 JUMPI DUP5 DUP10 ADD MLOAD PUSH2 0xF0E PUSH1 0x1F DUP10 AND DUP3 PUSH2 0xE21 JUMP JUMPDEST DUP4 SSTORE POP JUMPDEST PUSH1 0x1 PUSH1 0x2 DUP9 MUL ADD DUP9 SSTORE POP POP POP JUMPDEST POP POP POP POP POP POP JUMP INVALID LOG2 PUSH5 0x6970667358 0x22 SLT KECCAK256 0xB5 CREATE2 PUSH7 0x866F795969E55D SWAP9 SWAP1 0xCC JUMPDEST SSTORE 0xAE DUP11 0xDB SMOD 0x1F 0x2A SLT EXTCODECOPY 0x5C CREATE2 DUP15 MUL PUSH4 0xC66EA59C PUSH5 0x736F6C6343 STOP ADDMOD AND STOP CALLER "
				},
				"gasEstimates": {
					"creation": {
						"codeDepositCost": "786600",
						"executionCost": "25082",
						"totalCost": "811682"
					},
					"external": {
						"addNewTransactionHistory(string,string,uint256,uint256)": "infinite",
						"adminAddress()": "2593",
						"campaignAddress()": "2486",
						"getAllTransaction()": "infinite",
						"setCampaignAddress(address)": "26903",
						"transactionInfoArray(uint256)": "infinite"
					}
				},
				"methodIdentifiers": {
					"addNewTransactionHistory(string,string,uint256,uint256)": "a7113c50",
					"adminAddress()": "fc6f9468",
					"campaignAddress()": "11765b27",
					"getAllTransaction()": "add6415d",
					"setCampaignAddress(address)": "a3306ae3",
					"transactionInfoArray(uint256)": "92ad672f"
				}
			},
			"storageLayout": {
				"storage": [
					{
						"astId": 234,
						"contract": "contracts/TransactionHistory.sol:TransactionHistory",
						"label": "adminAddress",
						"offset": 0,
						"slot": "0",
						"type": "t_address"
					},
					{
						"astId": 236,
						"contract": "contracts/TransactionHistory.sol:TransactionHistory",
						"label": "campaignAddress",
						"offset": 0,
						"slot": "1",
						"type": "t_address"
					},
					{
						"astId": 249,
						"contract": "contracts/TransactionHistory.sol:TransactionHistory",
						"label": "transactionInfoArray",
						"offset": 0,
						"slot": "2",
						"type": "t_array(t_struct(TransactionInfo)245_storage)dyn_storage"
					}
				],
				"types": {
					"t_address": {
						"encoding": "inplace",
						"label": "address",
						"numberOfBytes": "20"
					},
					"t_array(t_struct(TransactionInfo)245_storage)dyn_storage": {
						"base": "t_struct(TransactionInfo)245_storage",
						"encoding": "dynamic_array",
						"label": "struct TransactionHistory.TransactionInfo[]",
						"numberOfBytes": "32"
					},
					"t_string_storage": {
						"encoding": "bytes",
						"label": "string",
						"numberOfBytes": "32"
					},
					"t_struct(TransactionInfo)245_storage": {
						"encoding": "inplace",
						"label": "struct TransactionHistory.TransactionInfo",
						"members": [
							{
								"astId": 238,
								"contract": "contracts/TransactionHistory.sol:TransactionHistory",
								"label": "campaignId",
								"offset": 0,
								"slot": "0",
								"type": "t_string_storage"
							},
							{
								"astId": 240,
								"contract": "contracts/TransactionHistory.sol:TransactionHistory",
								"label": "donatorId",
								"offset": 0,
								"slot": "1",
								"type": "t_string_storage"
							},
							{
								"astId": 242,
								"contract": "contracts/TransactionHistory.sol:TransactionHistory",
								"label": "value",
								"offset": 0,
								"slot": "2",
								"type": "t_uint256"
							},
							{
								"astId": 244,
								"contract": "contracts/TransactionHistory.sol:TransactionHistory",
								"label": "time",
								"offset": 0,
								"slot": "3",
								"type": "t_uint256"
							}
						],
						"numberOfBytes": "128"
					},
					"t_uint256": {
						"encoding": "inplace",
						"label": "uint256",
						"numberOfBytes": "32"
					}
				}
			},
			"userdoc": {
				"kind": "user",
				"methods": {},
				"version": 1
			}
		}
	}
}