{
	"contracts/TransactionHistory.sol": {
		"TransactionHistory": {
			"abi": [
				{
					"inputs": [
						{
							"internalType": "uint256",
							"name": "id",
							"type": "uint256"
						},
						{
							"internalType": "string",
							"name": "campaignId",
							"type": "string"
						},
						{
							"internalType": "string",
							"name": "donatorId",
							"type": "string"
						},
						{
							"internalType": "address",
							"name": "donatorAddress",
							"type": "address"
						},
						{
							"internalType": "uint256",
							"name": "value",
							"type": "uint256"
						},
						{
							"internalType": "string",
							"name": "time",
							"type": "string"
						}
					],
					"name": "addNewTransactionHistory",
					"outputs": [],
					"stateMutability": "nonpayable",
					"type": "function"
				},
				{
					"inputs": [],
					"name": "adminAddress",
					"outputs": [
						{
							"internalType": "address",
							"name": "",
							"type": "address"
						}
					],
					"stateMutability": "view",
					"type": "function"
				},
				{
					"inputs": [],
					"name": "campaignAddress",
					"outputs": [
						{
							"internalType": "address",
							"name": "",
							"type": "address"
						}
					],
					"stateMutability": "view",
					"type": "function"
				},
				{
					"inputs": [],
					"name": "getAllTransaction",
					"outputs": [
						{
							"components": [
								{
									"internalType": "uint256",
									"name": "id",
									"type": "uint256"
								},
								{
									"internalType": "string",
									"name": "campaignId",
									"type": "string"
								},
								{
									"internalType": "string",
									"name": "donatorId",
									"type": "string"
								},
								{
									"internalType": "address",
									"name": "donatorAddress",
									"type": "address"
								},
								{
									"internalType": "uint256",
									"name": "value",
									"type": "uint256"
								},
								{
									"internalType": "string",
									"name": "time",
									"type": "string"
								}
							],
							"internalType": "struct TransactionHistory.TransactionInfo[]",
							"name": "",
							"type": "tuple[]"
						}
					],
					"stateMutability": "view",
					"type": "function"
				},
				{
					"inputs": [
						{
							"internalType": "string",
							"name": "_donatorId",
							"type": "string"
						}
					],
					"name": "getDonateByUser",
					"outputs": [
						{
							"components": [
								{
									"internalType": "uint256",
									"name": "id",
									"type": "uint256"
								},
								{
									"internalType": "string",
									"name": "campaignId",
									"type": "string"
								},
								{
									"internalType": "string",
									"name": "donatorId",
									"type": "string"
								},
								{
									"internalType": "address",
									"name": "donatorAddress",
									"type": "address"
								},
								{
									"internalType": "uint256",
									"name": "value",
									"type": "uint256"
								},
								{
									"internalType": "string",
									"name": "time",
									"type": "string"
								}
							],
							"internalType": "struct TransactionHistory.TransactionInfo",
							"name": "",
							"type": "tuple"
						}
					],
					"stateMutability": "view",
					"type": "function"
				},
				{
					"inputs": [
						{
							"internalType": "string",
							"name": "_campaignId",
							"type": "string"
						}
					],
					"name": "getTransactionHistoryByCampaignId",
					"outputs": [
						{
							"components": [
								{
									"internalType": "uint256",
									"name": "id",
									"type": "uint256"
								},
								{
									"internalType": "string",
									"name": "campaignId",
									"type": "string"
								},
								{
									"internalType": "string",
									"name": "donatorId",
									"type": "string"
								},
								{
									"internalType": "address",
									"name": "donatorAddress",
									"type": "address"
								},
								{
									"internalType": "uint256",
									"name": "value",
									"type": "uint256"
								},
								{
									"internalType": "string",
									"name": "time",
									"type": "string"
								}
							],
							"internalType": "struct TransactionHistory.TransactionInfo[]",
							"name": "",
							"type": "tuple[]"
						}
					],
					"stateMutability": "view",
					"type": "function"
				},
				{
					"inputs": [
						{
							"internalType": "address",
							"name": "_donatorAddress",
							"type": "address"
						},
						{
							"internalType": "string",
							"name": "_campaignId",
							"type": "string"
						}
					],
					"name": "isDonatedtoCampaign",
					"outputs": [
						{
							"internalType": "bool",
							"name": "",
							"type": "bool"
						}
					],
					"stateMutability": "view",
					"type": "function"
				},
				{
					"inputs": [
						{
							"internalType": "address",
							"name": "_campaignAddress",
							"type": "address"
						}
					],
					"name": "setCampaignAddress",
					"outputs": [],
					"stateMutability": "nonpayable",
					"type": "function"
				},
				{
					"inputs": [
						{
							"internalType": "uint256",
							"name": "",
							"type": "uint256"
						}
					],
					"name": "transactionInfoArray",
					"outputs": [
						{
							"internalType": "uint256",
							"name": "id",
							"type": "uint256"
						},
						{
							"internalType": "string",
							"name": "campaignId",
							"type": "string"
						},
						{
							"internalType": "string",
							"name": "donatorId",
							"type": "string"
						},
						{
							"internalType": "address",
							"name": "donatorAddress",
							"type": "address"
						},
						{
							"internalType": "uint256",
							"name": "value",
							"type": "uint256"
						},
						{
							"internalType": "string",
							"name": "time",
							"type": "string"
						}
					],
					"stateMutability": "view",
					"type": "function"
				}
			],
			"devdoc": {
				"kind": "dev",
				"methods": {},
				"version": 1
			},
			"evm": {
				"assembly": "    /* \"contracts/TransactionHistory.sol\":68:4066  contract TransactionHistory {... */\n  mstore(0x40, 0x80)\n    /* \"contracts/TransactionHistory.sol\":133:175  0x8c43a48745b5a4Dc666F0ba9aF9B6F41C065EC22 */\n  0x8c43a48745b5a4dc666f0ba9af9b6f41c065ec22\n    /* \"contracts/TransactionHistory.sol\":103:175  address public adminAddress = 0x8c43a48745b5a4Dc666F0ba9aF9B6F41C065EC22 */\n  0x00\n  dup1\n  0x0100\n  exp\n  dup2\n  sload\n  dup2\n  0xffffffffffffffffffffffffffffffffffffffff\n  mul\n  not\n  and\n  swap1\n  dup4\n  0xffffffffffffffffffffffffffffffffffffffff\n  and\n  mul\n  or\n  swap1\n  sstore\n  pop\n    /* \"contracts/TransactionHistory.sol\":68:4066  contract TransactionHistory {... */\n  callvalue\n  dup1\n  iszero\n  tag_1\n  jumpi\n  0x00\n  dup1\n  revert\ntag_1:\n  pop\n  dataSize(sub_0)\n  dup1\n  dataOffset(sub_0)\n  0x00\n  codecopy\n  0x00\n  return\nstop\n\nsub_0: assembly {\n        /* \"contracts/TransactionHistory.sol\":68:4066  contract TransactionHistory {... */\n      mstore(0x40, 0x80)\n      callvalue\n      dup1\n      iszero\n      tag_1\n      jumpi\n      0x00\n      dup1\n      revert\n    tag_1:\n      pop\n      jumpi(tag_2, lt(calldatasize, 0x04))\n      shr(0xe0, calldataload(0x00))\n      dup1\n      0xa3306ae3\n      gt\n      tag_12\n      jumpi\n      dup1\n      0xa3306ae3\n      eq\n      tag_7\n      jumpi\n      dup1\n      0xadd6415d\n      eq\n      tag_8\n      jumpi\n      dup1\n      0xe3726d66\n      eq\n      tag_9\n      jumpi\n      dup1\n      0xec4efa92\n      eq\n      tag_10\n      jumpi\n      dup1\n      0xfc6f9468\n      eq\n      tag_11\n      jumpi\n      jump(tag_2)\n    tag_12:\n      dup1\n      0x048fa3a7\n      eq\n      tag_3\n      jumpi\n      dup1\n      0x11765b27\n      eq\n      tag_4\n      jumpi\n      dup1\n      0x92ad672f\n      eq\n      tag_5\n      jumpi\n      dup1\n      0x99b3e96a\n      eq\n      tag_6\n      jumpi\n    tag_2:\n      0x00\n      dup1\n      revert\n        /* \"contracts/TransactionHistory.sol\":2281:2979  function isDonatedtoCampaign(... */\n    tag_3:\n      tag_13\n      0x04\n      dup1\n      calldatasize\n      sub\n      dup2\n      add\n      swap1\n      tag_14\n      swap2\n      swap1\n      tag_15\n      jump\t// in\n    tag_14:\n      tag_16\n      jump\t// in\n    tag_13:\n      mload(0x40)\n      tag_17\n      swap2\n      swap1\n      tag_18\n      jump\t// in\n    tag_17:\n      mload(0x40)\n      dup1\n      swap2\n      sub\n      swap1\n      return\n        /* \"contracts/TransactionHistory.sol\":182:212  address public campaignAddress */\n    tag_4:\n      tag_19\n      tag_20\n      jump\t// in\n    tag_19:\n      mload(0x40)\n      tag_21\n      swap2\n      swap1\n      tag_22\n      jump\t// in\n    tag_21:\n      mload(0x40)\n      dup1\n      swap2\n      sub\n      swap1\n      return\n        /* \"contracts/TransactionHistory.sol\":410:455  TransactionInfo[] public transactionInfoArray */\n    tag_5:\n      tag_23\n      0x04\n      dup1\n      calldatasize\n      sub\n      dup2\n      add\n      swap1\n      tag_24\n      swap2\n      swap1\n      tag_25\n      jump\t// in\n    tag_24:\n      tag_26\n      jump\t// in\n    tag_23:\n      mload(0x40)\n      tag_27\n      swap7\n      swap6\n      swap5\n      swap4\n      swap3\n      swap2\n      swap1\n      tag_28\n      jump\t// in\n    tag_27:\n      mload(0x40)\n      dup1\n      swap2\n      sub\n      swap1\n      return\n        /* \"contracts/TransactionHistory.sol\":3302:4063  function getTransactionHistoryByCampaignId(... */\n    tag_6:\n      tag_29\n      0x04\n      dup1\n      calldatasize\n      sub\n      dup2\n      add\n      swap1\n      tag_30\n      swap2\n      swap1\n      tag_31\n      jump\t// in\n    tag_30:\n      tag_32\n      jump\t// in\n    tag_29:\n      mload(0x40)\n      tag_33\n      swap2\n      swap1\n      tag_34\n      jump\t// in\n    tag_33:\n      mload(0x40)\n      dup1\n      swap2\n      sub\n      swap1\n      return\n        /* \"contracts/TransactionHistory.sol\":1627:1774  function setCampaignAddress(... */\n    tag_7:\n      tag_35\n      0x04\n      dup1\n      calldatasize\n      sub\n      dup2\n      add\n      swap1\n      tag_36\n      swap2\n      swap1\n      tag_37\n      jump\t// in\n    tag_36:\n      tag_38\n      jump\t// in\n    tag_35:\n      stop\n        /* \"contracts/TransactionHistory.sol\":1463:1619  function getAllTransaction()... */\n    tag_8:\n      tag_39\n      tag_40\n      jump\t// in\n    tag_39:\n      mload(0x40)\n      tag_41\n      swap2\n      swap1\n      tag_34\n      jump\t// in\n    tag_41:\n      mload(0x40)\n      dup1\n      swap2\n      sub\n      swap1\n      return\n        /* \"contracts/TransactionHistory.sol\":1782:2273  function getDonateByUser(... */\n    tag_9:\n      tag_42\n      0x04\n      dup1\n      calldatasize\n      sub\n      dup2\n      add\n      swap1\n      tag_43\n      swap2\n      swap1\n      tag_31\n      jump\t// in\n    tag_43:\n      tag_44\n      jump\t// in\n    tag_42:\n      mload(0x40)\n      tag_45\n      swap2\n      swap1\n      tag_46\n      jump\t// in\n    tag_45:\n      mload(0x40)\n      dup1\n      swap2\n      sub\n      swap1\n      return\n        /* \"contracts/TransactionHistory.sol\":839:1455  function addNewTransactionHistory(... */\n    tag_10:\n      tag_47\n      0x04\n      dup1\n      calldatasize\n      sub\n      dup2\n      add\n      swap1\n      tag_48\n      swap2\n      swap1\n      tag_49\n      jump\t// in\n    tag_48:\n      tag_50\n      jump\t// in\n    tag_47:\n      stop\n        /* \"contracts/TransactionHistory.sol\":103:175  address public adminAddress = 0x8c43a48745b5a4Dc666F0ba9aF9B6F41C065EC22 */\n    tag_11:\n      tag_51\n      tag_52\n      jump\t// in\n    tag_51:\n      mload(0x40)\n      tag_53\n      swap2\n      swap1\n      tag_22\n      jump\t// in\n    tag_53:\n      mload(0x40)\n      dup1\n      swap2\n      sub\n      swap1\n      return\n        /* \"contracts/TransactionHistory.sol\":2281:2979  function isDonatedtoCampaign(... */\n    tag_16:\n        /* \"contracts/TransactionHistory.sol\":2408:2412  bool */\n      0x00\n        /* \"contracts/TransactionHistory.sol\":2430:2436  uint i */\n      dup1\n        /* \"contracts/TransactionHistory.sol\":2439:2440  0 */\n      0x00\n        /* \"contracts/TransactionHistory.sol\":2430:2440  uint i = 0 */\n      swap1\n      pop\n        /* \"contracts/TransactionHistory.sol\":2425:2947  for (uint i = 0; i < transactionInfoArray.length; i++) {... */\n    tag_55:\n        /* \"contracts/TransactionHistory.sol\":2446:2466  transactionInfoArray */\n      0x02\n        /* \"contracts/TransactionHistory.sol\":2446:2473  transactionInfoArray.length */\n      dup1\n      sload\n      swap1\n      pop\n        /* \"contracts/TransactionHistory.sol\":2442:2443  i */\n      dup2\n        /* \"contracts/TransactionHistory.sol\":2442:2473  i < transactionInfoArray.length */\n      lt\n        /* \"contracts/TransactionHistory.sol\":2425:2947  for (uint i = 0; i < transactionInfoArray.length; i++) {... */\n      iszero\n      tag_56\n      jumpi\n        /* \"contracts/TransactionHistory.sol\":2672:2687  _donatorAddress */\n      dup4\n        /* \"contracts/TransactionHistory.sol\":2655:2688  abi.encodePacked(_donatorAddress) */\n      add(0x20, mload(0x40))\n      tag_58\n      swap2\n      swap1\n      tag_59\n      jump\t// in\n    tag_58:\n      mload(0x40)\n      0x20\n      dup2\n      dup4\n      sub\n      sub\n      dup2\n      mstore\n      swap1\n      0x40\n      mstore\n        /* \"contracts/TransactionHistory.sol\":2645:2689  keccak256(abi.encodePacked(_donatorAddress)) */\n      dup1\n      mload\n      swap1\n      0x20\n      add\n      keccak256\n        /* \"contracts/TransactionHistory.sol\":2566:2586  transactionInfoArray */\n      0x02\n        /* \"contracts/TransactionHistory.sol\":2587:2588  i */\n      dup3\n        /* \"contracts/TransactionHistory.sol\":2566:2589  transactionInfoArray[i] */\n      dup2\n      sload\n      dup2\n      lt\n      tag_60\n      jumpi\n      tag_61\n      tag_62\n      jump\t// in\n    tag_61:\n    tag_60:\n      swap1\n      0x00\n      mstore\n      keccak256(0x00, 0x20)\n      swap1\n      0x06\n      mul\n      add\n        /* \"contracts/TransactionHistory.sol\":2566:2604  transactionInfoArray[i].donatorAddress */\n      0x03\n      add\n      0x00\n      swap1\n      sload\n      swap1\n      0x0100\n      exp\n      swap1\n      div\n      0xffffffffffffffffffffffffffffffffffffffff\n      and\n        /* \"contracts/TransactionHistory.sol\":2549:2605  abi.encodePacked(transactionInfoArray[i].donatorAddress) */\n      add(0x20, mload(0x40))\n      tag_64\n      swap2\n      swap1\n      tag_59\n      jump\t// in\n    tag_64:\n      mload(0x40)\n      0x20\n      dup2\n      dup4\n      sub\n      sub\n      dup2\n      mstore\n      swap1\n      0x40\n      mstore\n        /* \"contracts/TransactionHistory.sol\":2517:2624  keccak256(... */\n      dup1\n      mload\n      swap1\n      0x20\n      add\n      keccak256\n        /* \"contracts/TransactionHistory.sol\":2517:2689  keccak256(... */\n      eq\n        /* \"contracts/TransactionHistory.sol\":2517:2874  keccak256(... */\n      dup1\n      iszero\n      tag_65\n      jumpi\n      pop\n        /* \"contracts/TransactionHistory.sol\":2861:2872  _campaignId */\n      dup3\n        /* \"contracts/TransactionHistory.sol\":2844:2873  abi.encodePacked(_campaignId) */\n      add(0x20, mload(0x40))\n      tag_66\n      swap2\n      swap1\n      tag_67\n      jump\t// in\n    tag_66:\n      mload(0x40)\n      0x20\n      dup2\n      dup4\n      sub\n      sub\n      dup2\n      mstore\n      swap1\n      0x40\n      mstore\n        /* \"contracts/TransactionHistory.sol\":2834:2874  keccak256(abi.encodePacked(_campaignId)) */\n      dup1\n      mload\n      swap1\n      0x20\n      add\n      keccak256\n        /* \"contracts/TransactionHistory.sol\":2759:2779  transactionInfoArray */\n      0x02\n        /* \"contracts/TransactionHistory.sol\":2780:2781  i */\n      dup3\n        /* \"contracts/TransactionHistory.sol\":2759:2782  transactionInfoArray[i] */\n      dup2\n      sload\n      dup2\n      lt\n      tag_68\n      jumpi\n      tag_69\n      tag_62\n      jump\t// in\n    tag_69:\n    tag_68:\n      swap1\n      0x00\n      mstore\n      keccak256(0x00, 0x20)\n      swap1\n      0x06\n      mul\n      add\n        /* \"contracts/TransactionHistory.sol\":2759:2793  transactionInfoArray[i].campaignId */\n      0x01\n      add\n        /* \"contracts/TransactionHistory.sol\":2742:2794  abi.encodePacked(transactionInfoArray[i].campaignId) */\n      add(0x20, mload(0x40))\n      tag_71\n      swap2\n      swap1\n      tag_72\n      jump\t// in\n    tag_71:\n      mload(0x40)\n      0x20\n      dup2\n      dup4\n      sub\n      sub\n      dup2\n      mstore\n      swap1\n      0x40\n      mstore\n        /* \"contracts/TransactionHistory.sol\":2710:2813  keccak256(... */\n      dup1\n      mload\n      swap1\n      0x20\n      add\n      keccak256\n        /* \"contracts/TransactionHistory.sol\":2710:2874  keccak256(... */\n      eq\n        /* \"contracts/TransactionHistory.sol\":2517:2874  keccak256(... */\n    tag_65:\n        /* \"contracts/TransactionHistory.sol\":2495:2936  if (... */\n      iszero\n      tag_73\n      jumpi\n        /* \"contracts/TransactionHistory.sol\":2916:2920  true */\n      0x01\n        /* \"contracts/TransactionHistory.sol\":2909:2920  return true */\n      swap2\n      pop\n      pop\n      jump(tag_54)\n        /* \"contracts/TransactionHistory.sol\":2495:2936  if (... */\n    tag_73:\n        /* \"contracts/TransactionHistory.sol\":2475:2478  i++ */\n      dup1\n      dup1\n      0x01\n      add\n      swap2\n      pop\n      pop\n        /* \"contracts/TransactionHistory.sol\":2425:2947  for (uint i = 0; i < transactionInfoArray.length; i++) {... */\n      jump(tag_55)\n    tag_56:\n      pop\n        /* \"contracts/TransactionHistory.sol\":2966:2971  false */\n      0x00\n        /* \"contracts/TransactionHistory.sol\":2959:2971  return false */\n      swap1\n      pop\n        /* \"contracts/TransactionHistory.sol\":2281:2979  function isDonatedtoCampaign(... */\n    tag_54:\n      swap3\n      swap2\n      pop\n      pop\n      jump\t// out\n        /* \"contracts/TransactionHistory.sol\":182:212  address public campaignAddress */\n    tag_20:\n      0x01\n      0x00\n      swap1\n      sload\n      swap1\n      0x0100\n      exp\n      swap1\n      div\n      0xffffffffffffffffffffffffffffffffffffffff\n      and\n      dup2\n      jump\t// out\n        /* \"contracts/TransactionHistory.sol\":410:455  TransactionInfo[] public transactionInfoArray */\n    tag_26:\n      0x02\n      dup2\n      dup2\n      sload\n      dup2\n      lt\n      tag_74\n      jumpi\n      0x00\n      dup1\n      revert\n    tag_74:\n      swap1\n      0x00\n      mstore\n      keccak256(0x00, 0x20)\n      swap1\n      0x06\n      mul\n      add\n      0x00\n      swap2\n      pop\n      swap1\n      pop\n      dup1\n      0x00\n      add\n      sload\n      swap1\n      dup1\n      0x01\n      add\n      dup1\n      sload\n      tag_76\n      swap1\n      tag_77\n      jump\t// in\n    tag_76:\n      dup1\n      0x1f\n      add\n      0x20\n      dup1\n      swap2\n      div\n      mul\n      0x20\n      add\n      mload(0x40)\n      swap1\n      dup2\n      add\n      0x40\n      mstore\n      dup1\n      swap3\n      swap2\n      swap1\n      dup2\n      dup2\n      mstore\n      0x20\n      add\n      dup3\n      dup1\n      sload\n      tag_78\n      swap1\n      tag_77\n      jump\t// in\n    tag_78:\n      dup1\n      iszero\n      tag_79\n      jumpi\n      dup1\n      0x1f\n      lt\n      tag_80\n      jumpi\n      0x0100\n      dup1\n      dup4\n      sload\n      div\n      mul\n      dup4\n      mstore\n      swap2\n      0x20\n      add\n      swap2\n      jump(tag_79)\n    tag_80:\n      dup3\n      add\n      swap2\n      swap1\n      0x00\n      mstore\n      keccak256(0x00, 0x20)\n      swap1\n    tag_81:\n      dup2\n      sload\n      dup2\n      mstore\n      swap1\n      0x01\n      add\n      swap1\n      0x20\n      add\n      dup1\n      dup4\n      gt\n      tag_81\n      jumpi\n      dup3\n      swap1\n      sub\n      0x1f\n      and\n      dup3\n      add\n      swap2\n    tag_79:\n      pop\n      pop\n      pop\n      pop\n      pop\n      swap1\n      dup1\n      0x02\n      add\n      dup1\n      sload\n      tag_82\n      swap1\n      tag_77\n      jump\t// in\n    tag_82:\n      dup1\n      0x1f\n      add\n      0x20\n      dup1\n      swap2\n      div\n      mul\n      0x20\n      add\n      mload(0x40)\n      swap1\n      dup2\n      add\n      0x40\n      mstore\n      dup1\n      swap3\n      swap2\n      swap1\n      dup2\n      dup2\n      mstore\n      0x20\n      add\n      dup3\n      dup1\n      sload\n      tag_83\n      swap1\n      tag_77\n      jump\t// in\n    tag_83:\n      dup1\n      iszero\n      tag_84\n      jumpi\n      dup1\n      0x1f\n      lt\n      tag_85\n      jumpi\n      0x0100\n      dup1\n      dup4\n      sload\n      div\n      mul\n      dup4\n      mstore\n      swap2\n      0x20\n      add\n      swap2\n      jump(tag_84)\n    tag_85:\n      dup3\n      add\n      swap2\n      swap1\n      0x00\n      mstore\n      keccak256(0x00, 0x20)\n      swap1\n    tag_86:\n      dup2\n      sload\n      dup2\n      mstore\n      swap1\n      0x01\n      add\n      swap1\n      0x20\n      add\n      dup1\n      dup4\n      gt\n      tag_86\n      jumpi\n      dup3\n      swap1\n      sub\n      0x1f\n      and\n      dup3\n      add\n      swap2\n    tag_84:\n      pop\n      pop\n      pop\n      pop\n      pop\n      swap1\n      dup1\n      0x03\n      add\n      0x00\n      swap1\n      sload\n      swap1\n      0x0100\n      exp\n      swap1\n      div\n      0xffffffffffffffffffffffffffffffffffffffff\n      and\n      swap1\n      dup1\n      0x04\n      add\n      sload\n      swap1\n      dup1\n      0x05\n      add\n      dup1\n      sload\n      tag_87\n      swap1\n      tag_77\n      jump\t// in\n    tag_87:\n      dup1\n      0x1f\n      add\n      0x20\n      dup1\n      swap2\n      div\n      mul\n      0x20\n      add\n      mload(0x40)\n      swap1\n      dup2\n      add\n      0x40\n      mstore\n      dup1\n      swap3\n      swap2\n      swap1\n      dup2\n      dup2\n      mstore\n      0x20\n      add\n      dup3\n      dup1\n      sload\n      tag_88\n      swap1\n      tag_77\n      jump\t// in\n    tag_88:\n      dup1\n      iszero\n      tag_89\n      jumpi\n      dup1\n      0x1f\n      lt\n      tag_90\n      jumpi\n      0x0100\n      dup1\n      dup4\n      sload\n      div\n      mul\n      dup4\n      mstore\n      swap2\n      0x20\n      add\n      swap2\n      jump(tag_89)\n    tag_90:\n      dup3\n      add\n      swap2\n      swap1\n      0x00\n      mstore\n      keccak256(0x00, 0x20)\n      swap1\n    tag_91:\n      dup2\n      sload\n      dup2\n      mstore\n      swap1\n      0x01\n      add\n      swap1\n      0x20\n      add\n      dup1\n      dup4\n      gt\n      tag_91\n      jumpi\n      dup3\n      swap1\n      sub\n      0x1f\n      and\n      dup3\n      add\n      swap2\n    tag_89:\n      pop\n      pop\n      pop\n      pop\n      pop\n      swap1\n      pop\n      dup7\n      jump\t// out\n        /* \"contracts/TransactionHistory.sol\":3302:4063  function getTransactionHistoryByCampaignId(... */\n    tag_32:\n        /* \"contracts/TransactionHistory.sol\":3409:3433  TransactionInfo[] memory */\n      0x60\n        /* \"contracts/TransactionHistory.sol\":3446:3495  TransactionInfo[] memory returnTransactionInfoArr */\n      0x00\n        /* \"contracts/TransactionHistory.sol\":3534:3554  transactionInfoArray */\n      0x02\n        /* \"contracts/TransactionHistory.sol\":3534:3561  transactionInfoArray.length */\n      dup1\n      sload\n      swap1\n      pop\n        /* \"contracts/TransactionHistory.sol\":3498:3572  new TransactionInfo[](... */\n      0xffffffffffffffff\n      dup2\n      gt\n      iszero\n      tag_93\n      jumpi\n      tag_94\n      tag_95\n      jump\t// in\n    tag_94:\n    tag_93:\n      mload(0x40)\n      swap1\n      dup1\n      dup3\n      mstore\n      dup1\n      0x20\n      mul\n      0x20\n      add\n      dup3\n      add\n      0x40\n      mstore\n      dup1\n      iszero\n      tag_96\n      jumpi\n      dup2\n      0x20\n      add\n    tag_97:\n      tag_98\n      tag_99\n      jump\t// in\n    tag_98:\n      dup2\n      mstore\n      0x20\n      add\n      swap1\n      0x01\n      swap1\n      sub\n      swap1\n      dup2\n      tag_97\n      jumpi\n      swap1\n      pop\n    tag_96:\n      pop\n        /* \"contracts/TransactionHistory.sol\":3446:3572  TransactionInfo[] memory returnTransactionInfoArr = new TransactionInfo[](... */\n      swap1\n      pop\n        /* \"contracts/TransactionHistory.sol\":3585:3595  uint count */\n      0x00\n        /* \"contracts/TransactionHistory.sol\":3617:3623  uint i */\n      dup1\n        /* \"contracts/TransactionHistory.sol\":3612:3992  for (uint i = 0; i < transactionInfoArray.length; i++) {... */\n    tag_100:\n        /* \"contracts/TransactionHistory.sol\":3633:3653  transactionInfoArray */\n      0x02\n        /* \"contracts/TransactionHistory.sol\":3633:3660  transactionInfoArray.length */\n      dup1\n      sload\n      swap1\n      pop\n        /* \"contracts/TransactionHistory.sol\":3629:3630  i */\n      dup2\n        /* \"contracts/TransactionHistory.sol\":3629:3660  i < transactionInfoArray.length */\n      lt\n        /* \"contracts/TransactionHistory.sol\":3612:3992  for (uint i = 0; i < transactionInfoArray.length; i++) {... */\n      iszero\n      tag_101\n      jumpi\n        /* \"contracts/TransactionHistory.sol\":3838:3849  _campaignId */\n      dup5\n        /* \"contracts/TransactionHistory.sol\":3821:3850  abi.encodePacked(_campaignId) */\n      add(0x20, mload(0x40))\n      tag_103\n      swap2\n      swap1\n      tag_67\n      jump\t// in\n    tag_103:\n      mload(0x40)\n      0x20\n      dup2\n      dup4\n      sub\n      sub\n      dup2\n      mstore\n      swap1\n      0x40\n      mstore\n        /* \"contracts/TransactionHistory.sol\":3811:3851  keccak256(abi.encodePacked(_campaignId)) */\n      dup1\n      mload\n      swap1\n      0x20\n      add\n      keccak256\n        /* \"contracts/TransactionHistory.sol\":3753:3773  transactionInfoArray */\n      0x02\n        /* \"contracts/TransactionHistory.sol\":3774:3775  i */\n      dup3\n        /* \"contracts/TransactionHistory.sol\":3753:3776  transactionInfoArray[i] */\n      dup2\n      sload\n      dup2\n      lt\n      tag_104\n      jumpi\n      tag_105\n      tag_62\n      jump\t// in\n    tag_105:\n    tag_104:\n      swap1\n      0x00\n      mstore\n      keccak256(0x00, 0x20)\n      swap1\n      0x06\n      mul\n      add\n        /* \"contracts/TransactionHistory.sol\":3753:3787  transactionInfoArray[i].campaignId */\n      0x01\n      add\n        /* \"contracts/TransactionHistory.sol\":3736:3788  abi.encodePacked(transactionInfoArray[i].campaignId) */\n      add(0x20, mload(0x40))\n      tag_107\n      swap2\n      swap1\n      tag_72\n      jump\t// in\n    tag_107:\n      mload(0x40)\n      0x20\n      dup2\n      dup4\n      sub\n      sub\n      dup2\n      mstore\n      swap1\n      0x40\n      mstore\n        /* \"contracts/TransactionHistory.sol\":3704:3807  keccak256(... */\n      dup1\n      mload\n      swap1\n      0x20\n      add\n      keccak256\n        /* \"contracts/TransactionHistory.sol\":3704:3851  keccak256(... */\n      sub\n        /* \"contracts/TransactionHistory.sol\":3682:3981  if (... */\n      tag_108\n      jumpi\n        /* \"contracts/TransactionHistory.sol\":3916:3936  transactionInfoArray */\n      0x02\n        /* \"contracts/TransactionHistory.sol\":3937:3938  i */\n      dup2\n        /* \"contracts/TransactionHistory.sol\":3916:3939  transactionInfoArray[i] */\n      dup2\n      sload\n      dup2\n      lt\n      tag_109\n      jumpi\n      tag_110\n      tag_62\n      jump\t// in\n    tag_110:\n    tag_109:\n      swap1\n      0x00\n      mstore\n      keccak256(0x00, 0x20)\n      swap1\n      0x06\n      mul\n      add\n        /* \"contracts/TransactionHistory.sol\":3886:3939  returnTransactionInfoArr[i] = transactionInfoArray[i] */\n      mload(0x40)\n      dup1\n      0xc0\n      add\n      0x40\n      mstore\n      swap1\n      dup2\n      0x00\n      dup3\n      add\n      sload\n      dup2\n      mstore\n      0x20\n      add\n      0x01\n      dup3\n      add\n      dup1\n      sload\n      tag_112\n      swap1\n      tag_77\n      jump\t// in\n    tag_112:\n      dup1\n      0x1f\n      add\n      0x20\n      dup1\n      swap2\n      div\n      mul\n      0x20\n      add\n      mload(0x40)\n      swap1\n      dup2\n      add\n      0x40\n      mstore\n      dup1\n      swap3\n      swap2\n      swap1\n      dup2\n      dup2\n      mstore\n      0x20\n      add\n      dup3\n      dup1\n      sload\n      tag_113\n      swap1\n      tag_77\n      jump\t// in\n    tag_113:\n      dup1\n      iszero\n      tag_114\n      jumpi\n      dup1\n      0x1f\n      lt\n      tag_115\n      jumpi\n      0x0100\n      dup1\n      dup4\n      sload\n      div\n      mul\n      dup4\n      mstore\n      swap2\n      0x20\n      add\n      swap2\n      jump(tag_114)\n    tag_115:\n      dup3\n      add\n      swap2\n      swap1\n      0x00\n      mstore\n      keccak256(0x00, 0x20)\n      swap1\n    tag_116:\n      dup2\n      sload\n      dup2\n      mstore\n      swap1\n      0x01\n      add\n      swap1\n      0x20\n      add\n      dup1\n      dup4\n      gt\n      tag_116\n      jumpi\n      dup3\n      swap1\n      sub\n      0x1f\n      and\n      dup3\n      add\n      swap2\n    tag_114:\n      pop\n      pop\n      pop\n      pop\n      pop\n      dup2\n      mstore\n      0x20\n      add\n      0x02\n      dup3\n      add\n      dup1\n      sload\n      tag_117\n      swap1\n      tag_77\n      jump\t// in\n    tag_117:\n      dup1\n      0x1f\n      add\n      0x20\n      dup1\n      swap2\n      div\n      mul\n      0x20\n      add\n      mload(0x40)\n      swap1\n      dup2\n      add\n      0x40\n      mstore\n      dup1\n      swap3\n      swap2\n      swap1\n      dup2\n      dup2\n      mstore\n      0x20\n      add\n      dup3\n      dup1\n      sload\n      tag_118\n      swap1\n      tag_77\n      jump\t// in\n    tag_118:\n      dup1\n      iszero\n      tag_119\n      jumpi\n      dup1\n      0x1f\n      lt\n      tag_120\n      jumpi\n      0x0100\n      dup1\n      dup4\n      sload\n      div\n      mul\n      dup4\n      mstore\n      swap2\n      0x20\n      add\n      swap2\n      jump(tag_119)\n    tag_120:\n      dup3\n      add\n      swap2\n      swap1\n      0x00\n      mstore\n      keccak256(0x00, 0x20)\n      swap1\n    tag_121:\n      dup2\n      sload\n      dup2\n      mstore\n      swap1\n      0x01\n      add\n      swap1\n      0x20\n      add\n      dup1\n      dup4\n      gt\n      tag_121\n      jumpi\n      dup3\n      swap1\n      sub\n      0x1f\n      and\n      dup3\n      add\n      swap2\n    tag_119:\n      pop\n      pop\n      pop\n      pop\n      pop\n      dup2\n      mstore\n      0x20\n      add\n      0x03\n      dup3\n      add\n      0x00\n      swap1\n      sload\n      swap1\n      0x0100\n      exp\n      swap1\n      div\n      0xffffffffffffffffffffffffffffffffffffffff\n      and\n      0xffffffffffffffffffffffffffffffffffffffff\n      and\n      0xffffffffffffffffffffffffffffffffffffffff\n      and\n      dup2\n      mstore\n      0x20\n      add\n      0x04\n      dup3\n      add\n      sload\n      dup2\n      mstore\n      0x20\n      add\n      0x05\n      dup3\n      add\n      dup1\n      sload\n      tag_122\n      swap1\n      tag_77\n      jump\t// in\n    tag_122:\n      dup1\n      0x1f\n      add\n      0x20\n      dup1\n      swap2\n      div\n      mul\n      0x20\n      add\n      mload(0x40)\n      swap1\n      dup2\n      add\n      0x40\n      mstore\n      dup1\n      swap3\n      swap2\n      swap1\n      dup2\n      dup2\n      mstore\n      0x20\n      add\n      dup3\n      dup1\n      sload\n      tag_123\n      swap1\n      tag_77\n      jump\t// in\n    tag_123:\n      dup1\n      iszero\n      tag_124\n      jumpi\n      dup1\n      0x1f\n      lt\n      tag_125\n      jumpi\n      0x0100\n      dup1\n      dup4\n      sload\n      div\n      mul\n      dup4\n      mstore\n      swap2\n      0x20\n      add\n      swap2\n      jump(tag_124)\n    tag_125:\n      dup3\n      add\n      swap2\n      swap1\n      0x00\n      mstore\n      keccak256(0x00, 0x20)\n      swap1\n    tag_126:\n      dup2\n      sload\n      dup2\n      mstore\n      swap1\n      0x01\n      add\n      swap1\n      0x20\n      add\n      dup1\n      dup4\n      gt\n      tag_126\n      jumpi\n      dup3\n      swap1\n      sub\n      0x1f\n      and\n      dup3\n      add\n      swap2\n    tag_124:\n      pop\n      pop\n      pop\n      pop\n      pop\n      dup2\n      mstore\n      pop\n      pop\n        /* \"contracts/TransactionHistory.sol\":3886:3910  returnTransactionInfoArr */\n      dup4\n        /* \"contracts/TransactionHistory.sol\":3911:3912  i */\n      dup3\n        /* \"contracts/TransactionHistory.sol\":3886:3913  returnTransactionInfoArr[i] */\n      dup2\n      mload\n      dup2\n      lt\n      tag_127\n      jumpi\n      tag_128\n      tag_62\n      jump\t// in\n    tag_128:\n    tag_127:\n      0x20\n      mul\n      0x20\n      add\n      add\n        /* \"contracts/TransactionHistory.sol\":3886:3939  returnTransactionInfoArr[i] = transactionInfoArray[i] */\n      dup2\n      swap1\n      mstore\n      pop\n        /* \"contracts/TransactionHistory.sol\":3958:3965  count++ */\n      dup2\n      dup1\n      tag_129\n      swap1\n      tag_130\n      jump\t// in\n    tag_129:\n      swap3\n      pop\n      pop\n        /* \"contracts/TransactionHistory.sol\":3682:3981  if (... */\n    tag_108:\n        /* \"contracts/TransactionHistory.sol\":3662:3665  i++ */\n      dup1\n      dup1\n      0x01\n      add\n      swap2\n      pop\n      pop\n        /* \"contracts/TransactionHistory.sol\":3612:3992  for (uint i = 0; i < transactionInfoArray.length; i++) {... */\n      jump(tag_100)\n    tag_101:\n      pop\n        /* \"contracts/TransactionHistory.sol\":4011:4055  resizeArray(returnTransactionInfoArr, count) */\n      tag_131\n        /* \"contracts/TransactionHistory.sol\":4023:4047  returnTransactionInfoArr */\n      dup3\n        /* \"contracts/TransactionHistory.sol\":4049:4054  count */\n      dup3\n        /* \"contracts/TransactionHistory.sol\":4011:4022  resizeArray */\n      tag_132\n        /* \"contracts/TransactionHistory.sol\":4011:4055  resizeArray(returnTransactionInfoArr, count) */\n      jump\t// in\n    tag_131:\n        /* \"contracts/TransactionHistory.sol\":4004:4055  return resizeArray(returnTransactionInfoArr, count) */\n      swap3\n      pop\n      pop\n      pop\n        /* \"contracts/TransactionHistory.sol\":3302:4063  function getTransactionHistoryByCampaignId(... */\n      swap2\n      swap1\n      pop\n      jump\t// out\n        /* \"contracts/TransactionHistory.sol\":1627:1774  function setCampaignAddress(... */\n    tag_38:\n        /* \"contracts/TransactionHistory.sol\":730:742  adminAddress */\n      0x00\n      dup1\n      sload\n      swap1\n      0x0100\n      exp\n      swap1\n      div\n      0xffffffffffffffffffffffffffffffffffffffff\n      and\n        /* \"contracts/TransactionHistory.sol\":716:742  msg.sender == adminAddress */\n      0xffffffffffffffffffffffffffffffffffffffff\n      and\n        /* \"contracts/TransactionHistory.sol\":716:726  msg.sender */\n      caller\n        /* \"contracts/TransactionHistory.sol\":716:742  msg.sender == adminAddress */\n      0xffffffffffffffffffffffffffffffffffffffff\n      and\n      eq\n        /* \"contracts/TransactionHistory.sol\":694:811  require(... */\n      tag_134\n      jumpi\n      mload(0x40)\n      0x08c379a000000000000000000000000000000000000000000000000000000000\n      dup2\n      mstore\n      0x04\n      add\n      tag_135\n      swap1\n      tag_136\n      jump\t// in\n    tag_135:\n      mload(0x40)\n      dup1\n      swap2\n      sub\n      swap1\n      revert\n    tag_134:\n        /* \"contracts/TransactionHistory.sol\":1750:1766  _campaignAddress */\n      dup1\n        /* \"contracts/TransactionHistory.sol\":1732:1747  campaignAddress */\n      0x01\n      0x00\n        /* \"contracts/TransactionHistory.sol\":1732:1766  campaignAddress = _campaignAddress */\n      0x0100\n      exp\n      dup2\n      sload\n      dup2\n      0xffffffffffffffffffffffffffffffffffffffff\n      mul\n      not\n      and\n      swap1\n      dup4\n      0xffffffffffffffffffffffffffffffffffffffff\n      and\n      mul\n      or\n      swap1\n      sstore\n      pop\n        /* \"contracts/TransactionHistory.sol\":1627:1774  function setCampaignAddress(... */\n      pop\n      jump\t// out\n        /* \"contracts/TransactionHistory.sol\":1463:1619  function getAllTransaction()... */\n    tag_40:\n        /* \"contracts/TransactionHistory.sol\":1542:1566  TransactionInfo[] memory */\n      0x60\n        /* \"contracts/TransactionHistory.sol\":1591:1611  transactionInfoArray */\n      0x02\n        /* \"contracts/TransactionHistory.sol\":1584:1611  return transactionInfoArray */\n      dup1\n      sload\n      dup1\n      0x20\n      mul\n      0x20\n      add\n      mload(0x40)\n      swap1\n      dup2\n      add\n      0x40\n      mstore\n      dup1\n      swap3\n      swap2\n      swap1\n      dup2\n      dup2\n      mstore\n      0x20\n      add\n      0x00\n      swap1\n    tag_139:\n      dup3\n      dup3\n      lt\n      iszero\n      tag_140\n      jumpi\n      dup4\n      dup3\n      swap1\n      0x00\n      mstore\n      keccak256(0x00, 0x20)\n      swap1\n      0x06\n      mul\n      add\n      mload(0x40)\n      dup1\n      0xc0\n      add\n      0x40\n      mstore\n      swap1\n      dup2\n      0x00\n      dup3\n      add\n      sload\n      dup2\n      mstore\n      0x20\n      add\n      0x01\n      dup3\n      add\n      dup1\n      sload\n      tag_142\n      swap1\n      tag_77\n      jump\t// in\n    tag_142:\n      dup1\n      0x1f\n      add\n      0x20\n      dup1\n      swap2\n      div\n      mul\n      0x20\n      add\n      mload(0x40)\n      swap1\n      dup2\n      add\n      0x40\n      mstore\n      dup1\n      swap3\n      swap2\n      swap1\n      dup2\n      dup2\n      mstore\n      0x20\n      add\n      dup3\n      dup1\n      sload\n      tag_143\n      swap1\n      tag_77\n      jump\t// in\n    tag_143:\n      dup1\n      iszero\n      tag_144\n      jumpi\n      dup1\n      0x1f\n      lt\n      tag_145\n      jumpi\n      0x0100\n      dup1\n      dup4\n      sload\n      div\n      mul\n      dup4\n      mstore\n      swap2\n      0x20\n      add\n      swap2\n      jump(tag_144)\n    tag_145:\n      dup3\n      add\n      swap2\n      swap1\n      0x00\n      mstore\n      keccak256(0x00, 0x20)\n      swap1\n    tag_146:\n      dup2\n      sload\n      dup2\n      mstore\n      swap1\n      0x01\n      add\n      swap1\n      0x20\n      add\n      dup1\n      dup4\n      gt\n      tag_146\n      jumpi\n      dup3\n      swap1\n      sub\n      0x1f\n      and\n      dup3\n      add\n      swap2\n    tag_144:\n      pop\n      pop\n      pop\n      pop\n      pop\n      dup2\n      mstore\n      0x20\n      add\n      0x02\n      dup3\n      add\n      dup1\n      sload\n      tag_147\n      swap1\n      tag_77\n      jump\t// in\n    tag_147:\n      dup1\n      0x1f\n      add\n      0x20\n      dup1\n      swap2\n      div\n      mul\n      0x20\n      add\n      mload(0x40)\n      swap1\n      dup2\n      add\n      0x40\n      mstore\n      dup1\n      swap3\n      swap2\n      swap1\n      dup2\n      dup2\n      mstore\n      0x20\n      add\n      dup3\n      dup1\n      sload\n      tag_148\n      swap1\n      tag_77\n      jump\t// in\n    tag_148:\n      dup1\n      iszero\n      tag_149\n      jumpi\n      dup1\n      0x1f\n      lt\n      tag_150\n      jumpi\n      0x0100\n      dup1\n      dup4\n      sload\n      div\n      mul\n      dup4\n      mstore\n      swap2\n      0x20\n      add\n      swap2\n      jump(tag_149)\n    tag_150:\n      dup3\n      add\n      swap2\n      swap1\n      0x00\n      mstore\n      keccak256(0x00, 0x20)\n      swap1\n    tag_151:\n      dup2\n      sload\n      dup2\n      mstore\n      swap1\n      0x01\n      add\n      swap1\n      0x20\n      add\n      dup1\n      dup4\n      gt\n      tag_151\n      jumpi\n      dup3\n      swap1\n      sub\n      0x1f\n      and\n      dup3\n      add\n      swap2\n    tag_149:\n      pop\n      pop\n      pop\n      pop\n      pop\n      dup2\n      mstore\n      0x20\n      add\n      0x03\n      dup3\n      add\n      0x00\n      swap1\n      sload\n      swap1\n      0x0100\n      exp\n      swap1\n      div\n      0xffffffffffffffffffffffffffffffffffffffff\n      and\n      0xffffffffffffffffffffffffffffffffffffffff\n      and\n      0xffffffffffffffffffffffffffffffffffffffff\n      and\n      dup2\n      mstore\n      0x20\n      add\n      0x04\n      dup3\n      add\n      sload\n      dup2\n      mstore\n      0x20\n      add\n      0x05\n      dup3\n      add\n      dup1\n      sload\n      tag_152\n      swap1\n      tag_77\n      jump\t// in\n    tag_152:\n      dup1\n      0x1f\n      add\n      0x20\n      dup1\n      swap2\n      div\n      mul\n      0x20\n      add\n      mload(0x40)\n      swap1\n      dup2\n      add\n      0x40\n      mstore\n      dup1\n      swap3\n      swap2\n      swap1\n      dup2\n      dup2\n      mstore\n      0x20\n      add\n      dup3\n      dup1\n      sload\n      tag_153\n      swap1\n      tag_77\n      jump\t// in\n    tag_153:\n      dup1\n      iszero\n      tag_154\n      jumpi\n      dup1\n      0x1f\n      lt\n      tag_155\n      jumpi\n      0x0100\n      dup1\n      dup4\n      sload\n      div\n      mul\n      dup4\n      mstore\n      swap2\n      0x20\n      add\n      swap2\n      jump(tag_154)\n    tag_155:\n      dup3\n      add\n      swap2\n      swap1\n      0x00\n      mstore\n      keccak256(0x00, 0x20)\n      swap1\n    tag_156:\n      dup2\n      sload\n      dup2\n      mstore\n      swap1\n      0x01\n      add\n      swap1\n      0x20\n      add\n      dup1\n      dup4\n      gt\n      tag_156\n      jumpi\n      dup3\n      swap1\n      sub\n      0x1f\n      and\n      dup3\n      add\n      swap2\n    tag_154:\n      pop\n      pop\n      pop\n      pop\n      pop\n      dup2\n      mstore\n      pop\n      pop\n      dup2\n      mstore\n      0x20\n      add\n      swap1\n      0x01\n      add\n      swap1\n      jump(tag_139)\n    tag_140:\n      pop\n      pop\n      pop\n      pop\n      swap1\n      pop\n        /* \"contracts/TransactionHistory.sol\":1463:1619  function getAllTransaction()... */\n      swap1\n      jump\t// out\n        /* \"contracts/TransactionHistory.sol\":1782:2273  function getDonateByUser(... */\n    tag_44:\n        /* \"contracts/TransactionHistory.sol\":1870:1892  TransactionInfo memory */\n      tag_157\n      tag_99\n      jump\t// in\n    tag_157:\n        /* \"contracts/TransactionHistory.sol\":1910:1916  uint i */\n      0x00\n        /* \"contracts/TransactionHistory.sol\":1905:2234  for (uint i = 0; i < transactionInfoArray.length; i++) {... */\n    tag_159:\n        /* \"contracts/TransactionHistory.sol\":1926:1946  transactionInfoArray */\n      0x02\n        /* \"contracts/TransactionHistory.sol\":1926:1953  transactionInfoArray.length */\n      dup1\n      sload\n      swap1\n      pop\n        /* \"contracts/TransactionHistory.sol\":1922:1923  i */\n      dup2\n        /* \"contracts/TransactionHistory.sol\":1922:1953  i < transactionInfoArray.length */\n      lt\n        /* \"contracts/TransactionHistory.sol\":1905:2234  for (uint i = 0; i < transactionInfoArray.length; i++) {... */\n      iszero\n      tag_160\n      jumpi\n        /* \"contracts/TransactionHistory.sol\":2130:2140  _donatorId */\n      dup3\n        /* \"contracts/TransactionHistory.sol\":2113:2141  abi.encodePacked(_donatorId) */\n      add(0x20, mload(0x40))\n      tag_162\n      swap2\n      swap1\n      tag_67\n      jump\t// in\n    tag_162:\n      mload(0x40)\n      0x20\n      dup2\n      dup4\n      sub\n      sub\n      dup2\n      mstore\n      swap1\n      0x40\n      mstore\n        /* \"contracts/TransactionHistory.sol\":2103:2142  keccak256(abi.encodePacked(_donatorId)) */\n      dup1\n      mload\n      swap1\n      0x20\n      add\n      keccak256\n        /* \"contracts/TransactionHistory.sol\":2046:2066  transactionInfoArray */\n      0x02\n        /* \"contracts/TransactionHistory.sol\":2067:2068  i */\n      dup3\n        /* \"contracts/TransactionHistory.sol\":2046:2069  transactionInfoArray[i] */\n      dup2\n      sload\n      dup2\n      lt\n      tag_163\n      jumpi\n      tag_164\n      tag_62\n      jump\t// in\n    tag_164:\n    tag_163:\n      swap1\n      0x00\n      mstore\n      keccak256(0x00, 0x20)\n      swap1\n      0x06\n      mul\n      add\n        /* \"contracts/TransactionHistory.sol\":2046:2079  transactionInfoArray[i].donatorId */\n      0x02\n      add\n        /* \"contracts/TransactionHistory.sol\":2029:2080  abi.encodePacked(transactionInfoArray[i].donatorId) */\n      add(0x20, mload(0x40))\n      tag_166\n      swap2\n      swap1\n      tag_72\n      jump\t// in\n    tag_166:\n      mload(0x40)\n      0x20\n      dup2\n      dup4\n      sub\n      sub\n      dup2\n      mstore\n      swap1\n      0x40\n      mstore\n        /* \"contracts/TransactionHistory.sol\":1997:2099  keccak256(... */\n      dup1\n      mload\n      swap1\n      0x20\n      add\n      keccak256\n        /* \"contracts/TransactionHistory.sol\":1997:2142  keccak256(... */\n      sub\n        /* \"contracts/TransactionHistory.sol\":1975:2223  if (... */\n      tag_167\n      jumpi\n        /* \"contracts/TransactionHistory.sol\":2184:2204  transactionInfoArray */\n      0x02\n        /* \"contracts/TransactionHistory.sol\":2205:2206  i */\n      dup2\n        /* \"contracts/TransactionHistory.sol\":2184:2207  transactionInfoArray[i] */\n      dup2\n      sload\n      dup2\n      lt\n      tag_168\n      jumpi\n      tag_169\n      tag_62\n      jump\t// in\n    tag_169:\n    tag_168:\n      swap1\n      0x00\n      mstore\n      keccak256(0x00, 0x20)\n      swap1\n      0x06\n      mul\n      add\n        /* \"contracts/TransactionHistory.sol\":2177:2207  return transactionInfoArray[i] */\n      mload(0x40)\n      dup1\n      0xc0\n      add\n      0x40\n      mstore\n      swap1\n      dup2\n      0x00\n      dup3\n      add\n      sload\n      dup2\n      mstore\n      0x20\n      add\n      0x01\n      dup3\n      add\n      dup1\n      sload\n      tag_171\n      swap1\n      tag_77\n      jump\t// in\n    tag_171:\n      dup1\n      0x1f\n      add\n      0x20\n      dup1\n      swap2\n      div\n      mul\n      0x20\n      add\n      mload(0x40)\n      swap1\n      dup2\n      add\n      0x40\n      mstore\n      dup1\n      swap3\n      swap2\n      swap1\n      dup2\n      dup2\n      mstore\n      0x20\n      add\n      dup3\n      dup1\n      sload\n      tag_172\n      swap1\n      tag_77\n      jump\t// in\n    tag_172:\n      dup1\n      iszero\n      tag_173\n      jumpi\n      dup1\n      0x1f\n      lt\n      tag_174\n      jumpi\n      0x0100\n      dup1\n      dup4\n      sload\n      div\n      mul\n      dup4\n      mstore\n      swap2\n      0x20\n      add\n      swap2\n      jump(tag_173)\n    tag_174:\n      dup3\n      add\n      swap2\n      swap1\n      0x00\n      mstore\n      keccak256(0x00, 0x20)\n      swap1\n    tag_175:\n      dup2\n      sload\n      dup2\n      mstore\n      swap1\n      0x01\n      add\n      swap1\n      0x20\n      add\n      dup1\n      dup4\n      gt\n      tag_175\n      jumpi\n      dup3\n      swap1\n      sub\n      0x1f\n      and\n      dup3\n      add\n      swap2\n    tag_173:\n      pop\n      pop\n      pop\n      pop\n      pop\n      dup2\n      mstore\n      0x20\n      add\n      0x02\n      dup3\n      add\n      dup1\n      sload\n      tag_176\n      swap1\n      tag_77\n      jump\t// in\n    tag_176:\n      dup1\n      0x1f\n      add\n      0x20\n      dup1\n      swap2\n      div\n      mul\n      0x20\n      add\n      mload(0x40)\n      swap1\n      dup2\n      add\n      0x40\n      mstore\n      dup1\n      swap3\n      swap2\n      swap1\n      dup2\n      dup2\n      mstore\n      0x20\n      add\n      dup3\n      dup1\n      sload\n      tag_177\n      swap1\n      tag_77\n      jump\t// in\n    tag_177:\n      dup1\n      iszero\n      tag_178\n      jumpi\n      dup1\n      0x1f\n      lt\n      tag_179\n      jumpi\n      0x0100\n      dup1\n      dup4\n      sload\n      div\n      mul\n      dup4\n      mstore\n      swap2\n      0x20\n      add\n      swap2\n      jump(tag_178)\n    tag_179:\n      dup3\n      add\n      swap2\n      swap1\n      0x00\n      mstore\n      keccak256(0x00, 0x20)\n      swap1\n    tag_180:\n      dup2\n      sload\n      dup2\n      mstore\n      swap1\n      0x01\n      add\n      swap1\n      0x20\n      add\n      dup1\n      dup4\n      gt\n      tag_180\n      jumpi\n      dup3\n      swap1\n      sub\n      0x1f\n      and\n      dup3\n      add\n      swap2\n    tag_178:\n      pop\n      pop\n      pop\n      pop\n      pop\n      dup2\n      mstore\n      0x20\n      add\n      0x03\n      dup3\n      add\n      0x00\n      swap1\n      sload\n      swap1\n      0x0100\n      exp\n      swap1\n      div\n      0xffffffffffffffffffffffffffffffffffffffff\n      and\n      0xffffffffffffffffffffffffffffffffffffffff\n      and\n      0xffffffffffffffffffffffffffffffffffffffff\n      and\n      dup2\n      mstore\n      0x20\n      add\n      0x04\n      dup3\n      add\n      sload\n      dup2\n      mstore\n      0x20\n      add\n      0x05\n      dup3\n      add\n      dup1\n      sload\n      tag_181\n      swap1\n      tag_77\n      jump\t// in\n    tag_181:\n      dup1\n      0x1f\n      add\n      0x20\n      dup1\n      swap2\n      div\n      mul\n      0x20\n      add\n      mload(0x40)\n      swap1\n      dup2\n      add\n      0x40\n      mstore\n      dup1\n      swap3\n      swap2\n      swap1\n      dup2\n      dup2\n      mstore\n      0x20\n      add\n      dup3\n      dup1\n      sload\n      tag_182\n      swap1\n      tag_77\n      jump\t// in\n    tag_182:\n      dup1\n      iszero\n      tag_183\n      jumpi\n      dup1\n      0x1f\n      lt\n      tag_184\n      jumpi\n      0x0100\n      dup1\n      dup4\n      sload\n      div\n      mul\n      dup4\n      mstore\n      swap2\n      0x20\n      add\n      swap2\n      jump(tag_183)\n    tag_184:\n      dup3\n      add\n      swap2\n      swap1\n      0x00\n      mstore\n      keccak256(0x00, 0x20)\n      swap1\n    tag_185:\n      dup2\n      sload\n      dup2\n      mstore\n      swap1\n      0x01\n      add\n      swap1\n      0x20\n      add\n      dup1\n      dup4\n      gt\n      tag_185\n      jumpi\n      dup3\n      swap1\n      sub\n      0x1f\n      and\n      dup3\n      add\n      swap2\n    tag_183:\n      pop\n      pop\n      pop\n      pop\n      pop\n      dup2\n      mstore\n      pop\n      pop\n      swap2\n      pop\n      pop\n      jump(tag_158)\n        /* \"contracts/TransactionHistory.sol\":1975:2223  if (... */\n    tag_167:\n        /* \"contracts/TransactionHistory.sol\":1955:1958  i++ */\n      dup1\n      dup1\n      0x01\n      add\n      swap2\n      pop\n      pop\n        /* \"contracts/TransactionHistory.sol\":1905:2234  for (uint i = 0; i < transactionInfoArray.length; i++) {... */\n      jump(tag_159)\n    tag_160:\n      pop\n        /* \"contracts/TransactionHistory.sol\":2246:2265  revert(\"Not found\") */\n      mload(0x40)\n      0x08c379a000000000000000000000000000000000000000000000000000000000\n      dup2\n      mstore\n      0x04\n      add\n      tag_186\n      swap1\n      tag_187\n      jump\t// in\n    tag_186:\n      mload(0x40)\n      dup1\n      swap2\n      sub\n      swap1\n      revert\n        /* \"contracts/TransactionHistory.sol\":1782:2273  function getDonateByUser(... */\n    tag_158:\n      swap2\n      swap1\n      pop\n      jump\t// out\n        /* \"contracts/TransactionHistory.sol\":839:1455  function addNewTransactionHistory(... */\n    tag_50:\n        /* \"contracts/TransactionHistory.sol\":543:558  campaignAddress */\n      0x01\n      0x00\n      swap1\n      sload\n      swap1\n      0x0100\n      exp\n      swap1\n      div\n      0xffffffffffffffffffffffffffffffffffffffff\n      and\n        /* \"contracts/TransactionHistory.sol\":529:558  msg.sender == campaignAddress */\n      0xffffffffffffffffffffffffffffffffffffffff\n      and\n        /* \"contracts/TransactionHistory.sol\":529:539  msg.sender */\n      caller\n        /* \"contracts/TransactionHistory.sol\":529:558  msg.sender == campaignAddress */\n      0xffffffffffffffffffffffffffffffffffffffff\n      and\n      eq\n        /* \"contracts/TransactionHistory.sol\":507:627  require(... */\n      tag_189\n      jumpi\n      mload(0x40)\n      0x08c379a000000000000000000000000000000000000000000000000000000000\n      dup2\n      mstore\n      0x04\n      add\n      tag_190\n      swap1\n      tag_136\n      jump\t// in\n    tag_190:\n      mload(0x40)\n      dup1\n      swap2\n      sub\n      swap1\n      revert\n    tag_189:\n        /* \"contracts/TransactionHistory.sol\":1094:1131  TransactionInfo memory newTransaction */\n      tag_192\n      tag_99\n      jump\t// in\n    tag_192:\n        /* \"contracts/TransactionHistory.sol\":1162:1164  id */\n      dup7\n        /* \"contracts/TransactionHistory.sol\":1142:1156  newTransaction */\n      dup2\n        /* \"contracts/TransactionHistory.sol\":1142:1159  newTransaction.id */\n      0x00\n      add\n        /* \"contracts/TransactionHistory.sol\":1142:1164  newTransaction.id = id */\n      dup2\n      dup2\n      mstore\n      pop\n      pop\n        /* \"contracts/TransactionHistory.sol\":1203:1213  campaignId */\n      dup6\n        /* \"contracts/TransactionHistory.sol\":1175:1189  newTransaction */\n      dup2\n        /* \"contracts/TransactionHistory.sol\":1175:1200  newTransaction.campaignId */\n      0x20\n      add\n        /* \"contracts/TransactionHistory.sol\":1175:1213  newTransaction.campaignId = campaignId */\n      dup2\n      swap1\n      mstore\n      pop\n        /* \"contracts/TransactionHistory.sol\":1251:1260  donatorId */\n      dup5\n        /* \"contracts/TransactionHistory.sol\":1224:1238  newTransaction */\n      dup2\n        /* \"contracts/TransactionHistory.sol\":1224:1248  newTransaction.donatorId */\n      0x40\n      add\n        /* \"contracts/TransactionHistory.sol\":1224:1260  newTransaction.donatorId = donatorId */\n      dup2\n      swap1\n      mstore\n      pop\n        /* \"contracts/TransactionHistory.sol\":1303:1317  donatorAddress */\n      dup4\n        /* \"contracts/TransactionHistory.sol\":1271:1285  newTransaction */\n      dup2\n        /* \"contracts/TransactionHistory.sol\":1271:1300  newTransaction.donatorAddress */\n      0x60\n      add\n        /* \"contracts/TransactionHistory.sol\":1271:1317  newTransaction.donatorAddress = donatorAddress */\n      swap1\n      0xffffffffffffffffffffffffffffffffffffffff\n      and\n      swap1\n      dup2\n      0xffffffffffffffffffffffffffffffffffffffff\n      and\n      dup2\n      mstore\n      pop\n      pop\n        /* \"contracts/TransactionHistory.sol\":1351:1356  value */\n      dup3\n        /* \"contracts/TransactionHistory.sol\":1328:1342  newTransaction */\n      dup2\n        /* \"contracts/TransactionHistory.sol\":1328:1348  newTransaction.value */\n      0x80\n      add\n        /* \"contracts/TransactionHistory.sol\":1328:1356  newTransaction.value = value */\n      dup2\n      dup2\n      mstore\n      pop\n      pop\n        /* \"contracts/TransactionHistory.sol\":1389:1393  time */\n      dup2\n        /* \"contracts/TransactionHistory.sol\":1367:1381  newTransaction */\n      dup2\n        /* \"contracts/TransactionHistory.sol\":1367:1386  newTransaction.time */\n      0xa0\n      add\n        /* \"contracts/TransactionHistory.sol\":1367:1393  newTransaction.time = time */\n      dup2\n      swap1\n      mstore\n      pop\n        /* \"contracts/TransactionHistory.sol\":1406:1426  transactionInfoArray */\n      0x02\n        /* \"contracts/TransactionHistory.sol\":1432:1446  newTransaction */\n      dup2\n        /* \"contracts/TransactionHistory.sol\":1406:1447  transactionInfoArray.push(newTransaction) */\n      swap1\n      dup1\n      0x01\n      dup2\n      sload\n      add\n      dup1\n      dup3\n      sstore\n      dup1\n      swap2\n      pop\n      pop\n      0x01\n      swap1\n      sub\n      swap1\n      0x00\n      mstore\n      keccak256(0x00, 0x20)\n      swap1\n      0x06\n      mul\n      add\n      0x00\n      swap1\n      swap2\n      swap1\n      swap2\n      swap1\n      swap2\n      pop\n      0x00\n      dup3\n      add\n      mload\n      dup2\n      0x00\n      add\n      sstore\n      0x20\n      dup3\n      add\n      mload\n      dup2\n      0x01\n      add\n      swap1\n      dup2\n      tag_194\n      swap2\n      swap1\n      tag_195\n      jump\t// in\n    tag_194:\n      pop\n      0x40\n      dup3\n      add\n      mload\n      dup2\n      0x02\n      add\n      swap1\n      dup2\n      tag_196\n      swap2\n      swap1\n      tag_195\n      jump\t// in\n    tag_196:\n      pop\n      0x60\n      dup3\n      add\n      mload\n      dup2\n      0x03\n      add\n      exp(0x0100, 0x00)\n      dup2\n      sload\n      dup2\n      0xffffffffffffffffffffffffffffffffffffffff\n      mul\n      not\n      and\n      swap1\n      dup4\n      0xffffffffffffffffffffffffffffffffffffffff\n      and\n      mul\n      or\n      swap1\n      sstore\n      pop\n      0x80\n      dup3\n      add\n      mload\n      dup2\n      0x04\n      add\n      sstore\n      0xa0\n      dup3\n      add\n      mload\n      dup2\n      0x05\n      add\n      swap1\n      dup2\n      tag_197\n      swap2\n      swap1\n      tag_195\n      jump\t// in\n    tag_197:\n      pop\n      pop\n      pop\n        /* \"contracts/TransactionHistory.sol\":1083:1455  {... */\n      pop\n        /* \"contracts/TransactionHistory.sol\":839:1455  function addNewTransactionHistory(... */\n      pop\n      pop\n      pop\n      pop\n      pop\n      pop\n      jump\t// out\n        /* \"contracts/TransactionHistory.sol\":103:175  address public adminAddress = 0x8c43a48745b5a4Dc666F0ba9aF9B6F41C065EC22 */\n    tag_52:\n      0x00\n      dup1\n      sload\n      swap1\n      0x0100\n      exp\n      swap1\n      div\n      0xffffffffffffffffffffffffffffffffffffffff\n      and\n      dup2\n      jump\t// out\n        /* \"contracts/TransactionHistory.sol\":2985:3294  function resizeArray(TransactionInfo[] memory array, uint newSize) internal pure returns (TransactionInfo[] memory) {... */\n    tag_132:\n        /* \"contracts/TransactionHistory.sol\":3075:3099  TransactionInfo[] memory */\n      0x60\n        /* \"contracts/TransactionHistory.sol\":3108:3145  TransactionInfo[] memory resizedArray */\n      0x00\n        /* \"contracts/TransactionHistory.sol\":3170:3177  newSize */\n      dup3\n        /* \"contracts/TransactionHistory.sol\":3148:3178  new TransactionInfo[](newSize) */\n      0xffffffffffffffff\n      dup2\n      gt\n      iszero\n      tag_199\n      jumpi\n      tag_200\n      tag_95\n      jump\t// in\n    tag_200:\n    tag_199:\n      mload(0x40)\n      swap1\n      dup1\n      dup3\n      mstore\n      dup1\n      0x20\n      mul\n      0x20\n      add\n      dup3\n      add\n      0x40\n      mstore\n      dup1\n      iszero\n      tag_201\n      jumpi\n      dup2\n      0x20\n      add\n    tag_202:\n      tag_203\n      tag_99\n      jump\t// in\n    tag_203:\n      dup2\n      mstore\n      0x20\n      add\n      swap1\n      0x01\n      swap1\n      sub\n      swap1\n      dup2\n      tag_202\n      jumpi\n      swap1\n      pop\n    tag_201:\n      pop\n        /* \"contracts/TransactionHistory.sol\":3108:3178  TransactionInfo[] memory resizedArray = new TransactionInfo[](newSize) */\n      swap1\n      pop\n        /* \"contracts/TransactionHistory.sol\":3190:3196  uint i */\n      0x00\n        /* \"contracts/TransactionHistory.sol\":3185:3265  for (uint i = 0; i < newSize; i++) {... */\n    tag_204:\n        /* \"contracts/TransactionHistory.sol\":3206:3213  newSize */\n      dup4\n        /* \"contracts/TransactionHistory.sol\":3202:3203  i */\n      dup2\n        /* \"contracts/TransactionHistory.sol\":3202:3213  i < newSize */\n      lt\n        /* \"contracts/TransactionHistory.sol\":3185:3265  for (uint i = 0; i < newSize; i++) {... */\n      iszero\n      tag_205\n      jumpi\n        /* \"contracts/TransactionHistory.sol\":3249:3254  array */\n      dup5\n        /* \"contracts/TransactionHistory.sol\":3255:3256  i */\n      dup2\n        /* \"contracts/TransactionHistory.sol\":3249:3257  array[i] */\n      dup2\n      mload\n      dup2\n      lt\n      tag_207\n      jumpi\n      tag_208\n      tag_62\n      jump\t// in\n    tag_208:\n    tag_207:\n      0x20\n      mul\n      0x20\n      add\n      add\n      mload\n        /* \"contracts/TransactionHistory.sol\":3231:3243  resizedArray */\n      dup3\n        /* \"contracts/TransactionHistory.sol\":3244:3245  i */\n      dup3\n        /* \"contracts/TransactionHistory.sol\":3231:3246  resizedArray[i] */\n      dup2\n      mload\n      dup2\n      lt\n      tag_209\n      jumpi\n      tag_210\n      tag_62\n      jump\t// in\n    tag_210:\n    tag_209:\n      0x20\n      mul\n      0x20\n      add\n      add\n        /* \"contracts/TransactionHistory.sol\":3231:3257  resizedArray[i] = array[i] */\n      dup2\n      swap1\n      mstore\n      pop\n        /* \"contracts/TransactionHistory.sol\":3215:3218  i++ */\n      dup1\n      dup1\n      0x01\n      add\n      swap2\n      pop\n      pop\n        /* \"contracts/TransactionHistory.sol\":3185:3265  for (uint i = 0; i < newSize; i++) {... */\n      jump(tag_204)\n    tag_205:\n      pop\n        /* \"contracts/TransactionHistory.sol\":3278:3290  resizedArray */\n      dup1\n        /* \"contracts/TransactionHistory.sol\":3271:3290  return resizedArray */\n      swap2\n      pop\n      pop\n        /* \"contracts/TransactionHistory.sol\":2985:3294  function resizeArray(TransactionInfo[] memory array, uint newSize) internal pure returns (TransactionInfo[] memory) {... */\n      swap3\n      swap2\n      pop\n      pop\n      jump\t// out\n    tag_99:\n      mload(0x40)\n      dup1\n      0xc0\n      add\n      0x40\n      mstore\n      dup1\n      0x00\n      dup2\n      mstore\n      0x20\n      add\n      0x60\n      dup2\n      mstore\n      0x20\n      add\n      0x60\n      dup2\n      mstore\n      0x20\n      add\n      and(0xffffffffffffffffffffffffffffffffffffffff, 0x00)\n      dup2\n      mstore\n      0x20\n      add\n      0x00\n      dup2\n      mstore\n      0x20\n      add\n      0x60\n      dup2\n      mstore\n      pop\n      swap1\n      jump\t// out\n        /* \"#utility.yul\":7:82   */\n    tag_211:\n        /* \"#utility.yul\":40:46   */\n      0x00\n        /* \"#utility.yul\":73:75   */\n      0x40\n        /* \"#utility.yul\":67:76   */\n      mload\n        /* \"#utility.yul\":57:76   */\n      swap1\n      pop\n        /* \"#utility.yul\":7:82   */\n      swap1\n      jump\t// out\n        /* \"#utility.yul\":88:205   */\n    tag_212:\n        /* \"#utility.yul\":197:198   */\n      0x00\n        /* \"#utility.yul\":194:195   */\n      dup1\n        /* \"#utility.yul\":187:199   */\n      revert\n        /* \"#utility.yul\":211:328   */\n    tag_213:\n        /* \"#utility.yul\":320:321   */\n      0x00\n        /* \"#utility.yul\":317:318   */\n      dup1\n        /* \"#utility.yul\":310:322   */\n      revert\n        /* \"#utility.yul\":334:460   */\n    tag_214:\n        /* \"#utility.yul\":371:378   */\n      0x00\n        /* \"#utility.yul\":411:453   */\n      0xffffffffffffffffffffffffffffffffffffffff\n        /* \"#utility.yul\":404:409   */\n      dup3\n        /* \"#utility.yul\":400:454   */\n      and\n        /* \"#utility.yul\":389:454   */\n      swap1\n      pop\n        /* \"#utility.yul\":334:460   */\n      swap2\n      swap1\n      pop\n      jump\t// out\n        /* \"#utility.yul\":466:562   */\n    tag_215:\n        /* \"#utility.yul\":503:510   */\n      0x00\n        /* \"#utility.yul\":532:556   */\n      tag_284\n        /* \"#utility.yul\":550:555   */\n      dup3\n        /* \"#utility.yul\":532:556   */\n      tag_214\n      jump\t// in\n    tag_284:\n        /* \"#utility.yul\":521:556   */\n      swap1\n      pop\n        /* \"#utility.yul\":466:562   */\n      swap2\n      swap1\n      pop\n      jump\t// out\n        /* \"#utility.yul\":568:690   */\n    tag_216:\n        /* \"#utility.yul\":641:665   */\n      tag_286\n        /* \"#utility.yul\":659:664   */\n      dup2\n        /* \"#utility.yul\":641:665   */\n      tag_215\n      jump\t// in\n    tag_286:\n        /* \"#utility.yul\":634:639   */\n      dup2\n        /* \"#utility.yul\":631:666   */\n      eq\n        /* \"#utility.yul\":621:684   */\n      tag_287\n      jumpi\n        /* \"#utility.yul\":680:681   */\n      0x00\n        /* \"#utility.yul\":677:678   */\n      dup1\n        /* \"#utility.yul\":670:682   */\n      revert\n        /* \"#utility.yul\":621:684   */\n    tag_287:\n        /* \"#utility.yul\":568:690   */\n      pop\n      jump\t// out\n        /* \"#utility.yul\":696:835   */\n    tag_217:\n        /* \"#utility.yul\":742:747   */\n      0x00\n        /* \"#utility.yul\":780:786   */\n      dup2\n        /* \"#utility.yul\":767:787   */\n      calldataload\n        /* \"#utility.yul\":758:787   */\n      swap1\n      pop\n        /* \"#utility.yul\":796:829   */\n      tag_289\n        /* \"#utility.yul\":823:828   */\n      dup2\n        /* \"#utility.yul\":796:829   */\n      tag_216\n      jump\t// in\n    tag_289:\n        /* \"#utility.yul\":696:835   */\n      swap3\n      swap2\n      pop\n      pop\n      jump\t// out\n        /* \"#utility.yul\":841:958   */\n    tag_218:\n        /* \"#utility.yul\":950:951   */\n      0x00\n        /* \"#utility.yul\":947:948   */\n      dup1\n        /* \"#utility.yul\":940:952   */\n      revert\n        /* \"#utility.yul\":964:1081   */\n    tag_219:\n        /* \"#utility.yul\":1073:1074   */\n      0x00\n        /* \"#utility.yul\":1070:1071   */\n      dup1\n        /* \"#utility.yul\":1063:1075   */\n      revert\n        /* \"#utility.yul\":1087:1189   */\n    tag_220:\n        /* \"#utility.yul\":1128:1134   */\n      0x00\n        /* \"#utility.yul\":1179:1181   */\n      0x1f\n        /* \"#utility.yul\":1175:1182   */\n      not\n        /* \"#utility.yul\":1170:1172   */\n      0x1f\n        /* \"#utility.yul\":1163:1168   */\n      dup4\n        /* \"#utility.yul\":1159:1173   */\n      add\n        /* \"#utility.yul\":1155:1183   */\n      and\n        /* \"#utility.yul\":1145:1183   */\n      swap1\n      pop\n        /* \"#utility.yul\":1087:1189   */\n      swap2\n      swap1\n      pop\n      jump\t// out\n        /* \"#utility.yul\":1195:1375   */\n    tag_95:\n        /* \"#utility.yul\":1243:1320   */\n      0x4e487b7100000000000000000000000000000000000000000000000000000000\n        /* \"#utility.yul\":1240:1241   */\n      0x00\n        /* \"#utility.yul\":1233:1321   */\n      mstore\n        /* \"#utility.yul\":1340:1344   */\n      0x41\n        /* \"#utility.yul\":1337:1338   */\n      0x04\n        /* \"#utility.yul\":1330:1345   */\n      mstore\n        /* \"#utility.yul\":1364:1368   */\n      0x24\n        /* \"#utility.yul\":1361:1362   */\n      0x00\n        /* \"#utility.yul\":1354:1369   */\n      revert\n        /* \"#utility.yul\":1381:1662   */\n    tag_221:\n        /* \"#utility.yul\":1464:1491   */\n      tag_295\n        /* \"#utility.yul\":1486:1490   */\n      dup3\n        /* \"#utility.yul\":1464:1491   */\n      tag_220\n      jump\t// in\n    tag_295:\n        /* \"#utility.yul\":1456:1462   */\n      dup2\n        /* \"#utility.yul\":1452:1492   */\n      add\n        /* \"#utility.yul\":1594:1600   */\n      dup2\n        /* \"#utility.yul\":1582:1592   */\n      dup2\n        /* \"#utility.yul\":1579:1601   */\n      lt\n        /* \"#utility.yul\":1558:1576   */\n      0xffffffffffffffff\n        /* \"#utility.yul\":1546:1556   */\n      dup3\n        /* \"#utility.yul\":1543:1577   */\n      gt\n        /* \"#utility.yul\":1540:1602   */\n      or\n        /* \"#utility.yul\":1537:1625   */\n      iszero\n      tag_296\n      jumpi\n        /* \"#utility.yul\":1605:1623   */\n      tag_297\n      tag_95\n      jump\t// in\n    tag_297:\n        /* \"#utility.yul\":1537:1625   */\n    tag_296:\n        /* \"#utility.yul\":1645:1655   */\n      dup1\n        /* \"#utility.yul\":1641:1643   */\n      0x40\n        /* \"#utility.yul\":1634:1656   */\n      mstore\n        /* \"#utility.yul\":1424:1662   */\n      pop\n        /* \"#utility.yul\":1381:1662   */\n      pop\n      pop\n      jump\t// out\n        /* \"#utility.yul\":1668:1797   */\n    tag_222:\n        /* \"#utility.yul\":1702:1708   */\n      0x00\n        /* \"#utility.yul\":1729:1749   */\n      tag_299\n      tag_211\n      jump\t// in\n    tag_299:\n        /* \"#utility.yul\":1719:1749   */\n      swap1\n      pop\n        /* \"#utility.yul\":1758:1791   */\n      tag_300\n        /* \"#utility.yul\":1786:1790   */\n      dup3\n        /* \"#utility.yul\":1778:1784   */\n      dup3\n        /* \"#utility.yul\":1758:1791   */\n      tag_221\n      jump\t// in\n    tag_300:\n        /* \"#utility.yul\":1668:1797   */\n      swap2\n      swap1\n      pop\n      jump\t// out\n        /* \"#utility.yul\":1803:2111   */\n    tag_223:\n        /* \"#utility.yul\":1865:1869   */\n      0x00\n        /* \"#utility.yul\":1955:1973   */\n      0xffffffffffffffff\n        /* \"#utility.yul\":1947:1953   */\n      dup3\n        /* \"#utility.yul\":1944:1974   */\n      gt\n        /* \"#utility.yul\":1941:1997   */\n      iszero\n      tag_302\n      jumpi\n        /* \"#utility.yul\":1977:1995   */\n      tag_303\n      tag_95\n      jump\t// in\n    tag_303:\n        /* \"#utility.yul\":1941:1997   */\n    tag_302:\n        /* \"#utility.yul\":2015:2044   */\n      tag_304\n        /* \"#utility.yul\":2037:2043   */\n      dup3\n        /* \"#utility.yul\":2015:2044   */\n      tag_220\n      jump\t// in\n    tag_304:\n        /* \"#utility.yul\":2007:2044   */\n      swap1\n      pop\n        /* \"#utility.yul\":2099:2103   */\n      0x20\n        /* \"#utility.yul\":2093:2097   */\n      dup2\n        /* \"#utility.yul\":2089:2104   */\n      add\n        /* \"#utility.yul\":2081:2104   */\n      swap1\n      pop\n        /* \"#utility.yul\":1803:2111   */\n      swap2\n      swap1\n      pop\n      jump\t// out\n        /* \"#utility.yul\":2117:2263   */\n    tag_224:\n        /* \"#utility.yul\":2214:2220   */\n      dup3\n        /* \"#utility.yul\":2209:2212   */\n      dup2\n        /* \"#utility.yul\":2204:2207   */\n      dup4\n        /* \"#utility.yul\":2191:2221   */\n      calldatacopy\n        /* \"#utility.yul\":2255:2256   */\n      0x00\n        /* \"#utility.yul\":2246:2252   */\n      dup4\n        /* \"#utility.yul\":2241:2244   */\n      dup4\n        /* \"#utility.yul\":2237:2253   */\n      add\n        /* \"#utility.yul\":2230:2257   */\n      mstore\n        /* \"#utility.yul\":2117:2263   */\n      pop\n      pop\n      pop\n      jump\t// out\n        /* \"#utility.yul\":2269:2694   */\n    tag_225:\n        /* \"#utility.yul\":2347:2352   */\n      0x00\n        /* \"#utility.yul\":2372:2438   */\n      tag_307\n        /* \"#utility.yul\":2388:2437   */\n      tag_308\n        /* \"#utility.yul\":2430:2436   */\n      dup5\n        /* \"#utility.yul\":2388:2437   */\n      tag_223\n      jump\t// in\n    tag_308:\n        /* \"#utility.yul\":2372:2438   */\n      tag_222\n      jump\t// in\n    tag_307:\n        /* \"#utility.yul\":2363:2438   */\n      swap1\n      pop\n        /* \"#utility.yul\":2461:2467   */\n      dup3\n        /* \"#utility.yul\":2454:2459   */\n      dup2\n        /* \"#utility.yul\":2447:2468   */\n      mstore\n        /* \"#utility.yul\":2499:2503   */\n      0x20\n        /* \"#utility.yul\":2492:2497   */\n      dup2\n        /* \"#utility.yul\":2488:2504   */\n      add\n        /* \"#utility.yul\":2537:2540   */\n      dup5\n        /* \"#utility.yul\":2528:2534   */\n      dup5\n        /* \"#utility.yul\":2523:2526   */\n      dup5\n        /* \"#utility.yul\":2519:2535   */\n      add\n        /* \"#utility.yul\":2516:2541   */\n      gt\n        /* \"#utility.yul\":2513:2625   */\n      iszero\n      tag_309\n      jumpi\n        /* \"#utility.yul\":2544:2623   */\n      tag_310\n      tag_219\n      jump\t// in\n    tag_310:\n        /* \"#utility.yul\":2513:2625   */\n    tag_309:\n        /* \"#utility.yul\":2634:2688   */\n      tag_311\n        /* \"#utility.yul\":2681:2687   */\n      dup5\n        /* \"#utility.yul\":2676:2679   */\n      dup3\n        /* \"#utility.yul\":2671:2674   */\n      dup6\n        /* \"#utility.yul\":2634:2688   */\n      tag_224\n      jump\t// in\n    tag_311:\n        /* \"#utility.yul\":2353:2694   */\n      pop\n        /* \"#utility.yul\":2269:2694   */\n      swap4\n      swap3\n      pop\n      pop\n      pop\n      jump\t// out\n        /* \"#utility.yul\":2714:3054   */\n    tag_226:\n        /* \"#utility.yul\":2770:2775   */\n      0x00\n        /* \"#utility.yul\":2819:2822   */\n      dup3\n        /* \"#utility.yul\":2812:2816   */\n      0x1f\n        /* \"#utility.yul\":2804:2810   */\n      dup4\n        /* \"#utility.yul\":2800:2817   */\n      add\n        /* \"#utility.yul\":2796:2823   */\n      slt\n        /* \"#utility.yul\":2786:2908   */\n      tag_313\n      jumpi\n        /* \"#utility.yul\":2827:2906   */\n      tag_314\n      tag_218\n      jump\t// in\n    tag_314:\n        /* \"#utility.yul\":2786:2908   */\n    tag_313:\n        /* \"#utility.yul\":2944:2950   */\n      dup2\n        /* \"#utility.yul\":2931:2951   */\n      calldataload\n        /* \"#utility.yul\":2969:3048   */\n      tag_315\n        /* \"#utility.yul\":3044:3047   */\n      dup5\n        /* \"#utility.yul\":3036:3042   */\n      dup3\n        /* \"#utility.yul\":3029:3033   */\n      0x20\n        /* \"#utility.yul\":3021:3027   */\n      dup7\n        /* \"#utility.yul\":3017:3034   */\n      add\n        /* \"#utility.yul\":2969:3048   */\n      tag_225\n      jump\t// in\n    tag_315:\n        /* \"#utility.yul\":2960:3048   */\n      swap2\n      pop\n        /* \"#utility.yul\":2776:3054   */\n      pop\n        /* \"#utility.yul\":2714:3054   */\n      swap3\n      swap2\n      pop\n      pop\n      jump\t// out\n        /* \"#utility.yul\":3060:3714   */\n    tag_15:\n        /* \"#utility.yul\":3138:3144   */\n      0x00\n        /* \"#utility.yul\":3146:3152   */\n      dup1\n        /* \"#utility.yul\":3195:3197   */\n      0x40\n        /* \"#utility.yul\":3183:3192   */\n      dup4\n        /* \"#utility.yul\":3174:3181   */\n      dup6\n        /* \"#utility.yul\":3170:3193   */\n      sub\n        /* \"#utility.yul\":3166:3198   */\n      slt\n        /* \"#utility.yul\":3163:3282   */\n      iszero\n      tag_317\n      jumpi\n        /* \"#utility.yul\":3201:3280   */\n      tag_318\n      tag_212\n      jump\t// in\n    tag_318:\n        /* \"#utility.yul\":3163:3282   */\n    tag_317:\n        /* \"#utility.yul\":3321:3322   */\n      0x00\n        /* \"#utility.yul\":3346:3399   */\n      tag_319\n        /* \"#utility.yul\":3391:3398   */\n      dup6\n        /* \"#utility.yul\":3382:3388   */\n      dup3\n        /* \"#utility.yul\":3371:3380   */\n      dup7\n        /* \"#utility.yul\":3367:3389   */\n      add\n        /* \"#utility.yul\":3346:3399   */\n      tag_217\n      jump\t// in\n    tag_319:\n        /* \"#utility.yul\":3336:3399   */\n      swap3\n      pop\n        /* \"#utility.yul\":3292:3409   */\n      pop\n        /* \"#utility.yul\":3476:3478   */\n      0x20\n        /* \"#utility.yul\":3465:3474   */\n      dup4\n        /* \"#utility.yul\":3461:3479   */\n      add\n        /* \"#utility.yul\":3448:3480   */\n      calldataload\n        /* \"#utility.yul\":3507:3525   */\n      0xffffffffffffffff\n        /* \"#utility.yul\":3499:3505   */\n      dup2\n        /* \"#utility.yul\":3496:3526   */\n      gt\n        /* \"#utility.yul\":3493:3610   */\n      iszero\n      tag_320\n      jumpi\n        /* \"#utility.yul\":3529:3608   */\n      tag_321\n      tag_213\n      jump\t// in\n    tag_321:\n        /* \"#utility.yul\":3493:3610   */\n    tag_320:\n        /* \"#utility.yul\":3634:3697   */\n      tag_322\n        /* \"#utility.yul\":3689:3696   */\n      dup6\n        /* \"#utility.yul\":3680:3686   */\n      dup3\n        /* \"#utility.yul\":3669:3678   */\n      dup7\n        /* \"#utility.yul\":3665:3687   */\n      add\n        /* \"#utility.yul\":3634:3697   */\n      tag_226\n      jump\t// in\n    tag_322:\n        /* \"#utility.yul\":3624:3697   */\n      swap2\n      pop\n        /* \"#utility.yul\":3419:3707   */\n      pop\n        /* \"#utility.yul\":3060:3714   */\n      swap3\n      pop\n      swap3\n      swap1\n      pop\n      jump\t// out\n        /* \"#utility.yul\":3720:3810   */\n    tag_227:\n        /* \"#utility.yul\":3754:3761   */\n      0x00\n        /* \"#utility.yul\":3797:3802   */\n      dup2\n        /* \"#utility.yul\":3790:3803   */\n      iszero\n        /* \"#utility.yul\":3783:3804   */\n      iszero\n        /* \"#utility.yul\":3772:3804   */\n      swap1\n      pop\n        /* \"#utility.yul\":3720:3810   */\n      swap2\n      swap1\n      pop\n      jump\t// out\n        /* \"#utility.yul\":3816:3925   */\n    tag_228:\n        /* \"#utility.yul\":3897:3918   */\n      tag_325\n        /* \"#utility.yul\":3912:3917   */\n      dup2\n        /* \"#utility.yul\":3897:3918   */\n      tag_227\n      jump\t// in\n    tag_325:\n        /* \"#utility.yul\":3892:3895   */\n      dup3\n        /* \"#utility.yul\":3885:3919   */\n      mstore\n        /* \"#utility.yul\":3816:3925   */\n      pop\n      pop\n      jump\t// out\n        /* \"#utility.yul\":3931:4141   */\n    tag_18:\n        /* \"#utility.yul\":4018:4022   */\n      0x00\n        /* \"#utility.yul\":4056:4058   */\n      0x20\n        /* \"#utility.yul\":4045:4054   */\n      dup3\n        /* \"#utility.yul\":4041:4059   */\n      add\n        /* \"#utility.yul\":4033:4059   */\n      swap1\n      pop\n        /* \"#utility.yul\":4069:4134   */\n      tag_327\n        /* \"#utility.yul\":4131:4132   */\n      0x00\n        /* \"#utility.yul\":4120:4129   */\n      dup4\n        /* \"#utility.yul\":4116:4133   */\n      add\n        /* \"#utility.yul\":4107:4113   */\n      dup5\n        /* \"#utility.yul\":4069:4134   */\n      tag_228\n      jump\t// in\n    tag_327:\n        /* \"#utility.yul\":3931:4141   */\n      swap3\n      swap2\n      pop\n      pop\n      jump\t// out\n        /* \"#utility.yul\":4147:4265   */\n    tag_229:\n        /* \"#utility.yul\":4234:4258   */\n      tag_329\n        /* \"#utility.yul\":4252:4257   */\n      dup2\n        /* \"#utility.yul\":4234:4258   */\n      tag_215\n      jump\t// in\n    tag_329:\n        /* \"#utility.yul\":4229:4232   */\n      dup3\n        /* \"#utility.yul\":4222:4259   */\n      mstore\n        /* \"#utility.yul\":4147:4265   */\n      pop\n      pop\n      jump\t// out\n        /* \"#utility.yul\":4271:4493   */\n    tag_22:\n        /* \"#utility.yul\":4364:4368   */\n      0x00\n        /* \"#utility.yul\":4402:4404   */\n      0x20\n        /* \"#utility.yul\":4391:4400   */\n      dup3\n        /* \"#utility.yul\":4387:4405   */\n      add\n        /* \"#utility.yul\":4379:4405   */\n      swap1\n      pop\n        /* \"#utility.yul\":4415:4486   */\n      tag_331\n        /* \"#utility.yul\":4483:4484   */\n      0x00\n        /* \"#utility.yul\":4472:4481   */\n      dup4\n        /* \"#utility.yul\":4468:4485   */\n      add\n        /* \"#utility.yul\":4459:4465   */\n      dup5\n        /* \"#utility.yul\":4415:4486   */\n      tag_229\n      jump\t// in\n    tag_331:\n        /* \"#utility.yul\":4271:4493   */\n      swap3\n      swap2\n      pop\n      pop\n      jump\t// out\n        /* \"#utility.yul\":4499:4576   */\n    tag_230:\n        /* \"#utility.yul\":4536:4543   */\n      0x00\n        /* \"#utility.yul\":4565:4570   */\n      dup2\n        /* \"#utility.yul\":4554:4570   */\n      swap1\n      pop\n        /* \"#utility.yul\":4499:4576   */\n      swap2\n      swap1\n      pop\n      jump\t// out\n        /* \"#utility.yul\":4582:4704   */\n    tag_231:\n        /* \"#utility.yul\":4655:4679   */\n      tag_334\n        /* \"#utility.yul\":4673:4678   */\n      dup2\n        /* \"#utility.yul\":4655:4679   */\n      tag_230\n      jump\t// in\n    tag_334:\n        /* \"#utility.yul\":4648:4653   */\n      dup2\n        /* \"#utility.yul\":4645:4680   */\n      eq\n        /* \"#utility.yul\":4635:4698   */\n      tag_335\n      jumpi\n        /* \"#utility.yul\":4694:4695   */\n      0x00\n        /* \"#utility.yul\":4691:4692   */\n      dup1\n        /* \"#utility.yul\":4684:4696   */\n      revert\n        /* \"#utility.yul\":4635:4698   */\n    tag_335:\n        /* \"#utility.yul\":4582:4704   */\n      pop\n      jump\t// out\n        /* \"#utility.yul\":4710:4849   */\n    tag_232:\n        /* \"#utility.yul\":4756:4761   */\n      0x00\n        /* \"#utility.yul\":4794:4800   */\n      dup2\n        /* \"#utility.yul\":4781:4801   */\n      calldataload\n        /* \"#utility.yul\":4772:4801   */\n      swap1\n      pop\n        /* \"#utility.yul\":4810:4843   */\n      tag_337\n        /* \"#utility.yul\":4837:4842   */\n      dup2\n        /* \"#utility.yul\":4810:4843   */\n      tag_231\n      jump\t// in\n    tag_337:\n        /* \"#utility.yul\":4710:4849   */\n      swap3\n      swap2\n      pop\n      pop\n      jump\t// out\n        /* \"#utility.yul\":4855:5184   */\n    tag_25:\n        /* \"#utility.yul\":4914:4920   */\n      0x00\n        /* \"#utility.yul\":4963:4965   */\n      0x20\n        /* \"#utility.yul\":4951:4960   */\n      dup3\n        /* \"#utility.yul\":4942:4949   */\n      dup5\n        /* \"#utility.yul\":4938:4961   */\n      sub\n        /* \"#utility.yul\":4934:4966   */\n      slt\n        /* \"#utility.yul\":4931:5050   */\n      iszero\n      tag_339\n      jumpi\n        /* \"#utility.yul\":4969:5048   */\n      tag_340\n      tag_212\n      jump\t// in\n    tag_340:\n        /* \"#utility.yul\":4931:5050   */\n    tag_339:\n        /* \"#utility.yul\":5089:5090   */\n      0x00\n        /* \"#utility.yul\":5114:5167   */\n      tag_341\n        /* \"#utility.yul\":5159:5166   */\n      dup5\n        /* \"#utility.yul\":5150:5156   */\n      dup3\n        /* \"#utility.yul\":5139:5148   */\n      dup6\n        /* \"#utility.yul\":5135:5157   */\n      add\n        /* \"#utility.yul\":5114:5167   */\n      tag_232\n      jump\t// in\n    tag_341:\n        /* \"#utility.yul\":5104:5167   */\n      swap2\n      pop\n        /* \"#utility.yul\":5060:5177   */\n      pop\n        /* \"#utility.yul\":4855:5184   */\n      swap3\n      swap2\n      pop\n      pop\n      jump\t// out\n        /* \"#utility.yul\":5190:5308   */\n    tag_233:\n        /* \"#utility.yul\":5277:5301   */\n      tag_343\n        /* \"#utility.yul\":5295:5300   */\n      dup2\n        /* \"#utility.yul\":5277:5301   */\n      tag_230\n      jump\t// in\n    tag_343:\n        /* \"#utility.yul\":5272:5275   */\n      dup3\n        /* \"#utility.yul\":5265:5302   */\n      mstore\n        /* \"#utility.yul\":5190:5308   */\n      pop\n      pop\n      jump\t// out\n        /* \"#utility.yul\":5314:5413   */\n    tag_234:\n        /* \"#utility.yul\":5366:5372   */\n      0x00\n        /* \"#utility.yul\":5400:5405   */\n      dup2\n        /* \"#utility.yul\":5394:5406   */\n      mload\n        /* \"#utility.yul\":5384:5406   */\n      swap1\n      pop\n        /* \"#utility.yul\":5314:5413   */\n      swap2\n      swap1\n      pop\n      jump\t// out\n        /* \"#utility.yul\":5419:5588   */\n    tag_235:\n        /* \"#utility.yul\":5503:5514   */\n      0x00\n        /* \"#utility.yul\":5537:5543   */\n      dup3\n        /* \"#utility.yul\":5532:5535   */\n      dup3\n        /* \"#utility.yul\":5525:5544   */\n      mstore\n        /* \"#utility.yul\":5577:5581   */\n      0x20\n        /* \"#utility.yul\":5572:5575   */\n      dup3\n        /* \"#utility.yul\":5568:5582   */\n      add\n        /* \"#utility.yul\":5553:5582   */\n      swap1\n      pop\n        /* \"#utility.yul\":5419:5588   */\n      swap3\n      swap2\n      pop\n      pop\n      jump\t// out\n        /* \"#utility.yul\":5594:5840   */\n    tag_236:\n        /* \"#utility.yul\":5675:5676   */\n      0x00\n        /* \"#utility.yul\":5685:5798   */\n    tag_347:\n        /* \"#utility.yul\":5699:5705   */\n      dup4\n        /* \"#utility.yul\":5696:5697   */\n      dup2\n        /* \"#utility.yul\":5693:5706   */\n      lt\n        /* \"#utility.yul\":5685:5798   */\n      iszero\n      tag_349\n      jumpi\n        /* \"#utility.yul\":5784:5785   */\n      dup1\n        /* \"#utility.yul\":5779:5782   */\n      dup3\n        /* \"#utility.yul\":5775:5786   */\n      add\n        /* \"#utility.yul\":5769:5787   */\n      mload\n        /* \"#utility.yul\":5765:5766   */\n      dup2\n        /* \"#utility.yul\":5760:5763   */\n      dup5\n        /* \"#utility.yul\":5756:5767   */\n      add\n        /* \"#utility.yul\":5749:5788   */\n      mstore\n        /* \"#utility.yul\":5721:5723   */\n      0x20\n        /* \"#utility.yul\":5718:5719   */\n      dup2\n        /* \"#utility.yul\":5714:5724   */\n      add\n        /* \"#utility.yul\":5709:5724   */\n      swap1\n      pop\n        /* \"#utility.yul\":5685:5798   */\n      jump(tag_347)\n    tag_349:\n        /* \"#utility.yul\":5832:5833   */\n      0x00\n        /* \"#utility.yul\":5823:5829   */\n      dup5\n        /* \"#utility.yul\":5818:5821   */\n      dup5\n        /* \"#utility.yul\":5814:5830   */\n      add\n        /* \"#utility.yul\":5807:5834   */\n      mstore\n        /* \"#utility.yul\":5656:5840   */\n      pop\n        /* \"#utility.yul\":5594:5840   */\n      pop\n      pop\n      pop\n      jump\t// out\n        /* \"#utility.yul\":5846:6223   */\n    tag_237:\n        /* \"#utility.yul\":5934:5937   */\n      0x00\n        /* \"#utility.yul\":5962:6001   */\n      tag_351\n        /* \"#utility.yul\":5995:6000   */\n      dup3\n        /* \"#utility.yul\":5962:6001   */\n      tag_234\n      jump\t// in\n    tag_351:\n        /* \"#utility.yul\":6017:6088   */\n      tag_352\n        /* \"#utility.yul\":6081:6087   */\n      dup2\n        /* \"#utility.yul\":6076:6079   */\n      dup6\n        /* \"#utility.yul\":6017:6088   */\n      tag_235\n      jump\t// in\n    tag_352:\n        /* \"#utility.yul\":6010:6088   */\n      swap4\n      pop\n        /* \"#utility.yul\":6097:6162   */\n      tag_353\n        /* \"#utility.yul\":6155:6161   */\n      dup2\n        /* \"#utility.yul\":6150:6153   */\n      dup6\n        /* \"#utility.yul\":6143:6147   */\n      0x20\n        /* \"#utility.yul\":6136:6141   */\n      dup7\n        /* \"#utility.yul\":6132:6148   */\n      add\n        /* \"#utility.yul\":6097:6162   */\n      tag_236\n      jump\t// in\n    tag_353:\n        /* \"#utility.yul\":6187:6216   */\n      tag_354\n        /* \"#utility.yul\":6209:6215   */\n      dup2\n        /* \"#utility.yul\":6187:6216   */\n      tag_220\n      jump\t// in\n    tag_354:\n        /* \"#utility.yul\":6182:6185   */\n      dup5\n        /* \"#utility.yul\":6178:6217   */\n      add\n        /* \"#utility.yul\":6171:6217   */\n      swap2\n      pop\n        /* \"#utility.yul\":5938:6223   */\n      pop\n        /* \"#utility.yul\":5846:6223   */\n      swap3\n      swap2\n      pop\n      pop\n      jump\t// out\n        /* \"#utility.yul\":6229:7277   */\n    tag_28:\n        /* \"#utility.yul\":6522:6526   */\n      0x00\n        /* \"#utility.yul\":6560:6563   */\n      0xc0\n        /* \"#utility.yul\":6549:6558   */\n      dup3\n        /* \"#utility.yul\":6545:6564   */\n      add\n        /* \"#utility.yul\":6537:6564   */\n      swap1\n      pop\n        /* \"#utility.yul\":6574:6645   */\n      tag_356\n        /* \"#utility.yul\":6642:6643   */\n      0x00\n        /* \"#utility.yul\":6631:6640   */\n      dup4\n        /* \"#utility.yul\":6627:6644   */\n      add\n        /* \"#utility.yul\":6618:6624   */\n      dup10\n        /* \"#utility.yul\":6574:6645   */\n      tag_233\n      jump\t// in\n    tag_356:\n        /* \"#utility.yul\":6692:6701   */\n      dup2\n        /* \"#utility.yul\":6686:6690   */\n      dup2\n        /* \"#utility.yul\":6682:6702   */\n      sub\n        /* \"#utility.yul\":6677:6679   */\n      0x20\n        /* \"#utility.yul\":6666:6675   */\n      dup4\n        /* \"#utility.yul\":6662:6680   */\n      add\n        /* \"#utility.yul\":6655:6703   */\n      mstore\n        /* \"#utility.yul\":6720:6798   */\n      tag_357\n        /* \"#utility.yul\":6793:6797   */\n      dup2\n        /* \"#utility.yul\":6784:6790   */\n      dup9\n        /* \"#utility.yul\":6720:6798   */\n      tag_237\n      jump\t// in\n    tag_357:\n        /* \"#utility.yul\":6712:6798   */\n      swap1\n      pop\n        /* \"#utility.yul\":6845:6854   */\n      dup2\n        /* \"#utility.yul\":6839:6843   */\n      dup2\n        /* \"#utility.yul\":6835:6855   */\n      sub\n        /* \"#utility.yul\":6830:6832   */\n      0x40\n        /* \"#utility.yul\":6819:6828   */\n      dup4\n        /* \"#utility.yul\":6815:6833   */\n      add\n        /* \"#utility.yul\":6808:6856   */\n      mstore\n        /* \"#utility.yul\":6873:6951   */\n      tag_358\n        /* \"#utility.yul\":6946:6950   */\n      dup2\n        /* \"#utility.yul\":6937:6943   */\n      dup8\n        /* \"#utility.yul\":6873:6951   */\n      tag_237\n      jump\t// in\n    tag_358:\n        /* \"#utility.yul\":6865:6951   */\n      swap1\n      pop\n        /* \"#utility.yul\":6961:7033   */\n      tag_359\n        /* \"#utility.yul\":7029:7031   */\n      0x60\n        /* \"#utility.yul\":7018:7027   */\n      dup4\n        /* \"#utility.yul\":7014:7032   */\n      add\n        /* \"#utility.yul\":7005:7011   */\n      dup7\n        /* \"#utility.yul\":6961:7033   */\n      tag_229\n      jump\t// in\n    tag_359:\n        /* \"#utility.yul\":7043:7116   */\n      tag_360\n        /* \"#utility.yul\":7111:7114   */\n      0x80\n        /* \"#utility.yul\":7100:7109   */\n      dup4\n        /* \"#utility.yul\":7096:7115   */\n      add\n        /* \"#utility.yul\":7087:7093   */\n      dup6\n        /* \"#utility.yul\":7043:7116   */\n      tag_233\n      jump\t// in\n    tag_360:\n        /* \"#utility.yul\":7164:7173   */\n      dup2\n        /* \"#utility.yul\":7158:7162   */\n      dup2\n        /* \"#utility.yul\":7154:7174   */\n      sub\n        /* \"#utility.yul\":7148:7151   */\n      0xa0\n        /* \"#utility.yul\":7137:7146   */\n      dup4\n        /* \"#utility.yul\":7133:7152   */\n      add\n        /* \"#utility.yul\":7126:7175   */\n      mstore\n        /* \"#utility.yul\":7192:7270   */\n      tag_361\n        /* \"#utility.yul\":7265:7269   */\n      dup2\n        /* \"#utility.yul\":7256:7262   */\n      dup5\n        /* \"#utility.yul\":7192:7270   */\n      tag_237\n      jump\t// in\n    tag_361:\n        /* \"#utility.yul\":7184:7270   */\n      swap1\n      pop\n        /* \"#utility.yul\":6229:7277   */\n      swap8\n      swap7\n      pop\n      pop\n      pop\n      pop\n      pop\n      pop\n      pop\n      jump\t// out\n        /* \"#utility.yul\":7283:7792   */\n    tag_31:\n        /* \"#utility.yul\":7352:7358   */\n      0x00\n        /* \"#utility.yul\":7401:7403   */\n      0x20\n        /* \"#utility.yul\":7389:7398   */\n      dup3\n        /* \"#utility.yul\":7380:7387   */\n      dup5\n        /* \"#utility.yul\":7376:7399   */\n      sub\n        /* \"#utility.yul\":7372:7404   */\n      slt\n        /* \"#utility.yul\":7369:7488   */\n      iszero\n      tag_363\n      jumpi\n        /* \"#utility.yul\":7407:7486   */\n      tag_364\n      tag_212\n      jump\t// in\n    tag_364:\n        /* \"#utility.yul\":7369:7488   */\n    tag_363:\n        /* \"#utility.yul\":7555:7556   */\n      0x00\n        /* \"#utility.yul\":7544:7553   */\n      dup3\n        /* \"#utility.yul\":7540:7557   */\n      add\n        /* \"#utility.yul\":7527:7558   */\n      calldataload\n        /* \"#utility.yul\":7585:7603   */\n      0xffffffffffffffff\n        /* \"#utility.yul\":7577:7583   */\n      dup2\n        /* \"#utility.yul\":7574:7604   */\n      gt\n        /* \"#utility.yul\":7571:7688   */\n      iszero\n      tag_365\n      jumpi\n        /* \"#utility.yul\":7607:7686   */\n      tag_366\n      tag_213\n      jump\t// in\n    tag_366:\n        /* \"#utility.yul\":7571:7688   */\n    tag_365:\n        /* \"#utility.yul\":7712:7775   */\n      tag_367\n        /* \"#utility.yul\":7767:7774   */\n      dup5\n        /* \"#utility.yul\":7758:7764   */\n      dup3\n        /* \"#utility.yul\":7747:7756   */\n      dup6\n        /* \"#utility.yul\":7743:7765   */\n      add\n        /* \"#utility.yul\":7712:7775   */\n      tag_226\n      jump\t// in\n    tag_367:\n        /* \"#utility.yul\":7702:7775   */\n      swap2\n      pop\n        /* \"#utility.yul\":7498:7785   */\n      pop\n        /* \"#utility.yul\":7283:7792   */\n      swap3\n      swap2\n      pop\n      pop\n      jump\t// out\n        /* \"#utility.yul\":7798:7943   */\n    tag_238:\n        /* \"#utility.yul\":7896:7902   */\n      0x00\n        /* \"#utility.yul\":7930:7935   */\n      dup2\n        /* \"#utility.yul\":7924:7936   */\n      mload\n        /* \"#utility.yul\":7914:7936   */\n      swap1\n      pop\n        /* \"#utility.yul\":7798:7943   */\n      swap2\n      swap1\n      pop\n      jump\t// out\n        /* \"#utility.yul\":7949:8164   */\n    tag_239:\n        /* \"#utility.yul\":8079:8090   */\n      0x00\n        /* \"#utility.yul\":8113:8119   */\n      dup3\n        /* \"#utility.yul\":8108:8111   */\n      dup3\n        /* \"#utility.yul\":8101:8120   */\n      mstore\n        /* \"#utility.yul\":8153:8157   */\n      0x20\n        /* \"#utility.yul\":8148:8151   */\n      dup3\n        /* \"#utility.yul\":8144:8158   */\n      add\n        /* \"#utility.yul\":8129:8158   */\n      swap1\n      pop\n        /* \"#utility.yul\":7949:8164   */\n      swap3\n      swap2\n      pop\n      pop\n      jump\t// out\n        /* \"#utility.yul\":8170:8333   */\n    tag_240:\n        /* \"#utility.yul\":8268:8272   */\n      0x00\n        /* \"#utility.yul\":8291:8294   */\n      dup2\n        /* \"#utility.yul\":8283:8294   */\n      swap1\n      pop\n        /* \"#utility.yul\":8321:8325   */\n      0x20\n        /* \"#utility.yul\":8316:8319   */\n      dup3\n        /* \"#utility.yul\":8312:8326   */\n      add\n        /* \"#utility.yul\":8304:8326   */\n      swap1\n      pop\n        /* \"#utility.yul\":8170:8333   */\n      swap2\n      swap1\n      pop\n      jump\t// out\n        /* \"#utility.yul\":8339:8447   */\n    tag_241:\n        /* \"#utility.yul\":8416:8440   */\n      tag_372\n        /* \"#utility.yul\":8434:8439   */\n      dup2\n        /* \"#utility.yul\":8416:8440   */\n      tag_230\n      jump\t// in\n    tag_372:\n        /* \"#utility.yul\":8411:8414   */\n      dup3\n        /* \"#utility.yul\":8404:8441   */\n      mstore\n        /* \"#utility.yul\":8339:8447   */\n      pop\n      pop\n      jump\t// out\n        /* \"#utility.yul\":8453:8612   */\n    tag_242:\n        /* \"#utility.yul\":8527:8538   */\n      0x00\n        /* \"#utility.yul\":8561:8567   */\n      dup3\n        /* \"#utility.yul\":8556:8559   */\n      dup3\n        /* \"#utility.yul\":8549:8568   */\n      mstore\n        /* \"#utility.yul\":8601:8605   */\n      0x20\n        /* \"#utility.yul\":8596:8599   */\n      dup3\n        /* \"#utility.yul\":8592:8606   */\n      add\n        /* \"#utility.yul\":8577:8606   */\n      swap1\n      pop\n        /* \"#utility.yul\":8453:8612   */\n      swap3\n      swap2\n      pop\n      pop\n      jump\t// out\n        /* \"#utility.yul\":8618:8975   */\n    tag_243:\n        /* \"#utility.yul\":8696:8699   */\n      0x00\n        /* \"#utility.yul\":8724:8763   */\n      tag_375\n        /* \"#utility.yul\":8757:8762   */\n      dup3\n        /* \"#utility.yul\":8724:8763   */\n      tag_234\n      jump\t// in\n    tag_375:\n        /* \"#utility.yul\":8779:8840   */\n      tag_376\n        /* \"#utility.yul\":8833:8839   */\n      dup2\n        /* \"#utility.yul\":8828:8831   */\n      dup6\n        /* \"#utility.yul\":8779:8840   */\n      tag_242\n      jump\t// in\n    tag_376:\n        /* \"#utility.yul\":8772:8840   */\n      swap4\n      pop\n        /* \"#utility.yul\":8849:8914   */\n      tag_377\n        /* \"#utility.yul\":8907:8913   */\n      dup2\n        /* \"#utility.yul\":8902:8905   */\n      dup6\n        /* \"#utility.yul\":8895:8899   */\n      0x20\n        /* \"#utility.yul\":8888:8893   */\n      dup7\n        /* \"#utility.yul\":8884:8900   */\n      add\n        /* \"#utility.yul\":8849:8914   */\n      tag_236\n      jump\t// in\n    tag_377:\n        /* \"#utility.yul\":8939:8968   */\n      tag_378\n        /* \"#utility.yul\":8961:8967   */\n      dup2\n        /* \"#utility.yul\":8939:8968   */\n      tag_220\n      jump\t// in\n    tag_378:\n        /* \"#utility.yul\":8934:8937   */\n      dup5\n        /* \"#utility.yul\":8930:8969   */\n      add\n        /* \"#utility.yul\":8923:8969   */\n      swap2\n      pop\n        /* \"#utility.yul\":8700:8975   */\n      pop\n        /* \"#utility.yul\":8618:8975   */\n      swap3\n      swap2\n      pop\n      pop\n      jump\t// out\n        /* \"#utility.yul\":8981:9089   */\n    tag_244:\n        /* \"#utility.yul\":9058:9082   */\n      tag_380\n        /* \"#utility.yul\":9076:9081   */\n      dup2\n        /* \"#utility.yul\":9058:9082   */\n      tag_215\n      jump\t// in\n    tag_380:\n        /* \"#utility.yul\":9053:9056   */\n      dup3\n        /* \"#utility.yul\":9046:9083   */\n      mstore\n        /* \"#utility.yul\":8981:9089   */\n      pop\n      pop\n      jump\t// out\n        /* \"#utility.yul\":9189:10655   */\n    tag_245:\n        /* \"#utility.yul\":9310:9313   */\n      0x00\n        /* \"#utility.yul\":9346:9350   */\n      0xc0\n        /* \"#utility.yul\":9341:9344   */\n      dup4\n        /* \"#utility.yul\":9337:9351   */\n      add\n        /* \"#utility.yul\":9431:9435   */\n      0x00\n        /* \"#utility.yul\":9424:9429   */\n      dup4\n        /* \"#utility.yul\":9420:9436   */\n      add\n        /* \"#utility.yul\":9414:9437   */\n      mload\n        /* \"#utility.yul\":9450:9513   */\n      tag_382\n        /* \"#utility.yul\":9507:9511   */\n      0x00\n        /* \"#utility.yul\":9502:9505   */\n      dup7\n        /* \"#utility.yul\":9498:9512   */\n      add\n        /* \"#utility.yul\":9484:9496   */\n      dup3\n        /* \"#utility.yul\":9450:9513   */\n      tag_241\n      jump\t// in\n    tag_382:\n        /* \"#utility.yul\":9361:9523   */\n      pop\n        /* \"#utility.yul\":9611:9615   */\n      0x20\n        /* \"#utility.yul\":9604:9609   */\n      dup4\n        /* \"#utility.yul\":9600:9616   */\n      add\n        /* \"#utility.yul\":9594:9617   */\n      mload\n        /* \"#utility.yul\":9664:9667   */\n      dup5\n        /* \"#utility.yul\":9658:9662   */\n      dup3\n        /* \"#utility.yul\":9654:9668   */\n      sub\n        /* \"#utility.yul\":9647:9651   */\n      0x20\n        /* \"#utility.yul\":9642:9645   */\n      dup7\n        /* \"#utility.yul\":9638:9652   */\n      add\n        /* \"#utility.yul\":9631:9669   */\n      mstore\n        /* \"#utility.yul\":9690:9763   */\n      tag_383\n        /* \"#utility.yul\":9758:9762   */\n      dup3\n        /* \"#utility.yul\":9744:9756   */\n      dup3\n        /* \"#utility.yul\":9690:9763   */\n      tag_243\n      jump\t// in\n    tag_383:\n        /* \"#utility.yul\":9682:9763   */\n      swap2\n      pop\n        /* \"#utility.yul\":9533:9774   */\n      pop\n        /* \"#utility.yul\":9861:9865   */\n      0x40\n        /* \"#utility.yul\":9854:9859   */\n      dup4\n        /* \"#utility.yul\":9850:9866   */\n      add\n        /* \"#utility.yul\":9844:9867   */\n      mload\n        /* \"#utility.yul\":9914:9917   */\n      dup5\n        /* \"#utility.yul\":9908:9912   */\n      dup3\n        /* \"#utility.yul\":9904:9918   */\n      sub\n        /* \"#utility.yul\":9897:9901   */\n      0x40\n        /* \"#utility.yul\":9892:9895   */\n      dup7\n        /* \"#utility.yul\":9888:9902   */\n      add\n        /* \"#utility.yul\":9881:9919   */\n      mstore\n        /* \"#utility.yul\":9940:10013   */\n      tag_384\n        /* \"#utility.yul\":10008:10012   */\n      dup3\n        /* \"#utility.yul\":9994:10006   */\n      dup3\n        /* \"#utility.yul\":9940:10013   */\n      tag_243\n      jump\t// in\n    tag_384:\n        /* \"#utility.yul\":9932:10013   */\n      swap2\n      pop\n        /* \"#utility.yul\":9784:10024   */\n      pop\n        /* \"#utility.yul\":10116:10120   */\n      0x60\n        /* \"#utility.yul\":10109:10114   */\n      dup4\n        /* \"#utility.yul\":10105:10121   */\n      add\n        /* \"#utility.yul\":10099:10122   */\n      mload\n        /* \"#utility.yul\":10135:10198   */\n      tag_385\n        /* \"#utility.yul\":10192:10196   */\n      0x60\n        /* \"#utility.yul\":10187:10190   */\n      dup7\n        /* \"#utility.yul\":10183:10197   */\n      add\n        /* \"#utility.yul\":10169:10181   */\n      dup3\n        /* \"#utility.yul\":10135:10198   */\n      tag_244\n      jump\t// in\n    tag_385:\n        /* \"#utility.yul\":10034:10208   */\n      pop\n        /* \"#utility.yul\":10291:10295   */\n      0x80\n        /* \"#utility.yul\":10284:10289   */\n      dup4\n        /* \"#utility.yul\":10280:10296   */\n      add\n        /* \"#utility.yul\":10274:10297   */\n      mload\n        /* \"#utility.yul\":10310:10373   */\n      tag_386\n        /* \"#utility.yul\":10367:10371   */\n      0x80\n        /* \"#utility.yul\":10362:10365   */\n      dup7\n        /* \"#utility.yul\":10358:10372   */\n      add\n        /* \"#utility.yul\":10344:10356   */\n      dup3\n        /* \"#utility.yul\":10310:10373   */\n      tag_241\n      jump\t// in\n    tag_386:\n        /* \"#utility.yul\":10218:10383   */\n      pop\n        /* \"#utility.yul\":10465:10469   */\n      0xa0\n        /* \"#utility.yul\":10458:10463   */\n      dup4\n        /* \"#utility.yul\":10454:10470   */\n      add\n        /* \"#utility.yul\":10448:10471   */\n      mload\n        /* \"#utility.yul\":10518:10521   */\n      dup5\n        /* \"#utility.yul\":10512:10516   */\n      dup3\n        /* \"#utility.yul\":10508:10522   */\n      sub\n        /* \"#utility.yul\":10501:10505   */\n      0xa0\n        /* \"#utility.yul\":10496:10499   */\n      dup7\n        /* \"#utility.yul\":10492:10506   */\n      add\n        /* \"#utility.yul\":10485:10523   */\n      mstore\n        /* \"#utility.yul\":10544:10617   */\n      tag_387\n        /* \"#utility.yul\":10612:10616   */\n      dup3\n        /* \"#utility.yul\":10598:10610   */\n      dup3\n        /* \"#utility.yul\":10544:10617   */\n      tag_243\n      jump\t// in\n    tag_387:\n        /* \"#utility.yul\":10536:10617   */\n      swap2\n      pop\n        /* \"#utility.yul\":10393:10628   */\n      pop\n        /* \"#utility.yul\":10645:10649   */\n      dup1\n        /* \"#utility.yul\":10638:10649   */\n      swap2\n      pop\n        /* \"#utility.yul\":9315:10655   */\n      pop\n        /* \"#utility.yul\":9189:10655   */\n      swap3\n      swap2\n      pop\n      pop\n      jump\t// out\n        /* \"#utility.yul\":10661:10941   */\n    tag_246:\n        /* \"#utility.yul\":10792:10802   */\n      0x00\n        /* \"#utility.yul\":10827:10935   */\n      tag_389\n        /* \"#utility.yul\":10931:10934   */\n      dup4\n        /* \"#utility.yul\":10923:10929   */\n      dup4\n        /* \"#utility.yul\":10827:10935   */\n      tag_245\n      jump\t// in\n    tag_389:\n        /* \"#utility.yul\":10813:10935   */\n      swap1\n      pop\n        /* \"#utility.yul\":10661:10941   */\n      swap3\n      swap2\n      pop\n      pop\n      jump\t// out\n        /* \"#utility.yul\":10947:11091   */\n    tag_247:\n        /* \"#utility.yul\":11048:11052   */\n      0x00\n        /* \"#utility.yul\":11080:11084   */\n      0x20\n        /* \"#utility.yul\":11075:11078   */\n      dup3\n        /* \"#utility.yul\":11071:11085   */\n      add\n        /* \"#utility.yul\":11063:11085   */\n      swap1\n      pop\n        /* \"#utility.yul\":10947:11091   */\n      swap2\n      swap1\n      pop\n      jump\t// out\n        /* \"#utility.yul\":11195:12354   */\n    tag_248:\n        /* \"#utility.yul\":11376:11379   */\n      0x00\n        /* \"#utility.yul\":11405:11490   */\n      tag_392\n        /* \"#utility.yul\":11484:11489   */\n      dup3\n        /* \"#utility.yul\":11405:11490   */\n      tag_238\n      jump\t// in\n    tag_392:\n        /* \"#utility.yul\":11506:11623   */\n      tag_393\n        /* \"#utility.yul\":11616:11622   */\n      dup2\n        /* \"#utility.yul\":11611:11614   */\n      dup6\n        /* \"#utility.yul\":11506:11623   */\n      tag_239\n      jump\t// in\n    tag_393:\n        /* \"#utility.yul\":11499:11623   */\n      swap4\n      pop\n        /* \"#utility.yul\":11649:11652   */\n      dup4\n        /* \"#utility.yul\":11694:11698   */\n      0x20\n        /* \"#utility.yul\":11686:11692   */\n      dup3\n        /* \"#utility.yul\":11682:11699   */\n      mul\n        /* \"#utility.yul\":11677:11680   */\n      dup6\n        /* \"#utility.yul\":11673:11700   */\n      add\n        /* \"#utility.yul\":11724:11811   */\n      tag_394\n        /* \"#utility.yul\":11805:11810   */\n      dup6\n        /* \"#utility.yul\":11724:11811   */\n      tag_240\n      jump\t// in\n    tag_394:\n        /* \"#utility.yul\":11834:11841   */\n      dup1\n        /* \"#utility.yul\":11865:11866   */\n      0x00\n        /* \"#utility.yul\":11850:12309   */\n    tag_395:\n        /* \"#utility.yul\":11875:11881   */\n      dup6\n        /* \"#utility.yul\":11872:11873   */\n      dup2\n        /* \"#utility.yul\":11869:11882   */\n      lt\n        /* \"#utility.yul\":11850:12309   */\n      iszero\n      tag_397\n      jumpi\n        /* \"#utility.yul\":11946:11955   */\n      dup5\n        /* \"#utility.yul\":11940:11944   */\n      dup5\n        /* \"#utility.yul\":11936:11956   */\n      sub\n        /* \"#utility.yul\":11931:11934   */\n      dup10\n        /* \"#utility.yul\":11924:11957   */\n      mstore\n        /* \"#utility.yul\":11997:12003   */\n      dup2\n        /* \"#utility.yul\":11991:12004   */\n      mload\n        /* \"#utility.yul\":12025:12151   */\n      tag_398\n        /* \"#utility.yul\":12146:12150   */\n      dup6\n        /* \"#utility.yul\":12131:12144   */\n      dup3\n        /* \"#utility.yul\":12025:12151   */\n      tag_246\n      jump\t// in\n    tag_398:\n        /* \"#utility.yul\":12017:12151   */\n      swap5\n      pop\n        /* \"#utility.yul\":12174:12265   */\n      tag_399\n        /* \"#utility.yul\":12258:12264   */\n      dup4\n        /* \"#utility.yul\":12174:12265   */\n      tag_247\n      jump\t// in\n    tag_399:\n        /* \"#utility.yul\":12164:12265   */\n      swap3\n      pop\n        /* \"#utility.yul\":12294:12298   */\n      0x20\n        /* \"#utility.yul\":12289:12292   */\n      dup11\n        /* \"#utility.yul\":12285:12299   */\n      add\n        /* \"#utility.yul\":12278:12299   */\n      swap10\n      pop\n        /* \"#utility.yul\":11910:12309   */\n      pop\n        /* \"#utility.yul\":11897:11898   */\n      0x01\n        /* \"#utility.yul\":11894:11895   */\n      dup2\n        /* \"#utility.yul\":11890:11899   */\n      add\n        /* \"#utility.yul\":11885:11899   */\n      swap1\n      pop\n        /* \"#utility.yul\":11850:12309   */\n      jump(tag_395)\n    tag_397:\n        /* \"#utility.yul\":11854:11868   */\n      pop\n        /* \"#utility.yul\":12325:12329   */\n      dup3\n        /* \"#utility.yul\":12318:12329   */\n      swap8\n      pop\n        /* \"#utility.yul\":12345:12348   */\n      dup8\n        /* \"#utility.yul\":12338:12348   */\n      swap6\n      pop\n        /* \"#utility.yul\":11381:12354   */\n      pop\n      pop\n      pop\n      pop\n      pop\n        /* \"#utility.yul\":11195:12354   */\n      swap3\n      swap2\n      pop\n      pop\n      jump\t// out\n        /* \"#utility.yul\":12360:12857   */\n    tag_34:\n        /* \"#utility.yul\":12565:12569   */\n      0x00\n        /* \"#utility.yul\":12603:12605   */\n      0x20\n        /* \"#utility.yul\":12592:12601   */\n      dup3\n        /* \"#utility.yul\":12588:12606   */\n      add\n        /* \"#utility.yul\":12580:12606   */\n      swap1\n      pop\n        /* \"#utility.yul\":12652:12661   */\n      dup2\n        /* \"#utility.yul\":12646:12650   */\n      dup2\n        /* \"#utility.yul\":12642:12662   */\n      sub\n        /* \"#utility.yul\":12638:12639   */\n      0x00\n        /* \"#utility.yul\":12627:12636   */\n      dup4\n        /* \"#utility.yul\":12623:12640   */\n      add\n        /* \"#utility.yul\":12616:12663   */\n      mstore\n        /* \"#utility.yul\":12680:12850   */\n      tag_401\n        /* \"#utility.yul\":12845:12849   */\n      dup2\n        /* \"#utility.yul\":12836:12842   */\n      dup5\n        /* \"#utility.yul\":12680:12850   */\n      tag_248\n      jump\t// in\n    tag_401:\n        /* \"#utility.yul\":12672:12850   */\n      swap1\n      pop\n        /* \"#utility.yul\":12360:12857   */\n      swap3\n      swap2\n      pop\n      pop\n      jump\t// out\n        /* \"#utility.yul\":12863:13192   */\n    tag_37:\n        /* \"#utility.yul\":12922:12928   */\n      0x00\n        /* \"#utility.yul\":12971:12973   */\n      0x20\n        /* \"#utility.yul\":12959:12968   */\n      dup3\n        /* \"#utility.yul\":12950:12957   */\n      dup5\n        /* \"#utility.yul\":12946:12969   */\n      sub\n        /* \"#utility.yul\":12942:12974   */\n      slt\n        /* \"#utility.yul\":12939:13058   */\n      iszero\n      tag_403\n      jumpi\n        /* \"#utility.yul\":12977:13056   */\n      tag_404\n      tag_212\n      jump\t// in\n    tag_404:\n        /* \"#utility.yul\":12939:13058   */\n    tag_403:\n        /* \"#utility.yul\":13097:13098   */\n      0x00\n        /* \"#utility.yul\":13122:13175   */\n      tag_405\n        /* \"#utility.yul\":13167:13174   */\n      dup5\n        /* \"#utility.yul\":13158:13164   */\n      dup3\n        /* \"#utility.yul\":13147:13156   */\n      dup6\n        /* \"#utility.yul\":13143:13165   */\n      add\n        /* \"#utility.yul\":13122:13175   */\n      tag_217\n      jump\t// in\n    tag_405:\n        /* \"#utility.yul\":13112:13175   */\n      swap2\n      pop\n        /* \"#utility.yul\":13068:13185   */\n      pop\n        /* \"#utility.yul\":12863:13192   */\n      swap3\n      swap2\n      pop\n      pop\n      jump\t// out\n        /* \"#utility.yul\":13292:14768   */\n    tag_249:\n        /* \"#utility.yul\":13423:13426   */\n      0x00\n        /* \"#utility.yul\":13459:13463   */\n      0xc0\n        /* \"#utility.yul\":13454:13457   */\n      dup4\n        /* \"#utility.yul\":13450:13464   */\n      add\n        /* \"#utility.yul\":13544:13548   */\n      0x00\n        /* \"#utility.yul\":13537:13542   */\n      dup4\n        /* \"#utility.yul\":13533:13549   */\n      add\n        /* \"#utility.yul\":13527:13550   */\n      mload\n        /* \"#utility.yul\":13563:13626   */\n      tag_407\n        /* \"#utility.yul\":13620:13624   */\n      0x00\n        /* \"#utility.yul\":13615:13618   */\n      dup7\n        /* \"#utility.yul\":13611:13625   */\n      add\n        /* \"#utility.yul\":13597:13609   */\n      dup3\n        /* \"#utility.yul\":13563:13626   */\n      tag_241\n      jump\t// in\n    tag_407:\n        /* \"#utility.yul\":13474:13636   */\n      pop\n        /* \"#utility.yul\":13724:13728   */\n      0x20\n        /* \"#utility.yul\":13717:13722   */\n      dup4\n        /* \"#utility.yul\":13713:13729   */\n      add\n        /* \"#utility.yul\":13707:13730   */\n      mload\n        /* \"#utility.yul\":13777:13780   */\n      dup5\n        /* \"#utility.yul\":13771:13775   */\n      dup3\n        /* \"#utility.yul\":13767:13781   */\n      sub\n        /* \"#utility.yul\":13760:13764   */\n      0x20\n        /* \"#utility.yul\":13755:13758   */\n      dup7\n        /* \"#utility.yul\":13751:13765   */\n      add\n        /* \"#utility.yul\":13744:13782   */\n      mstore\n        /* \"#utility.yul\":13803:13876   */\n      tag_408\n        /* \"#utility.yul\":13871:13875   */\n      dup3\n        /* \"#utility.yul\":13857:13869   */\n      dup3\n        /* \"#utility.yul\":13803:13876   */\n      tag_243\n      jump\t// in\n    tag_408:\n        /* \"#utility.yul\":13795:13876   */\n      swap2\n      pop\n        /* \"#utility.yul\":13646:13887   */\n      pop\n        /* \"#utility.yul\":13974:13978   */\n      0x40\n        /* \"#utility.yul\":13967:13972   */\n      dup4\n        /* \"#utility.yul\":13963:13979   */\n      add\n        /* \"#utility.yul\":13957:13980   */\n      mload\n        /* \"#utility.yul\":14027:14030   */\n      dup5\n        /* \"#utility.yul\":14021:14025   */\n      dup3\n        /* \"#utility.yul\":14017:14031   */\n      sub\n        /* \"#utility.yul\":14010:14014   */\n      0x40\n        /* \"#utility.yul\":14005:14008   */\n      dup7\n        /* \"#utility.yul\":14001:14015   */\n      add\n        /* \"#utility.yul\":13994:14032   */\n      mstore\n        /* \"#utility.yul\":14053:14126   */\n      tag_409\n        /* \"#utility.yul\":14121:14125   */\n      dup3\n        /* \"#utility.yul\":14107:14119   */\n      dup3\n        /* \"#utility.yul\":14053:14126   */\n      tag_243\n      jump\t// in\n    tag_409:\n        /* \"#utility.yul\":14045:14126   */\n      swap2\n      pop\n        /* \"#utility.yul\":13897:14137   */\n      pop\n        /* \"#utility.yul\":14229:14233   */\n      0x60\n        /* \"#utility.yul\":14222:14227   */\n      dup4\n        /* \"#utility.yul\":14218:14234   */\n      add\n        /* \"#utility.yul\":14212:14235   */\n      mload\n        /* \"#utility.yul\":14248:14311   */\n      tag_410\n        /* \"#utility.yul\":14305:14309   */\n      0x60\n        /* \"#utility.yul\":14300:14303   */\n      dup7\n        /* \"#utility.yul\":14296:14310   */\n      add\n        /* \"#utility.yul\":14282:14294   */\n      dup3\n        /* \"#utility.yul\":14248:14311   */\n      tag_244\n      jump\t// in\n    tag_410:\n        /* \"#utility.yul\":14147:14321   */\n      pop\n        /* \"#utility.yul\":14404:14408   */\n      0x80\n        /* \"#utility.yul\":14397:14402   */\n      dup4\n        /* \"#utility.yul\":14393:14409   */\n      add\n        /* \"#utility.yul\":14387:14410   */\n      mload\n        /* \"#utility.yul\":14423:14486   */\n      tag_411\n        /* \"#utility.yul\":14480:14484   */\n      0x80\n        /* \"#utility.yul\":14475:14478   */\n      dup7\n        /* \"#utility.yul\":14471:14485   */\n      add\n        /* \"#utility.yul\":14457:14469   */\n      dup3\n        /* \"#utility.yul\":14423:14486   */\n      tag_241\n      jump\t// in\n    tag_411:\n        /* \"#utility.yul\":14331:14496   */\n      pop\n        /* \"#utility.yul\":14578:14582   */\n      0xa0\n        /* \"#utility.yul\":14571:14576   */\n      dup4\n        /* \"#utility.yul\":14567:14583   */\n      add\n        /* \"#utility.yul\":14561:14584   */\n      mload\n        /* \"#utility.yul\":14631:14634   */\n      dup5\n        /* \"#utility.yul\":14625:14629   */\n      dup3\n        /* \"#utility.yul\":14621:14635   */\n      sub\n        /* \"#utility.yul\":14614:14618   */\n      0xa0\n        /* \"#utility.yul\":14609:14612   */\n      dup7\n        /* \"#utility.yul\":14605:14619   */\n      add\n        /* \"#utility.yul\":14598:14636   */\n      mstore\n        /* \"#utility.yul\":14657:14730   */\n      tag_412\n        /* \"#utility.yul\":14725:14729   */\n      dup3\n        /* \"#utility.yul\":14711:14723   */\n      dup3\n        /* \"#utility.yul\":14657:14730   */\n      tag_243\n      jump\t// in\n    tag_412:\n        /* \"#utility.yul\":14649:14730   */\n      swap2\n      pop\n        /* \"#utility.yul\":14506:14741   */\n      pop\n        /* \"#utility.yul\":14758:14762   */\n      dup1\n        /* \"#utility.yul\":14751:14762   */\n      swap2\n      pop\n        /* \"#utility.yul\":13428:14768   */\n      pop\n        /* \"#utility.yul\":13292:14768   */\n      swap3\n      swap2\n      pop\n      pop\n      jump\t// out\n        /* \"#utility.yul\":14774:15171   */\n    tag_46:\n        /* \"#utility.yul\":14929:14933   */\n      0x00\n        /* \"#utility.yul\":14967:14969   */\n      0x20\n        /* \"#utility.yul\":14956:14965   */\n      dup3\n        /* \"#utility.yul\":14952:14970   */\n      add\n        /* \"#utility.yul\":14944:14970   */\n      swap1\n      pop\n        /* \"#utility.yul\":15016:15025   */\n      dup2\n        /* \"#utility.yul\":15010:15014   */\n      dup2\n        /* \"#utility.yul\":15006:15026   */\n      sub\n        /* \"#utility.yul\":15002:15003   */\n      0x00\n        /* \"#utility.yul\":14991:15000   */\n      dup4\n        /* \"#utility.yul\":14987:15004   */\n      add\n        /* \"#utility.yul\":14980:15027   */\n      mstore\n        /* \"#utility.yul\":15044:15164   */\n      tag_414\n        /* \"#utility.yul\":15159:15163   */\n      dup2\n        /* \"#utility.yul\":15150:15156   */\n      dup5\n        /* \"#utility.yul\":15044:15164   */\n      tag_249\n      jump\t// in\n    tag_414:\n        /* \"#utility.yul\":15036:15164   */\n      swap1\n      pop\n        /* \"#utility.yul\":14774:15171   */\n      swap3\n      swap2\n      pop\n      pop\n      jump\t// out\n        /* \"#utility.yul\":15177:16774   */\n    tag_49:\n        /* \"#utility.yul\":15311:15317   */\n      0x00\n        /* \"#utility.yul\":15319:15325   */\n      dup1\n        /* \"#utility.yul\":15327:15333   */\n      0x00\n        /* \"#utility.yul\":15335:15341   */\n      dup1\n        /* \"#utility.yul\":15343:15349   */\n      0x00\n        /* \"#utility.yul\":15351:15357   */\n      dup1\n        /* \"#utility.yul\":15400:15403   */\n      0xc0\n        /* \"#utility.yul\":15388:15397   */\n      dup8\n        /* \"#utility.yul\":15379:15386   */\n      dup10\n        /* \"#utility.yul\":15375:15398   */\n      sub\n        /* \"#utility.yul\":15371:15404   */\n      slt\n        /* \"#utility.yul\":15368:15488   */\n      iszero\n      tag_416\n      jumpi\n        /* \"#utility.yul\":15407:15486   */\n      tag_417\n      tag_212\n      jump\t// in\n    tag_417:\n        /* \"#utility.yul\":15368:15488   */\n    tag_416:\n        /* \"#utility.yul\":15527:15528   */\n      0x00\n        /* \"#utility.yul\":15552:15605   */\n      tag_418\n        /* \"#utility.yul\":15597:15604   */\n      dup10\n        /* \"#utility.yul\":15588:15594   */\n      dup3\n        /* \"#utility.yul\":15577:15586   */\n      dup11\n        /* \"#utility.yul\":15573:15595   */\n      add\n        /* \"#utility.yul\":15552:15605   */\n      tag_232\n      jump\t// in\n    tag_418:\n        /* \"#utility.yul\":15542:15605   */\n      swap7\n      pop\n        /* \"#utility.yul\":15498:15615   */\n      pop\n        /* \"#utility.yul\":15682:15684   */\n      0x20\n        /* \"#utility.yul\":15671:15680   */\n      dup8\n        /* \"#utility.yul\":15667:15685   */\n      add\n        /* \"#utility.yul\":15654:15686   */\n      calldataload\n        /* \"#utility.yul\":15713:15731   */\n      0xffffffffffffffff\n        /* \"#utility.yul\":15705:15711   */\n      dup2\n        /* \"#utility.yul\":15702:15732   */\n      gt\n        /* \"#utility.yul\":15699:15816   */\n      iszero\n      tag_419\n      jumpi\n        /* \"#utility.yul\":15735:15814   */\n      tag_420\n      tag_213\n      jump\t// in\n    tag_420:\n        /* \"#utility.yul\":15699:15816   */\n    tag_419:\n        /* \"#utility.yul\":15840:15903   */\n      tag_421\n        /* \"#utility.yul\":15895:15902   */\n      dup10\n        /* \"#utility.yul\":15886:15892   */\n      dup3\n        /* \"#utility.yul\":15875:15884   */\n      dup11\n        /* \"#utility.yul\":15871:15893   */\n      add\n        /* \"#utility.yul\":15840:15903   */\n      tag_226\n      jump\t// in\n    tag_421:\n        /* \"#utility.yul\":15830:15903   */\n      swap6\n      pop\n        /* \"#utility.yul\":15625:15913   */\n      pop\n        /* \"#utility.yul\":15980:15982   */\n      0x40\n        /* \"#utility.yul\":15969:15978   */\n      dup8\n        /* \"#utility.yul\":15965:15983   */\n      add\n        /* \"#utility.yul\":15952:15984   */\n      calldataload\n        /* \"#utility.yul\":16011:16029   */\n      0xffffffffffffffff\n        /* \"#utility.yul\":16003:16009   */\n      dup2\n        /* \"#utility.yul\":16000:16030   */\n      gt\n        /* \"#utility.yul\":15997:16114   */\n      iszero\n      tag_422\n      jumpi\n        /* \"#utility.yul\":16033:16112   */\n      tag_423\n      tag_213\n      jump\t// in\n    tag_423:\n        /* \"#utility.yul\":15997:16114   */\n    tag_422:\n        /* \"#utility.yul\":16138:16201   */\n      tag_424\n        /* \"#utility.yul\":16193:16200   */\n      dup10\n        /* \"#utility.yul\":16184:16190   */\n      dup3\n        /* \"#utility.yul\":16173:16182   */\n      dup11\n        /* \"#utility.yul\":16169:16191   */\n      add\n        /* \"#utility.yul\":16138:16201   */\n      tag_226\n      jump\t// in\n    tag_424:\n        /* \"#utility.yul\":16128:16201   */\n      swap5\n      pop\n        /* \"#utility.yul\":15923:16211   */\n      pop\n        /* \"#utility.yul\":16250:16252   */\n      0x60\n        /* \"#utility.yul\":16276:16329   */\n      tag_425\n        /* \"#utility.yul\":16321:16328   */\n      dup10\n        /* \"#utility.yul\":16312:16318   */\n      dup3\n        /* \"#utility.yul\":16301:16310   */\n      dup11\n        /* \"#utility.yul\":16297:16319   */\n      add\n        /* \"#utility.yul\":16276:16329   */\n      tag_217\n      jump\t// in\n    tag_425:\n        /* \"#utility.yul\":16266:16329   */\n      swap4\n      pop\n        /* \"#utility.yul\":16221:16339   */\n      pop\n        /* \"#utility.yul\":16378:16381   */\n      0x80\n        /* \"#utility.yul\":16405:16458   */\n      tag_426\n        /* \"#utility.yul\":16450:16457   */\n      dup10\n        /* \"#utility.yul\":16441:16447   */\n      dup3\n        /* \"#utility.yul\":16430:16439   */\n      dup11\n        /* \"#utility.yul\":16426:16448   */\n      add\n        /* \"#utility.yul\":16405:16458   */\n      tag_232\n      jump\t// in\n    tag_426:\n        /* \"#utility.yul\":16395:16458   */\n      swap3\n      pop\n        /* \"#utility.yul\":16349:16468   */\n      pop\n        /* \"#utility.yul\":16535:16538   */\n      0xa0\n        /* \"#utility.yul\":16524:16533   */\n      dup8\n        /* \"#utility.yul\":16520:16539   */\n      add\n        /* \"#utility.yul\":16507:16540   */\n      calldataload\n        /* \"#utility.yul\":16567:16585   */\n      0xffffffffffffffff\n        /* \"#utility.yul\":16559:16565   */\n      dup2\n        /* \"#utility.yul\":16556:16586   */\n      gt\n        /* \"#utility.yul\":16553:16670   */\n      iszero\n      tag_427\n      jumpi\n        /* \"#utility.yul\":16589:16668   */\n      tag_428\n      tag_213\n      jump\t// in\n    tag_428:\n        /* \"#utility.yul\":16553:16670   */\n    tag_427:\n        /* \"#utility.yul\":16694:16757   */\n      tag_429\n        /* \"#utility.yul\":16749:16756   */\n      dup10\n        /* \"#utility.yul\":16740:16746   */\n      dup3\n        /* \"#utility.yul\":16729:16738   */\n      dup11\n        /* \"#utility.yul\":16725:16747   */\n      add\n        /* \"#utility.yul\":16694:16757   */\n      tag_226\n      jump\t// in\n    tag_429:\n        /* \"#utility.yul\":16684:16757   */\n      swap2\n      pop\n        /* \"#utility.yul\":16478:16767   */\n      pop\n        /* \"#utility.yul\":15177:16774   */\n      swap3\n      swap6\n      pop\n      swap3\n      swap6\n      pop\n      swap3\n      swap6\n      jump\t// out\n        /* \"#utility.yul\":16780:16874   */\n    tag_250:\n        /* \"#utility.yul\":16813:16821   */\n      0x00\n        /* \"#utility.yul\":16861:16866   */\n      dup2\n        /* \"#utility.yul\":16857:16859   */\n      0x60\n        /* \"#utility.yul\":16853:16867   */\n      shl\n        /* \"#utility.yul\":16832:16867   */\n      swap1\n      pop\n        /* \"#utility.yul\":16780:16874   */\n      swap2\n      swap1\n      pop\n      jump\t// out\n        /* \"#utility.yul\":16880:16974   */\n    tag_251:\n        /* \"#utility.yul\":16919:16926   */\n      0x00\n        /* \"#utility.yul\":16948:16968   */\n      tag_432\n        /* \"#utility.yul\":16962:16967   */\n      dup3\n        /* \"#utility.yul\":16948:16968   */\n      tag_250\n      jump\t// in\n    tag_432:\n        /* \"#utility.yul\":16937:16968   */\n      swap1\n      pop\n        /* \"#utility.yul\":16880:16974   */\n      swap2\n      swap1\n      pop\n      jump\t// out\n        /* \"#utility.yul\":16980:17080   */\n    tag_252:\n        /* \"#utility.yul\":17019:17026   */\n      0x00\n        /* \"#utility.yul\":17048:17074   */\n      tag_434\n        /* \"#utility.yul\":17068:17073   */\n      dup3\n        /* \"#utility.yul\":17048:17074   */\n      tag_251\n      jump\t// in\n    tag_434:\n        /* \"#utility.yul\":17037:17074   */\n      swap1\n      pop\n        /* \"#utility.yul\":16980:17080   */\n      swap2\n      swap1\n      pop\n      jump\t// out\n        /* \"#utility.yul\":17086:17243   */\n    tag_253:\n        /* \"#utility.yul\":17191:17236   */\n      tag_436\n        /* \"#utility.yul\":17211:17235   */\n      tag_437\n        /* \"#utility.yul\":17229:17234   */\n      dup3\n        /* \"#utility.yul\":17211:17235   */\n      tag_215\n      jump\t// in\n    tag_437:\n        /* \"#utility.yul\":17191:17236   */\n      tag_252\n      jump\t// in\n    tag_436:\n        /* \"#utility.yul\":17186:17189   */\n      dup3\n        /* \"#utility.yul\":17179:17237   */\n      mstore\n        /* \"#utility.yul\":17086:17243   */\n      pop\n      pop\n      jump\t// out\n        /* \"#utility.yul\":17249:17505   */\n    tag_59:\n        /* \"#utility.yul\":17361:17364   */\n      0x00\n        /* \"#utility.yul\":17376:17451   */\n      tag_439\n        /* \"#utility.yul\":17447:17450   */\n      dup3\n        /* \"#utility.yul\":17438:17444   */\n      dup5\n        /* \"#utility.yul\":17376:17451   */\n      tag_253\n      jump\t// in\n    tag_439:\n        /* \"#utility.yul\":17476:17478   */\n      0x14\n        /* \"#utility.yul\":17471:17474   */\n      dup3\n        /* \"#utility.yul\":17467:17479   */\n      add\n        /* \"#utility.yul\":17460:17479   */\n      swap2\n      pop\n        /* \"#utility.yul\":17496:17499   */\n      dup2\n        /* \"#utility.yul\":17489:17499   */\n      swap1\n      pop\n        /* \"#utility.yul\":17249:17505   */\n      swap3\n      swap2\n      pop\n      pop\n      jump\t// out\n        /* \"#utility.yul\":17511:17691   */\n    tag_62:\n        /* \"#utility.yul\":17559:17636   */\n      0x4e487b7100000000000000000000000000000000000000000000000000000000\n        /* \"#utility.yul\":17556:17557   */\n      0x00\n        /* \"#utility.yul\":17549:17637   */\n      mstore\n        /* \"#utility.yul\":17656:17660   */\n      0x32\n        /* \"#utility.yul\":17653:17654   */\n      0x04\n        /* \"#utility.yul\":17646:17661   */\n      mstore\n        /* \"#utility.yul\":17680:17684   */\n      0x24\n        /* \"#utility.yul\":17677:17678   */\n      0x00\n        /* \"#utility.yul\":17670:17685   */\n      revert\n        /* \"#utility.yul\":17697:17845   */\n    tag_254:\n        /* \"#utility.yul\":17799:17810   */\n      0x00\n        /* \"#utility.yul\":17836:17839   */\n      dup2\n        /* \"#utility.yul\":17821:17839   */\n      swap1\n      pop\n        /* \"#utility.yul\":17697:17845   */\n      swap3\n      swap2\n      pop\n      pop\n      jump\t// out\n        /* \"#utility.yul\":17851:18241   */\n    tag_255:\n        /* \"#utility.yul\":17957:17960   */\n      0x00\n        /* \"#utility.yul\":17985:18024   */\n      tag_443\n        /* \"#utility.yul\":18018:18023   */\n      dup3\n        /* \"#utility.yul\":17985:18024   */\n      tag_234\n      jump\t// in\n    tag_443:\n        /* \"#utility.yul\":18040:18129   */\n      tag_444\n        /* \"#utility.yul\":18122:18128   */\n      dup2\n        /* \"#utility.yul\":18117:18120   */\n      dup6\n        /* \"#utility.yul\":18040:18129   */\n      tag_254\n      jump\t// in\n    tag_444:\n        /* \"#utility.yul\":18033:18129   */\n      swap4\n      pop\n        /* \"#utility.yul\":18138:18203   */\n      tag_445\n        /* \"#utility.yul\":18196:18202   */\n      dup2\n        /* \"#utility.yul\":18191:18194   */\n      dup6\n        /* \"#utility.yul\":18184:18188   */\n      0x20\n        /* \"#utility.yul\":18177:18182   */\n      dup7\n        /* \"#utility.yul\":18173:18189   */\n      add\n        /* \"#utility.yul\":18138:18203   */\n      tag_236\n      jump\t// in\n    tag_445:\n        /* \"#utility.yul\":18228:18234   */\n      dup1\n        /* \"#utility.yul\":18223:18226   */\n      dup5\n        /* \"#utility.yul\":18219:18235   */\n      add\n        /* \"#utility.yul\":18212:18235   */\n      swap2\n      pop\n        /* \"#utility.yul\":17961:18241   */\n      pop\n        /* \"#utility.yul\":17851:18241   */\n      swap3\n      swap2\n      pop\n      pop\n      jump\t// out\n        /* \"#utility.yul\":18247:18522   */\n    tag_67:\n        /* \"#utility.yul\":18379:18382   */\n      0x00\n        /* \"#utility.yul\":18401:18496   */\n      tag_447\n        /* \"#utility.yul\":18492:18495   */\n      dup3\n        /* \"#utility.yul\":18483:18489   */\n      dup5\n        /* \"#utility.yul\":18401:18496   */\n      tag_255\n      jump\t// in\n    tag_447:\n        /* \"#utility.yul\":18394:18496   */\n      swap2\n      pop\n        /* \"#utility.yul\":18513:18516   */\n      dup2\n        /* \"#utility.yul\":18506:18516   */\n      swap1\n      pop\n        /* \"#utility.yul\":18247:18522   */\n      swap3\n      swap2\n      pop\n      pop\n      jump\t// out\n        /* \"#utility.yul\":18528:18708   */\n    tag_256:\n        /* \"#utility.yul\":18576:18653   */\n      0x4e487b7100000000000000000000000000000000000000000000000000000000\n        /* \"#utility.yul\":18573:18574   */\n      0x00\n        /* \"#utility.yul\":18566:18654   */\n      mstore\n        /* \"#utility.yul\":18673:18677   */\n      0x22\n        /* \"#utility.yul\":18670:18671   */\n      0x04\n        /* \"#utility.yul\":18663:18678   */\n      mstore\n        /* \"#utility.yul\":18697:18701   */\n      0x24\n        /* \"#utility.yul\":18694:18695   */\n      0x00\n        /* \"#utility.yul\":18687:18702   */\n      revert\n        /* \"#utility.yul\":18714:19034   */\n    tag_77:\n        /* \"#utility.yul\":18758:18764   */\n      0x00\n        /* \"#utility.yul\":18795:18796   */\n      0x02\n        /* \"#utility.yul\":18789:18793   */\n      dup3\n        /* \"#utility.yul\":18785:18797   */\n      div\n        /* \"#utility.yul\":18775:18797   */\n      swap1\n      pop\n        /* \"#utility.yul\":18842:18843   */\n      0x01\n        /* \"#utility.yul\":18836:18840   */\n      dup3\n        /* \"#utility.yul\":18832:18844   */\n      and\n        /* \"#utility.yul\":18863:18881   */\n      dup1\n        /* \"#utility.yul\":18853:18934   */\n      tag_450\n      jumpi\n        /* \"#utility.yul\":18919:18923   */\n      0x7f\n        /* \"#utility.yul\":18911:18917   */\n      dup3\n        /* \"#utility.yul\":18907:18924   */\n      and\n        /* \"#utility.yul\":18897:18924   */\n      swap2\n      pop\n        /* \"#utility.yul\":18853:18934   */\n    tag_450:\n        /* \"#utility.yul\":18981:18983   */\n      0x20\n        /* \"#utility.yul\":18973:18979   */\n      dup3\n        /* \"#utility.yul\":18970:18984   */\n      lt\n        /* \"#utility.yul\":18950:18968   */\n      dup2\n        /* \"#utility.yul\":18947:18985   */\n      sub\n        /* \"#utility.yul\":18944:19028   */\n      tag_451\n      jumpi\n        /* \"#utility.yul\":19000:19018   */\n      tag_452\n      tag_256\n      jump\t// in\n    tag_452:\n        /* \"#utility.yul\":18944:19028   */\n    tag_451:\n        /* \"#utility.yul\":18765:19034   */\n      pop\n        /* \"#utility.yul\":18714:19034   */\n      swap2\n      swap1\n      pop\n      jump\t// out\n        /* \"#utility.yul\":19040:19181   */\n    tag_257:\n        /* \"#utility.yul\":19089:19093   */\n      0x00\n        /* \"#utility.yul\":19112:19115   */\n      dup2\n        /* \"#utility.yul\":19104:19115   */\n      swap1\n      pop\n        /* \"#utility.yul\":19135:19138   */\n      dup2\n        /* \"#utility.yul\":19132:19133   */\n      0x00\n        /* \"#utility.yul\":19125:19139   */\n      mstore\n        /* \"#utility.yul\":19169:19173   */\n      0x20\n        /* \"#utility.yul\":19166:19167   */\n      0x00\n        /* \"#utility.yul\":19156:19174   */\n      keccak256\n        /* \"#utility.yul\":19148:19174   */\n      swap1\n      pop\n        /* \"#utility.yul\":19040:19181   */\n      swap2\n      swap1\n      pop\n      jump\t// out\n        /* \"#utility.yul\":19211:20085   */\n    tag_258:\n        /* \"#utility.yul\":19314:19317   */\n      0x00\n        /* \"#utility.yul\":19351:19356   */\n      dup2\n        /* \"#utility.yul\":19345:19357   */\n      sload\n        /* \"#utility.yul\":19380:19416   */\n      tag_455\n        /* \"#utility.yul\":19406:19415   */\n      dup2\n        /* \"#utility.yul\":19380:19416   */\n      tag_77\n      jump\t// in\n    tag_455:\n        /* \"#utility.yul\":19432:19521   */\n      tag_456\n        /* \"#utility.yul\":19514:19520   */\n      dup2\n        /* \"#utility.yul\":19509:19512   */\n      dup7\n        /* \"#utility.yul\":19432:19521   */\n      tag_254\n      jump\t// in\n    tag_456:\n        /* \"#utility.yul\":19425:19521   */\n      swap5\n      pop\n        /* \"#utility.yul\":19552:19553   */\n      0x01\n        /* \"#utility.yul\":19541:19550   */\n      dup3\n        /* \"#utility.yul\":19537:19554   */\n      and\n        /* \"#utility.yul\":19568:19569   */\n      0x00\n        /* \"#utility.yul\":19563:19729   */\n      dup2\n      eq\n      tag_458\n      jumpi\n        /* \"#utility.yul\":19743:19744   */\n      0x01\n        /* \"#utility.yul\":19738:20079   */\n      dup2\n      eq\n      tag_459\n      jumpi\n        /* \"#utility.yul\":19530:20079   */\n      jump(tag_457)\n        /* \"#utility.yul\":19563:19729   */\n    tag_458:\n        /* \"#utility.yul\":19647:19651   */\n      0xff\n        /* \"#utility.yul\":19643:19652   */\n      not\n        /* \"#utility.yul\":19632:19641   */\n      dup4\n        /* \"#utility.yul\":19628:19653   */\n      and\n        /* \"#utility.yul\":19623:19626   */\n      dup7\n        /* \"#utility.yul\":19616:19654   */\n      mstore\n        /* \"#utility.yul\":19709:19715   */\n      dup2\n        /* \"#utility.yul\":19702:19716   */\n      iszero\n        /* \"#utility.yul\":19695:19717   */\n      iszero\n        /* \"#utility.yul\":19687:19693   */\n      dup3\n        /* \"#utility.yul\":19683:19718   */\n      mul\n        /* \"#utility.yul\":19678:19681   */\n      dup7\n        /* \"#utility.yul\":19674:19719   */\n      add\n        /* \"#utility.yul\":19667:19719   */\n      swap4\n      pop\n        /* \"#utility.yul\":19563:19729   */\n      jump(tag_457)\n        /* \"#utility.yul\":19738:20079   */\n    tag_459:\n        /* \"#utility.yul\":19805:19843   */\n      tag_460\n        /* \"#utility.yul\":19837:19842   */\n      dup6\n        /* \"#utility.yul\":19805:19843   */\n      tag_257\n      jump\t// in\n    tag_460:\n        /* \"#utility.yul\":19865:19866   */\n      0x00\n        /* \"#utility.yul\":19879:20033   */\n    tag_461:\n        /* \"#utility.yul\":19893:19899   */\n      dup4\n        /* \"#utility.yul\":19890:19891   */\n      dup2\n        /* \"#utility.yul\":19887:19900   */\n      lt\n        /* \"#utility.yul\":19879:20033   */\n      iszero\n      tag_463\n      jumpi\n        /* \"#utility.yul\":19967:19974   */\n      dup2\n        /* \"#utility.yul\":19961:19975   */\n      sload\n        /* \"#utility.yul\":19957:19958   */\n      dup2\n        /* \"#utility.yul\":19952:19955   */\n      dup10\n        /* \"#utility.yul\":19948:19959   */\n      add\n        /* \"#utility.yul\":19941:19976   */\n      mstore\n        /* \"#utility.yul\":20017:20018   */\n      0x01\n        /* \"#utility.yul\":20008:20015   */\n      dup3\n        /* \"#utility.yul\":20004:20019   */\n      add\n        /* \"#utility.yul\":19993:20019   */\n      swap2\n      pop\n        /* \"#utility.yul\":19915:19919   */\n      0x20\n        /* \"#utility.yul\":19912:19913   */\n      dup2\n        /* \"#utility.yul\":19908:19920   */\n      add\n        /* \"#utility.yul\":19903:19920   */\n      swap1\n      pop\n        /* \"#utility.yul\":19879:20033   */\n      jump(tag_461)\n    tag_463:\n        /* \"#utility.yul\":20062:20068   */\n      dup4\n        /* \"#utility.yul\":20057:20060   */\n      dup9\n        /* \"#utility.yul\":20053:20069   */\n      add\n        /* \"#utility.yul\":20046:20069   */\n      swap6\n      pop\n        /* \"#utility.yul\":19745:20079   */\n      pop\n      pop\n        /* \"#utility.yul\":19530:20079   */\n    tag_457:\n      pop\n        /* \"#utility.yul\":19318:20085   */\n      pop\n      pop\n        /* \"#utility.yul\":19211:20085   */\n      swap3\n      swap2\n      pop\n      pop\n      jump\t// out\n        /* \"#utility.yul\":20091:20360   */\n    tag_72:\n        /* \"#utility.yul\":20220:20223   */\n      0x00\n        /* \"#utility.yul\":20242:20334   */\n      tag_465\n        /* \"#utility.yul\":20330:20333   */\n      dup3\n        /* \"#utility.yul\":20321:20327   */\n      dup5\n        /* \"#utility.yul\":20242:20334   */\n      tag_258\n      jump\t// in\n    tag_465:\n        /* \"#utility.yul\":20235:20334   */\n      swap2\n      pop\n        /* \"#utility.yul\":20351:20354   */\n      dup2\n        /* \"#utility.yul\":20344:20354   */\n      swap1\n      pop\n        /* \"#utility.yul\":20091:20360   */\n      swap3\n      swap2\n      pop\n      pop\n      jump\t// out\n        /* \"#utility.yul\":20366:20546   */\n    tag_259:\n        /* \"#utility.yul\":20414:20491   */\n      0x4e487b7100000000000000000000000000000000000000000000000000000000\n        /* \"#utility.yul\":20411:20412   */\n      0x00\n        /* \"#utility.yul\":20404:20492   */\n      mstore\n        /* \"#utility.yul\":20511:20515   */\n      0x11\n        /* \"#utility.yul\":20508:20509   */\n      0x04\n        /* \"#utility.yul\":20501:20516   */\n      mstore\n        /* \"#utility.yul\":20535:20539   */\n      0x24\n        /* \"#utility.yul\":20532:20533   */\n      0x00\n        /* \"#utility.yul\":20525:20540   */\n      revert\n        /* \"#utility.yul\":20552:20785   */\n    tag_130:\n        /* \"#utility.yul\":20591:20594   */\n      0x00\n        /* \"#utility.yul\":20614:20638   */\n      tag_468\n        /* \"#utility.yul\":20632:20637   */\n      dup3\n        /* \"#utility.yul\":20614:20638   */\n      tag_230\n      jump\t// in\n    tag_468:\n        /* \"#utility.yul\":20605:20638   */\n      swap2\n      pop\n        /* \"#utility.yul\":20660:20726   */\n      0xffffffffffffffffffffffffffffffffffffffffffffffffffffffffffffffff\n        /* \"#utility.yul\":20653:20658   */\n      dup3\n        /* \"#utility.yul\":20650:20727   */\n      sub\n        /* \"#utility.yul\":20647:20750   */\n      tag_469\n      jumpi\n        /* \"#utility.yul\":20730:20748   */\n      tag_470\n      tag_259\n      jump\t// in\n    tag_470:\n        /* \"#utility.yul\":20647:20750   */\n    tag_469:\n        /* \"#utility.yul\":20777:20778   */\n      0x01\n        /* \"#utility.yul\":20770:20775   */\n      dup3\n        /* \"#utility.yul\":20766:20779   */\n      add\n        /* \"#utility.yul\":20759:20779   */\n      swap1\n      pop\n        /* \"#utility.yul\":20552:20785   */\n      swap2\n      swap1\n      pop\n      jump\t// out\n        /* \"#utility.yul\":20791:21019   */\n    tag_260:\n        /* \"#utility.yul\":20931:20965   */\n      0x4f6e6c792063616d706169676e20636f6e74726163742063616c6c2074686973\n        /* \"#utility.yul\":20927:20928   */\n      0x00\n        /* \"#utility.yul\":20919:20925   */\n      dup3\n        /* \"#utility.yul\":20915:20929   */\n      add\n        /* \"#utility.yul\":20908:20966   */\n      mstore\n        /* \"#utility.yul\":21000:21011   */\n      0x2066756e6374696f6e0000000000000000000000000000000000000000000000\n        /* \"#utility.yul\":20995:20997   */\n      0x20\n        /* \"#utility.yul\":20987:20993   */\n      dup3\n        /* \"#utility.yul\":20983:20998   */\n      add\n        /* \"#utility.yul\":20976:21012   */\n      mstore\n        /* \"#utility.yul\":20791:21019   */\n      pop\n      jump\t// out\n        /* \"#utility.yul\":21025:21391   */\n    tag_261:\n        /* \"#utility.yul\":21167:21170   */\n      0x00\n        /* \"#utility.yul\":21188:21255   */\n      tag_473\n        /* \"#utility.yul\":21252:21254   */\n      0x29\n        /* \"#utility.yul\":21247:21250   */\n      dup4\n        /* \"#utility.yul\":21188:21255   */\n      tag_235\n      jump\t// in\n    tag_473:\n        /* \"#utility.yul\":21181:21255   */\n      swap2\n      pop\n        /* \"#utility.yul\":21264:21357   */\n      tag_474\n        /* \"#utility.yul\":21353:21356   */\n      dup3\n        /* \"#utility.yul\":21264:21357   */\n      tag_260\n      jump\t// in\n    tag_474:\n        /* \"#utility.yul\":21382:21384   */\n      0x40\n        /* \"#utility.yul\":21377:21380   */\n      dup3\n        /* \"#utility.yul\":21373:21385   */\n      add\n        /* \"#utility.yul\":21366:21385   */\n      swap1\n      pop\n        /* \"#utility.yul\":21025:21391   */\n      swap2\n      swap1\n      pop\n      jump\t// out\n        /* \"#utility.yul\":21397:21816   */\n    tag_136:\n        /* \"#utility.yul\":21563:21567   */\n      0x00\n        /* \"#utility.yul\":21601:21603   */\n      0x20\n        /* \"#utility.yul\":21590:21599   */\n      dup3\n        /* \"#utility.yul\":21586:21604   */\n      add\n        /* \"#utility.yul\":21578:21604   */\n      swap1\n      pop\n        /* \"#utility.yul\":21650:21659   */\n      dup2\n        /* \"#utility.yul\":21644:21648   */\n      dup2\n        /* \"#utility.yul\":21640:21660   */\n      sub\n        /* \"#utility.yul\":21636:21637   */\n      0x00\n        /* \"#utility.yul\":21625:21634   */\n      dup4\n        /* \"#utility.yul\":21621:21638   */\n      add\n        /* \"#utility.yul\":21614:21661   */\n      mstore\n        /* \"#utility.yul\":21678:21809   */\n      tag_476\n        /* \"#utility.yul\":21804:21808   */\n      dup2\n        /* \"#utility.yul\":21678:21809   */\n      tag_261\n      jump\t// in\n    tag_476:\n        /* \"#utility.yul\":21670:21809   */\n      swap1\n      pop\n        /* \"#utility.yul\":21397:21816   */\n      swap2\n      swap1\n      pop\n      jump\t// out\n        /* \"#utility.yul\":21822:21981   */\n    tag_262:\n        /* \"#utility.yul\":21962:21973   */\n      0x4e6f7420666f756e640000000000000000000000000000000000000000000000\n        /* \"#utility.yul\":21958:21959   */\n      0x00\n        /* \"#utility.yul\":21950:21956   */\n      dup3\n        /* \"#utility.yul\":21946:21960   */\n      add\n        /* \"#utility.yul\":21939:21974   */\n      mstore\n        /* \"#utility.yul\":21822:21981   */\n      pop\n      jump\t// out\n        /* \"#utility.yul\":21987:22352   */\n    tag_263:\n        /* \"#utility.yul\":22129:22132   */\n      0x00\n        /* \"#utility.yul\":22150:22216   */\n      tag_479\n        /* \"#utility.yul\":22214:22215   */\n      0x09\n        /* \"#utility.yul\":22209:22212   */\n      dup4\n        /* \"#utility.yul\":22150:22216   */\n      tag_235\n      jump\t// in\n    tag_479:\n        /* \"#utility.yul\":22143:22216   */\n      swap2\n      pop\n        /* \"#utility.yul\":22225:22318   */\n      tag_480\n        /* \"#utility.yul\":22314:22317   */\n      dup3\n        /* \"#utility.yul\":22225:22318   */\n      tag_262\n      jump\t// in\n    tag_480:\n        /* \"#utility.yul\":22343:22345   */\n      0x20\n        /* \"#utility.yul\":22338:22341   */\n      dup3\n        /* \"#utility.yul\":22334:22346   */\n      add\n        /* \"#utility.yul\":22327:22346   */\n      swap1\n      pop\n        /* \"#utility.yul\":21987:22352   */\n      swap2\n      swap1\n      pop\n      jump\t// out\n        /* \"#utility.yul\":22358:22777   */\n    tag_187:\n        /* \"#utility.yul\":22524:22528   */\n      0x00\n        /* \"#utility.yul\":22562:22564   */\n      0x20\n        /* \"#utility.yul\":22551:22560   */\n      dup3\n        /* \"#utility.yul\":22547:22565   */\n      add\n        /* \"#utility.yul\":22539:22565   */\n      swap1\n      pop\n        /* \"#utility.yul\":22611:22620   */\n      dup2\n        /* \"#utility.yul\":22605:22609   */\n      dup2\n        /* \"#utility.yul\":22601:22621   */\n      sub\n        /* \"#utility.yul\":22597:22598   */\n      0x00\n        /* \"#utility.yul\":22586:22595   */\n      dup4\n        /* \"#utility.yul\":22582:22599   */\n      add\n        /* \"#utility.yul\":22575:22622   */\n      mstore\n        /* \"#utility.yul\":22639:22770   */\n      tag_482\n        /* \"#utility.yul\":22765:22769   */\n      dup2\n        /* \"#utility.yul\":22639:22770   */\n      tag_263\n      jump\t// in\n    tag_482:\n        /* \"#utility.yul\":22631:22770   */\n      swap1\n      pop\n        /* \"#utility.yul\":22358:22777   */\n      swap2\n      swap1\n      pop\n      jump\t// out\n        /* \"#utility.yul\":22783:22876   */\n    tag_264:\n        /* \"#utility.yul\":22820:22826   */\n      0x00\n        /* \"#utility.yul\":22867:22869   */\n      0x20\n        /* \"#utility.yul\":22862:22864   */\n      0x1f\n        /* \"#utility.yul\":22855:22860   */\n      dup4\n        /* \"#utility.yul\":22851:22865   */\n      add\n        /* \"#utility.yul\":22847:22870   */\n      div\n        /* \"#utility.yul\":22837:22870   */\n      swap1\n      pop\n        /* \"#utility.yul\":22783:22876   */\n      swap2\n      swap1\n      pop\n      jump\t// out\n        /* \"#utility.yul\":22882:22989   */\n    tag_265:\n        /* \"#utility.yul\":22926:22934   */\n      0x00\n        /* \"#utility.yul\":22976:22981   */\n      dup3\n        /* \"#utility.yul\":22970:22974   */\n      dup3\n        /* \"#utility.yul\":22966:22982   */\n      shl\n        /* \"#utility.yul\":22945:22982   */\n      swap1\n      pop\n        /* \"#utility.yul\":22882:22989   */\n      swap3\n      swap2\n      pop\n      pop\n      jump\t// out\n        /* \"#utility.yul\":22995:23388   */\n    tag_266:\n        /* \"#utility.yul\":23064:23070   */\n      0x00\n        /* \"#utility.yul\":23114:23115   */\n      0x08\n        /* \"#utility.yul\":23102:23112   */\n      dup4\n        /* \"#utility.yul\":23098:23116   */\n      mul\n        /* \"#utility.yul\":23137:23234   */\n      tag_486\n        /* \"#utility.yul\":23167:23233   */\n      0xffffffffffffffffffffffffffffffffffffffffffffffffffffffffffffffff\n        /* \"#utility.yul\":23156:23165   */\n      dup3\n        /* \"#utility.yul\":23137:23234   */\n      tag_265\n      jump\t// in\n    tag_486:\n        /* \"#utility.yul\":23255:23294   */\n      tag_487\n        /* \"#utility.yul\":23285:23293   */\n      dup7\n        /* \"#utility.yul\":23274:23283   */\n      dup4\n        /* \"#utility.yul\":23255:23294   */\n      tag_265\n      jump\t// in\n    tag_487:\n        /* \"#utility.yul\":23243:23294   */\n      swap6\n      pop\n        /* \"#utility.yul\":23327:23331   */\n      dup1\n        /* \"#utility.yul\":23323:23332   */\n      not\n        /* \"#utility.yul\":23316:23321   */\n      dup5\n        /* \"#utility.yul\":23312:23333   */\n      and\n        /* \"#utility.yul\":23303:23333   */\n      swap4\n      pop\n        /* \"#utility.yul\":23376:23380   */\n      dup1\n        /* \"#utility.yul\":23366:23374   */\n      dup7\n        /* \"#utility.yul\":23362:23381   */\n      and\n        /* \"#utility.yul\":23355:23360   */\n      dup5\n        /* \"#utility.yul\":23352:23382   */\n      or\n        /* \"#utility.yul\":23342:23382   */\n      swap3\n      pop\n        /* \"#utility.yul\":23071:23388   */\n      pop\n      pop\n        /* \"#utility.yul\":22995:23388   */\n      swap4\n      swap3\n      pop\n      pop\n      pop\n      jump\t// out\n        /* \"#utility.yul\":23394:23454   */\n    tag_267:\n        /* \"#utility.yul\":23422:23425   */\n      0x00\n        /* \"#utility.yul\":23443:23448   */\n      dup2\n        /* \"#utility.yul\":23436:23448   */\n      swap1\n      pop\n        /* \"#utility.yul\":23394:23454   */\n      swap2\n      swap1\n      pop\n      jump\t// out\n        /* \"#utility.yul\":23460:23602   */\n    tag_268:\n        /* \"#utility.yul\":23510:23519   */\n      0x00\n        /* \"#utility.yul\":23543:23596   */\n      tag_490\n        /* \"#utility.yul\":23561:23595   */\n      tag_491\n        /* \"#utility.yul\":23570:23594   */\n      tag_492\n        /* \"#utility.yul\":23588:23593   */\n      dup5\n        /* \"#utility.yul\":23570:23594   */\n      tag_230\n      jump\t// in\n    tag_492:\n        /* \"#utility.yul\":23561:23595   */\n      tag_267\n      jump\t// in\n    tag_491:\n        /* \"#utility.yul\":23543:23596   */\n      tag_230\n      jump\t// in\n    tag_490:\n        /* \"#utility.yul\":23530:23596   */\n      swap1\n      pop\n        /* \"#utility.yul\":23460:23602   */\n      swap2\n      swap1\n      pop\n      jump\t// out\n        /* \"#utility.yul\":23608:23683   */\n    tag_269:\n        /* \"#utility.yul\":23651:23654   */\n      0x00\n        /* \"#utility.yul\":23672:23677   */\n      dup2\n        /* \"#utility.yul\":23665:23677   */\n      swap1\n      pop\n        /* \"#utility.yul\":23608:23683   */\n      swap2\n      swap1\n      pop\n      jump\t// out\n        /* \"#utility.yul\":23689:23958   */\n    tag_270:\n        /* \"#utility.yul\":23799:23838   */\n      tag_495\n        /* \"#utility.yul\":23830:23837   */\n      dup4\n        /* \"#utility.yul\":23799:23838   */\n      tag_268\n      jump\t// in\n    tag_495:\n        /* \"#utility.yul\":23860:23951   */\n      tag_496\n        /* \"#utility.yul\":23909:23950   */\n      tag_497\n        /* \"#utility.yul\":23933:23949   */\n      dup3\n        /* \"#utility.yul\":23909:23950   */\n      tag_269\n      jump\t// in\n    tag_497:\n        /* \"#utility.yul\":23901:23907   */\n      dup5\n        /* \"#utility.yul\":23894:23898   */\n      dup5\n        /* \"#utility.yul\":23888:23899   */\n      sload\n        /* \"#utility.yul\":23860:23951   */\n      tag_266\n      jump\t// in\n    tag_496:\n        /* \"#utility.yul\":23854:23858   */\n      dup3\n        /* \"#utility.yul\":23847:23952   */\n      sstore\n        /* \"#utility.yul\":23765:23958   */\n      pop\n        /* \"#utility.yul\":23689:23958   */\n      pop\n      pop\n      pop\n      jump\t// out\n        /* \"#utility.yul\":23964:24037   */\n    tag_271:\n        /* \"#utility.yul\":24009:24012   */\n      0x00\n        /* \"#utility.yul\":23964:24037   */\n      swap1\n      jump\t// out\n        /* \"#utility.yul\":24043:24232   */\n    tag_272:\n        /* \"#utility.yul\":24120:24152   */\n      tag_500\n      tag_271\n      jump\t// in\n    tag_500:\n        /* \"#utility.yul\":24161:24226   */\n      tag_501\n        /* \"#utility.yul\":24219:24225   */\n      dup2\n        /* \"#utility.yul\":24211:24217   */\n      dup5\n        /* \"#utility.yul\":24205:24209   */\n      dup5\n        /* \"#utility.yul\":24161:24226   */\n      tag_270\n      jump\t// in\n    tag_501:\n        /* \"#utility.yul\":24096:24232   */\n      pop\n        /* \"#utility.yul\":24043:24232   */\n      pop\n      pop\n      jump\t// out\n        /* \"#utility.yul\":24238:24424   */\n    tag_273:\n        /* \"#utility.yul\":24298:24418   */\n    tag_503:\n        /* \"#utility.yul\":24315:24318   */\n      dup2\n        /* \"#utility.yul\":24308:24313   */\n      dup2\n        /* \"#utility.yul\":24305:24319   */\n      lt\n        /* \"#utility.yul\":24298:24418   */\n      iszero\n      tag_505\n      jumpi\n        /* \"#utility.yul\":24369:24408   */\n      tag_506\n        /* \"#utility.yul\":24406:24407   */\n      0x00\n        /* \"#utility.yul\":24399:24404   */\n      dup3\n        /* \"#utility.yul\":24369:24408   */\n      tag_272\n      jump\t// in\n    tag_506:\n        /* \"#utility.yul\":24342:24343   */\n      0x01\n        /* \"#utility.yul\":24335:24340   */\n      dup2\n        /* \"#utility.yul\":24331:24344   */\n      add\n        /* \"#utility.yul\":24322:24344   */\n      swap1\n      pop\n        /* \"#utility.yul\":24298:24418   */\n      jump(tag_503)\n    tag_505:\n        /* \"#utility.yul\":24238:24424   */\n      pop\n      pop\n      jump\t// out\n        /* \"#utility.yul\":24430:24973   */\n    tag_274:\n        /* \"#utility.yul\":24531:24533   */\n      0x1f\n        /* \"#utility.yul\":24526:24529   */\n      dup3\n        /* \"#utility.yul\":24523:24534   */\n      gt\n        /* \"#utility.yul\":24520:24966   */\n      iszero\n      tag_508\n      jumpi\n        /* \"#utility.yul\":24565:24603   */\n      tag_509\n        /* \"#utility.yul\":24597:24602   */\n      dup2\n        /* \"#utility.yul\":24565:24603   */\n      tag_257\n      jump\t// in\n    tag_509:\n        /* \"#utility.yul\":24649:24678   */\n      tag_510\n        /* \"#utility.yul\":24667:24677   */\n      dup5\n        /* \"#utility.yul\":24649:24678   */\n      tag_264\n      jump\t// in\n    tag_510:\n        /* \"#utility.yul\":24639:24647   */\n      dup2\n        /* \"#utility.yul\":24635:24679   */\n      add\n        /* \"#utility.yul\":24832:24834   */\n      0x20\n        /* \"#utility.yul\":24820:24830   */\n      dup6\n        /* \"#utility.yul\":24817:24835   */\n      lt\n        /* \"#utility.yul\":24814:24863   */\n      iszero\n      tag_511\n      jumpi\n        /* \"#utility.yul\":24853:24861   */\n      dup2\n        /* \"#utility.yul\":24838:24861   */\n      swap1\n      pop\n        /* \"#utility.yul\":24814:24863   */\n    tag_511:\n        /* \"#utility.yul\":24876:24956   */\n      tag_512\n        /* \"#utility.yul\":24932:24954   */\n      tag_513\n        /* \"#utility.yul\":24950:24953   */\n      dup6\n        /* \"#utility.yul\":24932:24954   */\n      tag_264\n      jump\t// in\n    tag_513:\n        /* \"#utility.yul\":24922:24930   */\n      dup4\n        /* \"#utility.yul\":24918:24955   */\n      add\n        /* \"#utility.yul\":24905:24916   */\n      dup3\n        /* \"#utility.yul\":24876:24956   */\n      tag_273\n      jump\t// in\n    tag_512:\n        /* \"#utility.yul\":24535:24966   */\n      pop\n      pop\n        /* \"#utility.yul\":24520:24966   */\n    tag_508:\n        /* \"#utility.yul\":24430:24973   */\n      pop\n      pop\n      pop\n      jump\t// out\n        /* \"#utility.yul\":24979:25096   */\n    tag_275:\n        /* \"#utility.yul\":25033:25041   */\n      0x00\n        /* \"#utility.yul\":25083:25088   */\n      dup3\n        /* \"#utility.yul\":25077:25081   */\n      dup3\n        /* \"#utility.yul\":25073:25089   */\n      shr\n        /* \"#utility.yul\":25052:25089   */\n      swap1\n      pop\n        /* \"#utility.yul\":24979:25096   */\n      swap3\n      swap2\n      pop\n      pop\n      jump\t// out\n        /* \"#utility.yul\":25102:25271   */\n    tag_276:\n        /* \"#utility.yul\":25146:25152   */\n      0x00\n        /* \"#utility.yul\":25179:25230   */\n      tag_516\n        /* \"#utility.yul\":25227:25228   */\n      0x00\n        /* \"#utility.yul\":25223:25229   */\n      not\n        /* \"#utility.yul\":25215:25220   */\n      dup5\n        /* \"#utility.yul\":25212:25213   */\n      0x08\n        /* \"#utility.yul\":25208:25221   */\n      mul\n        /* \"#utility.yul\":25179:25230   */\n      tag_275\n      jump\t// in\n    tag_516:\n        /* \"#utility.yul\":25175:25231   */\n      not\n        /* \"#utility.yul\":25260:25264   */\n      dup1\n        /* \"#utility.yul\":25254:25258   */\n      dup4\n        /* \"#utility.yul\":25250:25265   */\n      and\n        /* \"#utility.yul\":25240:25265   */\n      swap2\n      pop\n        /* \"#utility.yul\":25153:25271   */\n      pop\n        /* \"#utility.yul\":25102:25271   */\n      swap3\n      swap2\n      pop\n      pop\n      jump\t// out\n        /* \"#utility.yul\":25276:25571   */\n    tag_277:\n        /* \"#utility.yul\":25352:25356   */\n      0x00\n        /* \"#utility.yul\":25498:25527   */\n      tag_518\n        /* \"#utility.yul\":25523:25526   */\n      dup4\n        /* \"#utility.yul\":25517:25521   */\n      dup4\n        /* \"#utility.yul\":25498:25527   */\n      tag_276\n      jump\t// in\n    tag_518:\n        /* \"#utility.yul\":25490:25527   */\n      swap2\n      pop\n        /* \"#utility.yul\":25560:25563   */\n      dup3\n        /* \"#utility.yul\":25557:25558   */\n      0x02\n        /* \"#utility.yul\":25553:25564   */\n      mul\n        /* \"#utility.yul\":25547:25551   */\n      dup3\n        /* \"#utility.yul\":25544:25565   */\n      or\n        /* \"#utility.yul\":25536:25565   */\n      swap1\n      pop\n        /* \"#utility.yul\":25276:25571   */\n      swap3\n      swap2\n      pop\n      pop\n      jump\t// out\n        /* \"#utility.yul\":25576:26971   */\n    tag_195:\n        /* \"#utility.yul\":25693:25730   */\n      tag_520\n        /* \"#utility.yul\":25726:25729   */\n      dup3\n        /* \"#utility.yul\":25693:25730   */\n      tag_234\n      jump\t// in\n    tag_520:\n        /* \"#utility.yul\":25795:25813   */\n      0xffffffffffffffff\n        /* \"#utility.yul\":25787:25793   */\n      dup2\n        /* \"#utility.yul\":25784:25814   */\n      gt\n        /* \"#utility.yul\":25781:25837   */\n      iszero\n      tag_521\n      jumpi\n        /* \"#utility.yul\":25817:25835   */\n      tag_522\n      tag_95\n      jump\t// in\n    tag_522:\n        /* \"#utility.yul\":25781:25837   */\n    tag_521:\n        /* \"#utility.yul\":25861:25899   */\n      tag_523\n        /* \"#utility.yul\":25893:25897   */\n      dup3\n        /* \"#utility.yul\":25887:25898   */\n      sload\n        /* \"#utility.yul\":25861:25899   */\n      tag_77\n      jump\t// in\n    tag_523:\n        /* \"#utility.yul\":25946:26013   */\n      tag_524\n        /* \"#utility.yul\":26006:26012   */\n      dup3\n        /* \"#utility.yul\":25998:26004   */\n      dup3\n        /* \"#utility.yul\":25992:25996   */\n      dup6\n        /* \"#utility.yul\":25946:26013   */\n      tag_274\n      jump\t// in\n    tag_524:\n        /* \"#utility.yul\":26040:26041   */\n      0x00\n        /* \"#utility.yul\":26064:26068   */\n      0x20\n        /* \"#utility.yul\":26051:26068   */\n      swap1\n      pop\n        /* \"#utility.yul\":26096:26098   */\n      0x1f\n        /* \"#utility.yul\":26088:26094   */\n      dup4\n        /* \"#utility.yul\":26085:26099   */\n      gt\n        /* \"#utility.yul\":26113:26114   */\n      0x01\n        /* \"#utility.yul\":26108:26726   */\n      dup2\n      eq\n      tag_526\n      jumpi\n        /* \"#utility.yul\":26770:26771   */\n      0x00\n        /* \"#utility.yul\":26787:26793   */\n      dup5\n        /* \"#utility.yul\":26784:26861   */\n      iszero\n      tag_527\n      jumpi\n        /* \"#utility.yul\":26836:26845   */\n      dup3\n        /* \"#utility.yul\":26831:26834   */\n      dup8\n        /* \"#utility.yul\":26827:26846   */\n      add\n        /* \"#utility.yul\":26821:26847   */\n      mload\n        /* \"#utility.yul\":26812:26847   */\n      swap1\n      pop\n        /* \"#utility.yul\":26784:26861   */\n    tag_527:\n        /* \"#utility.yul\":26887:26954   */\n      tag_528\n        /* \"#utility.yul\":26947:26953   */\n      dup6\n        /* \"#utility.yul\":26940:26945   */\n      dup3\n        /* \"#utility.yul\":26887:26954   */\n      tag_277\n      jump\t// in\n    tag_528:\n        /* \"#utility.yul\":26881:26885   */\n      dup7\n        /* \"#utility.yul\":26874:26955   */\n      sstore\n        /* \"#utility.yul\":26743:26965   */\n      pop\n        /* \"#utility.yul\":26078:26965   */\n      jump(tag_525)\n        /* \"#utility.yul\":26108:26726   */\n    tag_526:\n        /* \"#utility.yul\":26160:26164   */\n      0x1f\n        /* \"#utility.yul\":26156:26165   */\n      not\n        /* \"#utility.yul\":26148:26154   */\n      dup5\n        /* \"#utility.yul\":26144:26166   */\n      and\n        /* \"#utility.yul\":26194:26231   */\n      tag_529\n        /* \"#utility.yul\":26226:26230   */\n      dup7\n        /* \"#utility.yul\":26194:26231   */\n      tag_257\n      jump\t// in\n    tag_529:\n        /* \"#utility.yul\":26253:26254   */\n      0x00\n        /* \"#utility.yul\":26267:26475   */\n    tag_530:\n        /* \"#utility.yul\":26281:26288   */\n      dup3\n        /* \"#utility.yul\":26278:26279   */\n      dup2\n        /* \"#utility.yul\":26275:26289   */\n      lt\n        /* \"#utility.yul\":26267:26475   */\n      iszero\n      tag_532\n      jumpi\n        /* \"#utility.yul\":26360:26369   */\n      dup5\n        /* \"#utility.yul\":26355:26358   */\n      dup10\n        /* \"#utility.yul\":26351:26370   */\n      add\n        /* \"#utility.yul\":26345:26371   */\n      mload\n        /* \"#utility.yul\":26337:26343   */\n      dup3\n        /* \"#utility.yul\":26330:26372   */\n      sstore\n        /* \"#utility.yul\":26411:26412   */\n      0x01\n        /* \"#utility.yul\":26403:26409   */\n      dup3\n        /* \"#utility.yul\":26399:26413   */\n      add\n        /* \"#utility.yul\":26389:26413   */\n      swap2\n      pop\n        /* \"#utility.yul\":26458:26460   */\n      0x20\n        /* \"#utility.yul\":26447:26456   */\n      dup6\n        /* \"#utility.yul\":26443:26461   */\n      add\n        /* \"#utility.yul\":26430:26461   */\n      swap5\n      pop\n        /* \"#utility.yul\":26304:26308   */\n      0x20\n        /* \"#utility.yul\":26301:26302   */\n      dup2\n        /* \"#utility.yul\":26297:26309   */\n      add\n        /* \"#utility.yul\":26292:26309   */\n      swap1\n      pop\n        /* \"#utility.yul\":26267:26475   */\n      jump(tag_530)\n    tag_532:\n        /* \"#utility.yul\":26503:26509   */\n      dup7\n        /* \"#utility.yul\":26494:26501   */\n      dup4\n        /* \"#utility.yul\":26491:26510   */\n      lt\n        /* \"#utility.yul\":26488:26667   */\n      iszero\n      tag_533\n      jumpi\n        /* \"#utility.yul\":26561:26570   */\n      dup5\n        /* \"#utility.yul\":26556:26559   */\n      dup10\n        /* \"#utility.yul\":26552:26571   */\n      add\n        /* \"#utility.yul\":26546:26572   */\n      mload\n        /* \"#utility.yul\":26604:26652   */\n      tag_534\n        /* \"#utility.yul\":26646:26650   */\n      0x1f\n        /* \"#utility.yul\":26638:26644   */\n      dup10\n        /* \"#utility.yul\":26634:26651   */\n      and\n        /* \"#utility.yul\":26623:26632   */\n      dup3\n        /* \"#utility.yul\":26604:26652   */\n      tag_276\n      jump\t// in\n    tag_534:\n        /* \"#utility.yul\":26596:26602   */\n      dup4\n        /* \"#utility.yul\":26589:26653   */\n      sstore\n        /* \"#utility.yul\":26511:26667   */\n      pop\n        /* \"#utility.yul\":26488:26667   */\n    tag_533:\n        /* \"#utility.yul\":26713:26714   */\n      0x01\n        /* \"#utility.yul\":26709:26710   */\n      0x02\n        /* \"#utility.yul\":26701:26707   */\n      dup9\n        /* \"#utility.yul\":26697:26711   */\n      mul\n        /* \"#utility.yul\":26693:26715   */\n      add\n        /* \"#utility.yul\":26687:26691   */\n      dup9\n        /* \"#utility.yul\":26680:26716   */\n      sstore\n        /* \"#utility.yul\":26115:26726   */\n      pop\n      pop\n      pop\n        /* \"#utility.yul\":26078:26965   */\n    tag_525:\n      pop\n        /* \"#utility.yul\":25668:26971   */\n      pop\n      pop\n      pop\n        /* \"#utility.yul\":25576:26971   */\n      pop\n      pop\n      jump\t// out\n\n    auxdata: 0xa2646970667358221220b1d700c743071f2646d76ca7e8eb159f9098b9c1edbf7ae89478e46bdb11159764736f6c63430008160033\n}\n",
				"bytecode": {
					"linkReferences": {},
					"object": "6080604052738c43a48745b5a4dc666f0ba9af9b6f41c065ec225f806101000a81548173ffffffffffffffffffffffffffffffffffffffff021916908373ffffffffffffffffffffffffffffffffffffffff160217905550348015610062575f80fd5b50611f7f806100705f395ff3fe608060405234801561000f575f80fd5b5060043610610091575f3560e01c8063a3306ae311610064578063a3306ae314610148578063add6415d14610164578063e3726d6614610182578063ec4efa92146101b2578063fc6f9468146101ce57610091565b8063048fa3a71461009557806311765b27146100c557806392ad672f146100e357806399b3e96a14610118575b5f80fd5b6100af60048036038101906100aa91906113bc565b6101ec565b6040516100bc9190611430565b60405180910390f35b6100cd610330565b6040516100da9190611458565b60405180910390f35b6100fd60048036038101906100f891906114a4565b610355565b60405161010f96959493929190611558565b60405180910390f35b610132600480360381019061012d91906115cc565b61054d565b60405161013f91906117c8565b60405180910390f35b610162600480360381019061015d91906117e8565b6108c1565b005b61016c610991565b60405161017991906117c8565b60405180910390f35b61019c600480360381019061019791906115cc565b610c05565b6040516101a991906118a7565b60405180910390f35b6101cc60048036038101906101c791906118c7565b610f2a565b005b6101d66110f5565b6040516101e39190611458565b60405180910390f35b5f805f90505b600280549050811015610325578360405160200161021091906119e9565b604051602081830303815290604052805190602001206002828154811061023a57610239611a03565b5b905f5260205f2090600602016003015f9054906101000a900473ffffffffffffffffffffffffffffffffffffffff1660405160200161027991906119e9565b604051602081830303815290604052805190602001201480156103095750826040516020016102a89190611a6a565b60405160208183030381529060405280519060200120600282815481106102d2576102d1611a03565b5b905f5260205f2090600602016001016040516020016102f19190611b6f565b60405160208183030381529060405280519060200120145b1561031857600191505061032a565b80806001019150506101f2565b505f90505b92915050565b60015f9054906101000a900473ffffffffffffffffffffffffffffffffffffffff1681565b60028181548110610364575f80fd5b905f5260205f2090600602015f91509050805f01549080600101805461038990611aad565b80601f01602080910402602001604051908101604052809291908181526020018280546103b590611aad565b80156104005780601f106103d757610100808354040283529160200191610400565b820191905f5260205f20905b8154815290600101906020018083116103e357829003601f168201915b50505050509080600201805461041590611aad565b80601f016020809104026020016040519081016040528092919081815260200182805461044190611aad565b801561048c5780601f106104635761010080835404028352916020019161048c565b820191905f5260205f20905b81548152906001019060200180831161046f57829003601f168201915b505050505090806003015f9054906101000a900473ffffffffffffffffffffffffffffffffffffffff16908060040154908060050180546104cc90611aad565b80601f01602080910402602001604051908101604052809291908181526020018280546104f890611aad565b80156105435780601f1061051a57610100808354040283529160200191610543565b820191905f5260205f20905b81548152906001019060200180831161052657829003601f168201915b5050505050905086565b60605f60028054905067ffffffffffffffff81111561056f5761056e611298565b5b6040519080825280602002602001820160405280156105a857816020015b6105956111cc565b81526020019060019003908161058d5790505b5090505f805b6002805490508110156108ad57846040516020016105cc9190611a6a565b60405160208183030381529060405280519060200120600282815481106105f6576105f5611a03565b5b905f5260205f2090600602016001016040516020016106159190611b6f565b60405160208183030381529060405280519060200120036108a0576002818154811061064457610643611a03565b5b905f5260205f2090600602016040518060c00160405290815f820154815260200160018201805461067490611aad565b80601f01602080910402602001604051908101604052809291908181526020018280546106a090611aad565b80156106eb5780601f106106c2576101008083540402835291602001916106eb565b820191905f5260205f20905b8154815290600101906020018083116106ce57829003601f168201915b5050505050815260200160028201805461070490611aad565b80601f016020809104026020016040519081016040528092919081815260200182805461073090611aad565b801561077b5780601f106107525761010080835404028352916020019161077b565b820191905f5260205f20905b81548152906001019060200180831161075e57829003601f168201915b50505050508152602001600382015f9054906101000a900473ffffffffffffffffffffffffffffffffffffffff1673ffffffffffffffffffffffffffffffffffffffff1673ffffffffffffffffffffffffffffffffffffffff168152602001600482015481526020016005820180546107f390611aad565b80601f016020809104026020016040519081016040528092919081815260200182805461081f90611aad565b801561086a5780601f106108415761010080835404028352916020019161086a565b820191905f5260205f20905b81548152906001019060200180831161084d57829003601f168201915b50505050508152505083828151811061088657610885611a03565b5b6020026020010181905250818061089c90611bb2565b9250505b80806001019150506105ae565b506108b88282611118565b92505050919050565b5f8054906101000a900473ffffffffffffffffffffffffffffffffffffffff1673ffffffffffffffffffffffffffffffffffffffff163373ffffffffffffffffffffffffffffffffffffffff161461094e576040517f08c379a000000000000000000000000000000000000000000000000000000000815260040161094590611c69565b60405180910390fd5b8060015f6101000a81548173ffffffffffffffffffffffffffffffffffffffff021916908373ffffffffffffffffffffffffffffffffffffffff16021790555050565b60606002805480602002602001604051908101604052809291908181526020015f905b82821015610bfc578382905f5260205f2090600602016040518060c00160405290815f82015481526020016001820180546109ee90611aad565b80601f0160208091040260200160405190810160405280929190818152602001828054610a1a90611aad565b8015610a655780601f10610a3c57610100808354040283529160200191610a65565b820191905f5260205f20905b815481529060010190602001808311610a4857829003601f168201915b50505050508152602001600282018054610a7e90611aad565b80601f0160208091040260200160405190810160405280929190818152602001828054610aaa90611aad565b8015610af55780601f10610acc57610100808354040283529160200191610af5565b820191905f5260205f20905b815481529060010190602001808311610ad857829003601f168201915b50505050508152602001600382015f9054906101000a900473ffffffffffffffffffffffffffffffffffffffff1673ffffffffffffffffffffffffffffffffffffffff1673ffffffffffffffffffffffffffffffffffffffff16815260200160048201548152602001600582018054610b6d90611aad565b80601f0160208091040260200160405190810160405280929190818152602001828054610b9990611aad565b8015610be45780601f10610bbb57610100808354040283529160200191610be4565b820191905f5260205f20905b815481529060010190602001808311610bc757829003601f168201915b505050505081525050815260200190600101906109b4565b50505050905090565b610c0d6111cc565b5f5b600280549050811015610ee95782604051602001610c2d9190611a6a565b6040516020818303038152906040528051906020012060028281548110610c5757610c56611a03565b5b905f5260205f209060060201600201604051602001610c769190611b6f565b6040516020818303038152906040528051906020012003610edc5760028181548110610ca557610ca4611a03565b5b905f5260205f2090600602016040518060c00160405290815f8201548152602001600182018054610cd590611aad565b80601f0160208091040260200160405190810160405280929190818152602001828054610d0190611aad565b8015610d4c5780601f10610d2357610100808354040283529160200191610d4c565b820191905f5260205f20905b815481529060010190602001808311610d2f57829003601f168201915b50505050508152602001600282018054610d6590611aad565b80601f0160208091040260200160405190810160405280929190818152602001828054610d9190611aad565b8015610ddc5780601f10610db357610100808354040283529160200191610ddc565b820191905f5260205f20905b815481529060010190602001808311610dbf57829003601f168201915b50505050508152602001600382015f9054906101000a900473ffffffffffffffffffffffffffffffffffffffff1673ffffffffffffffffffffffffffffffffffffffff1673ffffffffffffffffffffffffffffffffffffffff16815260200160048201548152602001600582018054610e5490611aad565b80601f0160208091040260200160405190810160405280929190818152602001828054610e8090611aad565b8015610ecb5780601f10610ea257610100808354040283529160200191610ecb565b820191905f5260205f20905b815481529060010190602001808311610eae57829003601f168201915b505050505081525050915050610f25565b8080600101915050610c0f565b506040517f08c379a0000000000000000000000000000000000000000000000000000000008152600401610f1c90611cd1565b60405180910390fd5b919050565b60015f9054906101000a900473ffffffffffffffffffffffffffffffffffffffff1673ffffffffffffffffffffffffffffffffffffffff163373ffffffffffffffffffffffffffffffffffffffff1614610fb9576040517f08c379a0000000000000000000000000000000000000000000000000000000008152600401610fb090611c69565b60405180910390fd5b610fc16111cc565b86815f01818152505085816020018190525084816040018190525083816060019073ffffffffffffffffffffffffffffffffffffffff16908173ffffffffffffffffffffffffffffffffffffffff168152505082816080018181525050818160a00181905250600281908060018154018082558091505060019003905f5260205f2090600602015f909190919091505f820151815f0155602082015181600101908161106d9190611e7a565b5060408201518160020190816110839190611e7a565b506060820151816003015f6101000a81548173ffffffffffffffffffffffffffffffffffffffff021916908373ffffffffffffffffffffffffffffffffffffffff1602179055506080820151816004015560a08201518160050190816110e99190611e7a565b50505050505050505050565b5f8054906101000a900473ffffffffffffffffffffffffffffffffffffffff1681565b60605f8267ffffffffffffffff81111561113557611134611298565b5b60405190808252806020026020018201604052801561116e57816020015b61115b6111cc565b8152602001906001900390816111535790505b5090505f5b838110156111c15784818151811061118e5761118d611a03565b5b60200260200101518282815181106111a9576111a8611a03565b5b60200260200101819052508080600101915050611173565b508091505092915050565b6040518060c001604052805f815260200160608152602001606081526020015f73ffffffffffffffffffffffffffffffffffffffff1681526020015f8152602001606081525090565b5f604051905090565b5f80fd5b5f80fd5b5f73ffffffffffffffffffffffffffffffffffffffff82169050919050565b5f61124f82611226565b9050919050565b61125f81611245565b8114611269575f80fd5b50565b5f8135905061127a81611256565b92915050565b5f80fd5b5f80fd5b5f601f19601f8301169050919050565b7f4e487b71000000000000000000000000000000000000000000000000000000005f52604160045260245ffd5b6112ce82611288565b810181811067ffffffffffffffff821117156112ed576112ec611298565b5b80604052505050565b5f6112ff611215565b905061130b82826112c5565b919050565b5f67ffffffffffffffff82111561132a57611329611298565b5b61133382611288565b9050602081019050919050565b828183375f83830152505050565b5f61136061135b84611310565b6112f6565b90508281526020810184848401111561137c5761137b611284565b5b611387848285611340565b509392505050565b5f82601f8301126113a3576113a2611280565b5b81356113b384826020860161134e565b91505092915050565b5f80604083850312156113d2576113d161121e565b5b5f6113df8582860161126c565b925050602083013567ffffffffffffffff811115611400576113ff611222565b5b61140c8582860161138f565b9150509250929050565b5f8115159050919050565b61142a81611416565b82525050565b5f6020820190506114435f830184611421565b92915050565b61145281611245565b82525050565b5f60208201905061146b5f830184611449565b92915050565b5f819050919050565b61148381611471565b811461148d575f80fd5b50565b5f8135905061149e8161147a565b92915050565b5f602082840312156114b9576114b861121e565b5b5f6114c684828501611490565b91505092915050565b6114d881611471565b82525050565b5f81519050919050565b5f82825260208201905092915050565b5f5b838110156115155780820151818401526020810190506114fa565b5f8484015250505050565b5f61152a826114de565b61153481856114e8565b93506115448185602086016114f8565b61154d81611288565b840191505092915050565b5f60c08201905061156b5f8301896114cf565b818103602083015261157d8188611520565b905081810360408301526115918187611520565b90506115a06060830186611449565b6115ad60808301856114cf565b81810360a08301526115bf8184611520565b9050979650505050505050565b5f602082840312156115e1576115e061121e565b5b5f82013567ffffffffffffffff8111156115fe576115fd611222565b5b61160a8482850161138f565b91505092915050565b5f81519050919050565b5f82825260208201905092915050565b5f819050602082019050919050565b61164581611471565b82525050565b5f82825260208201905092915050565b5f611665826114de565b61166f818561164b565b935061167f8185602086016114f8565b61168881611288565b840191505092915050565b61169c81611245565b82525050565b5f60c083015f8301516116b75f86018261163c565b50602083015184820360208601526116cf828261165b565b915050604083015184820360408601526116e9828261165b565b91505060608301516116fe6060860182611693565b506080830151611711608086018261163c565b5060a083015184820360a0860152611729828261165b565b9150508091505092915050565b5f61174183836116a2565b905092915050565b5f602082019050919050565b5f61175f82611613565b611769818561161d565b93508360208202850161177b8561162d565b805f5b858110156117b657848403895281516117978582611736565b94506117a283611749565b925060208a0199505060018101905061177e565b50829750879550505050505092915050565b5f6020820190508181035f8301526117e08184611755565b905092915050565b5f602082840312156117fd576117fc61121e565b5b5f61180a8482850161126c565b91505092915050565b5f60c083015f8301516118285f86018261163c565b5060208301518482036020860152611840828261165b565b9150506040830151848203604086015261185a828261165b565b915050606083015161186f6060860182611693565b506080830151611882608086018261163c565b5060a083015184820360a086015261189a828261165b565b9150508091505092915050565b5f6020820190508181035f8301526118bf8184611813565b905092915050565b5f805f805f8060c087890312156118e1576118e061121e565b5b5f6118ee89828a01611490565b965050602087013567ffffffffffffffff81111561190f5761190e611222565b5b61191b89828a0161138f565b955050604087013567ffffffffffffffff81111561193c5761193b611222565b5b61194889828a0161138f565b945050606061195989828a0161126c565b935050608061196a89828a01611490565b92505060a087013567ffffffffffffffff81111561198b5761198a611222565b5b61199789828a0161138f565b9150509295509295509295565b5f8160601b9050919050565b5f6119ba826119a4565b9050919050565b5f6119cb826119b0565b9050919050565b6119e36119de82611245565b6119c1565b82525050565b5f6119f482846119d2565b60148201915081905092915050565b7f4e487b71000000000000000000000000000000000000000000000000000000005f52603260045260245ffd5b5f81905092915050565b5f611a44826114de565b611a4e8185611a30565b9350611a5e8185602086016114f8565b80840191505092915050565b5f611a758284611a3a565b915081905092915050565b7f4e487b71000000000000000000000000000000000000000000000000000000005f52602260045260245ffd5b5f6002820490506001821680611ac457607f821691505b602082108103611ad757611ad6611a80565b5b50919050565b5f819050815f5260205f209050919050565b5f8154611afb81611aad565b611b058186611a30565b9450600182165f8114611b1f5760018114611b3457611b66565b60ff1983168652811515820286019350611b66565b611b3d85611add565b5f5b83811015611b5e57815481890152600182019150602081019050611b3f565b838801955050505b50505092915050565b5f611b7a8284611aef565b915081905092915050565b7f4e487b71000000000000000000000000000000000000000000000000000000005f52601160045260245ffd5b5f611bbc82611471565b91507fffffffffffffffffffffffffffffffffffffffffffffffffffffffffffffffff8203611bee57611bed611b85565b5b600182019050919050565b7f4f6e6c792063616d706169676e20636f6e74726163742063616c6c20746869735f8201527f2066756e6374696f6e0000000000000000000000000000000000000000000000602082015250565b5f611c536029836114e8565b9150611c5e82611bf9565b604082019050919050565b5f6020820190508181035f830152611c8081611c47565b9050919050565b7f4e6f7420666f756e6400000000000000000000000000000000000000000000005f82015250565b5f611cbb6009836114e8565b9150611cc682611c87565b602082019050919050565b5f6020820190508181035f830152611ce881611caf565b9050919050565b5f6020601f8301049050919050565b5f82821b905092915050565b5f60088302611d397fffffffffffffffffffffffffffffffffffffffffffffffffffffffffffffffff82611cfe565b611d438683611cfe565b95508019841693508086168417925050509392505050565b5f819050919050565b5f611d7e611d79611d7484611471565b611d5b565b611471565b9050919050565b5f819050919050565b611d9783611d64565b611dab611da382611d85565b848454611d0a565b825550505050565b5f90565b611dbf611db3565b611dca818484611d8e565b505050565b5b81811015611ded57611de25f82611db7565b600181019050611dd0565b5050565b601f821115611e3257611e0381611add565b611e0c84611cef565b81016020851015611e1b578190505b611e2f611e2785611cef565b830182611dcf565b50505b505050565b5f82821c905092915050565b5f611e525f1984600802611e37565b1980831691505092915050565b5f611e6a8383611e43565b9150826002028217905092915050565b611e83826114de565b67ffffffffffffffff811115611e9c57611e9b611298565b5b611ea68254611aad565b611eb1828285611df1565b5f60209050601f831160018114611ee2575f8415611ed0578287015190505b611eda8582611e5f565b865550611f41565b601f198416611ef086611add565b5f5b82811015611f1757848901518255600182019150602085019450602081019050611ef2565b86831015611f345784890151611f30601f891682611e43565b8355505b6001600288020188555050505b50505050505056fea2646970667358221220b1d700c743071f2646d76ca7e8eb159f9098b9c1edbf7ae89478e46bdb11159764736f6c63430008160033",
					"opcodes": "PUSH1 0x80 PUSH1 0x40 MSTORE PUSH20 0x8C43A48745B5A4DC666F0BA9AF9B6F41C065EC22 PUSH0 DUP1 PUSH2 0x100 EXP DUP2 SLOAD DUP2 PUSH20 0xFFFFFFFFFFFFFFFFFFFFFFFFFFFFFFFFFFFFFFFF MUL NOT AND SWAP1 DUP4 PUSH20 0xFFFFFFFFFFFFFFFFFFFFFFFFFFFFFFFFFFFFFFFF AND MUL OR SWAP1 SSTORE POP CALLVALUE DUP1 ISZERO PUSH2 0x62 JUMPI PUSH0 DUP1 REVERT JUMPDEST POP PUSH2 0x1F7F DUP1 PUSH2 0x70 PUSH0 CODECOPY PUSH0 RETURN INVALID PUSH1 0x80 PUSH1 0x40 MSTORE CALLVALUE DUP1 ISZERO PUSH2 0xF JUMPI PUSH0 DUP1 REVERT JUMPDEST POP PUSH1 0x4 CALLDATASIZE LT PUSH2 0x91 JUMPI PUSH0 CALLDATALOAD PUSH1 0xE0 SHR DUP1 PUSH4 0xA3306AE3 GT PUSH2 0x64 JUMPI DUP1 PUSH4 0xA3306AE3 EQ PUSH2 0x148 JUMPI DUP1 PUSH4 0xADD6415D EQ PUSH2 0x164 JUMPI DUP1 PUSH4 0xE3726D66 EQ PUSH2 0x182 JUMPI DUP1 PUSH4 0xEC4EFA92 EQ PUSH2 0x1B2 JUMPI DUP1 PUSH4 0xFC6F9468 EQ PUSH2 0x1CE JUMPI PUSH2 0x91 JUMP JUMPDEST DUP1 PUSH4 0x48FA3A7 EQ PUSH2 0x95 JUMPI DUP1 PUSH4 0x11765B27 EQ PUSH2 0xC5 JUMPI DUP1 PUSH4 0x92AD672F EQ PUSH2 0xE3 JUMPI DUP1 PUSH4 0x99B3E96A EQ PUSH2 0x118 JUMPI JUMPDEST PUSH0 DUP1 REVERT JUMPDEST PUSH2 0xAF PUSH1 0x4 DUP1 CALLDATASIZE SUB DUP2 ADD SWAP1 PUSH2 0xAA SWAP2 SWAP1 PUSH2 0x13BC JUMP JUMPDEST PUSH2 0x1EC JUMP JUMPDEST PUSH1 0x40 MLOAD PUSH2 0xBC SWAP2 SWAP1 PUSH2 0x1430 JUMP JUMPDEST PUSH1 0x40 MLOAD DUP1 SWAP2 SUB SWAP1 RETURN JUMPDEST PUSH2 0xCD PUSH2 0x330 JUMP JUMPDEST PUSH1 0x40 MLOAD PUSH2 0xDA SWAP2 SWAP1 PUSH2 0x1458 JUMP JUMPDEST PUSH1 0x40 MLOAD DUP1 SWAP2 SUB SWAP1 RETURN JUMPDEST PUSH2 0xFD PUSH1 0x4 DUP1 CALLDATASIZE SUB DUP2 ADD SWAP1 PUSH2 0xF8 SWAP2 SWAP1 PUSH2 0x14A4 JUMP JUMPDEST PUSH2 0x355 JUMP JUMPDEST PUSH1 0x40 MLOAD PUSH2 0x10F SWAP7 SWAP6 SWAP5 SWAP4 SWAP3 SWAP2 SWAP1 PUSH2 0x1558 JUMP JUMPDEST PUSH1 0x40 MLOAD DUP1 SWAP2 SUB SWAP1 RETURN JUMPDEST PUSH2 0x132 PUSH1 0x4 DUP1 CALLDATASIZE SUB DUP2 ADD SWAP1 PUSH2 0x12D SWAP2 SWAP1 PUSH2 0x15CC JUMP JUMPDEST PUSH2 0x54D JUMP JUMPDEST PUSH1 0x40 MLOAD PUSH2 0x13F SWAP2 SWAP1 PUSH2 0x17C8 JUMP JUMPDEST PUSH1 0x40 MLOAD DUP1 SWAP2 SUB SWAP1 RETURN JUMPDEST PUSH2 0x162 PUSH1 0x4 DUP1 CALLDATASIZE SUB DUP2 ADD SWAP1 PUSH2 0x15D SWAP2 SWAP1 PUSH2 0x17E8 JUMP JUMPDEST PUSH2 0x8C1 JUMP JUMPDEST STOP JUMPDEST PUSH2 0x16C PUSH2 0x991 JUMP JUMPDEST PUSH1 0x40 MLOAD PUSH2 0x179 SWAP2 SWAP1 PUSH2 0x17C8 JUMP JUMPDEST PUSH1 0x40 MLOAD DUP1 SWAP2 SUB SWAP1 RETURN JUMPDEST PUSH2 0x19C PUSH1 0x4 DUP1 CALLDATASIZE SUB DUP2 ADD SWAP1 PUSH2 0x197 SWAP2 SWAP1 PUSH2 0x15CC JUMP JUMPDEST PUSH2 0xC05 JUMP JUMPDEST PUSH1 0x40 MLOAD PUSH2 0x1A9 SWAP2 SWAP1 PUSH2 0x18A7 JUMP JUMPDEST PUSH1 0x40 MLOAD DUP1 SWAP2 SUB SWAP1 RETURN JUMPDEST PUSH2 0x1CC PUSH1 0x4 DUP1 CALLDATASIZE SUB DUP2 ADD SWAP1 PUSH2 0x1C7 SWAP2 SWAP1 PUSH2 0x18C7 JUMP JUMPDEST PUSH2 0xF2A JUMP JUMPDEST STOP JUMPDEST PUSH2 0x1D6 PUSH2 0x10F5 JUMP JUMPDEST PUSH1 0x40 MLOAD PUSH2 0x1E3 SWAP2 SWAP1 PUSH2 0x1458 JUMP JUMPDEST PUSH1 0x40 MLOAD DUP1 SWAP2 SUB SWAP1 RETURN JUMPDEST PUSH0 DUP1 PUSH0 SWAP1 POP JUMPDEST PUSH1 0x2 DUP1 SLOAD SWAP1 POP DUP2 LT ISZERO PUSH2 0x325 JUMPI DUP4 PUSH1 0x40 MLOAD PUSH1 0x20 ADD PUSH2 0x210 SWAP2 SWAP1 PUSH2 0x19E9 JUMP JUMPDEST PUSH1 0x40 MLOAD PUSH1 0x20 DUP2 DUP4 SUB SUB DUP2 MSTORE SWAP1 PUSH1 0x40 MSTORE DUP1 MLOAD SWAP1 PUSH1 0x20 ADD KECCAK256 PUSH1 0x2 DUP3 DUP2 SLOAD DUP2 LT PUSH2 0x23A JUMPI PUSH2 0x239 PUSH2 0x1A03 JUMP JUMPDEST JUMPDEST SWAP1 PUSH0 MSTORE PUSH1 0x20 PUSH0 KECCAK256 SWAP1 PUSH1 0x6 MUL ADD PUSH1 0x3 ADD PUSH0 SWAP1 SLOAD SWAP1 PUSH2 0x100 EXP SWAP1 DIV PUSH20 0xFFFFFFFFFFFFFFFFFFFFFFFFFFFFFFFFFFFFFFFF AND PUSH1 0x40 MLOAD PUSH1 0x20 ADD PUSH2 0x279 SWAP2 SWAP1 PUSH2 0x19E9 JUMP JUMPDEST PUSH1 0x40 MLOAD PUSH1 0x20 DUP2 DUP4 SUB SUB DUP2 MSTORE SWAP1 PUSH1 0x40 MSTORE DUP1 MLOAD SWAP1 PUSH1 0x20 ADD KECCAK256 EQ DUP1 ISZERO PUSH2 0x309 JUMPI POP DUP3 PUSH1 0x40 MLOAD PUSH1 0x20 ADD PUSH2 0x2A8 SWAP2 SWAP1 PUSH2 0x1A6A JUMP JUMPDEST PUSH1 0x40 MLOAD PUSH1 0x20 DUP2 DUP4 SUB SUB DUP2 MSTORE SWAP1 PUSH1 0x40 MSTORE DUP1 MLOAD SWAP1 PUSH1 0x20 ADD KECCAK256 PUSH1 0x2 DUP3 DUP2 SLOAD DUP2 LT PUSH2 0x2D2 JUMPI PUSH2 0x2D1 PUSH2 0x1A03 JUMP JUMPDEST JUMPDEST SWAP1 PUSH0 MSTORE PUSH1 0x20 PUSH0 KECCAK256 SWAP1 PUSH1 0x6 MUL ADD PUSH1 0x1 ADD PUSH1 0x40 MLOAD PUSH1 0x20 ADD PUSH2 0x2F1 SWAP2 SWAP1 PUSH2 0x1B6F JUMP JUMPDEST PUSH1 0x40 MLOAD PUSH1 0x20 DUP2 DUP4 SUB SUB DUP2 MSTORE SWAP1 PUSH1 0x40 MSTORE DUP1 MLOAD SWAP1 PUSH1 0x20 ADD KECCAK256 EQ JUMPDEST ISZERO PUSH2 0x318 JUMPI PUSH1 0x1 SWAP2 POP POP PUSH2 0x32A JUMP JUMPDEST DUP1 DUP1 PUSH1 0x1 ADD SWAP2 POP POP PUSH2 0x1F2 JUMP JUMPDEST POP PUSH0 SWAP1 POP JUMPDEST SWAP3 SWAP2 POP POP JUMP JUMPDEST PUSH1 0x1 PUSH0 SWAP1 SLOAD SWAP1 PUSH2 0x100 EXP SWAP1 DIV PUSH20 0xFFFFFFFFFFFFFFFFFFFFFFFFFFFFFFFFFFFFFFFF AND DUP2 JUMP JUMPDEST PUSH1 0x2 DUP2 DUP2 SLOAD DUP2 LT PUSH2 0x364 JUMPI PUSH0 DUP1 REVERT JUMPDEST SWAP1 PUSH0 MSTORE PUSH1 0x20 PUSH0 KECCAK256 SWAP1 PUSH1 0x6 MUL ADD PUSH0 SWAP2 POP SWAP1 POP DUP1 PUSH0 ADD SLOAD SWAP1 DUP1 PUSH1 0x1 ADD DUP1 SLOAD PUSH2 0x389 SWAP1 PUSH2 0x1AAD JUMP JUMPDEST DUP1 PUSH1 0x1F ADD PUSH1 0x20 DUP1 SWAP2 DIV MUL PUSH1 0x20 ADD PUSH1 0x40 MLOAD SWAP1 DUP2 ADD PUSH1 0x40 MSTORE DUP1 SWAP3 SWAP2 SWAP1 DUP2 DUP2 MSTORE PUSH1 0x20 ADD DUP3 DUP1 SLOAD PUSH2 0x3B5 SWAP1 PUSH2 0x1AAD JUMP JUMPDEST DUP1 ISZERO PUSH2 0x400 JUMPI DUP1 PUSH1 0x1F LT PUSH2 0x3D7 JUMPI PUSH2 0x100 DUP1 DUP4 SLOAD DIV MUL DUP4 MSTORE SWAP2 PUSH1 0x20 ADD SWAP2 PUSH2 0x400 JUMP JUMPDEST DUP3 ADD SWAP2 SWAP1 PUSH0 MSTORE PUSH1 0x20 PUSH0 KECCAK256 SWAP1 JUMPDEST DUP2 SLOAD DUP2 MSTORE SWAP1 PUSH1 0x1 ADD SWAP1 PUSH1 0x20 ADD DUP1 DUP4 GT PUSH2 0x3E3 JUMPI DUP3 SWAP1 SUB PUSH1 0x1F AND DUP3 ADD SWAP2 JUMPDEST POP POP POP POP POP SWAP1 DUP1 PUSH1 0x2 ADD DUP1 SLOAD PUSH2 0x415 SWAP1 PUSH2 0x1AAD JUMP JUMPDEST DUP1 PUSH1 0x1F ADD PUSH1 0x20 DUP1 SWAP2 DIV MUL PUSH1 0x20 ADD PUSH1 0x40 MLOAD SWAP1 DUP2 ADD PUSH1 0x40 MSTORE DUP1 SWAP3 SWAP2 SWAP1 DUP2 DUP2 MSTORE PUSH1 0x20 ADD DUP3 DUP1 SLOAD PUSH2 0x441 SWAP1 PUSH2 0x1AAD JUMP JUMPDEST DUP1 ISZERO PUSH2 0x48C JUMPI DUP1 PUSH1 0x1F LT PUSH2 0x463 JUMPI PUSH2 0x100 DUP1 DUP4 SLOAD DIV MUL DUP4 MSTORE SWAP2 PUSH1 0x20 ADD SWAP2 PUSH2 0x48C JUMP JUMPDEST DUP3 ADD SWAP2 SWAP1 PUSH0 MSTORE PUSH1 0x20 PUSH0 KECCAK256 SWAP1 JUMPDEST DUP2 SLOAD DUP2 MSTORE SWAP1 PUSH1 0x1 ADD SWAP1 PUSH1 0x20 ADD DUP1 DUP4 GT PUSH2 0x46F JUMPI DUP3 SWAP1 SUB PUSH1 0x1F AND DUP3 ADD SWAP2 JUMPDEST POP POP POP POP POP SWAP1 DUP1 PUSH1 0x3 ADD PUSH0 SWAP1 SLOAD SWAP1 PUSH2 0x100 EXP SWAP1 DIV PUSH20 0xFFFFFFFFFFFFFFFFFFFFFFFFFFFFFFFFFFFFFFFF AND SWAP1 DUP1 PUSH1 0x4 ADD SLOAD SWAP1 DUP1 PUSH1 0x5 ADD DUP1 SLOAD PUSH2 0x4CC SWAP1 PUSH2 0x1AAD JUMP JUMPDEST DUP1 PUSH1 0x1F ADD PUSH1 0x20 DUP1 SWAP2 DIV MUL PUSH1 0x20 ADD PUSH1 0x40 MLOAD SWAP1 DUP2 ADD PUSH1 0x40 MSTORE DUP1 SWAP3 SWAP2 SWAP1 DUP2 DUP2 MSTORE PUSH1 0x20 ADD DUP3 DUP1 SLOAD PUSH2 0x4F8 SWAP1 PUSH2 0x1AAD JUMP JUMPDEST DUP1 ISZERO PUSH2 0x543 JUMPI DUP1 PUSH1 0x1F LT PUSH2 0x51A JUMPI PUSH2 0x100 DUP1 DUP4 SLOAD DIV MUL DUP4 MSTORE SWAP2 PUSH1 0x20 ADD SWAP2 PUSH2 0x543 JUMP JUMPDEST DUP3 ADD SWAP2 SWAP1 PUSH0 MSTORE PUSH1 0x20 PUSH0 KECCAK256 SWAP1 JUMPDEST DUP2 SLOAD DUP2 MSTORE SWAP1 PUSH1 0x1 ADD SWAP1 PUSH1 0x20 ADD DUP1 DUP4 GT PUSH2 0x526 JUMPI DUP3 SWAP1 SUB PUSH1 0x1F AND DUP3 ADD SWAP2 JUMPDEST POP POP POP POP POP SWAP1 POP DUP7 JUMP JUMPDEST PUSH1 0x60 PUSH0 PUSH1 0x2 DUP1 SLOAD SWAP1 POP PUSH8 0xFFFFFFFFFFFFFFFF DUP2 GT ISZERO PUSH2 0x56F JUMPI PUSH2 0x56E PUSH2 0x1298 JUMP JUMPDEST JUMPDEST PUSH1 0x40 MLOAD SWAP1 DUP1 DUP3 MSTORE DUP1 PUSH1 0x20 MUL PUSH1 0x20 ADD DUP3 ADD PUSH1 0x40 MSTORE DUP1 ISZERO PUSH2 0x5A8 JUMPI DUP2 PUSH1 0x20 ADD JUMPDEST PUSH2 0x595 PUSH2 0x11CC JUMP JUMPDEST DUP2 MSTORE PUSH1 0x20 ADD SWAP1 PUSH1 0x1 SWAP1 SUB SWAP1 DUP2 PUSH2 0x58D JUMPI SWAP1 POP JUMPDEST POP SWAP1 POP PUSH0 DUP1 JUMPDEST PUSH1 0x2 DUP1 SLOAD SWAP1 POP DUP2 LT ISZERO PUSH2 0x8AD JUMPI DUP5 PUSH1 0x40 MLOAD PUSH1 0x20 ADD PUSH2 0x5CC SWAP2 SWAP1 PUSH2 0x1A6A JUMP JUMPDEST PUSH1 0x40 MLOAD PUSH1 0x20 DUP2 DUP4 SUB SUB DUP2 MSTORE SWAP1 PUSH1 0x40 MSTORE DUP1 MLOAD SWAP1 PUSH1 0x20 ADD KECCAK256 PUSH1 0x2 DUP3 DUP2 SLOAD DUP2 LT PUSH2 0x5F6 JUMPI PUSH2 0x5F5 PUSH2 0x1A03 JUMP JUMPDEST JUMPDEST SWAP1 PUSH0 MSTORE PUSH1 0x20 PUSH0 KECCAK256 SWAP1 PUSH1 0x6 MUL ADD PUSH1 0x1 ADD PUSH1 0x40 MLOAD PUSH1 0x20 ADD PUSH2 0x615 SWAP2 SWAP1 PUSH2 0x1B6F JUMP JUMPDEST PUSH1 0x40 MLOAD PUSH1 0x20 DUP2 DUP4 SUB SUB DUP2 MSTORE SWAP1 PUSH1 0x40 MSTORE DUP1 MLOAD SWAP1 PUSH1 0x20 ADD KECCAK256 SUB PUSH2 0x8A0 JUMPI PUSH1 0x2 DUP2 DUP2 SLOAD DUP2 LT PUSH2 0x644 JUMPI PUSH2 0x643 PUSH2 0x1A03 JUMP JUMPDEST JUMPDEST SWAP1 PUSH0 MSTORE PUSH1 0x20 PUSH0 KECCAK256 SWAP1 PUSH1 0x6 MUL ADD PUSH1 0x40 MLOAD DUP1 PUSH1 0xC0 ADD PUSH1 0x40 MSTORE SWAP1 DUP2 PUSH0 DUP3 ADD SLOAD DUP2 MSTORE PUSH1 0x20 ADD PUSH1 0x1 DUP3 ADD DUP1 SLOAD PUSH2 0x674 SWAP1 PUSH2 0x1AAD JUMP JUMPDEST DUP1 PUSH1 0x1F ADD PUSH1 0x20 DUP1 SWAP2 DIV MUL PUSH1 0x20 ADD PUSH1 0x40 MLOAD SWAP1 DUP2 ADD PUSH1 0x40 MSTORE DUP1 SWAP3 SWAP2 SWAP1 DUP2 DUP2 MSTORE PUSH1 0x20 ADD DUP3 DUP1 SLOAD PUSH2 0x6A0 SWAP1 PUSH2 0x1AAD JUMP JUMPDEST DUP1 ISZERO PUSH2 0x6EB JUMPI DUP1 PUSH1 0x1F LT PUSH2 0x6C2 JUMPI PUSH2 0x100 DUP1 DUP4 SLOAD DIV MUL DUP4 MSTORE SWAP2 PUSH1 0x20 ADD SWAP2 PUSH2 0x6EB JUMP JUMPDEST DUP3 ADD SWAP2 SWAP1 PUSH0 MSTORE PUSH1 0x20 PUSH0 KECCAK256 SWAP1 JUMPDEST DUP2 SLOAD DUP2 MSTORE SWAP1 PUSH1 0x1 ADD SWAP1 PUSH1 0x20 ADD DUP1 DUP4 GT PUSH2 0x6CE JUMPI DUP3 SWAP1 SUB PUSH1 0x1F AND DUP3 ADD SWAP2 JUMPDEST POP POP POP POP POP DUP2 MSTORE PUSH1 0x20 ADD PUSH1 0x2 DUP3 ADD DUP1 SLOAD PUSH2 0x704 SWAP1 PUSH2 0x1AAD JUMP JUMPDEST DUP1 PUSH1 0x1F ADD PUSH1 0x20 DUP1 SWAP2 DIV MUL PUSH1 0x20 ADD PUSH1 0x40 MLOAD SWAP1 DUP2 ADD PUSH1 0x40 MSTORE DUP1 SWAP3 SWAP2 SWAP1 DUP2 DUP2 MSTORE PUSH1 0x20 ADD DUP3 DUP1 SLOAD PUSH2 0x730 SWAP1 PUSH2 0x1AAD JUMP JUMPDEST DUP1 ISZERO PUSH2 0x77B JUMPI DUP1 PUSH1 0x1F LT PUSH2 0x752 JUMPI PUSH2 0x100 DUP1 DUP4 SLOAD DIV MUL DUP4 MSTORE SWAP2 PUSH1 0x20 ADD SWAP2 PUSH2 0x77B JUMP JUMPDEST DUP3 ADD SWAP2 SWAP1 PUSH0 MSTORE PUSH1 0x20 PUSH0 KECCAK256 SWAP1 JUMPDEST DUP2 SLOAD DUP2 MSTORE SWAP1 PUSH1 0x1 ADD SWAP1 PUSH1 0x20 ADD DUP1 DUP4 GT PUSH2 0x75E JUMPI DUP3 SWAP1 SUB PUSH1 0x1F AND DUP3 ADD SWAP2 JUMPDEST POP POP POP POP POP DUP2 MSTORE PUSH1 0x20 ADD PUSH1 0x3 DUP3 ADD PUSH0 SWAP1 SLOAD SWAP1 PUSH2 0x100 EXP SWAP1 DIV PUSH20 0xFFFFFFFFFFFFFFFFFFFFFFFFFFFFFFFFFFFFFFFF AND PUSH20 0xFFFFFFFFFFFFFFFFFFFFFFFFFFFFFFFFFFFFFFFF AND PUSH20 0xFFFFFFFFFFFFFFFFFFFFFFFFFFFFFFFFFFFFFFFF AND DUP2 MSTORE PUSH1 0x20 ADD PUSH1 0x4 DUP3 ADD SLOAD DUP2 MSTORE PUSH1 0x20 ADD PUSH1 0x5 DUP3 ADD DUP1 SLOAD PUSH2 0x7F3 SWAP1 PUSH2 0x1AAD JUMP JUMPDEST DUP1 PUSH1 0x1F ADD PUSH1 0x20 DUP1 SWAP2 DIV MUL PUSH1 0x20 ADD PUSH1 0x40 MLOAD SWAP1 DUP2 ADD PUSH1 0x40 MSTORE DUP1 SWAP3 SWAP2 SWAP1 DUP2 DUP2 MSTORE PUSH1 0x20 ADD DUP3 DUP1 SLOAD PUSH2 0x81F SWAP1 PUSH2 0x1AAD JUMP JUMPDEST DUP1 ISZERO PUSH2 0x86A JUMPI DUP1 PUSH1 0x1F LT PUSH2 0x841 JUMPI PUSH2 0x100 DUP1 DUP4 SLOAD DIV MUL DUP4 MSTORE SWAP2 PUSH1 0x20 ADD SWAP2 PUSH2 0x86A JUMP JUMPDEST DUP3 ADD SWAP2 SWAP1 PUSH0 MSTORE PUSH1 0x20 PUSH0 KECCAK256 SWAP1 JUMPDEST DUP2 SLOAD DUP2 MSTORE SWAP1 PUSH1 0x1 ADD SWAP1 PUSH1 0x20 ADD DUP1 DUP4 GT PUSH2 0x84D JUMPI DUP3 SWAP1 SUB PUSH1 0x1F AND DUP3 ADD SWAP2 JUMPDEST POP POP POP POP POP DUP2 MSTORE POP POP DUP4 DUP3 DUP2 MLOAD DUP2 LT PUSH2 0x886 JUMPI PUSH2 0x885 PUSH2 0x1A03 JUMP JUMPDEST JUMPDEST PUSH1 0x20 MUL PUSH1 0x20 ADD ADD DUP2 SWAP1 MSTORE POP DUP2 DUP1 PUSH2 0x89C SWAP1 PUSH2 0x1BB2 JUMP JUMPDEST SWAP3 POP POP JUMPDEST DUP1 DUP1 PUSH1 0x1 ADD SWAP2 POP POP PUSH2 0x5AE JUMP JUMPDEST POP PUSH2 0x8B8 DUP3 DUP3 PUSH2 0x1118 JUMP JUMPDEST SWAP3 POP POP POP SWAP2 SWAP1 POP JUMP JUMPDEST PUSH0 DUP1 SLOAD SWAP1 PUSH2 0x100 EXP SWAP1 DIV PUSH20 0xFFFFFFFFFFFFFFFFFFFFFFFFFFFFFFFFFFFFFFFF AND PUSH20 0xFFFFFFFFFFFFFFFFFFFFFFFFFFFFFFFFFFFFFFFF AND CALLER PUSH20 0xFFFFFFFFFFFFFFFFFFFFFFFFFFFFFFFFFFFFFFFF AND EQ PUSH2 0x94E JUMPI PUSH1 0x40 MLOAD PUSH32 0x8C379A000000000000000000000000000000000000000000000000000000000 DUP2 MSTORE PUSH1 0x4 ADD PUSH2 0x945 SWAP1 PUSH2 0x1C69 JUMP JUMPDEST PUSH1 0x40 MLOAD DUP1 SWAP2 SUB SWAP1 REVERT JUMPDEST DUP1 PUSH1 0x1 PUSH0 PUSH2 0x100 EXP DUP2 SLOAD DUP2 PUSH20 0xFFFFFFFFFFFFFFFFFFFFFFFFFFFFFFFFFFFFFFFF MUL NOT AND SWAP1 DUP4 PUSH20 0xFFFFFFFFFFFFFFFFFFFFFFFFFFFFFFFFFFFFFFFF AND MUL OR SWAP1 SSTORE POP POP JUMP JUMPDEST PUSH1 0x60 PUSH1 0x2 DUP1 SLOAD DUP1 PUSH1 0x20 MUL PUSH1 0x20 ADD PUSH1 0x40 MLOAD SWAP1 DUP2 ADD PUSH1 0x40 MSTORE DUP1 SWAP3 SWAP2 SWAP1 DUP2 DUP2 MSTORE PUSH1 0x20 ADD PUSH0 SWAP1 JUMPDEST DUP3 DUP3 LT ISZERO PUSH2 0xBFC JUMPI DUP4 DUP3 SWAP1 PUSH0 MSTORE PUSH1 0x20 PUSH0 KECCAK256 SWAP1 PUSH1 0x6 MUL ADD PUSH1 0x40 MLOAD DUP1 PUSH1 0xC0 ADD PUSH1 0x40 MSTORE SWAP1 DUP2 PUSH0 DUP3 ADD SLOAD DUP2 MSTORE PUSH1 0x20 ADD PUSH1 0x1 DUP3 ADD DUP1 SLOAD PUSH2 0x9EE SWAP1 PUSH2 0x1AAD JUMP JUMPDEST DUP1 PUSH1 0x1F ADD PUSH1 0x20 DUP1 SWAP2 DIV MUL PUSH1 0x20 ADD PUSH1 0x40 MLOAD SWAP1 DUP2 ADD PUSH1 0x40 MSTORE DUP1 SWAP3 SWAP2 SWAP1 DUP2 DUP2 MSTORE PUSH1 0x20 ADD DUP3 DUP1 SLOAD PUSH2 0xA1A SWAP1 PUSH2 0x1AAD JUMP JUMPDEST DUP1 ISZERO PUSH2 0xA65 JUMPI DUP1 PUSH1 0x1F LT PUSH2 0xA3C JUMPI PUSH2 0x100 DUP1 DUP4 SLOAD DIV MUL DUP4 MSTORE SWAP2 PUSH1 0x20 ADD SWAP2 PUSH2 0xA65 JUMP JUMPDEST DUP3 ADD SWAP2 SWAP1 PUSH0 MSTORE PUSH1 0x20 PUSH0 KECCAK256 SWAP1 JUMPDEST DUP2 SLOAD DUP2 MSTORE SWAP1 PUSH1 0x1 ADD SWAP1 PUSH1 0x20 ADD DUP1 DUP4 GT PUSH2 0xA48 JUMPI DUP3 SWAP1 SUB PUSH1 0x1F AND DUP3 ADD SWAP2 JUMPDEST POP POP POP POP POP DUP2 MSTORE PUSH1 0x20 ADD PUSH1 0x2 DUP3 ADD DUP1 SLOAD PUSH2 0xA7E SWAP1 PUSH2 0x1AAD JUMP JUMPDEST DUP1 PUSH1 0x1F ADD PUSH1 0x20 DUP1 SWAP2 DIV MUL PUSH1 0x20 ADD PUSH1 0x40 MLOAD SWAP1 DUP2 ADD PUSH1 0x40 MSTORE DUP1 SWAP3 SWAP2 SWAP1 DUP2 DUP2 MSTORE PUSH1 0x20 ADD DUP3 DUP1 SLOAD PUSH2 0xAAA SWAP1 PUSH2 0x1AAD JUMP JUMPDEST DUP1 ISZERO PUSH2 0xAF5 JUMPI DUP1 PUSH1 0x1F LT PUSH2 0xACC JUMPI PUSH2 0x100 DUP1 DUP4 SLOAD DIV MUL DUP4 MSTORE SWAP2 PUSH1 0x20 ADD SWAP2 PUSH2 0xAF5 JUMP JUMPDEST DUP3 ADD SWAP2 SWAP1 PUSH0 MSTORE PUSH1 0x20 PUSH0 KECCAK256 SWAP1 JUMPDEST DUP2 SLOAD DUP2 MSTORE SWAP1 PUSH1 0x1 ADD SWAP1 PUSH1 0x20 ADD DUP1 DUP4 GT PUSH2 0xAD8 JUMPI DUP3 SWAP1 SUB PUSH1 0x1F AND DUP3 ADD SWAP2 JUMPDEST POP POP POP POP POP DUP2 MSTORE PUSH1 0x20 ADD PUSH1 0x3 DUP3 ADD PUSH0 SWAP1 SLOAD SWAP1 PUSH2 0x100 EXP SWAP1 DIV PUSH20 0xFFFFFFFFFFFFFFFFFFFFFFFFFFFFFFFFFFFFFFFF AND PUSH20 0xFFFFFFFFFFFFFFFFFFFFFFFFFFFFFFFFFFFFFFFF AND PUSH20 0xFFFFFFFFFFFFFFFFFFFFFFFFFFFFFFFFFFFFFFFF AND DUP2 MSTORE PUSH1 0x20 ADD PUSH1 0x4 DUP3 ADD SLOAD DUP2 MSTORE PUSH1 0x20 ADD PUSH1 0x5 DUP3 ADD DUP1 SLOAD PUSH2 0xB6D SWAP1 PUSH2 0x1AAD JUMP JUMPDEST DUP1 PUSH1 0x1F ADD PUSH1 0x20 DUP1 SWAP2 DIV MUL PUSH1 0x20 ADD PUSH1 0x40 MLOAD SWAP1 DUP2 ADD PUSH1 0x40 MSTORE DUP1 SWAP3 SWAP2 SWAP1 DUP2 DUP2 MSTORE PUSH1 0x20 ADD DUP3 DUP1 SLOAD PUSH2 0xB99 SWAP1 PUSH2 0x1AAD JUMP JUMPDEST DUP1 ISZERO PUSH2 0xBE4 JUMPI DUP1 PUSH1 0x1F LT PUSH2 0xBBB JUMPI PUSH2 0x100 DUP1 DUP4 SLOAD DIV MUL DUP4 MSTORE SWAP2 PUSH1 0x20 ADD SWAP2 PUSH2 0xBE4 JUMP JUMPDEST DUP3 ADD SWAP2 SWAP1 PUSH0 MSTORE PUSH1 0x20 PUSH0 KECCAK256 SWAP1 JUMPDEST DUP2 SLOAD DUP2 MSTORE SWAP1 PUSH1 0x1 ADD SWAP1 PUSH1 0x20 ADD DUP1 DUP4 GT PUSH2 0xBC7 JUMPI DUP3 SWAP1 SUB PUSH1 0x1F AND DUP3 ADD SWAP2 JUMPDEST POP POP POP POP POP DUP2 MSTORE POP POP DUP2 MSTORE PUSH1 0x20 ADD SWAP1 PUSH1 0x1 ADD SWAP1 PUSH2 0x9B4 JUMP JUMPDEST POP POP POP POP SWAP1 POP SWAP1 JUMP JUMPDEST PUSH2 0xC0D PUSH2 0x11CC JUMP JUMPDEST PUSH0 JUMPDEST PUSH1 0x2 DUP1 SLOAD SWAP1 POP DUP2 LT ISZERO PUSH2 0xEE9 JUMPI DUP3 PUSH1 0x40 MLOAD PUSH1 0x20 ADD PUSH2 0xC2D SWAP2 SWAP1 PUSH2 0x1A6A JUMP JUMPDEST PUSH1 0x40 MLOAD PUSH1 0x20 DUP2 DUP4 SUB SUB DUP2 MSTORE SWAP1 PUSH1 0x40 MSTORE DUP1 MLOAD SWAP1 PUSH1 0x20 ADD KECCAK256 PUSH1 0x2 DUP3 DUP2 SLOAD DUP2 LT PUSH2 0xC57 JUMPI PUSH2 0xC56 PUSH2 0x1A03 JUMP JUMPDEST JUMPDEST SWAP1 PUSH0 MSTORE PUSH1 0x20 PUSH0 KECCAK256 SWAP1 PUSH1 0x6 MUL ADD PUSH1 0x2 ADD PUSH1 0x40 MLOAD PUSH1 0x20 ADD PUSH2 0xC76 SWAP2 SWAP1 PUSH2 0x1B6F JUMP JUMPDEST PUSH1 0x40 MLOAD PUSH1 0x20 DUP2 DUP4 SUB SUB DUP2 MSTORE SWAP1 PUSH1 0x40 MSTORE DUP1 MLOAD SWAP1 PUSH1 0x20 ADD KECCAK256 SUB PUSH2 0xEDC JUMPI PUSH1 0x2 DUP2 DUP2 SLOAD DUP2 LT PUSH2 0xCA5 JUMPI PUSH2 0xCA4 PUSH2 0x1A03 JUMP JUMPDEST JUMPDEST SWAP1 PUSH0 MSTORE PUSH1 0x20 PUSH0 KECCAK256 SWAP1 PUSH1 0x6 MUL ADD PUSH1 0x40 MLOAD DUP1 PUSH1 0xC0 ADD PUSH1 0x40 MSTORE SWAP1 DUP2 PUSH0 DUP3 ADD SLOAD DUP2 MSTORE PUSH1 0x20 ADD PUSH1 0x1 DUP3 ADD DUP1 SLOAD PUSH2 0xCD5 SWAP1 PUSH2 0x1AAD JUMP JUMPDEST DUP1 PUSH1 0x1F ADD PUSH1 0x20 DUP1 SWAP2 DIV MUL PUSH1 0x20 ADD PUSH1 0x40 MLOAD SWAP1 DUP2 ADD PUSH1 0x40 MSTORE DUP1 SWAP3 SWAP2 SWAP1 DUP2 DUP2 MSTORE PUSH1 0x20 ADD DUP3 DUP1 SLOAD PUSH2 0xD01 SWAP1 PUSH2 0x1AAD JUMP JUMPDEST DUP1 ISZERO PUSH2 0xD4C JUMPI DUP1 PUSH1 0x1F LT PUSH2 0xD23 JUMPI PUSH2 0x100 DUP1 DUP4 SLOAD DIV MUL DUP4 MSTORE SWAP2 PUSH1 0x20 ADD SWAP2 PUSH2 0xD4C JUMP JUMPDEST DUP3 ADD SWAP2 SWAP1 PUSH0 MSTORE PUSH1 0x20 PUSH0 KECCAK256 SWAP1 JUMPDEST DUP2 SLOAD DUP2 MSTORE SWAP1 PUSH1 0x1 ADD SWAP1 PUSH1 0x20 ADD DUP1 DUP4 GT PUSH2 0xD2F JUMPI DUP3 SWAP1 SUB PUSH1 0x1F AND DUP3 ADD SWAP2 JUMPDEST POP POP POP POP POP DUP2 MSTORE PUSH1 0x20 ADD PUSH1 0x2 DUP3 ADD DUP1 SLOAD PUSH2 0xD65 SWAP1 PUSH2 0x1AAD JUMP JUMPDEST DUP1 PUSH1 0x1F ADD PUSH1 0x20 DUP1 SWAP2 DIV MUL PUSH1 0x20 ADD PUSH1 0x40 MLOAD SWAP1 DUP2 ADD PUSH1 0x40 MSTORE DUP1 SWAP3 SWAP2 SWAP1 DUP2 DUP2 MSTORE PUSH1 0x20 ADD DUP3 DUP1 SLOAD PUSH2 0xD91 SWAP1 PUSH2 0x1AAD JUMP JUMPDEST DUP1 ISZERO PUSH2 0xDDC JUMPI DUP1 PUSH1 0x1F LT PUSH2 0xDB3 JUMPI PUSH2 0x100 DUP1 DUP4 SLOAD DIV MUL DUP4 MSTORE SWAP2 PUSH1 0x20 ADD SWAP2 PUSH2 0xDDC JUMP JUMPDEST DUP3 ADD SWAP2 SWAP1 PUSH0 MSTORE PUSH1 0x20 PUSH0 KECCAK256 SWAP1 JUMPDEST DUP2 SLOAD DUP2 MSTORE SWAP1 PUSH1 0x1 ADD SWAP1 PUSH1 0x20 ADD DUP1 DUP4 GT PUSH2 0xDBF JUMPI DUP3 SWAP1 SUB PUSH1 0x1F AND DUP3 ADD SWAP2 JUMPDEST POP POP POP POP POP DUP2 MSTORE PUSH1 0x20 ADD PUSH1 0x3 DUP3 ADD PUSH0 SWAP1 SLOAD SWAP1 PUSH2 0x100 EXP SWAP1 DIV PUSH20 0xFFFFFFFFFFFFFFFFFFFFFFFFFFFFFFFFFFFFFFFF AND PUSH20 0xFFFFFFFFFFFFFFFFFFFFFFFFFFFFFFFFFFFFFFFF AND PUSH20 0xFFFFFFFFFFFFFFFFFFFFFFFFFFFFFFFFFFFFFFFF AND DUP2 MSTORE PUSH1 0x20 ADD PUSH1 0x4 DUP3 ADD SLOAD DUP2 MSTORE PUSH1 0x20 ADD PUSH1 0x5 DUP3 ADD DUP1 SLOAD PUSH2 0xE54 SWAP1 PUSH2 0x1AAD JUMP JUMPDEST DUP1 PUSH1 0x1F ADD PUSH1 0x20 DUP1 SWAP2 DIV MUL PUSH1 0x20 ADD PUSH1 0x40 MLOAD SWAP1 DUP2 ADD PUSH1 0x40 MSTORE DUP1 SWAP3 SWAP2 SWAP1 DUP2 DUP2 MSTORE PUSH1 0x20 ADD DUP3 DUP1 SLOAD PUSH2 0xE80 SWAP1 PUSH2 0x1AAD JUMP JUMPDEST DUP1 ISZERO PUSH2 0xECB JUMPI DUP1 PUSH1 0x1F LT PUSH2 0xEA2 JUMPI PUSH2 0x100 DUP1 DUP4 SLOAD DIV MUL DUP4 MSTORE SWAP2 PUSH1 0x20 ADD SWAP2 PUSH2 0xECB JUMP JUMPDEST DUP3 ADD SWAP2 SWAP1 PUSH0 MSTORE PUSH1 0x20 PUSH0 KECCAK256 SWAP1 JUMPDEST DUP2 SLOAD DUP2 MSTORE SWAP1 PUSH1 0x1 ADD SWAP1 PUSH1 0x20 ADD DUP1 DUP4 GT PUSH2 0xEAE JUMPI DUP3 SWAP1 SUB PUSH1 0x1F AND DUP3 ADD SWAP2 JUMPDEST POP POP POP POP POP DUP2 MSTORE POP POP SWAP2 POP POP PUSH2 0xF25 JUMP JUMPDEST DUP1 DUP1 PUSH1 0x1 ADD SWAP2 POP POP PUSH2 0xC0F JUMP JUMPDEST POP PUSH1 0x40 MLOAD PUSH32 0x8C379A000000000000000000000000000000000000000000000000000000000 DUP2 MSTORE PUSH1 0x4 ADD PUSH2 0xF1C SWAP1 PUSH2 0x1CD1 JUMP JUMPDEST PUSH1 0x40 MLOAD DUP1 SWAP2 SUB SWAP1 REVERT JUMPDEST SWAP2 SWAP1 POP JUMP JUMPDEST PUSH1 0x1 PUSH0 SWAP1 SLOAD SWAP1 PUSH2 0x100 EXP SWAP1 DIV PUSH20 0xFFFFFFFFFFFFFFFFFFFFFFFFFFFFFFFFFFFFFFFF AND PUSH20 0xFFFFFFFFFFFFFFFFFFFFFFFFFFFFFFFFFFFFFFFF AND CALLER PUSH20 0xFFFFFFFFFFFFFFFFFFFFFFFFFFFFFFFFFFFFFFFF AND EQ PUSH2 0xFB9 JUMPI PUSH1 0x40 MLOAD PUSH32 0x8C379A000000000000000000000000000000000000000000000000000000000 DUP2 MSTORE PUSH1 0x4 ADD PUSH2 0xFB0 SWAP1 PUSH2 0x1C69 JUMP JUMPDEST PUSH1 0x40 MLOAD DUP1 SWAP2 SUB SWAP1 REVERT JUMPDEST PUSH2 0xFC1 PUSH2 0x11CC JUMP JUMPDEST DUP7 DUP2 PUSH0 ADD DUP2 DUP2 MSTORE POP POP DUP6 DUP2 PUSH1 0x20 ADD DUP2 SWAP1 MSTORE POP DUP5 DUP2 PUSH1 0x40 ADD DUP2 SWAP1 MSTORE POP DUP4 DUP2 PUSH1 0x60 ADD SWAP1 PUSH20 0xFFFFFFFFFFFFFFFFFFFFFFFFFFFFFFFFFFFFFFFF AND SWAP1 DUP2 PUSH20 0xFFFFFFFFFFFFFFFFFFFFFFFFFFFFFFFFFFFFFFFF AND DUP2 MSTORE POP POP DUP3 DUP2 PUSH1 0x80 ADD DUP2 DUP2 MSTORE POP POP DUP2 DUP2 PUSH1 0xA0 ADD DUP2 SWAP1 MSTORE POP PUSH1 0x2 DUP2 SWAP1 DUP1 PUSH1 0x1 DUP2 SLOAD ADD DUP1 DUP3 SSTORE DUP1 SWAP2 POP POP PUSH1 0x1 SWAP1 SUB SWAP1 PUSH0 MSTORE PUSH1 0x20 PUSH0 KECCAK256 SWAP1 PUSH1 0x6 MUL ADD PUSH0 SWAP1 SWAP2 SWAP1 SWAP2 SWAP1 SWAP2 POP PUSH0 DUP3 ADD MLOAD DUP2 PUSH0 ADD SSTORE PUSH1 0x20 DUP3 ADD MLOAD DUP2 PUSH1 0x1 ADD SWAP1 DUP2 PUSH2 0x106D SWAP2 SWAP1 PUSH2 0x1E7A JUMP JUMPDEST POP PUSH1 0x40 DUP3 ADD MLOAD DUP2 PUSH1 0x2 ADD SWAP1 DUP2 PUSH2 0x1083 SWAP2 SWAP1 PUSH2 0x1E7A JUMP JUMPDEST POP PUSH1 0x60 DUP3 ADD MLOAD DUP2 PUSH1 0x3 ADD PUSH0 PUSH2 0x100 EXP DUP2 SLOAD DUP2 PUSH20 0xFFFFFFFFFFFFFFFFFFFFFFFFFFFFFFFFFFFFFFFF MUL NOT AND SWAP1 DUP4 PUSH20 0xFFFFFFFFFFFFFFFFFFFFFFFFFFFFFFFFFFFFFFFF AND MUL OR SWAP1 SSTORE POP PUSH1 0x80 DUP3 ADD MLOAD DUP2 PUSH1 0x4 ADD SSTORE PUSH1 0xA0 DUP3 ADD MLOAD DUP2 PUSH1 0x5 ADD SWAP1 DUP2 PUSH2 0x10E9 SWAP2 SWAP1 PUSH2 0x1E7A JUMP JUMPDEST POP POP POP POP POP POP POP POP POP POP JUMP JUMPDEST PUSH0 DUP1 SLOAD SWAP1 PUSH2 0x100 EXP SWAP1 DIV PUSH20 0xFFFFFFFFFFFFFFFFFFFFFFFFFFFFFFFFFFFFFFFF AND DUP2 JUMP JUMPDEST PUSH1 0x60 PUSH0 DUP3 PUSH8 0xFFFFFFFFFFFFFFFF DUP2 GT ISZERO PUSH2 0x1135 JUMPI PUSH2 0x1134 PUSH2 0x1298 JUMP JUMPDEST JUMPDEST PUSH1 0x40 MLOAD SWAP1 DUP1 DUP3 MSTORE DUP1 PUSH1 0x20 MUL PUSH1 0x20 ADD DUP3 ADD PUSH1 0x40 MSTORE DUP1 ISZERO PUSH2 0x116E JUMPI DUP2 PUSH1 0x20 ADD JUMPDEST PUSH2 0x115B PUSH2 0x11CC JUMP JUMPDEST DUP2 MSTORE PUSH1 0x20 ADD SWAP1 PUSH1 0x1 SWAP1 SUB SWAP1 DUP2 PUSH2 0x1153 JUMPI SWAP1 POP JUMPDEST POP SWAP1 POP PUSH0 JUMPDEST DUP4 DUP2 LT ISZERO PUSH2 0x11C1 JUMPI DUP5 DUP2 DUP2 MLOAD DUP2 LT PUSH2 0x118E JUMPI PUSH2 0x118D PUSH2 0x1A03 JUMP JUMPDEST JUMPDEST PUSH1 0x20 MUL PUSH1 0x20 ADD ADD MLOAD DUP3 DUP3 DUP2 MLOAD DUP2 LT PUSH2 0x11A9 JUMPI PUSH2 0x11A8 PUSH2 0x1A03 JUMP JUMPDEST JUMPDEST PUSH1 0x20 MUL PUSH1 0x20 ADD ADD DUP2 SWAP1 MSTORE POP DUP1 DUP1 PUSH1 0x1 ADD SWAP2 POP POP PUSH2 0x1173 JUMP JUMPDEST POP DUP1 SWAP2 POP POP SWAP3 SWAP2 POP POP JUMP JUMPDEST PUSH1 0x40 MLOAD DUP1 PUSH1 0xC0 ADD PUSH1 0x40 MSTORE DUP1 PUSH0 DUP2 MSTORE PUSH1 0x20 ADD PUSH1 0x60 DUP2 MSTORE PUSH1 0x20 ADD PUSH1 0x60 DUP2 MSTORE PUSH1 0x20 ADD PUSH0 PUSH20 0xFFFFFFFFFFFFFFFFFFFFFFFFFFFFFFFFFFFFFFFF AND DUP2 MSTORE PUSH1 0x20 ADD PUSH0 DUP2 MSTORE PUSH1 0x20 ADD PUSH1 0x60 DUP2 MSTORE POP SWAP1 JUMP JUMPDEST PUSH0 PUSH1 0x40 MLOAD SWAP1 POP SWAP1 JUMP JUMPDEST PUSH0 DUP1 REVERT JUMPDEST PUSH0 DUP1 REVERT JUMPDEST PUSH0 PUSH20 0xFFFFFFFFFFFFFFFFFFFFFFFFFFFFFFFFFFFFFFFF DUP3 AND SWAP1 POP SWAP2 SWAP1 POP JUMP JUMPDEST PUSH0 PUSH2 0x124F DUP3 PUSH2 0x1226 JUMP JUMPDEST SWAP1 POP SWAP2 SWAP1 POP JUMP JUMPDEST PUSH2 0x125F DUP2 PUSH2 0x1245 JUMP JUMPDEST DUP2 EQ PUSH2 0x1269 JUMPI PUSH0 DUP1 REVERT JUMPDEST POP JUMP JUMPDEST PUSH0 DUP2 CALLDATALOAD SWAP1 POP PUSH2 0x127A DUP2 PUSH2 0x1256 JUMP JUMPDEST SWAP3 SWAP2 POP POP JUMP JUMPDEST PUSH0 DUP1 REVERT JUMPDEST PUSH0 DUP1 REVERT JUMPDEST PUSH0 PUSH1 0x1F NOT PUSH1 0x1F DUP4 ADD AND SWAP1 POP SWAP2 SWAP1 POP JUMP JUMPDEST PUSH32 0x4E487B7100000000000000000000000000000000000000000000000000000000 PUSH0 MSTORE PUSH1 0x41 PUSH1 0x4 MSTORE PUSH1 0x24 PUSH0 REVERT JUMPDEST PUSH2 0x12CE DUP3 PUSH2 0x1288 JUMP JUMPDEST DUP2 ADD DUP2 DUP2 LT PUSH8 0xFFFFFFFFFFFFFFFF DUP3 GT OR ISZERO PUSH2 0x12ED JUMPI PUSH2 0x12EC PUSH2 0x1298 JUMP JUMPDEST JUMPDEST DUP1 PUSH1 0x40 MSTORE POP POP POP JUMP JUMPDEST PUSH0 PUSH2 0x12FF PUSH2 0x1215 JUMP JUMPDEST SWAP1 POP PUSH2 0x130B DUP3 DUP3 PUSH2 0x12C5 JUMP JUMPDEST SWAP2 SWAP1 POP JUMP JUMPDEST PUSH0 PUSH8 0xFFFFFFFFFFFFFFFF DUP3 GT ISZERO PUSH2 0x132A JUMPI PUSH2 0x1329 PUSH2 0x1298 JUMP JUMPDEST JUMPDEST PUSH2 0x1333 DUP3 PUSH2 0x1288 JUMP JUMPDEST SWAP1 POP PUSH1 0x20 DUP2 ADD SWAP1 POP SWAP2 SWAP1 POP JUMP JUMPDEST DUP3 DUP2 DUP4 CALLDATACOPY PUSH0 DUP4 DUP4 ADD MSTORE POP POP POP JUMP JUMPDEST PUSH0 PUSH2 0x1360 PUSH2 0x135B DUP5 PUSH2 0x1310 JUMP JUMPDEST PUSH2 0x12F6 JUMP JUMPDEST SWAP1 POP DUP3 DUP2 MSTORE PUSH1 0x20 DUP2 ADD DUP5 DUP5 DUP5 ADD GT ISZERO PUSH2 0x137C JUMPI PUSH2 0x137B PUSH2 0x1284 JUMP JUMPDEST JUMPDEST PUSH2 0x1387 DUP5 DUP3 DUP6 PUSH2 0x1340 JUMP JUMPDEST POP SWAP4 SWAP3 POP POP POP JUMP JUMPDEST PUSH0 DUP3 PUSH1 0x1F DUP4 ADD SLT PUSH2 0x13A3 JUMPI PUSH2 0x13A2 PUSH2 0x1280 JUMP JUMPDEST JUMPDEST DUP2 CALLDATALOAD PUSH2 0x13B3 DUP5 DUP3 PUSH1 0x20 DUP7 ADD PUSH2 0x134E JUMP JUMPDEST SWAP2 POP POP SWAP3 SWAP2 POP POP JUMP JUMPDEST PUSH0 DUP1 PUSH1 0x40 DUP4 DUP6 SUB SLT ISZERO PUSH2 0x13D2 JUMPI PUSH2 0x13D1 PUSH2 0x121E JUMP JUMPDEST JUMPDEST PUSH0 PUSH2 0x13DF DUP6 DUP3 DUP7 ADD PUSH2 0x126C JUMP JUMPDEST SWAP3 POP POP PUSH1 0x20 DUP4 ADD CALLDATALOAD PUSH8 0xFFFFFFFFFFFFFFFF DUP2 GT ISZERO PUSH2 0x1400 JUMPI PUSH2 0x13FF PUSH2 0x1222 JUMP JUMPDEST JUMPDEST PUSH2 0x140C DUP6 DUP3 DUP7 ADD PUSH2 0x138F JUMP JUMPDEST SWAP2 POP POP SWAP3 POP SWAP3 SWAP1 POP JUMP JUMPDEST PUSH0 DUP2 ISZERO ISZERO SWAP1 POP SWAP2 SWAP1 POP JUMP JUMPDEST PUSH2 0x142A DUP2 PUSH2 0x1416 JUMP JUMPDEST DUP3 MSTORE POP POP JUMP JUMPDEST PUSH0 PUSH1 0x20 DUP3 ADD SWAP1 POP PUSH2 0x1443 PUSH0 DUP4 ADD DUP5 PUSH2 0x1421 JUMP JUMPDEST SWAP3 SWAP2 POP POP JUMP JUMPDEST PUSH2 0x1452 DUP2 PUSH2 0x1245 JUMP JUMPDEST DUP3 MSTORE POP POP JUMP JUMPDEST PUSH0 PUSH1 0x20 DUP3 ADD SWAP1 POP PUSH2 0x146B PUSH0 DUP4 ADD DUP5 PUSH2 0x1449 JUMP JUMPDEST SWAP3 SWAP2 POP POP JUMP JUMPDEST PUSH0 DUP2 SWAP1 POP SWAP2 SWAP1 POP JUMP JUMPDEST PUSH2 0x1483 DUP2 PUSH2 0x1471 JUMP JUMPDEST DUP2 EQ PUSH2 0x148D JUMPI PUSH0 DUP1 REVERT JUMPDEST POP JUMP JUMPDEST PUSH0 DUP2 CALLDATALOAD SWAP1 POP PUSH2 0x149E DUP2 PUSH2 0x147A JUMP JUMPDEST SWAP3 SWAP2 POP POP JUMP JUMPDEST PUSH0 PUSH1 0x20 DUP3 DUP5 SUB SLT ISZERO PUSH2 0x14B9 JUMPI PUSH2 0x14B8 PUSH2 0x121E JUMP JUMPDEST JUMPDEST PUSH0 PUSH2 0x14C6 DUP5 DUP3 DUP6 ADD PUSH2 0x1490 JUMP JUMPDEST SWAP2 POP POP SWAP3 SWAP2 POP POP JUMP JUMPDEST PUSH2 0x14D8 DUP2 PUSH2 0x1471 JUMP JUMPDEST DUP3 MSTORE POP POP JUMP JUMPDEST PUSH0 DUP2 MLOAD SWAP1 POP SWAP2 SWAP1 POP JUMP JUMPDEST PUSH0 DUP3 DUP3 MSTORE PUSH1 0x20 DUP3 ADD SWAP1 POP SWAP3 SWAP2 POP POP JUMP JUMPDEST PUSH0 JUMPDEST DUP4 DUP2 LT ISZERO PUSH2 0x1515 JUMPI DUP1 DUP3 ADD MLOAD DUP2 DUP5 ADD MSTORE PUSH1 0x20 DUP2 ADD SWAP1 POP PUSH2 0x14FA JUMP JUMPDEST PUSH0 DUP5 DUP5 ADD MSTORE POP POP POP POP JUMP JUMPDEST PUSH0 PUSH2 0x152A DUP3 PUSH2 0x14DE JUMP JUMPDEST PUSH2 0x1534 DUP2 DUP6 PUSH2 0x14E8 JUMP JUMPDEST SWAP4 POP PUSH2 0x1544 DUP2 DUP6 PUSH1 0x20 DUP7 ADD PUSH2 0x14F8 JUMP JUMPDEST PUSH2 0x154D DUP2 PUSH2 0x1288 JUMP JUMPDEST DUP5 ADD SWAP2 POP POP SWAP3 SWAP2 POP POP JUMP JUMPDEST PUSH0 PUSH1 0xC0 DUP3 ADD SWAP1 POP PUSH2 0x156B PUSH0 DUP4 ADD DUP10 PUSH2 0x14CF JUMP JUMPDEST DUP2 DUP2 SUB PUSH1 0x20 DUP4 ADD MSTORE PUSH2 0x157D DUP2 DUP9 PUSH2 0x1520 JUMP JUMPDEST SWAP1 POP DUP2 DUP2 SUB PUSH1 0x40 DUP4 ADD MSTORE PUSH2 0x1591 DUP2 DUP8 PUSH2 0x1520 JUMP JUMPDEST SWAP1 POP PUSH2 0x15A0 PUSH1 0x60 DUP4 ADD DUP7 PUSH2 0x1449 JUMP JUMPDEST PUSH2 0x15AD PUSH1 0x80 DUP4 ADD DUP6 PUSH2 0x14CF JUMP JUMPDEST DUP2 DUP2 SUB PUSH1 0xA0 DUP4 ADD MSTORE PUSH2 0x15BF DUP2 DUP5 PUSH2 0x1520 JUMP JUMPDEST SWAP1 POP SWAP8 SWAP7 POP POP POP POP POP POP POP JUMP JUMPDEST PUSH0 PUSH1 0x20 DUP3 DUP5 SUB SLT ISZERO PUSH2 0x15E1 JUMPI PUSH2 0x15E0 PUSH2 0x121E JUMP JUMPDEST JUMPDEST PUSH0 DUP3 ADD CALLDATALOAD PUSH8 0xFFFFFFFFFFFFFFFF DUP2 GT ISZERO PUSH2 0x15FE JUMPI PUSH2 0x15FD PUSH2 0x1222 JUMP JUMPDEST JUMPDEST PUSH2 0x160A DUP5 DUP3 DUP6 ADD PUSH2 0x138F JUMP JUMPDEST SWAP2 POP POP SWAP3 SWAP2 POP POP JUMP JUMPDEST PUSH0 DUP2 MLOAD SWAP1 POP SWAP2 SWAP1 POP JUMP JUMPDEST PUSH0 DUP3 DUP3 MSTORE PUSH1 0x20 DUP3 ADD SWAP1 POP SWAP3 SWAP2 POP POP JUMP JUMPDEST PUSH0 DUP2 SWAP1 POP PUSH1 0x20 DUP3 ADD SWAP1 POP SWAP2 SWAP1 POP JUMP JUMPDEST PUSH2 0x1645 DUP2 PUSH2 0x1471 JUMP JUMPDEST DUP3 MSTORE POP POP JUMP JUMPDEST PUSH0 DUP3 DUP3 MSTORE PUSH1 0x20 DUP3 ADD SWAP1 POP SWAP3 SWAP2 POP POP JUMP JUMPDEST PUSH0 PUSH2 0x1665 DUP3 PUSH2 0x14DE JUMP JUMPDEST PUSH2 0x166F DUP2 DUP6 PUSH2 0x164B JUMP JUMPDEST SWAP4 POP PUSH2 0x167F DUP2 DUP6 PUSH1 0x20 DUP7 ADD PUSH2 0x14F8 JUMP JUMPDEST PUSH2 0x1688 DUP2 PUSH2 0x1288 JUMP JUMPDEST DUP5 ADD SWAP2 POP POP SWAP3 SWAP2 POP POP JUMP JUMPDEST PUSH2 0x169C DUP2 PUSH2 0x1245 JUMP JUMPDEST DUP3 MSTORE POP POP JUMP JUMPDEST PUSH0 PUSH1 0xC0 DUP4 ADD PUSH0 DUP4 ADD MLOAD PUSH2 0x16B7 PUSH0 DUP7 ADD DUP3 PUSH2 0x163C JUMP JUMPDEST POP PUSH1 0x20 DUP4 ADD MLOAD DUP5 DUP3 SUB PUSH1 0x20 DUP7 ADD MSTORE PUSH2 0x16CF DUP3 DUP3 PUSH2 0x165B JUMP JUMPDEST SWAP2 POP POP PUSH1 0x40 DUP4 ADD MLOAD DUP5 DUP3 SUB PUSH1 0x40 DUP7 ADD MSTORE PUSH2 0x16E9 DUP3 DUP3 PUSH2 0x165B JUMP JUMPDEST SWAP2 POP POP PUSH1 0x60 DUP4 ADD MLOAD PUSH2 0x16FE PUSH1 0x60 DUP7 ADD DUP3 PUSH2 0x1693 JUMP JUMPDEST POP PUSH1 0x80 DUP4 ADD MLOAD PUSH2 0x1711 PUSH1 0x80 DUP7 ADD DUP3 PUSH2 0x163C JUMP JUMPDEST POP PUSH1 0xA0 DUP4 ADD MLOAD DUP5 DUP3 SUB PUSH1 0xA0 DUP7 ADD MSTORE PUSH2 0x1729 DUP3 DUP3 PUSH2 0x165B JUMP JUMPDEST SWAP2 POP POP DUP1 SWAP2 POP POP SWAP3 SWAP2 POP POP JUMP JUMPDEST PUSH0 PUSH2 0x1741 DUP4 DUP4 PUSH2 0x16A2 JUMP JUMPDEST SWAP1 POP SWAP3 SWAP2 POP POP JUMP JUMPDEST PUSH0 PUSH1 0x20 DUP3 ADD SWAP1 POP SWAP2 SWAP1 POP JUMP JUMPDEST PUSH0 PUSH2 0x175F DUP3 PUSH2 0x1613 JUMP JUMPDEST PUSH2 0x1769 DUP2 DUP6 PUSH2 0x161D JUMP JUMPDEST SWAP4 POP DUP4 PUSH1 0x20 DUP3 MUL DUP6 ADD PUSH2 0x177B DUP6 PUSH2 0x162D JUMP JUMPDEST DUP1 PUSH0 JUMPDEST DUP6 DUP2 LT ISZERO PUSH2 0x17B6 JUMPI DUP5 DUP5 SUB DUP10 MSTORE DUP2 MLOAD PUSH2 0x1797 DUP6 DUP3 PUSH2 0x1736 JUMP JUMPDEST SWAP5 POP PUSH2 0x17A2 DUP4 PUSH2 0x1749 JUMP JUMPDEST SWAP3 POP PUSH1 0x20 DUP11 ADD SWAP10 POP POP PUSH1 0x1 DUP2 ADD SWAP1 POP PUSH2 0x177E JUMP JUMPDEST POP DUP3 SWAP8 POP DUP8 SWAP6 POP POP POP POP POP POP SWAP3 SWAP2 POP POP JUMP JUMPDEST PUSH0 PUSH1 0x20 DUP3 ADD SWAP1 POP DUP2 DUP2 SUB PUSH0 DUP4 ADD MSTORE PUSH2 0x17E0 DUP2 DUP5 PUSH2 0x1755 JUMP JUMPDEST SWAP1 POP SWAP3 SWAP2 POP POP JUMP JUMPDEST PUSH0 PUSH1 0x20 DUP3 DUP5 SUB SLT ISZERO PUSH2 0x17FD JUMPI PUSH2 0x17FC PUSH2 0x121E JUMP JUMPDEST JUMPDEST PUSH0 PUSH2 0x180A DUP5 DUP3 DUP6 ADD PUSH2 0x126C JUMP JUMPDEST SWAP2 POP POP SWAP3 SWAP2 POP POP JUMP JUMPDEST PUSH0 PUSH1 0xC0 DUP4 ADD PUSH0 DUP4 ADD MLOAD PUSH2 0x1828 PUSH0 DUP7 ADD DUP3 PUSH2 0x163C JUMP JUMPDEST POP PUSH1 0x20 DUP4 ADD MLOAD DUP5 DUP3 SUB PUSH1 0x20 DUP7 ADD MSTORE PUSH2 0x1840 DUP3 DUP3 PUSH2 0x165B JUMP JUMPDEST SWAP2 POP POP PUSH1 0x40 DUP4 ADD MLOAD DUP5 DUP3 SUB PUSH1 0x40 DUP7 ADD MSTORE PUSH2 0x185A DUP3 DUP3 PUSH2 0x165B JUMP JUMPDEST SWAP2 POP POP PUSH1 0x60 DUP4 ADD MLOAD PUSH2 0x186F PUSH1 0x60 DUP7 ADD DUP3 PUSH2 0x1693 JUMP JUMPDEST POP PUSH1 0x80 DUP4 ADD MLOAD PUSH2 0x1882 PUSH1 0x80 DUP7 ADD DUP3 PUSH2 0x163C JUMP JUMPDEST POP PUSH1 0xA0 DUP4 ADD MLOAD DUP5 DUP3 SUB PUSH1 0xA0 DUP7 ADD MSTORE PUSH2 0x189A DUP3 DUP3 PUSH2 0x165B JUMP JUMPDEST SWAP2 POP POP DUP1 SWAP2 POP POP SWAP3 SWAP2 POP POP JUMP JUMPDEST PUSH0 PUSH1 0x20 DUP3 ADD SWAP1 POP DUP2 DUP2 SUB PUSH0 DUP4 ADD MSTORE PUSH2 0x18BF DUP2 DUP5 PUSH2 0x1813 JUMP JUMPDEST SWAP1 POP SWAP3 SWAP2 POP POP JUMP JUMPDEST PUSH0 DUP1 PUSH0 DUP1 PUSH0 DUP1 PUSH1 0xC0 DUP8 DUP10 SUB SLT ISZERO PUSH2 0x18E1 JUMPI PUSH2 0x18E0 PUSH2 0x121E JUMP JUMPDEST JUMPDEST PUSH0 PUSH2 0x18EE DUP10 DUP3 DUP11 ADD PUSH2 0x1490 JUMP JUMPDEST SWAP7 POP POP PUSH1 0x20 DUP8 ADD CALLDATALOAD PUSH8 0xFFFFFFFFFFFFFFFF DUP2 GT ISZERO PUSH2 0x190F JUMPI PUSH2 0x190E PUSH2 0x1222 JUMP JUMPDEST JUMPDEST PUSH2 0x191B DUP10 DUP3 DUP11 ADD PUSH2 0x138F JUMP JUMPDEST SWAP6 POP POP PUSH1 0x40 DUP8 ADD CALLDATALOAD PUSH8 0xFFFFFFFFFFFFFFFF DUP2 GT ISZERO PUSH2 0x193C JUMPI PUSH2 0x193B PUSH2 0x1222 JUMP JUMPDEST JUMPDEST PUSH2 0x1948 DUP10 DUP3 DUP11 ADD PUSH2 0x138F JUMP JUMPDEST SWAP5 POP POP PUSH1 0x60 PUSH2 0x1959 DUP10 DUP3 DUP11 ADD PUSH2 0x126C JUMP JUMPDEST SWAP4 POP POP PUSH1 0x80 PUSH2 0x196A DUP10 DUP3 DUP11 ADD PUSH2 0x1490 JUMP JUMPDEST SWAP3 POP POP PUSH1 0xA0 DUP8 ADD CALLDATALOAD PUSH8 0xFFFFFFFFFFFFFFFF DUP2 GT ISZERO PUSH2 0x198B JUMPI PUSH2 0x198A PUSH2 0x1222 JUMP JUMPDEST JUMPDEST PUSH2 0x1997 DUP10 DUP3 DUP11 ADD PUSH2 0x138F JUMP JUMPDEST SWAP2 POP POP SWAP3 SWAP6 POP SWAP3 SWAP6 POP SWAP3 SWAP6 JUMP JUMPDEST PUSH0 DUP2 PUSH1 0x60 SHL SWAP1 POP SWAP2 SWAP1 POP JUMP JUMPDEST PUSH0 PUSH2 0x19BA DUP3 PUSH2 0x19A4 JUMP JUMPDEST SWAP1 POP SWAP2 SWAP1 POP JUMP JUMPDEST PUSH0 PUSH2 0x19CB DUP3 PUSH2 0x19B0 JUMP JUMPDEST SWAP1 POP SWAP2 SWAP1 POP JUMP JUMPDEST PUSH2 0x19E3 PUSH2 0x19DE DUP3 PUSH2 0x1245 JUMP JUMPDEST PUSH2 0x19C1 JUMP JUMPDEST DUP3 MSTORE POP POP JUMP JUMPDEST PUSH0 PUSH2 0x19F4 DUP3 DUP5 PUSH2 0x19D2 JUMP JUMPDEST PUSH1 0x14 DUP3 ADD SWAP2 POP DUP2 SWAP1 POP SWAP3 SWAP2 POP POP JUMP JUMPDEST PUSH32 0x4E487B7100000000000000000000000000000000000000000000000000000000 PUSH0 MSTORE PUSH1 0x32 PUSH1 0x4 MSTORE PUSH1 0x24 PUSH0 REVERT JUMPDEST PUSH0 DUP2 SWAP1 POP SWAP3 SWAP2 POP POP JUMP JUMPDEST PUSH0 PUSH2 0x1A44 DUP3 PUSH2 0x14DE JUMP JUMPDEST PUSH2 0x1A4E DUP2 DUP6 PUSH2 0x1A30 JUMP JUMPDEST SWAP4 POP PUSH2 0x1A5E DUP2 DUP6 PUSH1 0x20 DUP7 ADD PUSH2 0x14F8 JUMP JUMPDEST DUP1 DUP5 ADD SWAP2 POP POP SWAP3 SWAP2 POP POP JUMP JUMPDEST PUSH0 PUSH2 0x1A75 DUP3 DUP5 PUSH2 0x1A3A JUMP JUMPDEST SWAP2 POP DUP2 SWAP1 POP SWAP3 SWAP2 POP POP JUMP JUMPDEST PUSH32 0x4E487B7100000000000000000000000000000000000000000000000000000000 PUSH0 MSTORE PUSH1 0x22 PUSH1 0x4 MSTORE PUSH1 0x24 PUSH0 REVERT JUMPDEST PUSH0 PUSH1 0x2 DUP3 DIV SWAP1 POP PUSH1 0x1 DUP3 AND DUP1 PUSH2 0x1AC4 JUMPI PUSH1 0x7F DUP3 AND SWAP2 POP JUMPDEST PUSH1 0x20 DUP3 LT DUP2 SUB PUSH2 0x1AD7 JUMPI PUSH2 0x1AD6 PUSH2 0x1A80 JUMP JUMPDEST JUMPDEST POP SWAP2 SWAP1 POP JUMP JUMPDEST PUSH0 DUP2 SWAP1 POP DUP2 PUSH0 MSTORE PUSH1 0x20 PUSH0 KECCAK256 SWAP1 POP SWAP2 SWAP1 POP JUMP JUMPDEST PUSH0 DUP2 SLOAD PUSH2 0x1AFB DUP2 PUSH2 0x1AAD JUMP JUMPDEST PUSH2 0x1B05 DUP2 DUP7 PUSH2 0x1A30 JUMP JUMPDEST SWAP5 POP PUSH1 0x1 DUP3 AND PUSH0 DUP2 EQ PUSH2 0x1B1F JUMPI PUSH1 0x1 DUP2 EQ PUSH2 0x1B34 JUMPI PUSH2 0x1B66 JUMP JUMPDEST PUSH1 0xFF NOT DUP4 AND DUP7 MSTORE DUP2 ISZERO ISZERO DUP3 MUL DUP7 ADD SWAP4 POP PUSH2 0x1B66 JUMP JUMPDEST PUSH2 0x1B3D DUP6 PUSH2 0x1ADD JUMP JUMPDEST PUSH0 JUMPDEST DUP4 DUP2 LT ISZERO PUSH2 0x1B5E JUMPI DUP2 SLOAD DUP2 DUP10 ADD MSTORE PUSH1 0x1 DUP3 ADD SWAP2 POP PUSH1 0x20 DUP2 ADD SWAP1 POP PUSH2 0x1B3F JUMP JUMPDEST DUP4 DUP9 ADD SWAP6 POP POP POP JUMPDEST POP POP POP SWAP3 SWAP2 POP POP JUMP JUMPDEST PUSH0 PUSH2 0x1B7A DUP3 DUP5 PUSH2 0x1AEF JUMP JUMPDEST SWAP2 POP DUP2 SWAP1 POP SWAP3 SWAP2 POP POP JUMP JUMPDEST PUSH32 0x4E487B7100000000000000000000000000000000000000000000000000000000 PUSH0 MSTORE PUSH1 0x11 PUSH1 0x4 MSTORE PUSH1 0x24 PUSH0 REVERT JUMPDEST PUSH0 PUSH2 0x1BBC DUP3 PUSH2 0x1471 JUMP JUMPDEST SWAP2 POP PUSH32 0xFFFFFFFFFFFFFFFFFFFFFFFFFFFFFFFFFFFFFFFFFFFFFFFFFFFFFFFFFFFFFFFF DUP3 SUB PUSH2 0x1BEE JUMPI PUSH2 0x1BED PUSH2 0x1B85 JUMP JUMPDEST JUMPDEST PUSH1 0x1 DUP3 ADD SWAP1 POP SWAP2 SWAP1 POP JUMP JUMPDEST PUSH32 0x4F6E6C792063616D706169676E20636F6E74726163742063616C6C2074686973 PUSH0 DUP3 ADD MSTORE PUSH32 0x2066756E6374696F6E0000000000000000000000000000000000000000000000 PUSH1 0x20 DUP3 ADD MSTORE POP JUMP JUMPDEST PUSH0 PUSH2 0x1C53 PUSH1 0x29 DUP4 PUSH2 0x14E8 JUMP JUMPDEST SWAP2 POP PUSH2 0x1C5E DUP3 PUSH2 0x1BF9 JUMP JUMPDEST PUSH1 0x40 DUP3 ADD SWAP1 POP SWAP2 SWAP1 POP JUMP JUMPDEST PUSH0 PUSH1 0x20 DUP3 ADD SWAP1 POP DUP2 DUP2 SUB PUSH0 DUP4 ADD MSTORE PUSH2 0x1C80 DUP2 PUSH2 0x1C47 JUMP JUMPDEST SWAP1 POP SWAP2 SWAP1 POP JUMP JUMPDEST PUSH32 0x4E6F7420666F756E640000000000000000000000000000000000000000000000 PUSH0 DUP3 ADD MSTORE POP JUMP JUMPDEST PUSH0 PUSH2 0x1CBB PUSH1 0x9 DUP4 PUSH2 0x14E8 JUMP JUMPDEST SWAP2 POP PUSH2 0x1CC6 DUP3 PUSH2 0x1C87 JUMP JUMPDEST PUSH1 0x20 DUP3 ADD SWAP1 POP SWAP2 SWAP1 POP JUMP JUMPDEST PUSH0 PUSH1 0x20 DUP3 ADD SWAP1 POP DUP2 DUP2 SUB PUSH0 DUP4 ADD MSTORE PUSH2 0x1CE8 DUP2 PUSH2 0x1CAF JUMP JUMPDEST SWAP1 POP SWAP2 SWAP1 POP JUMP JUMPDEST PUSH0 PUSH1 0x20 PUSH1 0x1F DUP4 ADD DIV SWAP1 POP SWAP2 SWAP1 POP JUMP JUMPDEST PUSH0 DUP3 DUP3 SHL SWAP1 POP SWAP3 SWAP2 POP POP JUMP JUMPDEST PUSH0 PUSH1 0x8 DUP4 MUL PUSH2 0x1D39 PUSH32 0xFFFFFFFFFFFFFFFFFFFFFFFFFFFFFFFFFFFFFFFFFFFFFFFFFFFFFFFFFFFFFFFF DUP3 PUSH2 0x1CFE JUMP JUMPDEST PUSH2 0x1D43 DUP7 DUP4 PUSH2 0x1CFE JUMP JUMPDEST SWAP6 POP DUP1 NOT DUP5 AND SWAP4 POP DUP1 DUP7 AND DUP5 OR SWAP3 POP POP POP SWAP4 SWAP3 POP POP POP JUMP JUMPDEST PUSH0 DUP2 SWAP1 POP SWAP2 SWAP1 POP JUMP JUMPDEST PUSH0 PUSH2 0x1D7E PUSH2 0x1D79 PUSH2 0x1D74 DUP5 PUSH2 0x1471 JUMP JUMPDEST PUSH2 0x1D5B JUMP JUMPDEST PUSH2 0x1471 JUMP JUMPDEST SWAP1 POP SWAP2 SWAP1 POP JUMP JUMPDEST PUSH0 DUP2 SWAP1 POP SWAP2 SWAP1 POP JUMP JUMPDEST PUSH2 0x1D97 DUP4 PUSH2 0x1D64 JUMP JUMPDEST PUSH2 0x1DAB PUSH2 0x1DA3 DUP3 PUSH2 0x1D85 JUMP JUMPDEST DUP5 DUP5 SLOAD PUSH2 0x1D0A JUMP JUMPDEST DUP3 SSTORE POP POP POP POP JUMP JUMPDEST PUSH0 SWAP1 JUMP JUMPDEST PUSH2 0x1DBF PUSH2 0x1DB3 JUMP JUMPDEST PUSH2 0x1DCA DUP2 DUP5 DUP5 PUSH2 0x1D8E JUMP JUMPDEST POP POP POP JUMP JUMPDEST JUMPDEST DUP2 DUP2 LT ISZERO PUSH2 0x1DED JUMPI PUSH2 0x1DE2 PUSH0 DUP3 PUSH2 0x1DB7 JUMP JUMPDEST PUSH1 0x1 DUP2 ADD SWAP1 POP PUSH2 0x1DD0 JUMP JUMPDEST POP POP JUMP JUMPDEST PUSH1 0x1F DUP3 GT ISZERO PUSH2 0x1E32 JUMPI PUSH2 0x1E03 DUP2 PUSH2 0x1ADD JUMP JUMPDEST PUSH2 0x1E0C DUP5 PUSH2 0x1CEF JUMP JUMPDEST DUP2 ADD PUSH1 0x20 DUP6 LT ISZERO PUSH2 0x1E1B JUMPI DUP2 SWAP1 POP JUMPDEST PUSH2 0x1E2F PUSH2 0x1E27 DUP6 PUSH2 0x1CEF JUMP JUMPDEST DUP4 ADD DUP3 PUSH2 0x1DCF JUMP JUMPDEST POP POP JUMPDEST POP POP POP JUMP JUMPDEST PUSH0 DUP3 DUP3 SHR SWAP1 POP SWAP3 SWAP2 POP POP JUMP JUMPDEST PUSH0 PUSH2 0x1E52 PUSH0 NOT DUP5 PUSH1 0x8 MUL PUSH2 0x1E37 JUMP JUMPDEST NOT DUP1 DUP4 AND SWAP2 POP POP SWAP3 SWAP2 POP POP JUMP JUMPDEST PUSH0 PUSH2 0x1E6A DUP4 DUP4 PUSH2 0x1E43 JUMP JUMPDEST SWAP2 POP DUP3 PUSH1 0x2 MUL DUP3 OR SWAP1 POP SWAP3 SWAP2 POP POP JUMP JUMPDEST PUSH2 0x1E83 DUP3 PUSH2 0x14DE JUMP JUMPDEST PUSH8 0xFFFFFFFFFFFFFFFF DUP2 GT ISZERO PUSH2 0x1E9C JUMPI PUSH2 0x1E9B PUSH2 0x1298 JUMP JUMPDEST JUMPDEST PUSH2 0x1EA6 DUP3 SLOAD PUSH2 0x1AAD JUMP JUMPDEST PUSH2 0x1EB1 DUP3 DUP3 DUP6 PUSH2 0x1DF1 JUMP JUMPDEST PUSH0 PUSH1 0x20 SWAP1 POP PUSH1 0x1F DUP4 GT PUSH1 0x1 DUP2 EQ PUSH2 0x1EE2 JUMPI PUSH0 DUP5 ISZERO PUSH2 0x1ED0 JUMPI DUP3 DUP8 ADD MLOAD SWAP1 POP JUMPDEST PUSH2 0x1EDA DUP6 DUP3 PUSH2 0x1E5F JUMP JUMPDEST DUP7 SSTORE POP PUSH2 0x1F41 JUMP JUMPDEST PUSH1 0x1F NOT DUP5 AND PUSH2 0x1EF0 DUP7 PUSH2 0x1ADD JUMP JUMPDEST PUSH0 JUMPDEST DUP3 DUP2 LT ISZERO PUSH2 0x1F17 JUMPI DUP5 DUP10 ADD MLOAD DUP3 SSTORE PUSH1 0x1 DUP3 ADD SWAP2 POP PUSH1 0x20 DUP6 ADD SWAP5 POP PUSH1 0x20 DUP2 ADD SWAP1 POP PUSH2 0x1EF2 JUMP JUMPDEST DUP7 DUP4 LT ISZERO PUSH2 0x1F34 JUMPI DUP5 DUP10 ADD MLOAD PUSH2 0x1F30 PUSH1 0x1F DUP10 AND DUP3 PUSH2 0x1E43 JUMP JUMPDEST DUP4 SSTORE POP JUMPDEST PUSH1 0x1 PUSH1 0x2 DUP9 MUL ADD DUP9 SSTORE POP POP POP JUMPDEST POP POP POP POP POP POP JUMP INVALID LOG2 PUSH5 0x6970667358 0x22 SLT KECCAK256 0xB1 0xD7 STOP 0xC7 NUMBER SMOD 0x1F 0x26 CHAINID 0xD7 PUSH13 0xA7E8EB159F9098B9C1EDBF7AE8 SWAP5 PUSH25 0xE46BDB11159764736F6C634300081600330000000000000000 "
				},
				"gasEstimates": {
					"creation": {
						"codeDepositCost": "1612600",
						"executionCost": "25951",
						"totalCost": "1638551"
					},
					"external": {
						"addNewTransactionHistory(uint256,string,string,address,uint256,string)": "infinite",
						"adminAddress()": "2593",
						"campaignAddress()": "2531",
						"getAllTransaction()": "infinite",
						"getDonateByUser(string)": "infinite",
						"getTransactionHistoryByCampaignId(string)": "infinite",
						"isDonatedtoCampaign(address,string)": "infinite",
						"setCampaignAddress(address)": "26881",
						"transactionInfoArray(uint256)": "infinite"
					},
					"internal": {
						"resizeArray(struct TransactionHistory.TransactionInfo memory[] memory,uint256)": "infinite"
					}
				},
				"methodIdentifiers": {
					"addNewTransactionHistory(uint256,string,string,address,uint256,string)": "ec4efa92",
					"adminAddress()": "fc6f9468",
					"campaignAddress()": "11765b27",
					"getAllTransaction()": "add6415d",
					"getDonateByUser(string)": "e3726d66",
					"getTransactionHistoryByCampaignId(string)": "99b3e96a",
					"isDonatedtoCampaign(address,string)": "048fa3a7",
					"setCampaignAddress(address)": "a3306ae3",
					"transactionInfoArray(uint256)": "92ad672f"
				}
			},
			"storageLayout": {
				"storage": [
					{
						"astId": 4,
						"contract": "contracts/TransactionHistory.sol:TransactionHistory",
						"label": "adminAddress",
						"offset": 0,
						"slot": "0",
						"type": "t_address"
					},
					{
						"astId": 6,
						"contract": "contracts/TransactionHistory.sol:TransactionHistory",
						"label": "campaignAddress",
						"offset": 0,
						"slot": "1",
						"type": "t_address"
					},
					{
						"astId": 23,
						"contract": "contracts/TransactionHistory.sol:TransactionHistory",
						"label": "transactionInfoArray",
						"offset": 0,
						"slot": "2",
						"type": "t_array(t_struct(TransactionInfo)19_storage)dyn_storage"
					}
				],
				"types": {
					"t_address": {
						"encoding": "inplace",
						"label": "address",
						"numberOfBytes": "20"
					},
					"t_array(t_struct(TransactionInfo)19_storage)dyn_storage": {
						"base": "t_struct(TransactionInfo)19_storage",
						"encoding": "dynamic_array",
						"label": "struct TransactionHistory.TransactionInfo[]",
						"numberOfBytes": "32"
					},
					"t_string_storage": {
						"encoding": "bytes",
						"label": "string",
						"numberOfBytes": "32"
					},
					"t_struct(TransactionInfo)19_storage": {
						"encoding": "inplace",
						"label": "struct TransactionHistory.TransactionInfo",
						"members": [
							{
								"astId": 8,
								"contract": "contracts/TransactionHistory.sol:TransactionHistory",
								"label": "id",
								"offset": 0,
								"slot": "0",
								"type": "t_uint256"
							},
							{
								"astId": 10,
								"contract": "contracts/TransactionHistory.sol:TransactionHistory",
								"label": "campaignId",
								"offset": 0,
								"slot": "1",
								"type": "t_string_storage"
							},
							{
								"astId": 12,
								"contract": "contracts/TransactionHistory.sol:TransactionHistory",
								"label": "donatorId",
								"offset": 0,
								"slot": "2",
								"type": "t_string_storage"
							},
							{
								"astId": 14,
								"contract": "contracts/TransactionHistory.sol:TransactionHistory",
								"label": "donatorAddress",
								"offset": 0,
								"slot": "3",
								"type": "t_address"
							},
							{
								"astId": 16,
								"contract": "contracts/TransactionHistory.sol:TransactionHistory",
								"label": "value",
								"offset": 0,
								"slot": "4",
								"type": "t_uint256"
							},
							{
								"astId": 18,
								"contract": "contracts/TransactionHistory.sol:TransactionHistory",
								"label": "time",
								"offset": 0,
								"slot": "5",
								"type": "t_string_storage"
							}
						],
						"numberOfBytes": "192"
					},
					"t_uint256": {
						"encoding": "inplace",
						"label": "uint256",
						"numberOfBytes": "32"
					}
				}
			},
			"userdoc": {
				"kind": "user",
				"methods": {},
				"version": 1
			}
		}
	}
}